{
	"03_Storage.sol": {
		"EmployeeStorage": {
			"abi": [
				{
					"inputs": [
						{
							"internalType": "uint16",
							"name": "_shares",
							"type": "uint16"
						},
						{
							"internalType": "string",
							"name": "_name",
							"type": "string"
						},
						{
							"internalType": "uint32",
							"name": "_salary",
							"type": "uint32"
						},
						{
							"internalType": "uint256",
							"name": "_idNumber",
							"type": "uint256"
						}
					],
					"stateMutability": "nonpayable",
					"type": "constructor"
				},
				{
					"inputs": [
						{
							"internalType": "uint16",
							"name": "_shares",
							"type": "uint16"
						}
					],
					"name": "TooManyShares",
					"type": "error"
				},
				{
					"inputs": [
						{
							"internalType": "uint256",
							"name": "_slot",
							"type": "uint256"
						}
					],
					"name": "checkForPacking",
					"outputs": [
						{
							"internalType": "uint256",
							"name": "r",
							"type": "uint256"
						}
					],
					"stateMutability": "view",
					"type": "function"
				},
				{
					"inputs": [],
					"name": "debugResetShares",
					"outputs": [],
					"stateMutability": "nonpayable",
					"type": "function"
				},
				{
					"inputs": [
						{
							"internalType": "uint16",
							"name": "_newShares",
							"type": "uint16"
						}
					],
					"name": "grantShares",
					"outputs": [],
					"stateMutability": "nonpayable",
					"type": "function"
				},
				{
					"inputs": [],
					"name": "idNumber",
					"outputs": [
						{
							"internalType": "uint256",
							"name": "",
							"type": "uint256"
						}
					],
					"stateMutability": "view",
					"type": "function"
				},
				{
					"inputs": [],
					"name": "name",
					"outputs": [
						{
							"internalType": "string",
							"name": "",
							"type": "string"
						}
					],
					"stateMutability": "view",
					"type": "function"
				},
				{
					"inputs": [],
					"name": "viewSalary",
					"outputs": [
						{
							"internalType": "uint32",
							"name": "",
							"type": "uint32"
						}
					],
					"stateMutability": "view",
					"type": "function"
				},
				{
					"inputs": [],
					"name": "viewShares",
					"outputs": [
						{
							"internalType": "uint16",
							"name": "",
							"type": "uint16"
						}
					],
					"stateMutability": "view",
					"type": "function"
				}
			],
			"devdoc": {
				"kind": "dev",
				"methods": {},
				"version": 1
			},
			"evm": {
				"assembly": "    /* \"03_Storage.sol\":66:1600  contract EmployeeStorage {... */\n  mstore(0x40, 0x80)\n    /* \"03_Storage.sol\":441:717  constructor(uint16 _shares, string memory _name, uint32 _salary, uint _idNumber) {... */\n  callvalue\n  dup1\n  iszero\n  tag_1\n  jumpi\n  0x00\n  dup1\n  revert\ntag_1:\n  pop\n  mload(0x40)\n  sub(codesize, bytecodeSize)\n  dup1\n  bytecodeSize\n  dup4\n  codecopy\n  dup2\n  dup2\n  add\n  0x40\n  mstore\n  dup2\n  add\n  swap1\n  tag_2\n  swap2\n  swap1\n  tag_3\n  jump\t// in\ntag_2:\n    /* \"03_Storage.sol\":541:548  _shares */\n  dup4\n    /* \"03_Storage.sol\":532:538  shares */\n  0x00\n  dup1\n    /* \"03_Storage.sol\":532:548  shares = _shares */\n  0x0100\n  exp\n  dup2\n  sload\n  dup2\n  0xffff\n  mul\n  not\n  and\n  swap1\n  dup4\n  0xffff\n  and\n  mul\n  or\n  swap1\n  sstore\n  pop\n    /* \"03_Storage.sol\":586:591  _name */\n  dup3\n    /* \"03_Storage.sol\":579:583  name */\n  0x02\n    /* \"03_Storage.sol\":579:591  name = _name */\n  swap1\n  dup2\n  tag_6\n  swap2\n  swap1\n  tag_7\n  jump\t// in\ntag_6:\n  pop\n    /* \"03_Storage.sol\":629:636  _salary */\n  dup2\n    /* \"03_Storage.sol\":620:626  salary */\n  0x00\n  0x02\n    /* \"03_Storage.sol\":620:636  salary = _salary */\n  0x0100\n  exp\n  dup2\n  sload\n  dup2\n  0xffffffff\n  mul\n  not\n  and\n  swap1\n  dup4\n  0xffffffff\n  and\n  mul\n  or\n  swap1\n  sstore\n  pop\n    /* \"03_Storage.sol\":678:687  _idNumber */\n  dup1\n    /* \"03_Storage.sol\":667:675  idNumber */\n  0x01\n    /* \"03_Storage.sol\":667:687  idNumber = _idNumber */\n  dup2\n  swap1\n  sstore\n  pop\n    /* \"03_Storage.sol\":441:717  constructor(uint16 _shares, string memory _name, uint32 _salary, uint _idNumber) {... */\n  pop\n  pop\n  pop\n  pop\n    /* \"03_Storage.sol\":66:1600  contract EmployeeStorage {... */\n  jump(tag_8)\n    /* \"#utility.yul\":7:82   */\ntag_9:\n    /* \"#utility.yul\":40:46   */\n  0x00\n    /* \"#utility.yul\":73:75   */\n  0x40\n    /* \"#utility.yul\":67:76   */\n  mload\n    /* \"#utility.yul\":57:76   */\n  swap1\n  pop\n    /* \"#utility.yul\":7:82   */\n  swap1\n  jump\t// out\n    /* \"#utility.yul\":88:205   */\ntag_10:\n    /* \"#utility.yul\":197:198   */\n  0x00\n    /* \"#utility.yul\":194:195   */\n  dup1\n    /* \"#utility.yul\":187:199   */\n  revert\n    /* \"#utility.yul\":211:328   */\ntag_11:\n    /* \"#utility.yul\":320:321   */\n  0x00\n    /* \"#utility.yul\":317:318   */\n  dup1\n    /* \"#utility.yul\":310:322   */\n  revert\n    /* \"#utility.yul\":334:423   */\ntag_12:\n    /* \"#utility.yul\":370:377   */\n  0x00\n    /* \"#utility.yul\":410:416   */\n  0xffff\n    /* \"#utility.yul\":403:408   */\n  dup3\n    /* \"#utility.yul\":399:417   */\n  and\n    /* \"#utility.yul\":388:417   */\n  swap1\n  pop\n    /* \"#utility.yul\":334:423   */\n  swap2\n  swap1\n  pop\n  jump\t// out\n    /* \"#utility.yul\":429:549   */\ntag_13:\n    /* \"#utility.yul\":501:524   */\n  tag_55\n    /* \"#utility.yul\":518:523   */\n  dup2\n    /* \"#utility.yul\":501:524   */\n  tag_12\n  jump\t// in\ntag_55:\n    /* \"#utility.yul\":494:499   */\n  dup2\n    /* \"#utility.yul\":491:525   */\n  eq\n    /* \"#utility.yul\":481:543   */\n  tag_56\n  jumpi\n    /* \"#utility.yul\":539:540   */\n  0x00\n    /* \"#utility.yul\":536:537   */\n  dup1\n    /* \"#utility.yul\":529:541   */\n  revert\n    /* \"#utility.yul\":481:543   */\ntag_56:\n    /* \"#utility.yul\":429:549   */\n  pop\n  jump\t// out\n    /* \"#utility.yul\":555:696   */\ntag_14:\n    /* \"#utility.yul\":611:616   */\n  0x00\n    /* \"#utility.yul\":642:648   */\n  dup2\n    /* \"#utility.yul\":636:649   */\n  mload\n    /* \"#utility.yul\":627:649   */\n  swap1\n  pop\n    /* \"#utility.yul\":658:690   */\n  tag_58\n    /* \"#utility.yul\":684:689   */\n  dup2\n    /* \"#utility.yul\":658:690   */\n  tag_13\n  jump\t// in\ntag_58:\n    /* \"#utility.yul\":555:696   */\n  swap3\n  swap2\n  pop\n  pop\n  jump\t// out\n    /* \"#utility.yul\":702:819   */\ntag_15:\n    /* \"#utility.yul\":811:812   */\n  0x00\n    /* \"#utility.yul\":808:809   */\n  dup1\n    /* \"#utility.yul\":801:813   */\n  revert\n    /* \"#utility.yul\":825:942   */\ntag_16:\n    /* \"#utility.yul\":934:935   */\n  0x00\n    /* \"#utility.yul\":931:932   */\n  dup1\n    /* \"#utility.yul\":924:936   */\n  revert\n    /* \"#utility.yul\":948:1050   */\ntag_17:\n    /* \"#utility.yul\":989:995   */\n  0x00\n    /* \"#utility.yul\":1040:1042   */\n  0x1f\n    /* \"#utility.yul\":1036:1043   */\n  not\n    /* \"#utility.yul\":1031:1033   */\n  0x1f\n    /* \"#utility.yul\":1024:1029   */\n  dup4\n    /* \"#utility.yul\":1020:1034   */\n  add\n    /* \"#utility.yul\":1016:1044   */\n  and\n    /* \"#utility.yul\":1006:1044   */\n  swap1\n  pop\n    /* \"#utility.yul\":948:1050   */\n  swap2\n  swap1\n  pop\n  jump\t// out\n    /* \"#utility.yul\":1056:1236   */\ntag_18:\n    /* \"#utility.yul\":1104:1181   */\n  0x4e487b7100000000000000000000000000000000000000000000000000000000\n    /* \"#utility.yul\":1101:1102   */\n  0x00\n    /* \"#utility.yul\":1094:1182   */\n  mstore\n    /* \"#utility.yul\":1201:1205   */\n  0x41\n    /* \"#utility.yul\":1198:1199   */\n  0x04\n    /* \"#utility.yul\":1191:1206   */\n  mstore\n    /* \"#utility.yul\":1225:1229   */\n  0x24\n    /* \"#utility.yul\":1222:1223   */\n  0x00\n    /* \"#utility.yul\":1215:1230   */\n  revert\n    /* \"#utility.yul\":1242:1523   */\ntag_19:\n    /* \"#utility.yul\":1325:1352   */\n  tag_64\n    /* \"#utility.yul\":1347:1351   */\n  dup3\n    /* \"#utility.yul\":1325:1352   */\n  tag_17\n  jump\t// in\ntag_64:\n    /* \"#utility.yul\":1317:1323   */\n  dup2\n    /* \"#utility.yul\":1313:1353   */\n  add\n    /* \"#utility.yul\":1455:1461   */\n  dup2\n    /* \"#utility.yul\":1443:1453   */\n  dup2\n    /* \"#utility.yul\":1440:1462   */\n  lt\n    /* \"#utility.yul\":1419:1437   */\n  0xffffffffffffffff\n    /* \"#utility.yul\":1407:1417   */\n  dup3\n    /* \"#utility.yul\":1404:1438   */\n  gt\n    /* \"#utility.yul\":1401:1463   */\n  or\n    /* \"#utility.yul\":1398:1486   */\n  iszero\n  tag_65\n  jumpi\n    /* \"#utility.yul\":1466:1484   */\n  tag_66\n  tag_18\n  jump\t// in\ntag_66:\n    /* \"#utility.yul\":1398:1486   */\ntag_65:\n    /* \"#utility.yul\":1506:1516   */\n  dup1\n    /* \"#utility.yul\":1502:1504   */\n  0x40\n    /* \"#utility.yul\":1495:1517   */\n  mstore\n    /* \"#utility.yul\":1285:1523   */\n  pop\n    /* \"#utility.yul\":1242:1523   */\n  pop\n  pop\n  jump\t// out\n    /* \"#utility.yul\":1529:1658   */\ntag_20:\n    /* \"#utility.yul\":1563:1569   */\n  0x00\n    /* \"#utility.yul\":1590:1610   */\n  tag_68\n  tag_9\n  jump\t// in\ntag_68:\n    /* \"#utility.yul\":1580:1610   */\n  swap1\n  pop\n    /* \"#utility.yul\":1619:1652   */\n  tag_69\n    /* \"#utility.yul\":1647:1651   */\n  dup3\n    /* \"#utility.yul\":1639:1645   */\n  dup3\n    /* \"#utility.yul\":1619:1652   */\n  tag_19\n  jump\t// in\ntag_69:\n    /* \"#utility.yul\":1529:1658   */\n  swap2\n  swap1\n  pop\n  jump\t// out\n    /* \"#utility.yul\":1664:1972   */\ntag_21:\n    /* \"#utility.yul\":1726:1730   */\n  0x00\n    /* \"#utility.yul\":1816:1834   */\n  0xffffffffffffffff\n    /* \"#utility.yul\":1808:1814   */\n  dup3\n    /* \"#utility.yul\":1805:1835   */\n  gt\n    /* \"#utility.yul\":1802:1858   */\n  iszero\n  tag_71\n  jumpi\n    /* \"#utility.yul\":1838:1856   */\n  tag_72\n  tag_18\n  jump\t// in\ntag_72:\n    /* \"#utility.yul\":1802:1858   */\ntag_71:\n    /* \"#utility.yul\":1876:1905   */\n  tag_73\n    /* \"#utility.yul\":1898:1904   */\n  dup3\n    /* \"#utility.yul\":1876:1905   */\n  tag_17\n  jump\t// in\ntag_73:\n    /* \"#utility.yul\":1868:1905   */\n  swap1\n  pop\n    /* \"#utility.yul\":1960:1964   */\n  0x20\n    /* \"#utility.yul\":1954:1958   */\n  dup2\n    /* \"#utility.yul\":1950:1965   */\n  add\n    /* \"#utility.yul\":1942:1965   */\n  swap1\n  pop\n    /* \"#utility.yul\":1664:1972   */\n  swap2\n  swap1\n  pop\n  jump\t// out\n    /* \"#utility.yul\":1978:2224   */\ntag_22:\n    /* \"#utility.yul\":2059:2060   */\n  0x00\n    /* \"#utility.yul\":2069:2182   */\ntag_75:\n    /* \"#utility.yul\":2083:2089   */\n  dup4\n    /* \"#utility.yul\":2080:2081   */\n  dup2\n    /* \"#utility.yul\":2077:2090   */\n  lt\n    /* \"#utility.yul\":2069:2182   */\n  iszero\n  tag_77\n  jumpi\n    /* \"#utility.yul\":2168:2169   */\n  dup1\n    /* \"#utility.yul\":2163:2166   */\n  dup3\n    /* \"#utility.yul\":2159:2170   */\n  add\n    /* \"#utility.yul\":2153:2171   */\n  mload\n    /* \"#utility.yul\":2149:2150   */\n  dup2\n    /* \"#utility.yul\":2144:2147   */\n  dup5\n    /* \"#utility.yul\":2140:2151   */\n  add\n    /* \"#utility.yul\":2133:2172   */\n  mstore\n    /* \"#utility.yul\":2105:2107   */\n  0x20\n    /* \"#utility.yul\":2102:2103   */\n  dup2\n    /* \"#utility.yul\":2098:2108   */\n  add\n    /* \"#utility.yul\":2093:2108   */\n  swap1\n  pop\n    /* \"#utility.yul\":2069:2182   */\n  jump(tag_75)\ntag_77:\n    /* \"#utility.yul\":2216:2217   */\n  0x00\n    /* \"#utility.yul\":2207:2213   */\n  dup5\n    /* \"#utility.yul\":2202:2205   */\n  dup5\n    /* \"#utility.yul\":2198:2214   */\n  add\n    /* \"#utility.yul\":2191:2218   */\n  mstore\n    /* \"#utility.yul\":2040:2224   */\n  pop\n    /* \"#utility.yul\":1978:2224   */\n  pop\n  pop\n  pop\n  jump\t// out\n    /* \"#utility.yul\":2230:2664   */\ntag_23:\n    /* \"#utility.yul\":2319:2324   */\n  0x00\n    /* \"#utility.yul\":2344:2410   */\n  tag_79\n    /* \"#utility.yul\":2360:2409   */\n  tag_80\n    /* \"#utility.yul\":2402:2408   */\n  dup5\n    /* \"#utility.yul\":2360:2409   */\n  tag_21\n  jump\t// in\ntag_80:\n    /* \"#utility.yul\":2344:2410   */\n  tag_20\n  jump\t// in\ntag_79:\n    /* \"#utility.yul\":2335:2410   */\n  swap1\n  pop\n    /* \"#utility.yul\":2433:2439   */\n  dup3\n    /* \"#utility.yul\":2426:2431   */\n  dup2\n    /* \"#utility.yul\":2419:2440   */\n  mstore\n    /* \"#utility.yul\":2471:2475   */\n  0x20\n    /* \"#utility.yul\":2464:2469   */\n  dup2\n    /* \"#utility.yul\":2460:2476   */\n  add\n    /* \"#utility.yul\":2509:2512   */\n  dup5\n    /* \"#utility.yul\":2500:2506   */\n  dup5\n    /* \"#utility.yul\":2495:2498   */\n  dup5\n    /* \"#utility.yul\":2491:2507   */\n  add\n    /* \"#utility.yul\":2488:2513   */\n  gt\n    /* \"#utility.yul\":2485:2597   */\n  iszero\n  tag_81\n  jumpi\n    /* \"#utility.yul\":2516:2595   */\n  tag_82\n  tag_16\n  jump\t// in\ntag_82:\n    /* \"#utility.yul\":2485:2597   */\ntag_81:\n    /* \"#utility.yul\":2606:2658   */\n  tag_83\n    /* \"#utility.yul\":2651:2657   */\n  dup5\n    /* \"#utility.yul\":2646:2649   */\n  dup3\n    /* \"#utility.yul\":2641:2644   */\n  dup6\n    /* \"#utility.yul\":2606:2658   */\n  tag_22\n  jump\t// in\ntag_83:\n    /* \"#utility.yul\":2325:2664   */\n  pop\n    /* \"#utility.yul\":2230:2664   */\n  swap4\n  swap3\n  pop\n  pop\n  pop\n  jump\t// out\n    /* \"#utility.yul\":2684:3039   */\ntag_24:\n    /* \"#utility.yul\":2751:2756   */\n  0x00\n    /* \"#utility.yul\":2800:2803   */\n  dup3\n    /* \"#utility.yul\":2793:2797   */\n  0x1f\n    /* \"#utility.yul\":2785:2791   */\n  dup4\n    /* \"#utility.yul\":2781:2798   */\n  add\n    /* \"#utility.yul\":2777:2804   */\n  slt\n    /* \"#utility.yul\":2767:2889   */\n  tag_85\n  jumpi\n    /* \"#utility.yul\":2808:2887   */\n  tag_86\n  tag_15\n  jump\t// in\ntag_86:\n    /* \"#utility.yul\":2767:2889   */\ntag_85:\n    /* \"#utility.yul\":2918:2924   */\n  dup2\n    /* \"#utility.yul\":2912:2925   */\n  mload\n    /* \"#utility.yul\":2943:3033   */\n  tag_87\n    /* \"#utility.yul\":3029:3032   */\n  dup5\n    /* \"#utility.yul\":3021:3027   */\n  dup3\n    /* \"#utility.yul\":3014:3018   */\n  0x20\n    /* \"#utility.yul\":3006:3012   */\n  dup7\n    /* \"#utility.yul\":3002:3019   */\n  add\n    /* \"#utility.yul\":2943:3033   */\n  tag_23\n  jump\t// in\ntag_87:\n    /* \"#utility.yul\":2934:3033   */\n  swap2\n  pop\n    /* \"#utility.yul\":2757:3039   */\n  pop\n    /* \"#utility.yul\":2684:3039   */\n  swap3\n  swap2\n  pop\n  pop\n  jump\t// out\n    /* \"#utility.yul\":3045:3138   */\ntag_25:\n    /* \"#utility.yul\":3081:3088   */\n  0x00\n    /* \"#utility.yul\":3121:3131   */\n  0xffffffff\n    /* \"#utility.yul\":3114:3119   */\n  dup3\n    /* \"#utility.yul\":3110:3132   */\n  and\n    /* \"#utility.yul\":3099:3132   */\n  swap1\n  pop\n    /* \"#utility.yul\":3045:3138   */\n  swap2\n  swap1\n  pop\n  jump\t// out\n    /* \"#utility.yul\":3144:3264   */\ntag_26:\n    /* \"#utility.yul\":3216:3239   */\n  tag_90\n    /* \"#utility.yul\":3233:3238   */\n  dup2\n    /* \"#utility.yul\":3216:3239   */\n  tag_25\n  jump\t// in\ntag_90:\n    /* \"#utility.yul\":3209:3214   */\n  dup2\n    /* \"#utility.yul\":3206:3240   */\n  eq\n    /* \"#utility.yul\":3196:3258   */\n  tag_91\n  jumpi\n    /* \"#utility.yul\":3254:3255   */\n  0x00\n    /* \"#utility.yul\":3251:3252   */\n  dup1\n    /* \"#utility.yul\":3244:3256   */\n  revert\n    /* \"#utility.yul\":3196:3258   */\ntag_91:\n    /* \"#utility.yul\":3144:3264   */\n  pop\n  jump\t// out\n    /* \"#utility.yul\":3270:3411   */\ntag_27:\n    /* \"#utility.yul\":3326:3331   */\n  0x00\n    /* \"#utility.yul\":3357:3363   */\n  dup2\n    /* \"#utility.yul\":3351:3364   */\n  mload\n    /* \"#utility.yul\":3342:3364   */\n  swap1\n  pop\n    /* \"#utility.yul\":3373:3405   */\n  tag_93\n    /* \"#utility.yul\":3399:3404   */\n  dup2\n    /* \"#utility.yul\":3373:3405   */\n  tag_26\n  jump\t// in\ntag_93:\n    /* \"#utility.yul\":3270:3411   */\n  swap3\n  swap2\n  pop\n  pop\n  jump\t// out\n    /* \"#utility.yul\":3417:3494   */\ntag_28:\n    /* \"#utility.yul\":3454:3461   */\n  0x00\n    /* \"#utility.yul\":3483:3488   */\n  dup2\n    /* \"#utility.yul\":3472:3488   */\n  swap1\n  pop\n    /* \"#utility.yul\":3417:3494   */\n  swap2\n  swap1\n  pop\n  jump\t// out\n    /* \"#utility.yul\":3500:3622   */\ntag_29:\n    /* \"#utility.yul\":3573:3597   */\n  tag_96\n    /* \"#utility.yul\":3591:3596   */\n  dup2\n    /* \"#utility.yul\":3573:3597   */\n  tag_28\n  jump\t// in\ntag_96:\n    /* \"#utility.yul\":3566:3571   */\n  dup2\n    /* \"#utility.yul\":3563:3598   */\n  eq\n    /* \"#utility.yul\":3553:3616   */\n  tag_97\n  jumpi\n    /* \"#utility.yul\":3612:3613   */\n  0x00\n    /* \"#utility.yul\":3609:3610   */\n  dup1\n    /* \"#utility.yul\":3602:3614   */\n  revert\n    /* \"#utility.yul\":3553:3616   */\ntag_97:\n    /* \"#utility.yul\":3500:3622   */\n  pop\n  jump\t// out\n    /* \"#utility.yul\":3628:3771   */\ntag_30:\n    /* \"#utility.yul\":3685:3690   */\n  0x00\n    /* \"#utility.yul\":3716:3722   */\n  dup2\n    /* \"#utility.yul\":3710:3723   */\n  mload\n    /* \"#utility.yul\":3701:3723   */\n  swap1\n  pop\n    /* \"#utility.yul\":3732:3765   */\n  tag_99\n    /* \"#utility.yul\":3759:3764   */\n  dup2\n    /* \"#utility.yul\":3732:3765   */\n  tag_29\n  jump\t// in\ntag_99:\n    /* \"#utility.yul\":3628:3771   */\n  swap3\n  swap2\n  pop\n  pop\n  jump\t// out\n    /* \"#utility.yul\":3777:4766   */\ntag_3:\n    /* \"#utility.yul\":3882:3888   */\n  0x00\n    /* \"#utility.yul\":3890:3896   */\n  dup1\n    /* \"#utility.yul\":3898:3904   */\n  0x00\n    /* \"#utility.yul\":3906:3912   */\n  dup1\n    /* \"#utility.yul\":3955:3958   */\n  0x80\n    /* \"#utility.yul\":3943:3952   */\n  dup6\n    /* \"#utility.yul\":3934:3941   */\n  dup8\n    /* \"#utility.yul\":3930:3953   */\n  sub\n    /* \"#utility.yul\":3926:3959   */\n  slt\n    /* \"#utility.yul\":3923:4043   */\n  iszero\n  tag_101\n  jumpi\n    /* \"#utility.yul\":3962:4041   */\n  tag_102\n  tag_10\n  jump\t// in\ntag_102:\n    /* \"#utility.yul\":3923:4043   */\ntag_101:\n    /* \"#utility.yul\":4082:4083   */\n  0x00\n    /* \"#utility.yul\":4107:4170   */\n  tag_103\n    /* \"#utility.yul\":4162:4169   */\n  dup8\n    /* \"#utility.yul\":4153:4159   */\n  dup3\n    /* \"#utility.yul\":4142:4151   */\n  dup9\n    /* \"#utility.yul\":4138:4160   */\n  add\n    /* \"#utility.yul\":4107:4170   */\n  tag_14\n  jump\t// in\ntag_103:\n    /* \"#utility.yul\":4097:4170   */\n  swap5\n  pop\n    /* \"#utility.yul\":4053:4180   */\n  pop\n    /* \"#utility.yul\":4240:4242   */\n  0x20\n    /* \"#utility.yul\":4229:4238   */\n  dup6\n    /* \"#utility.yul\":4225:4243   */\n  add\n    /* \"#utility.yul\":4219:4244   */\n  mload\n    /* \"#utility.yul\":4271:4289   */\n  0xffffffffffffffff\n    /* \"#utility.yul\":4263:4269   */\n  dup2\n    /* \"#utility.yul\":4260:4290   */\n  gt\n    /* \"#utility.yul\":4257:4374   */\n  iszero\n  tag_104\n  jumpi\n    /* \"#utility.yul\":4293:4372   */\n  tag_105\n  tag_11\n  jump\t// in\ntag_105:\n    /* \"#utility.yul\":4257:4374   */\ntag_104:\n    /* \"#utility.yul\":4398:4472   */\n  tag_106\n    /* \"#utility.yul\":4464:4471   */\n  dup8\n    /* \"#utility.yul\":4455:4461   */\n  dup3\n    /* \"#utility.yul\":4444:4453   */\n  dup9\n    /* \"#utility.yul\":4440:4462   */\n  add\n    /* \"#utility.yul\":4398:4472   */\n  tag_24\n  jump\t// in\ntag_106:\n    /* \"#utility.yul\":4388:4472   */\n  swap4\n  pop\n    /* \"#utility.yul\":4190:4482   */\n  pop\n    /* \"#utility.yul\":4521:4523   */\n  0x40\n    /* \"#utility.yul\":4547:4610   */\n  tag_107\n    /* \"#utility.yul\":4602:4609   */\n  dup8\n    /* \"#utility.yul\":4593:4599   */\n  dup3\n    /* \"#utility.yul\":4582:4591   */\n  dup9\n    /* \"#utility.yul\":4578:4600   */\n  add\n    /* \"#utility.yul\":4547:4610   */\n  tag_27\n  jump\t// in\ntag_107:\n    /* \"#utility.yul\":4537:4610   */\n  swap3\n  pop\n    /* \"#utility.yul\":4492:4620   */\n  pop\n    /* \"#utility.yul\":4659:4661   */\n  0x60\n    /* \"#utility.yul\":4685:4749   */\n  tag_108\n    /* \"#utility.yul\":4741:4748   */\n  dup8\n    /* \"#utility.yul\":4732:4738   */\n  dup3\n    /* \"#utility.yul\":4721:4730   */\n  dup9\n    /* \"#utility.yul\":4717:4739   */\n  add\n    /* \"#utility.yul\":4685:4749   */\n  tag_30\n  jump\t// in\ntag_108:\n    /* \"#utility.yul\":4675:4749   */\n  swap2\n  pop\n    /* \"#utility.yul\":4630:4759   */\n  pop\n    /* \"#utility.yul\":3777:4766   */\n  swap3\n  swap6\n  swap2\n  swap5\n  pop\n  swap3\n  pop\n  jump\t// out\n    /* \"#utility.yul\":4772:4871   */\ntag_31:\n    /* \"#utility.yul\":4824:4830   */\n  0x00\n    /* \"#utility.yul\":4858:4863   */\n  dup2\n    /* \"#utility.yul\":4852:4864   */\n  mload\n    /* \"#utility.yul\":4842:4864   */\n  swap1\n  pop\n    /* \"#utility.yul\":4772:4871   */\n  swap2\n  swap1\n  pop\n  jump\t// out\n    /* \"#utility.yul\":4877:5057   */\ntag_32:\n    /* \"#utility.yul\":4925:5002   */\n  0x4e487b7100000000000000000000000000000000000000000000000000000000\n    /* \"#utility.yul\":4922:4923   */\n  0x00\n    /* \"#utility.yul\":4915:5003   */\n  mstore\n    /* \"#utility.yul\":5022:5026   */\n  0x22\n    /* \"#utility.yul\":5019:5020   */\n  0x04\n    /* \"#utility.yul\":5012:5027   */\n  mstore\n    /* \"#utility.yul\":5046:5050   */\n  0x24\n    /* \"#utility.yul\":5043:5044   */\n  0x00\n    /* \"#utility.yul\":5036:5051   */\n  revert\n    /* \"#utility.yul\":5063:5383   */\ntag_33:\n    /* \"#utility.yul\":5107:5113   */\n  0x00\n    /* \"#utility.yul\":5144:5145   */\n  0x02\n    /* \"#utility.yul\":5138:5142   */\n  dup3\n    /* \"#utility.yul\":5134:5146   */\n  div\n    /* \"#utility.yul\":5124:5146   */\n  swap1\n  pop\n    /* \"#utility.yul\":5191:5192   */\n  0x01\n    /* \"#utility.yul\":5185:5189   */\n  dup3\n    /* \"#utility.yul\":5181:5193   */\n  and\n    /* \"#utility.yul\":5212:5230   */\n  dup1\n    /* \"#utility.yul\":5202:5283   */\n  tag_112\n  jumpi\n    /* \"#utility.yul\":5268:5272   */\n  0x7f\n    /* \"#utility.yul\":5260:5266   */\n  dup3\n    /* \"#utility.yul\":5256:5273   */\n  and\n    /* \"#utility.yul\":5246:5273   */\n  swap2\n  pop\n    /* \"#utility.yul\":5202:5283   */\ntag_112:\n    /* \"#utility.yul\":5330:5332   */\n  0x20\n    /* \"#utility.yul\":5322:5328   */\n  dup3\n    /* \"#utility.yul\":5319:5333   */\n  lt\n    /* \"#utility.yul\":5299:5317   */\n  dup2\n    /* \"#utility.yul\":5296:5334   */\n  sub\n    /* \"#utility.yul\":5293:5377   */\n  tag_113\n  jumpi\n    /* \"#utility.yul\":5349:5367   */\n  tag_114\n  tag_32\n  jump\t// in\ntag_114:\n    /* \"#utility.yul\":5293:5377   */\ntag_113:\n    /* \"#utility.yul\":5114:5383   */\n  pop\n    /* \"#utility.yul\":5063:5383   */\n  swap2\n  swap1\n  pop\n  jump\t// out\n    /* \"#utility.yul\":5389:5530   */\ntag_34:\n    /* \"#utility.yul\":5438:5442   */\n  0x00\n    /* \"#utility.yul\":5461:5464   */\n  dup2\n    /* \"#utility.yul\":5453:5464   */\n  swap1\n  pop\n    /* \"#utility.yul\":5484:5487   */\n  dup2\n    /* \"#utility.yul\":5481:5482   */\n  0x00\n    /* \"#utility.yul\":5474:5488   */\n  mstore\n    /* \"#utility.yul\":5518:5522   */\n  0x20\n    /* \"#utility.yul\":5515:5516   */\n  0x00\n    /* \"#utility.yul\":5505:5523   */\n  keccak256\n    /* \"#utility.yul\":5497:5523   */\n  swap1\n  pop\n    /* \"#utility.yul\":5389:5530   */\n  swap2\n  swap1\n  pop\n  jump\t// out\n    /* \"#utility.yul\":5536:5629   */\ntag_35:\n    /* \"#utility.yul\":5573:5579   */\n  0x00\n    /* \"#utility.yul\":5620:5622   */\n  0x20\n    /* \"#utility.yul\":5615:5617   */\n  0x1f\n    /* \"#utility.yul\":5608:5613   */\n  dup4\n    /* \"#utility.yul\":5604:5618   */\n  add\n    /* \"#utility.yul\":5600:5623   */\n  div\n    /* \"#utility.yul\":5590:5623   */\n  swap1\n  pop\n    /* \"#utility.yul\":5536:5629   */\n  swap2\n  swap1\n  pop\n  jump\t// out\n    /* \"#utility.yul\":5635:5742   */\ntag_36:\n    /* \"#utility.yul\":5679:5687   */\n  0x00\n    /* \"#utility.yul\":5729:5734   */\n  dup3\n    /* \"#utility.yul\":5723:5727   */\n  dup3\n    /* \"#utility.yul\":5719:5735   */\n  shl\n    /* \"#utility.yul\":5698:5735   */\n  swap1\n  pop\n    /* \"#utility.yul\":5635:5742   */\n  swap3\n  swap2\n  pop\n  pop\n  jump\t// out\n    /* \"#utility.yul\":5748:6141   */\ntag_37:\n    /* \"#utility.yul\":5817:5823   */\n  0x00\n    /* \"#utility.yul\":5867:5868   */\n  0x08\n    /* \"#utility.yul\":5855:5865   */\n  dup4\n    /* \"#utility.yul\":5851:5869   */\n  mul\n    /* \"#utility.yul\":5890:5987   */\n  tag_119\n    /* \"#utility.yul\":5920:5986   */\n  0xffffffffffffffffffffffffffffffffffffffffffffffffffffffffffffffff\n    /* \"#utility.yul\":5909:5918   */\n  dup3\n    /* \"#utility.yul\":5890:5987   */\n  tag_36\n  jump\t// in\ntag_119:\n    /* \"#utility.yul\":6008:6047   */\n  tag_120\n    /* \"#utility.yul\":6038:6046   */\n  dup7\n    /* \"#utility.yul\":6027:6036   */\n  dup4\n    /* \"#utility.yul\":6008:6047   */\n  tag_36\n  jump\t// in\ntag_120:\n    /* \"#utility.yul\":5996:6047   */\n  swap6\n  pop\n    /* \"#utility.yul\":6080:6084   */\n  dup1\n    /* \"#utility.yul\":6076:6085   */\n  not\n    /* \"#utility.yul\":6069:6074   */\n  dup5\n    /* \"#utility.yul\":6065:6086   */\n  and\n    /* \"#utility.yul\":6056:6086   */\n  swap4\n  pop\n    /* \"#utility.yul\":6129:6133   */\n  dup1\n    /* \"#utility.yul\":6119:6127   */\n  dup7\n    /* \"#utility.yul\":6115:6134   */\n  and\n    /* \"#utility.yul\":6108:6113   */\n  dup5\n    /* \"#utility.yul\":6105:6135   */\n  or\n    /* \"#utility.yul\":6095:6135   */\n  swap3\n  pop\n    /* \"#utility.yul\":5824:6141   */\n  pop\n  pop\n    /* \"#utility.yul\":5748:6141   */\n  swap4\n  swap3\n  pop\n  pop\n  pop\n  jump\t// out\n    /* \"#utility.yul\":6147:6207   */\ntag_38:\n    /* \"#utility.yul\":6175:6178   */\n  0x00\n    /* \"#utility.yul\":6196:6201   */\n  dup2\n    /* \"#utility.yul\":6189:6201   */\n  swap1\n  pop\n    /* \"#utility.yul\":6147:6207   */\n  swap2\n  swap1\n  pop\n  jump\t// out\n    /* \"#utility.yul\":6213:6355   */\ntag_39:\n    /* \"#utility.yul\":6263:6272   */\n  0x00\n    /* \"#utility.yul\":6296:6349   */\n  tag_123\n    /* \"#utility.yul\":6314:6348   */\n  tag_124\n    /* \"#utility.yul\":6323:6347   */\n  tag_125\n    /* \"#utility.yul\":6341:6346   */\n  dup5\n    /* \"#utility.yul\":6323:6347   */\n  tag_28\n  jump\t// in\ntag_125:\n    /* \"#utility.yul\":6314:6348   */\n  tag_38\n  jump\t// in\ntag_124:\n    /* \"#utility.yul\":6296:6349   */\n  tag_28\n  jump\t// in\ntag_123:\n    /* \"#utility.yul\":6283:6349   */\n  swap1\n  pop\n    /* \"#utility.yul\":6213:6355   */\n  swap2\n  swap1\n  pop\n  jump\t// out\n    /* \"#utility.yul\":6361:6436   */\ntag_40:\n    /* \"#utility.yul\":6404:6407   */\n  0x00\n    /* \"#utility.yul\":6425:6430   */\n  dup2\n    /* \"#utility.yul\":6418:6430   */\n  swap1\n  pop\n    /* \"#utility.yul\":6361:6436   */\n  swap2\n  swap1\n  pop\n  jump\t// out\n    /* \"#utility.yul\":6442:6711   */\ntag_41:\n    /* \"#utility.yul\":6552:6591   */\n  tag_128\n    /* \"#utility.yul\":6583:6590   */\n  dup4\n    /* \"#utility.yul\":6552:6591   */\n  tag_39\n  jump\t// in\ntag_128:\n    /* \"#utility.yul\":6613:6704   */\n  tag_129\n    /* \"#utility.yul\":6662:6703   */\n  tag_130\n    /* \"#utility.yul\":6686:6702   */\n  dup3\n    /* \"#utility.yul\":6662:6703   */\n  tag_40\n  jump\t// in\ntag_130:\n    /* \"#utility.yul\":6654:6660   */\n  dup5\n    /* \"#utility.yul\":6647:6651   */\n  dup5\n    /* \"#utility.yul\":6641:6652   */\n  sload\n    /* \"#utility.yul\":6613:6704   */\n  tag_37\n  jump\t// in\ntag_129:\n    /* \"#utility.yul\":6607:6611   */\n  dup3\n    /* \"#utility.yul\":6600:6705   */\n  sstore\n    /* \"#utility.yul\":6518:6711   */\n  pop\n    /* \"#utility.yul\":6442:6711   */\n  pop\n  pop\n  pop\n  jump\t// out\n    /* \"#utility.yul\":6717:6790   */\ntag_42:\n    /* \"#utility.yul\":6762:6765   */\n  0x00\n    /* \"#utility.yul\":6717:6790   */\n  swap1\n  jump\t// out\n    /* \"#utility.yul\":6796:6985   */\ntag_43:\n    /* \"#utility.yul\":6873:6905   */\n  tag_133\n  tag_42\n  jump\t// in\ntag_133:\n    /* \"#utility.yul\":6914:6979   */\n  tag_134\n    /* \"#utility.yul\":6972:6978   */\n  dup2\n    /* \"#utility.yul\":6964:6970   */\n  dup5\n    /* \"#utility.yul\":6958:6962   */\n  dup5\n    /* \"#utility.yul\":6914:6979   */\n  tag_41\n  jump\t// in\ntag_134:\n    /* \"#utility.yul\":6849:6985   */\n  pop\n    /* \"#utility.yul\":6796:6985   */\n  pop\n  pop\n  jump\t// out\n    /* \"#utility.yul\":6991:7177   */\ntag_44:\n    /* \"#utility.yul\":7051:7171   */\ntag_136:\n    /* \"#utility.yul\":7068:7071   */\n  dup2\n    /* \"#utility.yul\":7061:7066   */\n  dup2\n    /* \"#utility.yul\":7058:7072   */\n  lt\n    /* \"#utility.yul\":7051:7171   */\n  iszero\n  tag_138\n  jumpi\n    /* \"#utility.yul\":7122:7161   */\n  tag_139\n    /* \"#utility.yul\":7159:7160   */\n  0x00\n    /* \"#utility.yul\":7152:7157   */\n  dup3\n    /* \"#utility.yul\":7122:7161   */\n  tag_43\n  jump\t// in\ntag_139:\n    /* \"#utility.yul\":7095:7096   */\n  0x01\n    /* \"#utility.yul\":7088:7093   */\n  dup2\n    /* \"#utility.yul\":7084:7097   */\n  add\n    /* \"#utility.yul\":7075:7097   */\n  swap1\n  pop\n    /* \"#utility.yul\":7051:7171   */\n  jump(tag_136)\ntag_138:\n    /* \"#utility.yul\":6991:7177   */\n  pop\n  pop\n  jump\t// out\n    /* \"#utility.yul\":7183:7726   */\ntag_45:\n    /* \"#utility.yul\":7284:7286   */\n  0x1f\n    /* \"#utility.yul\":7279:7282   */\n  dup3\n    /* \"#utility.yul\":7276:7287   */\n  gt\n    /* \"#utility.yul\":7273:7719   */\n  iszero\n  tag_141\n  jumpi\n    /* \"#utility.yul\":7318:7356   */\n  tag_142\n    /* \"#utility.yul\":7350:7355   */\n  dup2\n    /* \"#utility.yul\":7318:7356   */\n  tag_34\n  jump\t// in\ntag_142:\n    /* \"#utility.yul\":7402:7431   */\n  tag_143\n    /* \"#utility.yul\":7420:7430   */\n  dup5\n    /* \"#utility.yul\":7402:7431   */\n  tag_35\n  jump\t// in\ntag_143:\n    /* \"#utility.yul\":7392:7400   */\n  dup2\n    /* \"#utility.yul\":7388:7432   */\n  add\n    /* \"#utility.yul\":7585:7587   */\n  0x20\n    /* \"#utility.yul\":7573:7583   */\n  dup6\n    /* \"#utility.yul\":7570:7588   */\n  lt\n    /* \"#utility.yul\":7567:7616   */\n  iszero\n  tag_144\n  jumpi\n    /* \"#utility.yul\":7606:7614   */\n  dup2\n    /* \"#utility.yul\":7591:7614   */\n  swap1\n  pop\n    /* \"#utility.yul\":7567:7616   */\ntag_144:\n    /* \"#utility.yul\":7629:7709   */\n  tag_145\n    /* \"#utility.yul\":7685:7707   */\n  tag_146\n    /* \"#utility.yul\":7703:7706   */\n  dup6\n    /* \"#utility.yul\":7685:7707   */\n  tag_35\n  jump\t// in\ntag_146:\n    /* \"#utility.yul\":7675:7683   */\n  dup4\n    /* \"#utility.yul\":7671:7708   */\n  add\n    /* \"#utility.yul\":7658:7669   */\n  dup3\n    /* \"#utility.yul\":7629:7709   */\n  tag_44\n  jump\t// in\ntag_145:\n    /* \"#utility.yul\":7288:7719   */\n  pop\n  pop\n    /* \"#utility.yul\":7273:7719   */\ntag_141:\n    /* \"#utility.yul\":7183:7726   */\n  pop\n  pop\n  pop\n  jump\t// out\n    /* \"#utility.yul\":7732:7849   */\ntag_46:\n    /* \"#utility.yul\":7786:7794   */\n  0x00\n    /* \"#utility.yul\":7836:7841   */\n  dup3\n    /* \"#utility.yul\":7830:7834   */\n  dup3\n    /* \"#utility.yul\":7826:7842   */\n  shr\n    /* \"#utility.yul\":7805:7842   */\n  swap1\n  pop\n    /* \"#utility.yul\":7732:7849   */\n  swap3\n  swap2\n  pop\n  pop\n  jump\t// out\n    /* \"#utility.yul\":7855:8024   */\ntag_47:\n    /* \"#utility.yul\":7899:7905   */\n  0x00\n    /* \"#utility.yul\":7932:7983   */\n  tag_149\n    /* \"#utility.yul\":7980:7981   */\n  0x00\n    /* \"#utility.yul\":7976:7982   */\n  not\n    /* \"#utility.yul\":7968:7973   */\n  dup5\n    /* \"#utility.yul\":7965:7966   */\n  0x08\n    /* \"#utility.yul\":7961:7974   */\n  mul\n    /* \"#utility.yul\":7932:7983   */\n  tag_46\n  jump\t// in\ntag_149:\n    /* \"#utility.yul\":7928:7984   */\n  not\n    /* \"#utility.yul\":8013:8017   */\n  dup1\n    /* \"#utility.yul\":8007:8011   */\n  dup4\n    /* \"#utility.yul\":8003:8018   */\n  and\n    /* \"#utility.yul\":7993:8018   */\n  swap2\n  pop\n    /* \"#utility.yul\":7906:8024   */\n  pop\n    /* \"#utility.yul\":7855:8024   */\n  swap3\n  swap2\n  pop\n  pop\n  jump\t// out\n    /* \"#utility.yul\":8029:8324   */\ntag_48:\n    /* \"#utility.yul\":8105:8109   */\n  0x00\n    /* \"#utility.yul\":8251:8280   */\n  tag_151\n    /* \"#utility.yul\":8276:8279   */\n  dup4\n    /* \"#utility.yul\":8270:8274   */\n  dup4\n    /* \"#utility.yul\":8251:8280   */\n  tag_47\n  jump\t// in\ntag_151:\n    /* \"#utility.yul\":8243:8280   */\n  swap2\n  pop\n    /* \"#utility.yul\":8313:8316   */\n  dup3\n    /* \"#utility.yul\":8310:8311   */\n  0x02\n    /* \"#utility.yul\":8306:8317   */\n  mul\n    /* \"#utility.yul\":8300:8304   */\n  dup3\n    /* \"#utility.yul\":8297:8318   */\n  or\n    /* \"#utility.yul\":8289:8318   */\n  swap1\n  pop\n    /* \"#utility.yul\":8029:8324   */\n  swap3\n  swap2\n  pop\n  pop\n  jump\t// out\n    /* \"#utility.yul\":8329:9724   */\ntag_7:\n    /* \"#utility.yul\":8446:8483   */\n  tag_153\n    /* \"#utility.yul\":8479:8482   */\n  dup3\n    /* \"#utility.yul\":8446:8483   */\n  tag_31\n  jump\t// in\ntag_153:\n    /* \"#utility.yul\":8548:8566   */\n  0xffffffffffffffff\n    /* \"#utility.yul\":8540:8546   */\n  dup2\n    /* \"#utility.yul\":8537:8567   */\n  gt\n    /* \"#utility.yul\":8534:8590   */\n  iszero\n  tag_154\n  jumpi\n    /* \"#utility.yul\":8570:8588   */\n  tag_155\n  tag_18\n  jump\t// in\ntag_155:\n    /* \"#utility.yul\":8534:8590   */\ntag_154:\n    /* \"#utility.yul\":8614:8652   */\n  tag_156\n    /* \"#utility.yul\":8646:8650   */\n  dup3\n    /* \"#utility.yul\":8640:8651   */\n  sload\n    /* \"#utility.yul\":8614:8652   */\n  tag_33\n  jump\t// in\ntag_156:\n    /* \"#utility.yul\":8699:8766   */\n  tag_157\n    /* \"#utility.yul\":8759:8765   */\n  dup3\n    /* \"#utility.yul\":8751:8757   */\n  dup3\n    /* \"#utility.yul\":8745:8749   */\n  dup6\n    /* \"#utility.yul\":8699:8766   */\n  tag_45\n  jump\t// in\ntag_157:\n    /* \"#utility.yul\":8793:8794   */\n  0x00\n    /* \"#utility.yul\":8817:8821   */\n  0x20\n    /* \"#utility.yul\":8804:8821   */\n  swap1\n  pop\n    /* \"#utility.yul\":8849:8851   */\n  0x1f\n    /* \"#utility.yul\":8841:8847   */\n  dup4\n    /* \"#utility.yul\":8838:8852   */\n  gt\n    /* \"#utility.yul\":8866:8867   */\n  0x01\n    /* \"#utility.yul\":8861:9479   */\n  dup2\n  eq\n  tag_159\n  jumpi\n    /* \"#utility.yul\":9523:9524   */\n  0x00\n    /* \"#utility.yul\":9540:9546   */\n  dup5\n    /* \"#utility.yul\":9537:9614   */\n  iszero\n  tag_160\n  jumpi\n    /* \"#utility.yul\":9589:9598   */\n  dup3\n    /* \"#utility.yul\":9584:9587   */\n  dup8\n    /* \"#utility.yul\":9580:9599   */\n  add\n    /* \"#utility.yul\":9574:9600   */\n  mload\n    /* \"#utility.yul\":9565:9600   */\n  swap1\n  pop\n    /* \"#utility.yul\":9537:9614   */\ntag_160:\n    /* \"#utility.yul\":9640:9707   */\n  tag_161\n    /* \"#utility.yul\":9700:9706   */\n  dup6\n    /* \"#utility.yul\":9693:9698   */\n  dup3\n    /* \"#utility.yul\":9640:9707   */\n  tag_48\n  jump\t// in\ntag_161:\n    /* \"#utility.yul\":9634:9638   */\n  dup7\n    /* \"#utility.yul\":9627:9708   */\n  sstore\n    /* \"#utility.yul\":9496:9718   */\n  pop\n    /* \"#utility.yul\":8831:9718   */\n  jump(tag_158)\n    /* \"#utility.yul\":8861:9479   */\ntag_159:\n    /* \"#utility.yul\":8913:8917   */\n  0x1f\n    /* \"#utility.yul\":8909:8918   */\n  not\n    /* \"#utility.yul\":8901:8907   */\n  dup5\n    /* \"#utility.yul\":8897:8919   */\n  and\n    /* \"#utility.yul\":8947:8984   */\n  tag_162\n    /* \"#utility.yul\":8979:8983   */\n  dup7\n    /* \"#utility.yul\":8947:8984   */\n  tag_34\n  jump\t// in\ntag_162:\n    /* \"#utility.yul\":9006:9007   */\n  0x00\n    /* \"#utility.yul\":9020:9228   */\ntag_163:\n    /* \"#utility.yul\":9034:9041   */\n  dup3\n    /* \"#utility.yul\":9031:9032   */\n  dup2\n    /* \"#utility.yul\":9028:9042   */\n  lt\n    /* \"#utility.yul\":9020:9228   */\n  iszero\n  tag_165\n  jumpi\n    /* \"#utility.yul\":9113:9122   */\n  dup5\n    /* \"#utility.yul\":9108:9111   */\n  dup10\n    /* \"#utility.yul\":9104:9123   */\n  add\n    /* \"#utility.yul\":9098:9124   */\n  mload\n    /* \"#utility.yul\":9090:9096   */\n  dup3\n    /* \"#utility.yul\":9083:9125   */\n  sstore\n    /* \"#utility.yul\":9164:9165   */\n  0x01\n    /* \"#utility.yul\":9156:9162   */\n  dup3\n    /* \"#utility.yul\":9152:9166   */\n  add\n    /* \"#utility.yul\":9142:9166   */\n  swap2\n  pop\n    /* \"#utility.yul\":9211:9213   */\n  0x20\n    /* \"#utility.yul\":9200:9209   */\n  dup6\n    /* \"#utility.yul\":9196:9214   */\n  add\n    /* \"#utility.yul\":9183:9214   */\n  swap5\n  pop\n    /* \"#utility.yul\":9057:9061   */\n  0x20\n    /* \"#utility.yul\":9054:9055   */\n  dup2\n    /* \"#utility.yul\":9050:9062   */\n  add\n    /* \"#utility.yul\":9045:9062   */\n  swap1\n  pop\n    /* \"#utility.yul\":9020:9228   */\n  jump(tag_163)\ntag_165:\n    /* \"#utility.yul\":9256:9262   */\n  dup7\n    /* \"#utility.yul\":9247:9254   */\n  dup4\n    /* \"#utility.yul\":9244:9263   */\n  lt\n    /* \"#utility.yul\":9241:9420   */\n  iszero\n  tag_166\n  jumpi\n    /* \"#utility.yul\":9314:9323   */\n  dup5\n    /* \"#utility.yul\":9309:9312   */\n  dup10\n    /* \"#utility.yul\":9305:9324   */\n  add\n    /* \"#utility.yul\":9299:9325   */\n  mload\n    /* \"#utility.yul\":9357:9405   */\n  tag_167\n    /* \"#utility.yul\":9399:9403   */\n  0x1f\n    /* \"#utility.yul\":9391:9397   */\n  dup10\n    /* \"#utility.yul\":9387:9404   */\n  and\n    /* \"#utility.yul\":9376:9385   */\n  dup3\n    /* \"#utility.yul\":9357:9405   */\n  tag_47\n  jump\t// in\ntag_167:\n    /* \"#utility.yul\":9349:9355   */\n  dup4\n    /* \"#utility.yul\":9342:9406   */\n  sstore\n    /* \"#utility.yul\":9264:9420   */\n  pop\n    /* \"#utility.yul\":9241:9420   */\ntag_166:\n    /* \"#utility.yul\":9466:9467   */\n  0x01\n    /* \"#utility.yul\":9462:9463   */\n  0x02\n    /* \"#utility.yul\":9454:9460   */\n  dup9\n    /* \"#utility.yul\":9450:9464   */\n  mul\n    /* \"#utility.yul\":9446:9468   */\n  add\n    /* \"#utility.yul\":9440:9444   */\n  dup9\n    /* \"#utility.yul\":9433:9469   */\n  sstore\n    /* \"#utility.yul\":8868:9479   */\n  pop\n  pop\n  pop\n    /* \"#utility.yul\":8831:9718   */\ntag_158:\n  pop\n    /* \"#utility.yul\":8421:9724   */\n  pop\n  pop\n  pop\n    /* \"#utility.yul\":8329:9724   */\n  pop\n  pop\n  jump\t// out\n    /* \"03_Storage.sol\":66:1600  contract EmployeeStorage {... */\ntag_8:\n  dataSize(sub_0)\n  dup1\n  dataOffset(sub_0)\n  0x00\n  codecopy\n  0x00\n  return\nstop\n\nsub_0: assembly {\n        /* \"03_Storage.sol\":66:1600  contract EmployeeStorage {... */\n      mstore(0x40, 0x80)\n      callvalue\n      dup1\n      iszero\n      tag_1\n      jumpi\n      0x00\n      dup1\n      revert\n    tag_1:\n      pop\n      jumpi(tag_2, lt(calldatasize, 0x04))\n      shr(0xe0, calldataload(0x00))\n      dup1\n      0x4c764809\n      gt\n      tag_10\n      jumpi\n      dup1\n      0x4c764809\n      eq\n      tag_6\n      jumpi\n      dup1\n      0x52c98689\n      eq\n      tag_7\n      jumpi\n      dup1\n      0x6d45e2a5\n      eq\n      tag_8\n      jumpi\n      dup1\n      0x8f6a861a\n      eq\n      tag_9\n      jumpi\n      jump(tag_2)\n    tag_10:\n      dup1\n      0x06fdde03\n      eq\n      tag_3\n      jumpi\n      dup1\n      0x3f83ea3b\n      eq\n      tag_4\n      jumpi\n      dup1\n      0x49574402\n      eq\n      tag_5\n      jumpi\n    tag_2:\n      0x00\n      dup1\n      revert\n        /* \"03_Storage.sol\":370:388  string public name */\n    tag_3:\n      tag_11\n      tag_12\n      jump\t// in\n    tag_11:\n      mload(0x40)\n      tag_13\n      swap2\n      swap1\n      tag_14\n      jump\t// in\n    tag_13:\n      mload(0x40)\n      dup1\n      swap2\n      sub\n      swap1\n      return\n        /* \"03_Storage.sol\":271:294  uint256 public idNumber */\n    tag_4:\n      tag_15\n      tag_16\n      jump\t// in\n    tag_15:\n      mload(0x40)\n      tag_17\n      swap2\n      swap1\n      tag_18\n      jump\t// in\n    tag_17:\n      mload(0x40)\n      dup1\n      swap2\n      sub\n      swap1\n      return\n        /* \"03_Storage.sol\":814:895  function viewSalary() public view returns (uint32) {... */\n    tag_5:\n      tag_19\n      tag_20\n      jump\t// in\n    tag_19:\n      mload(0x40)\n      tag_21\n      swap2\n      swap1\n      tag_22\n      jump\t// in\n    tag_21:\n      mload(0x40)\n      dup1\n      swap2\n      sub\n      swap1\n      return\n        /* \"03_Storage.sol\":1509:1598  function debugResetShares() public {... */\n    tag_6:\n      tag_23\n      tag_24\n      jump\t// in\n    tag_23:\n      stop\n        /* \"03_Storage.sol\":947:1364  function grantShares(uint16 _newShares) public {... */\n    tag_7:\n      tag_25\n      0x04\n      dup1\n      calldatasize\n      sub\n      dup2\n      add\n      swap1\n      tag_26\n      swap2\n      swap1\n      tag_27\n      jump\t// in\n    tag_26:\n      tag_28\n      jump\t// in\n    tag_25:\n      stop\n        /* \"03_Storage.sol\":723:804  function viewShares() public view returns (uint16) {... */\n    tag_8:\n      tag_29\n      tag_30\n      jump\t// in\n    tag_29:\n      mload(0x40)\n      tag_31\n      swap2\n      swap1\n      tag_32\n      jump\t// in\n    tag_31:\n      mload(0x40)\n      dup1\n      swap2\n      sub\n      swap1\n      return\n        /* \"03_Storage.sol\":1370:1503  function checkForPacking(uint _slot) public view returns (uint r) {... */\n    tag_9:\n      tag_33\n      0x04\n      dup1\n      calldatasize\n      sub\n      dup2\n      add\n      swap1\n      tag_34\n      swap2\n      swap1\n      tag_35\n      jump\t// in\n    tag_34:\n      tag_36\n      jump\t// in\n    tag_33:\n      mload(0x40)\n      tag_37\n      swap2\n      swap1\n      tag_18\n      jump\t// in\n    tag_37:\n      mload(0x40)\n      dup1\n      swap2\n      sub\n      swap1\n      return\n        /* \"03_Storage.sol\":370:388  string public name */\n    tag_12:\n      0x02\n      dup1\n      sload\n      tag_38\n      swap1\n      tag_39\n      jump\t// in\n    tag_38:\n      dup1\n      0x1f\n      add\n      0x20\n      dup1\n      swap2\n      div\n      mul\n      0x20\n      add\n      mload(0x40)\n      swap1\n      dup2\n      add\n      0x40\n      mstore\n      dup1\n      swap3\n      swap2\n      swap1\n      dup2\n      dup2\n      mstore\n      0x20\n      add\n      dup3\n      dup1\n      sload\n      tag_40\n      swap1\n      tag_39\n      jump\t// in\n    tag_40:\n      dup1\n      iszero\n      tag_41\n      jumpi\n      dup1\n      0x1f\n      lt\n      tag_42\n      jumpi\n      0x0100\n      dup1\n      dup4\n      sload\n      div\n      mul\n      dup4\n      mstore\n      swap2\n      0x20\n      add\n      swap2\n      jump(tag_41)\n    tag_42:\n      dup3\n      add\n      swap2\n      swap1\n      0x00\n      mstore\n      keccak256(0x00, 0x20)\n      swap1\n    tag_43:\n      dup2\n      sload\n      dup2\n      mstore\n      swap1\n      0x01\n      add\n      swap1\n      0x20\n      add\n      dup1\n      dup4\n      gt\n      tag_43\n      jumpi\n      dup3\n      swap1\n      sub\n      0x1f\n      and\n      dup3\n      add\n      swap2\n    tag_41:\n      pop\n      pop\n      pop\n      pop\n      pop\n      dup2\n      jump\t// out\n        /* \"03_Storage.sol\":271:294  uint256 public idNumber */\n    tag_16:\n      sload(0x01)\n      dup2\n      jump\t// out\n        /* \"03_Storage.sol\":814:895  function viewSalary() public view returns (uint32) {... */\n    tag_20:\n        /* \"03_Storage.sol\":857:863  uint32 */\n      0x00\n        /* \"03_Storage.sol\":882:888  salary */\n      dup1\n      0x02\n      swap1\n      sload\n      swap1\n      0x0100\n      exp\n      swap1\n      div\n      0xffffffff\n      and\n        /* \"03_Storage.sol\":875:888  return salary */\n      swap1\n      pop\n        /* \"03_Storage.sol\":814:895  function viewSalary() public view returns (uint32) {... */\n      swap1\n      jump\t// out\n        /* \"03_Storage.sol\":1509:1598  function debugResetShares() public {... */\n    tag_24:\n        /* \"03_Storage.sol\":1563:1567  1000 */\n      0x03e8\n        /* \"03_Storage.sol\":1554:1560  shares */\n      0x00\n      dup1\n        /* \"03_Storage.sol\":1554:1567  shares = 1000 */\n      0x0100\n      exp\n      dup2\n      sload\n      dup2\n      0xffff\n      mul\n      not\n      and\n      swap1\n      dup4\n      0xffff\n      and\n      mul\n      or\n      swap1\n      sstore\n      pop\n        /* \"03_Storage.sol\":1509:1598  function debugResetShares() public {... */\n      jump\t// out\n        /* \"03_Storage.sol\":947:1364  function grantShares(uint16 _newShares) public {... */\n    tag_28:\n        /* \"03_Storage.sol\":1079:1083  5000 */\n      0x1388\n        /* \"03_Storage.sol\":1066:1076  _newShares */\n      dup2\n        /* \"03_Storage.sol\":1066:1083  _newShares > 5000 */\n      0xffff\n      and\n      gt\n        /* \"03_Storage.sol\":1062:1304  if (_newShares > 5000) {... */\n      iszero\n      tag_47\n      jumpi\n        /* \"03_Storage.sol\":1099:1124  revert(\"Too many shares\") */\n      mload(0x40)\n      0x08c379a000000000000000000000000000000000000000000000000000000000\n      dup2\n      mstore\n      0x04\n      add\n      tag_48\n      swap1\n      tag_49\n      jump\t// in\n    tag_48:\n      mload(0x40)\n      dup1\n      swap2\n      sub\n      swap1\n      revert\n        /* \"03_Storage.sol\":1062:1304  if (_newShares > 5000) {... */\n    tag_47:\n        /* \"03_Storage.sol\":1196:1200  5000 */\n      0x1388\n        /* \"03_Storage.sol\":1183:1193  _newShares */\n      dup2\n        /* \"03_Storage.sol\":1174:1180  shares */\n      0x00\n      dup1\n      sload\n      swap1\n      0x0100\n      exp\n      swap1\n      div\n      0xffff\n      and\n        /* \"03_Storage.sol\":1174:1193  shares + _newShares */\n      tag_51\n      swap2\n      swap1\n      tag_52\n      jump\t// in\n    tag_51:\n        /* \"03_Storage.sol\":1174:1200  shares + _newShares > 5000 */\n      0xffff\n      and\n      gt\n        /* \"03_Storage.sol\":1170:1304  if (shares + _newShares > 5000) {... */\n      iszero\n      tag_53\n      jumpi\n        /* \"03_Storage.sol\":1246:1256  _newShares */\n      dup1\n        /* \"03_Storage.sol\":1237:1243  shares */\n      0x00\n      dup1\n      sload\n      swap1\n      0x0100\n      exp\n      swap1\n      div\n      0xffff\n      and\n        /* \"03_Storage.sol\":1237:1256  shares + _newShares */\n      tag_54\n      swap2\n      swap1\n      tag_52\n      jump\t// in\n    tag_54:\n        /* \"03_Storage.sol\":1223:1257  TooManyShares(shares + _newShares) */\n      mload(0x40)\n      0x57e7182400000000000000000000000000000000000000000000000000000000\n      dup2\n      mstore\n      0x04\n      add\n      tag_55\n      swap2\n      swap1\n      tag_32\n      jump\t// in\n    tag_55:\n      mload(0x40)\n      dup1\n      swap2\n      sub\n      swap1\n      revert\n        /* \"03_Storage.sol\":1170:1304  if (shares + _newShares > 5000) {... */\n    tag_53:\n        /* \"03_Storage.sol\":1323:1333  _newShares */\n      dup1\n        /* \"03_Storage.sol\":1313:1319  shares */\n      0x00\n      dup1\n        /* \"03_Storage.sol\":1313:1333  shares += _newShares */\n      dup3\n      dup3\n      dup3\n      swap1\n      sload\n      swap1\n      0x0100\n      exp\n      swap1\n      div\n      0xffff\n      and\n      tag_56\n      swap2\n      swap1\n      tag_52\n      jump\t// in\n    tag_56:\n      swap3\n      pop\n      0x0100\n      exp\n      dup2\n      sload\n      dup2\n      0xffff\n      mul\n      not\n      and\n      swap1\n      dup4\n      0xffff\n      and\n      mul\n      or\n      swap1\n      sstore\n      pop\n        /* \"03_Storage.sol\":947:1364  function grantShares(uint16 _newShares) public {... */\n      pop\n      jump\t// out\n        /* \"03_Storage.sol\":723:804  function viewShares() public view returns (uint16) {... */\n    tag_30:\n        /* \"03_Storage.sol\":766:772  uint16 */\n      0x00\n        /* \"03_Storage.sol\":791:797  shares */\n      dup1\n      0x00\n      swap1\n      sload\n      swap1\n      0x0100\n      exp\n      swap1\n      div\n      0xffff\n      and\n        /* \"03_Storage.sol\":784:797  return shares */\n      swap1\n      pop\n        /* \"03_Storage.sol\":723:804  function viewShares() public view returns (uint16) {... */\n      swap1\n      jump\t// out\n        /* \"03_Storage.sol\":1370:1503  function checkForPacking(uint _slot) public view returns (uint r) {... */\n    tag_36:\n        /* \"03_Storage.sol\":1428:1434  uint r */\n      0x00\n        /* \"03_Storage.sol\":1481:1486  _slot */\n      dup2\n        /* \"03_Storage.sol\":1474:1487  sload (_slot) */\n      sload\n        /* \"03_Storage.sol\":1469:1487  r := sload (_slot) */\n      swap1\n      pop\n        /* \"03_Storage.sol\":1370:1503  function checkForPacking(uint _slot) public view returns (uint r) {... */\n      swap2\n      swap1\n      pop\n      jump\t// out\n        /* \"#utility.yul\":7:106   */\n    tag_59:\n        /* \"#utility.yul\":59:65   */\n      0x00\n        /* \"#utility.yul\":93:98   */\n      dup2\n        /* \"#utility.yul\":87:99   */\n      mload\n        /* \"#utility.yul\":77:99   */\n      swap1\n      pop\n        /* \"#utility.yul\":7:106   */\n      swap2\n      swap1\n      pop\n      jump\t// out\n        /* \"#utility.yul\":112:281   */\n    tag_60:\n        /* \"#utility.yul\":196:207   */\n      0x00\n        /* \"#utility.yul\":230:236   */\n      dup3\n        /* \"#utility.yul\":225:228   */\n      dup3\n        /* \"#utility.yul\":218:237   */\n      mstore\n        /* \"#utility.yul\":270:274   */\n      0x20\n        /* \"#utility.yul\":265:268   */\n      dup3\n        /* \"#utility.yul\":261:275   */\n      add\n        /* \"#utility.yul\":246:275   */\n      swap1\n      pop\n        /* \"#utility.yul\":112:281   */\n      swap3\n      swap2\n      pop\n      pop\n      jump\t// out\n        /* \"#utility.yul\":287:533   */\n    tag_61:\n        /* \"#utility.yul\":368:369   */\n      0x00\n        /* \"#utility.yul\":378:491   */\n    tag_85:\n        /* \"#utility.yul\":392:398   */\n      dup4\n        /* \"#utility.yul\":389:390   */\n      dup2\n        /* \"#utility.yul\":386:399   */\n      lt\n        /* \"#utility.yul\":378:491   */\n      iszero\n      tag_87\n      jumpi\n        /* \"#utility.yul\":477:478   */\n      dup1\n        /* \"#utility.yul\":472:475   */\n      dup3\n        /* \"#utility.yul\":468:479   */\n      add\n        /* \"#utility.yul\":462:480   */\n      mload\n        /* \"#utility.yul\":458:459   */\n      dup2\n        /* \"#utility.yul\":453:456   */\n      dup5\n        /* \"#utility.yul\":449:460   */\n      add\n        /* \"#utility.yul\":442:481   */\n      mstore\n        /* \"#utility.yul\":414:416   */\n      0x20\n        /* \"#utility.yul\":411:412   */\n      dup2\n        /* \"#utility.yul\":407:417   */\n      add\n        /* \"#utility.yul\":402:417   */\n      swap1\n      pop\n        /* \"#utility.yul\":378:491   */\n      jump(tag_85)\n    tag_87:\n        /* \"#utility.yul\":525:526   */\n      0x00\n        /* \"#utility.yul\":516:522   */\n      dup5\n        /* \"#utility.yul\":511:514   */\n      dup5\n        /* \"#utility.yul\":507:523   */\n      add\n        /* \"#utility.yul\":500:527   */\n      mstore\n        /* \"#utility.yul\":349:533   */\n      pop\n        /* \"#utility.yul\":287:533   */\n      pop\n      pop\n      pop\n      jump\t// out\n        /* \"#utility.yul\":539:641   */\n    tag_62:\n        /* \"#utility.yul\":580:586   */\n      0x00\n        /* \"#utility.yul\":631:633   */\n      0x1f\n        /* \"#utility.yul\":627:634   */\n      not\n        /* \"#utility.yul\":622:624   */\n      0x1f\n        /* \"#utility.yul\":615:620   */\n      dup4\n        /* \"#utility.yul\":611:625   */\n      add\n        /* \"#utility.yul\":607:635   */\n      and\n        /* \"#utility.yul\":597:635   */\n      swap1\n      pop\n        /* \"#utility.yul\":539:641   */\n      swap2\n      swap1\n      pop\n      jump\t// out\n        /* \"#utility.yul\":647:1024   */\n    tag_63:\n        /* \"#utility.yul\":735:738   */\n      0x00\n        /* \"#utility.yul\":763:802   */\n      tag_90\n        /* \"#utility.yul\":796:801   */\n      dup3\n        /* \"#utility.yul\":763:802   */\n      tag_59\n      jump\t// in\n    tag_90:\n        /* \"#utility.yul\":818:889   */\n      tag_91\n        /* \"#utility.yul\":882:888   */\n      dup2\n        /* \"#utility.yul\":877:880   */\n      dup6\n        /* \"#utility.yul\":818:889   */\n      tag_60\n      jump\t// in\n    tag_91:\n        /* \"#utility.yul\":811:889   */\n      swap4\n      pop\n        /* \"#utility.yul\":898:963   */\n      tag_92\n        /* \"#utility.yul\":956:962   */\n      dup2\n        /* \"#utility.yul\":951:954   */\n      dup6\n        /* \"#utility.yul\":944:948   */\n      0x20\n        /* \"#utility.yul\":937:942   */\n      dup7\n        /* \"#utility.yul\":933:949   */\n      add\n        /* \"#utility.yul\":898:963   */\n      tag_61\n      jump\t// in\n    tag_92:\n        /* \"#utility.yul\":988:1017   */\n      tag_93\n        /* \"#utility.yul\":1010:1016   */\n      dup2\n        /* \"#utility.yul\":988:1017   */\n      tag_62\n      jump\t// in\n    tag_93:\n        /* \"#utility.yul\":983:986   */\n      dup5\n        /* \"#utility.yul\":979:1018   */\n      add\n        /* \"#utility.yul\":972:1018   */\n      swap2\n      pop\n        /* \"#utility.yul\":739:1024   */\n      pop\n        /* \"#utility.yul\":647:1024   */\n      swap3\n      swap2\n      pop\n      pop\n      jump\t// out\n        /* \"#utility.yul\":1030:1343   */\n    tag_14:\n        /* \"#utility.yul\":1143:1147   */\n      0x00\n        /* \"#utility.yul\":1181:1183   */\n      0x20\n        /* \"#utility.yul\":1170:1179   */\n      dup3\n        /* \"#utility.yul\":1166:1184   */\n      add\n        /* \"#utility.yul\":1158:1184   */\n      swap1\n      pop\n        /* \"#utility.yul\":1230:1239   */\n      dup2\n        /* \"#utility.yul\":1224:1228   */\n      dup2\n        /* \"#utility.yul\":1220:1240   */\n      sub\n        /* \"#utility.yul\":1216:1217   */\n      0x00\n        /* \"#utility.yul\":1205:1214   */\n      dup4\n        /* \"#utility.yul\":1201:1218   */\n      add\n        /* \"#utility.yul\":1194:1241   */\n      mstore\n        /* \"#utility.yul\":1258:1336   */\n      tag_95\n        /* \"#utility.yul\":1331:1335   */\n      dup2\n        /* \"#utility.yul\":1322:1328   */\n      dup5\n        /* \"#utility.yul\":1258:1336   */\n      tag_63\n      jump\t// in\n    tag_95:\n        /* \"#utility.yul\":1250:1336   */\n      swap1\n      pop\n        /* \"#utility.yul\":1030:1343   */\n      swap3\n      swap2\n      pop\n      pop\n      jump\t// out\n        /* \"#utility.yul\":1349:1426   */\n    tag_64:\n        /* \"#utility.yul\":1386:1393   */\n      0x00\n        /* \"#utility.yul\":1415:1420   */\n      dup2\n        /* \"#utility.yul\":1404:1420   */\n      swap1\n      pop\n        /* \"#utility.yul\":1349:1426   */\n      swap2\n      swap1\n      pop\n      jump\t// out\n        /* \"#utility.yul\":1432:1550   */\n    tag_65:\n        /* \"#utility.yul\":1519:1543   */\n      tag_98\n        /* \"#utility.yul\":1537:1542   */\n      dup2\n        /* \"#utility.yul\":1519:1543   */\n      tag_64\n      jump\t// in\n    tag_98:\n        /* \"#utility.yul\":1514:1517   */\n      dup3\n        /* \"#utility.yul\":1507:1544   */\n      mstore\n        /* \"#utility.yul\":1432:1550   */\n      pop\n      pop\n      jump\t// out\n        /* \"#utility.yul\":1556:1778   */\n    tag_18:\n        /* \"#utility.yul\":1649:1653   */\n      0x00\n        /* \"#utility.yul\":1687:1689   */\n      0x20\n        /* \"#utility.yul\":1676:1685   */\n      dup3\n        /* \"#utility.yul\":1672:1690   */\n      add\n        /* \"#utility.yul\":1664:1690   */\n      swap1\n      pop\n        /* \"#utility.yul\":1700:1771   */\n      tag_100\n        /* \"#utility.yul\":1768:1769   */\n      0x00\n        /* \"#utility.yul\":1757:1766   */\n      dup4\n        /* \"#utility.yul\":1753:1770   */\n      add\n        /* \"#utility.yul\":1744:1750   */\n      dup5\n        /* \"#utility.yul\":1700:1771   */\n      tag_65\n      jump\t// in\n    tag_100:\n        /* \"#utility.yul\":1556:1778   */\n      swap3\n      swap2\n      pop\n      pop\n      jump\t// out\n        /* \"#utility.yul\":1784:1877   */\n    tag_66:\n        /* \"#utility.yul\":1820:1827   */\n      0x00\n        /* \"#utility.yul\":1860:1870   */\n      0xffffffff\n        /* \"#utility.yul\":1853:1858   */\n      dup3\n        /* \"#utility.yul\":1849:1871   */\n      and\n        /* \"#utility.yul\":1838:1871   */\n      swap1\n      pop\n        /* \"#utility.yul\":1784:1877   */\n      swap2\n      swap1\n      pop\n      jump\t// out\n        /* \"#utility.yul\":1883:1998   */\n    tag_67:\n        /* \"#utility.yul\":1968:1991   */\n      tag_103\n        /* \"#utility.yul\":1985:1990   */\n      dup2\n        /* \"#utility.yul\":1968:1991   */\n      tag_66\n      jump\t// in\n    tag_103:\n        /* \"#utility.yul\":1963:1966   */\n      dup3\n        /* \"#utility.yul\":1956:1992   */\n      mstore\n        /* \"#utility.yul\":1883:1998   */\n      pop\n      pop\n      jump\t// out\n        /* \"#utility.yul\":2004:2222   */\n    tag_22:\n        /* \"#utility.yul\":2095:2099   */\n      0x00\n        /* \"#utility.yul\":2133:2135   */\n      0x20\n        /* \"#utility.yul\":2122:2131   */\n      dup3\n        /* \"#utility.yul\":2118:2136   */\n      add\n        /* \"#utility.yul\":2110:2136   */\n      swap1\n      pop\n        /* \"#utility.yul\":2146:2215   */\n      tag_105\n        /* \"#utility.yul\":2212:2213   */\n      0x00\n        /* \"#utility.yul\":2201:2210   */\n      dup4\n        /* \"#utility.yul\":2197:2214   */\n      add\n        /* \"#utility.yul\":2188:2194   */\n      dup5\n        /* \"#utility.yul\":2146:2215   */\n      tag_67\n      jump\t// in\n    tag_105:\n        /* \"#utility.yul\":2004:2222   */\n      swap3\n      swap2\n      pop\n      pop\n      jump\t// out\n        /* \"#utility.yul\":2309:2426   */\n    tag_69:\n        /* \"#utility.yul\":2418:2419   */\n      0x00\n        /* \"#utility.yul\":2415:2416   */\n      dup1\n        /* \"#utility.yul\":2408:2420   */\n      revert\n        /* \"#utility.yul\":2555:2644   */\n    tag_71:\n        /* \"#utility.yul\":2591:2598   */\n      0x00\n        /* \"#utility.yul\":2631:2637   */\n      0xffff\n        /* \"#utility.yul\":2624:2629   */\n      dup3\n        /* \"#utility.yul\":2620:2638   */\n      and\n        /* \"#utility.yul\":2609:2638   */\n      swap1\n      pop\n        /* \"#utility.yul\":2555:2644   */\n      swap2\n      swap1\n      pop\n      jump\t// out\n        /* \"#utility.yul\":2650:2770   */\n    tag_72:\n        /* \"#utility.yul\":2722:2745   */\n      tag_111\n        /* \"#utility.yul\":2739:2744   */\n      dup2\n        /* \"#utility.yul\":2722:2745   */\n      tag_71\n      jump\t// in\n    tag_111:\n        /* \"#utility.yul\":2715:2720   */\n      dup2\n        /* \"#utility.yul\":2712:2746   */\n      eq\n        /* \"#utility.yul\":2702:2764   */\n      tag_112\n      jumpi\n        /* \"#utility.yul\":2760:2761   */\n      0x00\n        /* \"#utility.yul\":2757:2758   */\n      dup1\n        /* \"#utility.yul\":2750:2762   */\n      revert\n        /* \"#utility.yul\":2702:2764   */\n    tag_112:\n        /* \"#utility.yul\":2650:2770   */\n      pop\n      jump\t// out\n        /* \"#utility.yul\":2776:2913   */\n    tag_73:\n        /* \"#utility.yul\":2821:2826   */\n      0x00\n        /* \"#utility.yul\":2859:2865   */\n      dup2\n        /* \"#utility.yul\":2846:2866   */\n      calldataload\n        /* \"#utility.yul\":2837:2866   */\n      swap1\n      pop\n        /* \"#utility.yul\":2875:2907   */\n      tag_114\n        /* \"#utility.yul\":2901:2906   */\n      dup2\n        /* \"#utility.yul\":2875:2907   */\n      tag_72\n      jump\t// in\n    tag_114:\n        /* \"#utility.yul\":2776:2913   */\n      swap3\n      swap2\n      pop\n      pop\n      jump\t// out\n        /* \"#utility.yul\":2919:3246   */\n    tag_27:\n        /* \"#utility.yul\":2977:2983   */\n      0x00\n        /* \"#utility.yul\":3026:3028   */\n      0x20\n        /* \"#utility.yul\":3014:3023   */\n      dup3\n        /* \"#utility.yul\":3005:3012   */\n      dup5\n        /* \"#utility.yul\":3001:3024   */\n      sub\n        /* \"#utility.yul\":2997:3029   */\n      slt\n        /* \"#utility.yul\":2994:3113   */\n      iszero\n      tag_116\n      jumpi\n        /* \"#utility.yul\":3032:3111   */\n      tag_117\n      tag_69\n      jump\t// in\n    tag_117:\n        /* \"#utility.yul\":2994:3113   */\n    tag_116:\n        /* \"#utility.yul\":3152:3153   */\n      0x00\n        /* \"#utility.yul\":3177:3229   */\n      tag_118\n        /* \"#utility.yul\":3221:3228   */\n      dup5\n        /* \"#utility.yul\":3212:3218   */\n      dup3\n        /* \"#utility.yul\":3201:3210   */\n      dup6\n        /* \"#utility.yul\":3197:3219   */\n      add\n        /* \"#utility.yul\":3177:3229   */\n      tag_73\n      jump\t// in\n    tag_118:\n        /* \"#utility.yul\":3167:3229   */\n      swap2\n      pop\n        /* \"#utility.yul\":3123:3239   */\n      pop\n        /* \"#utility.yul\":2919:3246   */\n      swap3\n      swap2\n      pop\n      pop\n      jump\t// out\n        /* \"#utility.yul\":3252:3367   */\n    tag_74:\n        /* \"#utility.yul\":3337:3360   */\n      tag_120\n        /* \"#utility.yul\":3354:3359   */\n      dup2\n        /* \"#utility.yul\":3337:3360   */\n      tag_71\n      jump\t// in\n    tag_120:\n        /* \"#utility.yul\":3332:3335   */\n      dup3\n        /* \"#utility.yul\":3325:3361   */\n      mstore\n        /* \"#utility.yul\":3252:3367   */\n      pop\n      pop\n      jump\t// out\n        /* \"#utility.yul\":3373:3591   */\n    tag_32:\n        /* \"#utility.yul\":3464:3468   */\n      0x00\n        /* \"#utility.yul\":3502:3504   */\n      0x20\n        /* \"#utility.yul\":3491:3500   */\n      dup3\n        /* \"#utility.yul\":3487:3505   */\n      add\n        /* \"#utility.yul\":3479:3505   */\n      swap1\n      pop\n        /* \"#utility.yul\":3515:3584   */\n      tag_122\n        /* \"#utility.yul\":3581:3582   */\n      0x00\n        /* \"#utility.yul\":3570:3579   */\n      dup4\n        /* \"#utility.yul\":3566:3583   */\n      add\n        /* \"#utility.yul\":3557:3563   */\n      dup5\n        /* \"#utility.yul\":3515:3584   */\n      tag_74\n      jump\t// in\n    tag_122:\n        /* \"#utility.yul\":3373:3591   */\n      swap3\n      swap2\n      pop\n      pop\n      jump\t// out\n        /* \"#utility.yul\":3597:3719   */\n    tag_75:\n        /* \"#utility.yul\":3670:3694   */\n      tag_124\n        /* \"#utility.yul\":3688:3693   */\n      dup2\n        /* \"#utility.yul\":3670:3694   */\n      tag_64\n      jump\t// in\n    tag_124:\n        /* \"#utility.yul\":3663:3668   */\n      dup2\n        /* \"#utility.yul\":3660:3695   */\n      eq\n        /* \"#utility.yul\":3650:3713   */\n      tag_125\n      jumpi\n        /* \"#utility.yul\":3709:3710   */\n      0x00\n        /* \"#utility.yul\":3706:3707   */\n      dup1\n        /* \"#utility.yul\":3699:3711   */\n      revert\n        /* \"#utility.yul\":3650:3713   */\n    tag_125:\n        /* \"#utility.yul\":3597:3719   */\n      pop\n      jump\t// out\n        /* \"#utility.yul\":3725:3864   */\n    tag_76:\n        /* \"#utility.yul\":3771:3776   */\n      0x00\n        /* \"#utility.yul\":3809:3815   */\n      dup2\n        /* \"#utility.yul\":3796:3816   */\n      calldataload\n        /* \"#utility.yul\":3787:3816   */\n      swap1\n      pop\n        /* \"#utility.yul\":3825:3858   */\n      tag_127\n        /* \"#utility.yul\":3852:3857   */\n      dup2\n        /* \"#utility.yul\":3825:3858   */\n      tag_75\n      jump\t// in\n    tag_127:\n        /* \"#utility.yul\":3725:3864   */\n      swap3\n      swap2\n      pop\n      pop\n      jump\t// out\n        /* \"#utility.yul\":3870:4199   */\n    tag_35:\n        /* \"#utility.yul\":3929:3935   */\n      0x00\n        /* \"#utility.yul\":3978:3980   */\n      0x20\n        /* \"#utility.yul\":3966:3975   */\n      dup3\n        /* \"#utility.yul\":3957:3964   */\n      dup5\n        /* \"#utility.yul\":3953:3976   */\n      sub\n        /* \"#utility.yul\":3949:3981   */\n      slt\n        /* \"#utility.yul\":3946:4065   */\n      iszero\n      tag_129\n      jumpi\n        /* \"#utility.yul\":3984:4063   */\n      tag_130\n      tag_69\n      jump\t// in\n    tag_130:\n        /* \"#utility.yul\":3946:4065   */\n    tag_129:\n        /* \"#utility.yul\":4104:4105   */\n      0x00\n        /* \"#utility.yul\":4129:4182   */\n      tag_131\n        /* \"#utility.yul\":4174:4181   */\n      dup5\n        /* \"#utility.yul\":4165:4171   */\n      dup3\n        /* \"#utility.yul\":4154:4163   */\n      dup6\n        /* \"#utility.yul\":4150:4172   */\n      add\n        /* \"#utility.yul\":4129:4182   */\n      tag_76\n      jump\t// in\n    tag_131:\n        /* \"#utility.yul\":4119:4182   */\n      swap2\n      pop\n        /* \"#utility.yul\":4075:4192   */\n      pop\n        /* \"#utility.yul\":3870:4199   */\n      swap3\n      swap2\n      pop\n      pop\n      jump\t// out\n        /* \"#utility.yul\":4205:4385   */\n    tag_77:\n        /* \"#utility.yul\":4253:4330   */\n      0x4e487b7100000000000000000000000000000000000000000000000000000000\n        /* \"#utility.yul\":4250:4251   */\n      0x00\n        /* \"#utility.yul\":4243:4331   */\n      mstore\n        /* \"#utility.yul\":4350:4354   */\n      0x22\n        /* \"#utility.yul\":4347:4348   */\n      0x04\n        /* \"#utility.yul\":4340:4355   */\n      mstore\n        /* \"#utility.yul\":4374:4378   */\n      0x24\n        /* \"#utility.yul\":4371:4372   */\n      0x00\n        /* \"#utility.yul\":4364:4379   */\n      revert\n        /* \"#utility.yul\":4391:4711   */\n    tag_39:\n        /* \"#utility.yul\":4435:4441   */\n      0x00\n        /* \"#utility.yul\":4472:4473   */\n      0x02\n        /* \"#utility.yul\":4466:4470   */\n      dup3\n        /* \"#utility.yul\":4462:4474   */\n      div\n        /* \"#utility.yul\":4452:4474   */\n      swap1\n      pop\n        /* \"#utility.yul\":4519:4520   */\n      0x01\n        /* \"#utility.yul\":4513:4517   */\n      dup3\n        /* \"#utility.yul\":4509:4521   */\n      and\n        /* \"#utility.yul\":4540:4558   */\n      dup1\n        /* \"#utility.yul\":4530:4611   */\n      tag_134\n      jumpi\n        /* \"#utility.yul\":4596:4600   */\n      0x7f\n        /* \"#utility.yul\":4588:4594   */\n      dup3\n        /* \"#utility.yul\":4584:4601   */\n      and\n        /* \"#utility.yul\":4574:4601   */\n      swap2\n      pop\n        /* \"#utility.yul\":4530:4611   */\n    tag_134:\n        /* \"#utility.yul\":4658:4660   */\n      0x20\n        /* \"#utility.yul\":4650:4656   */\n      dup3\n        /* \"#utility.yul\":4647:4661   */\n      lt\n        /* \"#utility.yul\":4627:4645   */\n      dup2\n        /* \"#utility.yul\":4624:4662   */\n      sub\n        /* \"#utility.yul\":4621:4705   */\n      tag_135\n      jumpi\n        /* \"#utility.yul\":4677:4695   */\n      tag_136\n      tag_77\n      jump\t// in\n    tag_136:\n        /* \"#utility.yul\":4621:4705   */\n    tag_135:\n        /* \"#utility.yul\":4442:4711   */\n      pop\n        /* \"#utility.yul\":4391:4711   */\n      swap2\n      swap1\n      pop\n      jump\t// out\n        /* \"#utility.yul\":4717:4882   */\n    tag_78:\n        /* \"#utility.yul\":4857:4874   */\n      0x546f6f206d616e79207368617265730000000000000000000000000000000000\n        /* \"#utility.yul\":4853:4854   */\n      0x00\n        /* \"#utility.yul\":4845:4851   */\n      dup3\n        /* \"#utility.yul\":4841:4855   */\n      add\n        /* \"#utility.yul\":4834:4875   */\n      mstore\n        /* \"#utility.yul\":4717:4882   */\n      pop\n      jump\t// out\n        /* \"#utility.yul\":4888:5254   */\n    tag_79:\n        /* \"#utility.yul\":5030:5033   */\n      0x00\n        /* \"#utility.yul\":5051:5118   */\n      tag_139\n        /* \"#utility.yul\":5115:5117   */\n      0x0f\n        /* \"#utility.yul\":5110:5113   */\n      dup4\n        /* \"#utility.yul\":5051:5118   */\n      tag_60\n      jump\t// in\n    tag_139:\n        /* \"#utility.yul\":5044:5118   */\n      swap2\n      pop\n        /* \"#utility.yul\":5127:5220   */\n      tag_140\n        /* \"#utility.yul\":5216:5219   */\n      dup3\n        /* \"#utility.yul\":5127:5220   */\n      tag_78\n      jump\t// in\n    tag_140:\n        /* \"#utility.yul\":5245:5247   */\n      0x20\n        /* \"#utility.yul\":5240:5243   */\n      dup3\n        /* \"#utility.yul\":5236:5248   */\n      add\n        /* \"#utility.yul\":5229:5248   */\n      swap1\n      pop\n        /* \"#utility.yul\":4888:5254   */\n      swap2\n      swap1\n      pop\n      jump\t// out\n        /* \"#utility.yul\":5260:5679   */\n    tag_49:\n        /* \"#utility.yul\":5426:5430   */\n      0x00\n        /* \"#utility.yul\":5464:5466   */\n      0x20\n        /* \"#utility.yul\":5453:5462   */\n      dup3\n        /* \"#utility.yul\":5449:5467   */\n      add\n        /* \"#utility.yul\":5441:5467   */\n      swap1\n      pop\n        /* \"#utility.yul\":5513:5522   */\n      dup2\n        /* \"#utility.yul\":5507:5511   */\n      dup2\n        /* \"#utility.yul\":5503:5523   */\n      sub\n        /* \"#utility.yul\":5499:5500   */\n      0x00\n        /* \"#utility.yul\":5488:5497   */\n      dup4\n        /* \"#utility.yul\":5484:5501   */\n      add\n        /* \"#utility.yul\":5477:5524   */\n      mstore\n        /* \"#utility.yul\":5541:5672   */\n      tag_142\n        /* \"#utility.yul\":5667:5671   */\n      dup2\n        /* \"#utility.yul\":5541:5672   */\n      tag_79\n      jump\t// in\n    tag_142:\n        /* \"#utility.yul\":5533:5672   */\n      swap1\n      pop\n        /* \"#utility.yul\":5260:5679   */\n      swap2\n      swap1\n      pop\n      jump\t// out\n        /* \"#utility.yul\":5685:5865   */\n    tag_80:\n        /* \"#utility.yul\":5733:5810   */\n      0x4e487b7100000000000000000000000000000000000000000000000000000000\n        /* \"#utility.yul\":5730:5731   */\n      0x00\n        /* \"#utility.yul\":5723:5811   */\n      mstore\n        /* \"#utility.yul\":5830:5834   */\n      0x11\n        /* \"#utility.yul\":5827:5828   */\n      0x04\n        /* \"#utility.yul\":5820:5835   */\n      mstore\n        /* \"#utility.yul\":5854:5858   */\n      0x24\n        /* \"#utility.yul\":5851:5852   */\n      0x00\n        /* \"#utility.yul\":5844:5859   */\n      revert\n        /* \"#utility.yul\":5871:6064   */\n    tag_52:\n        /* \"#utility.yul\":5910:5913   */\n      0x00\n        /* \"#utility.yul\":5929:5948   */\n      tag_145\n        /* \"#utility.yul\":5946:5947   */\n      dup3\n        /* \"#utility.yul\":5929:5948   */\n      tag_71\n      jump\t// in\n    tag_145:\n        /* \"#utility.yul\":5924:5948   */\n      swap2\n      pop\n        /* \"#utility.yul\":5962:5981   */\n      tag_146\n        /* \"#utility.yul\":5979:5980   */\n      dup4\n        /* \"#utility.yul\":5962:5981   */\n      tag_71\n      jump\t// in\n    tag_146:\n        /* \"#utility.yul\":5957:5981   */\n      swap3\n      pop\n        /* \"#utility.yul\":6004:6005   */\n      dup3\n        /* \"#utility.yul\":6001:6002   */\n      dup3\n        /* \"#utility.yul\":5997:6006   */\n      add\n        /* \"#utility.yul\":5990:6006   */\n      swap1\n      pop\n        /* \"#utility.yul\":6027:6033   */\n      0xffff\n        /* \"#utility.yul\":6022:6025   */\n      dup2\n        /* \"#utility.yul\":6019:6034   */\n      gt\n        /* \"#utility.yul\":6016:6057   */\n      iszero\n      tag_147\n      jumpi\n        /* \"#utility.yul\":6037:6055   */\n      tag_148\n      tag_80\n      jump\t// in\n    tag_148:\n        /* \"#utility.yul\":6016:6057   */\n    tag_147:\n        /* \"#utility.yul\":5871:6064   */\n      swap3\n      swap2\n      pop\n      pop\n      jump\t// out\n\n    auxdata: 0xa2646970667358221220e91b286c1c28384e4103d11f4b2c0122942384771cf71551bc22be0e8d59fb6064736f6c63430008110033\n}\n",
				"bytecode": {
					"linkReferences": {},
					"object": "60806040523480156200001157600080fd5b5060405162000d6438038062000d648339818101604052810190620000379190620002e5565b836000806101000a81548161ffff021916908361ffff1602179055508260029081620000649190620005b7565b5081600060026101000a81548163ffffffff021916908363ffffffff16021790555080600181905550505050506200069e565b6000604051905090565b600080fd5b600080fd5b600061ffff82169050919050565b620000c481620000ab565b8114620000d057600080fd5b50565b600081519050620000e481620000b9565b92915050565b600080fd5b600080fd5b6000601f19601f8301169050919050565b7f4e487b7100000000000000000000000000000000000000000000000000000000600052604160045260246000fd5b6200013f82620000f4565b810181811067ffffffffffffffff8211171562000161576200016062000105565b5b80604052505050565b60006200017662000097565b905062000184828262000134565b919050565b600067ffffffffffffffff821115620001a757620001a662000105565b5b620001b282620000f4565b9050602081019050919050565b60005b83811015620001df578082015181840152602081019050620001c2565b60008484015250505050565b600062000202620001fc8462000189565b6200016a565b905082815260208101848484011115620002215762000220620000ef565b5b6200022e848285620001bf565b509392505050565b600082601f8301126200024e576200024d620000ea565b5b815162000260848260208601620001eb565b91505092915050565b600063ffffffff82169050919050565b620002848162000269565b81146200029057600080fd5b50565b600081519050620002a48162000279565b92915050565b6000819050919050565b620002bf81620002aa565b8114620002cb57600080fd5b50565b600081519050620002df81620002b4565b92915050565b60008060008060808587031215620003025762000301620000a1565b5b60006200031287828801620000d3565b945050602085015167ffffffffffffffff811115620003365762000335620000a6565b5b620003448782880162000236565b9350506040620003578782880162000293565b92505060606200036a87828801620002ce565b91505092959194509250565b600081519050919050565b7f4e487b7100000000000000000000000000000000000000000000000000000000600052602260045260246000fd5b60006002820490506001821680620003c957607f821691505b602082108103620003df57620003de62000381565b5b50919050565b60008190508160005260206000209050919050565b60006020601f8301049050919050565b600082821b905092915050565b600060088302620004497fffffffffffffffffffffffffffffffffffffffffffffffffffffffffffffffff826200040a565b6200045586836200040a565b95508019841693508086168417925050509392505050565b6000819050919050565b600062000498620004926200048c84620002aa565b6200046d565b620002aa565b9050919050565b6000819050919050565b620004b48362000477565b620004cc620004c3826200049f565b84845462000417565b825550505050565b600090565b620004e3620004d4565b620004f0818484620004a9565b505050565b5b8181101562000518576200050c600082620004d9565b600181019050620004f6565b5050565b601f82111562000567576200053181620003e5565b6200053c84620003fa565b810160208510156200054c578190505b620005646200055b85620003fa565b830182620004f5565b50505b505050565b600082821c905092915050565b60006200058c600019846008026200056c565b1980831691505092915050565b6000620005a7838362000579565b9150826002028217905092915050565b620005c28262000376565b67ffffffffffffffff811115620005de57620005dd62000105565b5b620005ea8254620003b0565b620005f78282856200051c565b600060209050601f8311600181146200062f57600084156200061a578287015190505b62000626858262000599565b86555062000696565b601f1984166200063f86620003e5565b60005b82811015620006695784890151825560018201915060208501945060208101905062000642565b8683101562000689578489015162000685601f89168262000579565b8355505b6001600288020188555050505b505050505050565b6106b680620006ae6000396000f3fe608060405234801561001057600080fd5b506004361061007d5760003560e01c80634c7648091161005b5780634c764809146100dc57806352c98689146100e65780636d45e2a5146101025780638f6a861a146101205761007d565b806306fdde03146100825780633f83ea3b146100a057806349574402146100be575b600080fd5b61008a610150565b60405161009791906103d0565b60405180910390f35b6100a86101de565b6040516100b5919061040b565b60405180910390f35b6100c66101e4565b6040516100d39190610445565b60405180910390f35b6100e46101fd565b005b61010060048036038101906100fb919061049f565b61021d565b005b61010a61031e565b60405161011791906104db565b60405180910390f35b61013a60048036038101906101359190610522565b610335565b604051610147919061040b565b60405180910390f35b6002805461015d9061057e565b80601f01602080910402602001604051908101604052809291908181526020018280546101899061057e565b80156101d65780601f106101ab576101008083540402835291602001916101d6565b820191906000526020600020905b8154815290600101906020018083116101b957829003601f168201915b505050505081565b60015481565b60008060029054906101000a900463ffffffff16905090565b6103e86000806101000a81548161ffff021916908361ffff160217905550565b6113888161ffff161115610266576040517f08c379a000000000000000000000000000000000000000000000000000000000815260040161025d906105fb565b60405180910390fd5b6113888160008054906101000a900461ffff16610283919061064a565b61ffff1611156102e3578060008054906101000a900461ffff166102a7919061064a565b6040517f57e718240000000000000000000000000000000000000000000000000000000081526004016102da91906104db565b60405180910390fd5b806000808282829054906101000a900461ffff16610301919061064a565b92506101000a81548161ffff021916908361ffff16021790555050565b60008060009054906101000a900461ffff16905090565b600081549050919050565b600081519050919050565b600082825260208201905092915050565b60005b8381101561037a57808201518184015260208101905061035f565b60008484015250505050565b6000601f19601f8301169050919050565b60006103a282610340565b6103ac818561034b565b93506103bc81856020860161035c565b6103c581610386565b840191505092915050565b600060208201905081810360008301526103ea8184610397565b905092915050565b6000819050919050565b610405816103f2565b82525050565b600060208201905061042060008301846103fc565b92915050565b600063ffffffff82169050919050565b61043f81610426565b82525050565b600060208201905061045a6000830184610436565b92915050565b600080fd5b600061ffff82169050919050565b61047c81610465565b811461048757600080fd5b50565b60008135905061049981610473565b92915050565b6000602082840312156104b5576104b4610460565b5b60006104c38482850161048a565b91505092915050565b6104d581610465565b82525050565b60006020820190506104f060008301846104cc565b92915050565b6104ff816103f2565b811461050a57600080fd5b50565b60008135905061051c816104f6565b92915050565b60006020828403121561053857610537610460565b5b60006105468482850161050d565b91505092915050565b7f4e487b7100000000000000000000000000000000000000000000000000000000600052602260045260246000fd5b6000600282049050600182168061059657607f821691505b6020821081036105a9576105a861054f565b5b50919050565b7f546f6f206d616e79207368617265730000000000000000000000000000000000600082015250565b60006105e5600f8361034b565b91506105f0826105af565b602082019050919050565b60006020820190508181036000830152610614816105d8565b9050919050565b7f4e487b7100000000000000000000000000000000000000000000000000000000600052601160045260246000fd5b600061065582610465565b915061066083610465565b9250828201905061ffff81111561067a5761067961061b565b5b9291505056fea2646970667358221220e91b286c1c28384e4103d11f4b2c0122942384771cf71551bc22be0e8d59fb6064736f6c63430008110033",
					"opcodes": "PUSH1 0x80 PUSH1 0x40 MSTORE CALLVALUE DUP1 ISZERO PUSH3 0x11 JUMPI PUSH1 0x0 DUP1 REVERT JUMPDEST POP PUSH1 0x40 MLOAD PUSH3 0xD64 CODESIZE SUB DUP1 PUSH3 0xD64 DUP4 CODECOPY DUP2 DUP2 ADD PUSH1 0x40 MSTORE DUP2 ADD SWAP1 PUSH3 0x37 SWAP2 SWAP1 PUSH3 0x2E5 JUMP JUMPDEST DUP4 PUSH1 0x0 DUP1 PUSH2 0x100 EXP DUP2 SLOAD DUP2 PUSH2 0xFFFF MUL NOT AND SWAP1 DUP4 PUSH2 0xFFFF AND MUL OR SWAP1 SSTORE POP DUP3 PUSH1 0x2 SWAP1 DUP2 PUSH3 0x64 SWAP2 SWAP1 PUSH3 0x5B7 JUMP JUMPDEST POP DUP2 PUSH1 0x0 PUSH1 0x2 PUSH2 0x100 EXP DUP2 SLOAD DUP2 PUSH4 0xFFFFFFFF MUL NOT AND SWAP1 DUP4 PUSH4 0xFFFFFFFF AND MUL OR SWAP1 SSTORE POP DUP1 PUSH1 0x1 DUP2 SWAP1 SSTORE POP POP POP POP POP PUSH3 0x69E JUMP JUMPDEST PUSH1 0x0 PUSH1 0x40 MLOAD SWAP1 POP SWAP1 JUMP JUMPDEST PUSH1 0x0 DUP1 REVERT JUMPDEST PUSH1 0x0 DUP1 REVERT JUMPDEST PUSH1 0x0 PUSH2 0xFFFF DUP3 AND SWAP1 POP SWAP2 SWAP1 POP JUMP JUMPDEST PUSH3 0xC4 DUP2 PUSH3 0xAB JUMP JUMPDEST DUP2 EQ PUSH3 0xD0 JUMPI PUSH1 0x0 DUP1 REVERT JUMPDEST POP JUMP JUMPDEST PUSH1 0x0 DUP2 MLOAD SWAP1 POP PUSH3 0xE4 DUP2 PUSH3 0xB9 JUMP JUMPDEST SWAP3 SWAP2 POP POP JUMP JUMPDEST PUSH1 0x0 DUP1 REVERT JUMPDEST PUSH1 0x0 DUP1 REVERT JUMPDEST PUSH1 0x0 PUSH1 0x1F NOT PUSH1 0x1F DUP4 ADD AND SWAP1 POP SWAP2 SWAP1 POP JUMP JUMPDEST PUSH32 0x4E487B7100000000000000000000000000000000000000000000000000000000 PUSH1 0x0 MSTORE PUSH1 0x41 PUSH1 0x4 MSTORE PUSH1 0x24 PUSH1 0x0 REVERT JUMPDEST PUSH3 0x13F DUP3 PUSH3 0xF4 JUMP JUMPDEST DUP2 ADD DUP2 DUP2 LT PUSH8 0xFFFFFFFFFFFFFFFF DUP3 GT OR ISZERO PUSH3 0x161 JUMPI PUSH3 0x160 PUSH3 0x105 JUMP JUMPDEST JUMPDEST DUP1 PUSH1 0x40 MSTORE POP POP POP JUMP JUMPDEST PUSH1 0x0 PUSH3 0x176 PUSH3 0x97 JUMP JUMPDEST SWAP1 POP PUSH3 0x184 DUP3 DUP3 PUSH3 0x134 JUMP JUMPDEST SWAP2 SWAP1 POP JUMP JUMPDEST PUSH1 0x0 PUSH8 0xFFFFFFFFFFFFFFFF DUP3 GT ISZERO PUSH3 0x1A7 JUMPI PUSH3 0x1A6 PUSH3 0x105 JUMP JUMPDEST JUMPDEST PUSH3 0x1B2 DUP3 PUSH3 0xF4 JUMP JUMPDEST SWAP1 POP PUSH1 0x20 DUP2 ADD SWAP1 POP SWAP2 SWAP1 POP JUMP JUMPDEST PUSH1 0x0 JUMPDEST DUP4 DUP2 LT ISZERO PUSH3 0x1DF JUMPI DUP1 DUP3 ADD MLOAD DUP2 DUP5 ADD MSTORE PUSH1 0x20 DUP2 ADD SWAP1 POP PUSH3 0x1C2 JUMP JUMPDEST PUSH1 0x0 DUP5 DUP5 ADD MSTORE POP POP POP POP JUMP JUMPDEST PUSH1 0x0 PUSH3 0x202 PUSH3 0x1FC DUP5 PUSH3 0x189 JUMP JUMPDEST PUSH3 0x16A JUMP JUMPDEST SWAP1 POP DUP3 DUP2 MSTORE PUSH1 0x20 DUP2 ADD DUP5 DUP5 DUP5 ADD GT ISZERO PUSH3 0x221 JUMPI PUSH3 0x220 PUSH3 0xEF JUMP JUMPDEST JUMPDEST PUSH3 0x22E DUP5 DUP3 DUP6 PUSH3 0x1BF JUMP JUMPDEST POP SWAP4 SWAP3 POP POP POP JUMP JUMPDEST PUSH1 0x0 DUP3 PUSH1 0x1F DUP4 ADD SLT PUSH3 0x24E JUMPI PUSH3 0x24D PUSH3 0xEA JUMP JUMPDEST JUMPDEST DUP2 MLOAD PUSH3 0x260 DUP5 DUP3 PUSH1 0x20 DUP7 ADD PUSH3 0x1EB JUMP JUMPDEST SWAP2 POP POP SWAP3 SWAP2 POP POP JUMP JUMPDEST PUSH1 0x0 PUSH4 0xFFFFFFFF DUP3 AND SWAP1 POP SWAP2 SWAP1 POP JUMP JUMPDEST PUSH3 0x284 DUP2 PUSH3 0x269 JUMP JUMPDEST DUP2 EQ PUSH3 0x290 JUMPI PUSH1 0x0 DUP1 REVERT JUMPDEST POP JUMP JUMPDEST PUSH1 0x0 DUP2 MLOAD SWAP1 POP PUSH3 0x2A4 DUP2 PUSH3 0x279 JUMP JUMPDEST SWAP3 SWAP2 POP POP JUMP JUMPDEST PUSH1 0x0 DUP2 SWAP1 POP SWAP2 SWAP1 POP JUMP JUMPDEST PUSH3 0x2BF DUP2 PUSH3 0x2AA JUMP JUMPDEST DUP2 EQ PUSH3 0x2CB JUMPI PUSH1 0x0 DUP1 REVERT JUMPDEST POP JUMP JUMPDEST PUSH1 0x0 DUP2 MLOAD SWAP1 POP PUSH3 0x2DF DUP2 PUSH3 0x2B4 JUMP JUMPDEST SWAP3 SWAP2 POP POP JUMP JUMPDEST PUSH1 0x0 DUP1 PUSH1 0x0 DUP1 PUSH1 0x80 DUP6 DUP8 SUB SLT ISZERO PUSH3 0x302 JUMPI PUSH3 0x301 PUSH3 0xA1 JUMP JUMPDEST JUMPDEST PUSH1 0x0 PUSH3 0x312 DUP8 DUP3 DUP9 ADD PUSH3 0xD3 JUMP JUMPDEST SWAP5 POP POP PUSH1 0x20 DUP6 ADD MLOAD PUSH8 0xFFFFFFFFFFFFFFFF DUP2 GT ISZERO PUSH3 0x336 JUMPI PUSH3 0x335 PUSH3 0xA6 JUMP JUMPDEST JUMPDEST PUSH3 0x344 DUP8 DUP3 DUP9 ADD PUSH3 0x236 JUMP JUMPDEST SWAP4 POP POP PUSH1 0x40 PUSH3 0x357 DUP8 DUP3 DUP9 ADD PUSH3 0x293 JUMP JUMPDEST SWAP3 POP POP PUSH1 0x60 PUSH3 0x36A DUP8 DUP3 DUP9 ADD PUSH3 0x2CE JUMP JUMPDEST SWAP2 POP POP SWAP3 SWAP6 SWAP2 SWAP5 POP SWAP3 POP JUMP JUMPDEST PUSH1 0x0 DUP2 MLOAD SWAP1 POP SWAP2 SWAP1 POP JUMP JUMPDEST PUSH32 0x4E487B7100000000000000000000000000000000000000000000000000000000 PUSH1 0x0 MSTORE PUSH1 0x22 PUSH1 0x4 MSTORE PUSH1 0x24 PUSH1 0x0 REVERT JUMPDEST PUSH1 0x0 PUSH1 0x2 DUP3 DIV SWAP1 POP PUSH1 0x1 DUP3 AND DUP1 PUSH3 0x3C9 JUMPI PUSH1 0x7F DUP3 AND SWAP2 POP JUMPDEST PUSH1 0x20 DUP3 LT DUP2 SUB PUSH3 0x3DF JUMPI PUSH3 0x3DE PUSH3 0x381 JUMP JUMPDEST JUMPDEST POP SWAP2 SWAP1 POP JUMP JUMPDEST PUSH1 0x0 DUP2 SWAP1 POP DUP2 PUSH1 0x0 MSTORE PUSH1 0x20 PUSH1 0x0 KECCAK256 SWAP1 POP SWAP2 SWAP1 POP JUMP JUMPDEST PUSH1 0x0 PUSH1 0x20 PUSH1 0x1F DUP4 ADD DIV SWAP1 POP SWAP2 SWAP1 POP JUMP JUMPDEST PUSH1 0x0 DUP3 DUP3 SHL SWAP1 POP SWAP3 SWAP2 POP POP JUMP JUMPDEST PUSH1 0x0 PUSH1 0x8 DUP4 MUL PUSH3 0x449 PUSH32 0xFFFFFFFFFFFFFFFFFFFFFFFFFFFFFFFFFFFFFFFFFFFFFFFFFFFFFFFFFFFFFFFF DUP3 PUSH3 0x40A JUMP JUMPDEST PUSH3 0x455 DUP7 DUP4 PUSH3 0x40A JUMP JUMPDEST SWAP6 POP DUP1 NOT DUP5 AND SWAP4 POP DUP1 DUP7 AND DUP5 OR SWAP3 POP POP POP SWAP4 SWAP3 POP POP POP JUMP JUMPDEST PUSH1 0x0 DUP2 SWAP1 POP SWAP2 SWAP1 POP JUMP JUMPDEST PUSH1 0x0 PUSH3 0x498 PUSH3 0x492 PUSH3 0x48C DUP5 PUSH3 0x2AA JUMP JUMPDEST PUSH3 0x46D JUMP JUMPDEST PUSH3 0x2AA JUMP JUMPDEST SWAP1 POP SWAP2 SWAP1 POP JUMP JUMPDEST PUSH1 0x0 DUP2 SWAP1 POP SWAP2 SWAP1 POP JUMP JUMPDEST PUSH3 0x4B4 DUP4 PUSH3 0x477 JUMP JUMPDEST PUSH3 0x4CC PUSH3 0x4C3 DUP3 PUSH3 0x49F JUMP JUMPDEST DUP5 DUP5 SLOAD PUSH3 0x417 JUMP JUMPDEST DUP3 SSTORE POP POP POP POP JUMP JUMPDEST PUSH1 0x0 SWAP1 JUMP JUMPDEST PUSH3 0x4E3 PUSH3 0x4D4 JUMP JUMPDEST PUSH3 0x4F0 DUP2 DUP5 DUP5 PUSH3 0x4A9 JUMP JUMPDEST POP POP POP JUMP JUMPDEST JUMPDEST DUP2 DUP2 LT ISZERO PUSH3 0x518 JUMPI PUSH3 0x50C PUSH1 0x0 DUP3 PUSH3 0x4D9 JUMP JUMPDEST PUSH1 0x1 DUP2 ADD SWAP1 POP PUSH3 0x4F6 JUMP JUMPDEST POP POP JUMP JUMPDEST PUSH1 0x1F DUP3 GT ISZERO PUSH3 0x567 JUMPI PUSH3 0x531 DUP2 PUSH3 0x3E5 JUMP JUMPDEST PUSH3 0x53C DUP5 PUSH3 0x3FA JUMP JUMPDEST DUP2 ADD PUSH1 0x20 DUP6 LT ISZERO PUSH3 0x54C JUMPI DUP2 SWAP1 POP JUMPDEST PUSH3 0x564 PUSH3 0x55B DUP6 PUSH3 0x3FA JUMP JUMPDEST DUP4 ADD DUP3 PUSH3 0x4F5 JUMP JUMPDEST POP POP JUMPDEST POP POP POP JUMP JUMPDEST PUSH1 0x0 DUP3 DUP3 SHR SWAP1 POP SWAP3 SWAP2 POP POP JUMP JUMPDEST PUSH1 0x0 PUSH3 0x58C PUSH1 0x0 NOT DUP5 PUSH1 0x8 MUL PUSH3 0x56C JUMP JUMPDEST NOT DUP1 DUP4 AND SWAP2 POP POP SWAP3 SWAP2 POP POP JUMP JUMPDEST PUSH1 0x0 PUSH3 0x5A7 DUP4 DUP4 PUSH3 0x579 JUMP JUMPDEST SWAP2 POP DUP3 PUSH1 0x2 MUL DUP3 OR SWAP1 POP SWAP3 SWAP2 POP POP JUMP JUMPDEST PUSH3 0x5C2 DUP3 PUSH3 0x376 JUMP JUMPDEST PUSH8 0xFFFFFFFFFFFFFFFF DUP2 GT ISZERO PUSH3 0x5DE JUMPI PUSH3 0x5DD PUSH3 0x105 JUMP JUMPDEST JUMPDEST PUSH3 0x5EA DUP3 SLOAD PUSH3 0x3B0 JUMP JUMPDEST PUSH3 0x5F7 DUP3 DUP3 DUP6 PUSH3 0x51C JUMP JUMPDEST PUSH1 0x0 PUSH1 0x20 SWAP1 POP PUSH1 0x1F DUP4 GT PUSH1 0x1 DUP2 EQ PUSH3 0x62F JUMPI PUSH1 0x0 DUP5 ISZERO PUSH3 0x61A JUMPI DUP3 DUP8 ADD MLOAD SWAP1 POP JUMPDEST PUSH3 0x626 DUP6 DUP3 PUSH3 0x599 JUMP JUMPDEST DUP7 SSTORE POP PUSH3 0x696 JUMP JUMPDEST PUSH1 0x1F NOT DUP5 AND PUSH3 0x63F DUP7 PUSH3 0x3E5 JUMP JUMPDEST PUSH1 0x0 JUMPDEST DUP3 DUP2 LT ISZERO PUSH3 0x669 JUMPI DUP5 DUP10 ADD MLOAD DUP3 SSTORE PUSH1 0x1 DUP3 ADD SWAP2 POP PUSH1 0x20 DUP6 ADD SWAP5 POP PUSH1 0x20 DUP2 ADD SWAP1 POP PUSH3 0x642 JUMP JUMPDEST DUP7 DUP4 LT ISZERO PUSH3 0x689 JUMPI DUP5 DUP10 ADD MLOAD PUSH3 0x685 PUSH1 0x1F DUP10 AND DUP3 PUSH3 0x579 JUMP JUMPDEST DUP4 SSTORE POP JUMPDEST PUSH1 0x1 PUSH1 0x2 DUP9 MUL ADD DUP9 SSTORE POP POP POP JUMPDEST POP POP POP POP POP POP JUMP JUMPDEST PUSH2 0x6B6 DUP1 PUSH3 0x6AE PUSH1 0x0 CODECOPY PUSH1 0x0 RETURN INVALID PUSH1 0x80 PUSH1 0x40 MSTORE CALLVALUE DUP1 ISZERO PUSH2 0x10 JUMPI PUSH1 0x0 DUP1 REVERT JUMPDEST POP PUSH1 0x4 CALLDATASIZE LT PUSH2 0x7D JUMPI PUSH1 0x0 CALLDATALOAD PUSH1 0xE0 SHR DUP1 PUSH4 0x4C764809 GT PUSH2 0x5B JUMPI DUP1 PUSH4 0x4C764809 EQ PUSH2 0xDC JUMPI DUP1 PUSH4 0x52C98689 EQ PUSH2 0xE6 JUMPI DUP1 PUSH4 0x6D45E2A5 EQ PUSH2 0x102 JUMPI DUP1 PUSH4 0x8F6A861A EQ PUSH2 0x120 JUMPI PUSH2 0x7D JUMP JUMPDEST DUP1 PUSH4 0x6FDDE03 EQ PUSH2 0x82 JUMPI DUP1 PUSH4 0x3F83EA3B EQ PUSH2 0xA0 JUMPI DUP1 PUSH4 0x49574402 EQ PUSH2 0xBE JUMPI JUMPDEST PUSH1 0x0 DUP1 REVERT JUMPDEST PUSH2 0x8A PUSH2 0x150 JUMP JUMPDEST PUSH1 0x40 MLOAD PUSH2 0x97 SWAP2 SWAP1 PUSH2 0x3D0 JUMP JUMPDEST PUSH1 0x40 MLOAD DUP1 SWAP2 SUB SWAP1 RETURN JUMPDEST PUSH2 0xA8 PUSH2 0x1DE JUMP JUMPDEST PUSH1 0x40 MLOAD PUSH2 0xB5 SWAP2 SWAP1 PUSH2 0x40B JUMP JUMPDEST PUSH1 0x40 MLOAD DUP1 SWAP2 SUB SWAP1 RETURN JUMPDEST PUSH2 0xC6 PUSH2 0x1E4 JUMP JUMPDEST PUSH1 0x40 MLOAD PUSH2 0xD3 SWAP2 SWAP1 PUSH2 0x445 JUMP JUMPDEST PUSH1 0x40 MLOAD DUP1 SWAP2 SUB SWAP1 RETURN JUMPDEST PUSH2 0xE4 PUSH2 0x1FD JUMP JUMPDEST STOP JUMPDEST PUSH2 0x100 PUSH1 0x4 DUP1 CALLDATASIZE SUB DUP2 ADD SWAP1 PUSH2 0xFB SWAP2 SWAP1 PUSH2 0x49F JUMP JUMPDEST PUSH2 0x21D JUMP JUMPDEST STOP JUMPDEST PUSH2 0x10A PUSH2 0x31E JUMP JUMPDEST PUSH1 0x40 MLOAD PUSH2 0x117 SWAP2 SWAP1 PUSH2 0x4DB JUMP JUMPDEST PUSH1 0x40 MLOAD DUP1 SWAP2 SUB SWAP1 RETURN JUMPDEST PUSH2 0x13A PUSH1 0x4 DUP1 CALLDATASIZE SUB DUP2 ADD SWAP1 PUSH2 0x135 SWAP2 SWAP1 PUSH2 0x522 JUMP JUMPDEST PUSH2 0x335 JUMP JUMPDEST PUSH1 0x40 MLOAD PUSH2 0x147 SWAP2 SWAP1 PUSH2 0x40B JUMP JUMPDEST PUSH1 0x40 MLOAD DUP1 SWAP2 SUB SWAP1 RETURN JUMPDEST PUSH1 0x2 DUP1 SLOAD PUSH2 0x15D SWAP1 PUSH2 0x57E JUMP JUMPDEST DUP1 PUSH1 0x1F ADD PUSH1 0x20 DUP1 SWAP2 DIV MUL PUSH1 0x20 ADD PUSH1 0x40 MLOAD SWAP1 DUP2 ADD PUSH1 0x40 MSTORE DUP1 SWAP3 SWAP2 SWAP1 DUP2 DUP2 MSTORE PUSH1 0x20 ADD DUP3 DUP1 SLOAD PUSH2 0x189 SWAP1 PUSH2 0x57E JUMP JUMPDEST DUP1 ISZERO PUSH2 0x1D6 JUMPI DUP1 PUSH1 0x1F LT PUSH2 0x1AB JUMPI PUSH2 0x100 DUP1 DUP4 SLOAD DIV MUL DUP4 MSTORE SWAP2 PUSH1 0x20 ADD SWAP2 PUSH2 0x1D6 JUMP JUMPDEST DUP3 ADD SWAP2 SWAP1 PUSH1 0x0 MSTORE PUSH1 0x20 PUSH1 0x0 KECCAK256 SWAP1 JUMPDEST DUP2 SLOAD DUP2 MSTORE SWAP1 PUSH1 0x1 ADD SWAP1 PUSH1 0x20 ADD DUP1 DUP4 GT PUSH2 0x1B9 JUMPI DUP3 SWAP1 SUB PUSH1 0x1F AND DUP3 ADD SWAP2 JUMPDEST POP POP POP POP POP DUP2 JUMP JUMPDEST PUSH1 0x1 SLOAD DUP2 JUMP JUMPDEST PUSH1 0x0 DUP1 PUSH1 0x2 SWAP1 SLOAD SWAP1 PUSH2 0x100 EXP SWAP1 DIV PUSH4 0xFFFFFFFF AND SWAP1 POP SWAP1 JUMP JUMPDEST PUSH2 0x3E8 PUSH1 0x0 DUP1 PUSH2 0x100 EXP DUP2 SLOAD DUP2 PUSH2 0xFFFF MUL NOT AND SWAP1 DUP4 PUSH2 0xFFFF AND MUL OR SWAP1 SSTORE POP JUMP JUMPDEST PUSH2 0x1388 DUP2 PUSH2 0xFFFF AND GT ISZERO PUSH2 0x266 JUMPI PUSH1 0x40 MLOAD PUSH32 0x8C379A000000000000000000000000000000000000000000000000000000000 DUP2 MSTORE PUSH1 0x4 ADD PUSH2 0x25D SWAP1 PUSH2 0x5FB JUMP JUMPDEST PUSH1 0x40 MLOAD DUP1 SWAP2 SUB SWAP1 REVERT JUMPDEST PUSH2 0x1388 DUP2 PUSH1 0x0 DUP1 SLOAD SWAP1 PUSH2 0x100 EXP SWAP1 DIV PUSH2 0xFFFF AND PUSH2 0x283 SWAP2 SWAP1 PUSH2 0x64A JUMP JUMPDEST PUSH2 0xFFFF AND GT ISZERO PUSH2 0x2E3 JUMPI DUP1 PUSH1 0x0 DUP1 SLOAD SWAP1 PUSH2 0x100 EXP SWAP1 DIV PUSH2 0xFFFF AND PUSH2 0x2A7 SWAP2 SWAP1 PUSH2 0x64A JUMP JUMPDEST PUSH1 0x40 MLOAD PUSH32 0x57E7182400000000000000000000000000000000000000000000000000000000 DUP2 MSTORE PUSH1 0x4 ADD PUSH2 0x2DA SWAP2 SWAP1 PUSH2 0x4DB JUMP JUMPDEST PUSH1 0x40 MLOAD DUP1 SWAP2 SUB SWAP1 REVERT JUMPDEST DUP1 PUSH1 0x0 DUP1 DUP3 DUP3 DUP3 SWAP1 SLOAD SWAP1 PUSH2 0x100 EXP SWAP1 DIV PUSH2 0xFFFF AND PUSH2 0x301 SWAP2 SWAP1 PUSH2 0x64A JUMP JUMPDEST SWAP3 POP PUSH2 0x100 EXP DUP2 SLOAD DUP2 PUSH2 0xFFFF MUL NOT AND SWAP1 DUP4 PUSH2 0xFFFF AND MUL OR SWAP1 SSTORE POP POP JUMP JUMPDEST PUSH1 0x0 DUP1 PUSH1 0x0 SWAP1 SLOAD SWAP1 PUSH2 0x100 EXP SWAP1 DIV PUSH2 0xFFFF AND SWAP1 POP SWAP1 JUMP JUMPDEST PUSH1 0x0 DUP2 SLOAD SWAP1 POP SWAP2 SWAP1 POP JUMP JUMPDEST PUSH1 0x0 DUP2 MLOAD SWAP1 POP SWAP2 SWAP1 POP JUMP JUMPDEST PUSH1 0x0 DUP3 DUP3 MSTORE PUSH1 0x20 DUP3 ADD SWAP1 POP SWAP3 SWAP2 POP POP JUMP JUMPDEST PUSH1 0x0 JUMPDEST DUP4 DUP2 LT ISZERO PUSH2 0x37A JUMPI DUP1 DUP3 ADD MLOAD DUP2 DUP5 ADD MSTORE PUSH1 0x20 DUP2 ADD SWAP1 POP PUSH2 0x35F JUMP JUMPDEST PUSH1 0x0 DUP5 DUP5 ADD MSTORE POP POP POP POP JUMP JUMPDEST PUSH1 0x0 PUSH1 0x1F NOT PUSH1 0x1F DUP4 ADD AND SWAP1 POP SWAP2 SWAP1 POP JUMP JUMPDEST PUSH1 0x0 PUSH2 0x3A2 DUP3 PUSH2 0x340 JUMP JUMPDEST PUSH2 0x3AC DUP2 DUP6 PUSH2 0x34B JUMP JUMPDEST SWAP4 POP PUSH2 0x3BC DUP2 DUP6 PUSH1 0x20 DUP7 ADD PUSH2 0x35C JUMP JUMPDEST PUSH2 0x3C5 DUP2 PUSH2 0x386 JUMP JUMPDEST DUP5 ADD SWAP2 POP POP SWAP3 SWAP2 POP POP JUMP JUMPDEST PUSH1 0x0 PUSH1 0x20 DUP3 ADD SWAP1 POP DUP2 DUP2 SUB PUSH1 0x0 DUP4 ADD MSTORE PUSH2 0x3EA DUP2 DUP5 PUSH2 0x397 JUMP JUMPDEST SWAP1 POP SWAP3 SWAP2 POP POP JUMP JUMPDEST PUSH1 0x0 DUP2 SWAP1 POP SWAP2 SWAP1 POP JUMP JUMPDEST PUSH2 0x405 DUP2 PUSH2 0x3F2 JUMP JUMPDEST DUP3 MSTORE POP POP JUMP JUMPDEST PUSH1 0x0 PUSH1 0x20 DUP3 ADD SWAP1 POP PUSH2 0x420 PUSH1 0x0 DUP4 ADD DUP5 PUSH2 0x3FC JUMP JUMPDEST SWAP3 SWAP2 POP POP JUMP JUMPDEST PUSH1 0x0 PUSH4 0xFFFFFFFF DUP3 AND SWAP1 POP SWAP2 SWAP1 POP JUMP JUMPDEST PUSH2 0x43F DUP2 PUSH2 0x426 JUMP JUMPDEST DUP3 MSTORE POP POP JUMP JUMPDEST PUSH1 0x0 PUSH1 0x20 DUP3 ADD SWAP1 POP PUSH2 0x45A PUSH1 0x0 DUP4 ADD DUP5 PUSH2 0x436 JUMP JUMPDEST SWAP3 SWAP2 POP POP JUMP JUMPDEST PUSH1 0x0 DUP1 REVERT JUMPDEST PUSH1 0x0 PUSH2 0xFFFF DUP3 AND SWAP1 POP SWAP2 SWAP1 POP JUMP JUMPDEST PUSH2 0x47C DUP2 PUSH2 0x465 JUMP JUMPDEST DUP2 EQ PUSH2 0x487 JUMPI PUSH1 0x0 DUP1 REVERT JUMPDEST POP JUMP JUMPDEST PUSH1 0x0 DUP2 CALLDATALOAD SWAP1 POP PUSH2 0x499 DUP2 PUSH2 0x473 JUMP JUMPDEST SWAP3 SWAP2 POP POP JUMP JUMPDEST PUSH1 0x0 PUSH1 0x20 DUP3 DUP5 SUB SLT ISZERO PUSH2 0x4B5 JUMPI PUSH2 0x4B4 PUSH2 0x460 JUMP JUMPDEST JUMPDEST PUSH1 0x0 PUSH2 0x4C3 DUP5 DUP3 DUP6 ADD PUSH2 0x48A JUMP JUMPDEST SWAP2 POP POP SWAP3 SWAP2 POP POP JUMP JUMPDEST PUSH2 0x4D5 DUP2 PUSH2 0x465 JUMP JUMPDEST DUP3 MSTORE POP POP JUMP JUMPDEST PUSH1 0x0 PUSH1 0x20 DUP3 ADD SWAP1 POP PUSH2 0x4F0 PUSH1 0x0 DUP4 ADD DUP5 PUSH2 0x4CC JUMP JUMPDEST SWAP3 SWAP2 POP POP JUMP JUMPDEST PUSH2 0x4FF DUP2 PUSH2 0x3F2 JUMP JUMPDEST DUP2 EQ PUSH2 0x50A JUMPI PUSH1 0x0 DUP1 REVERT JUMPDEST POP JUMP JUMPDEST PUSH1 0x0 DUP2 CALLDATALOAD SWAP1 POP PUSH2 0x51C DUP2 PUSH2 0x4F6 JUMP JUMPDEST SWAP3 SWAP2 POP POP JUMP JUMPDEST PUSH1 0x0 PUSH1 0x20 DUP3 DUP5 SUB SLT ISZERO PUSH2 0x538 JUMPI PUSH2 0x537 PUSH2 0x460 JUMP JUMPDEST JUMPDEST PUSH1 0x0 PUSH2 0x546 DUP5 DUP3 DUP6 ADD PUSH2 0x50D JUMP JUMPDEST SWAP2 POP POP SWAP3 SWAP2 POP POP JUMP JUMPDEST PUSH32 0x4E487B7100000000000000000000000000000000000000000000000000000000 PUSH1 0x0 MSTORE PUSH1 0x22 PUSH1 0x4 MSTORE PUSH1 0x24 PUSH1 0x0 REVERT JUMPDEST PUSH1 0x0 PUSH1 0x2 DUP3 DIV SWAP1 POP PUSH1 0x1 DUP3 AND DUP1 PUSH2 0x596 JUMPI PUSH1 0x7F DUP3 AND SWAP2 POP JUMPDEST PUSH1 0x20 DUP3 LT DUP2 SUB PUSH2 0x5A9 JUMPI PUSH2 0x5A8 PUSH2 0x54F JUMP JUMPDEST JUMPDEST POP SWAP2 SWAP1 POP JUMP JUMPDEST PUSH32 0x546F6F206D616E79207368617265730000000000000000000000000000000000 PUSH1 0x0 DUP3 ADD MSTORE POP JUMP JUMPDEST PUSH1 0x0 PUSH2 0x5E5 PUSH1 0xF DUP4 PUSH2 0x34B JUMP JUMPDEST SWAP2 POP PUSH2 0x5F0 DUP3 PUSH2 0x5AF JUMP JUMPDEST PUSH1 0x20 DUP3 ADD SWAP1 POP SWAP2 SWAP1 POP JUMP JUMPDEST PUSH1 0x0 PUSH1 0x20 DUP3 ADD SWAP1 POP DUP2 DUP2 SUB PUSH1 0x0 DUP4 ADD MSTORE PUSH2 0x614 DUP2 PUSH2 0x5D8 JUMP JUMPDEST SWAP1 POP SWAP2 SWAP1 POP JUMP JUMPDEST PUSH32 0x4E487B7100000000000000000000000000000000000000000000000000000000 PUSH1 0x0 MSTORE PUSH1 0x11 PUSH1 0x4 MSTORE PUSH1 0x24 PUSH1 0x0 REVERT JUMPDEST PUSH1 0x0 PUSH2 0x655 DUP3 PUSH2 0x465 JUMP JUMPDEST SWAP2 POP PUSH2 0x660 DUP4 PUSH2 0x465 JUMP JUMPDEST SWAP3 POP DUP3 DUP3 ADD SWAP1 POP PUSH2 0xFFFF DUP2 GT ISZERO PUSH2 0x67A JUMPI PUSH2 0x679 PUSH2 0x61B JUMP JUMPDEST JUMPDEST SWAP3 SWAP2 POP POP JUMP INVALID LOG2 PUSH5 0x6970667358 0x22 SLT KECCAK256 0xE9 SHL 0x28 PUSH13 0x1C28384E4103D11F4B2C012294 0x23 DUP5 PUSH24 0x1CF71551BC22BE0E8D59FB6064736F6C6343000811003300 "
				},
				"gasEstimates": {
					"creation": {
						"codeDepositCost": "343600",
						"executionCost": "infinite",
						"totalCost": "infinite"
					},
					"external": {
						"checkForPacking(uint256)": "infinite",
						"debugResetShares()": "24411",
						"grantShares(uint16)": "infinite",
						"idNumber()": "2452",
						"name()": "infinite",
						"viewSalary()": "2574",
						"viewShares()": "2523"
					}
				},
				"methodIdentifiers": {
					"checkForPacking(uint256)": "8f6a861a",
					"debugResetShares()": "4c764809",
					"grantShares(uint16)": "52c98689",
					"idNumber()": "3f83ea3b",
					"name()": "06fdde03",
					"viewSalary()": "49574402",
					"viewShares()": "6d45e2a5"
				}
			},
			"storageLayout": {
				"storage": [
					{
						"astId": 3,
						"contract": "03_Storage.sol:EmployeeStorage",
						"label": "shares",
						"offset": 0,
						"slot": "0",
						"type": "t_uint16"
					},
					{
						"astId": 5,
						"contract": "03_Storage.sol:EmployeeStorage",
						"label": "salary",
						"offset": 2,
						"slot": "0",
						"type": "t_uint32"
					},
					{
						"astId": 7,
						"contract": "03_Storage.sol:EmployeeStorage",
						"label": "idNumber",
						"offset": 0,
						"slot": "1",
						"type": "t_uint256"
					},
					{
						"astId": 9,
						"contract": "03_Storage.sol:EmployeeStorage",
						"label": "name",
						"offset": 0,
						"slot": "2",
						"type": "t_string_storage"
					}
				],
				"types": {
					"t_string_storage": {
						"encoding": "bytes",
						"label": "string",
						"numberOfBytes": "32"
					},
					"t_uint16": {
						"encoding": "inplace",
						"label": "uint16",
						"numberOfBytes": "2"
					},
					"t_uint256": {
						"encoding": "inplace",
						"label": "uint256",
						"numberOfBytes": "32"
					},
					"t_uint32": {
						"encoding": "inplace",
						"label": "uint32",
						"numberOfBytes": "4"
					}
				}
			},
			"userdoc": {
				"kind": "user",
				"methods": {},
				"version": 1
			}
		}
	}
}