{
	"ControlStructures.sol": {
		"ControlStructures": {
			"abi": [
				{
					"inputs": [
						{
							"internalType": "uint256",
							"name": "time",
							"type": "uint256"
						}
					],
					"name": "AfterHours",
					"type": "error"
				},
				{
					"inputs": [],
					"name": "AtLunch",
					"type": "error"
				},
				{
					"inputs": [
						{
							"internalType": "uint256",
							"name": "_time",
							"type": "uint256"
						}
					],
					"name": "doNotDisturb",
					"outputs": [
						{
							"internalType": "string",
							"name": "result",
							"type": "string"
						}
					],
					"stateMutability": "pure",
					"type": "function"
				},
				{
					"inputs": [
						{
							"internalType": "uint256",
							"name": "_number",
							"type": "uint256"
						}
					],
					"name": "fizzBuzz",
					"outputs": [
						{
							"internalType": "string",
							"name": "response",
							"type": "string"
						}
					],
					"stateMutability": "pure",
					"type": "function"
				}
			],
			"devdoc": {
				"kind": "dev",
				"methods": {},
				"version": 1
			},
			"evm": {
				"assembly": "    /* \"ControlStructures.sol\":66:2177  contract ControlStructures {... */\n  mstore(0x40, 0x80)\n  callvalue\n  dup1\n  iszero\n  tag_1\n  jumpi\n  0x00\n  dup1\n  revert\ntag_1:\n  pop\n  dataSize(sub_0)\n  dup1\n  dataOffset(sub_0)\n  0x00\n  codecopy\n  0x00\n  return\nstop\n\nsub_0: assembly {\n        /* \"ControlStructures.sol\":66:2177  contract ControlStructures {... */\n      mstore(0x40, 0x80)\n      callvalue\n      dup1\n      iszero\n      tag_1\n      jumpi\n      0x00\n      dup1\n      revert\n    tag_1:\n      pop\n      jumpi(tag_2, lt(calldatasize, 0x04))\n      shr(0xe0, calldataload(0x00))\n      dup1\n      0x440c93e2\n      eq\n      tag_3\n      jumpi\n      dup1\n      0xe655b7bb\n      eq\n      tag_4\n      jumpi\n    tag_2:\n      0x00\n      dup1\n      revert\n        /* \"ControlStructures.sol\":281:1046  function fizzBuzz(uint256 _number) public pure returns (string memory response) {... */\n    tag_3:\n      tag_5\n      0x04\n      dup1\n      calldatasize\n      sub\n      dup2\n      add\n      swap1\n      tag_6\n      swap2\n      swap1\n      tag_7\n      jump\t// in\n    tag_6:\n      tag_8\n      jump\t// in\n    tag_5:\n      mload(0x40)\n      tag_9\n      swap2\n      swap1\n      tag_10\n      jump\t// in\n    tag_9:\n      mload(0x40)\n      dup1\n      swap2\n      sub\n      swap1\n      return\n        /* \"ControlStructures.sol\":1118:2175  function doNotDisturb(uint256 _time) public pure returns (string memory result) {... */\n    tag_4:\n      tag_11\n      0x04\n      dup1\n      calldatasize\n      sub\n      dup2\n      add\n      swap1\n      tag_12\n      swap2\n      swap1\n      tag_7\n      jump\t// in\n    tag_12:\n      tag_13\n      jump\t// in\n    tag_11:\n      mload(0x40)\n      tag_14\n      swap2\n      swap1\n      tag_10\n      jump\t// in\n    tag_14:\n      mload(0x40)\n      dup1\n      swap2\n      sub\n      swap1\n      return\n        /* \"ControlStructures.sol\":281:1046  function fizzBuzz(uint256 _number) public pure returns (string memory response) {... */\n    tag_8:\n        /* \"ControlStructures.sol\":337:359  string memory response */\n      0x60\n        /* \"ControlStructures.sol\":450:451  0 */\n      0x00\n        /* \"ControlStructures.sol\":445:446  3 */\n      0x03\n        /* \"ControlStructures.sol\":435:442  _number */\n      dup4\n        /* \"ControlStructures.sol\":435:446  _number % 3 */\n      tag_16\n      swap2\n      swap1\n      tag_17\n      jump\t// in\n    tag_16:\n        /* \"ControlStructures.sol\":435:451  _number % 3 == 0 */\n      eq\n        /* \"ControlStructures.sol\":435:471  _number % 3 == 0 && _number % 5 == 0 */\n      dup1\n      iszero\n      tag_18\n      jumpi\n      pop\n        /* \"ControlStructures.sol\":470:471  0 */\n      0x00\n        /* \"ControlStructures.sol\":465:466  5 */\n      0x05\n        /* \"ControlStructures.sol\":455:462  _number */\n      dup4\n        /* \"ControlStructures.sol\":455:466  _number % 5 */\n      tag_19\n      swap2\n      swap1\n      tag_17\n      jump\t// in\n    tag_19:\n        /* \"ControlStructures.sol\":455:471  _number % 5 == 0 */\n      eq\n        /* \"ControlStructures.sol\":435:471  _number % 3 == 0 && _number % 5 == 0 */\n    tag_18:\n        /* \"ControlStructures.sol\":431:1040  if (_number % 3 == 0 && _number % 5 == 0) {... */\n      iszero\n      tag_20\n      jumpi\n        /* \"ControlStructures.sol\":487:504  return \"FizzBuzz\" */\n      mload(0x40)\n      dup1\n      0x40\n      add\n      0x40\n      mstore\n      dup1\n      0x08\n      dup2\n      mstore\n      0x20\n      add\n      0x46697a7a42757a7a000000000000000000000000000000000000000000000000\n      dup2\n      mstore\n      pop\n      swap1\n      pop\n      jump(tag_15)\n        /* \"ControlStructures.sol\":431:1040  if (_number % 3 == 0 && _number % 5 == 0) {... */\n    tag_20:\n        /* \"ControlStructures.sol\":648:649  0 */\n      0x00\n        /* \"ControlStructures.sol\":643:644  3 */\n      0x03\n        /* \"ControlStructures.sol\":633:640  _number */\n      dup4\n        /* \"ControlStructures.sol\":633:644  _number % 3 */\n      tag_22\n      swap2\n      swap1\n      tag_17\n      jump\t// in\n    tag_22:\n        /* \"ControlStructures.sol\":633:649  _number % 3 == 0 */\n      sub\n        /* \"ControlStructures.sol\":629:1040  if (_number % 3 == 0) {... */\n      tag_23\n      jumpi\n        /* \"ControlStructures.sol\":665:678  return \"Fizz\" */\n      mload(0x40)\n      dup1\n      0x40\n      add\n      0x40\n      mstore\n      dup1\n      0x04\n      dup2\n      mstore\n      0x20\n      add\n      0x46697a7a00000000000000000000000000000000000000000000000000000000\n      dup2\n      mstore\n      pop\n      swap1\n      pop\n      jump(tag_15)\n        /* \"ControlStructures.sol\":629:1040  if (_number % 3 == 0) {... */\n    tag_23:\n        /* \"ControlStructures.sol\":807:808  0 */\n      0x00\n        /* \"ControlStructures.sol\":802:803  5 */\n      0x05\n        /* \"ControlStructures.sol\":792:799  _number */\n      dup4\n        /* \"ControlStructures.sol\":792:803  _number % 5 */\n      tag_25\n      swap2\n      swap1\n      tag_17\n      jump\t// in\n    tag_25:\n        /* \"ControlStructures.sol\":792:808  _number % 5 == 0 */\n      sub\n        /* \"ControlStructures.sol\":788:1040  if (_number % 5 == 0) {... */\n      tag_26\n      jumpi\n        /* \"ControlStructures.sol\":824:837  return \"Buzz\" */\n      mload(0x40)\n      dup1\n      0x40\n      add\n      0x40\n      mstore\n      dup1\n      0x04\n      dup2\n      mstore\n      0x20\n      add\n      0x42757a7a00000000000000000000000000000000000000000000000000000000\n      dup2\n      mstore\n      pop\n      swap1\n      pop\n      jump(tag_15)\n        /* \"ControlStructures.sol\":788:1040  if (_number % 5 == 0) {... */\n    tag_26:\n        /* \"ControlStructures.sol\":963:977  return \"Splat\" */\n      mload(0x40)\n      dup1\n      0x40\n      add\n      0x40\n      mstore\n      dup1\n      0x05\n      dup2\n      mstore\n      0x20\n      add\n      0x53706c6174000000000000000000000000000000000000000000000000000000\n      dup2\n      mstore\n      pop\n      swap1\n      pop\n        /* \"ControlStructures.sol\":281:1046  function fizzBuzz(uint256 _number) public pure returns (string memory response) {... */\n    tag_15:\n      swap2\n      swap1\n      pop\n      jump\t// out\n        /* \"ControlStructures.sol\":1118:2175  function doNotDisturb(uint256 _time) public pure returns (string memory result) {... */\n    tag_13:\n        /* \"ControlStructures.sol\":1176:1196  string memory result */\n      0x60\n        /* \"ControlStructures.sol\":1296:1300  2400 */\n      0x0960\n        /* \"ControlStructures.sol\":1288:1293  _time */\n      dup3\n        /* \"ControlStructures.sol\":1288:1300  _time < 2400 */\n      lt\n        /* \"ControlStructures.sol\":1281:1301  assert(_time < 2400) */\n      tag_29\n      jumpi\n      tag_30\n      tag_31\n      jump\t// in\n    tag_30:\n    tag_29:\n        /* \"ControlStructures.sol\":1418:1422  2200 */\n      0x0898\n        /* \"ControlStructures.sol\":1410:1415  _time */\n      dup3\n        /* \"ControlStructures.sol\":1410:1422  _time > 2200 */\n      gt\n        /* \"ControlStructures.sol\":1410:1437  _time > 2200 || _time < 800 */\n      dup1\n      tag_32\n      jumpi\n      pop\n        /* \"ControlStructures.sol\":1434:1437  800 */\n      0x0320\n        /* \"ControlStructures.sol\":1426:1431  _time */\n      dup3\n        /* \"ControlStructures.sol\":1426:1437  _time < 800 */\n      lt\n        /* \"ControlStructures.sol\":1410:1437  _time > 2200 || _time < 800 */\n    tag_32:\n        /* \"ControlStructures.sol\":1406:2169  if (_time > 2200 || _time < 800) {... */\n      iszero\n      tag_33\n      jumpi\n        /* \"ControlStructures.sol\":1471:1476  _time */\n      dup2\n        /* \"ControlStructures.sol\":1460:1477  AfterHours(_time) */\n      mload(0x40)\n      0xa4bf701e00000000000000000000000000000000000000000000000000000000\n      dup2\n      mstore\n      0x04\n      add\n      tag_34\n      swap2\n      swap1\n      tag_35\n      jump\t// in\n    tag_34:\n      mload(0x40)\n      dup1\n      swap2\n      sub\n      swap1\n      revert\n        /* \"ControlStructures.sol\":1406:2169  if (_time > 2200 || _time < 800) {... */\n    tag_33:\n        /* \"ControlStructures.sol\":1585:1589  1200 */\n      0x04b0\n        /* \"ControlStructures.sol\":1576:1581  _time */\n      dup3\n        /* \"ControlStructures.sol\":1576:1589  _time >= 1200 */\n      lt\n      iszero\n        /* \"ControlStructures.sol\":1576:1606  _time >= 1200 && _time <= 1299 */\n      dup1\n      iszero\n      tag_37\n      jumpi\n      pop\n        /* \"ControlStructures.sol\":1602:1606  1299 */\n      0x0513\n        /* \"ControlStructures.sol\":1593:1598  _time */\n      dup3\n        /* \"ControlStructures.sol\":1593:1606  _time <= 1299 */\n      gt\n      iszero\n        /* \"ControlStructures.sol\":1576:1606  _time >= 1200 && _time <= 1299 */\n    tag_37:\n        /* \"ControlStructures.sol\":1572:2169  if (_time >= 1200 && _time <= 1299) {... */\n      iszero\n      tag_38\n      jumpi\n        /* \"ControlStructures.sol\":1629:1638  AtLunch() */\n      mload(0x40)\n      0x08a3648800000000000000000000000000000000000000000000000000000000\n      dup2\n      mstore\n      0x04\n      add\n      mload(0x40)\n      dup1\n      swap2\n      sub\n      swap1\n      revert\n        /* \"ControlStructures.sol\":1572:2169  if (_time >= 1200 && _time <= 1299) {... */\n    tag_38:\n        /* \"ControlStructures.sol\":1742:1745  800 */\n      0x0320\n        /* \"ControlStructures.sol\":1733:1738  _time */\n      dup3\n        /* \"ControlStructures.sol\":1733:1745  _time >= 800 */\n      lt\n      iszero\n        /* \"ControlStructures.sol\":1733:1762  _time >= 800 && _time <= 1199 */\n      dup1\n      iszero\n      tag_40\n      jumpi\n      pop\n        /* \"ControlStructures.sol\":1758:1762  1199 */\n      0x04af\n        /* \"ControlStructures.sol\":1749:1754  _time */\n      dup3\n        /* \"ControlStructures.sol\":1749:1762  _time <= 1199 */\n      gt\n      iszero\n        /* \"ControlStructures.sol\":1733:1762  _time >= 800 && _time <= 1199 */\n    tag_40:\n        /* \"ControlStructures.sol\":1729:2169  if (_time >= 800 && _time <= 1199) {... */\n      iszero\n      tag_41\n      jumpi\n        /* \"ControlStructures.sol\":1778:1795  return \"Morning!\" */\n      mload(0x40)\n      dup1\n      0x40\n      add\n      0x40\n      mstore\n      dup1\n      0x08\n      dup2\n      mstore\n      0x20\n      add\n      0x4d6f726e696e6721000000000000000000000000000000000000000000000000\n      dup2\n      mstore\n      pop\n      swap1\n      pop\n      jump(tag_28)\n        /* \"ControlStructures.sol\":1729:2169  if (_time >= 800 && _time <= 1199) {... */\n    tag_41:\n        /* \"ControlStructures.sol\":1892:1896  1300 */\n      0x0514\n        /* \"ControlStructures.sol\":1883:1888  _time */\n      dup3\n        /* \"ControlStructures.sol\":1883:1896  _time >= 1300 */\n      lt\n      iszero\n        /* \"ControlStructures.sol\":1883:1913  _time >= 1300 && _time <= 1799 */\n      dup1\n      iszero\n      tag_43\n      jumpi\n      pop\n        /* \"ControlStructures.sol\":1909:1913  1799 */\n      0x0707\n        /* \"ControlStructures.sol\":1900:1905  _time */\n      dup3\n        /* \"ControlStructures.sol\":1900:1913  _time <= 1799 */\n      gt\n      iszero\n        /* \"ControlStructures.sol\":1883:1913  _time >= 1300 && _time <= 1799 */\n    tag_43:\n        /* \"ControlStructures.sol\":1879:2169  if (_time >= 1300 && _time <= 1799) {... */\n      iszero\n      tag_44\n      jumpi\n        /* \"ControlStructures.sol\":1929:1948  return \"Afternoon!\" */\n      mload(0x40)\n      dup1\n      0x40\n      add\n      0x40\n      mstore\n      dup1\n      0x0a\n      dup2\n      mstore\n      0x20\n      add\n      0x41667465726e6f6f6e2100000000000000000000000000000000000000000000\n      dup2\n      mstore\n      pop\n      swap1\n      pop\n      jump(tag_28)\n        /* \"ControlStructures.sol\":1879:2169  if (_time >= 1300 && _time <= 1799) {... */\n    tag_44:\n        /* \"ControlStructures.sol\":2046:2050  1800 */\n      0x0708\n        /* \"ControlStructures.sol\":2037:2042  _time */\n      dup3\n        /* \"ControlStructures.sol\":2037:2050  _time >= 1800 */\n      lt\n      iszero\n        /* \"ControlStructures.sol\":2037:2067  _time >= 1800 && _time <= 2200 */\n      dup1\n      iszero\n      tag_46\n      jumpi\n      pop\n        /* \"ControlStructures.sol\":2063:2067  2200 */\n      0x0898\n        /* \"ControlStructures.sol\":2054:2059  _time */\n      dup3\n        /* \"ControlStructures.sol\":2054:2067  _time <= 2200 */\n      gt\n      iszero\n        /* \"ControlStructures.sol\":2037:2067  _time >= 1800 && _time <= 2200 */\n    tag_46:\n        /* \"ControlStructures.sol\":2033:2169  if (_time >= 1800 && _time <= 2200) {... */\n      iszero\n      tag_47\n      jumpi\n        /* \"ControlStructures.sol\":2083:2100  return \"Evening!\" */\n      mload(0x40)\n      dup1\n      0x40\n      add\n      0x40\n      mstore\n      dup1\n      0x08\n      dup2\n      mstore\n      0x20\n      add\n      0x4576656e696e6721000000000000000000000000000000000000000000000000\n      dup2\n      mstore\n      pop\n      swap1\n      pop\n      jump(tag_28)\n        /* \"ControlStructures.sol\":2033:2169  if (_time >= 1800 && _time <= 2200) {... */\n    tag_47:\n        /* \"ControlStructures.sol\":1118:2175  function doNotDisturb(uint256 _time) public pure returns (string memory result) {... */\n    tag_28:\n      swap2\n      swap1\n      pop\n      jump\t// out\n        /* \"#utility.yul\":88:205   */\n    tag_49:\n        /* \"#utility.yul\":197:198   */\n      0x00\n        /* \"#utility.yul\":194:195   */\n      dup1\n        /* \"#utility.yul\":187:199   */\n      revert\n        /* \"#utility.yul\":334:411   */\n    tag_51:\n        /* \"#utility.yul\":371:378   */\n      0x00\n        /* \"#utility.yul\":400:405   */\n      dup2\n        /* \"#utility.yul\":389:405   */\n      swap1\n      pop\n        /* \"#utility.yul\":334:411   */\n      swap2\n      swap1\n      pop\n      jump\t// out\n        /* \"#utility.yul\":417:539   */\n    tag_52:\n        /* \"#utility.yul\":490:514   */\n      tag_67\n        /* \"#utility.yul\":508:513   */\n      dup2\n        /* \"#utility.yul\":490:514   */\n      tag_51\n      jump\t// in\n    tag_67:\n        /* \"#utility.yul\":483:488   */\n      dup2\n        /* \"#utility.yul\":480:515   */\n      eq\n        /* \"#utility.yul\":470:533   */\n      tag_68\n      jumpi\n        /* \"#utility.yul\":529:530   */\n      0x00\n        /* \"#utility.yul\":526:527   */\n      dup1\n        /* \"#utility.yul\":519:531   */\n      revert\n        /* \"#utility.yul\":470:533   */\n    tag_68:\n        /* \"#utility.yul\":417:539   */\n      pop\n      jump\t// out\n        /* \"#utility.yul\":545:684   */\n    tag_53:\n        /* \"#utility.yul\":591:596   */\n      0x00\n        /* \"#utility.yul\":629:635   */\n      dup2\n        /* \"#utility.yul\":616:636   */\n      calldataload\n        /* \"#utility.yul\":607:636   */\n      swap1\n      pop\n        /* \"#utility.yul\":645:678   */\n      tag_70\n        /* \"#utility.yul\":672:677   */\n      dup2\n        /* \"#utility.yul\":645:678   */\n      tag_52\n      jump\t// in\n    tag_70:\n        /* \"#utility.yul\":545:684   */\n      swap3\n      swap2\n      pop\n      pop\n      jump\t// out\n        /* \"#utility.yul\":690:1019   */\n    tag_7:\n        /* \"#utility.yul\":749:755   */\n      0x00\n        /* \"#utility.yul\":798:800   */\n      0x20\n        /* \"#utility.yul\":786:795   */\n      dup3\n        /* \"#utility.yul\":777:784   */\n      dup5\n        /* \"#utility.yul\":773:796   */\n      sub\n        /* \"#utility.yul\":769:801   */\n      slt\n        /* \"#utility.yul\":766:885   */\n      iszero\n      tag_72\n      jumpi\n        /* \"#utility.yul\":804:883   */\n      tag_73\n      tag_49\n      jump\t// in\n    tag_73:\n        /* \"#utility.yul\":766:885   */\n    tag_72:\n        /* \"#utility.yul\":924:925   */\n      0x00\n        /* \"#utility.yul\":949:1002   */\n      tag_74\n        /* \"#utility.yul\":994:1001   */\n      dup5\n        /* \"#utility.yul\":985:991   */\n      dup3\n        /* \"#utility.yul\":974:983   */\n      dup6\n        /* \"#utility.yul\":970:992   */\n      add\n        /* \"#utility.yul\":949:1002   */\n      tag_53\n      jump\t// in\n    tag_74:\n        /* \"#utility.yul\":939:1002   */\n      swap2\n      pop\n        /* \"#utility.yul\":895:1012   */\n      pop\n        /* \"#utility.yul\":690:1019   */\n      swap3\n      swap2\n      pop\n      pop\n      jump\t// out\n        /* \"#utility.yul\":1025:1124   */\n    tag_54:\n        /* \"#utility.yul\":1077:1083   */\n      0x00\n        /* \"#utility.yul\":1111:1116   */\n      dup2\n        /* \"#utility.yul\":1105:1117   */\n      mload\n        /* \"#utility.yul\":1095:1117   */\n      swap1\n      pop\n        /* \"#utility.yul\":1025:1124   */\n      swap2\n      swap1\n      pop\n      jump\t// out\n        /* \"#utility.yul\":1130:1299   */\n    tag_55:\n        /* \"#utility.yul\":1214:1225   */\n      0x00\n        /* \"#utility.yul\":1248:1254   */\n      dup3\n        /* \"#utility.yul\":1243:1246   */\n      dup3\n        /* \"#utility.yul\":1236:1255   */\n      mstore\n        /* \"#utility.yul\":1288:1292   */\n      0x20\n        /* \"#utility.yul\":1283:1286   */\n      dup3\n        /* \"#utility.yul\":1279:1293   */\n      add\n        /* \"#utility.yul\":1264:1293   */\n      swap1\n      pop\n        /* \"#utility.yul\":1130:1299   */\n      swap3\n      swap2\n      pop\n      pop\n      jump\t// out\n        /* \"#utility.yul\":1305:1444   */\n    tag_56:\n        /* \"#utility.yul\":1394:1400   */\n      dup3\n        /* \"#utility.yul\":1389:1392   */\n      dup2\n        /* \"#utility.yul\":1384:1387   */\n      dup4\n        /* \"#utility.yul\":1378:1401   */\n      mcopy\n        /* \"#utility.yul\":1435:1436   */\n      0x00\n        /* \"#utility.yul\":1426:1432   */\n      dup4\n        /* \"#utility.yul\":1421:1424   */\n      dup4\n        /* \"#utility.yul\":1417:1433   */\n      add\n        /* \"#utility.yul\":1410:1437   */\n      mstore\n        /* \"#utility.yul\":1305:1444   */\n      pop\n      pop\n      pop\n      jump\t// out\n        /* \"#utility.yul\":1450:1552   */\n    tag_57:\n        /* \"#utility.yul\":1491:1497   */\n      0x00\n        /* \"#utility.yul\":1542:1544   */\n      0x1f\n        /* \"#utility.yul\":1538:1545   */\n      not\n        /* \"#utility.yul\":1533:1535   */\n      0x1f\n        /* \"#utility.yul\":1526:1531   */\n      dup4\n        /* \"#utility.yul\":1522:1536   */\n      add\n        /* \"#utility.yul\":1518:1546   */\n      and\n        /* \"#utility.yul\":1508:1546   */\n      swap1\n      pop\n        /* \"#utility.yul\":1450:1552   */\n      swap2\n      swap1\n      pop\n      jump\t// out\n        /* \"#utility.yul\":1558:1935   */\n    tag_58:\n        /* \"#utility.yul\":1646:1649   */\n      0x00\n        /* \"#utility.yul\":1674:1713   */\n      tag_80\n        /* \"#utility.yul\":1707:1712   */\n      dup3\n        /* \"#utility.yul\":1674:1713   */\n      tag_54\n      jump\t// in\n    tag_80:\n        /* \"#utility.yul\":1729:1800   */\n      tag_81\n        /* \"#utility.yul\":1793:1799   */\n      dup2\n        /* \"#utility.yul\":1788:1791   */\n      dup6\n        /* \"#utility.yul\":1729:1800   */\n      tag_55\n      jump\t// in\n    tag_81:\n        /* \"#utility.yul\":1722:1800   */\n      swap4\n      pop\n        /* \"#utility.yul\":1809:1874   */\n      tag_82\n        /* \"#utility.yul\":1867:1873   */\n      dup2\n        /* \"#utility.yul\":1862:1865   */\n      dup6\n        /* \"#utility.yul\":1855:1859   */\n      0x20\n        /* \"#utility.yul\":1848:1853   */\n      dup7\n        /* \"#utility.yul\":1844:1860   */\n      add\n        /* \"#utility.yul\":1809:1874   */\n      tag_56\n      jump\t// in\n    tag_82:\n        /* \"#utility.yul\":1899:1928   */\n      tag_83\n        /* \"#utility.yul\":1921:1927   */\n      dup2\n        /* \"#utility.yul\":1899:1928   */\n      tag_57\n      jump\t// in\n    tag_83:\n        /* \"#utility.yul\":1894:1897   */\n      dup5\n        /* \"#utility.yul\":1890:1929   */\n      add\n        /* \"#utility.yul\":1883:1929   */\n      swap2\n      pop\n        /* \"#utility.yul\":1650:1935   */\n      pop\n        /* \"#utility.yul\":1558:1935   */\n      swap3\n      swap2\n      pop\n      pop\n      jump\t// out\n        /* \"#utility.yul\":1941:2254   */\n    tag_10:\n        /* \"#utility.yul\":2054:2058   */\n      0x00\n        /* \"#utility.yul\":2092:2094   */\n      0x20\n        /* \"#utility.yul\":2081:2090   */\n      dup3\n        /* \"#utility.yul\":2077:2095   */\n      add\n        /* \"#utility.yul\":2069:2095   */\n      swap1\n      pop\n        /* \"#utility.yul\":2141:2150   */\n      dup2\n        /* \"#utility.yul\":2135:2139   */\n      dup2\n        /* \"#utility.yul\":2131:2151   */\n      sub\n        /* \"#utility.yul\":2127:2128   */\n      0x00\n        /* \"#utility.yul\":2116:2125   */\n      dup4\n        /* \"#utility.yul\":2112:2129   */\n      add\n        /* \"#utility.yul\":2105:2152   */\n      mstore\n        /* \"#utility.yul\":2169:2247   */\n      tag_85\n        /* \"#utility.yul\":2242:2246   */\n      dup2\n        /* \"#utility.yul\":2233:2239   */\n      dup5\n        /* \"#utility.yul\":2169:2247   */\n      tag_58\n      jump\t// in\n    tag_85:\n        /* \"#utility.yul\":2161:2247   */\n      swap1\n      pop\n        /* \"#utility.yul\":1941:2254   */\n      swap3\n      swap2\n      pop\n      pop\n      jump\t// out\n        /* \"#utility.yul\":2260:2440   */\n    tag_59:\n        /* \"#utility.yul\":2308:2385   */\n      0x4e487b7100000000000000000000000000000000000000000000000000000000\n        /* \"#utility.yul\":2305:2306   */\n      0x00\n        /* \"#utility.yul\":2298:2386   */\n      mstore\n        /* \"#utility.yul\":2405:2409   */\n      0x12\n        /* \"#utility.yul\":2402:2403   */\n      0x04\n        /* \"#utility.yul\":2395:2410   */\n      mstore\n        /* \"#utility.yul\":2429:2433   */\n      0x24\n        /* \"#utility.yul\":2426:2427   */\n      0x00\n        /* \"#utility.yul\":2419:2434   */\n      revert\n        /* \"#utility.yul\":2446:2622   */\n    tag_17:\n        /* \"#utility.yul\":2478:2479   */\n      0x00\n        /* \"#utility.yul\":2495:2515   */\n      tag_88\n        /* \"#utility.yul\":2513:2514   */\n      dup3\n        /* \"#utility.yul\":2495:2515   */\n      tag_51\n      jump\t// in\n    tag_88:\n        /* \"#utility.yul\":2490:2515   */\n      swap2\n      pop\n        /* \"#utility.yul\":2529:2549   */\n      tag_89\n        /* \"#utility.yul\":2547:2548   */\n      dup4\n        /* \"#utility.yul\":2529:2549   */\n      tag_51\n      jump\t// in\n    tag_89:\n        /* \"#utility.yul\":2524:2549   */\n      swap3\n      pop\n        /* \"#utility.yul\":2568:2569   */\n      dup3\n        /* \"#utility.yul\":2558:2593   */\n      tag_90\n      jumpi\n        /* \"#utility.yul\":2573:2591   */\n      tag_91\n      tag_59\n      jump\t// in\n    tag_91:\n        /* \"#utility.yul\":2558:2593   */\n    tag_90:\n        /* \"#utility.yul\":2614:2615   */\n      dup3\n        /* \"#utility.yul\":2611:2612   */\n      dup3\n        /* \"#utility.yul\":2607:2616   */\n      mod\n        /* \"#utility.yul\":2602:2616   */\n      swap1\n      pop\n        /* \"#utility.yul\":2446:2622   */\n      swap3\n      swap2\n      pop\n      pop\n      jump\t// out\n        /* \"#utility.yul\":2628:2808   */\n    tag_31:\n        /* \"#utility.yul\":2676:2753   */\n      0x4e487b7100000000000000000000000000000000000000000000000000000000\n        /* \"#utility.yul\":2673:2674   */\n      0x00\n        /* \"#utility.yul\":2666:2754   */\n      mstore\n        /* \"#utility.yul\":2773:2777   */\n      0x01\n        /* \"#utility.yul\":2770:2771   */\n      0x04\n        /* \"#utility.yul\":2763:2778   */\n      mstore\n        /* \"#utility.yul\":2797:2801   */\n      0x24\n        /* \"#utility.yul\":2794:2795   */\n      0x00\n        /* \"#utility.yul\":2787:2802   */\n      revert\n        /* \"#utility.yul\":2814:2932   */\n    tag_60:\n        /* \"#utility.yul\":2901:2925   */\n      tag_94\n        /* \"#utility.yul\":2919:2924   */\n      dup2\n        /* \"#utility.yul\":2901:2925   */\n      tag_51\n      jump\t// in\n    tag_94:\n        /* \"#utility.yul\":2896:2899   */\n      dup3\n        /* \"#utility.yul\":2889:2926   */\n      mstore\n        /* \"#utility.yul\":2814:2932   */\n      pop\n      pop\n      jump\t// out\n        /* \"#utility.yul\":2938:3160   */\n    tag_35:\n        /* \"#utility.yul\":3031:3035   */\n      0x00\n        /* \"#utility.yul\":3069:3071   */\n      0x20\n        /* \"#utility.yul\":3058:3067   */\n      dup3\n        /* \"#utility.yul\":3054:3072   */\n      add\n        /* \"#utility.yul\":3046:3072   */\n      swap1\n      pop\n        /* \"#utility.yul\":3082:3153   */\n      tag_96\n        /* \"#utility.yul\":3150:3151   */\n      0x00\n        /* \"#utility.yul\":3139:3148   */\n      dup4\n        /* \"#utility.yul\":3135:3152   */\n      add\n        /* \"#utility.yul\":3126:3132   */\n      dup5\n        /* \"#utility.yul\":3082:3153   */\n      tag_60\n      jump\t// in\n    tag_96:\n        /* \"#utility.yul\":2938:3160   */\n      swap3\n      swap2\n      pop\n      pop\n      jump\t// out\n\n    auxdata: 0xa26469706673582212204aaf25303b362a6a6aec5ca722e0da82d00ae3d9e60be35a99131f886e5c1e7e64736f6c634300081a0033\n}\n",
				"bytecode": {
					"linkReferences": {},
					"object": "6080604052348015600e575f80fd5b506105748061001c5f395ff3fe608060405234801561000f575f80fd5b5060043610610034575f3560e01c8063440c93e214610038578063e655b7bb14610068575b5f80fd5b610052600480360381019061004d91906103d1565b610098565b60405161005f919061046c565b60405180910390f35b610082600480360381019061007d91906103d1565b6101e0565b60405161008f919061046c565b60405180910390f35b60605f6003836100a891906104b9565b1480156100c057505f6005836100be91906104b9565b145b15610102576040518060400160405280600881526020017f46697a7a42757a7a00000000000000000000000000000000000000000000000081525090506101db565b5f60038361011091906104b9565b03610152576040518060400160405280600481526020017f46697a7a0000000000000000000000000000000000000000000000000000000081525090506101db565b5f60058361016091906104b9565b036101a2576040518060400160405280600481526020017f42757a7a0000000000000000000000000000000000000000000000000000000081525090506101db565b6040518060400160405280600581526020017f53706c617400000000000000000000000000000000000000000000000000000081525090505b919050565b606061096082106101f4576101f36104e9565b5b610898821180610205575061032082105b1561024757816040517fa4bf701e00000000000000000000000000000000000000000000000000000000815260040161023e9190610525565b60405180910390fd5b6104b0821015801561025b57506105138211155b15610292576040517f08a3648800000000000000000000000000000000000000000000000000000000815260040160405180910390fd5b61032082101580156102a657506104af8211155b156102e8576040518060400160405280600881526020017f4d6f726e696e67210000000000000000000000000000000000000000000000008152509050610395565b61051482101580156102fc57506107078211155b1561033e576040518060400160405280600a81526020017f41667465726e6f6f6e21000000000000000000000000000000000000000000008152509050610395565b610708821015801561035257506108988211155b15610394576040518060400160405280600881526020017f4576656e696e67210000000000000000000000000000000000000000000000008152509050610395565b5b919050565b5f80fd5b5f819050919050565b6103b08161039e565b81146103ba575f80fd5b50565b5f813590506103cb816103a7565b92915050565b5f602082840312156103e6576103e561039a565b5b5f6103f3848285016103bd565b91505092915050565b5f81519050919050565b5f82825260208201905092915050565b8281835e5f83830152505050565b5f601f19601f8301169050919050565b5f61043e826103fc565b6104488185610406565b9350610458818560208601610416565b61046181610424565b840191505092915050565b5f6020820190508181035f8301526104848184610434565b905092915050565b7f4e487b71000000000000000000000000000000000000000000000000000000005f52601260045260245ffd5b5f6104c38261039e565b91506104ce8361039e565b9250826104de576104dd61048c565b5b828206905092915050565b7f4e487b71000000000000000000000000000000000000000000000000000000005f52600160045260245ffd5b61051f8161039e565b82525050565b5f6020820190506105385f830184610516565b9291505056fea26469706673582212204aaf25303b362a6a6aec5ca722e0da82d00ae3d9e60be35a99131f886e5c1e7e64736f6c634300081a0033",
					"opcodes": "PUSH1 0x80 PUSH1 0x40 MSTORE CALLVALUE DUP1 ISZERO PUSH1 0xE JUMPI PUSH0 DUP1 REVERT JUMPDEST POP PUSH2 0x574 DUP1 PUSH2 0x1C PUSH0 CODECOPY PUSH0 RETURN INVALID PUSH1 0x80 PUSH1 0x40 MSTORE CALLVALUE DUP1 ISZERO PUSH2 0xF JUMPI PUSH0 DUP1 REVERT JUMPDEST POP PUSH1 0x4 CALLDATASIZE LT PUSH2 0x34 JUMPI PUSH0 CALLDATALOAD PUSH1 0xE0 SHR DUP1 PUSH4 0x440C93E2 EQ PUSH2 0x38 JUMPI DUP1 PUSH4 0xE655B7BB EQ PUSH2 0x68 JUMPI JUMPDEST PUSH0 DUP1 REVERT JUMPDEST PUSH2 0x52 PUSH1 0x4 DUP1 CALLDATASIZE SUB DUP2 ADD SWAP1 PUSH2 0x4D SWAP2 SWAP1 PUSH2 0x3D1 JUMP JUMPDEST PUSH2 0x98 JUMP JUMPDEST PUSH1 0x40 MLOAD PUSH2 0x5F SWAP2 SWAP1 PUSH2 0x46C JUMP JUMPDEST PUSH1 0x40 MLOAD DUP1 SWAP2 SUB SWAP1 RETURN JUMPDEST PUSH2 0x82 PUSH1 0x4 DUP1 CALLDATASIZE SUB DUP2 ADD SWAP1 PUSH2 0x7D SWAP2 SWAP1 PUSH2 0x3D1 JUMP JUMPDEST PUSH2 0x1E0 JUMP JUMPDEST PUSH1 0x40 MLOAD PUSH2 0x8F SWAP2 SWAP1 PUSH2 0x46C JUMP JUMPDEST PUSH1 0x40 MLOAD DUP1 SWAP2 SUB SWAP1 RETURN JUMPDEST PUSH1 0x60 PUSH0 PUSH1 0x3 DUP4 PUSH2 0xA8 SWAP2 SWAP1 PUSH2 0x4B9 JUMP JUMPDEST EQ DUP1 ISZERO PUSH2 0xC0 JUMPI POP PUSH0 PUSH1 0x5 DUP4 PUSH2 0xBE SWAP2 SWAP1 PUSH2 0x4B9 JUMP JUMPDEST EQ JUMPDEST ISZERO PUSH2 0x102 JUMPI PUSH1 0x40 MLOAD DUP1 PUSH1 0x40 ADD PUSH1 0x40 MSTORE DUP1 PUSH1 0x8 DUP2 MSTORE PUSH1 0x20 ADD PUSH32 0x46697A7A42757A7A000000000000000000000000000000000000000000000000 DUP2 MSTORE POP SWAP1 POP PUSH2 0x1DB JUMP JUMPDEST PUSH0 PUSH1 0x3 DUP4 PUSH2 0x110 SWAP2 SWAP1 PUSH2 0x4B9 JUMP JUMPDEST SUB PUSH2 0x152 JUMPI PUSH1 0x40 MLOAD DUP1 PUSH1 0x40 ADD PUSH1 0x40 MSTORE DUP1 PUSH1 0x4 DUP2 MSTORE PUSH1 0x20 ADD PUSH32 0x46697A7A00000000000000000000000000000000000000000000000000000000 DUP2 MSTORE POP SWAP1 POP PUSH2 0x1DB JUMP JUMPDEST PUSH0 PUSH1 0x5 DUP4 PUSH2 0x160 SWAP2 SWAP1 PUSH2 0x4B9 JUMP JUMPDEST SUB PUSH2 0x1A2 JUMPI PUSH1 0x40 MLOAD DUP1 PUSH1 0x40 ADD PUSH1 0x40 MSTORE DUP1 PUSH1 0x4 DUP2 MSTORE PUSH1 0x20 ADD PUSH32 0x42757A7A00000000000000000000000000000000000000000000000000000000 DUP2 MSTORE POP SWAP1 POP PUSH2 0x1DB JUMP JUMPDEST PUSH1 0x40 MLOAD DUP1 PUSH1 0x40 ADD PUSH1 0x40 MSTORE DUP1 PUSH1 0x5 DUP2 MSTORE PUSH1 0x20 ADD PUSH32 0x53706C6174000000000000000000000000000000000000000000000000000000 DUP2 MSTORE POP SWAP1 POP JUMPDEST SWAP2 SWAP1 POP JUMP JUMPDEST PUSH1 0x60 PUSH2 0x960 DUP3 LT PUSH2 0x1F4 JUMPI PUSH2 0x1F3 PUSH2 0x4E9 JUMP JUMPDEST JUMPDEST PUSH2 0x898 DUP3 GT DUP1 PUSH2 0x205 JUMPI POP PUSH2 0x320 DUP3 LT JUMPDEST ISZERO PUSH2 0x247 JUMPI DUP2 PUSH1 0x40 MLOAD PUSH32 0xA4BF701E00000000000000000000000000000000000000000000000000000000 DUP2 MSTORE PUSH1 0x4 ADD PUSH2 0x23E SWAP2 SWAP1 PUSH2 0x525 JUMP JUMPDEST PUSH1 0x40 MLOAD DUP1 SWAP2 SUB SWAP1 REVERT JUMPDEST PUSH2 0x4B0 DUP3 LT ISZERO DUP1 ISZERO PUSH2 0x25B JUMPI POP PUSH2 0x513 DUP3 GT ISZERO JUMPDEST ISZERO PUSH2 0x292 JUMPI PUSH1 0x40 MLOAD PUSH32 0x8A3648800000000000000000000000000000000000000000000000000000000 DUP2 MSTORE PUSH1 0x4 ADD PUSH1 0x40 MLOAD DUP1 SWAP2 SUB SWAP1 REVERT JUMPDEST PUSH2 0x320 DUP3 LT ISZERO DUP1 ISZERO PUSH2 0x2A6 JUMPI POP PUSH2 0x4AF DUP3 GT ISZERO JUMPDEST ISZERO PUSH2 0x2E8 JUMPI PUSH1 0x40 MLOAD DUP1 PUSH1 0x40 ADD PUSH1 0x40 MSTORE DUP1 PUSH1 0x8 DUP2 MSTORE PUSH1 0x20 ADD PUSH32 0x4D6F726E696E6721000000000000000000000000000000000000000000000000 DUP2 MSTORE POP SWAP1 POP PUSH2 0x395 JUMP JUMPDEST PUSH2 0x514 DUP3 LT ISZERO DUP1 ISZERO PUSH2 0x2FC JUMPI POP PUSH2 0x707 DUP3 GT ISZERO JUMPDEST ISZERO PUSH2 0x33E JUMPI PUSH1 0x40 MLOAD DUP1 PUSH1 0x40 ADD PUSH1 0x40 MSTORE DUP1 PUSH1 0xA DUP2 MSTORE PUSH1 0x20 ADD PUSH32 0x41667465726E6F6F6E2100000000000000000000000000000000000000000000 DUP2 MSTORE POP SWAP1 POP PUSH2 0x395 JUMP JUMPDEST PUSH2 0x708 DUP3 LT ISZERO DUP1 ISZERO PUSH2 0x352 JUMPI POP PUSH2 0x898 DUP3 GT ISZERO JUMPDEST ISZERO PUSH2 0x394 JUMPI PUSH1 0x40 MLOAD DUP1 PUSH1 0x40 ADD PUSH1 0x40 MSTORE DUP1 PUSH1 0x8 DUP2 MSTORE PUSH1 0x20 ADD PUSH32 0x4576656E696E6721000000000000000000000000000000000000000000000000 DUP2 MSTORE POP SWAP1 POP PUSH2 0x395 JUMP JUMPDEST JUMPDEST SWAP2 SWAP1 POP JUMP JUMPDEST PUSH0 DUP1 REVERT JUMPDEST PUSH0 DUP2 SWAP1 POP SWAP2 SWAP1 POP JUMP JUMPDEST PUSH2 0x3B0 DUP2 PUSH2 0x39E JUMP JUMPDEST DUP2 EQ PUSH2 0x3BA JUMPI PUSH0 DUP1 REVERT JUMPDEST POP JUMP JUMPDEST PUSH0 DUP2 CALLDATALOAD SWAP1 POP PUSH2 0x3CB DUP2 PUSH2 0x3A7 JUMP JUMPDEST SWAP3 SWAP2 POP POP JUMP JUMPDEST PUSH0 PUSH1 0x20 DUP3 DUP5 SUB SLT ISZERO PUSH2 0x3E6 JUMPI PUSH2 0x3E5 PUSH2 0x39A JUMP JUMPDEST JUMPDEST PUSH0 PUSH2 0x3F3 DUP5 DUP3 DUP6 ADD PUSH2 0x3BD JUMP JUMPDEST SWAP2 POP POP SWAP3 SWAP2 POP POP JUMP JUMPDEST PUSH0 DUP2 MLOAD SWAP1 POP SWAP2 SWAP1 POP JUMP JUMPDEST PUSH0 DUP3 DUP3 MSTORE PUSH1 0x20 DUP3 ADD SWAP1 POP SWAP3 SWAP2 POP POP JUMP JUMPDEST DUP3 DUP2 DUP4 MCOPY PUSH0 DUP4 DUP4 ADD MSTORE POP POP POP JUMP JUMPDEST PUSH0 PUSH1 0x1F NOT PUSH1 0x1F DUP4 ADD AND SWAP1 POP SWAP2 SWAP1 POP JUMP JUMPDEST PUSH0 PUSH2 0x43E DUP3 PUSH2 0x3FC JUMP JUMPDEST PUSH2 0x448 DUP2 DUP6 PUSH2 0x406 JUMP JUMPDEST SWAP4 POP PUSH2 0x458 DUP2 DUP6 PUSH1 0x20 DUP7 ADD PUSH2 0x416 JUMP JUMPDEST PUSH2 0x461 DUP2 PUSH2 0x424 JUMP JUMPDEST DUP5 ADD SWAP2 POP POP SWAP3 SWAP2 POP POP JUMP JUMPDEST PUSH0 PUSH1 0x20 DUP3 ADD SWAP1 POP DUP2 DUP2 SUB PUSH0 DUP4 ADD MSTORE PUSH2 0x484 DUP2 DUP5 PUSH2 0x434 JUMP JUMPDEST SWAP1 POP SWAP3 SWAP2 POP POP JUMP JUMPDEST PUSH32 0x4E487B7100000000000000000000000000000000000000000000000000000000 PUSH0 MSTORE PUSH1 0x12 PUSH1 0x4 MSTORE PUSH1 0x24 PUSH0 REVERT JUMPDEST PUSH0 PUSH2 0x4C3 DUP3 PUSH2 0x39E JUMP JUMPDEST SWAP2 POP PUSH2 0x4CE DUP4 PUSH2 0x39E JUMP JUMPDEST SWAP3 POP DUP3 PUSH2 0x4DE JUMPI PUSH2 0x4DD PUSH2 0x48C JUMP JUMPDEST JUMPDEST DUP3 DUP3 MOD SWAP1 POP SWAP3 SWAP2 POP POP JUMP JUMPDEST PUSH32 0x4E487B7100000000000000000000000000000000000000000000000000000000 PUSH0 MSTORE PUSH1 0x1 PUSH1 0x4 MSTORE PUSH1 0x24 PUSH0 REVERT JUMPDEST PUSH2 0x51F DUP2 PUSH2 0x39E JUMP JUMPDEST DUP3 MSTORE POP POP JUMP JUMPDEST PUSH0 PUSH1 0x20 DUP3 ADD SWAP1 POP PUSH2 0x538 PUSH0 DUP4 ADD DUP5 PUSH2 0x516 JUMP JUMPDEST SWAP3 SWAP2 POP POP JUMP INVALID LOG2 PUSH5 0x6970667358 0x22 SLT KECCAK256 BLOBBASEFEE 0xAF 0x25 ADDRESS EXTCODESIZE CALLDATASIZE 0x2A PUSH11 0x6AEC5CA722E0DA82D00AE3 0xD9 0xE6 SIGNEXTEND 0xE3 GAS SWAP10 SGT 0x1F DUP9 PUSH15 0x5C1E7E64736F6C634300081A003300 "
				},
				"gasEstimates": {
					"creation": {
						"codeDepositCost": "279200",
						"executionCost": "316",
						"totalCost": "279516"
					},
					"external": {
						"doNotDisturb(uint256)": "infinite",
						"fizzBuzz(uint256)": "infinite"
					}
				},
				"methodIdentifiers": {
					"doNotDisturb(uint256)": "e655b7bb",
					"fizzBuzz(uint256)": "440c93e2"
				}
			},
			"storageLayout": {
				"storage": [],
				"types": null
			},
			"userdoc": {
				"kind": "user",
				"methods": {},
				"version": 1
			}
		}
	}
}