{
	"12_ERC-20 Tokens.sol": {
		"WeightedVoting": {
			"abi": [
				{
					"inputs": [
						{
							"internalType": "string",
							"name": "_name",
							"type": "string"
						},
						{
							"internalType": "string",
							"name": "_symbol",
							"type": "string"
						}
					],
					"stateMutability": "nonpayable",
					"type": "constructor"
				},
				{
					"inputs": [],
					"name": "AllTokensClaimed",
					"type": "error"
				},
				{
					"inputs": [],
					"name": "AlreadyVoted",
					"type": "error"
				},
				{
					"inputs": [
						{
							"internalType": "address",
							"name": "spender",
							"type": "address"
						},
						{
							"internalType": "uint256",
							"name": "allowance",
							"type": "uint256"
						},
						{
							"internalType": "uint256",
							"name": "needed",
							"type": "uint256"
						}
					],
					"name": "ERC20InsufficientAllowance",
					"type": "error"
				},
				{
					"inputs": [
						{
							"internalType": "address",
							"name": "sender",
							"type": "address"
						},
						{
							"internalType": "uint256",
							"name": "balance",
							"type": "uint256"
						},
						{
							"internalType": "uint256",
							"name": "needed",
							"type": "uint256"
						}
					],
					"name": "ERC20InsufficientBalance",
					"type": "error"
				},
				{
					"inputs": [
						{
							"internalType": "address",
							"name": "approver",
							"type": "address"
						}
					],
					"name": "ERC20InvalidApprover",
					"type": "error"
				},
				{
					"inputs": [
						{
							"internalType": "address",
							"name": "receiver",
							"type": "address"
						}
					],
					"name": "ERC20InvalidReceiver",
					"type": "error"
				},
				{
					"inputs": [
						{
							"internalType": "address",
							"name": "sender",
							"type": "address"
						}
					],
					"name": "ERC20InvalidSender",
					"type": "error"
				},
				{
					"inputs": [
						{
							"internalType": "address",
							"name": "spender",
							"type": "address"
						}
					],
					"name": "ERC20InvalidSpender",
					"type": "error"
				},
				{
					"inputs": [],
					"name": "NoTokensHeld",
					"type": "error"
				},
				{
					"inputs": [],
					"name": "QuorumTooHigh",
					"type": "error"
				},
				{
					"inputs": [],
					"name": "TokensClaimed",
					"type": "error"
				},
				{
					"inputs": [],
					"name": "VotingClosed",
					"type": "error"
				},
				{
					"anonymous": false,
					"inputs": [
						{
							"indexed": true,
							"internalType": "address",
							"name": "owner",
							"type": "address"
						},
						{
							"indexed": true,
							"internalType": "address",
							"name": "spender",
							"type": "address"
						},
						{
							"indexed": false,
							"internalType": "uint256",
							"name": "value",
							"type": "uint256"
						}
					],
					"name": "Approval",
					"type": "event"
				},
				{
					"anonymous": false,
					"inputs": [
						{
							"indexed": true,
							"internalType": "address",
							"name": "from",
							"type": "address"
						},
						{
							"indexed": true,
							"internalType": "address",
							"name": "to",
							"type": "address"
						},
						{
							"indexed": false,
							"internalType": "uint256",
							"name": "value",
							"type": "uint256"
						}
					],
					"name": "Transfer",
					"type": "event"
				},
				{
					"inputs": [
						{
							"internalType": "address",
							"name": "owner",
							"type": "address"
						},
						{
							"internalType": "address",
							"name": "spender",
							"type": "address"
						}
					],
					"name": "allowance",
					"outputs": [
						{
							"internalType": "uint256",
							"name": "",
							"type": "uint256"
						}
					],
					"stateMutability": "view",
					"type": "function"
				},
				{
					"inputs": [
						{
							"internalType": "address",
							"name": "spender",
							"type": "address"
						},
						{
							"internalType": "uint256",
							"name": "value",
							"type": "uint256"
						}
					],
					"name": "approve",
					"outputs": [
						{
							"internalType": "bool",
							"name": "",
							"type": "bool"
						}
					],
					"stateMutability": "nonpayable",
					"type": "function"
				},
				{
					"inputs": [
						{
							"internalType": "address",
							"name": "account",
							"type": "address"
						}
					],
					"name": "balanceOf",
					"outputs": [
						{
							"internalType": "uint256",
							"name": "",
							"type": "uint256"
						}
					],
					"stateMutability": "view",
					"type": "function"
				},
				{
					"inputs": [],
					"name": "claim",
					"outputs": [],
					"stateMutability": "nonpayable",
					"type": "function"
				},
				{
					"inputs": [],
					"name": "claimAmount",
					"outputs": [
						{
							"internalType": "uint256",
							"name": "",
							"type": "uint256"
						}
					],
					"stateMutability": "view",
					"type": "function"
				},
				{
					"inputs": [
						{
							"internalType": "string",
							"name": "_issueDesc",
							"type": "string"
						},
						{
							"internalType": "uint256",
							"name": "_quorum",
							"type": "uint256"
						}
					],
					"name": "createIssue",
					"outputs": [
						{
							"internalType": "uint256",
							"name": "",
							"type": "uint256"
						}
					],
					"stateMutability": "nonpayable",
					"type": "function"
				},
				{
					"inputs": [],
					"name": "decimals",
					"outputs": [
						{
							"internalType": "uint8",
							"name": "",
							"type": "uint8"
						}
					],
					"stateMutability": "view",
					"type": "function"
				},
				{
					"inputs": [
						{
							"internalType": "uint256",
							"name": "_issueId",
							"type": "uint256"
						}
					],
					"name": "getIssue",
					"outputs": [
						{
							"components": [
								{
									"internalType": "address[]",
									"name": "voters",
									"type": "address[]"
								},
								{
									"internalType": "string",
									"name": "issueDesc",
									"type": "string"
								},
								{
									"internalType": "uint256",
									"name": "quorum",
									"type": "uint256"
								},
								{
									"internalType": "uint256",
									"name": "totalVotes",
									"type": "uint256"
								},
								{
									"internalType": "uint256",
									"name": "votesFor",
									"type": "uint256"
								},
								{
									"internalType": "uint256",
									"name": "votesAgainst",
									"type": "uint256"
								},
								{
									"internalType": "uint256",
									"name": "votesAbstain",
									"type": "uint256"
								},
								{
									"internalType": "bool",
									"name": "passed",
									"type": "bool"
								},
								{
									"internalType": "bool",
									"name": "closed",
									"type": "bool"
								}
							],
							"internalType": "struct WeightedVoting.SerializedIssue",
							"name": "",
							"type": "tuple"
						}
					],
					"stateMutability": "view",
					"type": "function"
				},
				{
					"inputs": [],
					"name": "maxSupply",
					"outputs": [
						{
							"internalType": "uint256",
							"name": "",
							"type": "uint256"
						}
					],
					"stateMutability": "view",
					"type": "function"
				},
				{
					"inputs": [],
					"name": "name",
					"outputs": [
						{
							"internalType": "string",
							"name": "",
							"type": "string"
						}
					],
					"stateMutability": "view",
					"type": "function"
				},
				{
					"inputs": [],
					"name": "symbol",
					"outputs": [
						{
							"internalType": "string",
							"name": "",
							"type": "string"
						}
					],
					"stateMutability": "view",
					"type": "function"
				},
				{
					"inputs": [
						{
							"internalType": "address",
							"name": "",
							"type": "address"
						}
					],
					"name": "tokensClaimed",
					"outputs": [
						{
							"internalType": "bool",
							"name": "",
							"type": "bool"
						}
					],
					"stateMutability": "view",
					"type": "function"
				},
				{
					"inputs": [],
					"name": "totalSupply",
					"outputs": [
						{
							"internalType": "uint256",
							"name": "",
							"type": "uint256"
						}
					],
					"stateMutability": "view",
					"type": "function"
				},
				{
					"inputs": [
						{
							"internalType": "address",
							"name": "to",
							"type": "address"
						},
						{
							"internalType": "uint256",
							"name": "value",
							"type": "uint256"
						}
					],
					"name": "transfer",
					"outputs": [
						{
							"internalType": "bool",
							"name": "",
							"type": "bool"
						}
					],
					"stateMutability": "nonpayable",
					"type": "function"
				},
				{
					"inputs": [
						{
							"internalType": "address",
							"name": "from",
							"type": "address"
						},
						{
							"internalType": "address",
							"name": "to",
							"type": "address"
						},
						{
							"internalType": "uint256",
							"name": "value",
							"type": "uint256"
						}
					],
					"name": "transferFrom",
					"outputs": [
						{
							"internalType": "bool",
							"name": "",
							"type": "bool"
						}
					],
					"stateMutability": "nonpayable",
					"type": "function"
				},
				{
					"inputs": [
						{
							"internalType": "uint256",
							"name": "_issueId",
							"type": "uint256"
						},
						{
							"internalType": "enum WeightedVoting.Vote",
							"name": "_vote",
							"type": "uint8"
						}
					],
					"name": "vote",
					"outputs": [],
					"stateMutability": "nonpayable",
					"type": "function"
				}
			],
			"devdoc": {
				"errors": {
					"ERC20InsufficientAllowance(address,uint256,uint256)": [
						{
							"details": "Indicates a failure with the `spender`’s `allowance`. Used in transfers.",
							"params": {
								"allowance": "Amount of tokens a `spender` is allowed to operate with.",
								"needed": "Minimum amount required to perform a transfer.",
								"spender": "Address that may be allowed to operate on tokens without being their owner."
							}
						}
					],
					"ERC20InsufficientBalance(address,uint256,uint256)": [
						{
							"details": "Indicates an error related to the current `balance` of a `sender`. Used in transfers.",
							"params": {
								"balance": "Current balance for the interacting account.",
								"needed": "Minimum amount required to perform a transfer.",
								"sender": "Address whose tokens are being transferred."
							}
						}
					],
					"ERC20InvalidApprover(address)": [
						{
							"details": "Indicates a failure with the `approver` of a token to be approved. Used in approvals.",
							"params": {
								"approver": "Address initiating an approval operation."
							}
						}
					],
					"ERC20InvalidReceiver(address)": [
						{
							"details": "Indicates a failure with the token `receiver`. Used in transfers.",
							"params": {
								"receiver": "Address to which tokens are being transferred."
							}
						}
					],
					"ERC20InvalidSender(address)": [
						{
							"details": "Indicates a failure with the token `sender`. Used in transfers.",
							"params": {
								"sender": "Address whose tokens are being transferred."
							}
						}
					],
					"ERC20InvalidSpender(address)": [
						{
							"details": "Indicates a failure with the `spender` to be approved. Used in approvals.",
							"params": {
								"spender": "Address that may be allowed to operate on tokens without being their owner."
							}
						}
					]
				},
				"events": {
					"Approval(address,address,uint256)": {
						"details": "Emitted when the allowance of a `spender` for an `owner` is set by a call to {approve}. `value` is the new allowance."
					},
					"Transfer(address,address,uint256)": {
						"details": "Emitted when `value` tokens are moved from one account (`from`) to another (`to`). Note that `value` may be zero."
					}
				},
				"kind": "dev",
				"methods": {
					"allowance(address,address)": {
						"details": "See {IERC20-allowance}."
					},
					"approve(address,uint256)": {
						"details": "See {IERC20-approve}. NOTE: If `value` is the maximum `uint256`, the allowance is not updated on `transferFrom`. This is semantically equivalent to an infinite approval. Requirements: - `spender` cannot be the zero address."
					},
					"balanceOf(address)": {
						"details": "See {IERC20-balanceOf}."
					},
					"decimals()": {
						"details": "Returns the number of decimals used to get its user representation. For example, if `decimals` equals `2`, a balance of `505` tokens should be displayed to a user as `5.05` (`505 / 10 ** 2`). Tokens usually opt for a value of 18, imitating the relationship between Ether and Wei. This is the default value returned by this function, unless it's overridden. NOTE: This information is only used for _display_ purposes: it in no way affects any of the arithmetic of the contract, including {IERC20-balanceOf} and {IERC20-transfer}."
					},
					"name()": {
						"details": "Returns the name of the token."
					},
					"symbol()": {
						"details": "Returns the symbol of the token, usually a shorter version of the name."
					},
					"totalSupply()": {
						"details": "See {IERC20-totalSupply}."
					},
					"transfer(address,uint256)": {
						"details": "See {IERC20-transfer}. Requirements: - `to` cannot be the zero address. - the caller must have a balance of at least `value`."
					},
					"transferFrom(address,address,uint256)": {
						"details": "See {IERC20-transferFrom}. Emits an {Approval} event indicating the updated allowance. This is not required by the EIP. See the note at the beginning of {ERC20}. NOTE: Does not update the allowance if the current allowance is the maximum `uint256`. Requirements: - `from` and `to` cannot be the zero address. - `from` must have a balance of at least `value`. - the caller must have allowance for ``from``'s tokens of at least `value`."
					}
				},
				"version": 1
			},
			"evm": {
				"assembly": "    /* \"12_ERC-20 Tokens.sol\":189:4844  contract WeightedVoting is ERC20 {... */\n  mstore(0x40, 0x80)\n    /* \"12_ERC-20 Tokens.sol\":228:257  string private salt = \"value\" */\n  mload(0x40)\n  dup1\n  0x40\n  add\n  0x40\n  mstore\n  dup1\n  0x05\n  dup2\n  mstore\n  0x20\n  add\n  0x76616c7565000000000000000000000000000000000000000000000000000000\n  dup2\n  mstore\n  pop\n  0x05\n  swap1\n  dup2\n  tag_1\n  swap2\n  swap1\n  tag_2\n  jump\t// in\ntag_1:\n  pop\n    /* \"12_ERC-20 Tokens.sol\":1805:1812  1000000 */\n  0x0f4240\n    /* \"12_ERC-20 Tokens.sol\":1778:1812  uint256 public maxSupply = 1000000 */\n  0x08\n  sstore\n    /* \"12_ERC-20 Tokens.sol\":1875:1878  100 */\n  0x64\n    /* \"12_ERC-20 Tokens.sol\":1846:1878  uint256 public claimAmount = 100 */\n  0x09\n  sstore\n    /* \"12_ERC-20 Tokens.sol\":1919:1939  string saltt = \"any\" */\n  mload(0x40)\n  dup1\n  0x40\n  add\n  0x40\n  mstore\n  dup1\n  0x03\n  dup2\n  mstore\n  0x20\n  add\n  0x616e790000000000000000000000000000000000000000000000000000000000\n  dup2\n  mstore\n  pop\n  0x0a\n  swap1\n  dup2\n  tag_3\n  swap2\n  swap1\n  tag_2\n  jump\t// in\ntag_3:\n  pop\n    /* \"12_ERC-20 Tokens.sol\":1973:2141  constructor(string memory _name, string memory _symbol)... */\n  callvalue\n  dup1\n  iszero\n  tag_4\n  jumpi\n  0x00\n  dup1\n  revert\ntag_4:\n  pop\n  mload(0x40)\n  sub(codesize, bytecodeSize)\n  dup1\n  bytecodeSize\n  dup4\n  codecopy\n  dup2\n  dup2\n  add\n  0x40\n  mstore\n  dup2\n  add\n  swap1\n  tag_5\n  swap2\n  swap1\n  tag_6\n  jump\t// in\ntag_5:\n    /* \"12_ERC-20 Tokens.sol\":2043:2048  _name */\n  dup2\n    /* \"12_ERC-20 Tokens.sol\":2050:2057  _symbol */\n  dup2\n    /* \"@openzeppelin/contracts/token/ERC20/ERC20.sol\":1970:1975  name_ */\n  dup2\n    /* \"@openzeppelin/contracts/token/ERC20/ERC20.sol\":1962:1967  _name */\n  0x03\n    /* \"@openzeppelin/contracts/token/ERC20/ERC20.sol\":1962:1975  _name = name_ */\n  swap1\n  dup2\n  tag_10\n  swap2\n  swap1\n  tag_2\n  jump\t// in\ntag_10:\n  pop\n    /* \"@openzeppelin/contracts/token/ERC20/ERC20.sol\":1995:2002  symbol_ */\n  dup1\n    /* \"@openzeppelin/contracts/token/ERC20/ERC20.sol\":1985:1992  _symbol */\n  0x04\n    /* \"@openzeppelin/contracts/token/ERC20/ERC20.sol\":1985:2002  _symbol = symbol_ */\n  swap1\n  dup2\n  tag_11\n  swap2\n  swap1\n  tag_2\n  jump\t// in\ntag_11:\n  pop\n    /* \"@openzeppelin/contracts/token/ERC20/ERC20.sol\":1896:2009  constructor(string memory name_, string memory symbol_) {... */\n  pop\n  pop\n    /* \"12_ERC-20 Tokens.sol\":2073:2079  issues */\n  0x06\n    /* \"12_ERC-20 Tokens.sol\":2073:2086  issues.push() */\n  0x01\n  dup2\n  0x01\n  dup2\n  sload\n  add\n  dup1\n  dup3\n  sstore\n  dup1\n  swap2\n  pop\n  pop\n  sub\n  swap1\n  0x00\n  mstore\n  keccak256(0x00, 0x20)\n  swap1\n  pop\n  pop\n    /* \"12_ERC-20 Tokens.sol\":1973:2141  constructor(string memory _name, string memory _symbol)... */\n  pop\n  pop\n    /* \"12_ERC-20 Tokens.sol\":189:4844  contract WeightedVoting is ERC20 {... */\n  jump(tag_14)\n    /* \"#utility.yul\":7:106   */\ntag_15:\n    /* \"#utility.yul\":59:65   */\n  0x00\n    /* \"#utility.yul\":93:98   */\n  dup2\n    /* \"#utility.yul\":87:99   */\n  mload\n    /* \"#utility.yul\":77:99   */\n  swap1\n  pop\n    /* \"#utility.yul\":7:106   */\n  swap2\n  swap1\n  pop\n  jump\t// out\n    /* \"#utility.yul\":112:292   */\ntag_16:\n    /* \"#utility.yul\":160:237   */\n  0x4e487b7100000000000000000000000000000000000000000000000000000000\n    /* \"#utility.yul\":157:158   */\n  0x00\n    /* \"#utility.yul\":150:238   */\n  mstore\n    /* \"#utility.yul\":257:261   */\n  0x41\n    /* \"#utility.yul\":254:255   */\n  0x04\n    /* \"#utility.yul\":247:262   */\n  mstore\n    /* \"#utility.yul\":281:285   */\n  0x24\n    /* \"#utility.yul\":278:279   */\n  0x00\n    /* \"#utility.yul\":271:286   */\n  revert\n    /* \"#utility.yul\":298:478   */\ntag_17:\n    /* \"#utility.yul\":346:423   */\n  0x4e487b7100000000000000000000000000000000000000000000000000000000\n    /* \"#utility.yul\":343:344   */\n  0x00\n    /* \"#utility.yul\":336:424   */\n  mstore\n    /* \"#utility.yul\":443:447   */\n  0x22\n    /* \"#utility.yul\":440:441   */\n  0x04\n    /* \"#utility.yul\":433:448   */\n  mstore\n    /* \"#utility.yul\":467:471   */\n  0x24\n    /* \"#utility.yul\":464:465   */\n  0x00\n    /* \"#utility.yul\":457:472   */\n  revert\n    /* \"#utility.yul\":484:804   */\ntag_18:\n    /* \"#utility.yul\":528:534   */\n  0x00\n    /* \"#utility.yul\":565:566   */\n  0x02\n    /* \"#utility.yul\":559:563   */\n  dup3\n    /* \"#utility.yul\":555:567   */\n  div\n    /* \"#utility.yul\":545:567   */\n  swap1\n  pop\n    /* \"#utility.yul\":612:613   */\n  0x01\n    /* \"#utility.yul\":606:610   */\n  dup3\n    /* \"#utility.yul\":602:614   */\n  and\n    /* \"#utility.yul\":633:651   */\n  dup1\n    /* \"#utility.yul\":623:704   */\n  tag_52\n  jumpi\n    /* \"#utility.yul\":689:693   */\n  0x7f\n    /* \"#utility.yul\":681:687   */\n  dup3\n    /* \"#utility.yul\":677:694   */\n  and\n    /* \"#utility.yul\":667:694   */\n  swap2\n  pop\n    /* \"#utility.yul\":623:704   */\ntag_52:\n    /* \"#utility.yul\":751:753   */\n  0x20\n    /* \"#utility.yul\":743:749   */\n  dup3\n    /* \"#utility.yul\":740:754   */\n  lt\n    /* \"#utility.yul\":720:738   */\n  dup2\n    /* \"#utility.yul\":717:755   */\n  sub\n    /* \"#utility.yul\":714:798   */\n  tag_53\n  jumpi\n    /* \"#utility.yul\":770:788   */\n  tag_54\n  tag_17\n  jump\t// in\ntag_54:\n    /* \"#utility.yul\":714:798   */\ntag_53:\n    /* \"#utility.yul\":535:804   */\n  pop\n    /* \"#utility.yul\":484:804   */\n  swap2\n  swap1\n  pop\n  jump\t// out\n    /* \"#utility.yul\":810:951   */\ntag_19:\n    /* \"#utility.yul\":859:863   */\n  0x00\n    /* \"#utility.yul\":882:885   */\n  dup2\n    /* \"#utility.yul\":874:885   */\n  swap1\n  pop\n    /* \"#utility.yul\":905:908   */\n  dup2\n    /* \"#utility.yul\":902:903   */\n  0x00\n    /* \"#utility.yul\":895:909   */\n  mstore\n    /* \"#utility.yul\":939:943   */\n  0x20\n    /* \"#utility.yul\":936:937   */\n  0x00\n    /* \"#utility.yul\":926:944   */\n  keccak256\n    /* \"#utility.yul\":918:944   */\n  swap1\n  pop\n    /* \"#utility.yul\":810:951   */\n  swap2\n  swap1\n  pop\n  jump\t// out\n    /* \"#utility.yul\":957:1050   */\ntag_20:\n    /* \"#utility.yul\":994:1000   */\n  0x00\n    /* \"#utility.yul\":1041:1043   */\n  0x20\n    /* \"#utility.yul\":1036:1038   */\n  0x1f\n    /* \"#utility.yul\":1029:1034   */\n  dup4\n    /* \"#utility.yul\":1025:1039   */\n  add\n    /* \"#utility.yul\":1021:1044   */\n  div\n    /* \"#utility.yul\":1011:1044   */\n  swap1\n  pop\n    /* \"#utility.yul\":957:1050   */\n  swap2\n  swap1\n  pop\n  jump\t// out\n    /* \"#utility.yul\":1056:1163   */\ntag_21:\n    /* \"#utility.yul\":1100:1108   */\n  0x00\n    /* \"#utility.yul\":1150:1155   */\n  dup3\n    /* \"#utility.yul\":1144:1148   */\n  dup3\n    /* \"#utility.yul\":1140:1156   */\n  shl\n    /* \"#utility.yul\":1119:1156   */\n  swap1\n  pop\n    /* \"#utility.yul\":1056:1163   */\n  swap3\n  swap2\n  pop\n  pop\n  jump\t// out\n    /* \"#utility.yul\":1169:1562   */\ntag_22:\n    /* \"#utility.yul\":1238:1244   */\n  0x00\n    /* \"#utility.yul\":1288:1289   */\n  0x08\n    /* \"#utility.yul\":1276:1286   */\n  dup4\n    /* \"#utility.yul\":1272:1290   */\n  mul\n    /* \"#utility.yul\":1311:1408   */\n  tag_59\n    /* \"#utility.yul\":1341:1407   */\n  0xffffffffffffffffffffffffffffffffffffffffffffffffffffffffffffffff\n    /* \"#utility.yul\":1330:1339   */\n  dup3\n    /* \"#utility.yul\":1311:1408   */\n  tag_21\n  jump\t// in\ntag_59:\n    /* \"#utility.yul\":1429:1468   */\n  tag_60\n    /* \"#utility.yul\":1459:1467   */\n  dup7\n    /* \"#utility.yul\":1448:1457   */\n  dup4\n    /* \"#utility.yul\":1429:1468   */\n  tag_21\n  jump\t// in\ntag_60:\n    /* \"#utility.yul\":1417:1468   */\n  swap6\n  pop\n    /* \"#utility.yul\":1501:1505   */\n  dup1\n    /* \"#utility.yul\":1497:1506   */\n  not\n    /* \"#utility.yul\":1490:1495   */\n  dup5\n    /* \"#utility.yul\":1486:1507   */\n  and\n    /* \"#utility.yul\":1477:1507   */\n  swap4\n  pop\n    /* \"#utility.yul\":1550:1554   */\n  dup1\n    /* \"#utility.yul\":1540:1548   */\n  dup7\n    /* \"#utility.yul\":1536:1555   */\n  and\n    /* \"#utility.yul\":1529:1534   */\n  dup5\n    /* \"#utility.yul\":1526:1556   */\n  or\n    /* \"#utility.yul\":1516:1556   */\n  swap3\n  pop\n    /* \"#utility.yul\":1245:1562   */\n  pop\n  pop\n    /* \"#utility.yul\":1169:1562   */\n  swap4\n  swap3\n  pop\n  pop\n  pop\n  jump\t// out\n    /* \"#utility.yul\":1568:1645   */\ntag_23:\n    /* \"#utility.yul\":1605:1612   */\n  0x00\n    /* \"#utility.yul\":1634:1639   */\n  dup2\n    /* \"#utility.yul\":1623:1639   */\n  swap1\n  pop\n    /* \"#utility.yul\":1568:1645   */\n  swap2\n  swap1\n  pop\n  jump\t// out\n    /* \"#utility.yul\":1651:1711   */\ntag_24:\n    /* \"#utility.yul\":1679:1682   */\n  0x00\n    /* \"#utility.yul\":1700:1705   */\n  dup2\n    /* \"#utility.yul\":1693:1705   */\n  swap1\n  pop\n    /* \"#utility.yul\":1651:1711   */\n  swap2\n  swap1\n  pop\n  jump\t// out\n    /* \"#utility.yul\":1717:1859   */\ntag_25:\n    /* \"#utility.yul\":1767:1776   */\n  0x00\n    /* \"#utility.yul\":1800:1853   */\n  tag_64\n    /* \"#utility.yul\":1818:1852   */\n  tag_65\n    /* \"#utility.yul\":1827:1851   */\n  tag_66\n    /* \"#utility.yul\":1845:1850   */\n  dup5\n    /* \"#utility.yul\":1827:1851   */\n  tag_23\n  jump\t// in\ntag_66:\n    /* \"#utility.yul\":1818:1852   */\n  tag_24\n  jump\t// in\ntag_65:\n    /* \"#utility.yul\":1800:1853   */\n  tag_23\n  jump\t// in\ntag_64:\n    /* \"#utility.yul\":1787:1853   */\n  swap1\n  pop\n    /* \"#utility.yul\":1717:1859   */\n  swap2\n  swap1\n  pop\n  jump\t// out\n    /* \"#utility.yul\":1865:1940   */\ntag_26:\n    /* \"#utility.yul\":1908:1911   */\n  0x00\n    /* \"#utility.yul\":1929:1934   */\n  dup2\n    /* \"#utility.yul\":1922:1934   */\n  swap1\n  pop\n    /* \"#utility.yul\":1865:1940   */\n  swap2\n  swap1\n  pop\n  jump\t// out\n    /* \"#utility.yul\":1946:2215   */\ntag_27:\n    /* \"#utility.yul\":2056:2095   */\n  tag_69\n    /* \"#utility.yul\":2087:2094   */\n  dup4\n    /* \"#utility.yul\":2056:2095   */\n  tag_25\n  jump\t// in\ntag_69:\n    /* \"#utility.yul\":2117:2208   */\n  tag_70\n    /* \"#utility.yul\":2166:2207   */\n  tag_71\n    /* \"#utility.yul\":2190:2206   */\n  dup3\n    /* \"#utility.yul\":2166:2207   */\n  tag_26\n  jump\t// in\ntag_71:\n    /* \"#utility.yul\":2158:2164   */\n  dup5\n    /* \"#utility.yul\":2151:2155   */\n  dup5\n    /* \"#utility.yul\":2145:2156   */\n  sload\n    /* \"#utility.yul\":2117:2208   */\n  tag_22\n  jump\t// in\ntag_70:\n    /* \"#utility.yul\":2111:2115   */\n  dup3\n    /* \"#utility.yul\":2104:2209   */\n  sstore\n    /* \"#utility.yul\":2022:2215   */\n  pop\n    /* \"#utility.yul\":1946:2215   */\n  pop\n  pop\n  pop\n  jump\t// out\n    /* \"#utility.yul\":2221:2294   */\ntag_28:\n    /* \"#utility.yul\":2266:2269   */\n  0x00\n    /* \"#utility.yul\":2221:2294   */\n  swap1\n  jump\t// out\n    /* \"#utility.yul\":2300:2489   */\ntag_29:\n    /* \"#utility.yul\":2377:2409   */\n  tag_74\n  tag_28\n  jump\t// in\ntag_74:\n    /* \"#utility.yul\":2418:2483   */\n  tag_75\n    /* \"#utility.yul\":2476:2482   */\n  dup2\n    /* \"#utility.yul\":2468:2474   */\n  dup5\n    /* \"#utility.yul\":2462:2466   */\n  dup5\n    /* \"#utility.yul\":2418:2483   */\n  tag_27\n  jump\t// in\ntag_75:\n    /* \"#utility.yul\":2353:2489   */\n  pop\n    /* \"#utility.yul\":2300:2489   */\n  pop\n  pop\n  jump\t// out\n    /* \"#utility.yul\":2495:2681   */\ntag_30:\n    /* \"#utility.yul\":2555:2675   */\ntag_77:\n    /* \"#utility.yul\":2572:2575   */\n  dup2\n    /* \"#utility.yul\":2565:2570   */\n  dup2\n    /* \"#utility.yul\":2562:2576   */\n  lt\n    /* \"#utility.yul\":2555:2675   */\n  iszero\n  tag_79\n  jumpi\n    /* \"#utility.yul\":2626:2665   */\n  tag_80\n    /* \"#utility.yul\":2663:2664   */\n  0x00\n    /* \"#utility.yul\":2656:2661   */\n  dup3\n    /* \"#utility.yul\":2626:2665   */\n  tag_29\n  jump\t// in\ntag_80:\n    /* \"#utility.yul\":2599:2600   */\n  0x01\n    /* \"#utility.yul\":2592:2597   */\n  dup2\n    /* \"#utility.yul\":2588:2601   */\n  add\n    /* \"#utility.yul\":2579:2601   */\n  swap1\n  pop\n    /* \"#utility.yul\":2555:2675   */\n  jump(tag_77)\ntag_79:\n    /* \"#utility.yul\":2495:2681   */\n  pop\n  pop\n  jump\t// out\n    /* \"#utility.yul\":2687:3230   */\ntag_31:\n    /* \"#utility.yul\":2788:2790   */\n  0x1f\n    /* \"#utility.yul\":2783:2786   */\n  dup3\n    /* \"#utility.yul\":2780:2791   */\n  gt\n    /* \"#utility.yul\":2777:3223   */\n  iszero\n  tag_82\n  jumpi\n    /* \"#utility.yul\":2822:2860   */\n  tag_83\n    /* \"#utility.yul\":2854:2859   */\n  dup2\n    /* \"#utility.yul\":2822:2860   */\n  tag_19\n  jump\t// in\ntag_83:\n    /* \"#utility.yul\":2906:2935   */\n  tag_84\n    /* \"#utility.yul\":2924:2934   */\n  dup5\n    /* \"#utility.yul\":2906:2935   */\n  tag_20\n  jump\t// in\ntag_84:\n    /* \"#utility.yul\":2896:2904   */\n  dup2\n    /* \"#utility.yul\":2892:2936   */\n  add\n    /* \"#utility.yul\":3089:3091   */\n  0x20\n    /* \"#utility.yul\":3077:3087   */\n  dup6\n    /* \"#utility.yul\":3074:3092   */\n  lt\n    /* \"#utility.yul\":3071:3120   */\n  iszero\n  tag_85\n  jumpi\n    /* \"#utility.yul\":3110:3118   */\n  dup2\n    /* \"#utility.yul\":3095:3118   */\n  swap1\n  pop\n    /* \"#utility.yul\":3071:3120   */\ntag_85:\n    /* \"#utility.yul\":3133:3213   */\n  tag_86\n    /* \"#utility.yul\":3189:3211   */\n  tag_87\n    /* \"#utility.yul\":3207:3210   */\n  dup6\n    /* \"#utility.yul\":3189:3211   */\n  tag_20\n  jump\t// in\ntag_87:\n    /* \"#utility.yul\":3179:3187   */\n  dup4\n    /* \"#utility.yul\":3175:3212   */\n  add\n    /* \"#utility.yul\":3162:3173   */\n  dup3\n    /* \"#utility.yul\":3133:3213   */\n  tag_30\n  jump\t// in\ntag_86:\n    /* \"#utility.yul\":2792:3223   */\n  pop\n  pop\n    /* \"#utility.yul\":2777:3223   */\ntag_82:\n    /* \"#utility.yul\":2687:3230   */\n  pop\n  pop\n  pop\n  jump\t// out\n    /* \"#utility.yul\":3236:3353   */\ntag_32:\n    /* \"#utility.yul\":3290:3298   */\n  0x00\n    /* \"#utility.yul\":3340:3345   */\n  dup3\n    /* \"#utility.yul\":3334:3338   */\n  dup3\n    /* \"#utility.yul\":3330:3346   */\n  shr\n    /* \"#utility.yul\":3309:3346   */\n  swap1\n  pop\n    /* \"#utility.yul\":3236:3353   */\n  swap3\n  swap2\n  pop\n  pop\n  jump\t// out\n    /* \"#utility.yul\":3359:3528   */\ntag_33:\n    /* \"#utility.yul\":3403:3409   */\n  0x00\n    /* \"#utility.yul\":3436:3487   */\n  tag_90\n    /* \"#utility.yul\":3484:3485   */\n  0x00\n    /* \"#utility.yul\":3480:3486   */\n  not\n    /* \"#utility.yul\":3472:3477   */\n  dup5\n    /* \"#utility.yul\":3469:3470   */\n  0x08\n    /* \"#utility.yul\":3465:3478   */\n  mul\n    /* \"#utility.yul\":3436:3487   */\n  tag_32\n  jump\t// in\ntag_90:\n    /* \"#utility.yul\":3432:3488   */\n  not\n    /* \"#utility.yul\":3517:3521   */\n  dup1\n    /* \"#utility.yul\":3511:3515   */\n  dup4\n    /* \"#utility.yul\":3507:3522   */\n  and\n    /* \"#utility.yul\":3497:3522   */\n  swap2\n  pop\n    /* \"#utility.yul\":3410:3528   */\n  pop\n    /* \"#utility.yul\":3359:3528   */\n  swap3\n  swap2\n  pop\n  pop\n  jump\t// out\n    /* \"#utility.yul\":3533:3828   */\ntag_34:\n    /* \"#utility.yul\":3609:3613   */\n  0x00\n    /* \"#utility.yul\":3755:3784   */\n  tag_92\n    /* \"#utility.yul\":3780:3783   */\n  dup4\n    /* \"#utility.yul\":3774:3778   */\n  dup4\n    /* \"#utility.yul\":3755:3784   */\n  tag_33\n  jump\t// in\ntag_92:\n    /* \"#utility.yul\":3747:3784   */\n  swap2\n  pop\n    /* \"#utility.yul\":3817:3820   */\n  dup3\n    /* \"#utility.yul\":3814:3815   */\n  0x02\n    /* \"#utility.yul\":3810:3821   */\n  mul\n    /* \"#utility.yul\":3804:3808   */\n  dup3\n    /* \"#utility.yul\":3801:3822   */\n  or\n    /* \"#utility.yul\":3793:3822   */\n  swap1\n  pop\n    /* \"#utility.yul\":3533:3828   */\n  swap3\n  swap2\n  pop\n  pop\n  jump\t// out\n    /* \"#utility.yul\":3833:5228   */\ntag_2:\n    /* \"#utility.yul\":3950:3987   */\n  tag_94\n    /* \"#utility.yul\":3983:3986   */\n  dup3\n    /* \"#utility.yul\":3950:3987   */\n  tag_15\n  jump\t// in\ntag_94:\n    /* \"#utility.yul\":4052:4070   */\n  0xffffffffffffffff\n    /* \"#utility.yul\":4044:4050   */\n  dup2\n    /* \"#utility.yul\":4041:4071   */\n  gt\n    /* \"#utility.yul\":4038:4094   */\n  iszero\n  tag_95\n  jumpi\n    /* \"#utility.yul\":4074:4092   */\n  tag_96\n  tag_16\n  jump\t// in\ntag_96:\n    /* \"#utility.yul\":4038:4094   */\ntag_95:\n    /* \"#utility.yul\":4118:4156   */\n  tag_97\n    /* \"#utility.yul\":4150:4154   */\n  dup3\n    /* \"#utility.yul\":4144:4155   */\n  sload\n    /* \"#utility.yul\":4118:4156   */\n  tag_18\n  jump\t// in\ntag_97:\n    /* \"#utility.yul\":4203:4270   */\n  tag_98\n    /* \"#utility.yul\":4263:4269   */\n  dup3\n    /* \"#utility.yul\":4255:4261   */\n  dup3\n    /* \"#utility.yul\":4249:4253   */\n  dup6\n    /* \"#utility.yul\":4203:4270   */\n  tag_31\n  jump\t// in\ntag_98:\n    /* \"#utility.yul\":4297:4298   */\n  0x00\n    /* \"#utility.yul\":4321:4325   */\n  0x20\n    /* \"#utility.yul\":4308:4325   */\n  swap1\n  pop\n    /* \"#utility.yul\":4353:4355   */\n  0x1f\n    /* \"#utility.yul\":4345:4351   */\n  dup4\n    /* \"#utility.yul\":4342:4356   */\n  gt\n    /* \"#utility.yul\":4370:4371   */\n  0x01\n    /* \"#utility.yul\":4365:4983   */\n  dup2\n  eq\n  tag_100\n  jumpi\n    /* \"#utility.yul\":5027:5028   */\n  0x00\n    /* \"#utility.yul\":5044:5050   */\n  dup5\n    /* \"#utility.yul\":5041:5118   */\n  iszero\n  tag_101\n  jumpi\n    /* \"#utility.yul\":5093:5102   */\n  dup3\n    /* \"#utility.yul\":5088:5091   */\n  dup8\n    /* \"#utility.yul\":5084:5103   */\n  add\n    /* \"#utility.yul\":5078:5104   */\n  mload\n    /* \"#utility.yul\":5069:5104   */\n  swap1\n  pop\n    /* \"#utility.yul\":5041:5118   */\ntag_101:\n    /* \"#utility.yul\":5144:5211   */\n  tag_102\n    /* \"#utility.yul\":5204:5210   */\n  dup6\n    /* \"#utility.yul\":5197:5202   */\n  dup3\n    /* \"#utility.yul\":5144:5211   */\n  tag_34\n  jump\t// in\ntag_102:\n    /* \"#utility.yul\":5138:5142   */\n  dup7\n    /* \"#utility.yul\":5131:5212   */\n  sstore\n    /* \"#utility.yul\":5000:5222   */\n  pop\n    /* \"#utility.yul\":4335:5222   */\n  jump(tag_99)\n    /* \"#utility.yul\":4365:4983   */\ntag_100:\n    /* \"#utility.yul\":4417:4421   */\n  0x1f\n    /* \"#utility.yul\":4413:4422   */\n  not\n    /* \"#utility.yul\":4405:4411   */\n  dup5\n    /* \"#utility.yul\":4401:4423   */\n  and\n    /* \"#utility.yul\":4451:4488   */\n  tag_103\n    /* \"#utility.yul\":4483:4487   */\n  dup7\n    /* \"#utility.yul\":4451:4488   */\n  tag_19\n  jump\t// in\ntag_103:\n    /* \"#utility.yul\":4510:4511   */\n  0x00\n    /* \"#utility.yul\":4524:4732   */\ntag_104:\n    /* \"#utility.yul\":4538:4545   */\n  dup3\n    /* \"#utility.yul\":4535:4536   */\n  dup2\n    /* \"#utility.yul\":4532:4546   */\n  lt\n    /* \"#utility.yul\":4524:4732   */\n  iszero\n  tag_106\n  jumpi\n    /* \"#utility.yul\":4617:4626   */\n  dup5\n    /* \"#utility.yul\":4612:4615   */\n  dup10\n    /* \"#utility.yul\":4608:4627   */\n  add\n    /* \"#utility.yul\":4602:4628   */\n  mload\n    /* \"#utility.yul\":4594:4600   */\n  dup3\n    /* \"#utility.yul\":4587:4629   */\n  sstore\n    /* \"#utility.yul\":4668:4669   */\n  0x01\n    /* \"#utility.yul\":4660:4666   */\n  dup3\n    /* \"#utility.yul\":4656:4670   */\n  add\n    /* \"#utility.yul\":4646:4670   */\n  swap2\n  pop\n    /* \"#utility.yul\":4715:4717   */\n  0x20\n    /* \"#utility.yul\":4704:4713   */\n  dup6\n    /* \"#utility.yul\":4700:4718   */\n  add\n    /* \"#utility.yul\":4687:4718   */\n  swap5\n  pop\n    /* \"#utility.yul\":4561:4565   */\n  0x20\n    /* \"#utility.yul\":4558:4559   */\n  dup2\n    /* \"#utility.yul\":4554:4566   */\n  add\n    /* \"#utility.yul\":4549:4566   */\n  swap1\n  pop\n    /* \"#utility.yul\":4524:4732   */\n  jump(tag_104)\ntag_106:\n    /* \"#utility.yul\":4760:4766   */\n  dup7\n    /* \"#utility.yul\":4751:4758   */\n  dup4\n    /* \"#utility.yul\":4748:4767   */\n  lt\n    /* \"#utility.yul\":4745:4924   */\n  iszero\n  tag_107\n  jumpi\n    /* \"#utility.yul\":4818:4827   */\n  dup5\n    /* \"#utility.yul\":4813:4816   */\n  dup10\n    /* \"#utility.yul\":4809:4828   */\n  add\n    /* \"#utility.yul\":4803:4829   */\n  mload\n    /* \"#utility.yul\":4861:4909   */\n  tag_108\n    /* \"#utility.yul\":4903:4907   */\n  0x1f\n    /* \"#utility.yul\":4895:4901   */\n  dup10\n    /* \"#utility.yul\":4891:4908   */\n  and\n    /* \"#utility.yul\":4880:4889   */\n  dup3\n    /* \"#utility.yul\":4861:4909   */\n  tag_33\n  jump\t// in\ntag_108:\n    /* \"#utility.yul\":4853:4859   */\n  dup4\n    /* \"#utility.yul\":4846:4910   */\n  sstore\n    /* \"#utility.yul\":4768:4924   */\n  pop\n    /* \"#utility.yul\":4745:4924   */\ntag_107:\n    /* \"#utility.yul\":4970:4971   */\n  0x01\n    /* \"#utility.yul\":4966:4967   */\n  0x02\n    /* \"#utility.yul\":4958:4964   */\n  dup9\n    /* \"#utility.yul\":4954:4968   */\n  mul\n    /* \"#utility.yul\":4950:4972   */\n  add\n    /* \"#utility.yul\":4944:4948   */\n  dup9\n    /* \"#utility.yul\":4937:4973   */\n  sstore\n    /* \"#utility.yul\":4372:4983   */\n  pop\n  pop\n  pop\n    /* \"#utility.yul\":4335:5222   */\ntag_99:\n  pop\n    /* \"#utility.yul\":3925:5228   */\n  pop\n  pop\n  pop\n    /* \"#utility.yul\":3833:5228   */\n  pop\n  pop\n  jump\t// out\n    /* \"#utility.yul\":5234:5309   */\ntag_35:\n    /* \"#utility.yul\":5267:5273   */\n  0x00\n    /* \"#utility.yul\":5300:5302   */\n  0x40\n    /* \"#utility.yul\":5294:5303   */\n  mload\n    /* \"#utility.yul\":5284:5303   */\n  swap1\n  pop\n    /* \"#utility.yul\":5234:5309   */\n  swap1\n  jump\t// out\n    /* \"#utility.yul\":5315:5432   */\ntag_36:\n    /* \"#utility.yul\":5424:5425   */\n  0x00\n    /* \"#utility.yul\":5421:5422   */\n  dup1\n    /* \"#utility.yul\":5414:5426   */\n  revert\n    /* \"#utility.yul\":5438:5555   */\ntag_37:\n    /* \"#utility.yul\":5547:5548   */\n  0x00\n    /* \"#utility.yul\":5544:5545   */\n  dup1\n    /* \"#utility.yul\":5537:5549   */\n  revert\n    /* \"#utility.yul\":5561:5678   */\ntag_38:\n    /* \"#utility.yul\":5670:5671   */\n  0x00\n    /* \"#utility.yul\":5667:5668   */\n  dup1\n    /* \"#utility.yul\":5660:5672   */\n  revert\n    /* \"#utility.yul\":5684:5801   */\ntag_39:\n    /* \"#utility.yul\":5793:5794   */\n  0x00\n    /* \"#utility.yul\":5790:5791   */\n  dup1\n    /* \"#utility.yul\":5783:5795   */\n  revert\n    /* \"#utility.yul\":5807:5909   */\ntag_40:\n    /* \"#utility.yul\":5848:5854   */\n  0x00\n    /* \"#utility.yul\":5899:5901   */\n  0x1f\n    /* \"#utility.yul\":5895:5902   */\n  not\n    /* \"#utility.yul\":5890:5892   */\n  0x1f\n    /* \"#utility.yul\":5883:5888   */\n  dup4\n    /* \"#utility.yul\":5879:5893   */\n  add\n    /* \"#utility.yul\":5875:5903   */\n  and\n    /* \"#utility.yul\":5865:5903   */\n  swap1\n  pop\n    /* \"#utility.yul\":5807:5909   */\n  swap2\n  swap1\n  pop\n  jump\t// out\n    /* \"#utility.yul\":5915:6196   */\ntag_41:\n    /* \"#utility.yul\":5998:6025   */\n  tag_116\n    /* \"#utility.yul\":6020:6024   */\n  dup3\n    /* \"#utility.yul\":5998:6025   */\n  tag_40\n  jump\t// in\ntag_116:\n    /* \"#utility.yul\":5990:5996   */\n  dup2\n    /* \"#utility.yul\":5986:6026   */\n  add\n    /* \"#utility.yul\":6128:6134   */\n  dup2\n    /* \"#utility.yul\":6116:6126   */\n  dup2\n    /* \"#utility.yul\":6113:6135   */\n  lt\n    /* \"#utility.yul\":6092:6110   */\n  0xffffffffffffffff\n    /* \"#utility.yul\":6080:6090   */\n  dup3\n    /* \"#utility.yul\":6077:6111   */\n  gt\n    /* \"#utility.yul\":6074:6136   */\n  or\n    /* \"#utility.yul\":6071:6159   */\n  iszero\n  tag_117\n  jumpi\n    /* \"#utility.yul\":6139:6157   */\n  tag_118\n  tag_16\n  jump\t// in\ntag_118:\n    /* \"#utility.yul\":6071:6159   */\ntag_117:\n    /* \"#utility.yul\":6179:6189   */\n  dup1\n    /* \"#utility.yul\":6175:6177   */\n  0x40\n    /* \"#utility.yul\":6168:6190   */\n  mstore\n    /* \"#utility.yul\":5958:6196   */\n  pop\n    /* \"#utility.yul\":5915:6196   */\n  pop\n  pop\n  jump\t// out\n    /* \"#utility.yul\":6202:6331   */\ntag_42:\n    /* \"#utility.yul\":6236:6242   */\n  0x00\n    /* \"#utility.yul\":6263:6283   */\n  tag_120\n  tag_35\n  jump\t// in\ntag_120:\n    /* \"#utility.yul\":6253:6283   */\n  swap1\n  pop\n    /* \"#utility.yul\":6292:6325   */\n  tag_121\n    /* \"#utility.yul\":6320:6324   */\n  dup3\n    /* \"#utility.yul\":6312:6318   */\n  dup3\n    /* \"#utility.yul\":6292:6325   */\n  tag_41\n  jump\t// in\ntag_121:\n    /* \"#utility.yul\":6202:6331   */\n  swap2\n  swap1\n  pop\n  jump\t// out\n    /* \"#utility.yul\":6337:6645   */\ntag_43:\n    /* \"#utility.yul\":6399:6403   */\n  0x00\n    /* \"#utility.yul\":6489:6507   */\n  0xffffffffffffffff\n    /* \"#utility.yul\":6481:6487   */\n  dup3\n    /* \"#utility.yul\":6478:6508   */\n  gt\n    /* \"#utility.yul\":6475:6531   */\n  iszero\n  tag_123\n  jumpi\n    /* \"#utility.yul\":6511:6529   */\n  tag_124\n  tag_16\n  jump\t// in\ntag_124:\n    /* \"#utility.yul\":6475:6531   */\ntag_123:\n    /* \"#utility.yul\":6549:6578   */\n  tag_125\n    /* \"#utility.yul\":6571:6577   */\n  dup3\n    /* \"#utility.yul\":6549:6578   */\n  tag_40\n  jump\t// in\ntag_125:\n    /* \"#utility.yul\":6541:6578   */\n  swap1\n  pop\n    /* \"#utility.yul\":6633:6637   */\n  0x20\n    /* \"#utility.yul\":6627:6631   */\n  dup2\n    /* \"#utility.yul\":6623:6638   */\n  add\n    /* \"#utility.yul\":6615:6638   */\n  swap1\n  pop\n    /* \"#utility.yul\":6337:6645   */\n  swap2\n  swap1\n  pop\n  jump\t// out\n    /* \"#utility.yul\":6651:6790   */\ntag_44:\n    /* \"#utility.yul\":6740:6746   */\n  dup3\n    /* \"#utility.yul\":6735:6738   */\n  dup2\n    /* \"#utility.yul\":6730:6733   */\n  dup4\n    /* \"#utility.yul\":6724:6747   */\n  mcopy\n    /* \"#utility.yul\":6781:6782   */\n  0x00\n    /* \"#utility.yul\":6772:6778   */\n  dup4\n    /* \"#utility.yul\":6767:6770   */\n  dup4\n    /* \"#utility.yul\":6763:6779   */\n  add\n    /* \"#utility.yul\":6756:6783   */\n  mstore\n    /* \"#utility.yul\":6651:6790   */\n  pop\n  pop\n  pop\n  jump\t// out\n    /* \"#utility.yul\":6796:7230   */\ntag_45:\n    /* \"#utility.yul\":6885:6890   */\n  0x00\n    /* \"#utility.yul\":6910:6976   */\n  tag_128\n    /* \"#utility.yul\":6926:6975   */\n  tag_129\n    /* \"#utility.yul\":6968:6974   */\n  dup5\n    /* \"#utility.yul\":6926:6975   */\n  tag_43\n  jump\t// in\ntag_129:\n    /* \"#utility.yul\":6910:6976   */\n  tag_42\n  jump\t// in\ntag_128:\n    /* \"#utility.yul\":6901:6976   */\n  swap1\n  pop\n    /* \"#utility.yul\":6999:7005   */\n  dup3\n    /* \"#utility.yul\":6992:6997   */\n  dup2\n    /* \"#utility.yul\":6985:7006   */\n  mstore\n    /* \"#utility.yul\":7037:7041   */\n  0x20\n    /* \"#utility.yul\":7030:7035   */\n  dup2\n    /* \"#utility.yul\":7026:7042   */\n  add\n    /* \"#utility.yul\":7075:7078   */\n  dup5\n    /* \"#utility.yul\":7066:7072   */\n  dup5\n    /* \"#utility.yul\":7061:7064   */\n  dup5\n    /* \"#utility.yul\":7057:7073   */\n  add\n    /* \"#utility.yul\":7054:7079   */\n  gt\n    /* \"#utility.yul\":7051:7163   */\n  iszero\n  tag_130\n  jumpi\n    /* \"#utility.yul\":7082:7161   */\n  tag_131\n  tag_39\n  jump\t// in\ntag_131:\n    /* \"#utility.yul\":7051:7163   */\ntag_130:\n    /* \"#utility.yul\":7172:7224   */\n  tag_132\n    /* \"#utility.yul\":7217:7223   */\n  dup5\n    /* \"#utility.yul\":7212:7215   */\n  dup3\n    /* \"#utility.yul\":7207:7210   */\n  dup6\n    /* \"#utility.yul\":7172:7224   */\n  tag_44\n  jump\t// in\ntag_132:\n    /* \"#utility.yul\":6891:7230   */\n  pop\n    /* \"#utility.yul\":6796:7230   */\n  swap4\n  swap3\n  pop\n  pop\n  pop\n  jump\t// out\n    /* \"#utility.yul\":7250:7605   */\ntag_46:\n    /* \"#utility.yul\":7317:7322   */\n  0x00\n    /* \"#utility.yul\":7366:7369   */\n  dup3\n    /* \"#utility.yul\":7359:7363   */\n  0x1f\n    /* \"#utility.yul\":7351:7357   */\n  dup4\n    /* \"#utility.yul\":7347:7364   */\n  add\n    /* \"#utility.yul\":7343:7370   */\n  slt\n    /* \"#utility.yul\":7333:7455   */\n  tag_134\n  jumpi\n    /* \"#utility.yul\":7374:7453   */\n  tag_135\n  tag_38\n  jump\t// in\ntag_135:\n    /* \"#utility.yul\":7333:7455   */\ntag_134:\n    /* \"#utility.yul\":7484:7490   */\n  dup2\n    /* \"#utility.yul\":7478:7491   */\n  mload\n    /* \"#utility.yul\":7509:7599   */\n  tag_136\n    /* \"#utility.yul\":7595:7598   */\n  dup5\n    /* \"#utility.yul\":7587:7593   */\n  dup3\n    /* \"#utility.yul\":7580:7584   */\n  0x20\n    /* \"#utility.yul\":7572:7578   */\n  dup7\n    /* \"#utility.yul\":7568:7585   */\n  add\n    /* \"#utility.yul\":7509:7599   */\n  tag_45\n  jump\t// in\ntag_136:\n    /* \"#utility.yul\":7500:7599   */\n  swap2\n  pop\n    /* \"#utility.yul\":7323:7605   */\n  pop\n    /* \"#utility.yul\":7250:7605   */\n  swap3\n  swap2\n  pop\n  pop\n  jump\t// out\n    /* \"#utility.yul\":7611:8464   */\ntag_6:\n    /* \"#utility.yul\":7710:7716   */\n  0x00\n    /* \"#utility.yul\":7718:7724   */\n  dup1\n    /* \"#utility.yul\":7767:7769   */\n  0x40\n    /* \"#utility.yul\":7755:7764   */\n  dup4\n    /* \"#utility.yul\":7746:7753   */\n  dup6\n    /* \"#utility.yul\":7742:7765   */\n  sub\n    /* \"#utility.yul\":7738:7770   */\n  slt\n    /* \"#utility.yul\":7735:7854   */\n  iszero\n  tag_138\n  jumpi\n    /* \"#utility.yul\":7773:7852   */\n  tag_139\n  tag_36\n  jump\t// in\ntag_139:\n    /* \"#utility.yul\":7735:7854   */\ntag_138:\n    /* \"#utility.yul\":7914:7915   */\n  0x00\n    /* \"#utility.yul\":7903:7912   */\n  dup4\n    /* \"#utility.yul\":7899:7916   */\n  add\n    /* \"#utility.yul\":7893:7917   */\n  mload\n    /* \"#utility.yul\":7944:7962   */\n  0xffffffffffffffff\n    /* \"#utility.yul\":7936:7942   */\n  dup2\n    /* \"#utility.yul\":7933:7963   */\n  gt\n    /* \"#utility.yul\":7930:8047   */\n  iszero\n  tag_140\n  jumpi\n    /* \"#utility.yul\":7966:8045   */\n  tag_141\n  tag_37\n  jump\t// in\ntag_141:\n    /* \"#utility.yul\":7930:8047   */\ntag_140:\n    /* \"#utility.yul\":8071:8145   */\n  tag_142\n    /* \"#utility.yul\":8137:8144   */\n  dup6\n    /* \"#utility.yul\":8128:8134   */\n  dup3\n    /* \"#utility.yul\":8117:8126   */\n  dup7\n    /* \"#utility.yul\":8113:8135   */\n  add\n    /* \"#utility.yul\":8071:8145   */\n  tag_46\n  jump\t// in\ntag_142:\n    /* \"#utility.yul\":8061:8145   */\n  swap3\n  pop\n    /* \"#utility.yul\":7864:8155   */\n  pop\n    /* \"#utility.yul\":8215:8217   */\n  0x20\n    /* \"#utility.yul\":8204:8213   */\n  dup4\n    /* \"#utility.yul\":8200:8218   */\n  add\n    /* \"#utility.yul\":8194:8219   */\n  mload\n    /* \"#utility.yul\":8246:8264   */\n  0xffffffffffffffff\n    /* \"#utility.yul\":8238:8244   */\n  dup2\n    /* \"#utility.yul\":8235:8265   */\n  gt\n    /* \"#utility.yul\":8232:8349   */\n  iszero\n  tag_143\n  jumpi\n    /* \"#utility.yul\":8268:8347   */\n  tag_144\n  tag_37\n  jump\t// in\ntag_144:\n    /* \"#utility.yul\":8232:8349   */\ntag_143:\n    /* \"#utility.yul\":8373:8447   */\n  tag_145\n    /* \"#utility.yul\":8439:8446   */\n  dup6\n    /* \"#utility.yul\":8430:8436   */\n  dup3\n    /* \"#utility.yul\":8419:8428   */\n  dup7\n    /* \"#utility.yul\":8415:8437   */\n  add\n    /* \"#utility.yul\":8373:8447   */\n  tag_46\n  jump\t// in\ntag_145:\n    /* \"#utility.yul\":8363:8447   */\n  swap2\n  pop\n    /* \"#utility.yul\":8165:8457   */\n  pop\n    /* \"#utility.yul\":7611:8464   */\n  swap3\n  pop\n  swap3\n  swap1\n  pop\n  jump\t// out\n    /* \"12_ERC-20 Tokens.sol\":189:4844  contract WeightedVoting is ERC20 {... */\ntag_14:\n  dataSize(sub_0)\n  dup1\n  dataOffset(sub_0)\n  0x00\n  codecopy\n  0x00\n  return\nstop\n\nsub_0: assembly {\n        /* \"12_ERC-20 Tokens.sol\":189:4844  contract WeightedVoting is ERC20 {... */\n      mstore(0x40, 0x80)\n      callvalue\n      dup1\n      iszero\n      tag_1\n      jumpi\n      0x00\n      dup1\n      revert\n    tag_1:\n      pop\n      jumpi(tag_2, lt(calldatasize, 0x04))\n      shr(0xe0, calldataload(0x00))\n      dup1\n      0x830953ab\n      gt\n      tag_19\n      jumpi\n      dup1\n      0x976b3113\n      gt\n      tag_20\n      jumpi\n      dup1\n      0x976b3113\n      eq\n      tag_15\n      jumpi\n      dup1\n      0xa9059cbb\n      eq\n      tag_16\n      jumpi\n      dup1\n      0xd5abeb01\n      eq\n      tag_17\n      jumpi\n      dup1\n      0xdd62ed3e\n      eq\n      tag_18\n      jumpi\n      jump(tag_2)\n    tag_20:\n      dup1\n      0x830953ab\n      eq\n      tag_11\n      jumpi\n      dup1\n      0x8615d855\n      eq\n      tag_12\n      jumpi\n      dup1\n      0x943e8216\n      eq\n      tag_13\n      jumpi\n      dup1\n      0x95d89b41\n      eq\n      tag_14\n      jumpi\n      jump(tag_2)\n    tag_19:\n      dup1\n      0x313ce567\n      gt\n      tag_21\n      jumpi\n      dup1\n      0x313ce567\n      eq\n      tag_7\n      jumpi\n      dup1\n      0x4e71d92d\n      eq\n      tag_8\n      jumpi\n      dup1\n      0x624601b6\n      eq\n      tag_9\n      jumpi\n      dup1\n      0x70a08231\n      eq\n      tag_10\n      jumpi\n      jump(tag_2)\n    tag_21:\n      dup1\n      0x06fdde03\n      eq\n      tag_3\n      jumpi\n      dup1\n      0x095ea7b3\n      eq\n      tag_4\n      jumpi\n      dup1\n      0x18160ddd\n      eq\n      tag_5\n      jumpi\n      dup1\n      0x23b872dd\n      eq\n      tag_6\n      jumpi\n    tag_2:\n      0x00\n      dup1\n      revert\n        /* \"@openzeppelin/contracts/token/ERC20/ERC20.sol\":2074:2163  function name() public view virtual returns (string memory) {... */\n    tag_3:\n      tag_22\n      tag_23\n      jump\t// in\n    tag_22:\n      mload(0x40)\n      tag_24\n      swap2\n      swap1\n      tag_25\n      jump\t// in\n    tag_24:\n      mload(0x40)\n      dup1\n      swap2\n      sub\n      swap1\n      return\n        /* \"@openzeppelin/contracts/token/ERC20/ERC20.sol\":4293:4479  function approve(address spender, uint256 value) public virtual returns (bool) {... */\n    tag_4:\n      tag_26\n      0x04\n      dup1\n      calldatasize\n      sub\n      dup2\n      add\n      swap1\n      tag_27\n      swap2\n      swap1\n      tag_28\n      jump\t// in\n    tag_27:\n      tag_29\n      jump\t// in\n    tag_26:\n      mload(0x40)\n      tag_30\n      swap2\n      swap1\n      tag_31\n      jump\t// in\n    tag_30:\n      mload(0x40)\n      dup1\n      swap2\n      sub\n      swap1\n      return\n        /* \"@openzeppelin/contracts/token/ERC20/ERC20.sol\":3144:3241  function totalSupply() public view virtual returns (uint256) {... */\n    tag_5:\n      tag_32\n      tag_33\n      jump\t// in\n    tag_32:\n      mload(0x40)\n      tag_34\n      swap2\n      swap1\n      tag_35\n      jump\t// in\n    tag_34:\n      mload(0x40)\n      dup1\n      swap2\n      sub\n      swap1\n      return\n        /* \"@openzeppelin/contracts/token/ERC20/ERC20.sol\":5039:5283  function transferFrom(address from, address to, uint256 value) public virtual returns (bool) {... */\n    tag_6:\n      tag_36\n      0x04\n      dup1\n      calldatasize\n      sub\n      dup2\n      add\n      swap1\n      tag_37\n      swap2\n      swap1\n      tag_38\n      jump\t// in\n    tag_37:\n      tag_39\n      jump\t// in\n    tag_36:\n      mload(0x40)\n      tag_40\n      swap2\n      swap1\n      tag_31\n      jump\t// in\n    tag_40:\n      mload(0x40)\n      dup1\n      swap2\n      sub\n      swap1\n      return\n        /* \"@openzeppelin/contracts/token/ERC20/ERC20.sol\":3002:3084  function decimals() public view virtual returns (uint8) {... */\n    tag_7:\n      tag_41\n      tag_42\n      jump\t// in\n    tag_41:\n      mload(0x40)\n      tag_43\n      swap2\n      swap1\n      tag_44\n      jump\t// in\n    tag_43:\n      mload(0x40)\n      dup1\n      swap2\n      sub\n      swap1\n      return\n        /* \"12_ERC-20 Tokens.sol\":2147:2621  function claim() public {... */\n    tag_8:\n      tag_45\n      tag_46\n      jump\t// in\n    tag_45:\n      stop\n        /* \"12_ERC-20 Tokens.sol\":1726:1771  mapping(address => bool) public tokensClaimed */\n    tag_9:\n      tag_47\n      0x04\n      dup1\n      calldatasize\n      sub\n      dup2\n      add\n      swap1\n      tag_48\n      swap2\n      swap1\n      tag_49\n      jump\t// in\n    tag_48:\n      tag_50\n      jump\t// in\n    tag_47:\n      mload(0x40)\n      tag_51\n      swap2\n      swap1\n      tag_31\n      jump\t// in\n    tag_51:\n      mload(0x40)\n      dup1\n      swap2\n      sub\n      swap1\n      return\n        /* \"@openzeppelin/contracts/token/ERC20/ERC20.sol\":3299:3415  function balanceOf(address account) public view virtual returns (uint256) {... */\n    tag_10:\n      tag_52\n      0x04\n      dup1\n      calldatasize\n      sub\n      dup2\n      add\n      swap1\n      tag_53\n      swap2\n      swap1\n      tag_49\n      jump\t// in\n    tag_53:\n      tag_54\n      jump\t// in\n    tag_52:\n      mload(0x40)\n      tag_55\n      swap2\n      swap1\n      tag_35\n      jump\t// in\n    tag_55:\n      mload(0x40)\n      dup1\n      swap2\n      sub\n      swap1\n      return\n        /* \"12_ERC-20 Tokens.sol\":1846:1878  uint256 public claimAmount = 100 */\n    tag_11:\n      tag_56\n      tag_57\n      jump\t// in\n    tag_56:\n      mload(0x40)\n      tag_58\n      swap2\n      swap1\n      tag_35\n      jump\t// in\n    tag_58:\n      mload(0x40)\n      dup1\n      swap2\n      sub\n      swap1\n      return\n        /* \"12_ERC-20 Tokens.sol\":2627:3239  function createIssue(string calldata _issueDesc, uint256 _quorum)... */\n    tag_12:\n      tag_59\n      0x04\n      dup1\n      calldatasize\n      sub\n      dup2\n      add\n      swap1\n      tag_60\n      swap2\n      swap1\n      tag_61\n      jump\t// in\n    tag_60:\n      tag_62\n      jump\t// in\n    tag_59:\n      mload(0x40)\n      tag_63\n      swap2\n      swap1\n      tag_35\n      jump\t// in\n    tag_63:\n      mload(0x40)\n      dup1\n      swap2\n      sub\n      swap1\n      return\n        /* \"12_ERC-20 Tokens.sol\":3880:4842  function vote(uint256 _issueId, Vote _vote) public {... */\n    tag_13:\n      tag_64\n      0x04\n      dup1\n      calldatasize\n      sub\n      dup2\n      add\n      swap1\n      tag_65\n      swap2\n      swap1\n      tag_66\n      jump\t// in\n    tag_65:\n      tag_67\n      jump\t// in\n    tag_64:\n      stop\n        /* \"@openzeppelin/contracts/token/ERC20/ERC20.sol\":2276:2369  function symbol() public view virtual returns (string memory) {... */\n    tag_14:\n      tag_68\n      tag_69\n      jump\t// in\n    tag_68:\n      mload(0x40)\n      tag_70\n      swap2\n      swap1\n      tag_25\n      jump\t// in\n    tag_70:\n      mload(0x40)\n      dup1\n      swap2\n      sub\n      swap1\n      return\n        /* \"12_ERC-20 Tokens.sol\":3245:3874  function getIssue(uint256 _issueId)... */\n    tag_15:\n      tag_71\n      0x04\n      dup1\n      calldatasize\n      sub\n      dup2\n      add\n      swap1\n      tag_72\n      swap2\n      swap1\n      tag_73\n      jump\t// in\n    tag_72:\n      tag_74\n      jump\t// in\n    tag_71:\n      mload(0x40)\n      tag_75\n      swap2\n      swap1\n      tag_76\n      jump\t// in\n    tag_75:\n      mload(0x40)\n      dup1\n      swap2\n      sub\n      swap1\n      return\n        /* \"@openzeppelin/contracts/token/ERC20/ERC20.sol\":3610:3788  function transfer(address to, uint256 value) public virtual returns (bool) {... */\n    tag_16:\n      tag_77\n      0x04\n      dup1\n      calldatasize\n      sub\n      dup2\n      add\n      swap1\n      tag_78\n      swap2\n      swap1\n      tag_28\n      jump\t// in\n    tag_78:\n      tag_79\n      jump\t// in\n    tag_77:\n      mload(0x40)\n      tag_80\n      swap2\n      swap1\n      tag_31\n      jump\t// in\n    tag_80:\n      mload(0x40)\n      dup1\n      swap2\n      sub\n      swap1\n      return\n        /* \"12_ERC-20 Tokens.sol\":1778:1812  uint256 public maxSupply = 1000000 */\n    tag_17:\n      tag_81\n      tag_82\n      jump\t// in\n    tag_81:\n      mload(0x40)\n      tag_83\n      swap2\n      swap1\n      tag_35\n      jump\t// in\n    tag_83:\n      mload(0x40)\n      dup1\n      swap2\n      sub\n      swap1\n      return\n        /* \"@openzeppelin/contracts/token/ERC20/ERC20.sol\":3846:3986  function allowance(address owner, address spender) public view virtual returns (uint256) {... */\n    tag_18:\n      tag_84\n      0x04\n      dup1\n      calldatasize\n      sub\n      dup2\n      add\n      swap1\n      tag_85\n      swap2\n      swap1\n      tag_86\n      jump\t// in\n    tag_85:\n      tag_87\n      jump\t// in\n    tag_84:\n      mload(0x40)\n      tag_88\n      swap2\n      swap1\n      tag_35\n      jump\t// in\n    tag_88:\n      mload(0x40)\n      dup1\n      swap2\n      sub\n      swap1\n      return\n        /* \"@openzeppelin/contracts/token/ERC20/ERC20.sol\":2074:2163  function name() public view virtual returns (string memory) {... */\n    tag_23:\n        /* \"@openzeppelin/contracts/token/ERC20/ERC20.sol\":2119:2132  string memory */\n      0x60\n        /* \"@openzeppelin/contracts/token/ERC20/ERC20.sol\":2151:2156  _name */\n      0x03\n        /* \"@openzeppelin/contracts/token/ERC20/ERC20.sol\":2144:2156  return _name */\n      dup1\n      sload\n      tag_90\n      swap1\n      tag_91\n      jump\t// in\n    tag_90:\n      dup1\n      0x1f\n      add\n      0x20\n      dup1\n      swap2\n      div\n      mul\n      0x20\n      add\n      mload(0x40)\n      swap1\n      dup2\n      add\n      0x40\n      mstore\n      dup1\n      swap3\n      swap2\n      swap1\n      dup2\n      dup2\n      mstore\n      0x20\n      add\n      dup3\n      dup1\n      sload\n      tag_92\n      swap1\n      tag_91\n      jump\t// in\n    tag_92:\n      dup1\n      iszero\n      tag_93\n      jumpi\n      dup1\n      0x1f\n      lt\n      tag_94\n      jumpi\n      0x0100\n      dup1\n      dup4\n      sload\n      div\n      mul\n      dup4\n      mstore\n      swap2\n      0x20\n      add\n      swap2\n      jump(tag_93)\n    tag_94:\n      dup3\n      add\n      swap2\n      swap1\n      0x00\n      mstore\n      keccak256(0x00, 0x20)\n      swap1\n    tag_95:\n      dup2\n      sload\n      dup2\n      mstore\n      swap1\n      0x01\n      add\n      swap1\n      0x20\n      add\n      dup1\n      dup4\n      gt\n      tag_95\n      jumpi\n      dup3\n      swap1\n      sub\n      0x1f\n      and\n      dup3\n      add\n      swap2\n    tag_93:\n      pop\n      pop\n      pop\n      pop\n      pop\n      swap1\n      pop\n        /* \"@openzeppelin/contracts/token/ERC20/ERC20.sol\":2074:2163  function name() public view virtual returns (string memory) {... */\n      swap1\n      jump\t// out\n        /* \"@openzeppelin/contracts/token/ERC20/ERC20.sol\":4293:4479  function approve(address spender, uint256 value) public virtual returns (bool) {... */\n    tag_29:\n        /* \"@openzeppelin/contracts/token/ERC20/ERC20.sol\":4366:4370  bool */\n      0x00\n        /* \"@openzeppelin/contracts/token/ERC20/ERC20.sol\":4382:4395  address owner */\n      dup1\n        /* \"@openzeppelin/contracts/token/ERC20/ERC20.sol\":4398:4410  _msgSender() */\n      tag_97\n        /* \"@openzeppelin/contracts/token/ERC20/ERC20.sol\":4398:4408  _msgSender */\n      tag_98\n        /* \"@openzeppelin/contracts/token/ERC20/ERC20.sol\":4398:4410  _msgSender() */\n      jump\t// in\n    tag_97:\n        /* \"@openzeppelin/contracts/token/ERC20/ERC20.sol\":4382:4410  address owner = _msgSender() */\n      swap1\n      pop\n        /* \"@openzeppelin/contracts/token/ERC20/ERC20.sol\":4420:4451  _approve(owner, spender, value) */\n      tag_99\n        /* \"@openzeppelin/contracts/token/ERC20/ERC20.sol\":4429:4434  owner */\n      dup2\n        /* \"@openzeppelin/contracts/token/ERC20/ERC20.sol\":4436:4443  spender */\n      dup6\n        /* \"@openzeppelin/contracts/token/ERC20/ERC20.sol\":4445:4450  value */\n      dup6\n        /* \"@openzeppelin/contracts/token/ERC20/ERC20.sol\":4420:4428  _approve */\n      tag_100\n        /* \"@openzeppelin/contracts/token/ERC20/ERC20.sol\":4420:4451  _approve(owner, spender, value) */\n      jump\t// in\n    tag_99:\n        /* \"@openzeppelin/contracts/token/ERC20/ERC20.sol\":4468:4472  true */\n      0x01\n        /* \"@openzeppelin/contracts/token/ERC20/ERC20.sol\":4461:4472  return true */\n      swap2\n      pop\n      pop\n        /* \"@openzeppelin/contracts/token/ERC20/ERC20.sol\":4293:4479  function approve(address spender, uint256 value) public virtual returns (bool) {... */\n      swap3\n      swap2\n      pop\n      pop\n      jump\t// out\n        /* \"@openzeppelin/contracts/token/ERC20/ERC20.sol\":3144:3241  function totalSupply() public view virtual returns (uint256) {... */\n    tag_33:\n        /* \"@openzeppelin/contracts/token/ERC20/ERC20.sol\":3196:3203  uint256 */\n      0x00\n        /* \"@openzeppelin/contracts/token/ERC20/ERC20.sol\":3222:3234  _totalSupply */\n      sload(0x02)\n        /* \"@openzeppelin/contracts/token/ERC20/ERC20.sol\":3215:3234  return _totalSupply */\n      swap1\n      pop\n        /* \"@openzeppelin/contracts/token/ERC20/ERC20.sol\":3144:3241  function totalSupply() public view virtual returns (uint256) {... */\n      swap1\n      jump\t// out\n        /* \"@openzeppelin/contracts/token/ERC20/ERC20.sol\":5039:5283  function transferFrom(address from, address to, uint256 value) public virtual returns (bool) {... */\n    tag_39:\n        /* \"@openzeppelin/contracts/token/ERC20/ERC20.sol\":5126:5130  bool */\n      0x00\n        /* \"@openzeppelin/contracts/token/ERC20/ERC20.sol\":5142:5157  address spender */\n      dup1\n        /* \"@openzeppelin/contracts/token/ERC20/ERC20.sol\":5160:5172  _msgSender() */\n      tag_103\n        /* \"@openzeppelin/contracts/token/ERC20/ERC20.sol\":5160:5170  _msgSender */\n      tag_98\n        /* \"@openzeppelin/contracts/token/ERC20/ERC20.sol\":5160:5172  _msgSender() */\n      jump\t// in\n    tag_103:\n        /* \"@openzeppelin/contracts/token/ERC20/ERC20.sol\":5142:5172  address spender = _msgSender() */\n      swap1\n      pop\n        /* \"@openzeppelin/contracts/token/ERC20/ERC20.sol\":5182:5219  _spendAllowance(from, spender, value) */\n      tag_104\n        /* \"@openzeppelin/contracts/token/ERC20/ERC20.sol\":5198:5202  from */\n      dup6\n        /* \"@openzeppelin/contracts/token/ERC20/ERC20.sol\":5204:5211  spender */\n      dup3\n        /* \"@openzeppelin/contracts/token/ERC20/ERC20.sol\":5213:5218  value */\n      dup6\n        /* \"@openzeppelin/contracts/token/ERC20/ERC20.sol\":5182:5197  _spendAllowance */\n      tag_105\n        /* \"@openzeppelin/contracts/token/ERC20/ERC20.sol\":5182:5219  _spendAllowance(from, spender, value) */\n      jump\t// in\n    tag_104:\n        /* \"@openzeppelin/contracts/token/ERC20/ERC20.sol\":5229:5255  _transfer(from, to, value) */\n      tag_106\n        /* \"@openzeppelin/contracts/token/ERC20/ERC20.sol\":5239:5243  from */\n      dup6\n        /* \"@openzeppelin/contracts/token/ERC20/ERC20.sol\":5245:5247  to */\n      dup6\n        /* \"@openzeppelin/contracts/token/ERC20/ERC20.sol\":5249:5254  value */\n      dup6\n        /* \"@openzeppelin/contracts/token/ERC20/ERC20.sol\":5229:5238  _transfer */\n      tag_107\n        /* \"@openzeppelin/contracts/token/ERC20/ERC20.sol\":5229:5255  _transfer(from, to, value) */\n      jump\t// in\n    tag_106:\n        /* \"@openzeppelin/contracts/token/ERC20/ERC20.sol\":5272:5276  true */\n      0x01\n        /* \"@openzeppelin/contracts/token/ERC20/ERC20.sol\":5265:5276  return true */\n      swap2\n      pop\n      pop\n        /* \"@openzeppelin/contracts/token/ERC20/ERC20.sol\":5039:5283  function transferFrom(address from, address to, uint256 value) public virtual returns (bool) {... */\n      swap4\n      swap3\n      pop\n      pop\n      pop\n      jump\t// out\n        /* \"@openzeppelin/contracts/token/ERC20/ERC20.sol\":3002:3084  function decimals() public view virtual returns (uint8) {... */\n    tag_42:\n        /* \"@openzeppelin/contracts/token/ERC20/ERC20.sol\":3051:3056  uint8 */\n      0x00\n        /* \"@openzeppelin/contracts/token/ERC20/ERC20.sol\":3075:3077  18 */\n      0x12\n        /* \"@openzeppelin/contracts/token/ERC20/ERC20.sol\":3068:3077  return 18 */\n      swap1\n      pop\n        /* \"@openzeppelin/contracts/token/ERC20/ERC20.sol\":3002:3084  function decimals() public view virtual returns (uint8) {... */\n      swap1\n      jump\t// out\n        /* \"12_ERC-20 Tokens.sol\":2147:2621  function claim() public {... */\n    tag_46:\n        /* \"12_ERC-20 Tokens.sol\":2264:2273  maxSupply */\n      sload(0x08)\n        /* \"12_ERC-20 Tokens.sol\":2250:2261  claimAmount */\n      sload(0x09)\n        /* \"12_ERC-20 Tokens.sol\":2234:2247  totalSupply() */\n      tag_110\n        /* \"12_ERC-20 Tokens.sol\":2234:2245  totalSupply */\n      tag_33\n        /* \"12_ERC-20 Tokens.sol\":2234:2247  totalSupply() */\n      jump\t// in\n    tag_110:\n        /* \"12_ERC-20 Tokens.sol\":2234:2261  totalSupply() + claimAmount */\n      tag_111\n      swap2\n      swap1\n      tag_112\n      jump\t// in\n    tag_111:\n        /* \"12_ERC-20 Tokens.sol\":2234:2273  totalSupply() + claimAmount > maxSupply */\n      gt\n        /* \"12_ERC-20 Tokens.sol\":2230:2325  if (totalSupply() + claimAmount > maxSupply) {... */\n      iszero\n      tag_113\n      jumpi\n        /* \"12_ERC-20 Tokens.sol\":2296:2314  AllTokensClaimed() */\n      mload(0x40)\n      0xcbe2483100000000000000000000000000000000000000000000000000000000\n      dup2\n      mstore\n      0x04\n      add\n      mload(0x40)\n      dup1\n      swap2\n      sub\n      swap1\n      revert\n        /* \"12_ERC-20 Tokens.sol\":2230:2325  if (totalSupply() + claimAmount > maxSupply) {... */\n    tag_113:\n        /* \"12_ERC-20 Tokens.sol\":2396:2409  tokensClaimed */\n      0x07\n        /* \"12_ERC-20 Tokens.sol\":2396:2421  tokensClaimed[msg.sender] */\n      0x00\n        /* \"12_ERC-20 Tokens.sol\":2410:2420  msg.sender */\n      caller\n        /* \"12_ERC-20 Tokens.sol\":2396:2421  tokensClaimed[msg.sender] */\n      0xffffffffffffffffffffffffffffffffffffffff\n      and\n      0xffffffffffffffffffffffffffffffffffffffff\n      and\n      dup2\n      mstore\n      0x20\n      add\n      swap1\n      dup2\n      mstore\n      0x20\n      add\n      0x00\n      keccak256\n      0x00\n      swap1\n      sload\n      swap1\n      0x0100\n      exp\n      swap1\n      div\n      0xff\n      and\n        /* \"12_ERC-20 Tokens.sol\":2392:2470  if (tokensClaimed[msg.sender]) {... */\n      iszero\n      tag_114\n      jumpi\n        /* \"12_ERC-20 Tokens.sol\":2444:2459  TokensClaimed() */\n      mload(0x40)\n      0x0b1327a600000000000000000000000000000000000000000000000000000000\n      dup2\n      mstore\n      0x04\n      add\n      mload(0x40)\n      dup1\n      swap2\n      sub\n      swap1\n      revert\n        /* \"12_ERC-20 Tokens.sol\":2392:2470  if (tokensClaimed[msg.sender]) {... */\n    tag_114:\n        /* \"12_ERC-20 Tokens.sol\":2516:2546  _mint(msg.sender, claimAmount) */\n      tag_115\n        /* \"12_ERC-20 Tokens.sol\":2522:2532  msg.sender */\n      caller\n        /* \"12_ERC-20 Tokens.sol\":2534:2545  claimAmount */\n      sload(0x09)\n        /* \"12_ERC-20 Tokens.sol\":2516:2521  _mint */\n      tag_116\n        /* \"12_ERC-20 Tokens.sol\":2516:2546  _mint(msg.sender, claimAmount) */\n      jump\t// in\n    tag_115:\n        /* \"12_ERC-20 Tokens.sol\":2584:2588  true */\n      0x01\n        /* \"12_ERC-20 Tokens.sol\":2556:2569  tokensClaimed */\n      0x07\n        /* \"12_ERC-20 Tokens.sol\":2556:2581  tokensClaimed[msg.sender] */\n      0x00\n        /* \"12_ERC-20 Tokens.sol\":2570:2580  msg.sender */\n      caller\n        /* \"12_ERC-20 Tokens.sol\":2556:2581  tokensClaimed[msg.sender] */\n      0xffffffffffffffffffffffffffffffffffffffff\n      and\n      0xffffffffffffffffffffffffffffffffffffffff\n      and\n      dup2\n      mstore\n      0x20\n      add\n      swap1\n      dup2\n      mstore\n      0x20\n      add\n      0x00\n      keccak256\n      0x00\n        /* \"12_ERC-20 Tokens.sol\":2556:2588  tokensClaimed[msg.sender] = true */\n      0x0100\n      exp\n      dup2\n      sload\n      dup2\n      0xff\n      mul\n      not\n      and\n      swap1\n      dup4\n      iszero\n      iszero\n      mul\n      or\n      swap1\n      sstore\n      pop\n        /* \"12_ERC-20 Tokens.sol\":2147:2621  function claim() public {... */\n      jump\t// out\n        /* \"12_ERC-20 Tokens.sol\":1726:1771  mapping(address => bool) public tokensClaimed */\n    tag_50:\n      mstore(0x20, 0x07)\n      dup1\n      0x00\n      mstore\n      keccak256(0x00, 0x40)\n      0x00\n      swap2\n      pop\n      sload\n      swap1\n      0x0100\n      exp\n      swap1\n      div\n      0xff\n      and\n      dup2\n      jump\t// out\n        /* \"@openzeppelin/contracts/token/ERC20/ERC20.sol\":3299:3415  function balanceOf(address account) public view virtual returns (uint256) {... */\n    tag_54:\n        /* \"@openzeppelin/contracts/token/ERC20/ERC20.sol\":3364:3371  uint256 */\n      0x00\n        /* \"@openzeppelin/contracts/token/ERC20/ERC20.sol\":3390:3399  _balances */\n      dup1\n        /* \"@openzeppelin/contracts/token/ERC20/ERC20.sol\":3390:3408  _balances[account] */\n      0x00\n        /* \"@openzeppelin/contracts/token/ERC20/ERC20.sol\":3400:3407  account */\n      dup4\n        /* \"@openzeppelin/contracts/token/ERC20/ERC20.sol\":3390:3408  _balances[account] */\n      0xffffffffffffffffffffffffffffffffffffffff\n      and\n      0xffffffffffffffffffffffffffffffffffffffff\n      and\n      dup2\n      mstore\n      0x20\n      add\n      swap1\n      dup2\n      mstore\n      0x20\n      add\n      0x00\n      keccak256\n      sload\n        /* \"@openzeppelin/contracts/token/ERC20/ERC20.sol\":3383:3408  return _balances[account] */\n      swap1\n      pop\n        /* \"@openzeppelin/contracts/token/ERC20/ERC20.sol\":3299:3415  function balanceOf(address account) public view virtual returns (uint256) {... */\n      swap2\n      swap1\n      pop\n      jump\t// out\n        /* \"12_ERC-20 Tokens.sol\":1846:1878  uint256 public claimAmount = 100 */\n    tag_57:\n      sload(0x09)\n      dup2\n      jump\t// out\n        /* \"12_ERC-20 Tokens.sol\":2627:3239  function createIssue(string calldata _issueDesc, uint256 _quorum)... */\n    tag_62:\n        /* \"12_ERC-20 Tokens.sol\":2727:2734  uint256 */\n      0x00\n        /* \"12_ERC-20 Tokens.sol\":2827:2828  0 */\n      dup1\n        /* \"12_ERC-20 Tokens.sol\":2802:2823  balanceOf(msg.sender) */\n      tag_119\n        /* \"12_ERC-20 Tokens.sol\":2812:2822  msg.sender */\n      caller\n        /* \"12_ERC-20 Tokens.sol\":2802:2811  balanceOf */\n      tag_54\n        /* \"12_ERC-20 Tokens.sol\":2802:2823  balanceOf(msg.sender) */\n      jump\t// in\n    tag_119:\n        /* \"12_ERC-20 Tokens.sol\":2802:2828  balanceOf(msg.sender) == 0 */\n      sub\n        /* \"12_ERC-20 Tokens.sol\":2798:2876  if (balanceOf(msg.sender) == 0) {... */\n      tag_120\n      jumpi\n        /* \"12_ERC-20 Tokens.sol\":2851:2865  NoTokensHeld() */\n      mload(0x40)\n      0x8439960d00000000000000000000000000000000000000000000000000000000\n      dup2\n      mstore\n      0x04\n      add\n      mload(0x40)\n      dup1\n      swap2\n      sub\n      swap1\n      revert\n        /* \"12_ERC-20 Tokens.sol\":2798:2876  if (balanceOf(msg.sender) == 0) {... */\n    tag_120:\n        /* \"12_ERC-20 Tokens.sol\":2968:2981  totalSupply() */\n      tag_121\n        /* \"12_ERC-20 Tokens.sol\":2968:2979  totalSupply */\n      tag_33\n        /* \"12_ERC-20 Tokens.sol\":2968:2981  totalSupply() */\n      jump\t// in\n    tag_121:\n        /* \"12_ERC-20 Tokens.sol\":2958:2965  _quorum */\n      dup3\n        /* \"12_ERC-20 Tokens.sol\":2958:2981  _quorum > totalSupply() */\n      gt\n        /* \"12_ERC-20 Tokens.sol\":2954:3030  if (_quorum > totalSupply()) {... */\n      iszero\n      tag_122\n      jumpi\n        /* \"12_ERC-20 Tokens.sol\":3004:3019  QuorumTooHigh() */\n      mload(0x40)\n      0x0d92730000000000000000000000000000000000000000000000000000000000\n      dup2\n      mstore\n      0x04\n      add\n      mload(0x40)\n      dup1\n      swap2\n      sub\n      swap1\n      revert\n        /* \"12_ERC-20 Tokens.sol\":2954:3030  if (_quorum > totalSupply()) {... */\n    tag_122:\n        /* \"12_ERC-20 Tokens.sol\":3090:3110  Issue storage _issue */\n      0x00\n        /* \"12_ERC-20 Tokens.sol\":3113:3119  issues */\n      0x06\n        /* \"12_ERC-20 Tokens.sol\":3113:3126  issues.push() */\n      0x01\n      dup2\n      0x01\n      dup2\n      sload\n      add\n      dup1\n      dup3\n      sstore\n      dup1\n      swap2\n      pop\n      pop\n      sub\n      swap1\n      0x00\n      mstore\n      keccak256(0x00, 0x20)\n      swap1\n      0x09\n      mul\n      add\n        /* \"12_ERC-20 Tokens.sol\":3090:3126  Issue storage _issue = issues.push() */\n      swap1\n      pop\n        /* \"12_ERC-20 Tokens.sol\":3155:3165  _issueDesc */\n      dup5\n      dup5\n        /* \"12_ERC-20 Tokens.sol\":3136:3142  _issue */\n      dup3\n        /* \"12_ERC-20 Tokens.sol\":3136:3152  _issue.issueDesc */\n      0x02\n      add\n        /* \"12_ERC-20 Tokens.sol\":3136:3165  _issue.issueDesc = _issueDesc */\n      swap2\n      dup3\n      tag_124\n      swap3\n      swap2\n      swap1\n      tag_125\n      jump\t// in\n    tag_124:\n      pop\n        /* \"12_ERC-20 Tokens.sol\":3191:3198  _quorum */\n      dup3\n        /* \"12_ERC-20 Tokens.sol\":3175:3181  _issue */\n      dup2\n        /* \"12_ERC-20 Tokens.sol\":3175:3188  _issue.quorum */\n      0x03\n      add\n        /* \"12_ERC-20 Tokens.sol\":3175:3198  _issue.quorum = _quorum */\n      dup2\n      swap1\n      sstore\n      pop\n        /* \"12_ERC-20 Tokens.sol\":3231:3232  1 */\n      0x01\n        /* \"12_ERC-20 Tokens.sol\":3215:3221  issues */\n      0x06\n        /* \"12_ERC-20 Tokens.sol\":3215:3228  issues.length */\n      dup1\n      sload\n      swap1\n      pop\n        /* \"12_ERC-20 Tokens.sol\":3215:3232  issues.length - 1 */\n      tag_126\n      swap2\n      swap1\n      tag_127\n      jump\t// in\n    tag_126:\n        /* \"12_ERC-20 Tokens.sol\":3208:3232  return issues.length - 1 */\n      swap2\n      pop\n      pop\n        /* \"12_ERC-20 Tokens.sol\":2627:3239  function createIssue(string calldata _issueDesc, uint256 _quorum)... */\n      swap4\n      swap3\n      pop\n      pop\n      pop\n      jump\t// out\n        /* \"12_ERC-20 Tokens.sol\":3880:4842  function vote(uint256 _issueId, Vote _vote) public {... */\n    tag_67:\n        /* \"12_ERC-20 Tokens.sol\":3941:3961  Issue storage _issue */\n      0x00\n        /* \"12_ERC-20 Tokens.sol\":3964:3970  issues */\n      0x06\n        /* \"12_ERC-20 Tokens.sol\":3971:3979  _issueId */\n      dup4\n        /* \"12_ERC-20 Tokens.sol\":3964:3980  issues[_issueId] */\n      dup2\n      sload\n      dup2\n      lt\n      tag_129\n      jumpi\n      tag_130\n      tag_131\n      jump\t// in\n    tag_130:\n    tag_129:\n      swap1\n      0x00\n      mstore\n      keccak256(0x00, 0x20)\n      swap1\n      0x09\n      mul\n      add\n        /* \"12_ERC-20 Tokens.sol\":3941:3980  Issue storage _issue = issues[_issueId] */\n      swap1\n      pop\n        /* \"12_ERC-20 Tokens.sol\":3994:4000  _issue */\n      dup1\n        /* \"12_ERC-20 Tokens.sol\":3994:4007  _issue.closed */\n      0x08\n      add\n      0x01\n      swap1\n      sload\n      swap1\n      0x0100\n      exp\n      swap1\n      div\n      0xff\n      and\n        /* \"12_ERC-20 Tokens.sol\":3990:4055  if (_issue.closed) {... */\n      iszero\n      tag_133\n      jumpi\n        /* \"12_ERC-20 Tokens.sol\":4030:4044  VotingClosed() */\n      mload(0x40)\n      0x66b6cb4a00000000000000000000000000000000000000000000000000000000\n      dup2\n      mstore\n      0x04\n      add\n      mload(0x40)\n      dup1\n      swap2\n      sub\n      swap1\n      revert\n        /* \"12_ERC-20 Tokens.sol\":3990:4055  if (_issue.closed) {... */\n    tag_133:\n        /* \"12_ERC-20 Tokens.sol\":4068:4102  _issue.voters.contains(msg.sender) */\n      tag_134\n        /* \"12_ERC-20 Tokens.sol\":4091:4101  msg.sender */\n      caller\n        /* \"12_ERC-20 Tokens.sol\":4068:4074  _issue */\n      dup3\n        /* \"12_ERC-20 Tokens.sol\":4068:4081  _issue.voters */\n      0x00\n      add\n        /* \"12_ERC-20 Tokens.sol\":4068:4090  _issue.voters.contains */\n      tag_135\n      swap1\n        /* \"12_ERC-20 Tokens.sol\":4068:4102  _issue.voters.contains(msg.sender) */\n      swap2\n      swap1\n      0xffffffff\n      and\n      jump\t// in\n    tag_134:\n        /* \"12_ERC-20 Tokens.sol\":4064:4150  if (_issue.voters.contains(msg.sender)) {... */\n      iszero\n      tag_136\n      jumpi\n        /* \"12_ERC-20 Tokens.sol\":4125:4139  AlreadyVoted() */\n      mload(0x40)\n      0x7c9a1cf900000000000000000000000000000000000000000000000000000000\n      dup2\n      mstore\n      0x04\n      add\n      mload(0x40)\n      dup1\n      swap2\n      sub\n      swap1\n      revert\n        /* \"12_ERC-20 Tokens.sol\":4064:4150  if (_issue.voters.contains(msg.sender)) {... */\n    tag_136:\n        /* \"12_ERC-20 Tokens.sol\":4160:4175  uint256 nTokens */\n      0x00\n        /* \"12_ERC-20 Tokens.sol\":4178:4199  balanceOf(msg.sender) */\n      tag_137\n        /* \"12_ERC-20 Tokens.sol\":4188:4198  msg.sender */\n      caller\n        /* \"12_ERC-20 Tokens.sol\":4178:4187  balanceOf */\n      tag_54\n        /* \"12_ERC-20 Tokens.sol\":4178:4199  balanceOf(msg.sender) */\n      jump\t// in\n    tag_137:\n        /* \"12_ERC-20 Tokens.sol\":4160:4199  uint256 nTokens = balanceOf(msg.sender) */\n      swap1\n      pop\n        /* \"12_ERC-20 Tokens.sol\":4272:4273  0 */\n      0x00\n        /* \"12_ERC-20 Tokens.sol\":4261:4268  nTokens */\n      dup2\n        /* \"12_ERC-20 Tokens.sol\":4261:4273  nTokens == 0 */\n      sub\n        /* \"12_ERC-20 Tokens.sol\":4257:4321  if (nTokens == 0) {... */\n      tag_138\n      jumpi\n        /* \"12_ERC-20 Tokens.sol\":4296:4310  NoTokensHeld() */\n      mload(0x40)\n      0x8439960d00000000000000000000000000000000000000000000000000000000\n      dup2\n      mstore\n      0x04\n      add\n      mload(0x40)\n      dup1\n      swap2\n      sub\n      swap1\n      revert\n        /* \"12_ERC-20 Tokens.sol\":4257:4321  if (nTokens == 0) {... */\n    tag_138:\n        /* \"12_ERC-20 Tokens.sol\":4344:4356  Vote.AGAINST */\n      0x00\n        /* \"12_ERC-20 Tokens.sol\":4335:4356  _vote == Vote.AGAINST */\n      0x02\n      dup2\n      gt\n      iszero\n      tag_139\n      jumpi\n      tag_140\n      tag_141\n      jump\t// in\n    tag_140:\n    tag_139:\n        /* \"12_ERC-20 Tokens.sol\":4335:4340  _vote */\n      dup4\n        /* \"12_ERC-20 Tokens.sol\":4335:4356  _vote == Vote.AGAINST */\n      0x02\n      dup2\n      gt\n      iszero\n      tag_142\n      jumpi\n      tag_143\n      tag_141\n      jump\t// in\n    tag_143:\n    tag_142:\n      sub\n        /* \"12_ERC-20 Tokens.sol\":4331:4554  if (_vote == Vote.AGAINST) {... */\n      tag_144\n      jumpi\n        /* \"12_ERC-20 Tokens.sol\":4395:4402  nTokens */\n      dup1\n        /* \"12_ERC-20 Tokens.sol\":4372:4378  _issue */\n      dup3\n        /* \"12_ERC-20 Tokens.sol\":4372:4391  _issue.votesAgainst */\n      0x06\n      add\n      0x00\n        /* \"12_ERC-20 Tokens.sol\":4372:4402  _issue.votesAgainst += nTokens */\n      dup3\n      dup3\n      sload\n      tag_145\n      swap2\n      swap1\n      tag_112\n      jump\t// in\n    tag_145:\n      swap3\n      pop\n      pop\n      dup2\n      swap1\n      sstore\n      pop\n        /* \"12_ERC-20 Tokens.sol\":4331:4554  if (_vote == Vote.AGAINST) {... */\n      jump(tag_146)\n    tag_144:\n        /* \"12_ERC-20 Tokens.sol\":4432:4440  Vote.FOR */\n      0x01\n        /* \"12_ERC-20 Tokens.sol\":4423:4440  _vote == Vote.FOR */\n      0x02\n      dup2\n      gt\n      iszero\n      tag_147\n      jumpi\n      tag_148\n      tag_141\n      jump\t// in\n    tag_148:\n    tag_147:\n        /* \"12_ERC-20 Tokens.sol\":4423:4428  _vote */\n      dup4\n        /* \"12_ERC-20 Tokens.sol\":4423:4440  _vote == Vote.FOR */\n      0x02\n      dup2\n      gt\n      iszero\n      tag_149\n      jumpi\n      tag_150\n      tag_141\n      jump\t// in\n    tag_150:\n    tag_149:\n      sub\n        /* \"12_ERC-20 Tokens.sol\":4419:4554  if (_vote == Vote.FOR) {... */\n      tag_151\n      jumpi\n        /* \"12_ERC-20 Tokens.sol\":4475:4482  nTokens */\n      dup1\n        /* \"12_ERC-20 Tokens.sol\":4456:4462  _issue */\n      dup3\n        /* \"12_ERC-20 Tokens.sol\":4456:4471  _issue.votesFor */\n      0x05\n      add\n      0x00\n        /* \"12_ERC-20 Tokens.sol\":4456:4482  _issue.votesFor += nTokens */\n      dup3\n      dup3\n      sload\n      tag_152\n      swap2\n      swap1\n      tag_112\n      jump\t// in\n    tag_152:\n      swap3\n      pop\n      pop\n      dup2\n      swap1\n      sstore\n      pop\n        /* \"12_ERC-20 Tokens.sol\":4419:4554  if (_vote == Vote.FOR) {... */\n      jump(tag_153)\n    tag_151:\n        /* \"12_ERC-20 Tokens.sol\":4536:4543  nTokens */\n      dup1\n        /* \"12_ERC-20 Tokens.sol\":4513:4519  _issue */\n      dup3\n        /* \"12_ERC-20 Tokens.sol\":4513:4532  _issue.votesAbstain */\n      0x07\n      add\n      0x00\n        /* \"12_ERC-20 Tokens.sol\":4513:4543  _issue.votesAbstain += nTokens */\n      dup3\n      dup3\n      sload\n      tag_154\n      swap2\n      swap1\n      tag_112\n      jump\t// in\n    tag_154:\n      swap3\n      pop\n      pop\n      dup2\n      swap1\n      sstore\n      pop\n        /* \"12_ERC-20 Tokens.sol\":4419:4554  if (_vote == Vote.FOR) {... */\n    tag_153:\n        /* \"12_ERC-20 Tokens.sol\":4331:4554  if (_vote == Vote.AGAINST) {... */\n    tag_146:\n        /* \"12_ERC-20 Tokens.sol\":4564:4593  _issue.voters.add(msg.sender) */\n      tag_155\n        /* \"12_ERC-20 Tokens.sol\":4582:4592  msg.sender */\n      caller\n        /* \"12_ERC-20 Tokens.sol\":4564:4570  _issue */\n      dup4\n        /* \"12_ERC-20 Tokens.sol\":4564:4577  _issue.voters */\n      0x00\n      add\n        /* \"12_ERC-20 Tokens.sol\":4564:4581  _issue.voters.add */\n      tag_156\n      swap1\n        /* \"12_ERC-20 Tokens.sol\":4564:4593  _issue.voters.add(msg.sender) */\n      swap2\n      swap1\n      0xffffffff\n      and\n      jump\t// in\n    tag_155:\n      pop\n        /* \"12_ERC-20 Tokens.sol\":4624:4631  nTokens */\n      dup1\n        /* \"12_ERC-20 Tokens.sol\":4603:4609  _issue */\n      dup3\n        /* \"12_ERC-20 Tokens.sol\":4603:4620  _issue.totalVotes */\n      0x04\n      add\n      0x00\n        /* \"12_ERC-20 Tokens.sol\":4603:4631  _issue.totalVotes += nTokens */\n      dup3\n      dup3\n      sload\n      tag_157\n      swap2\n      swap1\n      tag_112\n      jump\t// in\n    tag_157:\n      swap3\n      pop\n      pop\n      dup2\n      swap1\n      sstore\n      pop\n        /* \"12_ERC-20 Tokens.sol\":4667:4673  _issue */\n      dup2\n        /* \"12_ERC-20 Tokens.sol\":4667:4680  _issue.quorum */\n      0x03\n      add\n      sload\n        /* \"12_ERC-20 Tokens.sol\":4646:4652  _issue */\n      dup3\n        /* \"12_ERC-20 Tokens.sol\":4646:4663  _issue.totalVotes */\n      0x04\n      add\n      sload\n        /* \"12_ERC-20 Tokens.sol\":4646:4680  _issue.totalVotes >= _issue.quorum */\n      lt\n        /* \"12_ERC-20 Tokens.sol\":4642:4836  if (_issue.totalVotes >= _issue.quorum) {... */\n      tag_158\n      jumpi\n        /* \"12_ERC-20 Tokens.sol\":4712:4716  true */\n      0x01\n        /* \"12_ERC-20 Tokens.sol\":4696:4702  _issue */\n      dup3\n        /* \"12_ERC-20 Tokens.sol\":4696:4709  _issue.closed */\n      0x08\n      add\n      0x01\n        /* \"12_ERC-20 Tokens.sol\":4696:4716  _issue.closed = true */\n      0x0100\n      exp\n      dup2\n      sload\n      dup2\n      0xff\n      mul\n      not\n      and\n      swap1\n      dup4\n      iszero\n      iszero\n      mul\n      or\n      swap1\n      sstore\n      pop\n        /* \"12_ERC-20 Tokens.sol\":4752:4758  _issue */\n      dup2\n        /* \"12_ERC-20 Tokens.sol\":4752:4771  _issue.votesAgainst */\n      0x06\n      add\n      sload\n        /* \"12_ERC-20 Tokens.sol\":4734:4740  _issue */\n      dup3\n        /* \"12_ERC-20 Tokens.sol\":4734:4749  _issue.votesFor */\n      0x05\n      add\n      sload\n        /* \"12_ERC-20 Tokens.sol\":4734:4771  _issue.votesFor > _issue.votesAgainst */\n      gt\n        /* \"12_ERC-20 Tokens.sol\":4730:4826  if (_issue.votesFor > _issue.votesAgainst) {... */\n      iszero\n      tag_159\n      jumpi\n        /* \"12_ERC-20 Tokens.sol\":4807:4811  true */\n      0x01\n        /* \"12_ERC-20 Tokens.sol\":4791:4797  _issue */\n      dup3\n        /* \"12_ERC-20 Tokens.sol\":4791:4804  _issue.passed */\n      0x08\n      add\n      0x00\n        /* \"12_ERC-20 Tokens.sol\":4791:4811  _issue.passed = true */\n      0x0100\n      exp\n      dup2\n      sload\n      dup2\n      0xff\n      mul\n      not\n      and\n      swap1\n      dup4\n      iszero\n      iszero\n      mul\n      or\n      swap1\n      sstore\n      pop\n        /* \"12_ERC-20 Tokens.sol\":4730:4826  if (_issue.votesFor > _issue.votesAgainst) {... */\n    tag_159:\n        /* \"12_ERC-20 Tokens.sol\":4642:4836  if (_issue.totalVotes >= _issue.quorum) {... */\n    tag_158:\n        /* \"12_ERC-20 Tokens.sol\":3931:4842  {... */\n      pop\n      pop\n        /* \"12_ERC-20 Tokens.sol\":3880:4842  function vote(uint256 _issueId, Vote _vote) public {... */\n      pop\n      pop\n      jump\t// out\n        /* \"@openzeppelin/contracts/token/ERC20/ERC20.sol\":2276:2369  function symbol() public view virtual returns (string memory) {... */\n    tag_69:\n        /* \"@openzeppelin/contracts/token/ERC20/ERC20.sol\":2323:2336  string memory */\n      0x60\n        /* \"@openzeppelin/contracts/token/ERC20/ERC20.sol\":2355:2362  _symbol */\n      0x04\n        /* \"@openzeppelin/contracts/token/ERC20/ERC20.sol\":2348:2362  return _symbol */\n      dup1\n      sload\n      tag_161\n      swap1\n      tag_91\n      jump\t// in\n    tag_161:\n      dup1\n      0x1f\n      add\n      0x20\n      dup1\n      swap2\n      div\n      mul\n      0x20\n      add\n      mload(0x40)\n      swap1\n      dup2\n      add\n      0x40\n      mstore\n      dup1\n      swap3\n      swap2\n      swap1\n      dup2\n      dup2\n      mstore\n      0x20\n      add\n      dup3\n      dup1\n      sload\n      tag_162\n      swap1\n      tag_91\n      jump\t// in\n    tag_162:\n      dup1\n      iszero\n      tag_163\n      jumpi\n      dup1\n      0x1f\n      lt\n      tag_164\n      jumpi\n      0x0100\n      dup1\n      dup4\n      sload\n      div\n      mul\n      dup4\n      mstore\n      swap2\n      0x20\n      add\n      swap2\n      jump(tag_163)\n    tag_164:\n      dup3\n      add\n      swap2\n      swap1\n      0x00\n      mstore\n      keccak256(0x00, 0x20)\n      swap1\n    tag_165:\n      dup2\n      sload\n      dup2\n      mstore\n      swap1\n      0x01\n      add\n      swap1\n      0x20\n      add\n      dup1\n      dup4\n      gt\n      tag_165\n      jumpi\n      dup3\n      swap1\n      sub\n      0x1f\n      and\n      dup3\n      add\n      swap2\n    tag_163:\n      pop\n      pop\n      pop\n      pop\n      pop\n      swap1\n      pop\n        /* \"@openzeppelin/contracts/token/ERC20/ERC20.sol\":2276:2369  function symbol() public view virtual returns (string memory) {... */\n      swap1\n      jump\t// out\n        /* \"12_ERC-20 Tokens.sol\":3245:3874  function getIssue(uint256 _issueId)... */\n    tag_74:\n        /* \"12_ERC-20 Tokens.sol\":3328:3350  SerializedIssue memory */\n      tag_166\n      tag_167\n      jump\t// in\n    tag_166:\n        /* \"12_ERC-20 Tokens.sol\":3366:3386  Issue storage _issue */\n      0x00\n        /* \"12_ERC-20 Tokens.sol\":3389:3395  issues */\n      0x06\n        /* \"12_ERC-20 Tokens.sol\":3396:3404  _issueId */\n      dup4\n        /* \"12_ERC-20 Tokens.sol\":3389:3405  issues[_issueId] */\n      dup2\n      sload\n      dup2\n      lt\n      tag_169\n      jumpi\n      tag_170\n      tag_131\n      jump\t// in\n    tag_170:\n    tag_169:\n      swap1\n      0x00\n      mstore\n      keccak256(0x00, 0x20)\n      swap1\n      0x09\n      mul\n      add\n        /* \"12_ERC-20 Tokens.sol\":3366:3405  Issue storage _issue = issues[_issueId] */\n      swap1\n      pop\n        /* \"12_ERC-20 Tokens.sol\":3434:3867  SerializedIssue({... */\n      mload(0x40)\n      dup1\n      0x0120\n      add\n      0x40\n      mstore\n      dup1\n        /* \"12_ERC-20 Tokens.sol\":3476:3498  _issue.voters.values() */\n      tag_172\n        /* \"12_ERC-20 Tokens.sol\":3476:3482  _issue */\n      dup4\n        /* \"12_ERC-20 Tokens.sol\":3476:3489  _issue.voters */\n      0x00\n      add\n        /* \"12_ERC-20 Tokens.sol\":3476:3496  _issue.voters.values */\n      tag_173\n        /* \"12_ERC-20 Tokens.sol\":3476:3498  _issue.voters.values() */\n      jump\t// in\n    tag_172:\n        /* \"12_ERC-20 Tokens.sol\":3434:3867  SerializedIssue({... */\n      dup2\n      mstore\n      0x20\n      add\n        /* \"12_ERC-20 Tokens.sol\":3527:3533  _issue */\n      dup3\n        /* \"12_ERC-20 Tokens.sol\":3527:3543  _issue.issueDesc */\n      0x02\n      add\n        /* \"12_ERC-20 Tokens.sol\":3434:3867  SerializedIssue({... */\n      dup1\n      sload\n      tag_174\n      swap1\n      tag_91\n      jump\t// in\n    tag_174:\n      dup1\n      0x1f\n      add\n      0x20\n      dup1\n      swap2\n      div\n      mul\n      0x20\n      add\n      mload(0x40)\n      swap1\n      dup2\n      add\n      0x40\n      mstore\n      dup1\n      swap3\n      swap2\n      swap1\n      dup2\n      dup2\n      mstore\n      0x20\n      add\n      dup3\n      dup1\n      sload\n      tag_175\n      swap1\n      tag_91\n      jump\t// in\n    tag_175:\n      dup1\n      iszero\n      tag_176\n      jumpi\n      dup1\n      0x1f\n      lt\n      tag_177\n      jumpi\n      0x0100\n      dup1\n      dup4\n      sload\n      div\n      mul\n      dup4\n      mstore\n      swap2\n      0x20\n      add\n      swap2\n      jump(tag_176)\n    tag_177:\n      dup3\n      add\n      swap2\n      swap1\n      0x00\n      mstore\n      keccak256(0x00, 0x20)\n      swap1\n    tag_178:\n      dup2\n      sload\n      dup2\n      mstore\n      swap1\n      0x01\n      add\n      swap1\n      0x20\n      add\n      dup1\n      dup4\n      gt\n      tag_178\n      jumpi\n      dup3\n      swap1\n      sub\n      0x1f\n      and\n      dup3\n      add\n      swap2\n    tag_176:\n      pop\n      pop\n      pop\n      pop\n      pop\n      dup2\n      mstore\n      0x20\n      add\n        /* \"12_ERC-20 Tokens.sol\":3569:3575  _issue */\n      dup3\n        /* \"12_ERC-20 Tokens.sol\":3569:3582  _issue.quorum */\n      0x03\n      add\n      sload\n        /* \"12_ERC-20 Tokens.sol\":3434:3867  SerializedIssue({... */\n      dup2\n      mstore\n      0x20\n      add\n        /* \"12_ERC-20 Tokens.sol\":3612:3618  _issue */\n      dup3\n        /* \"12_ERC-20 Tokens.sol\":3612:3629  _issue.totalVotes */\n      0x04\n      add\n      sload\n        /* \"12_ERC-20 Tokens.sol\":3434:3867  SerializedIssue({... */\n      dup2\n      mstore\n      0x20\n      add\n        /* \"12_ERC-20 Tokens.sol\":3657:3663  _issue */\n      dup3\n        /* \"12_ERC-20 Tokens.sol\":3657:3672  _issue.votesFor */\n      0x05\n      add\n      sload\n        /* \"12_ERC-20 Tokens.sol\":3434:3867  SerializedIssue({... */\n      dup2\n      mstore\n      0x20\n      add\n        /* \"12_ERC-20 Tokens.sol\":3704:3710  _issue */\n      dup3\n        /* \"12_ERC-20 Tokens.sol\":3704:3723  _issue.votesAgainst */\n      0x06\n      add\n      sload\n        /* \"12_ERC-20 Tokens.sol\":3434:3867  SerializedIssue({... */\n      dup2\n      mstore\n      0x20\n      add\n        /* \"12_ERC-20 Tokens.sol\":3755:3761  _issue */\n      dup3\n        /* \"12_ERC-20 Tokens.sol\":3755:3774  _issue.votesAbstain */\n      0x07\n      add\n      sload\n        /* \"12_ERC-20 Tokens.sol\":3434:3867  SerializedIssue({... */\n      dup2\n      mstore\n      0x20\n      add\n        /* \"12_ERC-20 Tokens.sol\":3800:3806  _issue */\n      dup3\n        /* \"12_ERC-20 Tokens.sol\":3800:3813  _issue.passed */\n      0x08\n      add\n      0x00\n      swap1\n      sload\n      swap1\n      0x0100\n      exp\n      swap1\n      div\n      0xff\n      and\n        /* \"12_ERC-20 Tokens.sol\":3434:3867  SerializedIssue({... */\n      iszero\n      iszero\n      dup2\n      mstore\n      0x20\n      add\n        /* \"12_ERC-20 Tokens.sol\":3839:3845  _issue */\n      dup3\n        /* \"12_ERC-20 Tokens.sol\":3839:3852  _issue.closed */\n      0x08\n      add\n      0x01\n      swap1\n      sload\n      swap1\n      0x0100\n      exp\n      swap1\n      div\n      0xff\n      and\n        /* \"12_ERC-20 Tokens.sol\":3434:3867  SerializedIssue({... */\n      iszero\n      iszero\n      dup2\n      mstore\n      pop\n        /* \"12_ERC-20 Tokens.sol\":3415:3867  return... */\n      swap2\n      pop\n      pop\n        /* \"12_ERC-20 Tokens.sol\":3245:3874  function getIssue(uint256 _issueId)... */\n      swap2\n      swap1\n      pop\n      jump\t// out\n        /* \"@openzeppelin/contracts/token/ERC20/ERC20.sol\":3610:3788  function transfer(address to, uint256 value) public virtual returns (bool) {... */\n    tag_79:\n        /* \"@openzeppelin/contracts/token/ERC20/ERC20.sol\":3679:3683  bool */\n      0x00\n        /* \"@openzeppelin/contracts/token/ERC20/ERC20.sol\":3695:3708  address owner */\n      dup1\n        /* \"@openzeppelin/contracts/token/ERC20/ERC20.sol\":3711:3723  _msgSender() */\n      tag_180\n        /* \"@openzeppelin/contracts/token/ERC20/ERC20.sol\":3711:3721  _msgSender */\n      tag_98\n        /* \"@openzeppelin/contracts/token/ERC20/ERC20.sol\":3711:3723  _msgSender() */\n      jump\t// in\n    tag_180:\n        /* \"@openzeppelin/contracts/token/ERC20/ERC20.sol\":3695:3723  address owner = _msgSender() */\n      swap1\n      pop\n        /* \"@openzeppelin/contracts/token/ERC20/ERC20.sol\":3733:3760  _transfer(owner, to, value) */\n      tag_181\n        /* \"@openzeppelin/contracts/token/ERC20/ERC20.sol\":3743:3748  owner */\n      dup2\n        /* \"@openzeppelin/contracts/token/ERC20/ERC20.sol\":3750:3752  to */\n      dup6\n        /* \"@openzeppelin/contracts/token/ERC20/ERC20.sol\":3754:3759  value */\n      dup6\n        /* \"@openzeppelin/contracts/token/ERC20/ERC20.sol\":3733:3742  _transfer */\n      tag_107\n        /* \"@openzeppelin/contracts/token/ERC20/ERC20.sol\":3733:3760  _transfer(owner, to, value) */\n      jump\t// in\n    tag_181:\n        /* \"@openzeppelin/contracts/token/ERC20/ERC20.sol\":3777:3781  true */\n      0x01\n        /* \"@openzeppelin/contracts/token/ERC20/ERC20.sol\":3770:3781  return true */\n      swap2\n      pop\n      pop\n        /* \"@openzeppelin/contracts/token/ERC20/ERC20.sol\":3610:3788  function transfer(address to, uint256 value) public virtual returns (bool) {... */\n      swap3\n      swap2\n      pop\n      pop\n      jump\t// out\n        /* \"12_ERC-20 Tokens.sol\":1778:1812  uint256 public maxSupply = 1000000 */\n    tag_82:\n      sload(0x08)\n      dup2\n      jump\t// out\n        /* \"@openzeppelin/contracts/token/ERC20/ERC20.sol\":3846:3986  function allowance(address owner, address spender) public view virtual returns (uint256) {... */\n    tag_87:\n        /* \"@openzeppelin/contracts/token/ERC20/ERC20.sol\":3926:3933  uint256 */\n      0x00\n        /* \"@openzeppelin/contracts/token/ERC20/ERC20.sol\":3952:3963  _allowances */\n      0x01\n        /* \"@openzeppelin/contracts/token/ERC20/ERC20.sol\":3952:3970  _allowances[owner] */\n      0x00\n        /* \"@openzeppelin/contracts/token/ERC20/ERC20.sol\":3964:3969  owner */\n      dup5\n        /* \"@openzeppelin/contracts/token/ERC20/ERC20.sol\":3952:3970  _allowances[owner] */\n      0xffffffffffffffffffffffffffffffffffffffff\n      and\n      0xffffffffffffffffffffffffffffffffffffffff\n      and\n      dup2\n      mstore\n      0x20\n      add\n      swap1\n      dup2\n      mstore\n      0x20\n      add\n      0x00\n      keccak256\n        /* \"@openzeppelin/contracts/token/ERC20/ERC20.sol\":3952:3979  _allowances[owner][spender] */\n      0x00\n        /* \"@openzeppelin/contracts/token/ERC20/ERC20.sol\":3971:3978  spender */\n      dup4\n        /* \"@openzeppelin/contracts/token/ERC20/ERC20.sol\":3952:3979  _allowances[owner][spender] */\n      0xffffffffffffffffffffffffffffffffffffffff\n      and\n      0xffffffffffffffffffffffffffffffffffffffff\n      and\n      dup2\n      mstore\n      0x20\n      add\n      swap1\n      dup2\n      mstore\n      0x20\n      add\n      0x00\n      keccak256\n      sload\n        /* \"@openzeppelin/contracts/token/ERC20/ERC20.sol\":3945:3979  return _allowances[owner][spender] */\n      swap1\n      pop\n        /* \"@openzeppelin/contracts/token/ERC20/ERC20.sol\":3846:3986  function allowance(address owner, address spender) public view virtual returns (uint256) {... */\n      swap3\n      swap2\n      pop\n      pop\n      jump\t// out\n        /* \"@openzeppelin/contracts/utils/Context.sol\":656:752  function _msgSender() internal view virtual returns (address) {... */\n    tag_98:\n        /* \"@openzeppelin/contracts/utils/Context.sol\":709:716  address */\n      0x00\n        /* \"@openzeppelin/contracts/utils/Context.sol\":735:745  msg.sender */\n      caller\n        /* \"@openzeppelin/contracts/utils/Context.sol\":728:745  return msg.sender */\n      swap1\n      pop\n        /* \"@openzeppelin/contracts/utils/Context.sol\":656:752  function _msgSender() internal view virtual returns (address) {... */\n      swap1\n      jump\t// out\n        /* \"@openzeppelin/contracts/token/ERC20/ERC20.sol\":8989:9117  function _approve(address owner, address spender, uint256 value) internal {... */\n    tag_100:\n        /* \"@openzeppelin/contracts/token/ERC20/ERC20.sol\":9073:9110  _approve(owner, spender, value, true) */\n      tag_185\n        /* \"@openzeppelin/contracts/token/ERC20/ERC20.sol\":9082:9087  owner */\n      dup4\n        /* \"@openzeppelin/contracts/token/ERC20/ERC20.sol\":9089:9096  spender */\n      dup4\n        /* \"@openzeppelin/contracts/token/ERC20/ERC20.sol\":9098:9103  value */\n      dup4\n        /* \"@openzeppelin/contracts/token/ERC20/ERC20.sol\":9105:9109  true */\n      0x01\n        /* \"@openzeppelin/contracts/token/ERC20/ERC20.sol\":9073:9081  _approve */\n      tag_186\n        /* \"@openzeppelin/contracts/token/ERC20/ERC20.sol\":9073:9110  _approve(owner, spender, value, true) */\n      jump\t// in\n    tag_185:\n        /* \"@openzeppelin/contracts/token/ERC20/ERC20.sol\":8989:9117  function _approve(address owner, address spender, uint256 value) internal {... */\n      pop\n      pop\n      pop\n      jump\t// out\n        /* \"@openzeppelin/contracts/token/ERC20/ERC20.sol\":10663:11140  function _spendAllowance(address owner, address spender, uint256 value) internal virtual {... */\n    tag_105:\n        /* \"@openzeppelin/contracts/token/ERC20/ERC20.sol\":10762:10786  uint256 currentAllowance */\n      0x00\n        /* \"@openzeppelin/contracts/token/ERC20/ERC20.sol\":10789:10814  allowance(owner, spender) */\n      tag_188\n        /* \"@openzeppelin/contracts/token/ERC20/ERC20.sol\":10799:10804  owner */\n      dup5\n        /* \"@openzeppelin/contracts/token/ERC20/ERC20.sol\":10806:10813  spender */\n      dup5\n        /* \"@openzeppelin/contracts/token/ERC20/ERC20.sol\":10789:10798  allowance */\n      tag_87\n        /* \"@openzeppelin/contracts/token/ERC20/ERC20.sol\":10789:10814  allowance(owner, spender) */\n      jump\t// in\n    tag_188:\n        /* \"@openzeppelin/contracts/token/ERC20/ERC20.sol\":10762:10814  uint256 currentAllowance = allowance(owner, spender) */\n      swap1\n      pop\n        /* \"@openzeppelin/contracts/token/ERC20/ERC20.sol\":10848:10865  type(uint256).max */\n      0xffffffffffffffffffffffffffffffffffffffffffffffffffffffffffffffff\n        /* \"@openzeppelin/contracts/token/ERC20/ERC20.sol\":10828:10844  currentAllowance */\n      dup2\n        /* \"@openzeppelin/contracts/token/ERC20/ERC20.sol\":10828:10865  currentAllowance != type(uint256).max */\n      eq\n        /* \"@openzeppelin/contracts/token/ERC20/ERC20.sol\":10824:11134  if (currentAllowance != type(uint256).max) {... */\n      tag_189\n      jumpi\n        /* \"@openzeppelin/contracts/token/ERC20/ERC20.sol\":10904:10909  value */\n      dup2\n        /* \"@openzeppelin/contracts/token/ERC20/ERC20.sol\":10885:10901  currentAllowance */\n      dup2\n        /* \"@openzeppelin/contracts/token/ERC20/ERC20.sol\":10885:10909  currentAllowance < value */\n      lt\n        /* \"@openzeppelin/contracts/token/ERC20/ERC20.sol\":10881:11011  if (currentAllowance < value) {... */\n      iszero\n      tag_190\n      jumpi\n        /* \"@openzeppelin/contracts/token/ERC20/ERC20.sol\":10963:10970  spender */\n      dup3\n        /* \"@openzeppelin/contracts/token/ERC20/ERC20.sol\":10972:10988  currentAllowance */\n      dup2\n        /* \"@openzeppelin/contracts/token/ERC20/ERC20.sol\":10990:10995  value */\n      dup4\n        /* \"@openzeppelin/contracts/token/ERC20/ERC20.sol\":10936:10996  ERC20InsufficientAllowance(spender, currentAllowance, value) */\n      mload(0x40)\n      0xfb8f41b200000000000000000000000000000000000000000000000000000000\n      dup2\n      mstore\n      0x04\n      add\n      tag_191\n      swap4\n      swap3\n      swap2\n      swap1\n      tag_192\n      jump\t// in\n    tag_191:\n      mload(0x40)\n      dup1\n      swap2\n      sub\n      swap1\n      revert\n        /* \"@openzeppelin/contracts/token/ERC20/ERC20.sol\":10881:11011  if (currentAllowance < value) {... */\n    tag_190:\n        /* \"@openzeppelin/contracts/token/ERC20/ERC20.sol\":11052:11109  _approve(owner, spender, currentAllowance - value, false) */\n      tag_193\n        /* \"@openzeppelin/contracts/token/ERC20/ERC20.sol\":11061:11066  owner */\n      dup5\n        /* \"@openzeppelin/contracts/token/ERC20/ERC20.sol\":11068:11075  spender */\n      dup5\n        /* \"@openzeppelin/contracts/token/ERC20/ERC20.sol\":11096:11101  value */\n      dup5\n        /* \"@openzeppelin/contracts/token/ERC20/ERC20.sol\":11077:11093  currentAllowance */\n      dup5\n        /* \"@openzeppelin/contracts/token/ERC20/ERC20.sol\":11077:11101  currentAllowance - value */\n      sub\n        /* \"@openzeppelin/contracts/token/ERC20/ERC20.sol\":11103:11108  false */\n      0x00\n        /* \"@openzeppelin/contracts/token/ERC20/ERC20.sol\":11052:11060  _approve */\n      tag_186\n        /* \"@openzeppelin/contracts/token/ERC20/ERC20.sol\":11052:11109  _approve(owner, spender, currentAllowance - value, false) */\n      jump\t// in\n    tag_193:\n        /* \"@openzeppelin/contracts/token/ERC20/ERC20.sol\":10824:11134  if (currentAllowance != type(uint256).max) {... */\n    tag_189:\n        /* \"@openzeppelin/contracts/token/ERC20/ERC20.sol\":10752:11140  {... */\n      pop\n        /* \"@openzeppelin/contracts/token/ERC20/ERC20.sol\":10663:11140  function _spendAllowance(address owner, address spender, uint256 value) internal virtual {... */\n      pop\n      pop\n      pop\n      jump\t// out\n        /* \"@openzeppelin/contracts/token/ERC20/ERC20.sol\":5656:5956  function _transfer(address from, address to, uint256 value) internal {... */\n    tag_107:\n        /* \"@openzeppelin/contracts/token/ERC20/ERC20.sol\":5755:5756  0 */\n      0x00\n        /* \"@openzeppelin/contracts/token/ERC20/ERC20.sol\":5739:5757  from == address(0) */\n      0xffffffffffffffffffffffffffffffffffffffff\n      and\n        /* \"@openzeppelin/contracts/token/ERC20/ERC20.sol\":5739:5743  from */\n      dup4\n        /* \"@openzeppelin/contracts/token/ERC20/ERC20.sol\":5739:5757  from == address(0) */\n      0xffffffffffffffffffffffffffffffffffffffff\n      and\n      sub\n        /* \"@openzeppelin/contracts/token/ERC20/ERC20.sol\":5735:5821  if (from == address(0)) {... */\n      tag_195\n      jumpi\n        /* \"@openzeppelin/contracts/token/ERC20/ERC20.sol\":5807:5808  0 */\n      0x00\n        /* \"@openzeppelin/contracts/token/ERC20/ERC20.sol\":5780:5810  ERC20InvalidSender(address(0)) */\n      mload(0x40)\n      0x96c6fd1e00000000000000000000000000000000000000000000000000000000\n      dup2\n      mstore\n      0x04\n      add\n      tag_196\n      swap2\n      swap1\n      tag_197\n      jump\t// in\n    tag_196:\n      mload(0x40)\n      dup1\n      swap2\n      sub\n      swap1\n      revert\n        /* \"@openzeppelin/contracts/token/ERC20/ERC20.sol\":5735:5821  if (from == address(0)) {... */\n    tag_195:\n        /* \"@openzeppelin/contracts/token/ERC20/ERC20.sol\":5848:5849  0 */\n      0x00\n        /* \"@openzeppelin/contracts/token/ERC20/ERC20.sol\":5834:5850  to == address(0) */\n      0xffffffffffffffffffffffffffffffffffffffff\n      and\n        /* \"@openzeppelin/contracts/token/ERC20/ERC20.sol\":5834:5836  to */\n      dup3\n        /* \"@openzeppelin/contracts/token/ERC20/ERC20.sol\":5834:5850  to == address(0) */\n      0xffffffffffffffffffffffffffffffffffffffff\n      and\n      sub\n        /* \"@openzeppelin/contracts/token/ERC20/ERC20.sol\":5830:5916  if (to == address(0)) {... */\n      tag_198\n      jumpi\n        /* \"@openzeppelin/contracts/token/ERC20/ERC20.sol\":5902:5903  0 */\n      0x00\n        /* \"@openzeppelin/contracts/token/ERC20/ERC20.sol\":5873:5905  ERC20InvalidReceiver(address(0)) */\n      mload(0x40)\n      0xec442f0500000000000000000000000000000000000000000000000000000000\n      dup2\n      mstore\n      0x04\n      add\n      tag_199\n      swap2\n      swap1\n      tag_197\n      jump\t// in\n    tag_199:\n      mload(0x40)\n      dup1\n      swap2\n      sub\n      swap1\n      revert\n        /* \"@openzeppelin/contracts/token/ERC20/ERC20.sol\":5830:5916  if (to == address(0)) {... */\n    tag_198:\n        /* \"@openzeppelin/contracts/token/ERC20/ERC20.sol\":5925:5949  _update(from, to, value) */\n      tag_200\n        /* \"@openzeppelin/contracts/token/ERC20/ERC20.sol\":5933:5937  from */\n      dup4\n        /* \"@openzeppelin/contracts/token/ERC20/ERC20.sol\":5939:5941  to */\n      dup4\n        /* \"@openzeppelin/contracts/token/ERC20/ERC20.sol\":5943:5948  value */\n      dup4\n        /* \"@openzeppelin/contracts/token/ERC20/ERC20.sol\":5925:5932  _update */\n      tag_201\n        /* \"@openzeppelin/contracts/token/ERC20/ERC20.sol\":5925:5949  _update(from, to, value) */\n      jump\t// in\n    tag_200:\n        /* \"@openzeppelin/contracts/token/ERC20/ERC20.sol\":5656:5956  function _transfer(address from, address to, uint256 value) internal {... */\n      pop\n      pop\n      pop\n      jump\t// out\n        /* \"@openzeppelin/contracts/token/ERC20/ERC20.sol\":7721:7929  function _mint(address account, uint256 value) internal {... */\n    tag_116:\n        /* \"@openzeppelin/contracts/token/ERC20/ERC20.sol\":7810:7811  0 */\n      0x00\n        /* \"@openzeppelin/contracts/token/ERC20/ERC20.sol\":7791:7812  account == address(0) */\n      0xffffffffffffffffffffffffffffffffffffffff\n      and\n        /* \"@openzeppelin/contracts/token/ERC20/ERC20.sol\":7791:7798  account */\n      dup3\n        /* \"@openzeppelin/contracts/token/ERC20/ERC20.sol\":7791:7812  account == address(0) */\n      0xffffffffffffffffffffffffffffffffffffffff\n      and\n      sub\n        /* \"@openzeppelin/contracts/token/ERC20/ERC20.sol\":7787:7878  if (account == address(0)) {... */\n      tag_203\n      jumpi\n        /* \"@openzeppelin/contracts/token/ERC20/ERC20.sol\":7864:7865  0 */\n      0x00\n        /* \"@openzeppelin/contracts/token/ERC20/ERC20.sol\":7835:7867  ERC20InvalidReceiver(address(0)) */\n      mload(0x40)\n      0xec442f0500000000000000000000000000000000000000000000000000000000\n      dup2\n      mstore\n      0x04\n      add\n      tag_204\n      swap2\n      swap1\n      tag_197\n      jump\t// in\n    tag_204:\n      mload(0x40)\n      dup1\n      swap2\n      sub\n      swap1\n      revert\n        /* \"@openzeppelin/contracts/token/ERC20/ERC20.sol\":7787:7878  if (account == address(0)) {... */\n    tag_203:\n        /* \"@openzeppelin/contracts/token/ERC20/ERC20.sol\":7887:7922  _update(address(0), account, value) */\n      tag_205\n        /* \"@openzeppelin/contracts/token/ERC20/ERC20.sol\":7903:7904  0 */\n      0x00\n        /* \"@openzeppelin/contracts/token/ERC20/ERC20.sol\":7907:7914  account */\n      dup4\n        /* \"@openzeppelin/contracts/token/ERC20/ERC20.sol\":7916:7921  value */\n      dup4\n        /* \"@openzeppelin/contracts/token/ERC20/ERC20.sol\":7887:7894  _update */\n      tag_201\n        /* \"@openzeppelin/contracts/token/ERC20/ERC20.sol\":7887:7922  _update(address(0), account, value) */\n      jump\t// in\n    tag_205:\n        /* \"@openzeppelin/contracts/token/ERC20/ERC20.sol\":7721:7929  function _mint(address account, uint256 value) internal {... */\n      pop\n      pop\n      jump\t// out\n        /* \"@openzeppelin/contracts/utils/structs/EnumerableSet.sol\":8871:9036  function contains(AddressSet storage set, address value) internal view returns (bool) {... */\n    tag_135:\n        /* \"@openzeppelin/contracts/utils/structs/EnumerableSet.sol\":8951:8955  bool */\n      0x00\n        /* \"@openzeppelin/contracts/utils/structs/EnumerableSet.sol\":8974:9029  _contains(set._inner, bytes32(uint256(uint160(value)))) */\n      tag_207\n        /* \"@openzeppelin/contracts/utils/structs/EnumerableSet.sol\":8984:8987  set */\n      dup4\n        /* \"@openzeppelin/contracts/utils/structs/EnumerableSet.sol\":8984:8994  set._inner */\n      0x00\n      add\n        /* \"@openzeppelin/contracts/utils/structs/EnumerableSet.sol\":9020:9025  value */\n      dup4\n        /* \"@openzeppelin/contracts/utils/structs/EnumerableSet.sol\":9004:9027  uint256(uint160(value)) */\n      0xffffffffffffffffffffffffffffffffffffffff\n      and\n        /* \"@openzeppelin/contracts/utils/structs/EnumerableSet.sol\":8996:9028  bytes32(uint256(uint160(value))) */\n      0x00\n      shl\n        /* \"@openzeppelin/contracts/utils/structs/EnumerableSet.sol\":8974:8983  _contains */\n      tag_208\n        /* \"@openzeppelin/contracts/utils/structs/EnumerableSet.sol\":8974:9029  _contains(set._inner, bytes32(uint256(uint160(value)))) */\n      jump\t// in\n    tag_207:\n        /* \"@openzeppelin/contracts/utils/structs/EnumerableSet.sol\":8967:9029  return _contains(set._inner, bytes32(uint256(uint160(value)))) */\n      swap1\n      pop\n        /* \"@openzeppelin/contracts/utils/structs/EnumerableSet.sol\":8871:9036  function contains(AddressSet storage set, address value) internal view returns (bool) {... */\n      swap3\n      swap2\n      pop\n      pop\n      jump\t// out\n        /* \"@openzeppelin/contracts/utils/structs/EnumerableSet.sol\":8316:8466  function add(AddressSet storage set, address value) internal returns (bool) {... */\n    tag_156:\n        /* \"@openzeppelin/contracts/utils/structs/EnumerableSet.sol\":8386:8390  bool */\n      0x00\n        /* \"@openzeppelin/contracts/utils/structs/EnumerableSet.sol\":8409:8459  _add(set._inner, bytes32(uint256(uint160(value)))) */\n      tag_210\n        /* \"@openzeppelin/contracts/utils/structs/EnumerableSet.sol\":8414:8417  set */\n      dup4\n        /* \"@openzeppelin/contracts/utils/structs/EnumerableSet.sol\":8414:8424  set._inner */\n      0x00\n      add\n        /* \"@openzeppelin/contracts/utils/structs/EnumerableSet.sol\":8450:8455  value */\n      dup4\n        /* \"@openzeppelin/contracts/utils/structs/EnumerableSet.sol\":8434:8457  uint256(uint160(value)) */\n      0xffffffffffffffffffffffffffffffffffffffff\n      and\n        /* \"@openzeppelin/contracts/utils/structs/EnumerableSet.sol\":8426:8458  bytes32(uint256(uint160(value))) */\n      0x00\n      shl\n        /* \"@openzeppelin/contracts/utils/structs/EnumerableSet.sol\":8409:8413  _add */\n      tag_211\n        /* \"@openzeppelin/contracts/utils/structs/EnumerableSet.sol\":8409:8459  _add(set._inner, bytes32(uint256(uint160(value)))) */\n      jump\t// in\n    tag_210:\n        /* \"@openzeppelin/contracts/utils/structs/EnumerableSet.sol\":8402:8459  return _add(set._inner, bytes32(uint256(uint160(value)))) */\n      swap1\n      pop\n        /* \"@openzeppelin/contracts/utils/structs/EnumerableSet.sol\":8316:8466  function add(AddressSet storage set, address value) internal returns (bool) {... */\n      swap3\n      swap2\n      pop\n      pop\n      jump\t// out\n        /* \"@openzeppelin/contracts/utils/structs/EnumerableSet.sol\":10270:10570  function values(AddressSet storage set) internal view returns (address[] memory) {... */\n    tag_173:\n        /* \"@openzeppelin/contracts/utils/structs/EnumerableSet.sol\":10333:10349  address[] memory */\n      0x60\n        /* \"@openzeppelin/contracts/utils/structs/EnumerableSet.sol\":10361:10383  bytes32[] memory store */\n      0x00\n        /* \"@openzeppelin/contracts/utils/structs/EnumerableSet.sol\":10386:10405  _values(set._inner) */\n      tag_213\n        /* \"@openzeppelin/contracts/utils/structs/EnumerableSet.sol\":10394:10397  set */\n      dup4\n        /* \"@openzeppelin/contracts/utils/structs/EnumerableSet.sol\":10394:10404  set._inner */\n      0x00\n      add\n        /* \"@openzeppelin/contracts/utils/structs/EnumerableSet.sol\":10386:10393  _values */\n      tag_214\n        /* \"@openzeppelin/contracts/utils/structs/EnumerableSet.sol\":10386:10405  _values(set._inner) */\n      jump\t// in\n    tag_213:\n        /* \"@openzeppelin/contracts/utils/structs/EnumerableSet.sol\":10361:10405  bytes32[] memory store = _values(set._inner) */\n      swap1\n      pop\n        /* \"@openzeppelin/contracts/utils/structs/EnumerableSet.sol\":10415:10438  address[] memory result */\n      0x60\n        /* \"@openzeppelin/contracts/utils/structs/EnumerableSet.sol\":10525:10530  store */\n      dup2\n        /* \"@openzeppelin/contracts/utils/structs/EnumerableSet.sol\":10515:10530  result := store */\n      swap1\n      pop\n        /* \"@openzeppelin/contracts/utils/structs/EnumerableSet.sol\":10557:10563  result */\n      dup1\n        /* \"@openzeppelin/contracts/utils/structs/EnumerableSet.sol\":10550:10563  return result */\n      swap3\n      pop\n      pop\n      pop\n        /* \"@openzeppelin/contracts/utils/structs/EnumerableSet.sol\":10270:10570  function values(AddressSet storage set) internal view returns (address[] memory) {... */\n      swap2\n      swap1\n      pop\n      jump\t// out\n        /* \"@openzeppelin/contracts/token/ERC20/ERC20.sol\":9949:10381  function _approve(address owner, address spender, uint256 value, bool emitEvent) internal virtual {... */\n    tag_186:\n        /* \"@openzeppelin/contracts/token/ERC20/ERC20.sol\":10078:10079  0 */\n      0x00\n        /* \"@openzeppelin/contracts/token/ERC20/ERC20.sol\":10061:10080  owner == address(0) */\n      0xffffffffffffffffffffffffffffffffffffffff\n      and\n        /* \"@openzeppelin/contracts/token/ERC20/ERC20.sol\":10061:10066  owner */\n      dup5\n        /* \"@openzeppelin/contracts/token/ERC20/ERC20.sol\":10061:10080  owner == address(0) */\n      0xffffffffffffffffffffffffffffffffffffffff\n      and\n      sub\n        /* \"@openzeppelin/contracts/token/ERC20/ERC20.sol\":10057:10146  if (owner == address(0)) {... */\n      tag_216\n      jumpi\n        /* \"@openzeppelin/contracts/token/ERC20/ERC20.sol\":10132:10133  0 */\n      0x00\n        /* \"@openzeppelin/contracts/token/ERC20/ERC20.sol\":10103:10135  ERC20InvalidApprover(address(0)) */\n      mload(0x40)\n      0xe602df0500000000000000000000000000000000000000000000000000000000\n      dup2\n      mstore\n      0x04\n      add\n      tag_217\n      swap2\n      swap1\n      tag_197\n      jump\t// in\n    tag_217:\n      mload(0x40)\n      dup1\n      swap2\n      sub\n      swap1\n      revert\n        /* \"@openzeppelin/contracts/token/ERC20/ERC20.sol\":10057:10146  if (owner == address(0)) {... */\n    tag_216:\n        /* \"@openzeppelin/contracts/token/ERC20/ERC20.sol\":10178:10179  0 */\n      0x00\n        /* \"@openzeppelin/contracts/token/ERC20/ERC20.sol\":10159:10180  spender == address(0) */\n      0xffffffffffffffffffffffffffffffffffffffff\n      and\n        /* \"@openzeppelin/contracts/token/ERC20/ERC20.sol\":10159:10166  spender */\n      dup4\n        /* \"@openzeppelin/contracts/token/ERC20/ERC20.sol\":10159:10180  spender == address(0) */\n      0xffffffffffffffffffffffffffffffffffffffff\n      and\n      sub\n        /* \"@openzeppelin/contracts/token/ERC20/ERC20.sol\":10155:10245  if (spender == address(0)) {... */\n      tag_218\n      jumpi\n        /* \"@openzeppelin/contracts/token/ERC20/ERC20.sol\":10231:10232  0 */\n      0x00\n        /* \"@openzeppelin/contracts/token/ERC20/ERC20.sol\":10203:10234  ERC20InvalidSpender(address(0)) */\n      mload(0x40)\n      0x94280d6200000000000000000000000000000000000000000000000000000000\n      dup2\n      mstore\n      0x04\n      add\n      tag_219\n      swap2\n      swap1\n      tag_197\n      jump\t// in\n    tag_219:\n      mload(0x40)\n      dup1\n      swap2\n      sub\n      swap1\n      revert\n        /* \"@openzeppelin/contracts/token/ERC20/ERC20.sol\":10155:10245  if (spender == address(0)) {... */\n    tag_218:\n        /* \"@openzeppelin/contracts/token/ERC20/ERC20.sol\":10284:10289  value */\n      dup2\n        /* \"@openzeppelin/contracts/token/ERC20/ERC20.sol\":10254:10265  _allowances */\n      0x01\n        /* \"@openzeppelin/contracts/token/ERC20/ERC20.sol\":10254:10272  _allowances[owner] */\n      0x00\n        /* \"@openzeppelin/contracts/token/ERC20/ERC20.sol\":10266:10271  owner */\n      dup7\n        /* \"@openzeppelin/contracts/token/ERC20/ERC20.sol\":10254:10272  _allowances[owner] */\n      0xffffffffffffffffffffffffffffffffffffffff\n      and\n      0xffffffffffffffffffffffffffffffffffffffff\n      and\n      dup2\n      mstore\n      0x20\n      add\n      swap1\n      dup2\n      mstore\n      0x20\n      add\n      0x00\n      keccak256\n        /* \"@openzeppelin/contracts/token/ERC20/ERC20.sol\":10254:10281  _allowances[owner][spender] */\n      0x00\n        /* \"@openzeppelin/contracts/token/ERC20/ERC20.sol\":10273:10280  spender */\n      dup6\n        /* \"@openzeppelin/contracts/token/ERC20/ERC20.sol\":10254:10281  _allowances[owner][spender] */\n      0xffffffffffffffffffffffffffffffffffffffff\n      and\n      0xffffffffffffffffffffffffffffffffffffffff\n      and\n      dup2\n      mstore\n      0x20\n      add\n      swap1\n      dup2\n      mstore\n      0x20\n      add\n      0x00\n      keccak256\n        /* \"@openzeppelin/contracts/token/ERC20/ERC20.sol\":10254:10289  _allowances[owner][spender] = value */\n      dup2\n      swap1\n      sstore\n      pop\n        /* \"@openzeppelin/contracts/token/ERC20/ERC20.sol\":10303:10312  emitEvent */\n      dup1\n        /* \"@openzeppelin/contracts/token/ERC20/ERC20.sol\":10299:10375  if (emitEvent) {... */\n      iszero\n      tag_220\n      jumpi\n        /* \"@openzeppelin/contracts/token/ERC20/ERC20.sol\":10349:10356  spender */\n      dup3\n        /* \"@openzeppelin/contracts/token/ERC20/ERC20.sol\":10333:10364  Approval(owner, spender, value) */\n      0xffffffffffffffffffffffffffffffffffffffff\n      and\n        /* \"@openzeppelin/contracts/token/ERC20/ERC20.sol\":10342:10347  owner */\n      dup5\n        /* \"@openzeppelin/contracts/token/ERC20/ERC20.sol\":10333:10364  Approval(owner, spender, value) */\n      0xffffffffffffffffffffffffffffffffffffffff\n      and\n      0x8c5be1e5ebec7d5bd14f71427d1e84f3dd0314c0f7b2291e5b200ac8c7c3b925\n        /* \"@openzeppelin/contracts/token/ERC20/ERC20.sol\":10358:10363  value */\n      dup5\n        /* \"@openzeppelin/contracts/token/ERC20/ERC20.sol\":10333:10364  Approval(owner, spender, value) */\n      mload(0x40)\n      tag_221\n      swap2\n      swap1\n      tag_35\n      jump\t// in\n    tag_221:\n      mload(0x40)\n      dup1\n      swap2\n      sub\n      swap1\n      log3\n        /* \"@openzeppelin/contracts/token/ERC20/ERC20.sol\":10299:10375  if (emitEvent) {... */\n    tag_220:\n        /* \"@openzeppelin/contracts/token/ERC20/ERC20.sol\":9949:10381  function _approve(address owner, address spender, uint256 value, bool emitEvent) internal virtual {... */\n      pop\n      pop\n      pop\n      pop\n      jump\t// out\n        /* \"@openzeppelin/contracts/token/ERC20/ERC20.sol\":6271:7378  function _update(address from, address to, uint256 value) internal virtual {... */\n    tag_201:\n        /* \"@openzeppelin/contracts/token/ERC20/ERC20.sol\":6376:6377  0 */\n      0x00\n        /* \"@openzeppelin/contracts/token/ERC20/ERC20.sol\":6360:6378  from == address(0) */\n      0xffffffffffffffffffffffffffffffffffffffff\n      and\n        /* \"@openzeppelin/contracts/token/ERC20/ERC20.sol\":6360:6364  from */\n      dup4\n        /* \"@openzeppelin/contracts/token/ERC20/ERC20.sol\":6360:6378  from == address(0) */\n      0xffffffffffffffffffffffffffffffffffffffff\n      and\n      sub\n        /* \"@openzeppelin/contracts/token/ERC20/ERC20.sol\":6356:6896  if (from == address(0)) {... */\n      tag_223\n      jumpi\n        /* \"@openzeppelin/contracts/token/ERC20/ERC20.sol\":6512:6517  value */\n      dup1\n        /* \"@openzeppelin/contracts/token/ERC20/ERC20.sol\":6496:6508  _totalSupply */\n      0x02\n      0x00\n        /* \"@openzeppelin/contracts/token/ERC20/ERC20.sol\":6496:6517  _totalSupply += value */\n      dup3\n      dup3\n      sload\n      tag_224\n      swap2\n      swap1\n      tag_112\n      jump\t// in\n    tag_224:\n      swap3\n      pop\n      pop\n      dup2\n      swap1\n      sstore\n      pop\n        /* \"@openzeppelin/contracts/token/ERC20/ERC20.sol\":6356:6896  if (from == address(0)) {... */\n      jump(tag_225)\n    tag_223:\n        /* \"@openzeppelin/contracts/token/ERC20/ERC20.sol\":6548:6567  uint256 fromBalance */\n      0x00\n        /* \"@openzeppelin/contracts/token/ERC20/ERC20.sol\":6570:6579  _balances */\n      dup1\n        /* \"@openzeppelin/contracts/token/ERC20/ERC20.sol\":6570:6585  _balances[from] */\n      0x00\n        /* \"@openzeppelin/contracts/token/ERC20/ERC20.sol\":6580:6584  from */\n      dup6\n        /* \"@openzeppelin/contracts/token/ERC20/ERC20.sol\":6570:6585  _balances[from] */\n      0xffffffffffffffffffffffffffffffffffffffff\n      and\n      0xffffffffffffffffffffffffffffffffffffffff\n      and\n      dup2\n      mstore\n      0x20\n      add\n      swap1\n      dup2\n      mstore\n      0x20\n      add\n      0x00\n      keccak256\n      sload\n        /* \"@openzeppelin/contracts/token/ERC20/ERC20.sol\":6548:6585  uint256 fromBalance = _balances[from] */\n      swap1\n      pop\n        /* \"@openzeppelin/contracts/token/ERC20/ERC20.sol\":6617:6622  value */\n      dup2\n        /* \"@openzeppelin/contracts/token/ERC20/ERC20.sol\":6603:6614  fromBalance */\n      dup2\n        /* \"@openzeppelin/contracts/token/ERC20/ERC20.sol\":6603:6622  fromBalance < value */\n      lt\n        /* \"@openzeppelin/contracts/token/ERC20/ERC20.sol\":6599:6714  if (fromBalance < value) {... */\n      iszero\n      tag_226\n      jumpi\n        /* \"@openzeppelin/contracts/token/ERC20/ERC20.sol\":6674:6678  from */\n      dup4\n        /* \"@openzeppelin/contracts/token/ERC20/ERC20.sol\":6680:6691  fromBalance */\n      dup2\n        /* \"@openzeppelin/contracts/token/ERC20/ERC20.sol\":6693:6698  value */\n      dup4\n        /* \"@openzeppelin/contracts/token/ERC20/ERC20.sol\":6649:6699  ERC20InsufficientBalance(from, fromBalance, value) */\n      mload(0x40)\n      0xe450d38c00000000000000000000000000000000000000000000000000000000\n      dup2\n      mstore\n      0x04\n      add\n      tag_227\n      swap4\n      swap3\n      swap2\n      swap1\n      tag_192\n      jump\t// in\n    tag_227:\n      mload(0x40)\n      dup1\n      swap2\n      sub\n      swap1\n      revert\n        /* \"@openzeppelin/contracts/token/ERC20/ERC20.sol\":6599:6714  if (fromBalance < value) {... */\n    tag_226:\n        /* \"@openzeppelin/contracts/token/ERC20/ERC20.sol\":6866:6871  value */\n      dup2\n        /* \"@openzeppelin/contracts/token/ERC20/ERC20.sol\":6852:6863  fromBalance */\n      dup2\n        /* \"@openzeppelin/contracts/token/ERC20/ERC20.sol\":6852:6871  fromBalance - value */\n      sub\n        /* \"@openzeppelin/contracts/token/ERC20/ERC20.sol\":6834:6843  _balances */\n      0x00\n        /* \"@openzeppelin/contracts/token/ERC20/ERC20.sol\":6834:6849  _balances[from] */\n      dup1\n        /* \"@openzeppelin/contracts/token/ERC20/ERC20.sol\":6844:6848  from */\n      dup7\n        /* \"@openzeppelin/contracts/token/ERC20/ERC20.sol\":6834:6849  _balances[from] */\n      0xffffffffffffffffffffffffffffffffffffffff\n      and\n      0xffffffffffffffffffffffffffffffffffffffff\n      and\n      dup2\n      mstore\n      0x20\n      add\n      swap1\n      dup2\n      mstore\n      0x20\n      add\n      0x00\n      keccak256\n        /* \"@openzeppelin/contracts/token/ERC20/ERC20.sol\":6834:6871  _balances[from] = fromBalance - value */\n      dup2\n      swap1\n      sstore\n      pop\n        /* \"@openzeppelin/contracts/token/ERC20/ERC20.sol\":6534:6896  {... */\n      pop\n        /* \"@openzeppelin/contracts/token/ERC20/ERC20.sol\":6356:6896  if (from == address(0)) {... */\n    tag_225:\n        /* \"@openzeppelin/contracts/token/ERC20/ERC20.sol\":6924:6925  0 */\n      0x00\n        /* \"@openzeppelin/contracts/token/ERC20/ERC20.sol\":6910:6926  to == address(0) */\n      0xffffffffffffffffffffffffffffffffffffffff\n      and\n        /* \"@openzeppelin/contracts/token/ERC20/ERC20.sol\":6910:6912  to */\n      dup3\n        /* \"@openzeppelin/contracts/token/ERC20/ERC20.sol\":6910:6926  to == address(0) */\n      0xffffffffffffffffffffffffffffffffffffffff\n      and\n      sub\n        /* \"@openzeppelin/contracts/token/ERC20/ERC20.sol\":6906:7331  if (to == address(0)) {... */\n      tag_228\n      jumpi\n        /* \"@openzeppelin/contracts/token/ERC20/ERC20.sol\":7089:7094  value */\n      dup1\n        /* \"@openzeppelin/contracts/token/ERC20/ERC20.sol\":7073:7085  _totalSupply */\n      0x02\n      0x00\n        /* \"@openzeppelin/contracts/token/ERC20/ERC20.sol\":7073:7094  _totalSupply -= value */\n      dup3\n      dup3\n      sload\n      sub\n      swap3\n      pop\n      pop\n      dup2\n      swap1\n      sstore\n      pop\n        /* \"@openzeppelin/contracts/token/ERC20/ERC20.sol\":6906:7331  if (to == address(0)) {... */\n      jump(tag_229)\n    tag_228:\n        /* \"@openzeppelin/contracts/token/ERC20/ERC20.sol\":7301:7306  value */\n      dup1\n        /* \"@openzeppelin/contracts/token/ERC20/ERC20.sol\":7284:7293  _balances */\n      0x00\n        /* \"@openzeppelin/contracts/token/ERC20/ERC20.sol\":7284:7297  _balances[to] */\n      dup1\n        /* \"@openzeppelin/contracts/token/ERC20/ERC20.sol\":7294:7296  to */\n      dup5\n        /* \"@openzeppelin/contracts/token/ERC20/ERC20.sol\":7284:7297  _balances[to] */\n      0xffffffffffffffffffffffffffffffffffffffff\n      and\n      0xffffffffffffffffffffffffffffffffffffffff\n      and\n      dup2\n      mstore\n      0x20\n      add\n      swap1\n      dup2\n      mstore\n      0x20\n      add\n      0x00\n      keccak256\n      0x00\n        /* \"@openzeppelin/contracts/token/ERC20/ERC20.sol\":7284:7306  _balances[to] += value */\n      dup3\n      dup3\n      sload\n      add\n      swap3\n      pop\n      pop\n      dup2\n      swap1\n      sstore\n      pop\n        /* \"@openzeppelin/contracts/token/ERC20/ERC20.sol\":6906:7331  if (to == address(0)) {... */\n    tag_229:\n        /* \"@openzeppelin/contracts/token/ERC20/ERC20.sol\":7361:7363  to */\n      dup2\n        /* \"@openzeppelin/contracts/token/ERC20/ERC20.sol\":7346:7371  Transfer(from, to, value) */\n      0xffffffffffffffffffffffffffffffffffffffff\n      and\n        /* \"@openzeppelin/contracts/token/ERC20/ERC20.sol\":7355:7359  from */\n      dup4\n        /* \"@openzeppelin/contracts/token/ERC20/ERC20.sol\":7346:7371  Transfer(from, to, value) */\n      0xffffffffffffffffffffffffffffffffffffffff\n      and\n      0xddf252ad1be2c89b69c2b068fc378daa952ba7f163c4a11628f55a4df523b3ef\n        /* \"@openzeppelin/contracts/token/ERC20/ERC20.sol\":7365:7370  value */\n      dup4\n        /* \"@openzeppelin/contracts/token/ERC20/ERC20.sol\":7346:7371  Transfer(from, to, value) */\n      mload(0x40)\n      tag_230\n      swap2\n      swap1\n      tag_35\n      jump\t// in\n    tag_230:\n      mload(0x40)\n      dup1\n      swap2\n      sub\n      swap1\n      log3\n        /* \"@openzeppelin/contracts/token/ERC20/ERC20.sol\":6271:7378  function _update(address from, address to, uint256 value) internal virtual {... */\n      pop\n      pop\n      pop\n      jump\t// out\n        /* \"@openzeppelin/contracts/utils/structs/EnumerableSet.sol\":4264:4393  function _contains(Set storage set, bytes32 value) private view returns (bool) {... */\n    tag_208:\n        /* \"@openzeppelin/contracts/utils/structs/EnumerableSet.sol\":4337:4341  bool */\n      0x00\n        /* \"@openzeppelin/contracts/utils/structs/EnumerableSet.sol\":4385:4386  0 */\n      dup1\n        /* \"@openzeppelin/contracts/utils/structs/EnumerableSet.sol\":4360:4363  set */\n      dup4\n        /* \"@openzeppelin/contracts/utils/structs/EnumerableSet.sol\":4360:4374  set._positions */\n      0x01\n      add\n        /* \"@openzeppelin/contracts/utils/structs/EnumerableSet.sol\":4360:4381  set._positions[value] */\n      0x00\n        /* \"@openzeppelin/contracts/utils/structs/EnumerableSet.sol\":4375:4380  value */\n      dup5\n        /* \"@openzeppelin/contracts/utils/structs/EnumerableSet.sol\":4360:4381  set._positions[value] */\n      dup2\n      mstore\n      0x20\n      add\n      swap1\n      dup2\n      mstore\n      0x20\n      add\n      0x00\n      keccak256\n      sload\n        /* \"@openzeppelin/contracts/utils/structs/EnumerableSet.sol\":4360:4386  set._positions[value] != 0 */\n      eq\n      iszero\n        /* \"@openzeppelin/contracts/utils/structs/EnumerableSet.sol\":4353:4386  return set._positions[value] != 0 */\n      swap1\n      pop\n        /* \"@openzeppelin/contracts/utils/structs/EnumerableSet.sol\":4264:4393  function _contains(Set storage set, bytes32 value) private view returns (bool) {... */\n      swap3\n      swap2\n      pop\n      pop\n      jump\t// out\n        /* \"@openzeppelin/contracts/utils/structs/EnumerableSet.sol\":2241:2647  function _add(Set storage set, bytes32 value) private returns (bool) {... */\n    tag_211:\n        /* \"@openzeppelin/contracts/utils/structs/EnumerableSet.sol\":2304:2308  bool */\n      0x00\n        /* \"@openzeppelin/contracts/utils/structs/EnumerableSet.sol\":2325:2346  _contains(set, value) */\n      tag_233\n        /* \"@openzeppelin/contracts/utils/structs/EnumerableSet.sol\":2335:2338  set */\n      dup4\n        /* \"@openzeppelin/contracts/utils/structs/EnumerableSet.sol\":2340:2345  value */\n      dup4\n        /* \"@openzeppelin/contracts/utils/structs/EnumerableSet.sol\":2325:2334  _contains */\n      tag_208\n        /* \"@openzeppelin/contracts/utils/structs/EnumerableSet.sol\":2325:2346  _contains(set, value) */\n      jump\t// in\n    tag_233:\n        /* \"@openzeppelin/contracts/utils/structs/EnumerableSet.sol\":2320:2641  if (!_contains(set, value)) {... */\n      tag_234\n      jumpi\n        /* \"@openzeppelin/contracts/utils/structs/EnumerableSet.sol\":2362:2365  set */\n      dup3\n        /* \"@openzeppelin/contracts/utils/structs/EnumerableSet.sol\":2362:2373  set._values */\n      0x00\n      add\n        /* \"@openzeppelin/contracts/utils/structs/EnumerableSet.sol\":2379:2384  value */\n      dup3\n        /* \"@openzeppelin/contracts/utils/structs/EnumerableSet.sol\":2362:2385  set._values.push(value) */\n      swap1\n      dup1\n      0x01\n      dup2\n      sload\n      add\n      dup1\n      dup3\n      sstore\n      dup1\n      swap2\n      pop\n      pop\n      0x01\n      swap1\n      sub\n      swap1\n      0x00\n      mstore\n      keccak256(0x00, 0x20)\n      add\n      0x00\n      swap1\n      swap2\n      swap1\n      swap2\n      swap1\n      swap2\n      pop\n      sstore\n        /* \"@openzeppelin/contracts/utils/structs/EnumerableSet.sol\":2544:2547  set */\n      dup3\n        /* \"@openzeppelin/contracts/utils/structs/EnumerableSet.sol\":2544:2555  set._values */\n      0x00\n      add\n        /* \"@openzeppelin/contracts/utils/structs/EnumerableSet.sol\":2544:2562  set._values.length */\n      dup1\n      sload\n      swap1\n      pop\n        /* \"@openzeppelin/contracts/utils/structs/EnumerableSet.sol\":2520:2523  set */\n      dup4\n        /* \"@openzeppelin/contracts/utils/structs/EnumerableSet.sol\":2520:2534  set._positions */\n      0x01\n      add\n        /* \"@openzeppelin/contracts/utils/structs/EnumerableSet.sol\":2520:2541  set._positions[value] */\n      0x00\n        /* \"@openzeppelin/contracts/utils/structs/EnumerableSet.sol\":2535:2540  value */\n      dup5\n        /* \"@openzeppelin/contracts/utils/structs/EnumerableSet.sol\":2520:2541  set._positions[value] */\n      dup2\n      mstore\n      0x20\n      add\n      swap1\n      dup2\n      mstore\n      0x20\n      add\n      0x00\n      keccak256\n        /* \"@openzeppelin/contracts/utils/structs/EnumerableSet.sol\":2520:2562  set._positions[value] = set._values.length */\n      dup2\n      swap1\n      sstore\n      pop\n        /* \"@openzeppelin/contracts/utils/structs/EnumerableSet.sol\":2583:2587  true */\n      0x01\n        /* \"@openzeppelin/contracts/utils/structs/EnumerableSet.sol\":2576:2587  return true */\n      swap1\n      pop\n      jump(tag_232)\n        /* \"@openzeppelin/contracts/utils/structs/EnumerableSet.sol\":2320:2641  if (!_contains(set, value)) {... */\n    tag_234:\n        /* \"@openzeppelin/contracts/utils/structs/EnumerableSet.sol\":2625:2630  false */\n      0x00\n        /* \"@openzeppelin/contracts/utils/structs/EnumerableSet.sol\":2618:2630  return false */\n      swap1\n      pop\n        /* \"@openzeppelin/contracts/utils/structs/EnumerableSet.sol\":2241:2647  function _add(Set storage set, bytes32 value) private returns (bool) {... */\n    tag_232:\n      swap3\n      swap2\n      pop\n      pop\n      jump\t// out\n        /* \"@openzeppelin/contracts/utils/structs/EnumerableSet.sol\":5581:5690  function _values(Set storage set) private view returns (bytes32[] memory) {... */\n    tag_214:\n        /* \"@openzeppelin/contracts/utils/structs/EnumerableSet.sol\":5637:5653  bytes32[] memory */\n      0x60\n        /* \"@openzeppelin/contracts/utils/structs/EnumerableSet.sol\":5672:5675  set */\n      dup2\n        /* \"@openzeppelin/contracts/utils/structs/EnumerableSet.sol\":5672:5683  set._values */\n      0x00\n      add\n        /* \"@openzeppelin/contracts/utils/structs/EnumerableSet.sol\":5665:5683  return set._values */\n      dup1\n      sload\n      dup1\n      0x20\n      mul\n      0x20\n      add\n      mload(0x40)\n      swap1\n      dup2\n      add\n      0x40\n      mstore\n      dup1\n      swap3\n      swap2\n      swap1\n      dup2\n      dup2\n      mstore\n      0x20\n      add\n      dup3\n      dup1\n      sload\n      dup1\n      iszero\n      tag_238\n      jumpi\n      0x20\n      mul\n      dup3\n      add\n      swap2\n      swap1\n      0x00\n      mstore\n      keccak256(0x00, 0x20)\n      swap1\n    tag_239:\n      dup2\n      sload\n      dup2\n      mstore\n      0x20\n      add\n      swap1\n      0x01\n      add\n      swap1\n      dup1\n      dup4\n      gt\n      tag_239\n      jumpi\n    tag_238:\n      pop\n      pop\n      pop\n      pop\n      pop\n      swap1\n      pop\n        /* \"@openzeppelin/contracts/utils/structs/EnumerableSet.sol\":5581:5690  function _values(Set storage set) private view returns (bytes32[] memory) {... */\n      swap2\n      swap1\n      pop\n      jump\t// out\n    tag_167:\n      mload(0x40)\n      dup1\n      0x0120\n      add\n      0x40\n      mstore\n      dup1\n      0x60\n      dup2\n      mstore\n      0x20\n      add\n      0x60\n      dup2\n      mstore\n      0x20\n      add\n      0x00\n      dup2\n      mstore\n      0x20\n      add\n      0x00\n      dup2\n      mstore\n      0x20\n      add\n      0x00\n      dup2\n      mstore\n      0x20\n      add\n      0x00\n      dup2\n      mstore\n      0x20\n      add\n      0x00\n      dup2\n      mstore\n      0x20\n      add\n      iszero(iszero(0x00))\n      dup2\n      mstore\n      0x20\n      add\n      iszero(iszero(0x00))\n      dup2\n      mstore\n      pop\n      swap1\n      jump\t// out\n        /* \"#utility.yul\":7:106   */\n    tag_240:\n        /* \"#utility.yul\":59:65   */\n      0x00\n        /* \"#utility.yul\":93:98   */\n      dup2\n        /* \"#utility.yul\":87:99   */\n      mload\n        /* \"#utility.yul\":77:99   */\n      swap1\n      pop\n        /* \"#utility.yul\":7:106   */\n      swap2\n      swap1\n      pop\n      jump\t// out\n        /* \"#utility.yul\":112:281   */\n    tag_241:\n        /* \"#utility.yul\":196:207   */\n      0x00\n        /* \"#utility.yul\":230:236   */\n      dup3\n        /* \"#utility.yul\":225:228   */\n      dup3\n        /* \"#utility.yul\":218:237   */\n      mstore\n        /* \"#utility.yul\":270:274   */\n      0x20\n        /* \"#utility.yul\":265:268   */\n      dup3\n        /* \"#utility.yul\":261:275   */\n      add\n        /* \"#utility.yul\":246:275   */\n      swap1\n      pop\n        /* \"#utility.yul\":112:281   */\n      swap3\n      swap2\n      pop\n      pop\n      jump\t// out\n        /* \"#utility.yul\":287:426   */\n    tag_242:\n        /* \"#utility.yul\":376:382   */\n      dup3\n        /* \"#utility.yul\":371:374   */\n      dup2\n        /* \"#utility.yul\":366:369   */\n      dup4\n        /* \"#utility.yul\":360:383   */\n      mcopy\n        /* \"#utility.yul\":417:418   */\n      0x00\n        /* \"#utility.yul\":408:414   */\n      dup4\n        /* \"#utility.yul\":403:406   */\n      dup4\n        /* \"#utility.yul\":399:415   */\n      add\n        /* \"#utility.yul\":392:419   */\n      mstore\n        /* \"#utility.yul\":287:426   */\n      pop\n      pop\n      pop\n      jump\t// out\n        /* \"#utility.yul\":432:534   */\n    tag_243:\n        /* \"#utility.yul\":473:479   */\n      0x00\n        /* \"#utility.yul\":524:526   */\n      0x1f\n        /* \"#utility.yul\":520:527   */\n      not\n        /* \"#utility.yul\":515:517   */\n      0x1f\n        /* \"#utility.yul\":508:513   */\n      dup4\n        /* \"#utility.yul\":504:518   */\n      add\n        /* \"#utility.yul\":500:528   */\n      and\n        /* \"#utility.yul\":490:528   */\n      swap1\n      pop\n        /* \"#utility.yul\":432:534   */\n      swap2\n      swap1\n      pop\n      jump\t// out\n        /* \"#utility.yul\":540:917   */\n    tag_244:\n        /* \"#utility.yul\":628:631   */\n      0x00\n        /* \"#utility.yul\":656:695   */\n      tag_304\n        /* \"#utility.yul\":689:694   */\n      dup3\n        /* \"#utility.yul\":656:695   */\n      tag_240\n      jump\t// in\n    tag_304:\n        /* \"#utility.yul\":711:782   */\n      tag_305\n        /* \"#utility.yul\":775:781   */\n      dup2\n        /* \"#utility.yul\":770:773   */\n      dup6\n        /* \"#utility.yul\":711:782   */\n      tag_241\n      jump\t// in\n    tag_305:\n        /* \"#utility.yul\":704:782   */\n      swap4\n      pop\n        /* \"#utility.yul\":791:856   */\n      tag_306\n        /* \"#utility.yul\":849:855   */\n      dup2\n        /* \"#utility.yul\":844:847   */\n      dup6\n        /* \"#utility.yul\":837:841   */\n      0x20\n        /* \"#utility.yul\":830:835   */\n      dup7\n        /* \"#utility.yul\":826:842   */\n      add\n        /* \"#utility.yul\":791:856   */\n      tag_242\n      jump\t// in\n    tag_306:\n        /* \"#utility.yul\":881:910   */\n      tag_307\n        /* \"#utility.yul\":903:909   */\n      dup2\n        /* \"#utility.yul\":881:910   */\n      tag_243\n      jump\t// in\n    tag_307:\n        /* \"#utility.yul\":876:879   */\n      dup5\n        /* \"#utility.yul\":872:911   */\n      add\n        /* \"#utility.yul\":865:911   */\n      swap2\n      pop\n        /* \"#utility.yul\":632:917   */\n      pop\n        /* \"#utility.yul\":540:917   */\n      swap3\n      swap2\n      pop\n      pop\n      jump\t// out\n        /* \"#utility.yul\":923:1236   */\n    tag_25:\n        /* \"#utility.yul\":1036:1040   */\n      0x00\n        /* \"#utility.yul\":1074:1076   */\n      0x20\n        /* \"#utility.yul\":1063:1072   */\n      dup3\n        /* \"#utility.yul\":1059:1077   */\n      add\n        /* \"#utility.yul\":1051:1077   */\n      swap1\n      pop\n        /* \"#utility.yul\":1123:1132   */\n      dup2\n        /* \"#utility.yul\":1117:1121   */\n      dup2\n        /* \"#utility.yul\":1113:1133   */\n      sub\n        /* \"#utility.yul\":1109:1110   */\n      0x00\n        /* \"#utility.yul\":1098:1107   */\n      dup4\n        /* \"#utility.yul\":1094:1111   */\n      add\n        /* \"#utility.yul\":1087:1134   */\n      mstore\n        /* \"#utility.yul\":1151:1229   */\n      tag_309\n        /* \"#utility.yul\":1224:1228   */\n      dup2\n        /* \"#utility.yul\":1215:1221   */\n      dup5\n        /* \"#utility.yul\":1151:1229   */\n      tag_244\n      jump\t// in\n    tag_309:\n        /* \"#utility.yul\":1143:1229   */\n      swap1\n      pop\n        /* \"#utility.yul\":923:1236   */\n      swap3\n      swap2\n      pop\n      pop\n      jump\t// out\n        /* \"#utility.yul\":1323:1440   */\n    tag_246:\n        /* \"#utility.yul\":1432:1433   */\n      0x00\n        /* \"#utility.yul\":1429:1430   */\n      dup1\n        /* \"#utility.yul\":1422:1434   */\n      revert\n        /* \"#utility.yul\":1446:1563   */\n    tag_247:\n        /* \"#utility.yul\":1555:1556   */\n      0x00\n        /* \"#utility.yul\":1552:1553   */\n      dup1\n        /* \"#utility.yul\":1545:1557   */\n      revert\n        /* \"#utility.yul\":1569:1695   */\n    tag_248:\n        /* \"#utility.yul\":1606:1613   */\n      0x00\n        /* \"#utility.yul\":1646:1688   */\n      0xffffffffffffffffffffffffffffffffffffffff\n        /* \"#utility.yul\":1639:1644   */\n      dup3\n        /* \"#utility.yul\":1635:1689   */\n      and\n        /* \"#utility.yul\":1624:1689   */\n      swap1\n      pop\n        /* \"#utility.yul\":1569:1695   */\n      swap2\n      swap1\n      pop\n      jump\t// out\n        /* \"#utility.yul\":1701:1797   */\n    tag_249:\n        /* \"#utility.yul\":1738:1745   */\n      0x00\n        /* \"#utility.yul\":1767:1791   */\n      tag_315\n        /* \"#utility.yul\":1785:1790   */\n      dup3\n        /* \"#utility.yul\":1767:1791   */\n      tag_248\n      jump\t// in\n    tag_315:\n        /* \"#utility.yul\":1756:1791   */\n      swap1\n      pop\n        /* \"#utility.yul\":1701:1797   */\n      swap2\n      swap1\n      pop\n      jump\t// out\n        /* \"#utility.yul\":1803:1925   */\n    tag_250:\n        /* \"#utility.yul\":1876:1900   */\n      tag_317\n        /* \"#utility.yul\":1894:1899   */\n      dup2\n        /* \"#utility.yul\":1876:1900   */\n      tag_249\n      jump\t// in\n    tag_317:\n        /* \"#utility.yul\":1869:1874   */\n      dup2\n        /* \"#utility.yul\":1866:1901   */\n      eq\n        /* \"#utility.yul\":1856:1919   */\n      tag_318\n      jumpi\n        /* \"#utility.yul\":1915:1916   */\n      0x00\n        /* \"#utility.yul\":1912:1913   */\n      dup1\n        /* \"#utility.yul\":1905:1917   */\n      revert\n        /* \"#utility.yul\":1856:1919   */\n    tag_318:\n        /* \"#utility.yul\":1803:1925   */\n      pop\n      jump\t// out\n        /* \"#utility.yul\":1931:2070   */\n    tag_251:\n        /* \"#utility.yul\":1977:1982   */\n      0x00\n        /* \"#utility.yul\":2015:2021   */\n      dup2\n        /* \"#utility.yul\":2002:2022   */\n      calldataload\n        /* \"#utility.yul\":1993:2022   */\n      swap1\n      pop\n        /* \"#utility.yul\":2031:2064   */\n      tag_320\n        /* \"#utility.yul\":2058:2063   */\n      dup2\n        /* \"#utility.yul\":2031:2064   */\n      tag_250\n      jump\t// in\n    tag_320:\n        /* \"#utility.yul\":1931:2070   */\n      swap3\n      swap2\n      pop\n      pop\n      jump\t// out\n        /* \"#utility.yul\":2076:2153   */\n    tag_252:\n        /* \"#utility.yul\":2113:2120   */\n      0x00\n        /* \"#utility.yul\":2142:2147   */\n      dup2\n        /* \"#utility.yul\":2131:2147   */\n      swap1\n      pop\n        /* \"#utility.yul\":2076:2153   */\n      swap2\n      swap1\n      pop\n      jump\t// out\n        /* \"#utility.yul\":2159:2281   */\n    tag_253:\n        /* \"#utility.yul\":2232:2256   */\n      tag_323\n        /* \"#utility.yul\":2250:2255   */\n      dup2\n        /* \"#utility.yul\":2232:2256   */\n      tag_252\n      jump\t// in\n    tag_323:\n        /* \"#utility.yul\":2225:2230   */\n      dup2\n        /* \"#utility.yul\":2222:2257   */\n      eq\n        /* \"#utility.yul\":2212:2275   */\n      tag_324\n      jumpi\n        /* \"#utility.yul\":2271:2272   */\n      0x00\n        /* \"#utility.yul\":2268:2269   */\n      dup1\n        /* \"#utility.yul\":2261:2273   */\n      revert\n        /* \"#utility.yul\":2212:2275   */\n    tag_324:\n        /* \"#utility.yul\":2159:2281   */\n      pop\n      jump\t// out\n        /* \"#utility.yul\":2287:2426   */\n    tag_254:\n        /* \"#utility.yul\":2333:2338   */\n      0x00\n        /* \"#utility.yul\":2371:2377   */\n      dup2\n        /* \"#utility.yul\":2358:2378   */\n      calldataload\n        /* \"#utility.yul\":2349:2378   */\n      swap1\n      pop\n        /* \"#utility.yul\":2387:2420   */\n      tag_326\n        /* \"#utility.yul\":2414:2419   */\n      dup2\n        /* \"#utility.yul\":2387:2420   */\n      tag_253\n      jump\t// in\n    tag_326:\n        /* \"#utility.yul\":2287:2426   */\n      swap3\n      swap2\n      pop\n      pop\n      jump\t// out\n        /* \"#utility.yul\":2432:2906   */\n    tag_28:\n        /* \"#utility.yul\":2500:2506   */\n      0x00\n        /* \"#utility.yul\":2508:2514   */\n      dup1\n        /* \"#utility.yul\":2557:2559   */\n      0x40\n        /* \"#utility.yul\":2545:2554   */\n      dup4\n        /* \"#utility.yul\":2536:2543   */\n      dup6\n        /* \"#utility.yul\":2532:2555   */\n      sub\n        /* \"#utility.yul\":2528:2560   */\n      slt\n        /* \"#utility.yul\":2525:2644   */\n      iszero\n      tag_328\n      jumpi\n        /* \"#utility.yul\":2563:2642   */\n      tag_329\n      tag_246\n      jump\t// in\n    tag_329:\n        /* \"#utility.yul\":2525:2644   */\n    tag_328:\n        /* \"#utility.yul\":2683:2684   */\n      0x00\n        /* \"#utility.yul\":2708:2761   */\n      tag_330\n        /* \"#utility.yul\":2753:2760   */\n      dup6\n        /* \"#utility.yul\":2744:2750   */\n      dup3\n        /* \"#utility.yul\":2733:2742   */\n      dup7\n        /* \"#utility.yul\":2729:2751   */\n      add\n        /* \"#utility.yul\":2708:2761   */\n      tag_251\n      jump\t// in\n    tag_330:\n        /* \"#utility.yul\":2698:2761   */\n      swap3\n      pop\n        /* \"#utility.yul\":2654:2771   */\n      pop\n        /* \"#utility.yul\":2810:2812   */\n      0x20\n        /* \"#utility.yul\":2836:2889   */\n      tag_331\n        /* \"#utility.yul\":2881:2888   */\n      dup6\n        /* \"#utility.yul\":2872:2878   */\n      dup3\n        /* \"#utility.yul\":2861:2870   */\n      dup7\n        /* \"#utility.yul\":2857:2879   */\n      add\n        /* \"#utility.yul\":2836:2889   */\n      tag_254\n      jump\t// in\n    tag_331:\n        /* \"#utility.yul\":2826:2889   */\n      swap2\n      pop\n        /* \"#utility.yul\":2781:2899   */\n      pop\n        /* \"#utility.yul\":2432:2906   */\n      swap3\n      pop\n      swap3\n      swap1\n      pop\n      jump\t// out\n        /* \"#utility.yul\":2912:3002   */\n    tag_255:\n        /* \"#utility.yul\":2946:2953   */\n      0x00\n        /* \"#utility.yul\":2989:2994   */\n      dup2\n        /* \"#utility.yul\":2982:2995   */\n      iszero\n        /* \"#utility.yul\":2975:2996   */\n      iszero\n        /* \"#utility.yul\":2964:2996   */\n      swap1\n      pop\n        /* \"#utility.yul\":2912:3002   */\n      swap2\n      swap1\n      pop\n      jump\t// out\n        /* \"#utility.yul\":3008:3117   */\n    tag_256:\n        /* \"#utility.yul\":3089:3110   */\n      tag_334\n        /* \"#utility.yul\":3104:3109   */\n      dup2\n        /* \"#utility.yul\":3089:3110   */\n      tag_255\n      jump\t// in\n    tag_334:\n        /* \"#utility.yul\":3084:3087   */\n      dup3\n        /* \"#utility.yul\":3077:3111   */\n      mstore\n        /* \"#utility.yul\":3008:3117   */\n      pop\n      pop\n      jump\t// out\n        /* \"#utility.yul\":3123:3333   */\n    tag_31:\n        /* \"#utility.yul\":3210:3214   */\n      0x00\n        /* \"#utility.yul\":3248:3250   */\n      0x20\n        /* \"#utility.yul\":3237:3246   */\n      dup3\n        /* \"#utility.yul\":3233:3251   */\n      add\n        /* \"#utility.yul\":3225:3251   */\n      swap1\n      pop\n        /* \"#utility.yul\":3261:3326   */\n      tag_336\n        /* \"#utility.yul\":3323:3324   */\n      0x00\n        /* \"#utility.yul\":3312:3321   */\n      dup4\n        /* \"#utility.yul\":3308:3325   */\n      add\n        /* \"#utility.yul\":3299:3305   */\n      dup5\n        /* \"#utility.yul\":3261:3326   */\n      tag_256\n      jump\t// in\n    tag_336:\n        /* \"#utility.yul\":3123:3333   */\n      swap3\n      swap2\n      pop\n      pop\n      jump\t// out\n        /* \"#utility.yul\":3339:3457   */\n    tag_257:\n        /* \"#utility.yul\":3426:3450   */\n      tag_338\n        /* \"#utility.yul\":3444:3449   */\n      dup2\n        /* \"#utility.yul\":3426:3450   */\n      tag_252\n      jump\t// in\n    tag_338:\n        /* \"#utility.yul\":3421:3424   */\n      dup3\n        /* \"#utility.yul\":3414:3451   */\n      mstore\n        /* \"#utility.yul\":3339:3457   */\n      pop\n      pop\n      jump\t// out\n        /* \"#utility.yul\":3463:3685   */\n    tag_35:\n        /* \"#utility.yul\":3556:3560   */\n      0x00\n        /* \"#utility.yul\":3594:3596   */\n      0x20\n        /* \"#utility.yul\":3583:3592   */\n      dup3\n        /* \"#utility.yul\":3579:3597   */\n      add\n        /* \"#utility.yul\":3571:3597   */\n      swap1\n      pop\n        /* \"#utility.yul\":3607:3678   */\n      tag_340\n        /* \"#utility.yul\":3675:3676   */\n      0x00\n        /* \"#utility.yul\":3664:3673   */\n      dup4\n        /* \"#utility.yul\":3660:3677   */\n      add\n        /* \"#utility.yul\":3651:3657   */\n      dup5\n        /* \"#utility.yul\":3607:3678   */\n      tag_257\n      jump\t// in\n    tag_340:\n        /* \"#utility.yul\":3463:3685   */\n      swap3\n      swap2\n      pop\n      pop\n      jump\t// out\n        /* \"#utility.yul\":3691:4310   */\n    tag_38:\n        /* \"#utility.yul\":3768:3774   */\n      0x00\n        /* \"#utility.yul\":3776:3782   */\n      dup1\n        /* \"#utility.yul\":3784:3790   */\n      0x00\n        /* \"#utility.yul\":3833:3835   */\n      0x60\n        /* \"#utility.yul\":3821:3830   */\n      dup5\n        /* \"#utility.yul\":3812:3819   */\n      dup7\n        /* \"#utility.yul\":3808:3831   */\n      sub\n        /* \"#utility.yul\":3804:3836   */\n      slt\n        /* \"#utility.yul\":3801:3920   */\n      iszero\n      tag_342\n      jumpi\n        /* \"#utility.yul\":3839:3918   */\n      tag_343\n      tag_246\n      jump\t// in\n    tag_343:\n        /* \"#utility.yul\":3801:3920   */\n    tag_342:\n        /* \"#utility.yul\":3959:3960   */\n      0x00\n        /* \"#utility.yul\":3984:4037   */\n      tag_344\n        /* \"#utility.yul\":4029:4036   */\n      dup7\n        /* \"#utility.yul\":4020:4026   */\n      dup3\n        /* \"#utility.yul\":4009:4018   */\n      dup8\n        /* \"#utility.yul\":4005:4027   */\n      add\n        /* \"#utility.yul\":3984:4037   */\n      tag_251\n      jump\t// in\n    tag_344:\n        /* \"#utility.yul\":3974:4037   */\n      swap4\n      pop\n        /* \"#utility.yul\":3930:4047   */\n      pop\n        /* \"#utility.yul\":4086:4088   */\n      0x20\n        /* \"#utility.yul\":4112:4165   */\n      tag_345\n        /* \"#utility.yul\":4157:4164   */\n      dup7\n        /* \"#utility.yul\":4148:4154   */\n      dup3\n        /* \"#utility.yul\":4137:4146   */\n      dup8\n        /* \"#utility.yul\":4133:4155   */\n      add\n        /* \"#utility.yul\":4112:4165   */\n      tag_251\n      jump\t// in\n    tag_345:\n        /* \"#utility.yul\":4102:4165   */\n      swap3\n      pop\n        /* \"#utility.yul\":4057:4175   */\n      pop\n        /* \"#utility.yul\":4214:4216   */\n      0x40\n        /* \"#utility.yul\":4240:4293   */\n      tag_346\n        /* \"#utility.yul\":4285:4292   */\n      dup7\n        /* \"#utility.yul\":4276:4282   */\n      dup3\n        /* \"#utility.yul\":4265:4274   */\n      dup8\n        /* \"#utility.yul\":4261:4283   */\n      add\n        /* \"#utility.yul\":4240:4293   */\n      tag_254\n      jump\t// in\n    tag_346:\n        /* \"#utility.yul\":4230:4293   */\n      swap2\n      pop\n        /* \"#utility.yul\":4185:4303   */\n      pop\n        /* \"#utility.yul\":3691:4310   */\n      swap3\n      pop\n      swap3\n      pop\n      swap3\n      jump\t// out\n        /* \"#utility.yul\":4316:4402   */\n    tag_258:\n        /* \"#utility.yul\":4351:4358   */\n      0x00\n        /* \"#utility.yul\":4391:4395   */\n      0xff\n        /* \"#utility.yul\":4384:4389   */\n      dup3\n        /* \"#utility.yul\":4380:4396   */\n      and\n        /* \"#utility.yul\":4369:4396   */\n      swap1\n      pop\n        /* \"#utility.yul\":4316:4402   */\n      swap2\n      swap1\n      pop\n      jump\t// out\n        /* \"#utility.yul\":4408:4520   */\n    tag_259:\n        /* \"#utility.yul\":4491:4513   */\n      tag_349\n        /* \"#utility.yul\":4507:4512   */\n      dup2\n        /* \"#utility.yul\":4491:4513   */\n      tag_258\n      jump\t// in\n    tag_349:\n        /* \"#utility.yul\":4486:4489   */\n      dup3\n        /* \"#utility.yul\":4479:4514   */\n      mstore\n        /* \"#utility.yul\":4408:4520   */\n      pop\n      pop\n      jump\t// out\n        /* \"#utility.yul\":4526:4740   */\n    tag_44:\n        /* \"#utility.yul\":4615:4619   */\n      0x00\n        /* \"#utility.yul\":4653:4655   */\n      0x20\n        /* \"#utility.yul\":4642:4651   */\n      dup3\n        /* \"#utility.yul\":4638:4656   */\n      add\n        /* \"#utility.yul\":4630:4656   */\n      swap1\n      pop\n        /* \"#utility.yul\":4666:4733   */\n      tag_351\n        /* \"#utility.yul\":4730:4731   */\n      0x00\n        /* \"#utility.yul\":4719:4728   */\n      dup4\n        /* \"#utility.yul\":4715:4732   */\n      add\n        /* \"#utility.yul\":4706:4712   */\n      dup5\n        /* \"#utility.yul\":4666:4733   */\n      tag_259\n      jump\t// in\n    tag_351:\n        /* \"#utility.yul\":4526:4740   */\n      swap3\n      swap2\n      pop\n      pop\n      jump\t// out\n        /* \"#utility.yul\":4746:5075   */\n    tag_49:\n        /* \"#utility.yul\":4805:4811   */\n      0x00\n        /* \"#utility.yul\":4854:4856   */\n      0x20\n        /* \"#utility.yul\":4842:4851   */\n      dup3\n        /* \"#utility.yul\":4833:4840   */\n      dup5\n        /* \"#utility.yul\":4829:4852   */\n      sub\n        /* \"#utility.yul\":4825:4857   */\n      slt\n        /* \"#utility.yul\":4822:4941   */\n      iszero\n      tag_353\n      jumpi\n        /* \"#utility.yul\":4860:4939   */\n      tag_354\n      tag_246\n      jump\t// in\n    tag_354:\n        /* \"#utility.yul\":4822:4941   */\n    tag_353:\n        /* \"#utility.yul\":4980:4981   */\n      0x00\n        /* \"#utility.yul\":5005:5058   */\n      tag_355\n        /* \"#utility.yul\":5050:5057   */\n      dup5\n        /* \"#utility.yul\":5041:5047   */\n      dup3\n        /* \"#utility.yul\":5030:5039   */\n      dup6\n        /* \"#utility.yul\":5026:5048   */\n      add\n        /* \"#utility.yul\":5005:5058   */\n      tag_251\n      jump\t// in\n    tag_355:\n        /* \"#utility.yul\":4995:5058   */\n      swap2\n      pop\n        /* \"#utility.yul\":4951:5068   */\n      pop\n        /* \"#utility.yul\":4746:5075   */\n      swap3\n      swap2\n      pop\n      pop\n      jump\t// out\n        /* \"#utility.yul\":5081:5198   */\n    tag_260:\n        /* \"#utility.yul\":5190:5191   */\n      0x00\n        /* \"#utility.yul\":5187:5188   */\n      dup1\n        /* \"#utility.yul\":5180:5192   */\n      revert\n        /* \"#utility.yul\":5204:5321   */\n    tag_261:\n        /* \"#utility.yul\":5313:5314   */\n      0x00\n        /* \"#utility.yul\":5310:5311   */\n      dup1\n        /* \"#utility.yul\":5303:5315   */\n      revert\n        /* \"#utility.yul\":5327:5444   */\n    tag_262:\n        /* \"#utility.yul\":5436:5437   */\n      0x00\n        /* \"#utility.yul\":5433:5434   */\n      dup1\n        /* \"#utility.yul\":5426:5438   */\n      revert\n        /* \"#utility.yul\":5464:6017   */\n    tag_263:\n        /* \"#utility.yul\":5522:5530   */\n      0x00\n        /* \"#utility.yul\":5532:5538   */\n      dup1\n        /* \"#utility.yul\":5582:5585   */\n      dup4\n        /* \"#utility.yul\":5575:5579   */\n      0x1f\n        /* \"#utility.yul\":5567:5573   */\n      dup5\n        /* \"#utility.yul\":5563:5580   */\n      add\n        /* \"#utility.yul\":5559:5586   */\n      slt\n        /* \"#utility.yul\":5549:5671   */\n      tag_360\n      jumpi\n        /* \"#utility.yul\":5590:5669   */\n      tag_361\n      tag_260\n      jump\t// in\n    tag_361:\n        /* \"#utility.yul\":5549:5671   */\n    tag_360:\n        /* \"#utility.yul\":5703:5709   */\n      dup3\n        /* \"#utility.yul\":5690:5710   */\n      calldataload\n        /* \"#utility.yul\":5680:5710   */\n      swap1\n      pop\n        /* \"#utility.yul\":5733:5751   */\n      0xffffffffffffffff\n        /* \"#utility.yul\":5725:5731   */\n      dup2\n        /* \"#utility.yul\":5722:5752   */\n      gt\n        /* \"#utility.yul\":5719:5836   */\n      iszero\n      tag_362\n      jumpi\n        /* \"#utility.yul\":5755:5834   */\n      tag_363\n      tag_261\n      jump\t// in\n    tag_363:\n        /* \"#utility.yul\":5719:5836   */\n    tag_362:\n        /* \"#utility.yul\":5869:5873   */\n      0x20\n        /* \"#utility.yul\":5861:5867   */\n      dup4\n        /* \"#utility.yul\":5857:5874   */\n      add\n        /* \"#utility.yul\":5845:5874   */\n      swap2\n      pop\n        /* \"#utility.yul\":5923:5926   */\n      dup4\n        /* \"#utility.yul\":5915:5919   */\n      0x01\n        /* \"#utility.yul\":5907:5913   */\n      dup3\n        /* \"#utility.yul\":5903:5920   */\n      mul\n        /* \"#utility.yul\":5893:5901   */\n      dup4\n        /* \"#utility.yul\":5889:5921   */\n      add\n        /* \"#utility.yul\":5886:5927   */\n      gt\n        /* \"#utility.yul\":5883:6011   */\n      iszero\n      tag_364\n      jumpi\n        /* \"#utility.yul\":5930:6009   */\n      tag_365\n      tag_262\n      jump\t// in\n    tag_365:\n        /* \"#utility.yul\":5883:6011   */\n    tag_364:\n        /* \"#utility.yul\":5464:6017   */\n      swap3\n      pop\n      swap3\n      swap1\n      pop\n      jump\t// out\n        /* \"#utility.yul\":6023:6697   */\n    tag_61:\n        /* \"#utility.yul\":6103:6109   */\n      0x00\n        /* \"#utility.yul\":6111:6117   */\n      dup1\n        /* \"#utility.yul\":6119:6125   */\n      0x00\n        /* \"#utility.yul\":6168:6170   */\n      0x40\n        /* \"#utility.yul\":6156:6165   */\n      dup5\n        /* \"#utility.yul\":6147:6154   */\n      dup7\n        /* \"#utility.yul\":6143:6166   */\n      sub\n        /* \"#utility.yul\":6139:6171   */\n      slt\n        /* \"#utility.yul\":6136:6255   */\n      iszero\n      tag_367\n      jumpi\n        /* \"#utility.yul\":6174:6253   */\n      tag_368\n      tag_246\n      jump\t// in\n    tag_368:\n        /* \"#utility.yul\":6136:6255   */\n    tag_367:\n        /* \"#utility.yul\":6322:6323   */\n      0x00\n        /* \"#utility.yul\":6311:6320   */\n      dup5\n        /* \"#utility.yul\":6307:6324   */\n      add\n        /* \"#utility.yul\":6294:6325   */\n      calldataload\n        /* \"#utility.yul\":6352:6370   */\n      0xffffffffffffffff\n        /* \"#utility.yul\":6344:6350   */\n      dup2\n        /* \"#utility.yul\":6341:6371   */\n      gt\n        /* \"#utility.yul\":6338:6455   */\n      iszero\n      tag_369\n      jumpi\n        /* \"#utility.yul\":6374:6453   */\n      tag_370\n      tag_247\n      jump\t// in\n    tag_370:\n        /* \"#utility.yul\":6338:6455   */\n    tag_369:\n        /* \"#utility.yul\":6487:6552   */\n      tag_371\n        /* \"#utility.yul\":6544:6551   */\n      dup7\n        /* \"#utility.yul\":6535:6541   */\n      dup3\n        /* \"#utility.yul\":6524:6533   */\n      dup8\n        /* \"#utility.yul\":6520:6542   */\n      add\n        /* \"#utility.yul\":6487:6552   */\n      tag_263\n      jump\t// in\n    tag_371:\n        /* \"#utility.yul\":6469:6552   */\n      swap4\n      pop\n      swap4\n      pop\n        /* \"#utility.yul\":6265:6562   */\n      pop\n        /* \"#utility.yul\":6601:6603   */\n      0x20\n        /* \"#utility.yul\":6627:6680   */\n      tag_372\n        /* \"#utility.yul\":6672:6679   */\n      dup7\n        /* \"#utility.yul\":6663:6669   */\n      dup3\n        /* \"#utility.yul\":6652:6661   */\n      dup8\n        /* \"#utility.yul\":6648:6670   */\n      add\n        /* \"#utility.yul\":6627:6680   */\n      tag_254\n      jump\t// in\n    tag_372:\n        /* \"#utility.yul\":6617:6680   */\n      swap2\n      pop\n        /* \"#utility.yul\":6572:6690   */\n      pop\n        /* \"#utility.yul\":6023:6697   */\n      swap3\n      pop\n      swap3\n      pop\n      swap3\n      jump\t// out\n        /* \"#utility.yul\":6703:6809   */\n    tag_264:\n        /* \"#utility.yul\":6783:6784   */\n      0x03\n        /* \"#utility.yul\":6776:6781   */\n      dup2\n        /* \"#utility.yul\":6773:6785   */\n      lt\n        /* \"#utility.yul\":6763:6803   */\n      tag_374\n      jumpi\n        /* \"#utility.yul\":6799:6800   */\n      0x00\n        /* \"#utility.yul\":6796:6797   */\n      dup1\n        /* \"#utility.yul\":6789:6801   */\n      revert\n        /* \"#utility.yul\":6763:6803   */\n    tag_374:\n        /* \"#utility.yul\":6703:6809   */\n      pop\n      jump\t// out\n        /* \"#utility.yul\":6815:6968   */\n    tag_265:\n        /* \"#utility.yul\":6868:6873   */\n      0x00\n        /* \"#utility.yul\":6906:6912   */\n      dup2\n        /* \"#utility.yul\":6893:6913   */\n      calldataload\n        /* \"#utility.yul\":6884:6913   */\n      swap1\n      pop\n        /* \"#utility.yul\":6922:6962   */\n      tag_376\n        /* \"#utility.yul\":6956:6961   */\n      dup2\n        /* \"#utility.yul\":6922:6962   */\n      tag_264\n      jump\t// in\n    tag_376:\n        /* \"#utility.yul\":6815:6968   */\n      swap3\n      swap2\n      pop\n      pop\n      jump\t// out\n        /* \"#utility.yul\":6974:7462   */\n    tag_66:\n        /* \"#utility.yul\":7049:7055   */\n      0x00\n        /* \"#utility.yul\":7057:7063   */\n      dup1\n        /* \"#utility.yul\":7106:7108   */\n      0x40\n        /* \"#utility.yul\":7094:7103   */\n      dup4\n        /* \"#utility.yul\":7085:7092   */\n      dup6\n        /* \"#utility.yul\":7081:7104   */\n      sub\n        /* \"#utility.yul\":7077:7109   */\n      slt\n        /* \"#utility.yul\":7074:7193   */\n      iszero\n      tag_378\n      jumpi\n        /* \"#utility.yul\":7112:7191   */\n      tag_379\n      tag_246\n      jump\t// in\n    tag_379:\n        /* \"#utility.yul\":7074:7193   */\n    tag_378:\n        /* \"#utility.yul\":7232:7233   */\n      0x00\n        /* \"#utility.yul\":7257:7310   */\n      tag_380\n        /* \"#utility.yul\":7302:7309   */\n      dup6\n        /* \"#utility.yul\":7293:7299   */\n      dup3\n        /* \"#utility.yul\":7282:7291   */\n      dup7\n        /* \"#utility.yul\":7278:7300   */\n      add\n        /* \"#utility.yul\":7257:7310   */\n      tag_254\n      jump\t// in\n    tag_380:\n        /* \"#utility.yul\":7247:7310   */\n      swap3\n      pop\n        /* \"#utility.yul\":7203:7320   */\n      pop\n        /* \"#utility.yul\":7359:7361   */\n      0x20\n        /* \"#utility.yul\":7385:7445   */\n      tag_381\n        /* \"#utility.yul\":7437:7444   */\n      dup6\n        /* \"#utility.yul\":7428:7434   */\n      dup3\n        /* \"#utility.yul\":7417:7426   */\n      dup7\n        /* \"#utility.yul\":7413:7435   */\n      add\n        /* \"#utility.yul\":7385:7445   */\n      tag_265\n      jump\t// in\n    tag_381:\n        /* \"#utility.yul\":7375:7445   */\n      swap2\n      pop\n        /* \"#utility.yul\":7330:7455   */\n      pop\n        /* \"#utility.yul\":6974:7462   */\n      swap3\n      pop\n      swap3\n      swap1\n      pop\n      jump\t// out\n        /* \"#utility.yul\":7468:7797   */\n    tag_73:\n        /* \"#utility.yul\":7527:7533   */\n      0x00\n        /* \"#utility.yul\":7576:7578   */\n      0x20\n        /* \"#utility.yul\":7564:7573   */\n      dup3\n        /* \"#utility.yul\":7555:7562   */\n      dup5\n        /* \"#utility.yul\":7551:7574   */\n      sub\n        /* \"#utility.yul\":7547:7579   */\n      slt\n        /* \"#utility.yul\":7544:7663   */\n      iszero\n      tag_383\n      jumpi\n        /* \"#utility.yul\":7582:7661   */\n      tag_384\n      tag_246\n      jump\t// in\n    tag_384:\n        /* \"#utility.yul\":7544:7663   */\n    tag_383:\n        /* \"#utility.yul\":7702:7703   */\n      0x00\n        /* \"#utility.yul\":7727:7780   */\n      tag_385\n        /* \"#utility.yul\":7772:7779   */\n      dup5\n        /* \"#utility.yul\":7763:7769   */\n      dup3\n        /* \"#utility.yul\":7752:7761   */\n      dup6\n        /* \"#utility.yul\":7748:7770   */\n      add\n        /* \"#utility.yul\":7727:7780   */\n      tag_254\n      jump\t// in\n    tag_385:\n        /* \"#utility.yul\":7717:7780   */\n      swap2\n      pop\n        /* \"#utility.yul\":7673:7790   */\n      pop\n        /* \"#utility.yul\":7468:7797   */\n      swap3\n      swap2\n      pop\n      pop\n      jump\t// out\n        /* \"#utility.yul\":7803:7917   */\n    tag_266:\n        /* \"#utility.yul\":7870:7876   */\n      0x00\n        /* \"#utility.yul\":7904:7909   */\n      dup2\n        /* \"#utility.yul\":7898:7910   */\n      mload\n        /* \"#utility.yul\":7888:7910   */\n      swap1\n      pop\n        /* \"#utility.yul\":7803:7917   */\n      swap2\n      swap1\n      pop\n      jump\t// out\n        /* \"#utility.yul\":7923:8097   */\n    tag_267:\n        /* \"#utility.yul\":8012:8023   */\n      0x00\n        /* \"#utility.yul\":8046:8052   */\n      dup3\n        /* \"#utility.yul\":8041:8044   */\n      dup3\n        /* \"#utility.yul\":8034:8053   */\n      mstore\n        /* \"#utility.yul\":8086:8090   */\n      0x20\n        /* \"#utility.yul\":8081:8084   */\n      dup3\n        /* \"#utility.yul\":8077:8091   */\n      add\n        /* \"#utility.yul\":8062:8091   */\n      swap1\n      pop\n        /* \"#utility.yul\":7923:8097   */\n      swap3\n      swap2\n      pop\n      pop\n      jump\t// out\n        /* \"#utility.yul\":8103:8235   */\n    tag_268:\n        /* \"#utility.yul\":8170:8174   */\n      0x00\n        /* \"#utility.yul\":8193:8196   */\n      dup2\n        /* \"#utility.yul\":8185:8196   */\n      swap1\n      pop\n        /* \"#utility.yul\":8223:8227   */\n      0x20\n        /* \"#utility.yul\":8218:8221   */\n      dup3\n        /* \"#utility.yul\":8214:8228   */\n      add\n        /* \"#utility.yul\":8206:8228   */\n      swap1\n      pop\n        /* \"#utility.yul\":8103:8235   */\n      swap2\n      swap1\n      pop\n      jump\t// out\n        /* \"#utility.yul\":8241:8349   */\n    tag_269:\n        /* \"#utility.yul\":8318:8342   */\n      tag_390\n        /* \"#utility.yul\":8336:8341   */\n      dup2\n        /* \"#utility.yul\":8318:8342   */\n      tag_249\n      jump\t// in\n    tag_390:\n        /* \"#utility.yul\":8313:8316   */\n      dup3\n        /* \"#utility.yul\":8306:8343   */\n      mstore\n        /* \"#utility.yul\":8241:8349   */\n      pop\n      pop\n      jump\t// out\n        /* \"#utility.yul\":8355:8534   */\n    tag_270:\n        /* \"#utility.yul\":8424:8434   */\n      0x00\n        /* \"#utility.yul\":8445:8491   */\n      tag_392\n        /* \"#utility.yul\":8487:8490   */\n      dup4\n        /* \"#utility.yul\":8479:8485   */\n      dup4\n        /* \"#utility.yul\":8445:8491   */\n      tag_269\n      jump\t// in\n    tag_392:\n        /* \"#utility.yul\":8523:8527   */\n      0x20\n        /* \"#utility.yul\":8518:8521   */\n      dup4\n        /* \"#utility.yul\":8514:8528   */\n      add\n        /* \"#utility.yul\":8500:8528   */\n      swap1\n      pop\n        /* \"#utility.yul\":8355:8534   */\n      swap3\n      swap2\n      pop\n      pop\n      jump\t// out\n        /* \"#utility.yul\":8540:8653   */\n    tag_271:\n        /* \"#utility.yul\":8610:8614   */\n      0x00\n        /* \"#utility.yul\":8642:8646   */\n      0x20\n        /* \"#utility.yul\":8637:8640   */\n      dup3\n        /* \"#utility.yul\":8633:8647   */\n      add\n        /* \"#utility.yul\":8625:8647   */\n      swap1\n      pop\n        /* \"#utility.yul\":8540:8653   */\n      swap2\n      swap1\n      pop\n      jump\t// out\n        /* \"#utility.yul\":8689:9401   */\n    tag_272:\n        /* \"#utility.yul\":8798:8801   */\n      0x00\n        /* \"#utility.yul\":8827:8881   */\n      tag_395\n        /* \"#utility.yul\":8875:8880   */\n      dup3\n        /* \"#utility.yul\":8827:8881   */\n      tag_266\n      jump\t// in\n    tag_395:\n        /* \"#utility.yul\":8897:8973   */\n      tag_396\n        /* \"#utility.yul\":8966:8972   */\n      dup2\n        /* \"#utility.yul\":8961:8964   */\n      dup6\n        /* \"#utility.yul\":8897:8973   */\n      tag_267\n      jump\t// in\n    tag_396:\n        /* \"#utility.yul\":8890:8973   */\n      swap4\n      pop\n        /* \"#utility.yul\":8997:9053   */\n      tag_397\n        /* \"#utility.yul\":9047:9052   */\n      dup4\n        /* \"#utility.yul\":8997:9053   */\n      tag_268\n      jump\t// in\n    tag_397:\n        /* \"#utility.yul\":9076:9083   */\n      dup1\n        /* \"#utility.yul\":9107:9108   */\n      0x00\n        /* \"#utility.yul\":9092:9376   */\n    tag_398:\n        /* \"#utility.yul\":9117:9123   */\n      dup4\n        /* \"#utility.yul\":9114:9115   */\n      dup2\n        /* \"#utility.yul\":9111:9124   */\n      lt\n        /* \"#utility.yul\":9092:9376   */\n      iszero\n      tag_400\n      jumpi\n        /* \"#utility.yul\":9193:9199   */\n      dup2\n        /* \"#utility.yul\":9187:9200   */\n      mload\n        /* \"#utility.yul\":9220:9283   */\n      tag_401\n        /* \"#utility.yul\":9279:9282   */\n      dup9\n        /* \"#utility.yul\":9264:9277   */\n      dup3\n        /* \"#utility.yul\":9220:9283   */\n      tag_270\n      jump\t// in\n    tag_401:\n        /* \"#utility.yul\":9213:9283   */\n      swap8\n      pop\n        /* \"#utility.yul\":9306:9366   */\n      tag_402\n        /* \"#utility.yul\":9359:9365   */\n      dup4\n        /* \"#utility.yul\":9306:9366   */\n      tag_271\n      jump\t// in\n    tag_402:\n        /* \"#utility.yul\":9296:9366   */\n      swap3\n      pop\n        /* \"#utility.yul\":9152:9376   */\n      pop\n        /* \"#utility.yul\":9139:9140   */\n      0x01\n        /* \"#utility.yul\":9136:9137   */\n      dup2\n        /* \"#utility.yul\":9132:9141   */\n      add\n        /* \"#utility.yul\":9127:9141   */\n      swap1\n      pop\n        /* \"#utility.yul\":9092:9376   */\n      jump(tag_398)\n    tag_400:\n        /* \"#utility.yul\":9096:9110   */\n      pop\n        /* \"#utility.yul\":9392:9395   */\n      dup6\n        /* \"#utility.yul\":9385:9395   */\n      swap4\n      pop\n        /* \"#utility.yul\":8803:9401   */\n      pop\n      pop\n      pop\n        /* \"#utility.yul\":8689:9401   */\n      swap3\n      swap2\n      pop\n      pop\n      jump\t// out\n        /* \"#utility.yul\":9407:9566   */\n    tag_273:\n        /* \"#utility.yul\":9481:9492   */\n      0x00\n        /* \"#utility.yul\":9515:9521   */\n      dup3\n        /* \"#utility.yul\":9510:9513   */\n      dup3\n        /* \"#utility.yul\":9503:9522   */\n      mstore\n        /* \"#utility.yul\":9555:9559   */\n      0x20\n        /* \"#utility.yul\":9550:9553   */\n      dup3\n        /* \"#utility.yul\":9546:9560   */\n      add\n        /* \"#utility.yul\":9531:9560   */\n      swap1\n      pop\n        /* \"#utility.yul\":9407:9566   */\n      swap3\n      swap2\n      pop\n      pop\n      jump\t// out\n        /* \"#utility.yul\":9572:9929   */\n    tag_274:\n        /* \"#utility.yul\":9650:9653   */\n      0x00\n        /* \"#utility.yul\":9678:9717   */\n      tag_405\n        /* \"#utility.yul\":9711:9716   */\n      dup3\n        /* \"#utility.yul\":9678:9717   */\n      tag_240\n      jump\t// in\n    tag_405:\n        /* \"#utility.yul\":9733:9794   */\n      tag_406\n        /* \"#utility.yul\":9787:9793   */\n      dup2\n        /* \"#utility.yul\":9782:9785   */\n      dup6\n        /* \"#utility.yul\":9733:9794   */\n      tag_273\n      jump\t// in\n    tag_406:\n        /* \"#utility.yul\":9726:9794   */\n      swap4\n      pop\n        /* \"#utility.yul\":9803:9868   */\n      tag_407\n        /* \"#utility.yul\":9861:9867   */\n      dup2\n        /* \"#utility.yul\":9856:9859   */\n      dup6\n        /* \"#utility.yul\":9849:9853   */\n      0x20\n        /* \"#utility.yul\":9842:9847   */\n      dup7\n        /* \"#utility.yul\":9838:9854   */\n      add\n        /* \"#utility.yul\":9803:9868   */\n      tag_242\n      jump\t// in\n    tag_407:\n        /* \"#utility.yul\":9893:9922   */\n      tag_408\n        /* \"#utility.yul\":9915:9921   */\n      dup2\n        /* \"#utility.yul\":9893:9922   */\n      tag_243\n      jump\t// in\n    tag_408:\n        /* \"#utility.yul\":9888:9891   */\n      dup5\n        /* \"#utility.yul\":9884:9923   */\n      add\n        /* \"#utility.yul\":9877:9923   */\n      swap2\n      pop\n        /* \"#utility.yul\":9654:9929   */\n      pop\n        /* \"#utility.yul\":9572:9929   */\n      swap3\n      swap2\n      pop\n      pop\n      jump\t// out\n        /* \"#utility.yul\":9935:10043   */\n    tag_275:\n        /* \"#utility.yul\":10012:10036   */\n      tag_410\n        /* \"#utility.yul\":10030:10035   */\n      dup2\n        /* \"#utility.yul\":10012:10036   */\n      tag_252\n      jump\t// in\n    tag_410:\n        /* \"#utility.yul\":10007:10010   */\n      dup3\n        /* \"#utility.yul\":10000:10037   */\n      mstore\n        /* \"#utility.yul\":9935:10043   */\n      pop\n      pop\n      jump\t// out\n        /* \"#utility.yul\":10049:10148   */\n    tag_276:\n        /* \"#utility.yul\":10120:10141   */\n      tag_412\n        /* \"#utility.yul\":10135:10140   */\n      dup2\n        /* \"#utility.yul\":10120:10141   */\n      tag_255\n      jump\t// in\n    tag_412:\n        /* \"#utility.yul\":10115:10118   */\n      dup3\n        /* \"#utility.yul\":10108:10142   */\n      mstore\n        /* \"#utility.yul\":10049:10148   */\n      pop\n      pop\n      jump\t// out\n        /* \"#utility.yul\":10240:12210   */\n    tag_277:\n        /* \"#utility.yul\":10371:10374   */\n      0x00\n        /* \"#utility.yul\":10407:10413   */\n      0x0120\n        /* \"#utility.yul\":10402:10405   */\n      dup4\n        /* \"#utility.yul\":10398:10414   */\n      add\n        /* \"#utility.yul\":10498:10502   */\n      0x00\n        /* \"#utility.yul\":10491:10496   */\n      dup4\n        /* \"#utility.yul\":10487:10503   */\n      add\n        /* \"#utility.yul\":10481:10504   */\n      mload\n        /* \"#utility.yul\":10551:10554   */\n      dup5\n        /* \"#utility.yul\":10545:10549   */\n      dup3\n        /* \"#utility.yul\":10541:10555   */\n      sub\n        /* \"#utility.yul\":10534:10538   */\n      0x00\n        /* \"#utility.yul\":10529:10532   */\n      dup7\n        /* \"#utility.yul\":10525:10539   */\n      add\n        /* \"#utility.yul\":10518:10556   */\n      mstore\n        /* \"#utility.yul\":10577:10680   */\n      tag_414\n        /* \"#utility.yul\":10675:10679   */\n      dup3\n        /* \"#utility.yul\":10661:10673   */\n      dup3\n        /* \"#utility.yul\":10577:10680   */\n      tag_272\n      jump\t// in\n    tag_414:\n        /* \"#utility.yul\":10569:10680   */\n      swap2\n      pop\n        /* \"#utility.yul\":10424:10691   */\n      pop\n        /* \"#utility.yul\":10778:10782   */\n      0x20\n        /* \"#utility.yul\":10771:10776   */\n      dup4\n        /* \"#utility.yul\":10767:10783   */\n      add\n        /* \"#utility.yul\":10761:10784   */\n      mload\n        /* \"#utility.yul\":10831:10834   */\n      dup5\n        /* \"#utility.yul\":10825:10829   */\n      dup3\n        /* \"#utility.yul\":10821:10835   */\n      sub\n        /* \"#utility.yul\":10814:10818   */\n      0x20\n        /* \"#utility.yul\":10809:10812   */\n      dup7\n        /* \"#utility.yul\":10805:10819   */\n      add\n        /* \"#utility.yul\":10798:10836   */\n      mstore\n        /* \"#utility.yul\":10857:10930   */\n      tag_415\n        /* \"#utility.yul\":10925:10929   */\n      dup3\n        /* \"#utility.yul\":10911:10923   */\n      dup3\n        /* \"#utility.yul\":10857:10930   */\n      tag_274\n      jump\t// in\n    tag_415:\n        /* \"#utility.yul\":10849:10930   */\n      swap2\n      pop\n        /* \"#utility.yul\":10701:10941   */\n      pop\n        /* \"#utility.yul\":11025:11029   */\n      0x40\n        /* \"#utility.yul\":11018:11023   */\n      dup4\n        /* \"#utility.yul\":11014:11030   */\n      add\n        /* \"#utility.yul\":11008:11031   */\n      mload\n        /* \"#utility.yul\":11044:11107   */\n      tag_416\n        /* \"#utility.yul\":11101:11105   */\n      0x40\n        /* \"#utility.yul\":11096:11099   */\n      dup7\n        /* \"#utility.yul\":11092:11106   */\n      add\n        /* \"#utility.yul\":11078:11090   */\n      dup3\n        /* \"#utility.yul\":11044:11107   */\n      tag_275\n      jump\t// in\n    tag_416:\n        /* \"#utility.yul\":10951:11117   */\n      pop\n        /* \"#utility.yul\":11205:11209   */\n      0x60\n        /* \"#utility.yul\":11198:11203   */\n      dup4\n        /* \"#utility.yul\":11194:11210   */\n      add\n        /* \"#utility.yul\":11188:11211   */\n      mload\n        /* \"#utility.yul\":11224:11287   */\n      tag_417\n        /* \"#utility.yul\":11281:11285   */\n      0x60\n        /* \"#utility.yul\":11276:11279   */\n      dup7\n        /* \"#utility.yul\":11272:11286   */\n      add\n        /* \"#utility.yul\":11258:11270   */\n      dup3\n        /* \"#utility.yul\":11224:11287   */\n      tag_275\n      jump\t// in\n    tag_417:\n        /* \"#utility.yul\":11127:11297   */\n      pop\n        /* \"#utility.yul\":11383:11387   */\n      0x80\n        /* \"#utility.yul\":11376:11381   */\n      dup4\n        /* \"#utility.yul\":11372:11388   */\n      add\n        /* \"#utility.yul\":11366:11389   */\n      mload\n        /* \"#utility.yul\":11402:11465   */\n      tag_418\n        /* \"#utility.yul\":11459:11463   */\n      0x80\n        /* \"#utility.yul\":11454:11457   */\n      dup7\n        /* \"#utility.yul\":11450:11464   */\n      add\n        /* \"#utility.yul\":11436:11448   */\n      dup3\n        /* \"#utility.yul\":11402:11465   */\n      tag_275\n      jump\t// in\n    tag_418:\n        /* \"#utility.yul\":11307:11475   */\n      pop\n        /* \"#utility.yul\":11565:11569   */\n      0xa0\n        /* \"#utility.yul\":11558:11563   */\n      dup4\n        /* \"#utility.yul\":11554:11570   */\n      add\n        /* \"#utility.yul\":11548:11571   */\n      mload\n        /* \"#utility.yul\":11584:11647   */\n      tag_419\n        /* \"#utility.yul\":11641:11645   */\n      0xa0\n        /* \"#utility.yul\":11636:11639   */\n      dup7\n        /* \"#utility.yul\":11632:11646   */\n      add\n        /* \"#utility.yul\":11618:11630   */\n      dup3\n        /* \"#utility.yul\":11584:11647   */\n      tag_275\n      jump\t// in\n    tag_419:\n        /* \"#utility.yul\":11485:11657   */\n      pop\n        /* \"#utility.yul\":11747:11751   */\n      0xc0\n        /* \"#utility.yul\":11740:11745   */\n      dup4\n        /* \"#utility.yul\":11736:11752   */\n      add\n        /* \"#utility.yul\":11730:11753   */\n      mload\n        /* \"#utility.yul\":11766:11829   */\n      tag_420\n        /* \"#utility.yul\":11823:11827   */\n      0xc0\n        /* \"#utility.yul\":11818:11821   */\n      dup7\n        /* \"#utility.yul\":11814:11828   */\n      add\n        /* \"#utility.yul\":11800:11812   */\n      dup3\n        /* \"#utility.yul\":11766:11829   */\n      tag_275\n      jump\t// in\n    tag_420:\n        /* \"#utility.yul\":11667:11839   */\n      pop\n        /* \"#utility.yul\":11923:11927   */\n      0xe0\n        /* \"#utility.yul\":11916:11921   */\n      dup4\n        /* \"#utility.yul\":11912:11928   */\n      add\n        /* \"#utility.yul\":11906:11929   */\n      mload\n        /* \"#utility.yul\":11942:11999   */\n      tag_421\n        /* \"#utility.yul\":11993:11997   */\n      0xe0\n        /* \"#utility.yul\":11988:11991   */\n      dup7\n        /* \"#utility.yul\":11984:11998   */\n      add\n        /* \"#utility.yul\":11970:11982   */\n      dup3\n        /* \"#utility.yul\":11942:11999   */\n      tag_276\n      jump\t// in\n    tag_421:\n        /* \"#utility.yul\":11849:12009   */\n      pop\n        /* \"#utility.yul\":12093:12099   */\n      0x0100\n        /* \"#utility.yul\":12086:12091   */\n      dup4\n        /* \"#utility.yul\":12082:12100   */\n      add\n        /* \"#utility.yul\":12076:12101   */\n      mload\n        /* \"#utility.yul\":12114:12173   */\n      tag_422\n        /* \"#utility.yul\":12165:12171   */\n      0x0100\n        /* \"#utility.yul\":12160:12163   */\n      dup7\n        /* \"#utility.yul\":12156:12172   */\n      add\n        /* \"#utility.yul\":12142:12154   */\n      dup3\n        /* \"#utility.yul\":12114:12173   */\n      tag_276\n      jump\t// in\n    tag_422:\n        /* \"#utility.yul\":12019:12183   */\n      pop\n        /* \"#utility.yul\":12200:12204   */\n      dup1\n        /* \"#utility.yul\":12193:12204   */\n      swap2\n      pop\n        /* \"#utility.yul\":10376:12210   */\n      pop\n        /* \"#utility.yul\":10240:12210   */\n      swap3\n      swap2\n      pop\n      pop\n      jump\t// out\n        /* \"#utility.yul\":12216:12613   */\n    tag_76:\n        /* \"#utility.yul\":12371:12375   */\n      0x00\n        /* \"#utility.yul\":12409:12411   */\n      0x20\n        /* \"#utility.yul\":12398:12407   */\n      dup3\n        /* \"#utility.yul\":12394:12412   */\n      add\n        /* \"#utility.yul\":12386:12412   */\n      swap1\n      pop\n        /* \"#utility.yul\":12458:12467   */\n      dup2\n        /* \"#utility.yul\":12452:12456   */\n      dup2\n        /* \"#utility.yul\":12448:12468   */\n      sub\n        /* \"#utility.yul\":12444:12445   */\n      0x00\n        /* \"#utility.yul\":12433:12442   */\n      dup4\n        /* \"#utility.yul\":12429:12446   */\n      add\n        /* \"#utility.yul\":12422:12469   */\n      mstore\n        /* \"#utility.yul\":12486:12606   */\n      tag_424\n        /* \"#utility.yul\":12601:12605   */\n      dup2\n        /* \"#utility.yul\":12592:12598   */\n      dup5\n        /* \"#utility.yul\":12486:12606   */\n      tag_277\n      jump\t// in\n    tag_424:\n        /* \"#utility.yul\":12478:12606   */\n      swap1\n      pop\n        /* \"#utility.yul\":12216:12613   */\n      swap3\n      swap2\n      pop\n      pop\n      jump\t// out\n        /* \"#utility.yul\":12619:13093   */\n    tag_86:\n        /* \"#utility.yul\":12687:12693   */\n      0x00\n        /* \"#utility.yul\":12695:12701   */\n      dup1\n        /* \"#utility.yul\":12744:12746   */\n      0x40\n        /* \"#utility.yul\":12732:12741   */\n      dup4\n        /* \"#utility.yul\":12723:12730   */\n      dup6\n        /* \"#utility.yul\":12719:12742   */\n      sub\n        /* \"#utility.yul\":12715:12747   */\n      slt\n        /* \"#utility.yul\":12712:12831   */\n      iszero\n      tag_426\n      jumpi\n        /* \"#utility.yul\":12750:12829   */\n      tag_427\n      tag_246\n      jump\t// in\n    tag_427:\n        /* \"#utility.yul\":12712:12831   */\n    tag_426:\n        /* \"#utility.yul\":12870:12871   */\n      0x00\n        /* \"#utility.yul\":12895:12948   */\n      tag_428\n        /* \"#utility.yul\":12940:12947   */\n      dup6\n        /* \"#utility.yul\":12931:12937   */\n      dup3\n        /* \"#utility.yul\":12920:12929   */\n      dup7\n        /* \"#utility.yul\":12916:12938   */\n      add\n        /* \"#utility.yul\":12895:12948   */\n      tag_251\n      jump\t// in\n    tag_428:\n        /* \"#utility.yul\":12885:12948   */\n      swap3\n      pop\n        /* \"#utility.yul\":12841:12958   */\n      pop\n        /* \"#utility.yul\":12997:12999   */\n      0x20\n        /* \"#utility.yul\":13023:13076   */\n      tag_429\n        /* \"#utility.yul\":13068:13075   */\n      dup6\n        /* \"#utility.yul\":13059:13065   */\n      dup3\n        /* \"#utility.yul\":13048:13057   */\n      dup7\n        /* \"#utility.yul\":13044:13066   */\n      add\n        /* \"#utility.yul\":13023:13076   */\n      tag_251\n      jump\t// in\n    tag_429:\n        /* \"#utility.yul\":13013:13076   */\n      swap2\n      pop\n        /* \"#utility.yul\":12968:13086   */\n      pop\n        /* \"#utility.yul\":12619:13093   */\n      swap3\n      pop\n      swap3\n      swap1\n      pop\n      jump\t// out\n        /* \"#utility.yul\":13099:13279   */\n    tag_278:\n        /* \"#utility.yul\":13147:13224   */\n      0x4e487b7100000000000000000000000000000000000000000000000000000000\n        /* \"#utility.yul\":13144:13145   */\n      0x00\n        /* \"#utility.yul\":13137:13225   */\n      mstore\n        /* \"#utility.yul\":13244:13248   */\n      0x22\n        /* \"#utility.yul\":13241:13242   */\n      0x04\n        /* \"#utility.yul\":13234:13249   */\n      mstore\n        /* \"#utility.yul\":13268:13272   */\n      0x24\n        /* \"#utility.yul\":13265:13266   */\n      0x00\n        /* \"#utility.yul\":13258:13273   */\n      revert\n        /* \"#utility.yul\":13285:13605   */\n    tag_91:\n        /* \"#utility.yul\":13329:13335   */\n      0x00\n        /* \"#utility.yul\":13366:13367   */\n      0x02\n        /* \"#utility.yul\":13360:13364   */\n      dup3\n        /* \"#utility.yul\":13356:13368   */\n      div\n        /* \"#utility.yul\":13346:13368   */\n      swap1\n      pop\n        /* \"#utility.yul\":13413:13414   */\n      0x01\n        /* \"#utility.yul\":13407:13411   */\n      dup3\n        /* \"#utility.yul\":13403:13415   */\n      and\n        /* \"#utility.yul\":13434:13452   */\n      dup1\n        /* \"#utility.yul\":13424:13505   */\n      tag_432\n      jumpi\n        /* \"#utility.yul\":13490:13494   */\n      0x7f\n        /* \"#utility.yul\":13482:13488   */\n      dup3\n        /* \"#utility.yul\":13478:13495   */\n      and\n        /* \"#utility.yul\":13468:13495   */\n      swap2\n      pop\n        /* \"#utility.yul\":13424:13505   */\n    tag_432:\n        /* \"#utility.yul\":13552:13554   */\n      0x20\n        /* \"#utility.yul\":13544:13550   */\n      dup3\n        /* \"#utility.yul\":13541:13555   */\n      lt\n        /* \"#utility.yul\":13521:13539   */\n      dup2\n        /* \"#utility.yul\":13518:13556   */\n      sub\n        /* \"#utility.yul\":13515:13599   */\n      tag_433\n      jumpi\n        /* \"#utility.yul\":13571:13589   */\n      tag_434\n      tag_278\n      jump\t// in\n    tag_434:\n        /* \"#utility.yul\":13515:13599   */\n    tag_433:\n        /* \"#utility.yul\":13336:13605   */\n      pop\n        /* \"#utility.yul\":13285:13605   */\n      swap2\n      swap1\n      pop\n      jump\t// out\n        /* \"#utility.yul\":13611:13791   */\n    tag_279:\n        /* \"#utility.yul\":13659:13736   */\n      0x4e487b7100000000000000000000000000000000000000000000000000000000\n        /* \"#utility.yul\":13656:13657   */\n      0x00\n        /* \"#utility.yul\":13649:13737   */\n      mstore\n        /* \"#utility.yul\":13756:13760   */\n      0x11\n        /* \"#utility.yul\":13753:13754   */\n      0x04\n        /* \"#utility.yul\":13746:13761   */\n      mstore\n        /* \"#utility.yul\":13780:13784   */\n      0x24\n        /* \"#utility.yul\":13777:13778   */\n      0x00\n        /* \"#utility.yul\":13770:13785   */\n      revert\n        /* \"#utility.yul\":13797:13988   */\n    tag_112:\n        /* \"#utility.yul\":13837:13840   */\n      0x00\n        /* \"#utility.yul\":13856:13876   */\n      tag_437\n        /* \"#utility.yul\":13874:13875   */\n      dup3\n        /* \"#utility.yul\":13856:13876   */\n      tag_252\n      jump\t// in\n    tag_437:\n        /* \"#utility.yul\":13851:13876   */\n      swap2\n      pop\n        /* \"#utility.yul\":13890:13910   */\n      tag_438\n        /* \"#utility.yul\":13908:13909   */\n      dup4\n        /* \"#utility.yul\":13890:13910   */\n      tag_252\n      jump\t// in\n    tag_438:\n        /* \"#utility.yul\":13885:13910   */\n      swap3\n      pop\n        /* \"#utility.yul\":13933:13934   */\n      dup3\n        /* \"#utility.yul\":13930:13931   */\n      dup3\n        /* \"#utility.yul\":13926:13935   */\n      add\n        /* \"#utility.yul\":13919:13935   */\n      swap1\n      pop\n        /* \"#utility.yul\":13954:13957   */\n      dup1\n        /* \"#utility.yul\":13951:13952   */\n      dup3\n        /* \"#utility.yul\":13948:13958   */\n      gt\n        /* \"#utility.yul\":13945:13981   */\n      iszero\n      tag_439\n      jumpi\n        /* \"#utility.yul\":13961:13979   */\n      tag_440\n      tag_279\n      jump\t// in\n    tag_440:\n        /* \"#utility.yul\":13945:13981   */\n    tag_439:\n        /* \"#utility.yul\":13797:13988   */\n      swap3\n      swap2\n      pop\n      pop\n      jump\t// out\n        /* \"#utility.yul\":13994:14091   */\n    tag_280:\n        /* \"#utility.yul\":14053:14059   */\n      0x00\n        /* \"#utility.yul\":14081:14084   */\n      dup3\n        /* \"#utility.yul\":14071:14084   */\n      swap1\n      pop\n        /* \"#utility.yul\":13994:14091   */\n      swap3\n      swap2\n      pop\n      pop\n      jump\t// out\n        /* \"#utility.yul\":14097:14277   */\n    tag_281:\n        /* \"#utility.yul\":14145:14222   */\n      0x4e487b7100000000000000000000000000000000000000000000000000000000\n        /* \"#utility.yul\":14142:14143   */\n      0x00\n        /* \"#utility.yul\":14135:14223   */\n      mstore\n        /* \"#utility.yul\":14242:14246   */\n      0x41\n        /* \"#utility.yul\":14239:14240   */\n      0x04\n        /* \"#utility.yul\":14232:14247   */\n      mstore\n        /* \"#utility.yul\":14266:14270   */\n      0x24\n        /* \"#utility.yul\":14263:14264   */\n      0x00\n        /* \"#utility.yul\":14256:14271   */\n      revert\n        /* \"#utility.yul\":14283:14424   */\n    tag_282:\n        /* \"#utility.yul\":14332:14336   */\n      0x00\n        /* \"#utility.yul\":14355:14358   */\n      dup2\n        /* \"#utility.yul\":14347:14358   */\n      swap1\n      pop\n        /* \"#utility.yul\":14378:14381   */\n      dup2\n        /* \"#utility.yul\":14375:14376   */\n      0x00\n        /* \"#utility.yul\":14368:14382   */\n      mstore\n        /* \"#utility.yul\":14412:14416   */\n      0x20\n        /* \"#utility.yul\":14409:14410   */\n      0x00\n        /* \"#utility.yul\":14399:14417   */\n      keccak256\n        /* \"#utility.yul\":14391:14417   */\n      swap1\n      pop\n        /* \"#utility.yul\":14283:14424   */\n      swap2\n      swap1\n      pop\n      jump\t// out\n        /* \"#utility.yul\":14430:14523   */\n    tag_283:\n        /* \"#utility.yul\":14467:14473   */\n      0x00\n        /* \"#utility.yul\":14514:14516   */\n      0x20\n        /* \"#utility.yul\":14509:14511   */\n      0x1f\n        /* \"#utility.yul\":14502:14507   */\n      dup4\n        /* \"#utility.yul\":14498:14512   */\n      add\n        /* \"#utility.yul\":14494:14517   */\n      div\n        /* \"#utility.yul\":14484:14517   */\n      swap1\n      pop\n        /* \"#utility.yul\":14430:14523   */\n      swap2\n      swap1\n      pop\n      jump\t// out\n        /* \"#utility.yul\":14529:14636   */\n    tag_284:\n        /* \"#utility.yul\":14573:14581   */\n      0x00\n        /* \"#utility.yul\":14623:14628   */\n      dup3\n        /* \"#utility.yul\":14617:14621   */\n      dup3\n        /* \"#utility.yul\":14613:14629   */\n      shl\n        /* \"#utility.yul\":14592:14629   */\n      swap1\n      pop\n        /* \"#utility.yul\":14529:14636   */\n      swap3\n      swap2\n      pop\n      pop\n      jump\t// out\n        /* \"#utility.yul\":14642:15035   */\n    tag_285:\n        /* \"#utility.yul\":14711:14717   */\n      0x00\n        /* \"#utility.yul\":14761:14762   */\n      0x08\n        /* \"#utility.yul\":14749:14759   */\n      dup4\n        /* \"#utility.yul\":14745:14763   */\n      mul\n        /* \"#utility.yul\":14784:14881   */\n      tag_447\n        /* \"#utility.yul\":14814:14880   */\n      0xffffffffffffffffffffffffffffffffffffffffffffffffffffffffffffffff\n        /* \"#utility.yul\":14803:14812   */\n      dup3\n        /* \"#utility.yul\":14784:14881   */\n      tag_284\n      jump\t// in\n    tag_447:\n        /* \"#utility.yul\":14902:14941   */\n      tag_448\n        /* \"#utility.yul\":14932:14940   */\n      dup7\n        /* \"#utility.yul\":14921:14930   */\n      dup4\n        /* \"#utility.yul\":14902:14941   */\n      tag_284\n      jump\t// in\n    tag_448:\n        /* \"#utility.yul\":14890:14941   */\n      swap6\n      pop\n        /* \"#utility.yul\":14974:14978   */\n      dup1\n        /* \"#utility.yul\":14970:14979   */\n      not\n        /* \"#utility.yul\":14963:14968   */\n      dup5\n        /* \"#utility.yul\":14959:14980   */\n      and\n        /* \"#utility.yul\":14950:14980   */\n      swap4\n      pop\n        /* \"#utility.yul\":15023:15027   */\n      dup1\n        /* \"#utility.yul\":15013:15021   */\n      dup7\n        /* \"#utility.yul\":15009:15028   */\n      and\n        /* \"#utility.yul\":15002:15007   */\n      dup5\n        /* \"#utility.yul\":14999:15029   */\n      or\n        /* \"#utility.yul\":14989:15029   */\n      swap3\n      pop\n        /* \"#utility.yul\":14718:15035   */\n      pop\n      pop\n        /* \"#utility.yul\":14642:15035   */\n      swap4\n      swap3\n      pop\n      pop\n      pop\n      jump\t// out\n        /* \"#utility.yul\":15041:15101   */\n    tag_286:\n        /* \"#utility.yul\":15069:15072   */\n      0x00\n        /* \"#utility.yul\":15090:15095   */\n      dup2\n        /* \"#utility.yul\":15083:15095   */\n      swap1\n      pop\n        /* \"#utility.yul\":15041:15101   */\n      swap2\n      swap1\n      pop\n      jump\t// out\n        /* \"#utility.yul\":15107:15249   */\n    tag_287:\n        /* \"#utility.yul\":15157:15166   */\n      0x00\n        /* \"#utility.yul\":15190:15243   */\n      tag_451\n        /* \"#utility.yul\":15208:15242   */\n      tag_452\n        /* \"#utility.yul\":15217:15241   */\n      tag_453\n        /* \"#utility.yul\":15235:15240   */\n      dup5\n        /* \"#utility.yul\":15217:15241   */\n      tag_252\n      jump\t// in\n    tag_453:\n        /* \"#utility.yul\":15208:15242   */\n      tag_286\n      jump\t// in\n    tag_452:\n        /* \"#utility.yul\":15190:15243   */\n      tag_252\n      jump\t// in\n    tag_451:\n        /* \"#utility.yul\":15177:15243   */\n      swap1\n      pop\n        /* \"#utility.yul\":15107:15249   */\n      swap2\n      swap1\n      pop\n      jump\t// out\n        /* \"#utility.yul\":15255:15330   */\n    tag_288:\n        /* \"#utility.yul\":15298:15301   */\n      0x00\n        /* \"#utility.yul\":15319:15324   */\n      dup2\n        /* \"#utility.yul\":15312:15324   */\n      swap1\n      pop\n        /* \"#utility.yul\":15255:15330   */\n      swap2\n      swap1\n      pop\n      jump\t// out\n        /* \"#utility.yul\":15336:15605   */\n    tag_289:\n        /* \"#utility.yul\":15446:15485   */\n      tag_456\n        /* \"#utility.yul\":15477:15484   */\n      dup4\n        /* \"#utility.yul\":15446:15485   */\n      tag_287\n      jump\t// in\n    tag_456:\n        /* \"#utility.yul\":15507:15598   */\n      tag_457\n        /* \"#utility.yul\":15556:15597   */\n      tag_458\n        /* \"#utility.yul\":15580:15596   */\n      dup3\n        /* \"#utility.yul\":15556:15597   */\n      tag_288\n      jump\t// in\n    tag_458:\n        /* \"#utility.yul\":15548:15554   */\n      dup5\n        /* \"#utility.yul\":15541:15545   */\n      dup5\n        /* \"#utility.yul\":15535:15546   */\n      sload\n        /* \"#utility.yul\":15507:15598   */\n      tag_285\n      jump\t// in\n    tag_457:\n        /* \"#utility.yul\":15501:15505   */\n      dup3\n        /* \"#utility.yul\":15494:15599   */\n      sstore\n        /* \"#utility.yul\":15412:15605   */\n      pop\n        /* \"#utility.yul\":15336:15605   */\n      pop\n      pop\n      pop\n      jump\t// out\n        /* \"#utility.yul\":15611:15684   */\n    tag_290:\n        /* \"#utility.yul\":15656:15659   */\n      0x00\n        /* \"#utility.yul\":15611:15684   */\n      swap1\n      jump\t// out\n        /* \"#utility.yul\":15690:15879   */\n    tag_291:\n        /* \"#utility.yul\":15767:15799   */\n      tag_461\n      tag_290\n      jump\t// in\n    tag_461:\n        /* \"#utility.yul\":15808:15873   */\n      tag_462\n        /* \"#utility.yul\":15866:15872   */\n      dup2\n        /* \"#utility.yul\":15858:15864   */\n      dup5\n        /* \"#utility.yul\":15852:15856   */\n      dup5\n        /* \"#utility.yul\":15808:15873   */\n      tag_289\n      jump\t// in\n    tag_462:\n        /* \"#utility.yul\":15743:15879   */\n      pop\n        /* \"#utility.yul\":15690:15879   */\n      pop\n      pop\n      jump\t// out\n        /* \"#utility.yul\":15885:16071   */\n    tag_292:\n        /* \"#utility.yul\":15945:16065   */\n    tag_464:\n        /* \"#utility.yul\":15962:15965   */\n      dup2\n        /* \"#utility.yul\":15955:15960   */\n      dup2\n        /* \"#utility.yul\":15952:15966   */\n      lt\n        /* \"#utility.yul\":15945:16065   */\n      iszero\n      tag_466\n      jumpi\n        /* \"#utility.yul\":16016:16055   */\n      tag_467\n        /* \"#utility.yul\":16053:16054   */\n      0x00\n        /* \"#utility.yul\":16046:16051   */\n      dup3\n        /* \"#utility.yul\":16016:16055   */\n      tag_291\n      jump\t// in\n    tag_467:\n        /* \"#utility.yul\":15989:15990   */\n      0x01\n        /* \"#utility.yul\":15982:15987   */\n      dup2\n        /* \"#utility.yul\":15978:15991   */\n      add\n        /* \"#utility.yul\":15969:15991   */\n      swap1\n      pop\n        /* \"#utility.yul\":15945:16065   */\n      jump(tag_464)\n    tag_466:\n        /* \"#utility.yul\":15885:16071   */\n      pop\n      pop\n      jump\t// out\n        /* \"#utility.yul\":16077:16620   */\n    tag_293:\n        /* \"#utility.yul\":16178:16180   */\n      0x1f\n        /* \"#utility.yul\":16173:16176   */\n      dup3\n        /* \"#utility.yul\":16170:16181   */\n      gt\n        /* \"#utility.yul\":16167:16613   */\n      iszero\n      tag_469\n      jumpi\n        /* \"#utility.yul\":16212:16250   */\n      tag_470\n        /* \"#utility.yul\":16244:16249   */\n      dup2\n        /* \"#utility.yul\":16212:16250   */\n      tag_282\n      jump\t// in\n    tag_470:\n        /* \"#utility.yul\":16296:16325   */\n      tag_471\n        /* \"#utility.yul\":16314:16324   */\n      dup5\n        /* \"#utility.yul\":16296:16325   */\n      tag_283\n      jump\t// in\n    tag_471:\n        /* \"#utility.yul\":16286:16294   */\n      dup2\n        /* \"#utility.yul\":16282:16326   */\n      add\n        /* \"#utility.yul\":16479:16481   */\n      0x20\n        /* \"#utility.yul\":16467:16477   */\n      dup6\n        /* \"#utility.yul\":16464:16482   */\n      lt\n        /* \"#utility.yul\":16461:16510   */\n      iszero\n      tag_472\n      jumpi\n        /* \"#utility.yul\":16500:16508   */\n      dup2\n        /* \"#utility.yul\":16485:16508   */\n      swap1\n      pop\n        /* \"#utility.yul\":16461:16510   */\n    tag_472:\n        /* \"#utility.yul\":16523:16603   */\n      tag_473\n        /* \"#utility.yul\":16579:16601   */\n      tag_474\n        /* \"#utility.yul\":16597:16600   */\n      dup6\n        /* \"#utility.yul\":16579:16601   */\n      tag_283\n      jump\t// in\n    tag_474:\n        /* \"#utility.yul\":16569:16577   */\n      dup4\n        /* \"#utility.yul\":16565:16602   */\n      add\n        /* \"#utility.yul\":16552:16563   */\n      dup3\n        /* \"#utility.yul\":16523:16603   */\n      tag_292\n      jump\t// in\n    tag_473:\n        /* \"#utility.yul\":16182:16613   */\n      pop\n      pop\n        /* \"#utility.yul\":16167:16613   */\n    tag_469:\n        /* \"#utility.yul\":16077:16620   */\n      pop\n      pop\n      pop\n      jump\t// out\n        /* \"#utility.yul\":16626:16743   */\n    tag_294:\n        /* \"#utility.yul\":16680:16688   */\n      0x00\n        /* \"#utility.yul\":16730:16735   */\n      dup3\n        /* \"#utility.yul\":16724:16728   */\n      dup3\n        /* \"#utility.yul\":16720:16736   */\n      shr\n        /* \"#utility.yul\":16699:16736   */\n      swap1\n      pop\n        /* \"#utility.yul\":16626:16743   */\n      swap3\n      swap2\n      pop\n      pop\n      jump\t// out\n        /* \"#utility.yul\":16749:16918   */\n    tag_295:\n        /* \"#utility.yul\":16793:16799   */\n      0x00\n        /* \"#utility.yul\":16826:16877   */\n      tag_477\n        /* \"#utility.yul\":16874:16875   */\n      0x00\n        /* \"#utility.yul\":16870:16876   */\n      not\n        /* \"#utility.yul\":16862:16867   */\n      dup5\n        /* \"#utility.yul\":16859:16860   */\n      0x08\n        /* \"#utility.yul\":16855:16868   */\n      mul\n        /* \"#utility.yul\":16826:16877   */\n      tag_294\n      jump\t// in\n    tag_477:\n        /* \"#utility.yul\":16822:16878   */\n      not\n        /* \"#utility.yul\":16907:16911   */\n      dup1\n        /* \"#utility.yul\":16901:16905   */\n      dup4\n        /* \"#utility.yul\":16897:16912   */\n      and\n        /* \"#utility.yul\":16887:16912   */\n      swap2\n      pop\n        /* \"#utility.yul\":16800:16918   */\n      pop\n        /* \"#utility.yul\":16749:16918   */\n      swap3\n      swap2\n      pop\n      pop\n      jump\t// out\n        /* \"#utility.yul\":16923:17218   */\n    tag_296:\n        /* \"#utility.yul\":16999:17003   */\n      0x00\n        /* \"#utility.yul\":17145:17174   */\n      tag_479\n        /* \"#utility.yul\":17170:17173   */\n      dup4\n        /* \"#utility.yul\":17164:17168   */\n      dup4\n        /* \"#utility.yul\":17145:17174   */\n      tag_295\n      jump\t// in\n    tag_479:\n        /* \"#utility.yul\":17137:17174   */\n      swap2\n      pop\n        /* \"#utility.yul\":17207:17210   */\n      dup3\n        /* \"#utility.yul\":17204:17205   */\n      0x02\n        /* \"#utility.yul\":17200:17211   */\n      mul\n        /* \"#utility.yul\":17194:17198   */\n      dup3\n        /* \"#utility.yul\":17191:17212   */\n      or\n        /* \"#utility.yul\":17183:17212   */\n      swap1\n      pop\n        /* \"#utility.yul\":16923:17218   */\n      swap3\n      swap2\n      pop\n      pop\n      jump\t// out\n        /* \"#utility.yul\":17223:18626   */\n    tag_125:\n        /* \"#utility.yul\":17347:17391   */\n      tag_481\n        /* \"#utility.yul\":17387:17390   */\n      dup4\n        /* \"#utility.yul\":17382:17385   */\n      dup4\n        /* \"#utility.yul\":17347:17391   */\n      tag_280\n      jump\t// in\n    tag_481:\n        /* \"#utility.yul\":17456:17474   */\n      0xffffffffffffffff\n        /* \"#utility.yul\":17448:17454   */\n      dup2\n        /* \"#utility.yul\":17445:17475   */\n      gt\n        /* \"#utility.yul\":17442:17498   */\n      iszero\n      tag_482\n      jumpi\n        /* \"#utility.yul\":17478:17496   */\n      tag_483\n      tag_281\n      jump\t// in\n    tag_483:\n        /* \"#utility.yul\":17442:17498   */\n    tag_482:\n        /* \"#utility.yul\":17522:17560   */\n      tag_484\n        /* \"#utility.yul\":17554:17558   */\n      dup3\n        /* \"#utility.yul\":17548:17559   */\n      sload\n        /* \"#utility.yul\":17522:17560   */\n      tag_91\n      jump\t// in\n    tag_484:\n        /* \"#utility.yul\":17607:17674   */\n      tag_485\n        /* \"#utility.yul\":17667:17673   */\n      dup3\n        /* \"#utility.yul\":17659:17665   */\n      dup3\n        /* \"#utility.yul\":17653:17657   */\n      dup6\n        /* \"#utility.yul\":17607:17674   */\n      tag_293\n      jump\t// in\n    tag_485:\n        /* \"#utility.yul\":17701:17702   */\n      0x00\n        /* \"#utility.yul\":17730:17732   */\n      0x1f\n        /* \"#utility.yul\":17722:17728   */\n      dup4\n        /* \"#utility.yul\":17719:17733   */\n      gt\n        /* \"#utility.yul\":17747:17748   */\n      0x01\n        /* \"#utility.yul\":17742:18374   */\n      dup2\n      eq\n      tag_487\n      jumpi\n        /* \"#utility.yul\":18418:18419   */\n      0x00\n        /* \"#utility.yul\":18435:18441   */\n      dup5\n        /* \"#utility.yul\":18432:18516   */\n      iszero\n      tag_488\n      jumpi\n        /* \"#utility.yul\":18491:18500   */\n      dup3\n        /* \"#utility.yul\":18486:18489   */\n      dup8\n        /* \"#utility.yul\":18482:18501   */\n      add\n        /* \"#utility.yul\":18469:18502   */\n      calldataload\n        /* \"#utility.yul\":18460:18502   */\n      swap1\n      pop\n        /* \"#utility.yul\":18432:18516   */\n    tag_488:\n        /* \"#utility.yul\":18542:18609   */\n      tag_489\n        /* \"#utility.yul\":18602:18608   */\n      dup6\n        /* \"#utility.yul\":18595:18600   */\n      dup3\n        /* \"#utility.yul\":18542:18609   */\n      tag_296\n      jump\t// in\n    tag_489:\n        /* \"#utility.yul\":18536:18540   */\n      dup7\n        /* \"#utility.yul\":18529:18610   */\n      sstore\n        /* \"#utility.yul\":18391:18620   */\n      pop\n        /* \"#utility.yul\":17712:18620   */\n      jump(tag_486)\n        /* \"#utility.yul\":17742:18374   */\n    tag_487:\n        /* \"#utility.yul\":17794:17798   */\n      0x1f\n        /* \"#utility.yul\":17790:17799   */\n      not\n        /* \"#utility.yul\":17782:17788   */\n      dup5\n        /* \"#utility.yul\":17778:17800   */\n      and\n        /* \"#utility.yul\":17828:17865   */\n      tag_490\n        /* \"#utility.yul\":17860:17864   */\n      dup7\n        /* \"#utility.yul\":17828:17865   */\n      tag_282\n      jump\t// in\n    tag_490:\n        /* \"#utility.yul\":17887:17888   */\n      0x00\n        /* \"#utility.yul\":17901:18116   */\n    tag_491:\n        /* \"#utility.yul\":17915:17922   */\n      dup3\n        /* \"#utility.yul\":17912:17913   */\n      dup2\n        /* \"#utility.yul\":17909:17923   */\n      lt\n        /* \"#utility.yul\":17901:18116   */\n      iszero\n      tag_493\n      jumpi\n        /* \"#utility.yul\":18001:18010   */\n      dup5\n        /* \"#utility.yul\":17996:17999   */\n      dup10\n        /* \"#utility.yul\":17992:18011   */\n      add\n        /* \"#utility.yul\":17979:18012   */\n      calldataload\n        /* \"#utility.yul\":17971:17977   */\n      dup3\n        /* \"#utility.yul\":17964:18013   */\n      sstore\n        /* \"#utility.yul\":18052:18053   */\n      0x01\n        /* \"#utility.yul\":18044:18050   */\n      dup3\n        /* \"#utility.yul\":18040:18054   */\n      add\n        /* \"#utility.yul\":18030:18054   */\n      swap2\n      pop\n        /* \"#utility.yul\":18099:18101   */\n      0x20\n        /* \"#utility.yul\":18088:18097   */\n      dup6\n        /* \"#utility.yul\":18084:18102   */\n      add\n        /* \"#utility.yul\":18071:18102   */\n      swap5\n      pop\n        /* \"#utility.yul\":17938:17942   */\n      0x20\n        /* \"#utility.yul\":17935:17936   */\n      dup2\n        /* \"#utility.yul\":17931:17943   */\n      add\n        /* \"#utility.yul\":17926:17943   */\n      swap1\n      pop\n        /* \"#utility.yul\":17901:18116   */\n      jump(tag_491)\n    tag_493:\n        /* \"#utility.yul\":18144:18150   */\n      dup7\n        /* \"#utility.yul\":18135:18142   */\n      dup4\n        /* \"#utility.yul\":18132:18151   */\n      lt\n        /* \"#utility.yul\":18129:18315   */\n      iszero\n      tag_494\n      jumpi\n        /* \"#utility.yul\":18209:18218   */\n      dup5\n        /* \"#utility.yul\":18204:18207   */\n      dup10\n        /* \"#utility.yul\":18200:18219   */\n      add\n        /* \"#utility.yul\":18187:18220   */\n      calldataload\n        /* \"#utility.yul\":18252:18300   */\n      tag_495\n        /* \"#utility.yul\":18294:18298   */\n      0x1f\n        /* \"#utility.yul\":18286:18292   */\n      dup10\n        /* \"#utility.yul\":18282:18299   */\n      and\n        /* \"#utility.yul\":18271:18280   */\n      dup3\n        /* \"#utility.yul\":18252:18300   */\n      tag_295\n      jump\t// in\n    tag_495:\n        /* \"#utility.yul\":18244:18250   */\n      dup4\n        /* \"#utility.yul\":18237:18301   */\n      sstore\n        /* \"#utility.yul\":18152:18315   */\n      pop\n        /* \"#utility.yul\":18129:18315   */\n    tag_494:\n        /* \"#utility.yul\":18361:18362   */\n      0x01\n        /* \"#utility.yul\":18357:18358   */\n      0x02\n        /* \"#utility.yul\":18349:18355   */\n      dup9\n        /* \"#utility.yul\":18345:18359   */\n      mul\n        /* \"#utility.yul\":18341:18363   */\n      add\n        /* \"#utility.yul\":18335:18339   */\n      dup9\n        /* \"#utility.yul\":18328:18364   */\n      sstore\n        /* \"#utility.yul\":17749:18374   */\n      pop\n      pop\n      pop\n        /* \"#utility.yul\":17712:18620   */\n    tag_486:\n      pop\n        /* \"#utility.yul\":17322:18626   */\n      pop\n      pop\n      pop\n        /* \"#utility.yul\":17223:18626   */\n      pop\n      pop\n      pop\n      jump\t// out\n        /* \"#utility.yul\":18632:18826   */\n    tag_127:\n        /* \"#utility.yul\":18672:18676   */\n      0x00\n        /* \"#utility.yul\":18692:18712   */\n      tag_497\n        /* \"#utility.yul\":18710:18711   */\n      dup3\n        /* \"#utility.yul\":18692:18712   */\n      tag_252\n      jump\t// in\n    tag_497:\n        /* \"#utility.yul\":18687:18712   */\n      swap2\n      pop\n        /* \"#utility.yul\":18726:18746   */\n      tag_498\n        /* \"#utility.yul\":18744:18745   */\n      dup4\n        /* \"#utility.yul\":18726:18746   */\n      tag_252\n      jump\t// in\n    tag_498:\n        /* \"#utility.yul\":18721:18746   */\n      swap3\n      pop\n        /* \"#utility.yul\":18770:18771   */\n      dup3\n        /* \"#utility.yul\":18767:18768   */\n      dup3\n        /* \"#utility.yul\":18763:18772   */\n      sub\n        /* \"#utility.yul\":18755:18772   */\n      swap1\n      pop\n        /* \"#utility.yul\":18794:18795   */\n      dup2\n        /* \"#utility.yul\":18788:18792   */\n      dup2\n        /* \"#utility.yul\":18785:18796   */\n      gt\n        /* \"#utility.yul\":18782:18819   */\n      iszero\n      tag_499\n      jumpi\n        /* \"#utility.yul\":18799:18817   */\n      tag_500\n      tag_279\n      jump\t// in\n    tag_500:\n        /* \"#utility.yul\":18782:18819   */\n    tag_499:\n        /* \"#utility.yul\":18632:18826   */\n      swap3\n      swap2\n      pop\n      pop\n      jump\t// out\n        /* \"#utility.yul\":18832:19012   */\n    tag_131:\n        /* \"#utility.yul\":18880:18957   */\n      0x4e487b7100000000000000000000000000000000000000000000000000000000\n        /* \"#utility.yul\":18877:18878   */\n      0x00\n        /* \"#utility.yul\":18870:18958   */\n      mstore\n        /* \"#utility.yul\":18977:18981   */\n      0x32\n        /* \"#utility.yul\":18974:18975   */\n      0x04\n        /* \"#utility.yul\":18967:18982   */\n      mstore\n        /* \"#utility.yul\":19001:19005   */\n      0x24\n        /* \"#utility.yul\":18998:18999   */\n      0x00\n        /* \"#utility.yul\":18991:19006   */\n      revert\n        /* \"#utility.yul\":19018:19198   */\n    tag_141:\n        /* \"#utility.yul\":19066:19143   */\n      0x4e487b7100000000000000000000000000000000000000000000000000000000\n        /* \"#utility.yul\":19063:19064   */\n      0x00\n        /* \"#utility.yul\":19056:19144   */\n      mstore\n        /* \"#utility.yul\":19163:19167   */\n      0x21\n        /* \"#utility.yul\":19160:19161   */\n      0x04\n        /* \"#utility.yul\":19153:19168   */\n      mstore\n        /* \"#utility.yul\":19187:19191   */\n      0x24\n        /* \"#utility.yul\":19184:19185   */\n      0x00\n        /* \"#utility.yul\":19177:19192   */\n      revert\n        /* \"#utility.yul\":19204:19322   */\n    tag_297:\n        /* \"#utility.yul\":19291:19315   */\n      tag_504\n        /* \"#utility.yul\":19309:19314   */\n      dup2\n        /* \"#utility.yul\":19291:19315   */\n      tag_249\n      jump\t// in\n    tag_504:\n        /* \"#utility.yul\":19286:19289   */\n      dup3\n        /* \"#utility.yul\":19279:19316   */\n      mstore\n        /* \"#utility.yul\":19204:19322   */\n      pop\n      pop\n      jump\t// out\n        /* \"#utility.yul\":19328:19770   */\n    tag_192:\n        /* \"#utility.yul\":19477:19481   */\n      0x00\n        /* \"#utility.yul\":19515:19517   */\n      0x60\n        /* \"#utility.yul\":19504:19513   */\n      dup3\n        /* \"#utility.yul\":19500:19518   */\n      add\n        /* \"#utility.yul\":19492:19518   */\n      swap1\n      pop\n        /* \"#utility.yul\":19528:19599   */\n      tag_506\n        /* \"#utility.yul\":19596:19597   */\n      0x00\n        /* \"#utility.yul\":19585:19594   */\n      dup4\n        /* \"#utility.yul\":19581:19598   */\n      add\n        /* \"#utility.yul\":19572:19578   */\n      dup7\n        /* \"#utility.yul\":19528:19599   */\n      tag_297\n      jump\t// in\n    tag_506:\n        /* \"#utility.yul\":19609:19681   */\n      tag_507\n        /* \"#utility.yul\":19677:19679   */\n      0x20\n        /* \"#utility.yul\":19666:19675   */\n      dup4\n        /* \"#utility.yul\":19662:19680   */\n      add\n        /* \"#utility.yul\":19653:19659   */\n      dup6\n        /* \"#utility.yul\":19609:19681   */\n      tag_257\n      jump\t// in\n    tag_507:\n        /* \"#utility.yul\":19691:19763   */\n      tag_508\n        /* \"#utility.yul\":19759:19761   */\n      0x40\n        /* \"#utility.yul\":19748:19757   */\n      dup4\n        /* \"#utility.yul\":19744:19762   */\n      add\n        /* \"#utility.yul\":19735:19741   */\n      dup5\n        /* \"#utility.yul\":19691:19763   */\n      tag_257\n      jump\t// in\n    tag_508:\n        /* \"#utility.yul\":19328:19770   */\n      swap5\n      swap4\n      pop\n      pop\n      pop\n      pop\n      jump\t// out\n        /* \"#utility.yul\":19776:19998   */\n    tag_197:\n        /* \"#utility.yul\":19869:19873   */\n      0x00\n        /* \"#utility.yul\":19907:19909   */\n      0x20\n        /* \"#utility.yul\":19896:19905   */\n      dup3\n        /* \"#utility.yul\":19892:19910   */\n      add\n        /* \"#utility.yul\":19884:19910   */\n      swap1\n      pop\n        /* \"#utility.yul\":19920:19991   */\n      tag_510\n        /* \"#utility.yul\":19988:19989   */\n      0x00\n        /* \"#utility.yul\":19977:19986   */\n      dup4\n        /* \"#utility.yul\":19973:19990   */\n      add\n        /* \"#utility.yul\":19964:19970   */\n      dup5\n        /* \"#utility.yul\":19920:19991   */\n      tag_297\n      jump\t// in\n    tag_510:\n        /* \"#utility.yul\":19776:19998   */\n      swap3\n      swap2\n      pop\n      pop\n      jump\t// out\n\n    auxdata: 0xa2646970667358221220ad8b52685fce24c8d059e75d65eaec6fd9d8cd0d2ccd1ed1bf32f0e8cb7709ba64736f6c634300081a0033\n}\n",
				"bytecode": {
					"linkReferences": {},
					"object": "60806040526040518060400160405280600581526020017f76616c7565000000000000000000000000000000000000000000000000000000815250600590816100489190610348565b50620f424060085560646009556040518060400160405280600381526020017f616e790000000000000000000000000000000000000000000000000000000000815250600a90816100999190610348565b503480156100a5575f80fd5b5060405161235538038061235583398181016040528101906100c79190610537565b818181600390816100d89190610348565b5080600490816100e89190610348565b505050600660018160018154018082558091505003905f5260205f2090505050506105ad565b5f81519050919050565b7f4e487b71000000000000000000000000000000000000000000000000000000005f52604160045260245ffd5b7f4e487b71000000000000000000000000000000000000000000000000000000005f52602260045260245ffd5b5f600282049050600182168061018957607f821691505b60208210810361019c5761019b610145565b5b50919050565b5f819050815f5260205f209050919050565b5f6020601f8301049050919050565b5f82821b905092915050565b5f600883026101fe7fffffffffffffffffffffffffffffffffffffffffffffffffffffffffffffffff826101c3565b61020886836101c3565b95508019841693508086168417925050509392505050565b5f819050919050565b5f819050919050565b5f61024c61024761024284610220565b610229565b610220565b9050919050565b5f819050919050565b61026583610232565b61027961027182610253565b8484546101cf565b825550505050565b5f90565b61028d610281565b61029881848461025c565b505050565b5b818110156102bb576102b05f82610285565b60018101905061029e565b5050565b601f821115610300576102d1816101a2565b6102da846101b4565b810160208510156102e9578190505b6102fd6102f5856101b4565b83018261029d565b50505b505050565b5f82821c905092915050565b5f6103205f1984600802610305565b1980831691505092915050565b5f6103388383610311565b9150826002028217905092915050565b6103518261010e565b67ffffffffffffffff81111561036a57610369610118565b5b6103748254610172565b61037f8282856102bf565b5f60209050601f8311600181146103b0575f841561039e578287015190505b6103a8858261032d565b86555061040f565b601f1984166103be866101a2565b5f5b828110156103e5578489015182556001820191506020850194506020810190506103c0565b8683101561040257848901516103fe601f891682610311565b8355505b6001600288020188555050505b505050505050565b5f604051905090565b5f80fd5b5f80fd5b5f80fd5b5f80fd5b5f601f19601f8301169050919050565b61044982610430565b810181811067ffffffffffffffff8211171561046857610467610118565b5b80604052505050565b5f61047a610417565b90506104868282610440565b919050565b5f67ffffffffffffffff8211156104a5576104a4610118565b5b6104ae82610430565b9050602081019050919050565b8281835e5f83830152505050565b5f6104db6104d68461048b565b610471565b9050828152602081018484840111156104f7576104f661042c565b5b6105028482856104bb565b509392505050565b5f82601f83011261051e5761051d610428565b5b815161052e8482602086016104c9565b91505092915050565b5f806040838503121561054d5761054c610420565b5b5f83015167ffffffffffffffff81111561056a57610569610424565b5b6105768582860161050a565b925050602083015167ffffffffffffffff81111561059757610596610424565b5b6105a38582860161050a565b9150509250929050565b611d9b806105ba5f395ff3fe608060405234801561000f575f80fd5b50600436106100fe575f3560e01c8063830953ab11610095578063976b311311610064578063976b3113146102ae578063a9059cbb146102de578063d5abeb011461030e578063dd62ed3e1461032c576100fe565b8063830953ab146102265780638615d85514610244578063943e82161461027457806395d89b4114610290576100fe565b8063313ce567116100d1578063313ce5671461019e5780634e71d92d146101bc578063624601b6146101c657806370a08231146101f6576100fe565b806306fdde0314610102578063095ea7b31461012057806318160ddd1461015057806323b872dd1461016e575b5f80fd5b61010a61035c565b6040516101179190611392565b60405180910390f35b61013a60048036038101906101359190611447565b6103ec565b604051610147919061149f565b60405180910390f35b61015861040e565b60405161016591906114c7565b60405180910390f35b610188600480360381019061018391906114e0565b610417565b604051610195919061149f565b60405180910390f35b6101a6610445565b6040516101b3919061154b565b60405180910390f35b6101c461044d565b005b6101e060048036038101906101db9190611564565b610581565b6040516101ed919061149f565b60405180910390f35b610210600480360381019061020b9190611564565b61059e565b60405161021d91906114c7565b60405180910390f35b61022e6105e3565b60405161023b91906114c7565b60405180910390f35b61025e600480360381019061025991906115f0565b6105e9565b60405161026b91906114c7565b60405180910390f35b61028e60048036038101906102899190611670565b6106c6565b005b610298610904565b6040516102a59190611392565b60405180910390f35b6102c860048036038101906102c391906116ae565b610994565b6040516102d591906118bf565b60405180910390f35b6102f860048036038101906102f39190611447565b610ad4565b604051610305919061149f565b60405180910390f35b610316610af6565b60405161032391906114c7565b60405180910390f35b610346600480360381019061034191906118df565b610afc565b60405161035391906114c7565b60405180910390f35b60606003805461036b9061194a565b80601f01602080910402602001604051908101604052809291908181526020018280546103979061194a565b80156103e25780601f106103b9576101008083540402835291602001916103e2565b820191905f5260205f20905b8154815290600101906020018083116103c557829003601f168201915b5050505050905090565b5f806103f6610b7e565b9050610403818585610b85565b600191505092915050565b5f600254905090565b5f80610421610b7e565b905061042e858285610b97565b610439858585610c29565b60019150509392505050565b5f6012905090565b60085460095461045b61040e565b61046591906119a7565b111561049d576040517fcbe2483100000000000000000000000000000000000000000000000000000000815260040160405180910390fd5b60075f3373ffffffffffffffffffffffffffffffffffffffff1673ffffffffffffffffffffffffffffffffffffffff1681526020019081526020015f205f9054906101000a900460ff161561051e576040517f0b1327a600000000000000000000000000000000000000000000000000000000815260040160405180910390fd5b61052a33600954610d19565b600160075f3373ffffffffffffffffffffffffffffffffffffffff1673ffffffffffffffffffffffffffffffffffffffff1681526020019081526020015f205f6101000a81548160ff021916908315150217905550565b6007602052805f5260405f205f915054906101000a900460ff1681565b5f805f8373ffffffffffffffffffffffffffffffffffffffff1673ffffffffffffffffffffffffffffffffffffffff1681526020019081526020015f20549050919050565b60095481565b5f806105f43361059e565b0361062b576040517f8439960d00000000000000000000000000000000000000000000000000000000815260040160405180910390fd5b61063361040e565b82111561066c576040517f0d92730000000000000000000000000000000000000000000000000000000000815260040160405180910390fd5b5f600660018160018154018082558091505003905f5260205f209060090201905084848260020191826106a0929190611bae565b5082816003018190555060016006805490506106bc9190611c7b565b9150509392505050565b5f600683815481106106db576106da611cae565b5b905f5260205f20906009020190508060080160019054906101000a900460ff1615610732576040517f66b6cb4a00000000000000000000000000000000000000000000000000000000815260040160405180910390fd5b61074733825f01610d9890919063ffffffff16565b1561077e576040517f7c9a1cf900000000000000000000000000000000000000000000000000000000815260040160405180910390fd5b5f6107883361059e565b90505f81036107c3576040517f8439960d00000000000000000000000000000000000000000000000000000000815260040160405180910390fd5b5f60028111156107d6576107d5611cdb565b5b8360028111156107e9576107e8611cdb565b5b0361080d5780826006015f82825461080191906119a7565b92505081905550610874565b6001600281111561082157610820611cdb565b5b83600281111561083457610833611cdb565b5b036108585780826005015f82825461084c91906119a7565b92505081905550610873565b80826007015f82825461086b91906119a7565b925050819055505b5b61088933835f01610dc590919063ffffffff16565b5080826004015f82825461089d91906119a7565b9250508190555081600301548260040154106108fe5760018260080160016101000a81548160ff0219169083151502179055508160060154826005015411156108fd576001826008015f6101000a81548160ff0219169083151502179055505b5b50505050565b6060600480546109139061194a565b80601f016020809104026020016040519081016040528092919081815260200182805461093f9061194a565b801561098a5780601f106109615761010080835404028352916020019161098a565b820191905f5260205f20905b81548152906001019060200180831161096d57829003601f168201915b5050505050905090565b61099c6112d9565b5f600683815481106109b1576109b0611cae565b5b905f5260205f20906009020190506040518061012001604052806109d6835f01610df2565b81526020018260020180546109ea9061194a565b80601f0160208091040260200160405190810160405280929190818152602001828054610a169061194a565b8015610a615780601f10610a3857610100808354040283529160200191610a61565b820191905f5260205f20905b815481529060010190602001808311610a4457829003601f168201915b505050505081526020018260030154815260200182600401548152602001826005015481526020018260060154815260200182600701548152602001826008015f9054906101000a900460ff16151581526020018260080160019054906101000a900460ff161515815250915050919050565b5f80610ade610b7e565b9050610aeb818585610c29565b600191505092915050565b60085481565b5f60015f8473ffffffffffffffffffffffffffffffffffffffff1673ffffffffffffffffffffffffffffffffffffffff1681526020019081526020015f205f8373ffffffffffffffffffffffffffffffffffffffff1673ffffffffffffffffffffffffffffffffffffffff1681526020019081526020015f2054905092915050565b5f33905090565b610b928383836001610e11565b505050565b5f610ba28484610afc565b90507fffffffffffffffffffffffffffffffffffffffffffffffffffffffffffffffff8114610c235781811015610c14578281836040517ffb8f41b2000000000000000000000000000000000000000000000000000000008152600401610c0b93929190611d17565b60405180910390fd5b610c2284848484035f610e11565b5b50505050565b5f73ffffffffffffffffffffffffffffffffffffffff168373ffffffffffffffffffffffffffffffffffffffff1603610c99575f6040517f96c6fd1e000000000000000000000000000000000000000000000000000000008152600401610c909190611d4c565b60405180910390fd5b5f73ffffffffffffffffffffffffffffffffffffffff168273ffffffffffffffffffffffffffffffffffffffff1603610d09575f6040517fec442f05000000000000000000000000000000000000000000000000000000008152600401610d009190611d4c565b60405180910390fd5b610d14838383610fe0565b505050565b5f73ffffffffffffffffffffffffffffffffffffffff168273ffffffffffffffffffffffffffffffffffffffff1603610d89575f6040517fec442f05000000000000000000000000000000000000000000000000000000008152600401610d809190611d4c565b60405180910390fd5b610d945f8383610fe0565b5050565b5f610dbd835f018373ffffffffffffffffffffffffffffffffffffffff165f1b6111f9565b905092915050565b5f610dea835f018373ffffffffffffffffffffffffffffffffffffffff165f1b611219565b905092915050565b60605f610e00835f01611280565b905060608190508092505050919050565b5f73ffffffffffffffffffffffffffffffffffffffff168473ffffffffffffffffffffffffffffffffffffffff1603610e81575f6040517fe602df05000000000000000000000000000000000000000000000000000000008152600401610e789190611d4c565b60405180910390fd5b5f73ffffffffffffffffffffffffffffffffffffffff168373ffffffffffffffffffffffffffffffffffffffff1603610ef1575f6040517f94280d62000000000000000000000000000000000000000000000000000000008152600401610ee89190611d4c565b60405180910390fd5b8160015f8673ffffffffffffffffffffffffffffffffffffffff1673ffffffffffffffffffffffffffffffffffffffff1681526020019081526020015f205f8573ffffffffffffffffffffffffffffffffffffffff1673ffffffffffffffffffffffffffffffffffffffff1681526020019081526020015f20819055508015610fda578273ffffffffffffffffffffffffffffffffffffffff168473ffffffffffffffffffffffffffffffffffffffff167f8c5be1e5ebec7d5bd14f71427d1e84f3dd0314c0f7b2291e5b200ac8c7c3b92584604051610fd191906114c7565b60405180910390a35b50505050565b5f73ffffffffffffffffffffffffffffffffffffffff168373ffffffffffffffffffffffffffffffffffffffff1603611030578060025f82825461102491906119a7565b925050819055506110fe565b5f805f8573ffffffffffffffffffffffffffffffffffffffff1673ffffffffffffffffffffffffffffffffffffffff1681526020019081526020015f20549050818110156110b9578381836040517fe450d38c0000000000000000000000000000000000000000000000000000000081526004016110b093929190611d17565b60405180910390fd5b8181035f808673ffffffffffffffffffffffffffffffffffffffff1673ffffffffffffffffffffffffffffffffffffffff1681526020019081526020015f2081905550505b5f73ffffffffffffffffffffffffffffffffffffffff168273ffffffffffffffffffffffffffffffffffffffff1603611145578060025f828254039250508190555061118f565b805f808473ffffffffffffffffffffffffffffffffffffffff1673ffffffffffffffffffffffffffffffffffffffff1681526020019081526020015f205f82825401925050819055505b8173ffffffffffffffffffffffffffffffffffffffff168373ffffffffffffffffffffffffffffffffffffffff167fddf252ad1be2c89b69c2b068fc378daa952ba7f163c4a11628f55a4df523b3ef836040516111ec91906114c7565b60405180910390a3505050565b5f80836001015f8481526020019081526020015f20541415905092915050565b5f61122483836111f9565b61127657825f0182908060018154018082558091505060019003905f5260205f20015f9091909190915055825f0180549050836001015f8481526020019081526020015f20819055506001905061127a565b5f90505b92915050565b6060815f018054806020026020016040519081016040528092919081815260200182805480156112cd57602002820191905f5260205f20905b8154815260200190600101908083116112b9575b50505050509050919050565b60405180610120016040528060608152602001606081526020015f81526020015f81526020015f81526020015f81526020015f81526020015f151581526020015f151581525090565b5f81519050919050565b5f82825260208201905092915050565b8281835e5f83830152505050565b5f601f19601f8301169050919050565b5f61136482611322565b61136e818561132c565b935061137e81856020860161133c565b6113878161134a565b840191505092915050565b5f6020820190508181035f8301526113aa818461135a565b905092915050565b5f80fd5b5f80fd5b5f73ffffffffffffffffffffffffffffffffffffffff82169050919050565b5f6113e3826113ba565b9050919050565b6113f3816113d9565b81146113fd575f80fd5b50565b5f8135905061140e816113ea565b92915050565b5f819050919050565b61142681611414565b8114611430575f80fd5b50565b5f813590506114418161141d565b92915050565b5f806040838503121561145d5761145c6113b2565b5b5f61146a85828601611400565b925050602061147b85828601611433565b9150509250929050565b5f8115159050919050565b61149981611485565b82525050565b5f6020820190506114b25f830184611490565b92915050565b6114c181611414565b82525050565b5f6020820190506114da5f8301846114b8565b92915050565b5f805f606084860312156114f7576114f66113b2565b5b5f61150486828701611400565b935050602061151586828701611400565b925050604061152686828701611433565b9150509250925092565b5f60ff82169050919050565b61154581611530565b82525050565b5f60208201905061155e5f83018461153c565b92915050565b5f60208284031215611579576115786113b2565b5b5f61158684828501611400565b91505092915050565b5f80fd5b5f80fd5b5f80fd5b5f8083601f8401126115b0576115af61158f565b5b8235905067ffffffffffffffff8111156115cd576115cc611593565b5b6020830191508360018202830111156115e9576115e8611597565b5b9250929050565b5f805f60408486031215611607576116066113b2565b5b5f84013567ffffffffffffffff811115611624576116236113b6565b5b6116308682870161159b565b9350935050602061164386828701611433565b9150509250925092565b60038110611659575f80fd5b50565b5f8135905061166a8161164d565b92915050565b5f8060408385031215611686576116856113b2565b5b5f61169385828601611433565b92505060206116a48582860161165c565b9150509250929050565b5f602082840312156116c3576116c26113b2565b5b5f6116d084828501611433565b91505092915050565b5f81519050919050565b5f82825260208201905092915050565b5f819050602082019050919050565b61170b816113d9565b82525050565b5f61171c8383611702565b60208301905092915050565b5f602082019050919050565b5f61173e826116d9565b61174881856116e3565b9350611753836116f3565b805f5b8381101561178357815161176a8882611711565b975061177583611728565b925050600181019050611756565b5085935050505092915050565b5f82825260208201905092915050565b5f6117aa82611322565b6117b48185611790565b93506117c481856020860161133c565b6117cd8161134a565b840191505092915050565b6117e181611414565b82525050565b6117f081611485565b82525050565b5f61012083015f8301518482035f8601526118118282611734565b9150506020830151848203602086015261182b82826117a0565b915050604083015161184060408601826117d8565b50606083015161185360608601826117d8565b50608083015161186660808601826117d8565b5060a083015161187960a08601826117d8565b5060c083015161188c60c08601826117d8565b5060e083015161189f60e08601826117e7565b506101008301516118b46101008601826117e7565b508091505092915050565b5f6020820190508181035f8301526118d781846117f6565b905092915050565b5f80604083850312156118f5576118f46113b2565b5b5f61190285828601611400565b925050602061191385828601611400565b9150509250929050565b7f4e487b71000000000000000000000000000000000000000000000000000000005f52602260045260245ffd5b5f600282049050600182168061196157607f821691505b6020821081036119745761197361191d565b5b50919050565b7f4e487b71000000000000000000000000000000000000000000000000000000005f52601160045260245ffd5b5f6119b182611414565b91506119bc83611414565b92508282019050808211156119d4576119d361197a565b5b92915050565b5f82905092915050565b7f4e487b71000000000000000000000000000000000000000000000000000000005f52604160045260245ffd5b5f819050815f5260205f209050919050565b5f6020601f8301049050919050565b5f82821b905092915050565b5f60088302611a6d7fffffffffffffffffffffffffffffffffffffffffffffffffffffffffffffffff82611a32565b611a778683611a32565b95508019841693508086168417925050509392505050565b5f819050919050565b5f611ab2611aad611aa884611414565b611a8f565b611414565b9050919050565b5f819050919050565b611acb83611a98565b611adf611ad782611ab9565b848454611a3e565b825550505050565b5f90565b611af3611ae7565b611afe818484611ac2565b505050565b5b81811015611b2157611b165f82611aeb565b600181019050611b04565b5050565b601f821115611b6657611b3781611a11565b611b4084611a23565b81016020851015611b4f578190505b611b63611b5b85611a23565b830182611b03565b50505b505050565b5f82821c905092915050565b5f611b865f1984600802611b6b565b1980831691505092915050565b5f611b9e8383611b77565b9150826002028217905092915050565b611bb883836119da565b67ffffffffffffffff811115611bd157611bd06119e4565b5b611bdb825461194a565b611be6828285611b25565b5f601f831160018114611c13575f8415611c01578287013590505b611c0b8582611b93565b865550611c72565b601f198416611c2186611a11565b5f5b82811015611c4857848901358255600182019150602085019450602081019050611c23565b86831015611c655784890135611c61601f891682611b77565b8355505b6001600288020188555050505b50505050505050565b5f611c8582611414565b9150611c9083611414565b9250828203905081811115611ca857611ca761197a565b5b92915050565b7f4e487b71000000000000000000000000000000000000000000000000000000005f52603260045260245ffd5b7f4e487b71000000000000000000000000000000000000000000000000000000005f52602160045260245ffd5b611d11816113d9565b82525050565b5f606082019050611d2a5f830186611d08565b611d3760208301856114b8565b611d4460408301846114b8565b949350505050565b5f602082019050611d5f5f830184611d08565b9291505056fea2646970667358221220ad8b52685fce24c8d059e75d65eaec6fd9d8cd0d2ccd1ed1bf32f0e8cb7709ba64736f6c634300081a0033",
					"opcodes": "PUSH1 0x80 PUSH1 0x40 MSTORE PUSH1 0x40 MLOAD DUP1 PUSH1 0x40 ADD PUSH1 0x40 MSTORE DUP1 PUSH1 0x5 DUP2 MSTORE PUSH1 0x20 ADD PUSH32 0x76616C7565000000000000000000000000000000000000000000000000000000 DUP2 MSTORE POP PUSH1 0x5 SWAP1 DUP2 PUSH2 0x48 SWAP2 SWAP1 PUSH2 0x348 JUMP JUMPDEST POP PUSH3 0xF4240 PUSH1 0x8 SSTORE PUSH1 0x64 PUSH1 0x9 SSTORE PUSH1 0x40 MLOAD DUP1 PUSH1 0x40 ADD PUSH1 0x40 MSTORE DUP1 PUSH1 0x3 DUP2 MSTORE PUSH1 0x20 ADD PUSH32 0x616E790000000000000000000000000000000000000000000000000000000000 DUP2 MSTORE POP PUSH1 0xA SWAP1 DUP2 PUSH2 0x99 SWAP2 SWAP1 PUSH2 0x348 JUMP JUMPDEST POP CALLVALUE DUP1 ISZERO PUSH2 0xA5 JUMPI PUSH0 DUP1 REVERT JUMPDEST POP PUSH1 0x40 MLOAD PUSH2 0x2355 CODESIZE SUB DUP1 PUSH2 0x2355 DUP4 CODECOPY DUP2 DUP2 ADD PUSH1 0x40 MSTORE DUP2 ADD SWAP1 PUSH2 0xC7 SWAP2 SWAP1 PUSH2 0x537 JUMP JUMPDEST DUP2 DUP2 DUP2 PUSH1 0x3 SWAP1 DUP2 PUSH2 0xD8 SWAP2 SWAP1 PUSH2 0x348 JUMP JUMPDEST POP DUP1 PUSH1 0x4 SWAP1 DUP2 PUSH2 0xE8 SWAP2 SWAP1 PUSH2 0x348 JUMP JUMPDEST POP POP POP PUSH1 0x6 PUSH1 0x1 DUP2 PUSH1 0x1 DUP2 SLOAD ADD DUP1 DUP3 SSTORE DUP1 SWAP2 POP POP SUB SWAP1 PUSH0 MSTORE PUSH1 0x20 PUSH0 KECCAK256 SWAP1 POP POP POP POP PUSH2 0x5AD JUMP JUMPDEST PUSH0 DUP2 MLOAD SWAP1 POP SWAP2 SWAP1 POP JUMP JUMPDEST PUSH32 0x4E487B7100000000000000000000000000000000000000000000000000000000 PUSH0 MSTORE PUSH1 0x41 PUSH1 0x4 MSTORE PUSH1 0x24 PUSH0 REVERT JUMPDEST PUSH32 0x4E487B7100000000000000000000000000000000000000000000000000000000 PUSH0 MSTORE PUSH1 0x22 PUSH1 0x4 MSTORE PUSH1 0x24 PUSH0 REVERT JUMPDEST PUSH0 PUSH1 0x2 DUP3 DIV SWAP1 POP PUSH1 0x1 DUP3 AND DUP1 PUSH2 0x189 JUMPI PUSH1 0x7F DUP3 AND SWAP2 POP JUMPDEST PUSH1 0x20 DUP3 LT DUP2 SUB PUSH2 0x19C JUMPI PUSH2 0x19B PUSH2 0x145 JUMP JUMPDEST JUMPDEST POP SWAP2 SWAP1 POP JUMP JUMPDEST PUSH0 DUP2 SWAP1 POP DUP2 PUSH0 MSTORE PUSH1 0x20 PUSH0 KECCAK256 SWAP1 POP SWAP2 SWAP1 POP JUMP JUMPDEST PUSH0 PUSH1 0x20 PUSH1 0x1F DUP4 ADD DIV SWAP1 POP SWAP2 SWAP1 POP JUMP JUMPDEST PUSH0 DUP3 DUP3 SHL SWAP1 POP SWAP3 SWAP2 POP POP JUMP JUMPDEST PUSH0 PUSH1 0x8 DUP4 MUL PUSH2 0x1FE PUSH32 0xFFFFFFFFFFFFFFFFFFFFFFFFFFFFFFFFFFFFFFFFFFFFFFFFFFFFFFFFFFFFFFFF DUP3 PUSH2 0x1C3 JUMP JUMPDEST PUSH2 0x208 DUP7 DUP4 PUSH2 0x1C3 JUMP JUMPDEST SWAP6 POP DUP1 NOT DUP5 AND SWAP4 POP DUP1 DUP7 AND DUP5 OR SWAP3 POP POP POP SWAP4 SWAP3 POP POP POP JUMP JUMPDEST PUSH0 DUP2 SWAP1 POP SWAP2 SWAP1 POP JUMP JUMPDEST PUSH0 DUP2 SWAP1 POP SWAP2 SWAP1 POP JUMP JUMPDEST PUSH0 PUSH2 0x24C PUSH2 0x247 PUSH2 0x242 DUP5 PUSH2 0x220 JUMP JUMPDEST PUSH2 0x229 JUMP JUMPDEST PUSH2 0x220 JUMP JUMPDEST SWAP1 POP SWAP2 SWAP1 POP JUMP JUMPDEST PUSH0 DUP2 SWAP1 POP SWAP2 SWAP1 POP JUMP JUMPDEST PUSH2 0x265 DUP4 PUSH2 0x232 JUMP JUMPDEST PUSH2 0x279 PUSH2 0x271 DUP3 PUSH2 0x253 JUMP JUMPDEST DUP5 DUP5 SLOAD PUSH2 0x1CF JUMP JUMPDEST DUP3 SSTORE POP POP POP POP JUMP JUMPDEST PUSH0 SWAP1 JUMP JUMPDEST PUSH2 0x28D PUSH2 0x281 JUMP JUMPDEST PUSH2 0x298 DUP2 DUP5 DUP5 PUSH2 0x25C JUMP JUMPDEST POP POP POP JUMP JUMPDEST JUMPDEST DUP2 DUP2 LT ISZERO PUSH2 0x2BB JUMPI PUSH2 0x2B0 PUSH0 DUP3 PUSH2 0x285 JUMP JUMPDEST PUSH1 0x1 DUP2 ADD SWAP1 POP PUSH2 0x29E JUMP JUMPDEST POP POP JUMP JUMPDEST PUSH1 0x1F DUP3 GT ISZERO PUSH2 0x300 JUMPI PUSH2 0x2D1 DUP2 PUSH2 0x1A2 JUMP JUMPDEST PUSH2 0x2DA DUP5 PUSH2 0x1B4 JUMP JUMPDEST DUP2 ADD PUSH1 0x20 DUP6 LT ISZERO PUSH2 0x2E9 JUMPI DUP2 SWAP1 POP JUMPDEST PUSH2 0x2FD PUSH2 0x2F5 DUP6 PUSH2 0x1B4 JUMP JUMPDEST DUP4 ADD DUP3 PUSH2 0x29D JUMP JUMPDEST POP POP JUMPDEST POP POP POP JUMP JUMPDEST PUSH0 DUP3 DUP3 SHR SWAP1 POP SWAP3 SWAP2 POP POP JUMP JUMPDEST PUSH0 PUSH2 0x320 PUSH0 NOT DUP5 PUSH1 0x8 MUL PUSH2 0x305 JUMP JUMPDEST NOT DUP1 DUP4 AND SWAP2 POP POP SWAP3 SWAP2 POP POP JUMP JUMPDEST PUSH0 PUSH2 0x338 DUP4 DUP4 PUSH2 0x311 JUMP JUMPDEST SWAP2 POP DUP3 PUSH1 0x2 MUL DUP3 OR SWAP1 POP SWAP3 SWAP2 POP POP JUMP JUMPDEST PUSH2 0x351 DUP3 PUSH2 0x10E JUMP JUMPDEST PUSH8 0xFFFFFFFFFFFFFFFF DUP2 GT ISZERO PUSH2 0x36A JUMPI PUSH2 0x369 PUSH2 0x118 JUMP JUMPDEST JUMPDEST PUSH2 0x374 DUP3 SLOAD PUSH2 0x172 JUMP JUMPDEST PUSH2 0x37F DUP3 DUP3 DUP6 PUSH2 0x2BF JUMP JUMPDEST PUSH0 PUSH1 0x20 SWAP1 POP PUSH1 0x1F DUP4 GT PUSH1 0x1 DUP2 EQ PUSH2 0x3B0 JUMPI PUSH0 DUP5 ISZERO PUSH2 0x39E JUMPI DUP3 DUP8 ADD MLOAD SWAP1 POP JUMPDEST PUSH2 0x3A8 DUP6 DUP3 PUSH2 0x32D JUMP JUMPDEST DUP7 SSTORE POP PUSH2 0x40F JUMP JUMPDEST PUSH1 0x1F NOT DUP5 AND PUSH2 0x3BE DUP7 PUSH2 0x1A2 JUMP JUMPDEST PUSH0 JUMPDEST DUP3 DUP2 LT ISZERO PUSH2 0x3E5 JUMPI DUP5 DUP10 ADD MLOAD DUP3 SSTORE PUSH1 0x1 DUP3 ADD SWAP2 POP PUSH1 0x20 DUP6 ADD SWAP5 POP PUSH1 0x20 DUP2 ADD SWAP1 POP PUSH2 0x3C0 JUMP JUMPDEST DUP7 DUP4 LT ISZERO PUSH2 0x402 JUMPI DUP5 DUP10 ADD MLOAD PUSH2 0x3FE PUSH1 0x1F DUP10 AND DUP3 PUSH2 0x311 JUMP JUMPDEST DUP4 SSTORE POP JUMPDEST PUSH1 0x1 PUSH1 0x2 DUP9 MUL ADD DUP9 SSTORE POP POP POP JUMPDEST POP POP POP POP POP POP JUMP JUMPDEST PUSH0 PUSH1 0x40 MLOAD SWAP1 POP SWAP1 JUMP JUMPDEST PUSH0 DUP1 REVERT JUMPDEST PUSH0 DUP1 REVERT JUMPDEST PUSH0 DUP1 REVERT JUMPDEST PUSH0 DUP1 REVERT JUMPDEST PUSH0 PUSH1 0x1F NOT PUSH1 0x1F DUP4 ADD AND SWAP1 POP SWAP2 SWAP1 POP JUMP JUMPDEST PUSH2 0x449 DUP3 PUSH2 0x430 JUMP JUMPDEST DUP2 ADD DUP2 DUP2 LT PUSH8 0xFFFFFFFFFFFFFFFF DUP3 GT OR ISZERO PUSH2 0x468 JUMPI PUSH2 0x467 PUSH2 0x118 JUMP JUMPDEST JUMPDEST DUP1 PUSH1 0x40 MSTORE POP POP POP JUMP JUMPDEST PUSH0 PUSH2 0x47A PUSH2 0x417 JUMP JUMPDEST SWAP1 POP PUSH2 0x486 DUP3 DUP3 PUSH2 0x440 JUMP JUMPDEST SWAP2 SWAP1 POP JUMP JUMPDEST PUSH0 PUSH8 0xFFFFFFFFFFFFFFFF DUP3 GT ISZERO PUSH2 0x4A5 JUMPI PUSH2 0x4A4 PUSH2 0x118 JUMP JUMPDEST JUMPDEST PUSH2 0x4AE DUP3 PUSH2 0x430 JUMP JUMPDEST SWAP1 POP PUSH1 0x20 DUP2 ADD SWAP1 POP SWAP2 SWAP1 POP JUMP JUMPDEST DUP3 DUP2 DUP4 MCOPY PUSH0 DUP4 DUP4 ADD MSTORE POP POP POP JUMP JUMPDEST PUSH0 PUSH2 0x4DB PUSH2 0x4D6 DUP5 PUSH2 0x48B JUMP JUMPDEST PUSH2 0x471 JUMP JUMPDEST SWAP1 POP DUP3 DUP2 MSTORE PUSH1 0x20 DUP2 ADD DUP5 DUP5 DUP5 ADD GT ISZERO PUSH2 0x4F7 JUMPI PUSH2 0x4F6 PUSH2 0x42C JUMP JUMPDEST JUMPDEST PUSH2 0x502 DUP5 DUP3 DUP6 PUSH2 0x4BB JUMP JUMPDEST POP SWAP4 SWAP3 POP POP POP JUMP JUMPDEST PUSH0 DUP3 PUSH1 0x1F DUP4 ADD SLT PUSH2 0x51E JUMPI PUSH2 0x51D PUSH2 0x428 JUMP JUMPDEST JUMPDEST DUP2 MLOAD PUSH2 0x52E DUP5 DUP3 PUSH1 0x20 DUP7 ADD PUSH2 0x4C9 JUMP JUMPDEST SWAP2 POP POP SWAP3 SWAP2 POP POP JUMP JUMPDEST PUSH0 DUP1 PUSH1 0x40 DUP4 DUP6 SUB SLT ISZERO PUSH2 0x54D JUMPI PUSH2 0x54C PUSH2 0x420 JUMP JUMPDEST JUMPDEST PUSH0 DUP4 ADD MLOAD PUSH8 0xFFFFFFFFFFFFFFFF DUP2 GT ISZERO PUSH2 0x56A JUMPI PUSH2 0x569 PUSH2 0x424 JUMP JUMPDEST JUMPDEST PUSH2 0x576 DUP6 DUP3 DUP7 ADD PUSH2 0x50A JUMP JUMPDEST SWAP3 POP POP PUSH1 0x20 DUP4 ADD MLOAD PUSH8 0xFFFFFFFFFFFFFFFF DUP2 GT ISZERO PUSH2 0x597 JUMPI PUSH2 0x596 PUSH2 0x424 JUMP JUMPDEST JUMPDEST PUSH2 0x5A3 DUP6 DUP3 DUP7 ADD PUSH2 0x50A JUMP JUMPDEST SWAP2 POP POP SWAP3 POP SWAP3 SWAP1 POP JUMP JUMPDEST PUSH2 0x1D9B DUP1 PUSH2 0x5BA PUSH0 CODECOPY PUSH0 RETURN INVALID PUSH1 0x80 PUSH1 0x40 MSTORE CALLVALUE DUP1 ISZERO PUSH2 0xF JUMPI PUSH0 DUP1 REVERT JUMPDEST POP PUSH1 0x4 CALLDATASIZE LT PUSH2 0xFE JUMPI PUSH0 CALLDATALOAD PUSH1 0xE0 SHR DUP1 PUSH4 0x830953AB GT PUSH2 0x95 JUMPI DUP1 PUSH4 0x976B3113 GT PUSH2 0x64 JUMPI DUP1 PUSH4 0x976B3113 EQ PUSH2 0x2AE JUMPI DUP1 PUSH4 0xA9059CBB EQ PUSH2 0x2DE JUMPI DUP1 PUSH4 0xD5ABEB01 EQ PUSH2 0x30E JUMPI DUP1 PUSH4 0xDD62ED3E EQ PUSH2 0x32C JUMPI PUSH2 0xFE JUMP JUMPDEST DUP1 PUSH4 0x830953AB EQ PUSH2 0x226 JUMPI DUP1 PUSH4 0x8615D855 EQ PUSH2 0x244 JUMPI DUP1 PUSH4 0x943E8216 EQ PUSH2 0x274 JUMPI DUP1 PUSH4 0x95D89B41 EQ PUSH2 0x290 JUMPI PUSH2 0xFE JUMP JUMPDEST DUP1 PUSH4 0x313CE567 GT PUSH2 0xD1 JUMPI DUP1 PUSH4 0x313CE567 EQ PUSH2 0x19E JUMPI DUP1 PUSH4 0x4E71D92D EQ PUSH2 0x1BC JUMPI DUP1 PUSH4 0x624601B6 EQ PUSH2 0x1C6 JUMPI DUP1 PUSH4 0x70A08231 EQ PUSH2 0x1F6 JUMPI PUSH2 0xFE JUMP JUMPDEST DUP1 PUSH4 0x6FDDE03 EQ PUSH2 0x102 JUMPI DUP1 PUSH4 0x95EA7B3 EQ PUSH2 0x120 JUMPI DUP1 PUSH4 0x18160DDD EQ PUSH2 0x150 JUMPI DUP1 PUSH4 0x23B872DD EQ PUSH2 0x16E JUMPI JUMPDEST PUSH0 DUP1 REVERT JUMPDEST PUSH2 0x10A PUSH2 0x35C JUMP JUMPDEST PUSH1 0x40 MLOAD PUSH2 0x117 SWAP2 SWAP1 PUSH2 0x1392 JUMP JUMPDEST PUSH1 0x40 MLOAD DUP1 SWAP2 SUB SWAP1 RETURN JUMPDEST PUSH2 0x13A PUSH1 0x4 DUP1 CALLDATASIZE SUB DUP2 ADD SWAP1 PUSH2 0x135 SWAP2 SWAP1 PUSH2 0x1447 JUMP JUMPDEST PUSH2 0x3EC JUMP JUMPDEST PUSH1 0x40 MLOAD PUSH2 0x147 SWAP2 SWAP1 PUSH2 0x149F JUMP JUMPDEST PUSH1 0x40 MLOAD DUP1 SWAP2 SUB SWAP1 RETURN JUMPDEST PUSH2 0x158 PUSH2 0x40E JUMP JUMPDEST PUSH1 0x40 MLOAD PUSH2 0x165 SWAP2 SWAP1 PUSH2 0x14C7 JUMP JUMPDEST PUSH1 0x40 MLOAD DUP1 SWAP2 SUB SWAP1 RETURN JUMPDEST PUSH2 0x188 PUSH1 0x4 DUP1 CALLDATASIZE SUB DUP2 ADD SWAP1 PUSH2 0x183 SWAP2 SWAP1 PUSH2 0x14E0 JUMP JUMPDEST PUSH2 0x417 JUMP JUMPDEST PUSH1 0x40 MLOAD PUSH2 0x195 SWAP2 SWAP1 PUSH2 0x149F JUMP JUMPDEST PUSH1 0x40 MLOAD DUP1 SWAP2 SUB SWAP1 RETURN JUMPDEST PUSH2 0x1A6 PUSH2 0x445 JUMP JUMPDEST PUSH1 0x40 MLOAD PUSH2 0x1B3 SWAP2 SWAP1 PUSH2 0x154B JUMP JUMPDEST PUSH1 0x40 MLOAD DUP1 SWAP2 SUB SWAP1 RETURN JUMPDEST PUSH2 0x1C4 PUSH2 0x44D JUMP JUMPDEST STOP JUMPDEST PUSH2 0x1E0 PUSH1 0x4 DUP1 CALLDATASIZE SUB DUP2 ADD SWAP1 PUSH2 0x1DB SWAP2 SWAP1 PUSH2 0x1564 JUMP JUMPDEST PUSH2 0x581 JUMP JUMPDEST PUSH1 0x40 MLOAD PUSH2 0x1ED SWAP2 SWAP1 PUSH2 0x149F JUMP JUMPDEST PUSH1 0x40 MLOAD DUP1 SWAP2 SUB SWAP1 RETURN JUMPDEST PUSH2 0x210 PUSH1 0x4 DUP1 CALLDATASIZE SUB DUP2 ADD SWAP1 PUSH2 0x20B SWAP2 SWAP1 PUSH2 0x1564 JUMP JUMPDEST PUSH2 0x59E JUMP JUMPDEST PUSH1 0x40 MLOAD PUSH2 0x21D SWAP2 SWAP1 PUSH2 0x14C7 JUMP JUMPDEST PUSH1 0x40 MLOAD DUP1 SWAP2 SUB SWAP1 RETURN JUMPDEST PUSH2 0x22E PUSH2 0x5E3 JUMP JUMPDEST PUSH1 0x40 MLOAD PUSH2 0x23B SWAP2 SWAP1 PUSH2 0x14C7 JUMP JUMPDEST PUSH1 0x40 MLOAD DUP1 SWAP2 SUB SWAP1 RETURN JUMPDEST PUSH2 0x25E PUSH1 0x4 DUP1 CALLDATASIZE SUB DUP2 ADD SWAP1 PUSH2 0x259 SWAP2 SWAP1 PUSH2 0x15F0 JUMP JUMPDEST PUSH2 0x5E9 JUMP JUMPDEST PUSH1 0x40 MLOAD PUSH2 0x26B SWAP2 SWAP1 PUSH2 0x14C7 JUMP JUMPDEST PUSH1 0x40 MLOAD DUP1 SWAP2 SUB SWAP1 RETURN JUMPDEST PUSH2 0x28E PUSH1 0x4 DUP1 CALLDATASIZE SUB DUP2 ADD SWAP1 PUSH2 0x289 SWAP2 SWAP1 PUSH2 0x1670 JUMP JUMPDEST PUSH2 0x6C6 JUMP JUMPDEST STOP JUMPDEST PUSH2 0x298 PUSH2 0x904 JUMP JUMPDEST PUSH1 0x40 MLOAD PUSH2 0x2A5 SWAP2 SWAP1 PUSH2 0x1392 JUMP JUMPDEST PUSH1 0x40 MLOAD DUP1 SWAP2 SUB SWAP1 RETURN JUMPDEST PUSH2 0x2C8 PUSH1 0x4 DUP1 CALLDATASIZE SUB DUP2 ADD SWAP1 PUSH2 0x2C3 SWAP2 SWAP1 PUSH2 0x16AE JUMP JUMPDEST PUSH2 0x994 JUMP JUMPDEST PUSH1 0x40 MLOAD PUSH2 0x2D5 SWAP2 SWAP1 PUSH2 0x18BF JUMP JUMPDEST PUSH1 0x40 MLOAD DUP1 SWAP2 SUB SWAP1 RETURN JUMPDEST PUSH2 0x2F8 PUSH1 0x4 DUP1 CALLDATASIZE SUB DUP2 ADD SWAP1 PUSH2 0x2F3 SWAP2 SWAP1 PUSH2 0x1447 JUMP JUMPDEST PUSH2 0xAD4 JUMP JUMPDEST PUSH1 0x40 MLOAD PUSH2 0x305 SWAP2 SWAP1 PUSH2 0x149F JUMP JUMPDEST PUSH1 0x40 MLOAD DUP1 SWAP2 SUB SWAP1 RETURN JUMPDEST PUSH2 0x316 PUSH2 0xAF6 JUMP JUMPDEST PUSH1 0x40 MLOAD PUSH2 0x323 SWAP2 SWAP1 PUSH2 0x14C7 JUMP JUMPDEST PUSH1 0x40 MLOAD DUP1 SWAP2 SUB SWAP1 RETURN JUMPDEST PUSH2 0x346 PUSH1 0x4 DUP1 CALLDATASIZE SUB DUP2 ADD SWAP1 PUSH2 0x341 SWAP2 SWAP1 PUSH2 0x18DF JUMP JUMPDEST PUSH2 0xAFC JUMP JUMPDEST PUSH1 0x40 MLOAD PUSH2 0x353 SWAP2 SWAP1 PUSH2 0x14C7 JUMP JUMPDEST PUSH1 0x40 MLOAD DUP1 SWAP2 SUB SWAP1 RETURN JUMPDEST PUSH1 0x60 PUSH1 0x3 DUP1 SLOAD PUSH2 0x36B SWAP1 PUSH2 0x194A JUMP JUMPDEST DUP1 PUSH1 0x1F ADD PUSH1 0x20 DUP1 SWAP2 DIV MUL PUSH1 0x20 ADD PUSH1 0x40 MLOAD SWAP1 DUP2 ADD PUSH1 0x40 MSTORE DUP1 SWAP3 SWAP2 SWAP1 DUP2 DUP2 MSTORE PUSH1 0x20 ADD DUP3 DUP1 SLOAD PUSH2 0x397 SWAP1 PUSH2 0x194A JUMP JUMPDEST DUP1 ISZERO PUSH2 0x3E2 JUMPI DUP1 PUSH1 0x1F LT PUSH2 0x3B9 JUMPI PUSH2 0x100 DUP1 DUP4 SLOAD DIV MUL DUP4 MSTORE SWAP2 PUSH1 0x20 ADD SWAP2 PUSH2 0x3E2 JUMP JUMPDEST DUP3 ADD SWAP2 SWAP1 PUSH0 MSTORE PUSH1 0x20 PUSH0 KECCAK256 SWAP1 JUMPDEST DUP2 SLOAD DUP2 MSTORE SWAP1 PUSH1 0x1 ADD SWAP1 PUSH1 0x20 ADD DUP1 DUP4 GT PUSH2 0x3C5 JUMPI DUP3 SWAP1 SUB PUSH1 0x1F AND DUP3 ADD SWAP2 JUMPDEST POP POP POP POP POP SWAP1 POP SWAP1 JUMP JUMPDEST PUSH0 DUP1 PUSH2 0x3F6 PUSH2 0xB7E JUMP JUMPDEST SWAP1 POP PUSH2 0x403 DUP2 DUP6 DUP6 PUSH2 0xB85 JUMP JUMPDEST PUSH1 0x1 SWAP2 POP POP SWAP3 SWAP2 POP POP JUMP JUMPDEST PUSH0 PUSH1 0x2 SLOAD SWAP1 POP SWAP1 JUMP JUMPDEST PUSH0 DUP1 PUSH2 0x421 PUSH2 0xB7E JUMP JUMPDEST SWAP1 POP PUSH2 0x42E DUP6 DUP3 DUP6 PUSH2 0xB97 JUMP JUMPDEST PUSH2 0x439 DUP6 DUP6 DUP6 PUSH2 0xC29 JUMP JUMPDEST PUSH1 0x1 SWAP2 POP POP SWAP4 SWAP3 POP POP POP JUMP JUMPDEST PUSH0 PUSH1 0x12 SWAP1 POP SWAP1 JUMP JUMPDEST PUSH1 0x8 SLOAD PUSH1 0x9 SLOAD PUSH2 0x45B PUSH2 0x40E JUMP JUMPDEST PUSH2 0x465 SWAP2 SWAP1 PUSH2 0x19A7 JUMP JUMPDEST GT ISZERO PUSH2 0x49D JUMPI PUSH1 0x40 MLOAD PUSH32 0xCBE2483100000000000000000000000000000000000000000000000000000000 DUP2 MSTORE PUSH1 0x4 ADD PUSH1 0x40 MLOAD DUP1 SWAP2 SUB SWAP1 REVERT JUMPDEST PUSH1 0x7 PUSH0 CALLER PUSH20 0xFFFFFFFFFFFFFFFFFFFFFFFFFFFFFFFFFFFFFFFF AND PUSH20 0xFFFFFFFFFFFFFFFFFFFFFFFFFFFFFFFFFFFFFFFF AND DUP2 MSTORE PUSH1 0x20 ADD SWAP1 DUP2 MSTORE PUSH1 0x20 ADD PUSH0 KECCAK256 PUSH0 SWAP1 SLOAD SWAP1 PUSH2 0x100 EXP SWAP1 DIV PUSH1 0xFF AND ISZERO PUSH2 0x51E JUMPI PUSH1 0x40 MLOAD PUSH32 0xB1327A600000000000000000000000000000000000000000000000000000000 DUP2 MSTORE PUSH1 0x4 ADD PUSH1 0x40 MLOAD DUP1 SWAP2 SUB SWAP1 REVERT JUMPDEST PUSH2 0x52A CALLER PUSH1 0x9 SLOAD PUSH2 0xD19 JUMP JUMPDEST PUSH1 0x1 PUSH1 0x7 PUSH0 CALLER PUSH20 0xFFFFFFFFFFFFFFFFFFFFFFFFFFFFFFFFFFFFFFFF AND PUSH20 0xFFFFFFFFFFFFFFFFFFFFFFFFFFFFFFFFFFFFFFFF AND DUP2 MSTORE PUSH1 0x20 ADD SWAP1 DUP2 MSTORE PUSH1 0x20 ADD PUSH0 KECCAK256 PUSH0 PUSH2 0x100 EXP DUP2 SLOAD DUP2 PUSH1 0xFF MUL NOT AND SWAP1 DUP4 ISZERO ISZERO MUL OR SWAP1 SSTORE POP JUMP JUMPDEST PUSH1 0x7 PUSH1 0x20 MSTORE DUP1 PUSH0 MSTORE PUSH1 0x40 PUSH0 KECCAK256 PUSH0 SWAP2 POP SLOAD SWAP1 PUSH2 0x100 EXP SWAP1 DIV PUSH1 0xFF AND DUP2 JUMP JUMPDEST PUSH0 DUP1 PUSH0 DUP4 PUSH20 0xFFFFFFFFFFFFFFFFFFFFFFFFFFFFFFFFFFFFFFFF AND PUSH20 0xFFFFFFFFFFFFFFFFFFFFFFFFFFFFFFFFFFFFFFFF AND DUP2 MSTORE PUSH1 0x20 ADD SWAP1 DUP2 MSTORE PUSH1 0x20 ADD PUSH0 KECCAK256 SLOAD SWAP1 POP SWAP2 SWAP1 POP JUMP JUMPDEST PUSH1 0x9 SLOAD DUP2 JUMP JUMPDEST PUSH0 DUP1 PUSH2 0x5F4 CALLER PUSH2 0x59E JUMP JUMPDEST SUB PUSH2 0x62B JUMPI PUSH1 0x40 MLOAD PUSH32 0x8439960D00000000000000000000000000000000000000000000000000000000 DUP2 MSTORE PUSH1 0x4 ADD PUSH1 0x40 MLOAD DUP1 SWAP2 SUB SWAP1 REVERT JUMPDEST PUSH2 0x633 PUSH2 0x40E JUMP JUMPDEST DUP3 GT ISZERO PUSH2 0x66C JUMPI PUSH1 0x40 MLOAD PUSH32 0xD92730000000000000000000000000000000000000000000000000000000000 DUP2 MSTORE PUSH1 0x4 ADD PUSH1 0x40 MLOAD DUP1 SWAP2 SUB SWAP1 REVERT JUMPDEST PUSH0 PUSH1 0x6 PUSH1 0x1 DUP2 PUSH1 0x1 DUP2 SLOAD ADD DUP1 DUP3 SSTORE DUP1 SWAP2 POP POP SUB SWAP1 PUSH0 MSTORE PUSH1 0x20 PUSH0 KECCAK256 SWAP1 PUSH1 0x9 MUL ADD SWAP1 POP DUP5 DUP5 DUP3 PUSH1 0x2 ADD SWAP2 DUP3 PUSH2 0x6A0 SWAP3 SWAP2 SWAP1 PUSH2 0x1BAE JUMP JUMPDEST POP DUP3 DUP2 PUSH1 0x3 ADD DUP2 SWAP1 SSTORE POP PUSH1 0x1 PUSH1 0x6 DUP1 SLOAD SWAP1 POP PUSH2 0x6BC SWAP2 SWAP1 PUSH2 0x1C7B JUMP JUMPDEST SWAP2 POP POP SWAP4 SWAP3 POP POP POP JUMP JUMPDEST PUSH0 PUSH1 0x6 DUP4 DUP2 SLOAD DUP2 LT PUSH2 0x6DB JUMPI PUSH2 0x6DA PUSH2 0x1CAE JUMP JUMPDEST JUMPDEST SWAP1 PUSH0 MSTORE PUSH1 0x20 PUSH0 KECCAK256 SWAP1 PUSH1 0x9 MUL ADD SWAP1 POP DUP1 PUSH1 0x8 ADD PUSH1 0x1 SWAP1 SLOAD SWAP1 PUSH2 0x100 EXP SWAP1 DIV PUSH1 0xFF AND ISZERO PUSH2 0x732 JUMPI PUSH1 0x40 MLOAD PUSH32 0x66B6CB4A00000000000000000000000000000000000000000000000000000000 DUP2 MSTORE PUSH1 0x4 ADD PUSH1 0x40 MLOAD DUP1 SWAP2 SUB SWAP1 REVERT JUMPDEST PUSH2 0x747 CALLER DUP3 PUSH0 ADD PUSH2 0xD98 SWAP1 SWAP2 SWAP1 PUSH4 0xFFFFFFFF AND JUMP JUMPDEST ISZERO PUSH2 0x77E JUMPI PUSH1 0x40 MLOAD PUSH32 0x7C9A1CF900000000000000000000000000000000000000000000000000000000 DUP2 MSTORE PUSH1 0x4 ADD PUSH1 0x40 MLOAD DUP1 SWAP2 SUB SWAP1 REVERT JUMPDEST PUSH0 PUSH2 0x788 CALLER PUSH2 0x59E JUMP JUMPDEST SWAP1 POP PUSH0 DUP2 SUB PUSH2 0x7C3 JUMPI PUSH1 0x40 MLOAD PUSH32 0x8439960D00000000000000000000000000000000000000000000000000000000 DUP2 MSTORE PUSH1 0x4 ADD PUSH1 0x40 MLOAD DUP1 SWAP2 SUB SWAP1 REVERT JUMPDEST PUSH0 PUSH1 0x2 DUP2 GT ISZERO PUSH2 0x7D6 JUMPI PUSH2 0x7D5 PUSH2 0x1CDB JUMP JUMPDEST JUMPDEST DUP4 PUSH1 0x2 DUP2 GT ISZERO PUSH2 0x7E9 JUMPI PUSH2 0x7E8 PUSH2 0x1CDB JUMP JUMPDEST JUMPDEST SUB PUSH2 0x80D JUMPI DUP1 DUP3 PUSH1 0x6 ADD PUSH0 DUP3 DUP3 SLOAD PUSH2 0x801 SWAP2 SWAP1 PUSH2 0x19A7 JUMP JUMPDEST SWAP3 POP POP DUP2 SWAP1 SSTORE POP PUSH2 0x874 JUMP JUMPDEST PUSH1 0x1 PUSH1 0x2 DUP2 GT ISZERO PUSH2 0x821 JUMPI PUSH2 0x820 PUSH2 0x1CDB JUMP JUMPDEST JUMPDEST DUP4 PUSH1 0x2 DUP2 GT ISZERO PUSH2 0x834 JUMPI PUSH2 0x833 PUSH2 0x1CDB JUMP JUMPDEST JUMPDEST SUB PUSH2 0x858 JUMPI DUP1 DUP3 PUSH1 0x5 ADD PUSH0 DUP3 DUP3 SLOAD PUSH2 0x84C SWAP2 SWAP1 PUSH2 0x19A7 JUMP JUMPDEST SWAP3 POP POP DUP2 SWAP1 SSTORE POP PUSH2 0x873 JUMP JUMPDEST DUP1 DUP3 PUSH1 0x7 ADD PUSH0 DUP3 DUP3 SLOAD PUSH2 0x86B SWAP2 SWAP1 PUSH2 0x19A7 JUMP JUMPDEST SWAP3 POP POP DUP2 SWAP1 SSTORE POP JUMPDEST JUMPDEST PUSH2 0x889 CALLER DUP4 PUSH0 ADD PUSH2 0xDC5 SWAP1 SWAP2 SWAP1 PUSH4 0xFFFFFFFF AND JUMP JUMPDEST POP DUP1 DUP3 PUSH1 0x4 ADD PUSH0 DUP3 DUP3 SLOAD PUSH2 0x89D SWAP2 SWAP1 PUSH2 0x19A7 JUMP JUMPDEST SWAP3 POP POP DUP2 SWAP1 SSTORE POP DUP2 PUSH1 0x3 ADD SLOAD DUP3 PUSH1 0x4 ADD SLOAD LT PUSH2 0x8FE JUMPI PUSH1 0x1 DUP3 PUSH1 0x8 ADD PUSH1 0x1 PUSH2 0x100 EXP DUP2 SLOAD DUP2 PUSH1 0xFF MUL NOT AND SWAP1 DUP4 ISZERO ISZERO MUL OR SWAP1 SSTORE POP DUP2 PUSH1 0x6 ADD SLOAD DUP3 PUSH1 0x5 ADD SLOAD GT ISZERO PUSH2 0x8FD JUMPI PUSH1 0x1 DUP3 PUSH1 0x8 ADD PUSH0 PUSH2 0x100 EXP DUP2 SLOAD DUP2 PUSH1 0xFF MUL NOT AND SWAP1 DUP4 ISZERO ISZERO MUL OR SWAP1 SSTORE POP JUMPDEST JUMPDEST POP POP POP POP JUMP JUMPDEST PUSH1 0x60 PUSH1 0x4 DUP1 SLOAD PUSH2 0x913 SWAP1 PUSH2 0x194A JUMP JUMPDEST DUP1 PUSH1 0x1F ADD PUSH1 0x20 DUP1 SWAP2 DIV MUL PUSH1 0x20 ADD PUSH1 0x40 MLOAD SWAP1 DUP2 ADD PUSH1 0x40 MSTORE DUP1 SWAP3 SWAP2 SWAP1 DUP2 DUP2 MSTORE PUSH1 0x20 ADD DUP3 DUP1 SLOAD PUSH2 0x93F SWAP1 PUSH2 0x194A JUMP JUMPDEST DUP1 ISZERO PUSH2 0x98A JUMPI DUP1 PUSH1 0x1F LT PUSH2 0x961 JUMPI PUSH2 0x100 DUP1 DUP4 SLOAD DIV MUL DUP4 MSTORE SWAP2 PUSH1 0x20 ADD SWAP2 PUSH2 0x98A JUMP JUMPDEST DUP3 ADD SWAP2 SWAP1 PUSH0 MSTORE PUSH1 0x20 PUSH0 KECCAK256 SWAP1 JUMPDEST DUP2 SLOAD DUP2 MSTORE SWAP1 PUSH1 0x1 ADD SWAP1 PUSH1 0x20 ADD DUP1 DUP4 GT PUSH2 0x96D JUMPI DUP3 SWAP1 SUB PUSH1 0x1F AND DUP3 ADD SWAP2 JUMPDEST POP POP POP POP POP SWAP1 POP SWAP1 JUMP JUMPDEST PUSH2 0x99C PUSH2 0x12D9 JUMP JUMPDEST PUSH0 PUSH1 0x6 DUP4 DUP2 SLOAD DUP2 LT PUSH2 0x9B1 JUMPI PUSH2 0x9B0 PUSH2 0x1CAE JUMP JUMPDEST JUMPDEST SWAP1 PUSH0 MSTORE PUSH1 0x20 PUSH0 KECCAK256 SWAP1 PUSH1 0x9 MUL ADD SWAP1 POP PUSH1 0x40 MLOAD DUP1 PUSH2 0x120 ADD PUSH1 0x40 MSTORE DUP1 PUSH2 0x9D6 DUP4 PUSH0 ADD PUSH2 0xDF2 JUMP JUMPDEST DUP2 MSTORE PUSH1 0x20 ADD DUP3 PUSH1 0x2 ADD DUP1 SLOAD PUSH2 0x9EA SWAP1 PUSH2 0x194A JUMP JUMPDEST DUP1 PUSH1 0x1F ADD PUSH1 0x20 DUP1 SWAP2 DIV MUL PUSH1 0x20 ADD PUSH1 0x40 MLOAD SWAP1 DUP2 ADD PUSH1 0x40 MSTORE DUP1 SWAP3 SWAP2 SWAP1 DUP2 DUP2 MSTORE PUSH1 0x20 ADD DUP3 DUP1 SLOAD PUSH2 0xA16 SWAP1 PUSH2 0x194A JUMP JUMPDEST DUP1 ISZERO PUSH2 0xA61 JUMPI DUP1 PUSH1 0x1F LT PUSH2 0xA38 JUMPI PUSH2 0x100 DUP1 DUP4 SLOAD DIV MUL DUP4 MSTORE SWAP2 PUSH1 0x20 ADD SWAP2 PUSH2 0xA61 JUMP JUMPDEST DUP3 ADD SWAP2 SWAP1 PUSH0 MSTORE PUSH1 0x20 PUSH0 KECCAK256 SWAP1 JUMPDEST DUP2 SLOAD DUP2 MSTORE SWAP1 PUSH1 0x1 ADD SWAP1 PUSH1 0x20 ADD DUP1 DUP4 GT PUSH2 0xA44 JUMPI DUP3 SWAP1 SUB PUSH1 0x1F AND DUP3 ADD SWAP2 JUMPDEST POP POP POP POP POP DUP2 MSTORE PUSH1 0x20 ADD DUP3 PUSH1 0x3 ADD SLOAD DUP2 MSTORE PUSH1 0x20 ADD DUP3 PUSH1 0x4 ADD SLOAD DUP2 MSTORE PUSH1 0x20 ADD DUP3 PUSH1 0x5 ADD SLOAD DUP2 MSTORE PUSH1 0x20 ADD DUP3 PUSH1 0x6 ADD SLOAD DUP2 MSTORE PUSH1 0x20 ADD DUP3 PUSH1 0x7 ADD SLOAD DUP2 MSTORE PUSH1 0x20 ADD DUP3 PUSH1 0x8 ADD PUSH0 SWAP1 SLOAD SWAP1 PUSH2 0x100 EXP SWAP1 DIV PUSH1 0xFF AND ISZERO ISZERO DUP2 MSTORE PUSH1 0x20 ADD DUP3 PUSH1 0x8 ADD PUSH1 0x1 SWAP1 SLOAD SWAP1 PUSH2 0x100 EXP SWAP1 DIV PUSH1 0xFF AND ISZERO ISZERO DUP2 MSTORE POP SWAP2 POP POP SWAP2 SWAP1 POP JUMP JUMPDEST PUSH0 DUP1 PUSH2 0xADE PUSH2 0xB7E JUMP JUMPDEST SWAP1 POP PUSH2 0xAEB DUP2 DUP6 DUP6 PUSH2 0xC29 JUMP JUMPDEST PUSH1 0x1 SWAP2 POP POP SWAP3 SWAP2 POP POP JUMP JUMPDEST PUSH1 0x8 SLOAD DUP2 JUMP JUMPDEST PUSH0 PUSH1 0x1 PUSH0 DUP5 PUSH20 0xFFFFFFFFFFFFFFFFFFFFFFFFFFFFFFFFFFFFFFFF AND PUSH20 0xFFFFFFFFFFFFFFFFFFFFFFFFFFFFFFFFFFFFFFFF AND DUP2 MSTORE PUSH1 0x20 ADD SWAP1 DUP2 MSTORE PUSH1 0x20 ADD PUSH0 KECCAK256 PUSH0 DUP4 PUSH20 0xFFFFFFFFFFFFFFFFFFFFFFFFFFFFFFFFFFFFFFFF AND PUSH20 0xFFFFFFFFFFFFFFFFFFFFFFFFFFFFFFFFFFFFFFFF AND DUP2 MSTORE PUSH1 0x20 ADD SWAP1 DUP2 MSTORE PUSH1 0x20 ADD PUSH0 KECCAK256 SLOAD SWAP1 POP SWAP3 SWAP2 POP POP JUMP JUMPDEST PUSH0 CALLER SWAP1 POP SWAP1 JUMP JUMPDEST PUSH2 0xB92 DUP4 DUP4 DUP4 PUSH1 0x1 PUSH2 0xE11 JUMP JUMPDEST POP POP POP JUMP JUMPDEST PUSH0 PUSH2 0xBA2 DUP5 DUP5 PUSH2 0xAFC JUMP JUMPDEST SWAP1 POP PUSH32 0xFFFFFFFFFFFFFFFFFFFFFFFFFFFFFFFFFFFFFFFFFFFFFFFFFFFFFFFFFFFFFFFF DUP2 EQ PUSH2 0xC23 JUMPI DUP2 DUP2 LT ISZERO PUSH2 0xC14 JUMPI DUP3 DUP2 DUP4 PUSH1 0x40 MLOAD PUSH32 0xFB8F41B200000000000000000000000000000000000000000000000000000000 DUP2 MSTORE PUSH1 0x4 ADD PUSH2 0xC0B SWAP4 SWAP3 SWAP2 SWAP1 PUSH2 0x1D17 JUMP JUMPDEST PUSH1 0x40 MLOAD DUP1 SWAP2 SUB SWAP1 REVERT JUMPDEST PUSH2 0xC22 DUP5 DUP5 DUP5 DUP5 SUB PUSH0 PUSH2 0xE11 JUMP JUMPDEST JUMPDEST POP POP POP POP JUMP JUMPDEST PUSH0 PUSH20 0xFFFFFFFFFFFFFFFFFFFFFFFFFFFFFFFFFFFFFFFF AND DUP4 PUSH20 0xFFFFFFFFFFFFFFFFFFFFFFFFFFFFFFFFFFFFFFFF AND SUB PUSH2 0xC99 JUMPI PUSH0 PUSH1 0x40 MLOAD PUSH32 0x96C6FD1E00000000000000000000000000000000000000000000000000000000 DUP2 MSTORE PUSH1 0x4 ADD PUSH2 0xC90 SWAP2 SWAP1 PUSH2 0x1D4C JUMP JUMPDEST PUSH1 0x40 MLOAD DUP1 SWAP2 SUB SWAP1 REVERT JUMPDEST PUSH0 PUSH20 0xFFFFFFFFFFFFFFFFFFFFFFFFFFFFFFFFFFFFFFFF AND DUP3 PUSH20 0xFFFFFFFFFFFFFFFFFFFFFFFFFFFFFFFFFFFFFFFF AND SUB PUSH2 0xD09 JUMPI PUSH0 PUSH1 0x40 MLOAD PUSH32 0xEC442F0500000000000000000000000000000000000000000000000000000000 DUP2 MSTORE PUSH1 0x4 ADD PUSH2 0xD00 SWAP2 SWAP1 PUSH2 0x1D4C JUMP JUMPDEST PUSH1 0x40 MLOAD DUP1 SWAP2 SUB SWAP1 REVERT JUMPDEST PUSH2 0xD14 DUP4 DUP4 DUP4 PUSH2 0xFE0 JUMP JUMPDEST POP POP POP JUMP JUMPDEST PUSH0 PUSH20 0xFFFFFFFFFFFFFFFFFFFFFFFFFFFFFFFFFFFFFFFF AND DUP3 PUSH20 0xFFFFFFFFFFFFFFFFFFFFFFFFFFFFFFFFFFFFFFFF AND SUB PUSH2 0xD89 JUMPI PUSH0 PUSH1 0x40 MLOAD PUSH32 0xEC442F0500000000000000000000000000000000000000000000000000000000 DUP2 MSTORE PUSH1 0x4 ADD PUSH2 0xD80 SWAP2 SWAP1 PUSH2 0x1D4C JUMP JUMPDEST PUSH1 0x40 MLOAD DUP1 SWAP2 SUB SWAP1 REVERT JUMPDEST PUSH2 0xD94 PUSH0 DUP4 DUP4 PUSH2 0xFE0 JUMP JUMPDEST POP POP JUMP JUMPDEST PUSH0 PUSH2 0xDBD DUP4 PUSH0 ADD DUP4 PUSH20 0xFFFFFFFFFFFFFFFFFFFFFFFFFFFFFFFFFFFFFFFF AND PUSH0 SHL PUSH2 0x11F9 JUMP JUMPDEST SWAP1 POP SWAP3 SWAP2 POP POP JUMP JUMPDEST PUSH0 PUSH2 0xDEA DUP4 PUSH0 ADD DUP4 PUSH20 0xFFFFFFFFFFFFFFFFFFFFFFFFFFFFFFFFFFFFFFFF AND PUSH0 SHL PUSH2 0x1219 JUMP JUMPDEST SWAP1 POP SWAP3 SWAP2 POP POP JUMP JUMPDEST PUSH1 0x60 PUSH0 PUSH2 0xE00 DUP4 PUSH0 ADD PUSH2 0x1280 JUMP JUMPDEST SWAP1 POP PUSH1 0x60 DUP2 SWAP1 POP DUP1 SWAP3 POP POP POP SWAP2 SWAP1 POP JUMP JUMPDEST PUSH0 PUSH20 0xFFFFFFFFFFFFFFFFFFFFFFFFFFFFFFFFFFFFFFFF AND DUP5 PUSH20 0xFFFFFFFFFFFFFFFFFFFFFFFFFFFFFFFFFFFFFFFF AND SUB PUSH2 0xE81 JUMPI PUSH0 PUSH1 0x40 MLOAD PUSH32 0xE602DF0500000000000000000000000000000000000000000000000000000000 DUP2 MSTORE PUSH1 0x4 ADD PUSH2 0xE78 SWAP2 SWAP1 PUSH2 0x1D4C JUMP JUMPDEST PUSH1 0x40 MLOAD DUP1 SWAP2 SUB SWAP1 REVERT JUMPDEST PUSH0 PUSH20 0xFFFFFFFFFFFFFFFFFFFFFFFFFFFFFFFFFFFFFFFF AND DUP4 PUSH20 0xFFFFFFFFFFFFFFFFFFFFFFFFFFFFFFFFFFFFFFFF AND SUB PUSH2 0xEF1 JUMPI PUSH0 PUSH1 0x40 MLOAD PUSH32 0x94280D6200000000000000000000000000000000000000000000000000000000 DUP2 MSTORE PUSH1 0x4 ADD PUSH2 0xEE8 SWAP2 SWAP1 PUSH2 0x1D4C JUMP JUMPDEST PUSH1 0x40 MLOAD DUP1 SWAP2 SUB SWAP1 REVERT JUMPDEST DUP2 PUSH1 0x1 PUSH0 DUP7 PUSH20 0xFFFFFFFFFFFFFFFFFFFFFFFFFFFFFFFFFFFFFFFF AND PUSH20 0xFFFFFFFFFFFFFFFFFFFFFFFFFFFFFFFFFFFFFFFF AND DUP2 MSTORE PUSH1 0x20 ADD SWAP1 DUP2 MSTORE PUSH1 0x20 ADD PUSH0 KECCAK256 PUSH0 DUP6 PUSH20 0xFFFFFFFFFFFFFFFFFFFFFFFFFFFFFFFFFFFFFFFF AND PUSH20 0xFFFFFFFFFFFFFFFFFFFFFFFFFFFFFFFFFFFFFFFF AND DUP2 MSTORE PUSH1 0x20 ADD SWAP1 DUP2 MSTORE PUSH1 0x20 ADD PUSH0 KECCAK256 DUP2 SWAP1 SSTORE POP DUP1 ISZERO PUSH2 0xFDA JUMPI DUP3 PUSH20 0xFFFFFFFFFFFFFFFFFFFFFFFFFFFFFFFFFFFFFFFF AND DUP5 PUSH20 0xFFFFFFFFFFFFFFFFFFFFFFFFFFFFFFFFFFFFFFFF AND PUSH32 0x8C5BE1E5EBEC7D5BD14F71427D1E84F3DD0314C0F7B2291E5B200AC8C7C3B925 DUP5 PUSH1 0x40 MLOAD PUSH2 0xFD1 SWAP2 SWAP1 PUSH2 0x14C7 JUMP JUMPDEST PUSH1 0x40 MLOAD DUP1 SWAP2 SUB SWAP1 LOG3 JUMPDEST POP POP POP POP JUMP JUMPDEST PUSH0 PUSH20 0xFFFFFFFFFFFFFFFFFFFFFFFFFFFFFFFFFFFFFFFF AND DUP4 PUSH20 0xFFFFFFFFFFFFFFFFFFFFFFFFFFFFFFFFFFFFFFFF AND SUB PUSH2 0x1030 JUMPI DUP1 PUSH1 0x2 PUSH0 DUP3 DUP3 SLOAD PUSH2 0x1024 SWAP2 SWAP1 PUSH2 0x19A7 JUMP JUMPDEST SWAP3 POP POP DUP2 SWAP1 SSTORE POP PUSH2 0x10FE JUMP JUMPDEST PUSH0 DUP1 PUSH0 DUP6 PUSH20 0xFFFFFFFFFFFFFFFFFFFFFFFFFFFFFFFFFFFFFFFF AND PUSH20 0xFFFFFFFFFFFFFFFFFFFFFFFFFFFFFFFFFFFFFFFF AND DUP2 MSTORE PUSH1 0x20 ADD SWAP1 DUP2 MSTORE PUSH1 0x20 ADD PUSH0 KECCAK256 SLOAD SWAP1 POP DUP2 DUP2 LT ISZERO PUSH2 0x10B9 JUMPI DUP4 DUP2 DUP4 PUSH1 0x40 MLOAD PUSH32 0xE450D38C00000000000000000000000000000000000000000000000000000000 DUP2 MSTORE PUSH1 0x4 ADD PUSH2 0x10B0 SWAP4 SWAP3 SWAP2 SWAP1 PUSH2 0x1D17 JUMP JUMPDEST PUSH1 0x40 MLOAD DUP1 SWAP2 SUB SWAP1 REVERT JUMPDEST DUP2 DUP2 SUB PUSH0 DUP1 DUP7 PUSH20 0xFFFFFFFFFFFFFFFFFFFFFFFFFFFFFFFFFFFFFFFF AND PUSH20 0xFFFFFFFFFFFFFFFFFFFFFFFFFFFFFFFFFFFFFFFF AND DUP2 MSTORE PUSH1 0x20 ADD SWAP1 DUP2 MSTORE PUSH1 0x20 ADD PUSH0 KECCAK256 DUP2 SWAP1 SSTORE POP POP JUMPDEST PUSH0 PUSH20 0xFFFFFFFFFFFFFFFFFFFFFFFFFFFFFFFFFFFFFFFF AND DUP3 PUSH20 0xFFFFFFFFFFFFFFFFFFFFFFFFFFFFFFFFFFFFFFFF AND SUB PUSH2 0x1145 JUMPI DUP1 PUSH1 0x2 PUSH0 DUP3 DUP3 SLOAD SUB SWAP3 POP POP DUP2 SWAP1 SSTORE POP PUSH2 0x118F JUMP JUMPDEST DUP1 PUSH0 DUP1 DUP5 PUSH20 0xFFFFFFFFFFFFFFFFFFFFFFFFFFFFFFFFFFFFFFFF AND PUSH20 0xFFFFFFFFFFFFFFFFFFFFFFFFFFFFFFFFFFFFFFFF AND DUP2 MSTORE PUSH1 0x20 ADD SWAP1 DUP2 MSTORE PUSH1 0x20 ADD PUSH0 KECCAK256 PUSH0 DUP3 DUP3 SLOAD ADD SWAP3 POP POP DUP2 SWAP1 SSTORE POP JUMPDEST DUP2 PUSH20 0xFFFFFFFFFFFFFFFFFFFFFFFFFFFFFFFFFFFFFFFF AND DUP4 PUSH20 0xFFFFFFFFFFFFFFFFFFFFFFFFFFFFFFFFFFFFFFFF AND PUSH32 0xDDF252AD1BE2C89B69C2B068FC378DAA952BA7F163C4A11628F55A4DF523B3EF DUP4 PUSH1 0x40 MLOAD PUSH2 0x11EC SWAP2 SWAP1 PUSH2 0x14C7 JUMP JUMPDEST PUSH1 0x40 MLOAD DUP1 SWAP2 SUB SWAP1 LOG3 POP POP POP JUMP JUMPDEST PUSH0 DUP1 DUP4 PUSH1 0x1 ADD PUSH0 DUP5 DUP2 MSTORE PUSH1 0x20 ADD SWAP1 DUP2 MSTORE PUSH1 0x20 ADD PUSH0 KECCAK256 SLOAD EQ ISZERO SWAP1 POP SWAP3 SWAP2 POP POP JUMP JUMPDEST PUSH0 PUSH2 0x1224 DUP4 DUP4 PUSH2 0x11F9 JUMP JUMPDEST PUSH2 0x1276 JUMPI DUP3 PUSH0 ADD DUP3 SWAP1 DUP1 PUSH1 0x1 DUP2 SLOAD ADD DUP1 DUP3 SSTORE DUP1 SWAP2 POP POP PUSH1 0x1 SWAP1 SUB SWAP1 PUSH0 MSTORE PUSH1 0x20 PUSH0 KECCAK256 ADD PUSH0 SWAP1 SWAP2 SWAP1 SWAP2 SWAP1 SWAP2 POP SSTORE DUP3 PUSH0 ADD DUP1 SLOAD SWAP1 POP DUP4 PUSH1 0x1 ADD PUSH0 DUP5 DUP2 MSTORE PUSH1 0x20 ADD SWAP1 DUP2 MSTORE PUSH1 0x20 ADD PUSH0 KECCAK256 DUP2 SWAP1 SSTORE POP PUSH1 0x1 SWAP1 POP PUSH2 0x127A JUMP JUMPDEST PUSH0 SWAP1 POP JUMPDEST SWAP3 SWAP2 POP POP JUMP JUMPDEST PUSH1 0x60 DUP2 PUSH0 ADD DUP1 SLOAD DUP1 PUSH1 0x20 MUL PUSH1 0x20 ADD PUSH1 0x40 MLOAD SWAP1 DUP2 ADD PUSH1 0x40 MSTORE DUP1 SWAP3 SWAP2 SWAP1 DUP2 DUP2 MSTORE PUSH1 0x20 ADD DUP3 DUP1 SLOAD DUP1 ISZERO PUSH2 0x12CD JUMPI PUSH1 0x20 MUL DUP3 ADD SWAP2 SWAP1 PUSH0 MSTORE PUSH1 0x20 PUSH0 KECCAK256 SWAP1 JUMPDEST DUP2 SLOAD DUP2 MSTORE PUSH1 0x20 ADD SWAP1 PUSH1 0x1 ADD SWAP1 DUP1 DUP4 GT PUSH2 0x12B9 JUMPI JUMPDEST POP POP POP POP POP SWAP1 POP SWAP2 SWAP1 POP JUMP JUMPDEST PUSH1 0x40 MLOAD DUP1 PUSH2 0x120 ADD PUSH1 0x40 MSTORE DUP1 PUSH1 0x60 DUP2 MSTORE PUSH1 0x20 ADD PUSH1 0x60 DUP2 MSTORE PUSH1 0x20 ADD PUSH0 DUP2 MSTORE PUSH1 0x20 ADD PUSH0 DUP2 MSTORE PUSH1 0x20 ADD PUSH0 DUP2 MSTORE PUSH1 0x20 ADD PUSH0 DUP2 MSTORE PUSH1 0x20 ADD PUSH0 DUP2 MSTORE PUSH1 0x20 ADD PUSH0 ISZERO ISZERO DUP2 MSTORE PUSH1 0x20 ADD PUSH0 ISZERO ISZERO DUP2 MSTORE POP SWAP1 JUMP JUMPDEST PUSH0 DUP2 MLOAD SWAP1 POP SWAP2 SWAP1 POP JUMP JUMPDEST PUSH0 DUP3 DUP3 MSTORE PUSH1 0x20 DUP3 ADD SWAP1 POP SWAP3 SWAP2 POP POP JUMP JUMPDEST DUP3 DUP2 DUP4 MCOPY PUSH0 DUP4 DUP4 ADD MSTORE POP POP POP JUMP JUMPDEST PUSH0 PUSH1 0x1F NOT PUSH1 0x1F DUP4 ADD AND SWAP1 POP SWAP2 SWAP1 POP JUMP JUMPDEST PUSH0 PUSH2 0x1364 DUP3 PUSH2 0x1322 JUMP JUMPDEST PUSH2 0x136E DUP2 DUP6 PUSH2 0x132C JUMP JUMPDEST SWAP4 POP PUSH2 0x137E DUP2 DUP6 PUSH1 0x20 DUP7 ADD PUSH2 0x133C JUMP JUMPDEST PUSH2 0x1387 DUP2 PUSH2 0x134A JUMP JUMPDEST DUP5 ADD SWAP2 POP POP SWAP3 SWAP2 POP POP JUMP JUMPDEST PUSH0 PUSH1 0x20 DUP3 ADD SWAP1 POP DUP2 DUP2 SUB PUSH0 DUP4 ADD MSTORE PUSH2 0x13AA DUP2 DUP5 PUSH2 0x135A JUMP JUMPDEST SWAP1 POP SWAP3 SWAP2 POP POP JUMP JUMPDEST PUSH0 DUP1 REVERT JUMPDEST PUSH0 DUP1 REVERT JUMPDEST PUSH0 PUSH20 0xFFFFFFFFFFFFFFFFFFFFFFFFFFFFFFFFFFFFFFFF DUP3 AND SWAP1 POP SWAP2 SWAP1 POP JUMP JUMPDEST PUSH0 PUSH2 0x13E3 DUP3 PUSH2 0x13BA JUMP JUMPDEST SWAP1 POP SWAP2 SWAP1 POP JUMP JUMPDEST PUSH2 0x13F3 DUP2 PUSH2 0x13D9 JUMP JUMPDEST DUP2 EQ PUSH2 0x13FD JUMPI PUSH0 DUP1 REVERT JUMPDEST POP JUMP JUMPDEST PUSH0 DUP2 CALLDATALOAD SWAP1 POP PUSH2 0x140E DUP2 PUSH2 0x13EA JUMP JUMPDEST SWAP3 SWAP2 POP POP JUMP JUMPDEST PUSH0 DUP2 SWAP1 POP SWAP2 SWAP1 POP JUMP JUMPDEST PUSH2 0x1426 DUP2 PUSH2 0x1414 JUMP JUMPDEST DUP2 EQ PUSH2 0x1430 JUMPI PUSH0 DUP1 REVERT JUMPDEST POP JUMP JUMPDEST PUSH0 DUP2 CALLDATALOAD SWAP1 POP PUSH2 0x1441 DUP2 PUSH2 0x141D JUMP JUMPDEST SWAP3 SWAP2 POP POP JUMP JUMPDEST PUSH0 DUP1 PUSH1 0x40 DUP4 DUP6 SUB SLT ISZERO PUSH2 0x145D JUMPI PUSH2 0x145C PUSH2 0x13B2 JUMP JUMPDEST JUMPDEST PUSH0 PUSH2 0x146A DUP6 DUP3 DUP7 ADD PUSH2 0x1400 JUMP JUMPDEST SWAP3 POP POP PUSH1 0x20 PUSH2 0x147B DUP6 DUP3 DUP7 ADD PUSH2 0x1433 JUMP JUMPDEST SWAP2 POP POP SWAP3 POP SWAP3 SWAP1 POP JUMP JUMPDEST PUSH0 DUP2 ISZERO ISZERO SWAP1 POP SWAP2 SWAP1 POP JUMP JUMPDEST PUSH2 0x1499 DUP2 PUSH2 0x1485 JUMP JUMPDEST DUP3 MSTORE POP POP JUMP JUMPDEST PUSH0 PUSH1 0x20 DUP3 ADD SWAP1 POP PUSH2 0x14B2 PUSH0 DUP4 ADD DUP5 PUSH2 0x1490 JUMP JUMPDEST SWAP3 SWAP2 POP POP JUMP JUMPDEST PUSH2 0x14C1 DUP2 PUSH2 0x1414 JUMP JUMPDEST DUP3 MSTORE POP POP JUMP JUMPDEST PUSH0 PUSH1 0x20 DUP3 ADD SWAP1 POP PUSH2 0x14DA PUSH0 DUP4 ADD DUP5 PUSH2 0x14B8 JUMP JUMPDEST SWAP3 SWAP2 POP POP JUMP JUMPDEST PUSH0 DUP1 PUSH0 PUSH1 0x60 DUP5 DUP7 SUB SLT ISZERO PUSH2 0x14F7 JUMPI PUSH2 0x14F6 PUSH2 0x13B2 JUMP JUMPDEST JUMPDEST PUSH0 PUSH2 0x1504 DUP7 DUP3 DUP8 ADD PUSH2 0x1400 JUMP JUMPDEST SWAP4 POP POP PUSH1 0x20 PUSH2 0x1515 DUP7 DUP3 DUP8 ADD PUSH2 0x1400 JUMP JUMPDEST SWAP3 POP POP PUSH1 0x40 PUSH2 0x1526 DUP7 DUP3 DUP8 ADD PUSH2 0x1433 JUMP JUMPDEST SWAP2 POP POP SWAP3 POP SWAP3 POP SWAP3 JUMP JUMPDEST PUSH0 PUSH1 0xFF DUP3 AND SWAP1 POP SWAP2 SWAP1 POP JUMP JUMPDEST PUSH2 0x1545 DUP2 PUSH2 0x1530 JUMP JUMPDEST DUP3 MSTORE POP POP JUMP JUMPDEST PUSH0 PUSH1 0x20 DUP3 ADD SWAP1 POP PUSH2 0x155E PUSH0 DUP4 ADD DUP5 PUSH2 0x153C JUMP JUMPDEST SWAP3 SWAP2 POP POP JUMP JUMPDEST PUSH0 PUSH1 0x20 DUP3 DUP5 SUB SLT ISZERO PUSH2 0x1579 JUMPI PUSH2 0x1578 PUSH2 0x13B2 JUMP JUMPDEST JUMPDEST PUSH0 PUSH2 0x1586 DUP5 DUP3 DUP6 ADD PUSH2 0x1400 JUMP JUMPDEST SWAP2 POP POP SWAP3 SWAP2 POP POP JUMP JUMPDEST PUSH0 DUP1 REVERT JUMPDEST PUSH0 DUP1 REVERT JUMPDEST PUSH0 DUP1 REVERT JUMPDEST PUSH0 DUP1 DUP4 PUSH1 0x1F DUP5 ADD SLT PUSH2 0x15B0 JUMPI PUSH2 0x15AF PUSH2 0x158F JUMP JUMPDEST JUMPDEST DUP3 CALLDATALOAD SWAP1 POP PUSH8 0xFFFFFFFFFFFFFFFF DUP2 GT ISZERO PUSH2 0x15CD JUMPI PUSH2 0x15CC PUSH2 0x1593 JUMP JUMPDEST JUMPDEST PUSH1 0x20 DUP4 ADD SWAP2 POP DUP4 PUSH1 0x1 DUP3 MUL DUP4 ADD GT ISZERO PUSH2 0x15E9 JUMPI PUSH2 0x15E8 PUSH2 0x1597 JUMP JUMPDEST JUMPDEST SWAP3 POP SWAP3 SWAP1 POP JUMP JUMPDEST PUSH0 DUP1 PUSH0 PUSH1 0x40 DUP5 DUP7 SUB SLT ISZERO PUSH2 0x1607 JUMPI PUSH2 0x1606 PUSH2 0x13B2 JUMP JUMPDEST JUMPDEST PUSH0 DUP5 ADD CALLDATALOAD PUSH8 0xFFFFFFFFFFFFFFFF DUP2 GT ISZERO PUSH2 0x1624 JUMPI PUSH2 0x1623 PUSH2 0x13B6 JUMP JUMPDEST JUMPDEST PUSH2 0x1630 DUP7 DUP3 DUP8 ADD PUSH2 0x159B JUMP JUMPDEST SWAP4 POP SWAP4 POP POP PUSH1 0x20 PUSH2 0x1643 DUP7 DUP3 DUP8 ADD PUSH2 0x1433 JUMP JUMPDEST SWAP2 POP POP SWAP3 POP SWAP3 POP SWAP3 JUMP JUMPDEST PUSH1 0x3 DUP2 LT PUSH2 0x1659 JUMPI PUSH0 DUP1 REVERT JUMPDEST POP JUMP JUMPDEST PUSH0 DUP2 CALLDATALOAD SWAP1 POP PUSH2 0x166A DUP2 PUSH2 0x164D JUMP JUMPDEST SWAP3 SWAP2 POP POP JUMP JUMPDEST PUSH0 DUP1 PUSH1 0x40 DUP4 DUP6 SUB SLT ISZERO PUSH2 0x1686 JUMPI PUSH2 0x1685 PUSH2 0x13B2 JUMP JUMPDEST JUMPDEST PUSH0 PUSH2 0x1693 DUP6 DUP3 DUP7 ADD PUSH2 0x1433 JUMP JUMPDEST SWAP3 POP POP PUSH1 0x20 PUSH2 0x16A4 DUP6 DUP3 DUP7 ADD PUSH2 0x165C JUMP JUMPDEST SWAP2 POP POP SWAP3 POP SWAP3 SWAP1 POP JUMP JUMPDEST PUSH0 PUSH1 0x20 DUP3 DUP5 SUB SLT ISZERO PUSH2 0x16C3 JUMPI PUSH2 0x16C2 PUSH2 0x13B2 JUMP JUMPDEST JUMPDEST PUSH0 PUSH2 0x16D0 DUP5 DUP3 DUP6 ADD PUSH2 0x1433 JUMP JUMPDEST SWAP2 POP POP SWAP3 SWAP2 POP POP JUMP JUMPDEST PUSH0 DUP2 MLOAD SWAP1 POP SWAP2 SWAP1 POP JUMP JUMPDEST PUSH0 DUP3 DUP3 MSTORE PUSH1 0x20 DUP3 ADD SWAP1 POP SWAP3 SWAP2 POP POP JUMP JUMPDEST PUSH0 DUP2 SWAP1 POP PUSH1 0x20 DUP3 ADD SWAP1 POP SWAP2 SWAP1 POP JUMP JUMPDEST PUSH2 0x170B DUP2 PUSH2 0x13D9 JUMP JUMPDEST DUP3 MSTORE POP POP JUMP JUMPDEST PUSH0 PUSH2 0x171C DUP4 DUP4 PUSH2 0x1702 JUMP JUMPDEST PUSH1 0x20 DUP4 ADD SWAP1 POP SWAP3 SWAP2 POP POP JUMP JUMPDEST PUSH0 PUSH1 0x20 DUP3 ADD SWAP1 POP SWAP2 SWAP1 POP JUMP JUMPDEST PUSH0 PUSH2 0x173E DUP3 PUSH2 0x16D9 JUMP JUMPDEST PUSH2 0x1748 DUP2 DUP6 PUSH2 0x16E3 JUMP JUMPDEST SWAP4 POP PUSH2 0x1753 DUP4 PUSH2 0x16F3 JUMP JUMPDEST DUP1 PUSH0 JUMPDEST DUP4 DUP2 LT ISZERO PUSH2 0x1783 JUMPI DUP2 MLOAD PUSH2 0x176A DUP9 DUP3 PUSH2 0x1711 JUMP JUMPDEST SWAP8 POP PUSH2 0x1775 DUP4 PUSH2 0x1728 JUMP JUMPDEST SWAP3 POP POP PUSH1 0x1 DUP2 ADD SWAP1 POP PUSH2 0x1756 JUMP JUMPDEST POP DUP6 SWAP4 POP POP POP POP SWAP3 SWAP2 POP POP JUMP JUMPDEST PUSH0 DUP3 DUP3 MSTORE PUSH1 0x20 DUP3 ADD SWAP1 POP SWAP3 SWAP2 POP POP JUMP JUMPDEST PUSH0 PUSH2 0x17AA DUP3 PUSH2 0x1322 JUMP JUMPDEST PUSH2 0x17B4 DUP2 DUP6 PUSH2 0x1790 JUMP JUMPDEST SWAP4 POP PUSH2 0x17C4 DUP2 DUP6 PUSH1 0x20 DUP7 ADD PUSH2 0x133C JUMP JUMPDEST PUSH2 0x17CD DUP2 PUSH2 0x134A JUMP JUMPDEST DUP5 ADD SWAP2 POP POP SWAP3 SWAP2 POP POP JUMP JUMPDEST PUSH2 0x17E1 DUP2 PUSH2 0x1414 JUMP JUMPDEST DUP3 MSTORE POP POP JUMP JUMPDEST PUSH2 0x17F0 DUP2 PUSH2 0x1485 JUMP JUMPDEST DUP3 MSTORE POP POP JUMP JUMPDEST PUSH0 PUSH2 0x120 DUP4 ADD PUSH0 DUP4 ADD MLOAD DUP5 DUP3 SUB PUSH0 DUP7 ADD MSTORE PUSH2 0x1811 DUP3 DUP3 PUSH2 0x1734 JUMP JUMPDEST SWAP2 POP POP PUSH1 0x20 DUP4 ADD MLOAD DUP5 DUP3 SUB PUSH1 0x20 DUP7 ADD MSTORE PUSH2 0x182B DUP3 DUP3 PUSH2 0x17A0 JUMP JUMPDEST SWAP2 POP POP PUSH1 0x40 DUP4 ADD MLOAD PUSH2 0x1840 PUSH1 0x40 DUP7 ADD DUP3 PUSH2 0x17D8 JUMP JUMPDEST POP PUSH1 0x60 DUP4 ADD MLOAD PUSH2 0x1853 PUSH1 0x60 DUP7 ADD DUP3 PUSH2 0x17D8 JUMP JUMPDEST POP PUSH1 0x80 DUP4 ADD MLOAD PUSH2 0x1866 PUSH1 0x80 DUP7 ADD DUP3 PUSH2 0x17D8 JUMP JUMPDEST POP PUSH1 0xA0 DUP4 ADD MLOAD PUSH2 0x1879 PUSH1 0xA0 DUP7 ADD DUP3 PUSH2 0x17D8 JUMP JUMPDEST POP PUSH1 0xC0 DUP4 ADD MLOAD PUSH2 0x188C PUSH1 0xC0 DUP7 ADD DUP3 PUSH2 0x17D8 JUMP JUMPDEST POP PUSH1 0xE0 DUP4 ADD MLOAD PUSH2 0x189F PUSH1 0xE0 DUP7 ADD DUP3 PUSH2 0x17E7 JUMP JUMPDEST POP PUSH2 0x100 DUP4 ADD MLOAD PUSH2 0x18B4 PUSH2 0x100 DUP7 ADD DUP3 PUSH2 0x17E7 JUMP JUMPDEST POP DUP1 SWAP2 POP POP SWAP3 SWAP2 POP POP JUMP JUMPDEST PUSH0 PUSH1 0x20 DUP3 ADD SWAP1 POP DUP2 DUP2 SUB PUSH0 DUP4 ADD MSTORE PUSH2 0x18D7 DUP2 DUP5 PUSH2 0x17F6 JUMP JUMPDEST SWAP1 POP SWAP3 SWAP2 POP POP JUMP JUMPDEST PUSH0 DUP1 PUSH1 0x40 DUP4 DUP6 SUB SLT ISZERO PUSH2 0x18F5 JUMPI PUSH2 0x18F4 PUSH2 0x13B2 JUMP JUMPDEST JUMPDEST PUSH0 PUSH2 0x1902 DUP6 DUP3 DUP7 ADD PUSH2 0x1400 JUMP JUMPDEST SWAP3 POP POP PUSH1 0x20 PUSH2 0x1913 DUP6 DUP3 DUP7 ADD PUSH2 0x1400 JUMP JUMPDEST SWAP2 POP POP SWAP3 POP SWAP3 SWAP1 POP JUMP JUMPDEST PUSH32 0x4E487B7100000000000000000000000000000000000000000000000000000000 PUSH0 MSTORE PUSH1 0x22 PUSH1 0x4 MSTORE PUSH1 0x24 PUSH0 REVERT JUMPDEST PUSH0 PUSH1 0x2 DUP3 DIV SWAP1 POP PUSH1 0x1 DUP3 AND DUP1 PUSH2 0x1961 JUMPI PUSH1 0x7F DUP3 AND SWAP2 POP JUMPDEST PUSH1 0x20 DUP3 LT DUP2 SUB PUSH2 0x1974 JUMPI PUSH2 0x1973 PUSH2 0x191D JUMP JUMPDEST JUMPDEST POP SWAP2 SWAP1 POP JUMP JUMPDEST PUSH32 0x4E487B7100000000000000000000000000000000000000000000000000000000 PUSH0 MSTORE PUSH1 0x11 PUSH1 0x4 MSTORE PUSH1 0x24 PUSH0 REVERT JUMPDEST PUSH0 PUSH2 0x19B1 DUP3 PUSH2 0x1414 JUMP JUMPDEST SWAP2 POP PUSH2 0x19BC DUP4 PUSH2 0x1414 JUMP JUMPDEST SWAP3 POP DUP3 DUP3 ADD SWAP1 POP DUP1 DUP3 GT ISZERO PUSH2 0x19D4 JUMPI PUSH2 0x19D3 PUSH2 0x197A JUMP JUMPDEST JUMPDEST SWAP3 SWAP2 POP POP JUMP JUMPDEST PUSH0 DUP3 SWAP1 POP SWAP3 SWAP2 POP POP JUMP JUMPDEST PUSH32 0x4E487B7100000000000000000000000000000000000000000000000000000000 PUSH0 MSTORE PUSH1 0x41 PUSH1 0x4 MSTORE PUSH1 0x24 PUSH0 REVERT JUMPDEST PUSH0 DUP2 SWAP1 POP DUP2 PUSH0 MSTORE PUSH1 0x20 PUSH0 KECCAK256 SWAP1 POP SWAP2 SWAP1 POP JUMP JUMPDEST PUSH0 PUSH1 0x20 PUSH1 0x1F DUP4 ADD DIV SWAP1 POP SWAP2 SWAP1 POP JUMP JUMPDEST PUSH0 DUP3 DUP3 SHL SWAP1 POP SWAP3 SWAP2 POP POP JUMP JUMPDEST PUSH0 PUSH1 0x8 DUP4 MUL PUSH2 0x1A6D PUSH32 0xFFFFFFFFFFFFFFFFFFFFFFFFFFFFFFFFFFFFFFFFFFFFFFFFFFFFFFFFFFFFFFFF DUP3 PUSH2 0x1A32 JUMP JUMPDEST PUSH2 0x1A77 DUP7 DUP4 PUSH2 0x1A32 JUMP JUMPDEST SWAP6 POP DUP1 NOT DUP5 AND SWAP4 POP DUP1 DUP7 AND DUP5 OR SWAP3 POP POP POP SWAP4 SWAP3 POP POP POP JUMP JUMPDEST PUSH0 DUP2 SWAP1 POP SWAP2 SWAP1 POP JUMP JUMPDEST PUSH0 PUSH2 0x1AB2 PUSH2 0x1AAD PUSH2 0x1AA8 DUP5 PUSH2 0x1414 JUMP JUMPDEST PUSH2 0x1A8F JUMP JUMPDEST PUSH2 0x1414 JUMP JUMPDEST SWAP1 POP SWAP2 SWAP1 POP JUMP JUMPDEST PUSH0 DUP2 SWAP1 POP SWAP2 SWAP1 POP JUMP JUMPDEST PUSH2 0x1ACB DUP4 PUSH2 0x1A98 JUMP JUMPDEST PUSH2 0x1ADF PUSH2 0x1AD7 DUP3 PUSH2 0x1AB9 JUMP JUMPDEST DUP5 DUP5 SLOAD PUSH2 0x1A3E JUMP JUMPDEST DUP3 SSTORE POP POP POP POP JUMP JUMPDEST PUSH0 SWAP1 JUMP JUMPDEST PUSH2 0x1AF3 PUSH2 0x1AE7 JUMP JUMPDEST PUSH2 0x1AFE DUP2 DUP5 DUP5 PUSH2 0x1AC2 JUMP JUMPDEST POP POP POP JUMP JUMPDEST JUMPDEST DUP2 DUP2 LT ISZERO PUSH2 0x1B21 JUMPI PUSH2 0x1B16 PUSH0 DUP3 PUSH2 0x1AEB JUMP JUMPDEST PUSH1 0x1 DUP2 ADD SWAP1 POP PUSH2 0x1B04 JUMP JUMPDEST POP POP JUMP JUMPDEST PUSH1 0x1F DUP3 GT ISZERO PUSH2 0x1B66 JUMPI PUSH2 0x1B37 DUP2 PUSH2 0x1A11 JUMP JUMPDEST PUSH2 0x1B40 DUP5 PUSH2 0x1A23 JUMP JUMPDEST DUP2 ADD PUSH1 0x20 DUP6 LT ISZERO PUSH2 0x1B4F JUMPI DUP2 SWAP1 POP JUMPDEST PUSH2 0x1B63 PUSH2 0x1B5B DUP6 PUSH2 0x1A23 JUMP JUMPDEST DUP4 ADD DUP3 PUSH2 0x1B03 JUMP JUMPDEST POP POP JUMPDEST POP POP POP JUMP JUMPDEST PUSH0 DUP3 DUP3 SHR SWAP1 POP SWAP3 SWAP2 POP POP JUMP JUMPDEST PUSH0 PUSH2 0x1B86 PUSH0 NOT DUP5 PUSH1 0x8 MUL PUSH2 0x1B6B JUMP JUMPDEST NOT DUP1 DUP4 AND SWAP2 POP POP SWAP3 SWAP2 POP POP JUMP JUMPDEST PUSH0 PUSH2 0x1B9E DUP4 DUP4 PUSH2 0x1B77 JUMP JUMPDEST SWAP2 POP DUP3 PUSH1 0x2 MUL DUP3 OR SWAP1 POP SWAP3 SWAP2 POP POP JUMP JUMPDEST PUSH2 0x1BB8 DUP4 DUP4 PUSH2 0x19DA JUMP JUMPDEST PUSH8 0xFFFFFFFFFFFFFFFF DUP2 GT ISZERO PUSH2 0x1BD1 JUMPI PUSH2 0x1BD0 PUSH2 0x19E4 JUMP JUMPDEST JUMPDEST PUSH2 0x1BDB DUP3 SLOAD PUSH2 0x194A JUMP JUMPDEST PUSH2 0x1BE6 DUP3 DUP3 DUP6 PUSH2 0x1B25 JUMP JUMPDEST PUSH0 PUSH1 0x1F DUP4 GT PUSH1 0x1 DUP2 EQ PUSH2 0x1C13 JUMPI PUSH0 DUP5 ISZERO PUSH2 0x1C01 JUMPI DUP3 DUP8 ADD CALLDATALOAD SWAP1 POP JUMPDEST PUSH2 0x1C0B DUP6 DUP3 PUSH2 0x1B93 JUMP JUMPDEST DUP7 SSTORE POP PUSH2 0x1C72 JUMP JUMPDEST PUSH1 0x1F NOT DUP5 AND PUSH2 0x1C21 DUP7 PUSH2 0x1A11 JUMP JUMPDEST PUSH0 JUMPDEST DUP3 DUP2 LT ISZERO PUSH2 0x1C48 JUMPI DUP5 DUP10 ADD CALLDATALOAD DUP3 SSTORE PUSH1 0x1 DUP3 ADD SWAP2 POP PUSH1 0x20 DUP6 ADD SWAP5 POP PUSH1 0x20 DUP2 ADD SWAP1 POP PUSH2 0x1C23 JUMP JUMPDEST DUP7 DUP4 LT ISZERO PUSH2 0x1C65 JUMPI DUP5 DUP10 ADD CALLDATALOAD PUSH2 0x1C61 PUSH1 0x1F DUP10 AND DUP3 PUSH2 0x1B77 JUMP JUMPDEST DUP4 SSTORE POP JUMPDEST PUSH1 0x1 PUSH1 0x2 DUP9 MUL ADD DUP9 SSTORE POP POP POP JUMPDEST POP POP POP POP POP POP POP JUMP JUMPDEST PUSH0 PUSH2 0x1C85 DUP3 PUSH2 0x1414 JUMP JUMPDEST SWAP2 POP PUSH2 0x1C90 DUP4 PUSH2 0x1414 JUMP JUMPDEST SWAP3 POP DUP3 DUP3 SUB SWAP1 POP DUP2 DUP2 GT ISZERO PUSH2 0x1CA8 JUMPI PUSH2 0x1CA7 PUSH2 0x197A JUMP JUMPDEST JUMPDEST SWAP3 SWAP2 POP POP JUMP JUMPDEST PUSH32 0x4E487B7100000000000000000000000000000000000000000000000000000000 PUSH0 MSTORE PUSH1 0x32 PUSH1 0x4 MSTORE PUSH1 0x24 PUSH0 REVERT JUMPDEST PUSH32 0x4E487B7100000000000000000000000000000000000000000000000000000000 PUSH0 MSTORE PUSH1 0x21 PUSH1 0x4 MSTORE PUSH1 0x24 PUSH0 REVERT JUMPDEST PUSH2 0x1D11 DUP2 PUSH2 0x13D9 JUMP JUMPDEST DUP3 MSTORE POP POP JUMP JUMPDEST PUSH0 PUSH1 0x60 DUP3 ADD SWAP1 POP PUSH2 0x1D2A PUSH0 DUP4 ADD DUP7 PUSH2 0x1D08 JUMP JUMPDEST PUSH2 0x1D37 PUSH1 0x20 DUP4 ADD DUP6 PUSH2 0x14B8 JUMP JUMPDEST PUSH2 0x1D44 PUSH1 0x40 DUP4 ADD DUP5 PUSH2 0x14B8 JUMP JUMPDEST SWAP5 SWAP4 POP POP POP POP JUMP JUMPDEST PUSH0 PUSH1 0x20 DUP3 ADD SWAP1 POP PUSH2 0x1D5F PUSH0 DUP4 ADD DUP5 PUSH2 0x1D08 JUMP JUMPDEST SWAP3 SWAP2 POP POP JUMP INVALID LOG2 PUSH5 0x6970667358 0x22 SLT KECCAK256 0xAD DUP12 MSTORE PUSH9 0x5FCE24C8D059E75D65 0xEA 0xEC PUSH16 0xD9D8CD0D2CCD1ED1BF32F0E8CB7709BA PUSH5 0x736F6C6343 STOP ADDMOD BYTE STOP CALLER "
				},
				"gasEstimates": {
					"creation": {
						"codeDepositCost": "1515800",
						"executionCost": "infinite",
						"totalCost": "infinite"
					},
					"external": {
						"allowance(address,address)": "infinite",
						"approve(address,uint256)": "infinite",
						"balanceOf(address)": "2918",
						"claim()": "infinite",
						"claimAmount()": "2448",
						"createIssue(string,uint256)": "infinite",
						"decimals()": "361",
						"getIssue(uint256)": "infinite",
						"maxSupply()": "2491",
						"name()": "infinite",
						"symbol()": "infinite",
						"tokensClaimed(address)": "2900",
						"totalSupply()": "2500",
						"transfer(address,uint256)": "infinite",
						"transferFrom(address,address,uint256)": "infinite",
						"vote(uint256,uint8)": "infinite"
					}
				},
				"methodIdentifiers": {
					"allowance(address,address)": "dd62ed3e",
					"approve(address,uint256)": "095ea7b3",
					"balanceOf(address)": "70a08231",
					"claim()": "4e71d92d",
					"claimAmount()": "830953ab",
					"createIssue(string,uint256)": "8615d855",
					"decimals()": "313ce567",
					"getIssue(uint256)": "976b3113",
					"maxSupply()": "d5abeb01",
					"name()": "06fdde03",
					"symbol()": "95d89b41",
					"tokensClaimed(address)": "624601b6",
					"totalSupply()": "18160ddd",
					"transfer(address,uint256)": "a9059cbb",
					"transferFrom(address,address,uint256)": "23b872dd",
					"vote(uint256,uint8)": "943e8216"
				}
			},
			"storageLayout": {
				"storage": [
					{
						"astId": 514,
						"contract": "12_ERC-20 Tokens.sol:WeightedVoting",
						"label": "_balances",
						"offset": 0,
						"slot": "0",
						"type": "t_mapping(t_address,t_uint256)"
					},
					{
						"astId": 520,
						"contract": "12_ERC-20 Tokens.sol:WeightedVoting",
						"label": "_allowances",
						"offset": 0,
						"slot": "1",
						"type": "t_mapping(t_address,t_mapping(t_address,t_uint256))"
					},
					{
						"astId": 522,
						"contract": "12_ERC-20 Tokens.sol:WeightedVoting",
						"label": "_totalSupply",
						"offset": 0,
						"slot": "2",
						"type": "t_uint256"
					},
					{
						"astId": 524,
						"contract": "12_ERC-20 Tokens.sol:WeightedVoting",
						"label": "_name",
						"offset": 0,
						"slot": "3",
						"type": "t_string_storage"
					},
					{
						"astId": 526,
						"contract": "12_ERC-20 Tokens.sol:WeightedVoting",
						"label": "_symbol",
						"offset": 0,
						"slot": "4",
						"type": "t_string_storage"
					},
					{
						"astId": 8,
						"contract": "12_ERC-20 Tokens.sol:WeightedVoting",
						"label": "salt",
						"offset": 0,
						"slot": "5",
						"type": "t_string_storage"
					},
					{
						"astId": 72,
						"contract": "12_ERC-20 Tokens.sol:WeightedVoting",
						"label": "issues",
						"offset": 0,
						"slot": "6",
						"type": "t_array(t_struct(Issue)44_storage)dyn_storage"
					},
					{
						"astId": 76,
						"contract": "12_ERC-20 Tokens.sol:WeightedVoting",
						"label": "tokensClaimed",
						"offset": 0,
						"slot": "7",
						"type": "t_mapping(t_address,t_bool)"
					},
					{
						"astId": 79,
						"contract": "12_ERC-20 Tokens.sol:WeightedVoting",
						"label": "maxSupply",
						"offset": 0,
						"slot": "8",
						"type": "t_uint256"
					},
					{
						"astId": 82,
						"contract": "12_ERC-20 Tokens.sol:WeightedVoting",
						"label": "claimAmount",
						"offset": 0,
						"slot": "9",
						"type": "t_uint256"
					},
					{
						"astId": 85,
						"contract": "12_ERC-20 Tokens.sol:WeightedVoting",
						"label": "saltt",
						"offset": 0,
						"slot": "10",
						"type": "t_string_storage"
					}
				],
				"types": {
					"t_address": {
						"encoding": "inplace",
						"label": "address",
						"numberOfBytes": "20"
					},
					"t_array(t_bytes32)dyn_storage": {
						"base": "t_bytes32",
						"encoding": "dynamic_array",
						"label": "bytes32[]",
						"numberOfBytes": "32"
					},
					"t_array(t_struct(Issue)44_storage)dyn_storage": {
						"base": "t_struct(Issue)44_storage",
						"encoding": "dynamic_array",
						"label": "struct WeightedVoting.Issue[]",
						"numberOfBytes": "32"
					},
					"t_bool": {
						"encoding": "inplace",
						"label": "bool",
						"numberOfBytes": "1"
					},
					"t_bytes32": {
						"encoding": "inplace",
						"label": "bytes32",
						"numberOfBytes": "32"
					},
					"t_mapping(t_address,t_bool)": {
						"encoding": "mapping",
						"key": "t_address",
						"label": "mapping(address => bool)",
						"numberOfBytes": "32",
						"value": "t_bool"
					},
					"t_mapping(t_address,t_mapping(t_address,t_uint256))": {
						"encoding": "mapping",
						"key": "t_address",
						"label": "mapping(address => mapping(address => uint256))",
						"numberOfBytes": "32",
						"value": "t_mapping(t_address,t_uint256)"
					},
					"t_mapping(t_address,t_uint256)": {
						"encoding": "mapping",
						"key": "t_address",
						"label": "mapping(address => uint256)",
						"numberOfBytes": "32",
						"value": "t_uint256"
					},
					"t_mapping(t_bytes32,t_uint256)": {
						"encoding": "mapping",
						"key": "t_bytes32",
						"label": "mapping(bytes32 => uint256)",
						"numberOfBytes": "32",
						"value": "t_uint256"
					},
					"t_string_storage": {
						"encoding": "bytes",
						"label": "string",
						"numberOfBytes": "32"
					},
					"t_struct(AddressSet)1466_storage": {
						"encoding": "inplace",
						"label": "struct EnumerableSet.AddressSet",
						"members": [
							{
								"astId": 1465,
								"contract": "12_ERC-20 Tokens.sol:WeightedVoting",
								"label": "_inner",
								"offset": 0,
								"slot": "0",
								"type": "t_struct(Set)1151_storage"
							}
						],
						"numberOfBytes": "64"
					},
					"t_struct(Issue)44_storage": {
						"encoding": "inplace",
						"label": "struct WeightedVoting.Issue",
						"members": [
							{
								"astId": 27,
								"contract": "12_ERC-20 Tokens.sol:WeightedVoting",
								"label": "voters",
								"offset": 0,
								"slot": "0",
								"type": "t_struct(AddressSet)1466_storage"
							},
							{
								"astId": 29,
								"contract": "12_ERC-20 Tokens.sol:WeightedVoting",
								"label": "issueDesc",
								"offset": 0,
								"slot": "2",
								"type": "t_string_storage"
							},
							{
								"astId": 31,
								"contract": "12_ERC-20 Tokens.sol:WeightedVoting",
								"label": "quorum",
								"offset": 0,
								"slot": "3",
								"type": "t_uint256"
							},
							{
								"astId": 33,
								"contract": "12_ERC-20 Tokens.sol:WeightedVoting",
								"label": "totalVotes",
								"offset": 0,
								"slot": "4",
								"type": "t_uint256"
							},
							{
								"astId": 35,
								"contract": "12_ERC-20 Tokens.sol:WeightedVoting",
								"label": "votesFor",
								"offset": 0,
								"slot": "5",
								"type": "t_uint256"
							},
							{
								"astId": 37,
								"contract": "12_ERC-20 Tokens.sol:WeightedVoting",
								"label": "votesAgainst",
								"offset": 0,
								"slot": "6",
								"type": "t_uint256"
							},
							{
								"astId": 39,
								"contract": "12_ERC-20 Tokens.sol:WeightedVoting",
								"label": "votesAbstain",
								"offset": 0,
								"slot": "7",
								"type": "t_uint256"
							},
							{
								"astId": 41,
								"contract": "12_ERC-20 Tokens.sol:WeightedVoting",
								"label": "passed",
								"offset": 0,
								"slot": "8",
								"type": "t_bool"
							},
							{
								"astId": 43,
								"contract": "12_ERC-20 Tokens.sol:WeightedVoting",
								"label": "closed",
								"offset": 1,
								"slot": "8",
								"type": "t_bool"
							}
						],
						"numberOfBytes": "288"
					},
					"t_struct(Set)1151_storage": {
						"encoding": "inplace",
						"label": "struct EnumerableSet.Set",
						"members": [
							{
								"astId": 1146,
								"contract": "12_ERC-20 Tokens.sol:WeightedVoting",
								"label": "_values",
								"offset": 0,
								"slot": "0",
								"type": "t_array(t_bytes32)dyn_storage"
							},
							{
								"astId": 1150,
								"contract": "12_ERC-20 Tokens.sol:WeightedVoting",
								"label": "_positions",
								"offset": 0,
								"slot": "1",
								"type": "t_mapping(t_bytes32,t_uint256)"
							}
						],
						"numberOfBytes": "64"
					},
					"t_uint256": {
						"encoding": "inplace",
						"label": "uint256",
						"numberOfBytes": "32"
					}
				}
			},
			"userdoc": {
				"kind": "user",
				"methods": {},
				"version": 1
			}
		}
	}
}