{
	"7_Inheritance.sol": {
		"EngineeringManager": {
			"abi": [
				{
					"inputs": [
						{
							"internalType": "uint256",
							"name": "_idNumber",
							"type": "uint256"
						},
						{
							"internalType": "uint256",
							"name": "_managerId",
							"type": "uint256"
						},
						{
							"internalType": "uint256",
							"name": "_annualSalary",
							"type": "uint256"
						}
					],
					"stateMutability": "nonpayable",
					"type": "constructor"
				},
				{
					"inputs": [
						{
							"internalType": "uint256",
							"name": "_reportId",
							"type": "uint256"
						}
					],
					"name": "addReport",
					"outputs": [],
					"stateMutability": "nonpayable",
					"type": "function"
				},
				{
					"inputs": [],
					"name": "annualSalary",
					"outputs": [
						{
							"internalType": "uint256",
							"name": "",
							"type": "uint256"
						}
					],
					"stateMutability": "view",
					"type": "function"
				},
				{
					"inputs": [
						{
							"internalType": "uint256",
							"name": "",
							"type": "uint256"
						}
					],
					"name": "employeeIds",
					"outputs": [
						{
							"internalType": "uint256",
							"name": "",
							"type": "uint256"
						}
					],
					"stateMutability": "view",
					"type": "function"
				},
				{
					"inputs": [],
					"name": "getAnnualCost",
					"outputs": [
						{
							"internalType": "uint256",
							"name": "",
							"type": "uint256"
						}
					],
					"stateMutability": "view",
					"type": "function"
				},
				{
					"inputs": [],
					"name": "idNumber",
					"outputs": [
						{
							"internalType": "uint256",
							"name": "",
							"type": "uint256"
						}
					],
					"stateMutability": "view",
					"type": "function"
				},
				{
					"inputs": [],
					"name": "managerId",
					"outputs": [
						{
							"internalType": "uint256",
							"name": "",
							"type": "uint256"
						}
					],
					"stateMutability": "view",
					"type": "function"
				},
				{
					"inputs": [],
					"name": "resetReports",
					"outputs": [],
					"stateMutability": "nonpayable",
					"type": "function"
				}
			],
			"devdoc": {
				"kind": "dev",
				"methods": {},
				"version": 1
			},
			"evm": {
				"assembly": "    /* \"7_Inheritance.sol\":1451:1631  contract EngineeringManager is Salaried, Manager {... */\n  mstore(0x40, 0x80)\n    /* \"7_Inheritance.sol\":1506:1629  constructor(uint _idNumber, uint _managerId, uint _annualSalary) ... */\n  callvalue\n  dup1\n  iszero\n  tag_1\n  jumpi\n  0x00\n  dup1\n  revert\ntag_1:\n  pop\n  mload(0x40)\n  sub(codesize, bytecodeSize)\n  dup1\n  bytecodeSize\n  dup4\n  codecopy\n  dup2\n  dup2\n  add\n  0x40\n  mstore\n  dup2\n  add\n  swap1\n  tag_2\n  swap2\n  swap1\n  tag_3\n  jump\t// in\ntag_2:\n    /* \"7_Inheritance.sol\":1589:1598  _idNumber */\n  dup3\n    /* \"7_Inheritance.sol\":1600:1610  _managerId */\n  dup3\n    /* \"7_Inheritance.sol\":1612:1625  _annualSalary */\n  dup3\n    /* \"7_Inheritance.sol\":565:574  _idNumber */\n  dup3\n    /* \"7_Inheritance.sol\":576:586  _managerId */\n  dup3\n    /* \"7_Inheritance.sol\":310:319  _idNumber */\n  dup2\n    /* \"7_Inheritance.sol\":299:307  idNumber */\n  0x00\n    /* \"7_Inheritance.sol\":299:319  idNumber = _idNumber */\n  dup2\n  swap1\n  sstore\n  pop\n    /* \"7_Inheritance.sol\":341:351  _managerId */\n  dup1\n    /* \"7_Inheritance.sol\":329:338  managerId */\n  0x01\n    /* \"7_Inheritance.sol\":329:351  managerId = _managerId */\n  dup2\n  swap1\n  sstore\n  pop\n    /* \"7_Inheritance.sol\":244:358  constructor(uint _idNumber, uint _managerId) {... */\n  pop\n  pop\n    /* \"7_Inheritance.sol\":613:626  _annualSalary */\n  dup1\n    /* \"7_Inheritance.sol\":598:610  annualSalary */\n  0x02\n    /* \"7_Inheritance.sol\":598:626  annualSalary = _annualSalary */\n  dup2\n  swap1\n  sstore\n  pop\n    /* \"7_Inheritance.sol\":491:633  constructor(uint _idNumber, uint _managerId, uint _annualSalary) Employee(_idNumber, _managerId) {... */\n  pop\n  pop\n  pop\n    /* \"7_Inheritance.sol\":1506:1629  constructor(uint _idNumber, uint _managerId, uint _annualSalary) ... */\n  pop\n  pop\n  pop\n    /* \"7_Inheritance.sol\":1451:1631  contract EngineeringManager is Salaried, Manager {... */\n  jump(tag_10)\n    /* \"#utility.yul\":88:205   */\ntag_12:\n    /* \"#utility.yul\":197:198   */\n  0x00\n    /* \"#utility.yul\":194:195   */\n  dup1\n    /* \"#utility.yul\":187:199   */\n  revert\n    /* \"#utility.yul\":334:411   */\ntag_14:\n    /* \"#utility.yul\":371:378   */\n  0x00\n    /* \"#utility.yul\":400:405   */\n  dup2\n    /* \"#utility.yul\":389:405   */\n  swap1\n  pop\n    /* \"#utility.yul\":334:411   */\n  swap2\n  swap1\n  pop\n  jump\t// out\n    /* \"#utility.yul\":417:539   */\ntag_15:\n    /* \"#utility.yul\":490:514   */\n  tag_23\n    /* \"#utility.yul\":508:513   */\n  dup2\n    /* \"#utility.yul\":490:514   */\n  tag_14\n  jump\t// in\ntag_23:\n    /* \"#utility.yul\":483:488   */\n  dup2\n    /* \"#utility.yul\":480:515   */\n  eq\n    /* \"#utility.yul\":470:533   */\n  tag_24\n  jumpi\n    /* \"#utility.yul\":529:530   */\n  0x00\n    /* \"#utility.yul\":526:527   */\n  dup1\n    /* \"#utility.yul\":519:531   */\n  revert\n    /* \"#utility.yul\":470:533   */\ntag_24:\n    /* \"#utility.yul\":417:539   */\n  pop\n  jump\t// out\n    /* \"#utility.yul\":545:688   */\ntag_16:\n    /* \"#utility.yul\":602:607   */\n  0x00\n    /* \"#utility.yul\":633:639   */\n  dup2\n    /* \"#utility.yul\":627:640   */\n  mload\n    /* \"#utility.yul\":618:640   */\n  swap1\n  pop\n    /* \"#utility.yul\":649:682   */\n  tag_26\n    /* \"#utility.yul\":676:681   */\n  dup2\n    /* \"#utility.yul\":649:682   */\n  tag_15\n  jump\t// in\ntag_26:\n    /* \"#utility.yul\":545:688   */\n  swap3\n  swap2\n  pop\n  pop\n  jump\t// out\n    /* \"#utility.yul\":694:1357   */\ntag_3:\n    /* \"#utility.yul\":782:788   */\n  0x00\n    /* \"#utility.yul\":790:796   */\n  dup1\n    /* \"#utility.yul\":798:804   */\n  0x00\n    /* \"#utility.yul\":847:849   */\n  0x60\n    /* \"#utility.yul\":835:844   */\n  dup5\n    /* \"#utility.yul\":826:833   */\n  dup7\n    /* \"#utility.yul\":822:845   */\n  sub\n    /* \"#utility.yul\":818:850   */\n  slt\n    /* \"#utility.yul\":815:934   */\n  iszero\n  tag_28\n  jumpi\n    /* \"#utility.yul\":853:932   */\n  tag_29\n  tag_12\n  jump\t// in\ntag_29:\n    /* \"#utility.yul\":815:934   */\ntag_28:\n    /* \"#utility.yul\":973:974   */\n  0x00\n    /* \"#utility.yul\":998:1062   */\n  tag_30\n    /* \"#utility.yul\":1054:1061   */\n  dup7\n    /* \"#utility.yul\":1045:1051   */\n  dup3\n    /* \"#utility.yul\":1034:1043   */\n  dup8\n    /* \"#utility.yul\":1030:1052   */\n  add\n    /* \"#utility.yul\":998:1062   */\n  tag_16\n  jump\t// in\ntag_30:\n    /* \"#utility.yul\":988:1062   */\n  swap4\n  pop\n    /* \"#utility.yul\":944:1072   */\n  pop\n    /* \"#utility.yul\":1111:1113   */\n  0x20\n    /* \"#utility.yul\":1137:1201   */\n  tag_31\n    /* \"#utility.yul\":1193:1200   */\n  dup7\n    /* \"#utility.yul\":1184:1190   */\n  dup3\n    /* \"#utility.yul\":1173:1182   */\n  dup8\n    /* \"#utility.yul\":1169:1191   */\n  add\n    /* \"#utility.yul\":1137:1201   */\n  tag_16\n  jump\t// in\ntag_31:\n    /* \"#utility.yul\":1127:1201   */\n  swap3\n  pop\n    /* \"#utility.yul\":1082:1211   */\n  pop\n    /* \"#utility.yul\":1250:1252   */\n  0x40\n    /* \"#utility.yul\":1276:1340   */\n  tag_32\n    /* \"#utility.yul\":1332:1339   */\n  dup7\n    /* \"#utility.yul\":1323:1329   */\n  dup3\n    /* \"#utility.yul\":1312:1321   */\n  dup8\n    /* \"#utility.yul\":1308:1330   */\n  add\n    /* \"#utility.yul\":1276:1340   */\n  tag_16\n  jump\t// in\ntag_32:\n    /* \"#utility.yul\":1266:1340   */\n  swap2\n  pop\n    /* \"#utility.yul\":1221:1350   */\n  pop\n    /* \"#utility.yul\":694:1357   */\n  swap3\n  pop\n  swap3\n  pop\n  swap3\n  jump\t// out\n    /* \"7_Inheritance.sol\":1451:1631  contract EngineeringManager is Salaried, Manager {... */\ntag_10:\n  dataSize(sub_0)\n  dup1\n  dataOffset(sub_0)\n  0x00\n  codecopy\n  0x00\n  return\nstop\n\nsub_0: assembly {\n        /* \"7_Inheritance.sol\":1451:1631  contract EngineeringManager is Salaried, Manager {... */\n      mstore(0x40, 0x80)\n      callvalue\n      dup1\n      iszero\n      tag_1\n      jumpi\n      0x00\n      dup1\n      revert\n    tag_1:\n      pop\n      jumpi(tag_2, lt(calldatasize, 0x04))\n      shr(0xe0, calldataload(0x00))\n      dup1\n      0x7e397536\n      gt\n      tag_10\n      jumpi\n      dup1\n      0x7e397536\n      eq\n      tag_6\n      jumpi\n      dup1\n      0x86e73dc3\n      eq\n      tag_7\n      jumpi\n      dup1\n      0xa596d3c8\n      eq\n      tag_8\n      jumpi\n      dup1\n      0xf5895a0a\n      eq\n      tag_9\n      jumpi\n      jump(tag_2)\n    tag_10:\n      dup1\n      0x3f83ea3b\n      eq\n      tag_3\n      jumpi\n      dup1\n      0x50dca6ab\n      eq\n      tag_4\n      jumpi\n      dup1\n      0x5cdee0c0\n      eq\n      tag_5\n      jumpi\n    tag_2:\n      0x00\n      dup1\n      revert\n        /* \"7_Inheritance.sol\":99:119  uint public idNumber */\n    tag_3:\n      tag_11\n      tag_12\n      jump\t// in\n    tag_11:\n      mload(0x40)\n      tag_13\n      swap2\n      swap1\n      tag_14\n      jump\t// in\n    tag_13:\n      mload(0x40)\n      dup1\n      swap2\n      sub\n      swap1\n      return\n        /* \"7_Inheritance.sol\":459:483  uint public annualSalary */\n    tag_4:\n      tag_15\n      tag_16\n      jump\t// in\n    tag_15:\n      mload(0x40)\n      tag_17\n      swap2\n      swap1\n      tag_14\n      jump\t// in\n    tag_17:\n      mload(0x40)\n      dup1\n      swap2\n      sub\n      swap1\n      return\n        /* \"7_Inheritance.sol\":639:736  function getAnnualCost() public override view returns (uint) {... */\n    tag_5:\n      tag_18\n      tag_19\n      jump\t// in\n    tag_18:\n      mload(0x40)\n      tag_20\n      swap2\n      swap1\n      tag_14\n      jump\t// in\n    tag_20:\n      mload(0x40)\n      dup1\n      swap2\n      sub\n      swap1\n      return\n        /* \"7_Inheritance.sol\":1075:1100  uint[] public employeeIds */\n    tag_6:\n      tag_21\n      0x04\n      dup1\n      calldatasize\n      sub\n      dup2\n      add\n      swap1\n      tag_22\n      swap2\n      swap1\n      tag_23\n      jump\t// in\n    tag_22:\n      tag_24\n      jump\t// in\n    tag_21:\n      mload(0x40)\n      tag_25\n      swap2\n      swap1\n      tag_14\n      jump\t// in\n    tag_25:\n      mload(0x40)\n      dup1\n      swap2\n      sub\n      swap1\n      return\n        /* \"7_Inheritance.sol\":1131:1217  function addReport(uint _reportId) public {... */\n    tag_7:\n      tag_26\n      0x04\n      dup1\n      calldatasize\n      sub\n      dup2\n      add\n      swap1\n      tag_27\n      swap2\n      swap1\n      tag_23\n      jump\t// in\n    tag_27:\n      tag_28\n      jump\t// in\n    tag_26:\n      stop\n        /* \"7_Inheritance.sol\":1223:1289  function resetReports() public {... */\n    tag_8:\n      tag_29\n      tag_30\n      jump\t// in\n    tag_29:\n      stop\n        /* \"7_Inheritance.sol\":163:184  uint public managerId */\n    tag_9:\n      tag_31\n      tag_32\n      jump\t// in\n    tag_31:\n      mload(0x40)\n      tag_33\n      swap2\n      swap1\n      tag_14\n      jump\t// in\n    tag_33:\n      mload(0x40)\n      dup1\n      swap2\n      sub\n      swap1\n      return\n        /* \"7_Inheritance.sol\":99:119  uint public idNumber */\n    tag_12:\n      sload(0x00)\n      dup2\n      jump\t// out\n        /* \"7_Inheritance.sol\":459:483  uint public annualSalary */\n    tag_16:\n      sload(0x02)\n      dup2\n      jump\t// out\n        /* \"7_Inheritance.sol\":639:736  function getAnnualCost() public override view returns (uint) {... */\n    tag_19:\n        /* \"7_Inheritance.sol\":694:698  uint */\n      0x00\n        /* \"7_Inheritance.sol\":717:729  annualSalary */\n      sload(0x02)\n        /* \"7_Inheritance.sol\":710:729  return annualSalary */\n      swap1\n      pop\n        /* \"7_Inheritance.sol\":639:736  function getAnnualCost() public override view returns (uint) {... */\n      swap1\n      jump\t// out\n        /* \"7_Inheritance.sol\":1075:1100  uint[] public employeeIds */\n    tag_24:\n      0x03\n      dup2\n      dup2\n      sload\n      dup2\n      lt\n      tag_35\n      jumpi\n      0x00\n      dup1\n      revert\n    tag_35:\n      swap1\n      0x00\n      mstore\n      keccak256(0x00, 0x20)\n      add\n      0x00\n      swap2\n      pop\n      swap1\n      pop\n      sload\n      dup2\n      jump\t// out\n        /* \"7_Inheritance.sol\":1131:1217  function addReport(uint _reportId) public {... */\n    tag_28:\n        /* \"7_Inheritance.sol\":1183:1194  employeeIds */\n      0x03\n        /* \"7_Inheritance.sol\":1200:1209  _reportId */\n      dup2\n        /* \"7_Inheritance.sol\":1183:1210  employeeIds.push(_reportId) */\n      swap1\n      dup1\n      0x01\n      dup2\n      sload\n      add\n      dup1\n      dup3\n      sstore\n      dup1\n      swap2\n      pop\n      pop\n      0x01\n      swap1\n      sub\n      swap1\n      0x00\n      mstore\n      keccak256(0x00, 0x20)\n      add\n      0x00\n      swap1\n      swap2\n      swap1\n      swap2\n      swap1\n      swap2\n      pop\n      sstore\n        /* \"7_Inheritance.sol\":1131:1217  function addReport(uint _reportId) public {... */\n      pop\n      jump\t// out\n        /* \"7_Inheritance.sol\":1223:1289  function resetReports() public {... */\n    tag_30:\n        /* \"7_Inheritance.sol\":1271:1282  employeeIds */\n      0x03\n      0x00\n        /* \"7_Inheritance.sol\":1264:1282  delete employeeIds */\n      tag_40\n      swap2\n      swap1\n      tag_41\n      jump\t// in\n    tag_40:\n        /* \"7_Inheritance.sol\":1223:1289  function resetReports() public {... */\n      jump\t// out\n        /* \"7_Inheritance.sol\":163:184  uint public managerId */\n    tag_32:\n      sload(0x01)\n      dup2\n      jump\t// out\n    tag_41:\n      pop\n      dup1\n      sload\n      0x00\n      dup3\n      sstore\n      swap1\n      0x00\n      mstore\n      keccak256(0x00, 0x20)\n      swap1\n      dup2\n      add\n      swap1\n      tag_43\n      swap2\n      swap1\n      tag_44\n      jump\t// in\n    tag_43:\n      pop\n      jump\t// out\n    tag_44:\n    tag_45:\n      dup1\n      dup3\n      gt\n      iszero\n      tag_46\n      jumpi\n      0x00\n      dup2\n      0x00\n      swap1\n      sstore\n      pop\n      0x01\n      add\n      jump(tag_45)\n    tag_46:\n      pop\n      swap1\n      jump\t// out\n        /* \"#utility.yul\":7:84   */\n    tag_47:\n        /* \"#utility.yul\":44:51   */\n      0x00\n        /* \"#utility.yul\":73:78   */\n      dup2\n        /* \"#utility.yul\":62:78   */\n      swap1\n      pop\n        /* \"#utility.yul\":7:84   */\n      swap2\n      swap1\n      pop\n      jump\t// out\n        /* \"#utility.yul\":90:208   */\n    tag_48:\n        /* \"#utility.yul\":177:201   */\n      tag_57\n        /* \"#utility.yul\":195:200   */\n      dup2\n        /* \"#utility.yul\":177:201   */\n      tag_47\n      jump\t// in\n    tag_57:\n        /* \"#utility.yul\":172:175   */\n      dup3\n        /* \"#utility.yul\":165:202   */\n      mstore\n        /* \"#utility.yul\":90:208   */\n      pop\n      pop\n      jump\t// out\n        /* \"#utility.yul\":214:436   */\n    tag_14:\n        /* \"#utility.yul\":307:311   */\n      0x00\n        /* \"#utility.yul\":345:347   */\n      0x20\n        /* \"#utility.yul\":334:343   */\n      dup3\n        /* \"#utility.yul\":330:348   */\n      add\n        /* \"#utility.yul\":322:348   */\n      swap1\n      pop\n        /* \"#utility.yul\":358:429   */\n      tag_59\n        /* \"#utility.yul\":426:427   */\n      0x00\n        /* \"#utility.yul\":415:424   */\n      dup4\n        /* \"#utility.yul\":411:428   */\n      add\n        /* \"#utility.yul\":402:408   */\n      dup5\n        /* \"#utility.yul\":358:429   */\n      tag_48\n      jump\t// in\n    tag_59:\n        /* \"#utility.yul\":214:436   */\n      swap3\n      swap2\n      pop\n      pop\n      jump\t// out\n        /* \"#utility.yul\":523:640   */\n    tag_50:\n        /* \"#utility.yul\":632:633   */\n      0x00\n        /* \"#utility.yul\":629:630   */\n      dup1\n        /* \"#utility.yul\":622:634   */\n      revert\n        /* \"#utility.yul\":769:891   */\n    tag_52:\n        /* \"#utility.yul\":842:866   */\n      tag_64\n        /* \"#utility.yul\":860:865   */\n      dup2\n        /* \"#utility.yul\":842:866   */\n      tag_47\n      jump\t// in\n    tag_64:\n        /* \"#utility.yul\":835:840   */\n      dup2\n        /* \"#utility.yul\":832:867   */\n      eq\n        /* \"#utility.yul\":822:885   */\n      tag_65\n      jumpi\n        /* \"#utility.yul\":881:882   */\n      0x00\n        /* \"#utility.yul\":878:879   */\n      dup1\n        /* \"#utility.yul\":871:883   */\n      revert\n        /* \"#utility.yul\":822:885   */\n    tag_65:\n        /* \"#utility.yul\":769:891   */\n      pop\n      jump\t// out\n        /* \"#utility.yul\":897:1036   */\n    tag_53:\n        /* \"#utility.yul\":943:948   */\n      0x00\n        /* \"#utility.yul\":981:987   */\n      dup2\n        /* \"#utility.yul\":968:988   */\n      calldataload\n        /* \"#utility.yul\":959:988   */\n      swap1\n      pop\n        /* \"#utility.yul\":997:1030   */\n      tag_67\n        /* \"#utility.yul\":1024:1029   */\n      dup2\n        /* \"#utility.yul\":997:1030   */\n      tag_52\n      jump\t// in\n    tag_67:\n        /* \"#utility.yul\":897:1036   */\n      swap3\n      swap2\n      pop\n      pop\n      jump\t// out\n        /* \"#utility.yul\":1042:1371   */\n    tag_23:\n        /* \"#utility.yul\":1101:1107   */\n      0x00\n        /* \"#utility.yul\":1150:1152   */\n      0x20\n        /* \"#utility.yul\":1138:1147   */\n      dup3\n        /* \"#utility.yul\":1129:1136   */\n      dup5\n        /* \"#utility.yul\":1125:1148   */\n      sub\n        /* \"#utility.yul\":1121:1153   */\n      slt\n        /* \"#utility.yul\":1118:1237   */\n      iszero\n      tag_69\n      jumpi\n        /* \"#utility.yul\":1156:1235   */\n      tag_70\n      tag_50\n      jump\t// in\n    tag_70:\n        /* \"#utility.yul\":1118:1237   */\n    tag_69:\n        /* \"#utility.yul\":1276:1277   */\n      0x00\n        /* \"#utility.yul\":1301:1354   */\n      tag_71\n        /* \"#utility.yul\":1346:1353   */\n      dup5\n        /* \"#utility.yul\":1337:1343   */\n      dup3\n        /* \"#utility.yul\":1326:1335   */\n      dup6\n        /* \"#utility.yul\":1322:1344   */\n      add\n        /* \"#utility.yul\":1301:1354   */\n      tag_53\n      jump\t// in\n    tag_71:\n        /* \"#utility.yul\":1291:1354   */\n      swap2\n      pop\n        /* \"#utility.yul\":1247:1364   */\n      pop\n        /* \"#utility.yul\":1042:1371   */\n      swap3\n      swap2\n      pop\n      pop\n      jump\t// out\n\n    auxdata: 0xa2646970667358221220bb530d85926ba9df979d3bdfd9ca0b584a6456d586513a2e9079221cf356c60264736f6c63430008110033\n}\n",
				"bytecode": {
					"linkReferences": {},
					"object": "608060405234801561001057600080fd5b506040516103c83803806103c883398181016040528101906100329190610094565b828282828281600081905550806001819055505050806002819055505050505050506100e7565b600080fd5b6000819050919050565b6100718161005e565b811461007c57600080fd5b50565b60008151905061008e81610068565b92915050565b6000806000606084860312156100ad576100ac610059565b5b60006100bb8682870161007f565b93505060206100cc8682870161007f565b92505060406100dd8682870161007f565b9150509250925092565b6102d2806100f66000396000f3fe608060405234801561001057600080fd5b506004361061007d5760003560e01c80637e3975361161005b5780637e397536146100dc57806386e73dc31461010c578063a596d3c814610128578063f5895a0a146101325761007d565b80633f83ea3b1461008257806350dca6ab146100a05780635cdee0c0146100be575b600080fd5b61008a610150565b6040516100979190610223565b60405180910390f35b6100a8610156565b6040516100b59190610223565b60405180910390f35b6100c661015c565b6040516100d39190610223565b60405180910390f35b6100f660048036038101906100f1919061026f565b610166565b6040516101039190610223565b60405180910390f35b6101266004803603810190610121919061026f565b61018a565b005b6101306101b6565b005b61013a6101c6565b6040516101479190610223565b60405180910390f35b60005481565b60025481565b6000600254905090565b6003818154811061017657600080fd5b906000526020600020016000915090505481565b600381908060018154018082558091505060019003906000526020600020016000909190919091505550565b600360006101c491906101cc565b565b60015481565b50805460008255906000526020600020908101906101ea91906101ed565b50565b5b808211156102065760008160009055506001016101ee565b5090565b6000819050919050565b61021d8161020a565b82525050565b60006020820190506102386000830184610214565b92915050565b600080fd5b61024c8161020a565b811461025757600080fd5b50565b60008135905061026981610243565b92915050565b6000602082840312156102855761028461023e565b5b60006102938482850161025a565b9150509291505056fea2646970667358221220bb530d85926ba9df979d3bdfd9ca0b584a6456d586513a2e9079221cf356c60264736f6c63430008110033",
					"opcodes": "PUSH1 0x80 PUSH1 0x40 MSTORE CALLVALUE DUP1 ISZERO PUSH2 0x10 JUMPI PUSH1 0x0 DUP1 REVERT JUMPDEST POP PUSH1 0x40 MLOAD PUSH2 0x3C8 CODESIZE SUB DUP1 PUSH2 0x3C8 DUP4 CODECOPY DUP2 DUP2 ADD PUSH1 0x40 MSTORE DUP2 ADD SWAP1 PUSH2 0x32 SWAP2 SWAP1 PUSH2 0x94 JUMP JUMPDEST DUP3 DUP3 DUP3 DUP3 DUP3 DUP2 PUSH1 0x0 DUP2 SWAP1 SSTORE POP DUP1 PUSH1 0x1 DUP2 SWAP1 SSTORE POP POP POP DUP1 PUSH1 0x2 DUP2 SWAP1 SSTORE POP POP POP POP POP POP POP PUSH2 0xE7 JUMP JUMPDEST PUSH1 0x0 DUP1 REVERT JUMPDEST PUSH1 0x0 DUP2 SWAP1 POP SWAP2 SWAP1 POP JUMP JUMPDEST PUSH2 0x71 DUP2 PUSH2 0x5E JUMP JUMPDEST DUP2 EQ PUSH2 0x7C JUMPI PUSH1 0x0 DUP1 REVERT JUMPDEST POP JUMP JUMPDEST PUSH1 0x0 DUP2 MLOAD SWAP1 POP PUSH2 0x8E DUP2 PUSH2 0x68 JUMP JUMPDEST SWAP3 SWAP2 POP POP JUMP JUMPDEST PUSH1 0x0 DUP1 PUSH1 0x0 PUSH1 0x60 DUP5 DUP7 SUB SLT ISZERO PUSH2 0xAD JUMPI PUSH2 0xAC PUSH2 0x59 JUMP JUMPDEST JUMPDEST PUSH1 0x0 PUSH2 0xBB DUP7 DUP3 DUP8 ADD PUSH2 0x7F JUMP JUMPDEST SWAP4 POP POP PUSH1 0x20 PUSH2 0xCC DUP7 DUP3 DUP8 ADD PUSH2 0x7F JUMP JUMPDEST SWAP3 POP POP PUSH1 0x40 PUSH2 0xDD DUP7 DUP3 DUP8 ADD PUSH2 0x7F JUMP JUMPDEST SWAP2 POP POP SWAP3 POP SWAP3 POP SWAP3 JUMP JUMPDEST PUSH2 0x2D2 DUP1 PUSH2 0xF6 PUSH1 0x0 CODECOPY PUSH1 0x0 RETURN INVALID PUSH1 0x80 PUSH1 0x40 MSTORE CALLVALUE DUP1 ISZERO PUSH2 0x10 JUMPI PUSH1 0x0 DUP1 REVERT JUMPDEST POP PUSH1 0x4 CALLDATASIZE LT PUSH2 0x7D JUMPI PUSH1 0x0 CALLDATALOAD PUSH1 0xE0 SHR DUP1 PUSH4 0x7E397536 GT PUSH2 0x5B JUMPI DUP1 PUSH4 0x7E397536 EQ PUSH2 0xDC JUMPI DUP1 PUSH4 0x86E73DC3 EQ PUSH2 0x10C JUMPI DUP1 PUSH4 0xA596D3C8 EQ PUSH2 0x128 JUMPI DUP1 PUSH4 0xF5895A0A EQ PUSH2 0x132 JUMPI PUSH2 0x7D JUMP JUMPDEST DUP1 PUSH4 0x3F83EA3B EQ PUSH2 0x82 JUMPI DUP1 PUSH4 0x50DCA6AB EQ PUSH2 0xA0 JUMPI DUP1 PUSH4 0x5CDEE0C0 EQ PUSH2 0xBE JUMPI JUMPDEST PUSH1 0x0 DUP1 REVERT JUMPDEST PUSH2 0x8A PUSH2 0x150 JUMP JUMPDEST PUSH1 0x40 MLOAD PUSH2 0x97 SWAP2 SWAP1 PUSH2 0x223 JUMP JUMPDEST PUSH1 0x40 MLOAD DUP1 SWAP2 SUB SWAP1 RETURN JUMPDEST PUSH2 0xA8 PUSH2 0x156 JUMP JUMPDEST PUSH1 0x40 MLOAD PUSH2 0xB5 SWAP2 SWAP1 PUSH2 0x223 JUMP JUMPDEST PUSH1 0x40 MLOAD DUP1 SWAP2 SUB SWAP1 RETURN JUMPDEST PUSH2 0xC6 PUSH2 0x15C JUMP JUMPDEST PUSH1 0x40 MLOAD PUSH2 0xD3 SWAP2 SWAP1 PUSH2 0x223 JUMP JUMPDEST PUSH1 0x40 MLOAD DUP1 SWAP2 SUB SWAP1 RETURN JUMPDEST PUSH2 0xF6 PUSH1 0x4 DUP1 CALLDATASIZE SUB DUP2 ADD SWAP1 PUSH2 0xF1 SWAP2 SWAP1 PUSH2 0x26F JUMP JUMPDEST PUSH2 0x166 JUMP JUMPDEST PUSH1 0x40 MLOAD PUSH2 0x103 SWAP2 SWAP1 PUSH2 0x223 JUMP JUMPDEST PUSH1 0x40 MLOAD DUP1 SWAP2 SUB SWAP1 RETURN JUMPDEST PUSH2 0x126 PUSH1 0x4 DUP1 CALLDATASIZE SUB DUP2 ADD SWAP1 PUSH2 0x121 SWAP2 SWAP1 PUSH2 0x26F JUMP JUMPDEST PUSH2 0x18A JUMP JUMPDEST STOP JUMPDEST PUSH2 0x130 PUSH2 0x1B6 JUMP JUMPDEST STOP JUMPDEST PUSH2 0x13A PUSH2 0x1C6 JUMP JUMPDEST PUSH1 0x40 MLOAD PUSH2 0x147 SWAP2 SWAP1 PUSH2 0x223 JUMP JUMPDEST PUSH1 0x40 MLOAD DUP1 SWAP2 SUB SWAP1 RETURN JUMPDEST PUSH1 0x0 SLOAD DUP2 JUMP JUMPDEST PUSH1 0x2 SLOAD DUP2 JUMP JUMPDEST PUSH1 0x0 PUSH1 0x2 SLOAD SWAP1 POP SWAP1 JUMP JUMPDEST PUSH1 0x3 DUP2 DUP2 SLOAD DUP2 LT PUSH2 0x176 JUMPI PUSH1 0x0 DUP1 REVERT JUMPDEST SWAP1 PUSH1 0x0 MSTORE PUSH1 0x20 PUSH1 0x0 KECCAK256 ADD PUSH1 0x0 SWAP2 POP SWAP1 POP SLOAD DUP2 JUMP JUMPDEST PUSH1 0x3 DUP2 SWAP1 DUP1 PUSH1 0x1 DUP2 SLOAD ADD DUP1 DUP3 SSTORE DUP1 SWAP2 POP POP PUSH1 0x1 SWAP1 SUB SWAP1 PUSH1 0x0 MSTORE PUSH1 0x20 PUSH1 0x0 KECCAK256 ADD PUSH1 0x0 SWAP1 SWAP2 SWAP1 SWAP2 SWAP1 SWAP2 POP SSTORE POP JUMP JUMPDEST PUSH1 0x3 PUSH1 0x0 PUSH2 0x1C4 SWAP2 SWAP1 PUSH2 0x1CC JUMP JUMPDEST JUMP JUMPDEST PUSH1 0x1 SLOAD DUP2 JUMP JUMPDEST POP DUP1 SLOAD PUSH1 0x0 DUP3 SSTORE SWAP1 PUSH1 0x0 MSTORE PUSH1 0x20 PUSH1 0x0 KECCAK256 SWAP1 DUP2 ADD SWAP1 PUSH2 0x1EA SWAP2 SWAP1 PUSH2 0x1ED JUMP JUMPDEST POP JUMP JUMPDEST JUMPDEST DUP1 DUP3 GT ISZERO PUSH2 0x206 JUMPI PUSH1 0x0 DUP2 PUSH1 0x0 SWAP1 SSTORE POP PUSH1 0x1 ADD PUSH2 0x1EE JUMP JUMPDEST POP SWAP1 JUMP JUMPDEST PUSH1 0x0 DUP2 SWAP1 POP SWAP2 SWAP1 POP JUMP JUMPDEST PUSH2 0x21D DUP2 PUSH2 0x20A JUMP JUMPDEST DUP3 MSTORE POP POP JUMP JUMPDEST PUSH1 0x0 PUSH1 0x20 DUP3 ADD SWAP1 POP PUSH2 0x238 PUSH1 0x0 DUP4 ADD DUP5 PUSH2 0x214 JUMP JUMPDEST SWAP3 SWAP2 POP POP JUMP JUMPDEST PUSH1 0x0 DUP1 REVERT JUMPDEST PUSH2 0x24C DUP2 PUSH2 0x20A JUMP JUMPDEST DUP2 EQ PUSH2 0x257 JUMPI PUSH1 0x0 DUP1 REVERT JUMPDEST POP JUMP JUMPDEST PUSH1 0x0 DUP2 CALLDATALOAD SWAP1 POP PUSH2 0x269 DUP2 PUSH2 0x243 JUMP JUMPDEST SWAP3 SWAP2 POP POP JUMP JUMPDEST PUSH1 0x0 PUSH1 0x20 DUP3 DUP5 SUB SLT ISZERO PUSH2 0x285 JUMPI PUSH2 0x284 PUSH2 0x23E JUMP JUMPDEST JUMPDEST PUSH1 0x0 PUSH2 0x293 DUP5 DUP3 DUP6 ADD PUSH2 0x25A JUMP JUMPDEST SWAP2 POP POP SWAP3 SWAP2 POP POP JUMP INVALID LOG2 PUSH5 0x6970667358 0x22 SLT KECCAK256 0xBB MSTORE8 0xD DUP6 SWAP3 PUSH12 0xA9DF979D3BDFD9CA0B584A64 JUMP 0xD5 DUP7 MLOAD GASPRICE 0x2E SWAP1 PUSH26 0x221CF356C60264736F6C63430008110033000000000000000000 "
				},
				"gasEstimates": {
					"creation": {
						"codeDepositCost": "144400",
						"executionCost": "infinite",
						"totalCost": "infinite"
					},
					"external": {
						"addReport(uint256)": "46851",
						"annualSalary()": "2452",
						"employeeIds(uint256)": "infinite",
						"getAnnualCost()": "2482",
						"idNumber()": "2430",
						"managerId()": "2495",
						"resetReports()": "infinite"
					}
				},
				"methodIdentifiers": {
					"addReport(uint256)": "86e73dc3",
					"annualSalary()": "50dca6ab",
					"employeeIds(uint256)": "7e397536",
					"getAnnualCost()": "5cdee0c0",
					"idNumber()": "3f83ea3b",
					"managerId()": "f5895a0a",
					"resetReports()": "a596d3c8"
				}
			},
			"storageLayout": {
				"storage": [
					{
						"astId": 3,
						"contract": "7_Inheritance.sol:EngineeringManager",
						"label": "idNumber",
						"offset": 0,
						"slot": "0",
						"type": "t_uint256"
					},
					{
						"astId": 5,
						"contract": "7_Inheritance.sol:EngineeringManager",
						"label": "managerId",
						"offset": 0,
						"slot": "1",
						"type": "t_uint256"
					},
					{
						"astId": 31,
						"contract": "7_Inheritance.sol:EngineeringManager",
						"label": "annualSalary",
						"offset": 0,
						"slot": "2",
						"type": "t_uint256"
					},
					{
						"astId": 96,
						"contract": "7_Inheritance.sol:EngineeringManager",
						"label": "employeeIds",
						"offset": 0,
						"slot": "3",
						"type": "t_array(t_uint256)dyn_storage"
					}
				],
				"types": {
					"t_array(t_uint256)dyn_storage": {
						"base": "t_uint256",
						"encoding": "dynamic_array",
						"label": "uint256[]",
						"numberOfBytes": "32"
					},
					"t_uint256": {
						"encoding": "inplace",
						"label": "uint256",
						"numberOfBytes": "32"
					}
				}
			},
			"userdoc": {
				"kind": "user",
				"methods": {},
				"version": 1
			}
		}
	}
}