{
	"07_Inheritance.sol": {
		"Salesperson": {
			"abi": [
				{
					"inputs": [
						{
							"internalType": "uint256",
							"name": "_idNumber",
							"type": "uint256"
						},
						{
							"internalType": "uint256",
							"name": "_managerId",
							"type": "uint256"
						},
						{
							"internalType": "uint256",
							"name": "_hourlyRate",
							"type": "uint256"
						}
					],
					"stateMutability": "nonpayable",
					"type": "constructor"
				},
				{
					"inputs": [],
					"name": "getAnnualCost",
					"outputs": [
						{
							"internalType": "uint256",
							"name": "",
							"type": "uint256"
						}
					],
					"stateMutability": "view",
					"type": "function"
				},
				{
					"inputs": [],
					"name": "hourlyRate",
					"outputs": [
						{
							"internalType": "uint256",
							"name": "",
							"type": "uint256"
						}
					],
					"stateMutability": "view",
					"type": "function"
				},
				{
					"inputs": [],
					"name": "idNumber",
					"outputs": [
						{
							"internalType": "uint256",
							"name": "",
							"type": "uint256"
						}
					],
					"stateMutability": "view",
					"type": "function"
				},
				{
					"inputs": [],
					"name": "managerId",
					"outputs": [
						{
							"internalType": "uint256",
							"name": "",
							"type": "uint256"
						}
					],
					"stateMutability": "view",
					"type": "function"
				}
			],
			"devdoc": {
				"kind": "dev",
				"methods": {},
				"version": 1
			},
			"evm": {
				"assembly": "    /* \"07_Inheritance.sol\":1293:1449  contract Salesperson is Hourly {... */\n  mstore(0x40, 0x80)\n    /* \"07_Inheritance.sol\":1330:1447  constructor(uint _idNumber, uint _managerId, uint _hourlyRate) ... */\n  callvalue\n  dup1\n  iszero\n  tag_1\n  jumpi\n  0x00\n  dup1\n  revert\ntag_1:\n  pop\n  mload(0x40)\n  sub(codesize, bytecodeSize)\n  dup1\n  bytecodeSize\n  dup4\n  codecopy\n  dup2\n  dup2\n  add\n  0x40\n  mstore\n  dup2\n  add\n  swap1\n  tag_2\n  swap2\n  swap1\n  tag_3\n  jump\t// in\ntag_2:\n    /* \"07_Inheritance.sol\":1409:1418  _idNumber */\n  dup3\n    /* \"07_Inheritance.sol\":1420:1430  _managerId */\n  dup3\n    /* \"07_Inheritance.sol\":1432:1443  _hourlyRate */\n  dup3\n    /* \"07_Inheritance.sol\":876:885  _idNumber */\n  dup3\n    /* \"07_Inheritance.sol\":887:897  _managerId */\n  dup3\n    /* \"07_Inheritance.sol\":310:319  _idNumber */\n  dup2\n    /* \"07_Inheritance.sol\":299:307  idNumber */\n  0x00\n    /* \"07_Inheritance.sol\":299:319  idNumber = _idNumber */\n  dup2\n  swap1\n  sstore\n  pop\n    /* \"07_Inheritance.sol\":341:351  _managerId */\n  dup1\n    /* \"07_Inheritance.sol\":329:338  managerId */\n  0x01\n    /* \"07_Inheritance.sol\":329:351  managerId = _managerId */\n  dup2\n  swap1\n  sstore\n  pop\n    /* \"07_Inheritance.sol\":244:358  constructor(uint _idNumber, uint _managerId) {... */\n  pop\n  pop\n    /* \"07_Inheritance.sol\":922:933  _hourlyRate */\n  dup1\n    /* \"07_Inheritance.sol\":909:919  hourlyRate */\n  0x02\n    /* \"07_Inheritance.sol\":909:933  hourlyRate = _hourlyRate */\n  dup2\n  swap1\n  sstore\n  pop\n    /* \"07_Inheritance.sol\":804:940  constructor(uint _idNumber, uint _managerId, uint _hourlyRate) Employee(_idNumber, _managerId) {... */\n  pop\n  pop\n  pop\n    /* \"07_Inheritance.sol\":1330:1447  constructor(uint _idNumber, uint _managerId, uint _hourlyRate) ... */\n  pop\n  pop\n  pop\n    /* \"07_Inheritance.sol\":1293:1449  contract Salesperson is Hourly {... */\n  jump(tag_10)\n    /* \"#utility.yul\":88:205   */\ntag_12:\n    /* \"#utility.yul\":197:198   */\n  0x00\n    /* \"#utility.yul\":194:195   */\n  dup1\n    /* \"#utility.yul\":187:199   */\n  revert\n    /* \"#utility.yul\":334:411   */\ntag_14:\n    /* \"#utility.yul\":371:378   */\n  0x00\n    /* \"#utility.yul\":400:405   */\n  dup2\n    /* \"#utility.yul\":389:405   */\n  swap1\n  pop\n    /* \"#utility.yul\":334:411   */\n  swap2\n  swap1\n  pop\n  jump\t// out\n    /* \"#utility.yul\":417:539   */\ntag_15:\n    /* \"#utility.yul\":490:514   */\n  tag_23\n    /* \"#utility.yul\":508:513   */\n  dup2\n    /* \"#utility.yul\":490:514   */\n  tag_14\n  jump\t// in\ntag_23:\n    /* \"#utility.yul\":483:488   */\n  dup2\n    /* \"#utility.yul\":480:515   */\n  eq\n    /* \"#utility.yul\":470:533   */\n  tag_24\n  jumpi\n    /* \"#utility.yul\":529:530   */\n  0x00\n    /* \"#utility.yul\":526:527   */\n  dup1\n    /* \"#utility.yul\":519:531   */\n  revert\n    /* \"#utility.yul\":470:533   */\ntag_24:\n    /* \"#utility.yul\":417:539   */\n  pop\n  jump\t// out\n    /* \"#utility.yul\":545:688   */\ntag_16:\n    /* \"#utility.yul\":602:607   */\n  0x00\n    /* \"#utility.yul\":633:639   */\n  dup2\n    /* \"#utility.yul\":627:640   */\n  mload\n    /* \"#utility.yul\":618:640   */\n  swap1\n  pop\n    /* \"#utility.yul\":649:682   */\n  tag_26\n    /* \"#utility.yul\":676:681   */\n  dup2\n    /* \"#utility.yul\":649:682   */\n  tag_15\n  jump\t// in\ntag_26:\n    /* \"#utility.yul\":545:688   */\n  swap3\n  swap2\n  pop\n  pop\n  jump\t// out\n    /* \"#utility.yul\":694:1357   */\ntag_3:\n    /* \"#utility.yul\":782:788   */\n  0x00\n    /* \"#utility.yul\":790:796   */\n  dup1\n    /* \"#utility.yul\":798:804   */\n  0x00\n    /* \"#utility.yul\":847:849   */\n  0x60\n    /* \"#utility.yul\":835:844   */\n  dup5\n    /* \"#utility.yul\":826:833   */\n  dup7\n    /* \"#utility.yul\":822:845   */\n  sub\n    /* \"#utility.yul\":818:850   */\n  slt\n    /* \"#utility.yul\":815:934   */\n  iszero\n  tag_28\n  jumpi\n    /* \"#utility.yul\":853:932   */\n  tag_29\n  tag_12\n  jump\t// in\ntag_29:\n    /* \"#utility.yul\":815:934   */\ntag_28:\n    /* \"#utility.yul\":973:974   */\n  0x00\n    /* \"#utility.yul\":998:1062   */\n  tag_30\n    /* \"#utility.yul\":1054:1061   */\n  dup7\n    /* \"#utility.yul\":1045:1051   */\n  dup3\n    /* \"#utility.yul\":1034:1043   */\n  dup8\n    /* \"#utility.yul\":1030:1052   */\n  add\n    /* \"#utility.yul\":998:1062   */\n  tag_16\n  jump\t// in\ntag_30:\n    /* \"#utility.yul\":988:1062   */\n  swap4\n  pop\n    /* \"#utility.yul\":944:1072   */\n  pop\n    /* \"#utility.yul\":1111:1113   */\n  0x20\n    /* \"#utility.yul\":1137:1201   */\n  tag_31\n    /* \"#utility.yul\":1193:1200   */\n  dup7\n    /* \"#utility.yul\":1184:1190   */\n  dup3\n    /* \"#utility.yul\":1173:1182   */\n  dup8\n    /* \"#utility.yul\":1169:1191   */\n  add\n    /* \"#utility.yul\":1137:1201   */\n  tag_16\n  jump\t// in\ntag_31:\n    /* \"#utility.yul\":1127:1201   */\n  swap3\n  pop\n    /* \"#utility.yul\":1082:1211   */\n  pop\n    /* \"#utility.yul\":1250:1252   */\n  0x40\n    /* \"#utility.yul\":1276:1340   */\n  tag_32\n    /* \"#utility.yul\":1332:1339   */\n  dup7\n    /* \"#utility.yul\":1323:1329   */\n  dup3\n    /* \"#utility.yul\":1312:1321   */\n  dup8\n    /* \"#utility.yul\":1308:1330   */\n  add\n    /* \"#utility.yul\":1276:1340   */\n  tag_16\n  jump\t// in\ntag_32:\n    /* \"#utility.yul\":1266:1340   */\n  swap2\n  pop\n    /* \"#utility.yul\":1221:1350   */\n  pop\n    /* \"#utility.yul\":694:1357   */\n  swap3\n  pop\n  swap3\n  pop\n  swap3\n  jump\t// out\n    /* \"07_Inheritance.sol\":1293:1449  contract Salesperson is Hourly {... */\ntag_10:\n  dataSize(sub_0)\n  dup1\n  dataOffset(sub_0)\n  0x00\n  codecopy\n  0x00\n  return\nstop\n\nsub_0: assembly {\n        /* \"07_Inheritance.sol\":1293:1449  contract Salesperson is Hourly {... */\n      mstore(0x40, 0x80)\n      callvalue\n      dup1\n      iszero\n      tag_1\n      jumpi\n      0x00\n      dup1\n      revert\n    tag_1:\n      pop\n      jumpi(tag_2, lt(calldatasize, 0x04))\n      shr(0xe0, calldataload(0x00))\n      dup1\n      0x3f83ea3b\n      eq\n      tag_3\n      jumpi\n      dup1\n      0x59a7b3fe\n      eq\n      tag_4\n      jumpi\n      dup1\n      0x5cdee0c0\n      eq\n      tag_5\n      jumpi\n      dup1\n      0xf5895a0a\n      eq\n      tag_6\n      jumpi\n    tag_2:\n      0x00\n      dup1\n      revert\n        /* \"07_Inheritance.sol\":99:119  uint public idNumber */\n    tag_3:\n      tag_7\n      tag_8\n      jump\t// in\n    tag_7:\n      mload(0x40)\n      tag_9\n      swap2\n      swap1\n      tag_10\n      jump\t// in\n    tag_9:\n      mload(0x40)\n      dup1\n      swap2\n      sub\n      swap1\n      return\n        /* \"07_Inheritance.sol\":774:796  uint public hourlyRate */\n    tag_4:\n      tag_11\n      tag_12\n      jump\t// in\n    tag_11:\n      mload(0x40)\n      tag_13\n      swap2\n      swap1\n      tag_10\n      jump\t// in\n    tag_13:\n      mload(0x40)\n      dup1\n      swap2\n      sub\n      swap1\n      return\n        /* \"07_Inheritance.sol\":946:1048  function getAnnualCost() public override view returns (uint) {... */\n    tag_5:\n      tag_14\n      tag_15\n      jump\t// in\n    tag_14:\n      mload(0x40)\n      tag_16\n      swap2\n      swap1\n      tag_10\n      jump\t// in\n    tag_16:\n      mload(0x40)\n      dup1\n      swap2\n      sub\n      swap1\n      return\n        /* \"07_Inheritance.sol\":163:184  uint public managerId */\n    tag_6:\n      tag_17\n      tag_18\n      jump\t// in\n    tag_17:\n      mload(0x40)\n      tag_19\n      swap2\n      swap1\n      tag_10\n      jump\t// in\n    tag_19:\n      mload(0x40)\n      dup1\n      swap2\n      sub\n      swap1\n      return\n        /* \"07_Inheritance.sol\":99:119  uint public idNumber */\n    tag_8:\n      sload(0x00)\n      dup2\n      jump\t// out\n        /* \"07_Inheritance.sol\":774:796  uint public hourlyRate */\n    tag_12:\n      sload(0x02)\n      dup2\n      jump\t// out\n        /* \"07_Inheritance.sol\":946:1048  function getAnnualCost() public override view returns (uint) {... */\n    tag_15:\n        /* \"07_Inheritance.sol\":1001:1005  uint */\n      0x00\n        /* \"07_Inheritance.sol\":1037:1041  2080 */\n      0x0820\n        /* \"07_Inheritance.sol\":1024:1034  hourlyRate */\n      sload(0x02)\n        /* \"07_Inheritance.sol\":1024:1041  hourlyRate * 2080 */\n      tag_21\n      swap2\n      swap1\n      tag_22\n      jump\t// in\n    tag_21:\n        /* \"07_Inheritance.sol\":1017:1041  return hourlyRate * 2080 */\n      swap1\n      pop\n        /* \"07_Inheritance.sol\":946:1048  function getAnnualCost() public override view returns (uint) {... */\n      swap1\n      jump\t// out\n        /* \"07_Inheritance.sol\":163:184  uint public managerId */\n    tag_18:\n      sload(0x01)\n      dup2\n      jump\t// out\n        /* \"#utility.yul\":7:84   */\n    tag_23:\n        /* \"#utility.yul\":44:51   */\n      0x00\n        /* \"#utility.yul\":73:78   */\n      dup2\n        /* \"#utility.yul\":62:78   */\n      swap1\n      pop\n        /* \"#utility.yul\":7:84   */\n      swap2\n      swap1\n      pop\n      jump\t// out\n        /* \"#utility.yul\":90:208   */\n    tag_24:\n        /* \"#utility.yul\":177:201   */\n      tag_29\n        /* \"#utility.yul\":195:200   */\n      dup2\n        /* \"#utility.yul\":177:201   */\n      tag_23\n      jump\t// in\n    tag_29:\n        /* \"#utility.yul\":172:175   */\n      dup3\n        /* \"#utility.yul\":165:202   */\n      mstore\n        /* \"#utility.yul\":90:208   */\n      pop\n      pop\n      jump\t// out\n        /* \"#utility.yul\":214:436   */\n    tag_10:\n        /* \"#utility.yul\":307:311   */\n      0x00\n        /* \"#utility.yul\":345:347   */\n      0x20\n        /* \"#utility.yul\":334:343   */\n      dup3\n        /* \"#utility.yul\":330:348   */\n      add\n        /* \"#utility.yul\":322:348   */\n      swap1\n      pop\n        /* \"#utility.yul\":358:429   */\n      tag_31\n        /* \"#utility.yul\":426:427   */\n      0x00\n        /* \"#utility.yul\":415:424   */\n      dup4\n        /* \"#utility.yul\":411:428   */\n      add\n        /* \"#utility.yul\":402:408   */\n      dup5\n        /* \"#utility.yul\":358:429   */\n      tag_24\n      jump\t// in\n    tag_31:\n        /* \"#utility.yul\":214:436   */\n      swap3\n      swap2\n      pop\n      pop\n      jump\t// out\n        /* \"#utility.yul\":442:622   */\n    tag_25:\n        /* \"#utility.yul\":490:567   */\n      0x4e487b7100000000000000000000000000000000000000000000000000000000\n        /* \"#utility.yul\":487:488   */\n      0x00\n        /* \"#utility.yul\":480:568   */\n      mstore\n        /* \"#utility.yul\":587:591   */\n      0x11\n        /* \"#utility.yul\":584:585   */\n      0x04\n        /* \"#utility.yul\":577:592   */\n      mstore\n        /* \"#utility.yul\":611:615   */\n      0x24\n        /* \"#utility.yul\":608:609   */\n      0x00\n        /* \"#utility.yul\":601:616   */\n      revert\n        /* \"#utility.yul\":628:1038   */\n    tag_22:\n        /* \"#utility.yul\":668:675   */\n      0x00\n        /* \"#utility.yul\":691:711   */\n      tag_34\n        /* \"#utility.yul\":709:710   */\n      dup3\n        /* \"#utility.yul\":691:711   */\n      tag_23\n      jump\t// in\n    tag_34:\n        /* \"#utility.yul\":686:711   */\n      swap2\n      pop\n        /* \"#utility.yul\":725:745   */\n      tag_35\n        /* \"#utility.yul\":743:744   */\n      dup4\n        /* \"#utility.yul\":725:745   */\n      tag_23\n      jump\t// in\n    tag_35:\n        /* \"#utility.yul\":720:745   */\n      swap3\n      pop\n        /* \"#utility.yul\":780:781   */\n      dup3\n        /* \"#utility.yul\":777:778   */\n      dup3\n        /* \"#utility.yul\":773:782   */\n      mul\n        /* \"#utility.yul\":802:832   */\n      tag_36\n        /* \"#utility.yul\":820:831   */\n      dup2\n        /* \"#utility.yul\":802:832   */\n      tag_23\n      jump\t// in\n    tag_36:\n        /* \"#utility.yul\":791:832   */\n      swap2\n      pop\n        /* \"#utility.yul\":981:982   */\n      dup3\n        /* \"#utility.yul\":972:979   */\n      dup3\n        /* \"#utility.yul\":968:983   */\n      div\n        /* \"#utility.yul\":965:966   */\n      dup5\n        /* \"#utility.yul\":962:984   */\n      eq\n        /* \"#utility.yul\":942:943   */\n      dup4\n        /* \"#utility.yul\":935:944   */\n      iszero\n        /* \"#utility.yul\":915:998   */\n      or\n        /* \"#utility.yul\":892:1031   */\n      tag_37\n      jumpi\n        /* \"#utility.yul\":1011:1029   */\n      tag_38\n      tag_25\n      jump\t// in\n    tag_38:\n        /* \"#utility.yul\":892:1031   */\n    tag_37:\n        /* \"#utility.yul\":676:1038   */\n      pop\n        /* \"#utility.yul\":628:1038   */\n      swap3\n      swap2\n      pop\n      pop\n      jump\t// out\n\n    auxdata: 0xa26469706673582212205721836f6138bde1b54cb73dc60e27d40216ce96bdd1b78bfe96ea555199291064736f6c634300081a0033\n}\n",
				"bytecode": {
					"linkReferences": {},
					"object": "6080604052348015600e575f80fd5b5060405161029b38038061029b8339818101604052810190602e91906085565b8282828282815f819055508060018190555050508060028190555050505050505060cc565b5f80fd5b5f819050919050565b6067816057565b81146070575f80fd5b50565b5f81519050607f816060565b92915050565b5f805f6060848603121560995760986053565b5b5f60a4868287016073565b935050602060b3868287016073565b925050604060c2868287016073565b9150509250925092565b6101c2806100d95f395ff3fe608060405234801561000f575f80fd5b506004361061004a575f3560e01c80633f83ea3b1461004e57806359a7b3fe1461006c5780635cdee0c01461008a578063f5895a0a146100a8575b5f80fd5b6100566100c6565b6040516100639190610105565b60405180910390f35b6100746100cb565b6040516100819190610105565b60405180910390f35b6100926100d1565b60405161009f9190610105565b60405180910390f35b6100b06100e7565b6040516100bd9190610105565b60405180910390f35b5f5481565b60025481565b5f6108206002546100e2919061014b565b905090565b60015481565b5f819050919050565b6100ff816100ed565b82525050565b5f6020820190506101185f8301846100f6565b92915050565b7f4e487b71000000000000000000000000000000000000000000000000000000005f52601160045260245ffd5b5f610155826100ed565b9150610160836100ed565b925082820261016e816100ed565b915082820484148315176101855761018461011e565b5b509291505056fea26469706673582212205721836f6138bde1b54cb73dc60e27d40216ce96bdd1b78bfe96ea555199291064736f6c634300081a0033",
					"opcodes": "PUSH1 0x80 PUSH1 0x40 MSTORE CALLVALUE DUP1 ISZERO PUSH1 0xE JUMPI PUSH0 DUP1 REVERT JUMPDEST POP PUSH1 0x40 MLOAD PUSH2 0x29B CODESIZE SUB DUP1 PUSH2 0x29B DUP4 CODECOPY DUP2 DUP2 ADD PUSH1 0x40 MSTORE DUP2 ADD SWAP1 PUSH1 0x2E SWAP2 SWAP1 PUSH1 0x85 JUMP JUMPDEST DUP3 DUP3 DUP3 DUP3 DUP3 DUP2 PUSH0 DUP2 SWAP1 SSTORE POP DUP1 PUSH1 0x1 DUP2 SWAP1 SSTORE POP POP POP DUP1 PUSH1 0x2 DUP2 SWAP1 SSTORE POP POP POP POP POP POP POP PUSH1 0xCC JUMP JUMPDEST PUSH0 DUP1 REVERT JUMPDEST PUSH0 DUP2 SWAP1 POP SWAP2 SWAP1 POP JUMP JUMPDEST PUSH1 0x67 DUP2 PUSH1 0x57 JUMP JUMPDEST DUP2 EQ PUSH1 0x70 JUMPI PUSH0 DUP1 REVERT JUMPDEST POP JUMP JUMPDEST PUSH0 DUP2 MLOAD SWAP1 POP PUSH1 0x7F DUP2 PUSH1 0x60 JUMP JUMPDEST SWAP3 SWAP2 POP POP JUMP JUMPDEST PUSH0 DUP1 PUSH0 PUSH1 0x60 DUP5 DUP7 SUB SLT ISZERO PUSH1 0x99 JUMPI PUSH1 0x98 PUSH1 0x53 JUMP JUMPDEST JUMPDEST PUSH0 PUSH1 0xA4 DUP7 DUP3 DUP8 ADD PUSH1 0x73 JUMP JUMPDEST SWAP4 POP POP PUSH1 0x20 PUSH1 0xB3 DUP7 DUP3 DUP8 ADD PUSH1 0x73 JUMP JUMPDEST SWAP3 POP POP PUSH1 0x40 PUSH1 0xC2 DUP7 DUP3 DUP8 ADD PUSH1 0x73 JUMP JUMPDEST SWAP2 POP POP SWAP3 POP SWAP3 POP SWAP3 JUMP JUMPDEST PUSH2 0x1C2 DUP1 PUSH2 0xD9 PUSH0 CODECOPY PUSH0 RETURN INVALID PUSH1 0x80 PUSH1 0x40 MSTORE CALLVALUE DUP1 ISZERO PUSH2 0xF JUMPI PUSH0 DUP1 REVERT JUMPDEST POP PUSH1 0x4 CALLDATASIZE LT PUSH2 0x4A JUMPI PUSH0 CALLDATALOAD PUSH1 0xE0 SHR DUP1 PUSH4 0x3F83EA3B EQ PUSH2 0x4E JUMPI DUP1 PUSH4 0x59A7B3FE EQ PUSH2 0x6C JUMPI DUP1 PUSH4 0x5CDEE0C0 EQ PUSH2 0x8A JUMPI DUP1 PUSH4 0xF5895A0A EQ PUSH2 0xA8 JUMPI JUMPDEST PUSH0 DUP1 REVERT JUMPDEST PUSH2 0x56 PUSH2 0xC6 JUMP JUMPDEST PUSH1 0x40 MLOAD PUSH2 0x63 SWAP2 SWAP1 PUSH2 0x105 JUMP JUMPDEST PUSH1 0x40 MLOAD DUP1 SWAP2 SUB SWAP1 RETURN JUMPDEST PUSH2 0x74 PUSH2 0xCB JUMP JUMPDEST PUSH1 0x40 MLOAD PUSH2 0x81 SWAP2 SWAP1 PUSH2 0x105 JUMP JUMPDEST PUSH1 0x40 MLOAD DUP1 SWAP2 SUB SWAP1 RETURN JUMPDEST PUSH2 0x92 PUSH2 0xD1 JUMP JUMPDEST PUSH1 0x40 MLOAD PUSH2 0x9F SWAP2 SWAP1 PUSH2 0x105 JUMP JUMPDEST PUSH1 0x40 MLOAD DUP1 SWAP2 SUB SWAP1 RETURN JUMPDEST PUSH2 0xB0 PUSH2 0xE7 JUMP JUMPDEST PUSH1 0x40 MLOAD PUSH2 0xBD SWAP2 SWAP1 PUSH2 0x105 JUMP JUMPDEST PUSH1 0x40 MLOAD DUP1 SWAP2 SUB SWAP1 RETURN JUMPDEST PUSH0 SLOAD DUP2 JUMP JUMPDEST PUSH1 0x2 SLOAD DUP2 JUMP JUMPDEST PUSH0 PUSH2 0x820 PUSH1 0x2 SLOAD PUSH2 0xE2 SWAP2 SWAP1 PUSH2 0x14B JUMP JUMPDEST SWAP1 POP SWAP1 JUMP JUMPDEST PUSH1 0x1 SLOAD DUP2 JUMP JUMPDEST PUSH0 DUP2 SWAP1 POP SWAP2 SWAP1 POP JUMP JUMPDEST PUSH2 0xFF DUP2 PUSH2 0xED JUMP JUMPDEST DUP3 MSTORE POP POP JUMP JUMPDEST PUSH0 PUSH1 0x20 DUP3 ADD SWAP1 POP PUSH2 0x118 PUSH0 DUP4 ADD DUP5 PUSH2 0xF6 JUMP JUMPDEST SWAP3 SWAP2 POP POP JUMP JUMPDEST PUSH32 0x4E487B7100000000000000000000000000000000000000000000000000000000 PUSH0 MSTORE PUSH1 0x11 PUSH1 0x4 MSTORE PUSH1 0x24 PUSH0 REVERT JUMPDEST PUSH0 PUSH2 0x155 DUP3 PUSH2 0xED JUMP JUMPDEST SWAP2 POP PUSH2 0x160 DUP4 PUSH2 0xED JUMP JUMPDEST SWAP3 POP DUP3 DUP3 MUL PUSH2 0x16E DUP2 PUSH2 0xED JUMP JUMPDEST SWAP2 POP DUP3 DUP3 DIV DUP5 EQ DUP4 ISZERO OR PUSH2 0x185 JUMPI PUSH2 0x184 PUSH2 0x11E JUMP JUMPDEST JUMPDEST POP SWAP3 SWAP2 POP POP JUMP INVALID LOG2 PUSH5 0x6970667358 0x22 SLT KECCAK256 JUMPI 0x21 DUP4 PUSH16 0x6138BDE1B54CB73DC60E27D40216CE96 0xBD 0xD1 0xB7 DUP12 INVALID SWAP7 0xEA SSTORE MLOAD SWAP10 0x29 LT PUSH5 0x736F6C6343 STOP ADDMOD BYTE STOP CALLER "
				},
				"gasEstimates": {
					"creation": {
						"codeDepositCost": "90000",
						"executionCost": "infinite",
						"totalCost": "infinite"
					},
					"external": {
						"getAnnualCost()": "infinite",
						"hourlyRate()": "2425",
						"idNumber()": "2402",
						"managerId()": "2469"
					}
				},
				"methodIdentifiers": {
					"getAnnualCost()": "5cdee0c0",
					"hourlyRate()": "59a7b3fe",
					"idNumber()": "3f83ea3b",
					"managerId()": "f5895a0a"
				}
			},
			"storageLayout": {
				"storage": [
					{
						"astId": 3,
						"contract": "07_Inheritance.sol:Salesperson",
						"label": "idNumber",
						"offset": 0,
						"slot": "0",
						"type": "t_uint256"
					},
					{
						"astId": 5,
						"contract": "07_Inheritance.sol:Salesperson",
						"label": "managerId",
						"offset": 0,
						"slot": "1",
						"type": "t_uint256"
					},
					{
						"astId": 63,
						"contract": "07_Inheritance.sol:Salesperson",
						"label": "hourlyRate",
						"offset": 0,
						"slot": "2",
						"type": "t_uint256"
					}
				],
				"types": {
					"t_uint256": {
						"encoding": "inplace",
						"label": "uint256",
						"numberOfBytes": "32"
					}
				}
			},
			"userdoc": {
				"kind": "user",
				"methods": {},
				"version": 1
			}
		}
	}
}