{
	"07_Inheritance.sol": {
		"Salaried": {
			"abi": [
				{
					"inputs": [
						{
							"internalType": "uint256",
							"name": "_idNumber",
							"type": "uint256"
						},
						{
							"internalType": "uint256",
							"name": "_managerId",
							"type": "uint256"
						},
						{
							"internalType": "uint256",
							"name": "_annualSalary",
							"type": "uint256"
						}
					],
					"stateMutability": "nonpayable",
					"type": "constructor"
				},
				{
					"inputs": [],
					"name": "annualSalary",
					"outputs": [
						{
							"internalType": "uint256",
							"name": "",
							"type": "uint256"
						}
					],
					"stateMutability": "view",
					"type": "function"
				},
				{
					"inputs": [],
					"name": "getAnnualCost",
					"outputs": [
						{
							"internalType": "uint256",
							"name": "",
							"type": "uint256"
						}
					],
					"stateMutability": "view",
					"type": "function"
				},
				{
					"inputs": [],
					"name": "idNumber",
					"outputs": [
						{
							"internalType": "uint256",
							"name": "",
							"type": "uint256"
						}
					],
					"stateMutability": "view",
					"type": "function"
				},
				{
					"inputs": [],
					"name": "managerId",
					"outputs": [
						{
							"internalType": "uint256",
							"name": "",
							"type": "uint256"
						}
					],
					"stateMutability": "view",
					"type": "function"
				}
			],
			"devdoc": {
				"kind": "dev",
				"methods": {},
				"version": 1
			},
			"evm": {
				"assembly": "    /* \"07_Inheritance.sol\":423:738  contract Salaried is Employee {... */\n  mstore(0x40, 0x80)\n    /* \"07_Inheritance.sol\":491:633  constructor(uint _idNumber, uint _managerId, uint _annualSalary) Employee(_idNumber, _managerId) {... */\n  callvalue\n  dup1\n  iszero\n  tag_1\n  jumpi\n  0x00\n  dup1\n  revert\ntag_1:\n  pop\n  mload(0x40)\n  sub(codesize, bytecodeSize)\n  dup1\n  bytecodeSize\n  dup4\n  codecopy\n  dup2\n  dup2\n  add\n  0x40\n  mstore\n  dup2\n  add\n  swap1\n  tag_2\n  swap2\n  swap1\n  tag_3\n  jump\t// in\ntag_2:\n    /* \"07_Inheritance.sol\":565:574  _idNumber */\n  dup3\n    /* \"07_Inheritance.sol\":576:586  _managerId */\n  dup3\n    /* \"07_Inheritance.sol\":310:319  _idNumber */\n  dup2\n    /* \"07_Inheritance.sol\":299:307  idNumber */\n  0x00\n    /* \"07_Inheritance.sol\":299:319  idNumber = _idNumber */\n  dup2\n  swap1\n  sstore\n  pop\n    /* \"07_Inheritance.sol\":341:351  _managerId */\n  dup1\n    /* \"07_Inheritance.sol\":329:338  managerId */\n  0x01\n    /* \"07_Inheritance.sol\":329:351  managerId = _managerId */\n  dup2\n  swap1\n  sstore\n  pop\n    /* \"07_Inheritance.sol\":244:358  constructor(uint _idNumber, uint _managerId) {... */\n  pop\n  pop\n    /* \"07_Inheritance.sol\":613:626  _annualSalary */\n  dup1\n    /* \"07_Inheritance.sol\":598:610  annualSalary */\n  0x02\n    /* \"07_Inheritance.sol\":598:626  annualSalary = _annualSalary */\n  dup2\n  swap1\n  sstore\n  pop\n    /* \"07_Inheritance.sol\":491:633  constructor(uint _idNumber, uint _managerId, uint _annualSalary) Employee(_idNumber, _managerId) {... */\n  pop\n  pop\n  pop\n    /* \"07_Inheritance.sol\":423:738  contract Salaried is Employee {... */\n  jump(tag_8)\n    /* \"#utility.yul\":88:205   */\ntag_10:\n    /* \"#utility.yul\":197:198   */\n  0x00\n    /* \"#utility.yul\":194:195   */\n  dup1\n    /* \"#utility.yul\":187:199   */\n  revert\n    /* \"#utility.yul\":334:411   */\ntag_12:\n    /* \"#utility.yul\":371:378   */\n  0x00\n    /* \"#utility.yul\":400:405   */\n  dup2\n    /* \"#utility.yul\":389:405   */\n  swap1\n  pop\n    /* \"#utility.yul\":334:411   */\n  swap2\n  swap1\n  pop\n  jump\t// out\n    /* \"#utility.yul\":417:539   */\ntag_13:\n    /* \"#utility.yul\":490:514   */\n  tag_21\n    /* \"#utility.yul\":508:513   */\n  dup2\n    /* \"#utility.yul\":490:514   */\n  tag_12\n  jump\t// in\ntag_21:\n    /* \"#utility.yul\":483:488   */\n  dup2\n    /* \"#utility.yul\":480:515   */\n  eq\n    /* \"#utility.yul\":470:533   */\n  tag_22\n  jumpi\n    /* \"#utility.yul\":529:530   */\n  0x00\n    /* \"#utility.yul\":526:527   */\n  dup1\n    /* \"#utility.yul\":519:531   */\n  revert\n    /* \"#utility.yul\":470:533   */\ntag_22:\n    /* \"#utility.yul\":417:539   */\n  pop\n  jump\t// out\n    /* \"#utility.yul\":545:688   */\ntag_14:\n    /* \"#utility.yul\":602:607   */\n  0x00\n    /* \"#utility.yul\":633:639   */\n  dup2\n    /* \"#utility.yul\":627:640   */\n  mload\n    /* \"#utility.yul\":618:640   */\n  swap1\n  pop\n    /* \"#utility.yul\":649:682   */\n  tag_24\n    /* \"#utility.yul\":676:681   */\n  dup2\n    /* \"#utility.yul\":649:682   */\n  tag_13\n  jump\t// in\ntag_24:\n    /* \"#utility.yul\":545:688   */\n  swap3\n  swap2\n  pop\n  pop\n  jump\t// out\n    /* \"#utility.yul\":694:1357   */\ntag_3:\n    /* \"#utility.yul\":782:788   */\n  0x00\n    /* \"#utility.yul\":790:796   */\n  dup1\n    /* \"#utility.yul\":798:804   */\n  0x00\n    /* \"#utility.yul\":847:849   */\n  0x60\n    /* \"#utility.yul\":835:844   */\n  dup5\n    /* \"#utility.yul\":826:833   */\n  dup7\n    /* \"#utility.yul\":822:845   */\n  sub\n    /* \"#utility.yul\":818:850   */\n  slt\n    /* \"#utility.yul\":815:934   */\n  iszero\n  tag_26\n  jumpi\n    /* \"#utility.yul\":853:932   */\n  tag_27\n  tag_10\n  jump\t// in\ntag_27:\n    /* \"#utility.yul\":815:934   */\ntag_26:\n    /* \"#utility.yul\":973:974   */\n  0x00\n    /* \"#utility.yul\":998:1062   */\n  tag_28\n    /* \"#utility.yul\":1054:1061   */\n  dup7\n    /* \"#utility.yul\":1045:1051   */\n  dup3\n    /* \"#utility.yul\":1034:1043   */\n  dup8\n    /* \"#utility.yul\":1030:1052   */\n  add\n    /* \"#utility.yul\":998:1062   */\n  tag_14\n  jump\t// in\ntag_28:\n    /* \"#utility.yul\":988:1062   */\n  swap4\n  pop\n    /* \"#utility.yul\":944:1072   */\n  pop\n    /* \"#utility.yul\":1111:1113   */\n  0x20\n    /* \"#utility.yul\":1137:1201   */\n  tag_29\n    /* \"#utility.yul\":1193:1200   */\n  dup7\n    /* \"#utility.yul\":1184:1190   */\n  dup3\n    /* \"#utility.yul\":1173:1182   */\n  dup8\n    /* \"#utility.yul\":1169:1191   */\n  add\n    /* \"#utility.yul\":1137:1201   */\n  tag_14\n  jump\t// in\ntag_29:\n    /* \"#utility.yul\":1127:1201   */\n  swap3\n  pop\n    /* \"#utility.yul\":1082:1211   */\n  pop\n    /* \"#utility.yul\":1250:1252   */\n  0x40\n    /* \"#utility.yul\":1276:1340   */\n  tag_30\n    /* \"#utility.yul\":1332:1339   */\n  dup7\n    /* \"#utility.yul\":1323:1329   */\n  dup3\n    /* \"#utility.yul\":1312:1321   */\n  dup8\n    /* \"#utility.yul\":1308:1330   */\n  add\n    /* \"#utility.yul\":1276:1340   */\n  tag_14\n  jump\t// in\ntag_30:\n    /* \"#utility.yul\":1266:1340   */\n  swap2\n  pop\n    /* \"#utility.yul\":1221:1350   */\n  pop\n    /* \"#utility.yul\":694:1357   */\n  swap3\n  pop\n  swap3\n  pop\n  swap3\n  jump\t// out\n    /* \"07_Inheritance.sol\":423:738  contract Salaried is Employee {... */\ntag_8:\n  dataSize(sub_0)\n  dup1\n  dataOffset(sub_0)\n  0x00\n  codecopy\n  0x00\n  return\nstop\n\nsub_0: assembly {\n        /* \"07_Inheritance.sol\":423:738  contract Salaried is Employee {... */\n      mstore(0x40, 0x80)\n      callvalue\n      dup1\n      iszero\n      tag_1\n      jumpi\n      0x00\n      dup1\n      revert\n    tag_1:\n      pop\n      jumpi(tag_2, lt(calldatasize, 0x04))\n      shr(0xe0, calldataload(0x00))\n      dup1\n      0x3f83ea3b\n      eq\n      tag_3\n      jumpi\n      dup1\n      0x50dca6ab\n      eq\n      tag_4\n      jumpi\n      dup1\n      0x5cdee0c0\n      eq\n      tag_5\n      jumpi\n      dup1\n      0xf5895a0a\n      eq\n      tag_6\n      jumpi\n    tag_2:\n      0x00\n      dup1\n      revert\n        /* \"07_Inheritance.sol\":99:119  uint public idNumber */\n    tag_3:\n      tag_7\n      tag_8\n      jump\t// in\n    tag_7:\n      mload(0x40)\n      tag_9\n      swap2\n      swap1\n      tag_10\n      jump\t// in\n    tag_9:\n      mload(0x40)\n      dup1\n      swap2\n      sub\n      swap1\n      return\n        /* \"07_Inheritance.sol\":459:483  uint public annualSalary */\n    tag_4:\n      tag_11\n      tag_12\n      jump\t// in\n    tag_11:\n      mload(0x40)\n      tag_13\n      swap2\n      swap1\n      tag_10\n      jump\t// in\n    tag_13:\n      mload(0x40)\n      dup1\n      swap2\n      sub\n      swap1\n      return\n        /* \"07_Inheritance.sol\":639:736  function getAnnualCost() public override view returns (uint) {... */\n    tag_5:\n      tag_14\n      tag_15\n      jump\t// in\n    tag_14:\n      mload(0x40)\n      tag_16\n      swap2\n      swap1\n      tag_10\n      jump\t// in\n    tag_16:\n      mload(0x40)\n      dup1\n      swap2\n      sub\n      swap1\n      return\n        /* \"07_Inheritance.sol\":163:184  uint public managerId */\n    tag_6:\n      tag_17\n      tag_18\n      jump\t// in\n    tag_17:\n      mload(0x40)\n      tag_19\n      swap2\n      swap1\n      tag_10\n      jump\t// in\n    tag_19:\n      mload(0x40)\n      dup1\n      swap2\n      sub\n      swap1\n      return\n        /* \"07_Inheritance.sol\":99:119  uint public idNumber */\n    tag_8:\n      sload(0x00)\n      dup2\n      jump\t// out\n        /* \"07_Inheritance.sol\":459:483  uint public annualSalary */\n    tag_12:\n      sload(0x02)\n      dup2\n      jump\t// out\n        /* \"07_Inheritance.sol\":639:736  function getAnnualCost() public override view returns (uint) {... */\n    tag_15:\n        /* \"07_Inheritance.sol\":694:698  uint */\n      0x00\n        /* \"07_Inheritance.sol\":717:729  annualSalary */\n      sload(0x02)\n        /* \"07_Inheritance.sol\":710:729  return annualSalary */\n      swap1\n      pop\n        /* \"07_Inheritance.sol\":639:736  function getAnnualCost() public override view returns (uint) {... */\n      swap1\n      jump\t// out\n        /* \"07_Inheritance.sol\":163:184  uint public managerId */\n    tag_18:\n      sload(0x01)\n      dup2\n      jump\t// out\n        /* \"#utility.yul\":7:84   */\n    tag_21:\n        /* \"#utility.yul\":44:51   */\n      0x00\n        /* \"#utility.yul\":73:78   */\n      dup2\n        /* \"#utility.yul\":62:78   */\n      swap1\n      pop\n        /* \"#utility.yul\":7:84   */\n      swap2\n      swap1\n      pop\n      jump\t// out\n        /* \"#utility.yul\":90:208   */\n    tag_22:\n        /* \"#utility.yul\":177:201   */\n      tag_26\n        /* \"#utility.yul\":195:200   */\n      dup2\n        /* \"#utility.yul\":177:201   */\n      tag_21\n      jump\t// in\n    tag_26:\n        /* \"#utility.yul\":172:175   */\n      dup3\n        /* \"#utility.yul\":165:202   */\n      mstore\n        /* \"#utility.yul\":90:208   */\n      pop\n      pop\n      jump\t// out\n        /* \"#utility.yul\":214:436   */\n    tag_10:\n        /* \"#utility.yul\":307:311   */\n      0x00\n        /* \"#utility.yul\":345:347   */\n      0x20\n        /* \"#utility.yul\":334:343   */\n      dup3\n        /* \"#utility.yul\":330:348   */\n      add\n        /* \"#utility.yul\":322:348   */\n      swap1\n      pop\n        /* \"#utility.yul\":358:429   */\n      tag_28\n        /* \"#utility.yul\":426:427   */\n      0x00\n        /* \"#utility.yul\":415:424   */\n      dup4\n        /* \"#utility.yul\":411:428   */\n      add\n        /* \"#utility.yul\":402:408   */\n      dup5\n        /* \"#utility.yul\":358:429   */\n      tag_22\n      jump\t// in\n    tag_28:\n        /* \"#utility.yul\":214:436   */\n      swap3\n      swap2\n      pop\n      pop\n      jump\t// out\n\n    auxdata: 0xa2646970667358221220e3ee7033081428838c84f2e1ba493e8c2c336f93599d2a6e33426f3f723e21e164736f6c634300081a0033\n}\n",
				"bytecode": {
					"linkReferences": {},
					"object": "6080604052348015600e575f80fd5b5060405161021a38038061021a8339818101604052810190602e9190607f565b8282815f819055508060018190555050508060028190555050505060c6565b5f80fd5b5f819050919050565b6061816051565b8114606a575f80fd5b50565b5f81519050607981605a565b92915050565b5f805f606084860312156093576092604d565b5b5f609e86828701606d565b935050602060ad86828701606d565b925050604060bc86828701606d565b9150509250925092565b610147806100d35f395ff3fe608060405234801561000f575f80fd5b506004361061004a575f3560e01c80633f83ea3b1461004e57806350dca6ab1461006c5780635cdee0c01461008a578063f5895a0a146100a8575b5f80fd5b6100566100c6565b60405161006391906100f8565b60405180910390f35b6100746100cb565b60405161008191906100f8565b60405180910390f35b6100926100d1565b60405161009f91906100f8565b60405180910390f35b6100b06100da565b6040516100bd91906100f8565b60405180910390f35b5f5481565b60025481565b5f600254905090565b60015481565b5f819050919050565b6100f2816100e0565b82525050565b5f60208201905061010b5f8301846100e9565b9291505056fea2646970667358221220e3ee7033081428838c84f2e1ba493e8c2c336f93599d2a6e33426f3f723e21e164736f6c634300081a0033",
					"opcodes": "PUSH1 0x80 PUSH1 0x40 MSTORE CALLVALUE DUP1 ISZERO PUSH1 0xE JUMPI PUSH0 DUP1 REVERT JUMPDEST POP PUSH1 0x40 MLOAD PUSH2 0x21A CODESIZE SUB DUP1 PUSH2 0x21A DUP4 CODECOPY DUP2 DUP2 ADD PUSH1 0x40 MSTORE DUP2 ADD SWAP1 PUSH1 0x2E SWAP2 SWAP1 PUSH1 0x7F JUMP JUMPDEST DUP3 DUP3 DUP2 PUSH0 DUP2 SWAP1 SSTORE POP DUP1 PUSH1 0x1 DUP2 SWAP1 SSTORE POP POP POP DUP1 PUSH1 0x2 DUP2 SWAP1 SSTORE POP POP POP POP PUSH1 0xC6 JUMP JUMPDEST PUSH0 DUP1 REVERT JUMPDEST PUSH0 DUP2 SWAP1 POP SWAP2 SWAP1 POP JUMP JUMPDEST PUSH1 0x61 DUP2 PUSH1 0x51 JUMP JUMPDEST DUP2 EQ PUSH1 0x6A JUMPI PUSH0 DUP1 REVERT JUMPDEST POP JUMP JUMPDEST PUSH0 DUP2 MLOAD SWAP1 POP PUSH1 0x79 DUP2 PUSH1 0x5A JUMP JUMPDEST SWAP3 SWAP2 POP POP JUMP JUMPDEST PUSH0 DUP1 PUSH0 PUSH1 0x60 DUP5 DUP7 SUB SLT ISZERO PUSH1 0x93 JUMPI PUSH1 0x92 PUSH1 0x4D JUMP JUMPDEST JUMPDEST PUSH0 PUSH1 0x9E DUP7 DUP3 DUP8 ADD PUSH1 0x6D JUMP JUMPDEST SWAP4 POP POP PUSH1 0x20 PUSH1 0xAD DUP7 DUP3 DUP8 ADD PUSH1 0x6D JUMP JUMPDEST SWAP3 POP POP PUSH1 0x40 PUSH1 0xBC DUP7 DUP3 DUP8 ADD PUSH1 0x6D JUMP JUMPDEST SWAP2 POP POP SWAP3 POP SWAP3 POP SWAP3 JUMP JUMPDEST PUSH2 0x147 DUP1 PUSH2 0xD3 PUSH0 CODECOPY PUSH0 RETURN INVALID PUSH1 0x80 PUSH1 0x40 MSTORE CALLVALUE DUP1 ISZERO PUSH2 0xF JUMPI PUSH0 DUP1 REVERT JUMPDEST POP PUSH1 0x4 CALLDATASIZE LT PUSH2 0x4A JUMPI PUSH0 CALLDATALOAD PUSH1 0xE0 SHR DUP1 PUSH4 0x3F83EA3B EQ PUSH2 0x4E JUMPI DUP1 PUSH4 0x50DCA6AB EQ PUSH2 0x6C JUMPI DUP1 PUSH4 0x5CDEE0C0 EQ PUSH2 0x8A JUMPI DUP1 PUSH4 0xF5895A0A EQ PUSH2 0xA8 JUMPI JUMPDEST PUSH0 DUP1 REVERT JUMPDEST PUSH2 0x56 PUSH2 0xC6 JUMP JUMPDEST PUSH1 0x40 MLOAD PUSH2 0x63 SWAP2 SWAP1 PUSH2 0xF8 JUMP JUMPDEST PUSH1 0x40 MLOAD DUP1 SWAP2 SUB SWAP1 RETURN JUMPDEST PUSH2 0x74 PUSH2 0xCB JUMP JUMPDEST PUSH1 0x40 MLOAD PUSH2 0x81 SWAP2 SWAP1 PUSH2 0xF8 JUMP JUMPDEST PUSH1 0x40 MLOAD DUP1 SWAP2 SUB SWAP1 RETURN JUMPDEST PUSH2 0x92 PUSH2 0xD1 JUMP JUMPDEST PUSH1 0x40 MLOAD PUSH2 0x9F SWAP2 SWAP1 PUSH2 0xF8 JUMP JUMPDEST PUSH1 0x40 MLOAD DUP1 SWAP2 SUB SWAP1 RETURN JUMPDEST PUSH2 0xB0 PUSH2 0xDA JUMP JUMPDEST PUSH1 0x40 MLOAD PUSH2 0xBD SWAP2 SWAP1 PUSH2 0xF8 JUMP JUMPDEST PUSH1 0x40 MLOAD DUP1 SWAP2 SUB SWAP1 RETURN JUMPDEST PUSH0 SLOAD DUP2 JUMP JUMPDEST PUSH1 0x2 SLOAD DUP2 JUMP JUMPDEST PUSH0 PUSH1 0x2 SLOAD SWAP1 POP SWAP1 JUMP JUMPDEST PUSH1 0x1 SLOAD DUP2 JUMP JUMPDEST PUSH0 DUP2 SWAP1 POP SWAP2 SWAP1 POP JUMP JUMPDEST PUSH2 0xF2 DUP2 PUSH2 0xE0 JUMP JUMPDEST DUP3 MSTORE POP POP JUMP JUMPDEST PUSH0 PUSH1 0x20 DUP3 ADD SWAP1 POP PUSH2 0x10B PUSH0 DUP4 ADD DUP5 PUSH2 0xE9 JUMP JUMPDEST SWAP3 SWAP2 POP POP JUMP INVALID LOG2 PUSH5 0x6970667358 0x22 SLT KECCAK256 0xE3 0xEE PUSH17 0x33081428838C84F2E1BA493E8C2C336F93 MSIZE SWAP14 0x2A PUSH15 0x33426F3F723E21E164736F6C634300 ADDMOD BYTE STOP CALLER "
				},
				"gasEstimates": {
					"creation": {
						"codeDepositCost": "65400",
						"executionCost": "infinite",
						"totalCost": "infinite"
					},
					"external": {
						"annualSalary()": "2425",
						"getAnnualCost()": "2454",
						"idNumber()": "2402",
						"managerId()": "2469"
					}
				},
				"methodIdentifiers": {
					"annualSalary()": "50dca6ab",
					"getAnnualCost()": "5cdee0c0",
					"idNumber()": "3f83ea3b",
					"managerId()": "f5895a0a"
				}
			},
			"storageLayout": {
				"storage": [
					{
						"astId": 3,
						"contract": "07_Inheritance.sol:Salaried",
						"label": "idNumber",
						"offset": 0,
						"slot": "0",
						"type": "t_uint256"
					},
					{
						"astId": 5,
						"contract": "07_Inheritance.sol:Salaried",
						"label": "managerId",
						"offset": 0,
						"slot": "1",
						"type": "t_uint256"
					},
					{
						"astId": 31,
						"contract": "07_Inheritance.sol:Salaried",
						"label": "annualSalary",
						"offset": 0,
						"slot": "2",
						"type": "t_uint256"
					}
				],
				"types": {
					"t_uint256": {
						"encoding": "inplace",
						"label": "uint256",
						"numberOfBytes": "32"
					}
				}
			},
			"userdoc": {
				"kind": "user",
				"methods": {},
				"version": 1
			}
		}
	}
}