{
	"BasicMath.sol": {
		"BasicMath": {
			"abi": [
				{
					"inputs": [
						{
							"internalType": "uint256",
							"name": "_a",
							"type": "uint256"
						},
						{
							"internalType": "uint256",
							"name": "_b",
							"type": "uint256"
						}
					],
					"name": "adder",
					"outputs": [
						{
							"internalType": "uint256",
							"name": "sum",
							"type": "uint256"
						},
						{
							"internalType": "bool",
							"name": "error",
							"type": "bool"
						}
					],
					"stateMutability": "pure",
					"type": "function"
				},
				{
					"inputs": [
						{
							"internalType": "uint256",
							"name": "_a",
							"type": "uint256"
						},
						{
							"internalType": "uint256",
							"name": "_b",
							"type": "uint256"
						}
					],
					"name": "subtractor",
					"outputs": [
						{
							"internalType": "uint256",
							"name": "difference",
							"type": "uint256"
						},
						{
							"internalType": "bool",
							"name": "error",
							"type": "bool"
						}
					],
					"stateMutability": "pure",
					"type": "function"
				}
			],
			"devdoc": {
				"kind": "dev",
				"methods": {},
				"version": 1
			},
			"evm": {
				"assembly": "    /* \"BasicMath.sol\":66:550  contract BasicMath {... */\n  mstore(0x40, 0x80)\n  callvalue\n  dup1\n  iszero\n  tag_1\n  jumpi\n  0x00\n  dup1\n  revert\ntag_1:\n  pop\n  dataSize(sub_0)\n  dup1\n  dataOffset(sub_0)\n  0x00\n  codecopy\n  0x00\n  return\nstop\n\nsub_0: assembly {\n        /* \"BasicMath.sol\":66:550  contract BasicMath {... */\n      mstore(0x40, 0x80)\n      callvalue\n      dup1\n      iszero\n      tag_1\n      jumpi\n      0x00\n      dup1\n      revert\n    tag_1:\n      pop\n      jumpi(tag_2, lt(calldatasize, 0x04))\n      shr(0xe0, calldataload(0x00))\n      dup1\n      0x06b034e9\n      eq\n      tag_3\n      jumpi\n      dup1\n      0x5270312a\n      eq\n      tag_4\n      jumpi\n    tag_2:\n      0x00\n      dup1\n      revert\n        /* \"BasicMath.sol\":137:335  function adder(uint256 _a, uint256 _b) external pure returns (uint256 sum, bool error) {... */\n    tag_3:\n      tag_5\n      0x04\n      dup1\n      calldatasize\n      sub\n      dup2\n      add\n      swap1\n      tag_6\n      swap2\n      swap1\n      tag_7\n      jump\t// in\n    tag_6:\n      tag_8\n      jump\t// in\n    tag_5:\n      mload(0x40)\n      tag_9\n      swap3\n      swap2\n      swap1\n      tag_10\n      jump\t// in\n    tag_9:\n      mload(0x40)\n      dup1\n      swap2\n      sub\n      swap1\n      return\n        /* \"BasicMath.sol\":341:543  function subtractor(uint256 _a, uint256 _b) external pure returns (uint256 difference, bool error) {... */\n    tag_4:\n      tag_11\n      0x04\n      dup1\n      calldatasize\n      sub\n      dup2\n      add\n      swap1\n      tag_12\n      swap2\n      swap1\n      tag_7\n      jump\t// in\n    tag_12:\n      tag_13\n      jump\t// in\n    tag_11:\n      mload(0x40)\n      tag_14\n      swap3\n      swap2\n      swap1\n      tag_10\n      jump\t// in\n    tag_14:\n      mload(0x40)\n      dup1\n      swap2\n      sub\n      swap1\n      return\n        /* \"BasicMath.sol\":137:335  function adder(uint256 _a, uint256 _b) external pure returns (uint256 sum, bool error) {... */\n    tag_8:\n        /* \"BasicMath.sol\":199:210  uint256 sum */\n      0x00\n        /* \"BasicMath.sol\":212:222  bool error */\n      dup1\n        /* \"BasicMath.sol\":249:251  _b */\n      dup3\n        /* \"BasicMath.sol\":114:131  type(uint256).max */\n      0xffffffffffffffffffffffffffffffffffffffffffffffffffffffffffffffff\n        /* \"BasicMath.sol\":243:251  MAX - _b */\n      tag_16\n      swap2\n      swap1\n      tag_17\n      jump\t// in\n    tag_16:\n        /* \"BasicMath.sol\":238:240  _a */\n      dup5\n        /* \"BasicMath.sol\":238:251  _a > MAX - _b */\n      gt\n        /* \"BasicMath.sol\":234:294  if (_a > MAX - _b) {... */\n      iszero\n      tag_18\n      jumpi\n        /* \"BasicMath.sol\":275:276  0 */\n      0x00\n        /* \"BasicMath.sol\":278:282  true */\n      0x01\n        /* \"BasicMath.sol\":267:283  return (0, true) */\n      swap2\n      pop\n      swap2\n      pop\n      jump(tag_15)\n        /* \"BasicMath.sol\":234:294  if (_a > MAX - _b) {... */\n    tag_18:\n        /* \"BasicMath.sol\":317:319  _b */\n      dup3\n        /* \"BasicMath.sol\":312:314  _a */\n      dup5\n        /* \"BasicMath.sol\":312:319  _a + _b */\n      tag_19\n      swap2\n      swap1\n      tag_20\n      jump\t// in\n    tag_19:\n        /* \"BasicMath.sol\":321:326  false */\n      0x00\n        /* \"BasicMath.sol\":304:327  return (_a + _b, false) */\n      swap2\n      pop\n      swap2\n      pop\n        /* \"BasicMath.sol\":137:335  function adder(uint256 _a, uint256 _b) external pure returns (uint256 sum, bool error) {... */\n    tag_15:\n      swap3\n      pop\n      swap3\n      swap1\n      pop\n      jump\t// out\n        /* \"BasicMath.sol\":341:543  function subtractor(uint256 _a, uint256 _b) external pure returns (uint256 difference, bool error) {... */\n    tag_13:\n        /* \"BasicMath.sol\":408:426  uint256 difference */\n      0x00\n        /* \"BasicMath.sol\":428:438  bool error */\n      dup1\n        /* \"BasicMath.sol\":459:461  _a */\n      dup4\n        /* \"BasicMath.sol\":454:456  _b */\n      dup4\n        /* \"BasicMath.sol\":454:461  _b > _a */\n      gt\n        /* \"BasicMath.sol\":450:504  if (_b > _a) {... */\n      iszero\n      tag_22\n      jumpi\n        /* \"BasicMath.sol\":485:486  0 */\n      0x00\n        /* \"BasicMath.sol\":488:492  true */\n      0x01\n        /* \"BasicMath.sol\":477:493  return (0, true) */\n      swap2\n      pop\n      swap2\n      pop\n      jump(tag_21)\n        /* \"BasicMath.sol\":450:504  if (_b > _a) {... */\n    tag_22:\n        /* \"BasicMath.sol\":526:528  _b */\n      dup3\n        /* \"BasicMath.sol\":521:523  _a */\n      dup5\n        /* \"BasicMath.sol\":521:528  _a - _b */\n      tag_23\n      swap2\n      swap1\n      tag_17\n      jump\t// in\n    tag_23:\n        /* \"BasicMath.sol\":530:535  false */\n      0x00\n        /* \"BasicMath.sol\":513:536  return (_a - _b, false) */\n      swap2\n      pop\n      swap2\n      pop\n        /* \"BasicMath.sol\":341:543  function subtractor(uint256 _a, uint256 _b) external pure returns (uint256 difference, bool error) {... */\n    tag_21:\n      swap3\n      pop\n      swap3\n      swap1\n      pop\n      jump\t// out\n        /* \"#utility.yul\":88:205   */\n    tag_25:\n        /* \"#utility.yul\":197:198   */\n      0x00\n        /* \"#utility.yul\":194:195   */\n      dup1\n        /* \"#utility.yul\":187:199   */\n      revert\n        /* \"#utility.yul\":334:411   */\n    tag_27:\n        /* \"#utility.yul\":371:378   */\n      0x00\n        /* \"#utility.yul\":400:405   */\n      dup2\n        /* \"#utility.yul\":389:405   */\n      swap1\n      pop\n        /* \"#utility.yul\":334:411   */\n      swap2\n      swap1\n      pop\n      jump\t// out\n        /* \"#utility.yul\":417:539   */\n    tag_28:\n        /* \"#utility.yul\":490:514   */\n      tag_40\n        /* \"#utility.yul\":508:513   */\n      dup2\n        /* \"#utility.yul\":490:514   */\n      tag_27\n      jump\t// in\n    tag_40:\n        /* \"#utility.yul\":483:488   */\n      dup2\n        /* \"#utility.yul\":480:515   */\n      eq\n        /* \"#utility.yul\":470:533   */\n      tag_41\n      jumpi\n        /* \"#utility.yul\":529:530   */\n      0x00\n        /* \"#utility.yul\":526:527   */\n      dup1\n        /* \"#utility.yul\":519:531   */\n      revert\n        /* \"#utility.yul\":470:533   */\n    tag_41:\n        /* \"#utility.yul\":417:539   */\n      pop\n      jump\t// out\n        /* \"#utility.yul\":545:684   */\n    tag_29:\n        /* \"#utility.yul\":591:596   */\n      0x00\n        /* \"#utility.yul\":629:635   */\n      dup2\n        /* \"#utility.yul\":616:636   */\n      calldataload\n        /* \"#utility.yul\":607:636   */\n      swap1\n      pop\n        /* \"#utility.yul\":645:678   */\n      tag_43\n        /* \"#utility.yul\":672:677   */\n      dup2\n        /* \"#utility.yul\":645:678   */\n      tag_28\n      jump\t// in\n    tag_43:\n        /* \"#utility.yul\":545:684   */\n      swap3\n      swap2\n      pop\n      pop\n      jump\t// out\n        /* \"#utility.yul\":690:1164   */\n    tag_7:\n        /* \"#utility.yul\":758:764   */\n      0x00\n        /* \"#utility.yul\":766:772   */\n      dup1\n        /* \"#utility.yul\":815:817   */\n      0x40\n        /* \"#utility.yul\":803:812   */\n      dup4\n        /* \"#utility.yul\":794:801   */\n      dup6\n        /* \"#utility.yul\":790:813   */\n      sub\n        /* \"#utility.yul\":786:818   */\n      slt\n        /* \"#utility.yul\":783:902   */\n      iszero\n      tag_45\n      jumpi\n        /* \"#utility.yul\":821:900   */\n      tag_46\n      tag_25\n      jump\t// in\n    tag_46:\n        /* \"#utility.yul\":783:902   */\n    tag_45:\n        /* \"#utility.yul\":941:942   */\n      0x00\n        /* \"#utility.yul\":966:1019   */\n      tag_47\n        /* \"#utility.yul\":1011:1018   */\n      dup6\n        /* \"#utility.yul\":1002:1008   */\n      dup3\n        /* \"#utility.yul\":991:1000   */\n      dup7\n        /* \"#utility.yul\":987:1009   */\n      add\n        /* \"#utility.yul\":966:1019   */\n      tag_29\n      jump\t// in\n    tag_47:\n        /* \"#utility.yul\":956:1019   */\n      swap3\n      pop\n        /* \"#utility.yul\":912:1029   */\n      pop\n        /* \"#utility.yul\":1068:1070   */\n      0x20\n        /* \"#utility.yul\":1094:1147   */\n      tag_48\n        /* \"#utility.yul\":1139:1146   */\n      dup6\n        /* \"#utility.yul\":1130:1136   */\n      dup3\n        /* \"#utility.yul\":1119:1128   */\n      dup7\n        /* \"#utility.yul\":1115:1137   */\n      add\n        /* \"#utility.yul\":1094:1147   */\n      tag_29\n      jump\t// in\n    tag_48:\n        /* \"#utility.yul\":1084:1147   */\n      swap2\n      pop\n        /* \"#utility.yul\":1039:1157   */\n      pop\n        /* \"#utility.yul\":690:1164   */\n      swap3\n      pop\n      swap3\n      swap1\n      pop\n      jump\t// out\n        /* \"#utility.yul\":1170:1288   */\n    tag_30:\n        /* \"#utility.yul\":1257:1281   */\n      tag_50\n        /* \"#utility.yul\":1275:1280   */\n      dup2\n        /* \"#utility.yul\":1257:1281   */\n      tag_27\n      jump\t// in\n    tag_50:\n        /* \"#utility.yul\":1252:1255   */\n      dup3\n        /* \"#utility.yul\":1245:1282   */\n      mstore\n        /* \"#utility.yul\":1170:1288   */\n      pop\n      pop\n      jump\t// out\n        /* \"#utility.yul\":1294:1384   */\n    tag_31:\n        /* \"#utility.yul\":1328:1335   */\n      0x00\n        /* \"#utility.yul\":1371:1376   */\n      dup2\n        /* \"#utility.yul\":1364:1377   */\n      iszero\n        /* \"#utility.yul\":1357:1378   */\n      iszero\n        /* \"#utility.yul\":1346:1378   */\n      swap1\n      pop\n        /* \"#utility.yul\":1294:1384   */\n      swap2\n      swap1\n      pop\n      jump\t// out\n        /* \"#utility.yul\":1390:1499   */\n    tag_32:\n        /* \"#utility.yul\":1471:1492   */\n      tag_53\n        /* \"#utility.yul\":1486:1491   */\n      dup2\n        /* \"#utility.yul\":1471:1492   */\n      tag_31\n      jump\t// in\n    tag_53:\n        /* \"#utility.yul\":1466:1469   */\n      dup3\n        /* \"#utility.yul\":1459:1493   */\n      mstore\n        /* \"#utility.yul\":1390:1499   */\n      pop\n      pop\n      jump\t// out\n        /* \"#utility.yul\":1505:1825   */\n    tag_10:\n        /* \"#utility.yul\":1620:1624   */\n      0x00\n        /* \"#utility.yul\":1658:1660   */\n      0x40\n        /* \"#utility.yul\":1647:1656   */\n      dup3\n        /* \"#utility.yul\":1643:1661   */\n      add\n        /* \"#utility.yul\":1635:1661   */\n      swap1\n      pop\n        /* \"#utility.yul\":1671:1742   */\n      tag_55\n        /* \"#utility.yul\":1739:1740   */\n      0x00\n        /* \"#utility.yul\":1728:1737   */\n      dup4\n        /* \"#utility.yul\":1724:1741   */\n      add\n        /* \"#utility.yul\":1715:1721   */\n      dup6\n        /* \"#utility.yul\":1671:1742   */\n      tag_30\n      jump\t// in\n    tag_55:\n        /* \"#utility.yul\":1752:1818   */\n      tag_56\n        /* \"#utility.yul\":1814:1816   */\n      0x20\n        /* \"#utility.yul\":1803:1812   */\n      dup4\n        /* \"#utility.yul\":1799:1817   */\n      add\n        /* \"#utility.yul\":1790:1796   */\n      dup5\n        /* \"#utility.yul\":1752:1818   */\n      tag_32\n      jump\t// in\n    tag_56:\n        /* \"#utility.yul\":1505:1825   */\n      swap4\n      swap3\n      pop\n      pop\n      pop\n      jump\t// out\n        /* \"#utility.yul\":1831:2011   */\n    tag_33:\n        /* \"#utility.yul\":1879:1956   */\n      0x4e487b7100000000000000000000000000000000000000000000000000000000\n        /* \"#utility.yul\":1876:1877   */\n      0x00\n        /* \"#utility.yul\":1869:1957   */\n      mstore\n        /* \"#utility.yul\":1976:1980   */\n      0x11\n        /* \"#utility.yul\":1973:1974   */\n      0x04\n        /* \"#utility.yul\":1966:1981   */\n      mstore\n        /* \"#utility.yul\":2000:2004   */\n      0x24\n        /* \"#utility.yul\":1997:1998   */\n      0x00\n        /* \"#utility.yul\":1990:2005   */\n      revert\n        /* \"#utility.yul\":2017:2211   */\n    tag_17:\n        /* \"#utility.yul\":2057:2061   */\n      0x00\n        /* \"#utility.yul\":2077:2097   */\n      tag_59\n        /* \"#utility.yul\":2095:2096   */\n      dup3\n        /* \"#utility.yul\":2077:2097   */\n      tag_27\n      jump\t// in\n    tag_59:\n        /* \"#utility.yul\":2072:2097   */\n      swap2\n      pop\n        /* \"#utility.yul\":2111:2131   */\n      tag_60\n        /* \"#utility.yul\":2129:2130   */\n      dup4\n        /* \"#utility.yul\":2111:2131   */\n      tag_27\n      jump\t// in\n    tag_60:\n        /* \"#utility.yul\":2106:2131   */\n      swap3\n      pop\n        /* \"#utility.yul\":2155:2156   */\n      dup3\n        /* \"#utility.yul\":2152:2153   */\n      dup3\n        /* \"#utility.yul\":2148:2157   */\n      sub\n        /* \"#utility.yul\":2140:2157   */\n      swap1\n      pop\n        /* \"#utility.yul\":2179:2180   */\n      dup2\n        /* \"#utility.yul\":2173:2177   */\n      dup2\n        /* \"#utility.yul\":2170:2181   */\n      gt\n        /* \"#utility.yul\":2167:2204   */\n      iszero\n      tag_61\n      jumpi\n        /* \"#utility.yul\":2184:2202   */\n      tag_62\n      tag_33\n      jump\t// in\n    tag_62:\n        /* \"#utility.yul\":2167:2204   */\n    tag_61:\n        /* \"#utility.yul\":2017:2211   */\n      swap3\n      swap2\n      pop\n      pop\n      jump\t// out\n        /* \"#utility.yul\":2217:2408   */\n    tag_20:\n        /* \"#utility.yul\":2257:2260   */\n      0x00\n        /* \"#utility.yul\":2276:2296   */\n      tag_64\n        /* \"#utility.yul\":2294:2295   */\n      dup3\n        /* \"#utility.yul\":2276:2296   */\n      tag_27\n      jump\t// in\n    tag_64:\n        /* \"#utility.yul\":2271:2296   */\n      swap2\n      pop\n        /* \"#utility.yul\":2310:2330   */\n      tag_65\n        /* \"#utility.yul\":2328:2329   */\n      dup4\n        /* \"#utility.yul\":2310:2330   */\n      tag_27\n      jump\t// in\n    tag_65:\n        /* \"#utility.yul\":2305:2330   */\n      swap3\n      pop\n        /* \"#utility.yul\":2353:2354   */\n      dup3\n        /* \"#utility.yul\":2350:2351   */\n      dup3\n        /* \"#utility.yul\":2346:2355   */\n      add\n        /* \"#utility.yul\":2339:2355   */\n      swap1\n      pop\n        /* \"#utility.yul\":2374:2377   */\n      dup1\n        /* \"#utility.yul\":2371:2372   */\n      dup3\n        /* \"#utility.yul\":2368:2378   */\n      gt\n        /* \"#utility.yul\":2365:2401   */\n      iszero\n      tag_66\n      jumpi\n        /* \"#utility.yul\":2381:2399   */\n      tag_67\n      tag_33\n      jump\t// in\n    tag_67:\n        /* \"#utility.yul\":2365:2401   */\n    tag_66:\n        /* \"#utility.yul\":2217:2408   */\n      swap3\n      swap2\n      pop\n      pop\n      jump\t// out\n\n    auxdata: 0xa26469706673582212203a5d387245ed124a8ac193b0c82855dbcba0ff0714107676037b7c1ade4671fd64736f6c634300081a0033\n}\n",
				"bytecode": {
					"linkReferences": {},
					"object": "6080604052348015600e575f80fd5b506102b18061001c5f395ff3fe608060405234801561000f575f80fd5b5060043610610034575f3560e01c806306b034e9146100385780635270312a14610069575b5f80fd5b610052600480360381019061004d919061015a565b61009a565b6040516100609291906101c1565b60405180910390f35b610083600480360381019061007e919061015a565b6100f4565b6040516100919291906101c1565b60405180910390f35b5f80827fffffffffffffffffffffffffffffffffffffffffffffffffffffffffffffffff6100c89190610215565b8411156100db575f6001915091506100ed565b82846100e79190610248565b5f915091505b9250929050565b5f808383111561010a575f60019150915061011c565b82846101169190610215565b5f915091505b9250929050565b5f80fd5b5f819050919050565b61013981610127565b8114610143575f80fd5b50565b5f8135905061015481610130565b92915050565b5f80604083850312156101705761016f610123565b5b5f61017d85828601610146565b925050602061018e85828601610146565b9150509250929050565b6101a181610127565b82525050565b5f8115159050919050565b6101bb816101a7565b82525050565b5f6040820190506101d45f830185610198565b6101e160208301846101b2565b9392505050565b7f4e487b71000000000000000000000000000000000000000000000000000000005f52601160045260245ffd5b5f61021f82610127565b915061022a83610127565b9250828203905081811115610242576102416101e8565b5b92915050565b5f61025282610127565b915061025d83610127565b9250828201905080821115610275576102746101e8565b5b9291505056fea26469706673582212203a5d387245ed124a8ac193b0c82855dbcba0ff0714107676037b7c1ade4671fd64736f6c634300081a0033",
					"opcodes": "PUSH1 0x80 PUSH1 0x40 MSTORE CALLVALUE DUP1 ISZERO PUSH1 0xE JUMPI PUSH0 DUP1 REVERT JUMPDEST POP PUSH2 0x2B1 DUP1 PUSH2 0x1C PUSH0 CODECOPY PUSH0 RETURN INVALID PUSH1 0x80 PUSH1 0x40 MSTORE CALLVALUE DUP1 ISZERO PUSH2 0xF JUMPI PUSH0 DUP1 REVERT JUMPDEST POP PUSH1 0x4 CALLDATASIZE LT PUSH2 0x34 JUMPI PUSH0 CALLDATALOAD PUSH1 0xE0 SHR DUP1 PUSH4 0x6B034E9 EQ PUSH2 0x38 JUMPI DUP1 PUSH4 0x5270312A EQ PUSH2 0x69 JUMPI JUMPDEST PUSH0 DUP1 REVERT JUMPDEST PUSH2 0x52 PUSH1 0x4 DUP1 CALLDATASIZE SUB DUP2 ADD SWAP1 PUSH2 0x4D SWAP2 SWAP1 PUSH2 0x15A JUMP JUMPDEST PUSH2 0x9A JUMP JUMPDEST PUSH1 0x40 MLOAD PUSH2 0x60 SWAP3 SWAP2 SWAP1 PUSH2 0x1C1 JUMP JUMPDEST PUSH1 0x40 MLOAD DUP1 SWAP2 SUB SWAP1 RETURN JUMPDEST PUSH2 0x83 PUSH1 0x4 DUP1 CALLDATASIZE SUB DUP2 ADD SWAP1 PUSH2 0x7E SWAP2 SWAP1 PUSH2 0x15A JUMP JUMPDEST PUSH2 0xF4 JUMP JUMPDEST PUSH1 0x40 MLOAD PUSH2 0x91 SWAP3 SWAP2 SWAP1 PUSH2 0x1C1 JUMP JUMPDEST PUSH1 0x40 MLOAD DUP1 SWAP2 SUB SWAP1 RETURN JUMPDEST PUSH0 DUP1 DUP3 PUSH32 0xFFFFFFFFFFFFFFFFFFFFFFFFFFFFFFFFFFFFFFFFFFFFFFFFFFFFFFFFFFFFFFFF PUSH2 0xC8 SWAP2 SWAP1 PUSH2 0x215 JUMP JUMPDEST DUP5 GT ISZERO PUSH2 0xDB JUMPI PUSH0 PUSH1 0x1 SWAP2 POP SWAP2 POP PUSH2 0xED JUMP JUMPDEST DUP3 DUP5 PUSH2 0xE7 SWAP2 SWAP1 PUSH2 0x248 JUMP JUMPDEST PUSH0 SWAP2 POP SWAP2 POP JUMPDEST SWAP3 POP SWAP3 SWAP1 POP JUMP JUMPDEST PUSH0 DUP1 DUP4 DUP4 GT ISZERO PUSH2 0x10A JUMPI PUSH0 PUSH1 0x1 SWAP2 POP SWAP2 POP PUSH2 0x11C JUMP JUMPDEST DUP3 DUP5 PUSH2 0x116 SWAP2 SWAP1 PUSH2 0x215 JUMP JUMPDEST PUSH0 SWAP2 POP SWAP2 POP JUMPDEST SWAP3 POP SWAP3 SWAP1 POP JUMP JUMPDEST PUSH0 DUP1 REVERT JUMPDEST PUSH0 DUP2 SWAP1 POP SWAP2 SWAP1 POP JUMP JUMPDEST PUSH2 0x139 DUP2 PUSH2 0x127 JUMP JUMPDEST DUP2 EQ PUSH2 0x143 JUMPI PUSH0 DUP1 REVERT JUMPDEST POP JUMP JUMPDEST PUSH0 DUP2 CALLDATALOAD SWAP1 POP PUSH2 0x154 DUP2 PUSH2 0x130 JUMP JUMPDEST SWAP3 SWAP2 POP POP JUMP JUMPDEST PUSH0 DUP1 PUSH1 0x40 DUP4 DUP6 SUB SLT ISZERO PUSH2 0x170 JUMPI PUSH2 0x16F PUSH2 0x123 JUMP JUMPDEST JUMPDEST PUSH0 PUSH2 0x17D DUP6 DUP3 DUP7 ADD PUSH2 0x146 JUMP JUMPDEST SWAP3 POP POP PUSH1 0x20 PUSH2 0x18E DUP6 DUP3 DUP7 ADD PUSH2 0x146 JUMP JUMPDEST SWAP2 POP POP SWAP3 POP SWAP3 SWAP1 POP JUMP JUMPDEST PUSH2 0x1A1 DUP2 PUSH2 0x127 JUMP JUMPDEST DUP3 MSTORE POP POP JUMP JUMPDEST PUSH0 DUP2 ISZERO ISZERO SWAP1 POP SWAP2 SWAP1 POP JUMP JUMPDEST PUSH2 0x1BB DUP2 PUSH2 0x1A7 JUMP JUMPDEST DUP3 MSTORE POP POP JUMP JUMPDEST PUSH0 PUSH1 0x40 DUP3 ADD SWAP1 POP PUSH2 0x1D4 PUSH0 DUP4 ADD DUP6 PUSH2 0x198 JUMP JUMPDEST PUSH2 0x1E1 PUSH1 0x20 DUP4 ADD DUP5 PUSH2 0x1B2 JUMP JUMPDEST SWAP4 SWAP3 POP POP POP JUMP JUMPDEST PUSH32 0x4E487B7100000000000000000000000000000000000000000000000000000000 PUSH0 MSTORE PUSH1 0x11 PUSH1 0x4 MSTORE PUSH1 0x24 PUSH0 REVERT JUMPDEST PUSH0 PUSH2 0x21F DUP3 PUSH2 0x127 JUMP JUMPDEST SWAP2 POP PUSH2 0x22A DUP4 PUSH2 0x127 JUMP JUMPDEST SWAP3 POP DUP3 DUP3 SUB SWAP1 POP DUP2 DUP2 GT ISZERO PUSH2 0x242 JUMPI PUSH2 0x241 PUSH2 0x1E8 JUMP JUMPDEST JUMPDEST SWAP3 SWAP2 POP POP JUMP JUMPDEST PUSH0 PUSH2 0x252 DUP3 PUSH2 0x127 JUMP JUMPDEST SWAP2 POP PUSH2 0x25D DUP4 PUSH2 0x127 JUMP JUMPDEST SWAP3 POP DUP3 DUP3 ADD SWAP1 POP DUP1 DUP3 GT ISZERO PUSH2 0x275 JUMPI PUSH2 0x274 PUSH2 0x1E8 JUMP JUMPDEST JUMPDEST SWAP3 SWAP2 POP POP JUMP INVALID LOG2 PUSH5 0x6970667358 0x22 SLT KECCAK256 GASPRICE TSTORE CODESIZE PUSH19 0x45ED124A8AC193B0C82855DBCBA0FF07141076 PUSH23 0x37B7C1ADE4671FD64736F6C634300081A003300000000 "
				},
				"gasEstimates": {
					"creation": {
						"codeDepositCost": "137800",
						"executionCost": "181",
						"totalCost": "137981"
					},
					"external": {
						"adder(uint256,uint256)": "infinite",
						"subtractor(uint256,uint256)": "infinite"
					}
				},
				"methodIdentifiers": {
					"adder(uint256,uint256)": "06b034e9",
					"subtractor(uint256,uint256)": "5270312a"
				}
			},
			"storageLayout": {
				"storage": [],
				"types": null
			},
			"userdoc": {
				"kind": "user",
				"methods": {},
				"version": 1
			}
		}
	}
}