{
	"11_MinimalTokens.sol": {
		"UnburnableToken": {
			"abi": [
				{
					"inputs": [],
					"stateMutability": "nonpayable",
					"type": "constructor"
				},
				{
					"inputs": [],
					"name": "AllTokensClaimed",
					"type": "error"
				},
				{
					"inputs": [],
					"name": "TokensClaimed",
					"type": "error"
				},
				{
					"inputs": [
						{
							"internalType": "address",
							"name": "_to",
							"type": "address"
						}
					],
					"name": "UnsafeTransfer",
					"type": "error"
				},
				{
					"inputs": [
						{
							"internalType": "address",
							"name": "",
							"type": "address"
						}
					],
					"name": "balances",
					"outputs": [
						{
							"internalType": "uint256",
							"name": "",
							"type": "uint256"
						}
					],
					"stateMutability": "view",
					"type": "function"
				},
				{
					"inputs": [],
					"name": "claim",
					"outputs": [],
					"stateMutability": "nonpayable",
					"type": "function"
				},
				{
					"inputs": [
						{
							"internalType": "address",
							"name": "_to",
							"type": "address"
						},
						{
							"internalType": "uint256",
							"name": "_amount",
							"type": "uint256"
						}
					],
					"name": "safeTransfer",
					"outputs": [],
					"stateMutability": "nonpayable",
					"type": "function"
				},
				{
					"inputs": [],
					"name": "totalClaimed",
					"outputs": [
						{
							"internalType": "uint256",
							"name": "",
							"type": "uint256"
						}
					],
					"stateMutability": "view",
					"type": "function"
				},
				{
					"inputs": [],
					"name": "totalSupply",
					"outputs": [
						{
							"internalType": "uint256",
							"name": "",
							"type": "uint256"
						}
					],
					"stateMutability": "view",
					"type": "function"
				}
			],
			"devdoc": {
				"kind": "dev",
				"methods": {},
				"version": 1
			},
			"evm": {
				"assembly": "    /* \"11_MinimalTokens.sol\":66:1025  contract UnburnableToken {... */\n  mstore(0x40, 0x80)\n    /* \"11_MinimalTokens.sol\":97:126  string private salt = \"value\" */\n  mload(0x40)\n  dup1\n  0x40\n  add\n  0x40\n  mstore\n  dup1\n  0x05\n  dup2\n  mstore\n  0x20\n  add\n  0x76616c7565000000000000000000000000000000000000000000000000000000\n  dup2\n  mstore\n  pop\n  0x00\n  swap1\n  dup2\n  tag_1\n  swap2\n  swap1\n  tag_2\n  jump\t// in\ntag_1:\n  pop\n    /* \"11_MinimalTokens.sol\":398:453  constructor() {... */\n  callvalue\n  dup1\n  iszero\n  tag_3\n  jumpi\n  0x00\n  dup1\n  revert\ntag_3:\n  pop\n    /* \"11_MinimalTokens.sol\":436:445  100000000 */\n  0x05f5e100\n    /* \"11_MinimalTokens.sol\":422:433  totalSupply */\n  0x02\n    /* \"11_MinimalTokens.sol\":422:445  totalSupply = 100000000 */\n  dup2\n  swap1\n  sstore\n  pop\n    /* \"11_MinimalTokens.sol\":66:1025  contract UnburnableToken {... */\n  jump(tag_6)\n    /* \"#utility.yul\":7:106   */\ntag_7:\n    /* \"#utility.yul\":59:65   */\n  0x00\n    /* \"#utility.yul\":93:98   */\n  dup2\n    /* \"#utility.yul\":87:99   */\n  mload\n    /* \"#utility.yul\":77:99   */\n  swap1\n  pop\n    /* \"#utility.yul\":7:106   */\n  swap2\n  swap1\n  pop\n  jump\t// out\n    /* \"#utility.yul\":112:292   */\ntag_8:\n    /* \"#utility.yul\":160:237   */\n  0x4e487b7100000000000000000000000000000000000000000000000000000000\n    /* \"#utility.yul\":157:158   */\n  0x00\n    /* \"#utility.yul\":150:238   */\n  mstore\n    /* \"#utility.yul\":257:261   */\n  0x41\n    /* \"#utility.yul\":254:255   */\n  0x04\n    /* \"#utility.yul\":247:262   */\n  mstore\n    /* \"#utility.yul\":281:285   */\n  0x24\n    /* \"#utility.yul\":278:279   */\n  0x00\n    /* \"#utility.yul\":271:286   */\n  revert\n    /* \"#utility.yul\":298:478   */\ntag_9:\n    /* \"#utility.yul\":346:423   */\n  0x4e487b7100000000000000000000000000000000000000000000000000000000\n    /* \"#utility.yul\":343:344   */\n  0x00\n    /* \"#utility.yul\":336:424   */\n  mstore\n    /* \"#utility.yul\":443:447   */\n  0x22\n    /* \"#utility.yul\":440:441   */\n  0x04\n    /* \"#utility.yul\":433:448   */\n  mstore\n    /* \"#utility.yul\":467:471   */\n  0x24\n    /* \"#utility.yul\":464:465   */\n  0x00\n    /* \"#utility.yul\":457:472   */\n  revert\n    /* \"#utility.yul\":484:804   */\ntag_10:\n    /* \"#utility.yul\":528:534   */\n  0x00\n    /* \"#utility.yul\":565:566   */\n  0x02\n    /* \"#utility.yul\":559:563   */\n  dup3\n    /* \"#utility.yul\":555:567   */\n  div\n    /* \"#utility.yul\":545:567   */\n  swap1\n  pop\n    /* \"#utility.yul\":612:613   */\n  0x01\n    /* \"#utility.yul\":606:610   */\n  dup3\n    /* \"#utility.yul\":602:614   */\n  and\n    /* \"#utility.yul\":633:651   */\n  dup1\n    /* \"#utility.yul\":623:704   */\n  tag_32\n  jumpi\n    /* \"#utility.yul\":689:693   */\n  0x7f\n    /* \"#utility.yul\":681:687   */\n  dup3\n    /* \"#utility.yul\":677:694   */\n  and\n    /* \"#utility.yul\":667:694   */\n  swap2\n  pop\n    /* \"#utility.yul\":623:704   */\ntag_32:\n    /* \"#utility.yul\":751:753   */\n  0x20\n    /* \"#utility.yul\":743:749   */\n  dup3\n    /* \"#utility.yul\":740:754   */\n  lt\n    /* \"#utility.yul\":720:738   */\n  dup2\n    /* \"#utility.yul\":717:755   */\n  sub\n    /* \"#utility.yul\":714:798   */\n  tag_33\n  jumpi\n    /* \"#utility.yul\":770:788   */\n  tag_34\n  tag_9\n  jump\t// in\ntag_34:\n    /* \"#utility.yul\":714:798   */\ntag_33:\n    /* \"#utility.yul\":535:804   */\n  pop\n    /* \"#utility.yul\":484:804   */\n  swap2\n  swap1\n  pop\n  jump\t// out\n    /* \"#utility.yul\":810:951   */\ntag_11:\n    /* \"#utility.yul\":859:863   */\n  0x00\n    /* \"#utility.yul\":882:885   */\n  dup2\n    /* \"#utility.yul\":874:885   */\n  swap1\n  pop\n    /* \"#utility.yul\":905:908   */\n  dup2\n    /* \"#utility.yul\":902:903   */\n  0x00\n    /* \"#utility.yul\":895:909   */\n  mstore\n    /* \"#utility.yul\":939:943   */\n  0x20\n    /* \"#utility.yul\":936:937   */\n  0x00\n    /* \"#utility.yul\":926:944   */\n  keccak256\n    /* \"#utility.yul\":918:944   */\n  swap1\n  pop\n    /* \"#utility.yul\":810:951   */\n  swap2\n  swap1\n  pop\n  jump\t// out\n    /* \"#utility.yul\":957:1050   */\ntag_12:\n    /* \"#utility.yul\":994:1000   */\n  0x00\n    /* \"#utility.yul\":1041:1043   */\n  0x20\n    /* \"#utility.yul\":1036:1038   */\n  0x1f\n    /* \"#utility.yul\":1029:1034   */\n  dup4\n    /* \"#utility.yul\":1025:1039   */\n  add\n    /* \"#utility.yul\":1021:1044   */\n  div\n    /* \"#utility.yul\":1011:1044   */\n  swap1\n  pop\n    /* \"#utility.yul\":957:1050   */\n  swap2\n  swap1\n  pop\n  jump\t// out\n    /* \"#utility.yul\":1056:1163   */\ntag_13:\n    /* \"#utility.yul\":1100:1108   */\n  0x00\n    /* \"#utility.yul\":1150:1155   */\n  dup3\n    /* \"#utility.yul\":1144:1148   */\n  dup3\n    /* \"#utility.yul\":1140:1156   */\n  shl\n    /* \"#utility.yul\":1119:1156   */\n  swap1\n  pop\n    /* \"#utility.yul\":1056:1163   */\n  swap3\n  swap2\n  pop\n  pop\n  jump\t// out\n    /* \"#utility.yul\":1169:1562   */\ntag_14:\n    /* \"#utility.yul\":1238:1244   */\n  0x00\n    /* \"#utility.yul\":1288:1289   */\n  0x08\n    /* \"#utility.yul\":1276:1286   */\n  dup4\n    /* \"#utility.yul\":1272:1290   */\n  mul\n    /* \"#utility.yul\":1311:1408   */\n  tag_39\n    /* \"#utility.yul\":1341:1407   */\n  0xffffffffffffffffffffffffffffffffffffffffffffffffffffffffffffffff\n    /* \"#utility.yul\":1330:1339   */\n  dup3\n    /* \"#utility.yul\":1311:1408   */\n  tag_13\n  jump\t// in\ntag_39:\n    /* \"#utility.yul\":1429:1468   */\n  tag_40\n    /* \"#utility.yul\":1459:1467   */\n  dup7\n    /* \"#utility.yul\":1448:1457   */\n  dup4\n    /* \"#utility.yul\":1429:1468   */\n  tag_13\n  jump\t// in\ntag_40:\n    /* \"#utility.yul\":1417:1468   */\n  swap6\n  pop\n    /* \"#utility.yul\":1501:1505   */\n  dup1\n    /* \"#utility.yul\":1497:1506   */\n  not\n    /* \"#utility.yul\":1490:1495   */\n  dup5\n    /* \"#utility.yul\":1486:1507   */\n  and\n    /* \"#utility.yul\":1477:1507   */\n  swap4\n  pop\n    /* \"#utility.yul\":1550:1554   */\n  dup1\n    /* \"#utility.yul\":1540:1548   */\n  dup7\n    /* \"#utility.yul\":1536:1555   */\n  and\n    /* \"#utility.yul\":1529:1534   */\n  dup5\n    /* \"#utility.yul\":1526:1556   */\n  or\n    /* \"#utility.yul\":1516:1556   */\n  swap3\n  pop\n    /* \"#utility.yul\":1245:1562   */\n  pop\n  pop\n    /* \"#utility.yul\":1169:1562   */\n  swap4\n  swap3\n  pop\n  pop\n  pop\n  jump\t// out\n    /* \"#utility.yul\":1568:1645   */\ntag_15:\n    /* \"#utility.yul\":1605:1612   */\n  0x00\n    /* \"#utility.yul\":1634:1639   */\n  dup2\n    /* \"#utility.yul\":1623:1639   */\n  swap1\n  pop\n    /* \"#utility.yul\":1568:1645   */\n  swap2\n  swap1\n  pop\n  jump\t// out\n    /* \"#utility.yul\":1651:1711   */\ntag_16:\n    /* \"#utility.yul\":1679:1682   */\n  0x00\n    /* \"#utility.yul\":1700:1705   */\n  dup2\n    /* \"#utility.yul\":1693:1705   */\n  swap1\n  pop\n    /* \"#utility.yul\":1651:1711   */\n  swap2\n  swap1\n  pop\n  jump\t// out\n    /* \"#utility.yul\":1717:1859   */\ntag_17:\n    /* \"#utility.yul\":1767:1776   */\n  0x00\n    /* \"#utility.yul\":1800:1853   */\n  tag_44\n    /* \"#utility.yul\":1818:1852   */\n  tag_45\n    /* \"#utility.yul\":1827:1851   */\n  tag_46\n    /* \"#utility.yul\":1845:1850   */\n  dup5\n    /* \"#utility.yul\":1827:1851   */\n  tag_15\n  jump\t// in\ntag_46:\n    /* \"#utility.yul\":1818:1852   */\n  tag_16\n  jump\t// in\ntag_45:\n    /* \"#utility.yul\":1800:1853   */\n  tag_15\n  jump\t// in\ntag_44:\n    /* \"#utility.yul\":1787:1853   */\n  swap1\n  pop\n    /* \"#utility.yul\":1717:1859   */\n  swap2\n  swap1\n  pop\n  jump\t// out\n    /* \"#utility.yul\":1865:1940   */\ntag_18:\n    /* \"#utility.yul\":1908:1911   */\n  0x00\n    /* \"#utility.yul\":1929:1934   */\n  dup2\n    /* \"#utility.yul\":1922:1934   */\n  swap1\n  pop\n    /* \"#utility.yul\":1865:1940   */\n  swap2\n  swap1\n  pop\n  jump\t// out\n    /* \"#utility.yul\":1946:2215   */\ntag_19:\n    /* \"#utility.yul\":2056:2095   */\n  tag_49\n    /* \"#utility.yul\":2087:2094   */\n  dup4\n    /* \"#utility.yul\":2056:2095   */\n  tag_17\n  jump\t// in\ntag_49:\n    /* \"#utility.yul\":2117:2208   */\n  tag_50\n    /* \"#utility.yul\":2166:2207   */\n  tag_51\n    /* \"#utility.yul\":2190:2206   */\n  dup3\n    /* \"#utility.yul\":2166:2207   */\n  tag_18\n  jump\t// in\ntag_51:\n    /* \"#utility.yul\":2158:2164   */\n  dup5\n    /* \"#utility.yul\":2151:2155   */\n  dup5\n    /* \"#utility.yul\":2145:2156   */\n  sload\n    /* \"#utility.yul\":2117:2208   */\n  tag_14\n  jump\t// in\ntag_50:\n    /* \"#utility.yul\":2111:2115   */\n  dup3\n    /* \"#utility.yul\":2104:2209   */\n  sstore\n    /* \"#utility.yul\":2022:2215   */\n  pop\n    /* \"#utility.yul\":1946:2215   */\n  pop\n  pop\n  pop\n  jump\t// out\n    /* \"#utility.yul\":2221:2294   */\ntag_20:\n    /* \"#utility.yul\":2266:2269   */\n  0x00\n    /* \"#utility.yul\":2221:2294   */\n  swap1\n  jump\t// out\n    /* \"#utility.yul\":2300:2489   */\ntag_21:\n    /* \"#utility.yul\":2377:2409   */\n  tag_54\n  tag_20\n  jump\t// in\ntag_54:\n    /* \"#utility.yul\":2418:2483   */\n  tag_55\n    /* \"#utility.yul\":2476:2482   */\n  dup2\n    /* \"#utility.yul\":2468:2474   */\n  dup5\n    /* \"#utility.yul\":2462:2466   */\n  dup5\n    /* \"#utility.yul\":2418:2483   */\n  tag_19\n  jump\t// in\ntag_55:\n    /* \"#utility.yul\":2353:2489   */\n  pop\n    /* \"#utility.yul\":2300:2489   */\n  pop\n  pop\n  jump\t// out\n    /* \"#utility.yul\":2495:2681   */\ntag_22:\n    /* \"#utility.yul\":2555:2675   */\ntag_57:\n    /* \"#utility.yul\":2572:2575   */\n  dup2\n    /* \"#utility.yul\":2565:2570   */\n  dup2\n    /* \"#utility.yul\":2562:2576   */\n  lt\n    /* \"#utility.yul\":2555:2675   */\n  iszero\n  tag_59\n  jumpi\n    /* \"#utility.yul\":2626:2665   */\n  tag_60\n    /* \"#utility.yul\":2663:2664   */\n  0x00\n    /* \"#utility.yul\":2656:2661   */\n  dup3\n    /* \"#utility.yul\":2626:2665   */\n  tag_21\n  jump\t// in\ntag_60:\n    /* \"#utility.yul\":2599:2600   */\n  0x01\n    /* \"#utility.yul\":2592:2597   */\n  dup2\n    /* \"#utility.yul\":2588:2601   */\n  add\n    /* \"#utility.yul\":2579:2601   */\n  swap1\n  pop\n    /* \"#utility.yul\":2555:2675   */\n  jump(tag_57)\ntag_59:\n    /* \"#utility.yul\":2495:2681   */\n  pop\n  pop\n  jump\t// out\n    /* \"#utility.yul\":2687:3230   */\ntag_23:\n    /* \"#utility.yul\":2788:2790   */\n  0x1f\n    /* \"#utility.yul\":2783:2786   */\n  dup3\n    /* \"#utility.yul\":2780:2791   */\n  gt\n    /* \"#utility.yul\":2777:3223   */\n  iszero\n  tag_62\n  jumpi\n    /* \"#utility.yul\":2822:2860   */\n  tag_63\n    /* \"#utility.yul\":2854:2859   */\n  dup2\n    /* \"#utility.yul\":2822:2860   */\n  tag_11\n  jump\t// in\ntag_63:\n    /* \"#utility.yul\":2906:2935   */\n  tag_64\n    /* \"#utility.yul\":2924:2934   */\n  dup5\n    /* \"#utility.yul\":2906:2935   */\n  tag_12\n  jump\t// in\ntag_64:\n    /* \"#utility.yul\":2896:2904   */\n  dup2\n    /* \"#utility.yul\":2892:2936   */\n  add\n    /* \"#utility.yul\":3089:3091   */\n  0x20\n    /* \"#utility.yul\":3077:3087   */\n  dup6\n    /* \"#utility.yul\":3074:3092   */\n  lt\n    /* \"#utility.yul\":3071:3120   */\n  iszero\n  tag_65\n  jumpi\n    /* \"#utility.yul\":3110:3118   */\n  dup2\n    /* \"#utility.yul\":3095:3118   */\n  swap1\n  pop\n    /* \"#utility.yul\":3071:3120   */\ntag_65:\n    /* \"#utility.yul\":3133:3213   */\n  tag_66\n    /* \"#utility.yul\":3189:3211   */\n  tag_67\n    /* \"#utility.yul\":3207:3210   */\n  dup6\n    /* \"#utility.yul\":3189:3211   */\n  tag_12\n  jump\t// in\ntag_67:\n    /* \"#utility.yul\":3179:3187   */\n  dup4\n    /* \"#utility.yul\":3175:3212   */\n  add\n    /* \"#utility.yul\":3162:3173   */\n  dup3\n    /* \"#utility.yul\":3133:3213   */\n  tag_22\n  jump\t// in\ntag_66:\n    /* \"#utility.yul\":2792:3223   */\n  pop\n  pop\n    /* \"#utility.yul\":2777:3223   */\ntag_62:\n    /* \"#utility.yul\":2687:3230   */\n  pop\n  pop\n  pop\n  jump\t// out\n    /* \"#utility.yul\":3236:3353   */\ntag_24:\n    /* \"#utility.yul\":3290:3298   */\n  0x00\n    /* \"#utility.yul\":3340:3345   */\n  dup3\n    /* \"#utility.yul\":3334:3338   */\n  dup3\n    /* \"#utility.yul\":3330:3346   */\n  shr\n    /* \"#utility.yul\":3309:3346   */\n  swap1\n  pop\n    /* \"#utility.yul\":3236:3353   */\n  swap3\n  swap2\n  pop\n  pop\n  jump\t// out\n    /* \"#utility.yul\":3359:3528   */\ntag_25:\n    /* \"#utility.yul\":3403:3409   */\n  0x00\n    /* \"#utility.yul\":3436:3487   */\n  tag_70\n    /* \"#utility.yul\":3484:3485   */\n  0x00\n    /* \"#utility.yul\":3480:3486   */\n  not\n    /* \"#utility.yul\":3472:3477   */\n  dup5\n    /* \"#utility.yul\":3469:3470   */\n  0x08\n    /* \"#utility.yul\":3465:3478   */\n  mul\n    /* \"#utility.yul\":3436:3487   */\n  tag_24\n  jump\t// in\ntag_70:\n    /* \"#utility.yul\":3432:3488   */\n  not\n    /* \"#utility.yul\":3517:3521   */\n  dup1\n    /* \"#utility.yul\":3511:3515   */\n  dup4\n    /* \"#utility.yul\":3507:3522   */\n  and\n    /* \"#utility.yul\":3497:3522   */\n  swap2\n  pop\n    /* \"#utility.yul\":3410:3528   */\n  pop\n    /* \"#utility.yul\":3359:3528   */\n  swap3\n  swap2\n  pop\n  pop\n  jump\t// out\n    /* \"#utility.yul\":3533:3828   */\ntag_26:\n    /* \"#utility.yul\":3609:3613   */\n  0x00\n    /* \"#utility.yul\":3755:3784   */\n  tag_72\n    /* \"#utility.yul\":3780:3783   */\n  dup4\n    /* \"#utility.yul\":3774:3778   */\n  dup4\n    /* \"#utility.yul\":3755:3784   */\n  tag_25\n  jump\t// in\ntag_72:\n    /* \"#utility.yul\":3747:3784   */\n  swap2\n  pop\n    /* \"#utility.yul\":3817:3820   */\n  dup3\n    /* \"#utility.yul\":3814:3815   */\n  0x02\n    /* \"#utility.yul\":3810:3821   */\n  mul\n    /* \"#utility.yul\":3804:3808   */\n  dup3\n    /* \"#utility.yul\":3801:3822   */\n  or\n    /* \"#utility.yul\":3793:3822   */\n  swap1\n  pop\n    /* \"#utility.yul\":3533:3828   */\n  swap3\n  swap2\n  pop\n  pop\n  jump\t// out\n    /* \"#utility.yul\":3833:5228   */\ntag_2:\n    /* \"#utility.yul\":3950:3987   */\n  tag_74\n    /* \"#utility.yul\":3983:3986   */\n  dup3\n    /* \"#utility.yul\":3950:3987   */\n  tag_7\n  jump\t// in\ntag_74:\n    /* \"#utility.yul\":4052:4070   */\n  0xffffffffffffffff\n    /* \"#utility.yul\":4044:4050   */\n  dup2\n    /* \"#utility.yul\":4041:4071   */\n  gt\n    /* \"#utility.yul\":4038:4094   */\n  iszero\n  tag_75\n  jumpi\n    /* \"#utility.yul\":4074:4092   */\n  tag_76\n  tag_8\n  jump\t// in\ntag_76:\n    /* \"#utility.yul\":4038:4094   */\ntag_75:\n    /* \"#utility.yul\":4118:4156   */\n  tag_77\n    /* \"#utility.yul\":4150:4154   */\n  dup3\n    /* \"#utility.yul\":4144:4155   */\n  sload\n    /* \"#utility.yul\":4118:4156   */\n  tag_10\n  jump\t// in\ntag_77:\n    /* \"#utility.yul\":4203:4270   */\n  tag_78\n    /* \"#utility.yul\":4263:4269   */\n  dup3\n    /* \"#utility.yul\":4255:4261   */\n  dup3\n    /* \"#utility.yul\":4249:4253   */\n  dup6\n    /* \"#utility.yul\":4203:4270   */\n  tag_23\n  jump\t// in\ntag_78:\n    /* \"#utility.yul\":4297:4298   */\n  0x00\n    /* \"#utility.yul\":4321:4325   */\n  0x20\n    /* \"#utility.yul\":4308:4325   */\n  swap1\n  pop\n    /* \"#utility.yul\":4353:4355   */\n  0x1f\n    /* \"#utility.yul\":4345:4351   */\n  dup4\n    /* \"#utility.yul\":4342:4356   */\n  gt\n    /* \"#utility.yul\":4370:4371   */\n  0x01\n    /* \"#utility.yul\":4365:4983   */\n  dup2\n  eq\n  tag_80\n  jumpi\n    /* \"#utility.yul\":5027:5028   */\n  0x00\n    /* \"#utility.yul\":5044:5050   */\n  dup5\n    /* \"#utility.yul\":5041:5118   */\n  iszero\n  tag_81\n  jumpi\n    /* \"#utility.yul\":5093:5102   */\n  dup3\n    /* \"#utility.yul\":5088:5091   */\n  dup8\n    /* \"#utility.yul\":5084:5103   */\n  add\n    /* \"#utility.yul\":5078:5104   */\n  mload\n    /* \"#utility.yul\":5069:5104   */\n  swap1\n  pop\n    /* \"#utility.yul\":5041:5118   */\ntag_81:\n    /* \"#utility.yul\":5144:5211   */\n  tag_82\n    /* \"#utility.yul\":5204:5210   */\n  dup6\n    /* \"#utility.yul\":5197:5202   */\n  dup3\n    /* \"#utility.yul\":5144:5211   */\n  tag_26\n  jump\t// in\ntag_82:\n    /* \"#utility.yul\":5138:5142   */\n  dup7\n    /* \"#utility.yul\":5131:5212   */\n  sstore\n    /* \"#utility.yul\":5000:5222   */\n  pop\n    /* \"#utility.yul\":4335:5222   */\n  jump(tag_79)\n    /* \"#utility.yul\":4365:4983   */\ntag_80:\n    /* \"#utility.yul\":4417:4421   */\n  0x1f\n    /* \"#utility.yul\":4413:4422   */\n  not\n    /* \"#utility.yul\":4405:4411   */\n  dup5\n    /* \"#utility.yul\":4401:4423   */\n  and\n    /* \"#utility.yul\":4451:4488   */\n  tag_83\n    /* \"#utility.yul\":4483:4487   */\n  dup7\n    /* \"#utility.yul\":4451:4488   */\n  tag_11\n  jump\t// in\ntag_83:\n    /* \"#utility.yul\":4510:4511   */\n  0x00\n    /* \"#utility.yul\":4524:4732   */\ntag_84:\n    /* \"#utility.yul\":4538:4545   */\n  dup3\n    /* \"#utility.yul\":4535:4536   */\n  dup2\n    /* \"#utility.yul\":4532:4546   */\n  lt\n    /* \"#utility.yul\":4524:4732   */\n  iszero\n  tag_86\n  jumpi\n    /* \"#utility.yul\":4617:4626   */\n  dup5\n    /* \"#utility.yul\":4612:4615   */\n  dup10\n    /* \"#utility.yul\":4608:4627   */\n  add\n    /* \"#utility.yul\":4602:4628   */\n  mload\n    /* \"#utility.yul\":4594:4600   */\n  dup3\n    /* \"#utility.yul\":4587:4629   */\n  sstore\n    /* \"#utility.yul\":4668:4669   */\n  0x01\n    /* \"#utility.yul\":4660:4666   */\n  dup3\n    /* \"#utility.yul\":4656:4670   */\n  add\n    /* \"#utility.yul\":4646:4670   */\n  swap2\n  pop\n    /* \"#utility.yul\":4715:4717   */\n  0x20\n    /* \"#utility.yul\":4704:4713   */\n  dup6\n    /* \"#utility.yul\":4700:4718   */\n  add\n    /* \"#utility.yul\":4687:4718   */\n  swap5\n  pop\n    /* \"#utility.yul\":4561:4565   */\n  0x20\n    /* \"#utility.yul\":4558:4559   */\n  dup2\n    /* \"#utility.yul\":4554:4566   */\n  add\n    /* \"#utility.yul\":4549:4566   */\n  swap1\n  pop\n    /* \"#utility.yul\":4524:4732   */\n  jump(tag_84)\ntag_86:\n    /* \"#utility.yul\":4760:4766   */\n  dup7\n    /* \"#utility.yul\":4751:4758   */\n  dup4\n    /* \"#utility.yul\":4748:4767   */\n  lt\n    /* \"#utility.yul\":4745:4924   */\n  iszero\n  tag_87\n  jumpi\n    /* \"#utility.yul\":4818:4827   */\n  dup5\n    /* \"#utility.yul\":4813:4816   */\n  dup10\n    /* \"#utility.yul\":4809:4828   */\n  add\n    /* \"#utility.yul\":4803:4829   */\n  mload\n    /* \"#utility.yul\":4861:4909   */\n  tag_88\n    /* \"#utility.yul\":4903:4907   */\n  0x1f\n    /* \"#utility.yul\":4895:4901   */\n  dup10\n    /* \"#utility.yul\":4891:4908   */\n  and\n    /* \"#utility.yul\":4880:4889   */\n  dup3\n    /* \"#utility.yul\":4861:4909   */\n  tag_25\n  jump\t// in\ntag_88:\n    /* \"#utility.yul\":4853:4859   */\n  dup4\n    /* \"#utility.yul\":4846:4910   */\n  sstore\n    /* \"#utility.yul\":4768:4924   */\n  pop\n    /* \"#utility.yul\":4745:4924   */\ntag_87:\n    /* \"#utility.yul\":4970:4971   */\n  0x01\n    /* \"#utility.yul\":4966:4967   */\n  0x02\n    /* \"#utility.yul\":4958:4964   */\n  dup9\n    /* \"#utility.yul\":4954:4968   */\n  mul\n    /* \"#utility.yul\":4950:4972   */\n  add\n    /* \"#utility.yul\":4944:4948   */\n  dup9\n    /* \"#utility.yul\":4937:4973   */\n  sstore\n    /* \"#utility.yul\":4372:4983   */\n  pop\n  pop\n  pop\n    /* \"#utility.yul\":4335:5222   */\ntag_79:\n  pop\n    /* \"#utility.yul\":3925:5228   */\n  pop\n  pop\n  pop\n    /* \"#utility.yul\":3833:5228   */\n  pop\n  pop\n  jump\t// out\n    /* \"11_MinimalTokens.sol\":66:1025  contract UnburnableToken {... */\ntag_6:\n  dataSize(sub_0)\n  dup1\n  dataOffset(sub_0)\n  0x00\n  codecopy\n  0x00\n  return\nstop\n\nsub_0: assembly {\n        /* \"11_MinimalTokens.sol\":66:1025  contract UnburnableToken {... */\n      mstore(0x40, 0x80)\n      callvalue\n      dup1\n      iszero\n      tag_1\n      jumpi\n      0x00\n      dup1\n      revert\n    tag_1:\n      pop\n      jumpi(tag_2, lt(calldatasize, 0x04))\n      shr(0xe0, calldataload(0x00))\n      dup1\n      0x18160ddd\n      eq\n      tag_3\n      jumpi\n      dup1\n      0x27e235e3\n      eq\n      tag_4\n      jumpi\n      dup1\n      0x423f6cef\n      eq\n      tag_5\n      jumpi\n      dup1\n      0x4e71d92d\n      eq\n      tag_6\n      jumpi\n      dup1\n      0xd54ad2a1\n      eq\n      tag_7\n      jumpi\n    tag_2:\n      0x00\n      dup1\n      revert\n        /* \"11_MinimalTokens.sol\":183:209  uint256 public totalSupply */\n    tag_3:\n      tag_8\n      tag_9\n      jump\t// in\n    tag_8:\n      mload(0x40)\n      tag_10\n      swap2\n      swap1\n      tag_11\n      jump\t// in\n    tag_10:\n      mload(0x40)\n      dup1\n      swap2\n      sub\n      swap1\n      return\n        /* \"11_MinimalTokens.sol\":133:176  mapping(address => uint256) public balances */\n    tag_4:\n      tag_12\n      0x04\n      dup1\n      calldatasize\n      sub\n      dup2\n      add\n      swap1\n      tag_13\n      swap2\n      swap1\n      tag_14\n      jump\t// in\n    tag_13:\n      tag_15\n      jump\t// in\n    tag_12:\n      mload(0x40)\n      tag_16\n      swap2\n      swap1\n      tag_11\n      jump\t// in\n    tag_16:\n      mload(0x40)\n      dup1\n      swap2\n      sub\n      swap1\n      return\n        /* \"11_MinimalTokens.sol\":727:1023  function safeTransfer(address _to, uint256 _amount) public {... */\n    tag_5:\n      tag_17\n      0x04\n      dup1\n      calldatasize\n      sub\n      dup2\n      add\n      swap1\n      tag_18\n      swap2\n      swap1\n      tag_19\n      jump\t// in\n    tag_18:\n      tag_20\n      jump\t// in\n    tag_17:\n      stop\n        /* \"11_MinimalTokens.sol\":459:721  function claim() public {... */\n    tag_6:\n      tag_21\n      tag_22\n      jump\t// in\n    tag_21:\n      stop\n        /* \"11_MinimalTokens.sol\":216:243  uint256 public totalClaimed */\n    tag_7:\n      tag_23\n      tag_24\n      jump\t// in\n    tag_23:\n      mload(0x40)\n      tag_25\n      swap2\n      swap1\n      tag_11\n      jump\t// in\n    tag_25:\n      mload(0x40)\n      dup1\n      swap2\n      sub\n      swap1\n      return\n        /* \"11_MinimalTokens.sol\":183:209  uint256 public totalSupply */\n    tag_9:\n      sload(0x02)\n      dup2\n      jump\t// out\n        /* \"11_MinimalTokens.sol\":133:176  mapping(address => uint256) public balances */\n    tag_15:\n      mstore(0x20, 0x01)\n      dup1\n      0x00\n      mstore\n      keccak256(0x00, 0x40)\n      0x00\n      swap2\n      pop\n      swap1\n      pop\n      sload\n      dup2\n      jump\t// out\n        /* \"11_MinimalTokens.sol\":727:1023  function safeTransfer(address _to, uint256 _amount) public {... */\n    tag_20:\n        /* \"11_MinimalTokens.sol\":815:816  0 */\n      0x00\n        /* \"11_MinimalTokens.sol\":800:817  _to == address(0) */\n      0xffffffffffffffffffffffffffffffffffffffff\n      and\n        /* \"11_MinimalTokens.sol\":800:803  _to */\n      dup3\n        /* \"11_MinimalTokens.sol\":800:817  _to == address(0) */\n      0xffffffffffffffffffffffffffffffffffffffff\n      and\n      eq\n        /* \"11_MinimalTokens.sol\":800:837  _to == address(0) || _to.balance == 0 */\n      dup1\n      tag_27\n      jumpi\n      pop\n        /* \"11_MinimalTokens.sol\":836:837  0 */\n      0x00\n        /* \"11_MinimalTokens.sol\":821:824  _to */\n      dup3\n        /* \"11_MinimalTokens.sol\":821:832  _to.balance */\n      0xffffffffffffffffffffffffffffffffffffffff\n      and\n      balance\n        /* \"11_MinimalTokens.sol\":821:837  _to.balance == 0 */\n      eq\n        /* \"11_MinimalTokens.sol\":800:837  _to == address(0) || _to.balance == 0 */\n    tag_27:\n        /* \"11_MinimalTokens.sol\":796:865  if (_to == address(0) || _to.balance == 0) revert UnsafeTransfer(_to) */\n      iszero\n      tag_28\n      jumpi\n        /* \"11_MinimalTokens.sol\":861:864  _to */\n      dup2\n        /* \"11_MinimalTokens.sol\":846:865  UnsafeTransfer(_to) */\n      mload(0x40)\n      0x6a86d24c00000000000000000000000000000000000000000000000000000000\n      dup2\n      mstore\n      0x04\n      add\n      tag_29\n      swap2\n      swap1\n      tag_30\n      jump\t// in\n    tag_29:\n      mload(0x40)\n      dup1\n      swap2\n      sub\n      swap1\n      revert\n        /* \"11_MinimalTokens.sol\":796:865  if (_to == address(0) || _to.balance == 0) revert UnsafeTransfer(_to) */\n    tag_28:\n        /* \"11_MinimalTokens.sol\":908:915  _amount */\n      dup1\n        /* \"11_MinimalTokens.sol\":884:892  balances */\n      0x01\n        /* \"11_MinimalTokens.sol\":884:904  balances[msg.sender] */\n      0x00\n        /* \"11_MinimalTokens.sol\":893:903  msg.sender */\n      caller\n        /* \"11_MinimalTokens.sol\":884:904  balances[msg.sender] */\n      0xffffffffffffffffffffffffffffffffffffffff\n      and\n      0xffffffffffffffffffffffffffffffffffffffff\n      and\n      dup2\n      mstore\n      0x20\n      add\n      swap1\n      dup2\n      mstore\n      0x20\n      add\n      0x00\n      keccak256\n      sload\n        /* \"11_MinimalTokens.sol\":884:915  balances[msg.sender] >= _amount */\n      lt\n      iszero\n        /* \"11_MinimalTokens.sol\":876:940  require(balances[msg.sender] >= _amount, \"Insufficient balance\") */\n      tag_31\n      jumpi\n      mload(0x40)\n      0x08c379a000000000000000000000000000000000000000000000000000000000\n      dup2\n      mstore\n      0x04\n      add\n      tag_32\n      swap1\n      tag_33\n      jump\t// in\n    tag_32:\n      mload(0x40)\n      dup1\n      swap2\n      sub\n      swap1\n      revert\n    tag_31:\n        /* \"11_MinimalTokens.sol\":975:982  _amount */\n      dup1\n        /* \"11_MinimalTokens.sol\":951:959  balances */\n      0x01\n        /* \"11_MinimalTokens.sol\":951:971  balances[msg.sender] */\n      0x00\n        /* \"11_MinimalTokens.sol\":960:970  msg.sender */\n      caller\n        /* \"11_MinimalTokens.sol\":951:971  balances[msg.sender] */\n      0xffffffffffffffffffffffffffffffffffffffff\n      and\n      0xffffffffffffffffffffffffffffffffffffffff\n      and\n      dup2\n      mstore\n      0x20\n      add\n      swap1\n      dup2\n      mstore\n      0x20\n      add\n      0x00\n      keccak256\n      0x00\n        /* \"11_MinimalTokens.sol\":951:982  balances[msg.sender] -= _amount */\n      dup3\n      dup3\n      sload\n      tag_34\n      swap2\n      swap1\n      tag_35\n      jump\t// in\n    tag_34:\n      swap3\n      pop\n      pop\n      dup2\n      swap1\n      sstore\n      pop\n        /* \"11_MinimalTokens.sol\":1009:1016  _amount */\n      dup1\n        /* \"11_MinimalTokens.sol\":992:1000  balances */\n      0x01\n        /* \"11_MinimalTokens.sol\":992:1005  balances[_to] */\n      0x00\n        /* \"11_MinimalTokens.sol\":1001:1004  _to */\n      dup5\n        /* \"11_MinimalTokens.sol\":992:1005  balances[_to] */\n      0xffffffffffffffffffffffffffffffffffffffff\n      and\n      0xffffffffffffffffffffffffffffffffffffffff\n      and\n      dup2\n      mstore\n      0x20\n      add\n      swap1\n      dup2\n      mstore\n      0x20\n      add\n      0x00\n      keccak256\n      0x00\n        /* \"11_MinimalTokens.sol\":992:1016  balances[_to] += _amount */\n      dup3\n      dup3\n      sload\n      tag_36\n      swap2\n      swap1\n      tag_37\n      jump\t// in\n    tag_36:\n      swap3\n      pop\n      pop\n      dup2\n      swap1\n      sstore\n      pop\n        /* \"11_MinimalTokens.sol\":727:1023  function safeTransfer(address _to, uint256 _amount) public {... */\n      pop\n      pop\n      jump\t// out\n        /* \"11_MinimalTokens.sol\":459:721  function claim() public {... */\n    tag_22:\n        /* \"11_MinimalTokens.sol\":513:524  totalSupply */\n      sload(0x02)\n        /* \"11_MinimalTokens.sol\":497:509  totalClaimed */\n      sload(0x03)\n        /* \"11_MinimalTokens.sol\":497:524  totalClaimed >= totalSupply */\n      lt\n        /* \"11_MinimalTokens.sol\":493:551  if (totalClaimed >= totalSupply) revert AllTokensClaimed() */\n      tag_39\n      jumpi\n        /* \"11_MinimalTokens.sol\":533:551  AllTokensClaimed() */\n      mload(0x40)\n      0xcbe2483100000000000000000000000000000000000000000000000000000000\n      dup2\n      mstore\n      0x04\n      add\n      mload(0x40)\n      dup1\n      swap2\n      sub\n      swap1\n      revert\n        /* \"11_MinimalTokens.sol\":493:551  if (totalClaimed >= totalSupply) revert AllTokensClaimed() */\n    tag_39:\n        /* \"11_MinimalTokens.sol\":566:573  claimed */\n      0x04\n        /* \"11_MinimalTokens.sol\":566:585  claimed[msg.sender] */\n      0x00\n        /* \"11_MinimalTokens.sol\":574:584  msg.sender */\n      caller\n        /* \"11_MinimalTokens.sol\":566:585  claimed[msg.sender] */\n      0xffffffffffffffffffffffffffffffffffffffff\n      and\n      0xffffffffffffffffffffffffffffffffffffffff\n      and\n      dup2\n      mstore\n      0x20\n      add\n      swap1\n      dup2\n      mstore\n      0x20\n      add\n      0x00\n      keccak256\n      0x00\n      swap1\n      sload\n      swap1\n      0x0100\n      exp\n      swap1\n      div\n      0xff\n      and\n        /* \"11_MinimalTokens.sol\":562:609  if (claimed[msg.sender]) revert TokensClaimed() */\n      iszero\n      tag_40\n      jumpi\n        /* \"11_MinimalTokens.sol\":594:609  TokensClaimed() */\n      mload(0x40)\n      0x0b1327a600000000000000000000000000000000000000000000000000000000\n      dup2\n      mstore\n      0x04\n      add\n      mload(0x40)\n      dup1\n      swap2\n      sub\n      swap1\n      revert\n        /* \"11_MinimalTokens.sol\":562:609  if (claimed[msg.sender]) revert TokensClaimed() */\n    tag_40:\n        /* \"11_MinimalTokens.sol\":644:648  1000 */\n      0x03e8\n        /* \"11_MinimalTokens.sol\":620:628  balances */\n      0x01\n        /* \"11_MinimalTokens.sol\":620:640  balances[msg.sender] */\n      0x00\n        /* \"11_MinimalTokens.sol\":629:639  msg.sender */\n      caller\n        /* \"11_MinimalTokens.sol\":620:640  balances[msg.sender] */\n      0xffffffffffffffffffffffffffffffffffffffff\n      and\n      0xffffffffffffffffffffffffffffffffffffffff\n      and\n      dup2\n      mstore\n      0x20\n      add\n      swap1\n      dup2\n      mstore\n      0x20\n      add\n      0x00\n      keccak256\n      0x00\n        /* \"11_MinimalTokens.sol\":620:648  balances[msg.sender] += 1000 */\n      dup3\n      dup3\n      sload\n      tag_41\n      swap2\n      swap1\n      tag_37\n      jump\t// in\n    tag_41:\n      swap3\n      pop\n      pop\n      dup2\n      swap1\n      sstore\n      pop\n        /* \"11_MinimalTokens.sol\":674:678  1000 */\n      0x03e8\n        /* \"11_MinimalTokens.sol\":658:670  totalClaimed */\n      0x03\n      0x00\n        /* \"11_MinimalTokens.sol\":658:678  totalClaimed += 1000 */\n      dup3\n      dup3\n      sload\n      tag_42\n      swap2\n      swap1\n      tag_37\n      jump\t// in\n    tag_42:\n      swap3\n      pop\n      pop\n      dup2\n      swap1\n      sstore\n      pop\n        /* \"11_MinimalTokens.sol\":710:714  true */\n      0x01\n        /* \"11_MinimalTokens.sol\":688:695  claimed */\n      0x04\n        /* \"11_MinimalTokens.sol\":688:707  claimed[msg.sender] */\n      0x00\n        /* \"11_MinimalTokens.sol\":696:706  msg.sender */\n      caller\n        /* \"11_MinimalTokens.sol\":688:707  claimed[msg.sender] */\n      0xffffffffffffffffffffffffffffffffffffffff\n      and\n      0xffffffffffffffffffffffffffffffffffffffff\n      and\n      dup2\n      mstore\n      0x20\n      add\n      swap1\n      dup2\n      mstore\n      0x20\n      add\n      0x00\n      keccak256\n      0x00\n        /* \"11_MinimalTokens.sol\":688:714  claimed[msg.sender] = true */\n      0x0100\n      exp\n      dup2\n      sload\n      dup2\n      0xff\n      mul\n      not\n      and\n      swap1\n      dup4\n      iszero\n      iszero\n      mul\n      or\n      swap1\n      sstore\n      pop\n        /* \"11_MinimalTokens.sol\":459:721  function claim() public {... */\n      jump\t// out\n        /* \"11_MinimalTokens.sol\":216:243  uint256 public totalClaimed */\n    tag_24:\n      sload(0x03)\n      dup2\n      jump\t// out\n        /* \"#utility.yul\":7:84   */\n    tag_43:\n        /* \"#utility.yul\":44:51   */\n      0x00\n        /* \"#utility.yul\":73:78   */\n      dup2\n        /* \"#utility.yul\":62:78   */\n      swap1\n      pop\n        /* \"#utility.yul\":7:84   */\n      swap2\n      swap1\n      pop\n      jump\t// out\n        /* \"#utility.yul\":90:208   */\n    tag_44:\n        /* \"#utility.yul\":177:201   */\n      tag_62\n        /* \"#utility.yul\":195:200   */\n      dup2\n        /* \"#utility.yul\":177:201   */\n      tag_43\n      jump\t// in\n    tag_62:\n        /* \"#utility.yul\":172:175   */\n      dup3\n        /* \"#utility.yul\":165:202   */\n      mstore\n        /* \"#utility.yul\":90:208   */\n      pop\n      pop\n      jump\t// out\n        /* \"#utility.yul\":214:436   */\n    tag_11:\n        /* \"#utility.yul\":307:311   */\n      0x00\n        /* \"#utility.yul\":345:347   */\n      0x20\n        /* \"#utility.yul\":334:343   */\n      dup3\n        /* \"#utility.yul\":330:348   */\n      add\n        /* \"#utility.yul\":322:348   */\n      swap1\n      pop\n        /* \"#utility.yul\":358:429   */\n      tag_64\n        /* \"#utility.yul\":426:427   */\n      0x00\n        /* \"#utility.yul\":415:424   */\n      dup4\n        /* \"#utility.yul\":411:428   */\n      add\n        /* \"#utility.yul\":402:408   */\n      dup5\n        /* \"#utility.yul\":358:429   */\n      tag_44\n      jump\t// in\n    tag_64:\n        /* \"#utility.yul\":214:436   */\n      swap3\n      swap2\n      pop\n      pop\n      jump\t// out\n        /* \"#utility.yul\":523:640   */\n    tag_46:\n        /* \"#utility.yul\":632:633   */\n      0x00\n        /* \"#utility.yul\":629:630   */\n      dup1\n        /* \"#utility.yul\":622:634   */\n      revert\n        /* \"#utility.yul\":769:895   */\n    tag_48:\n        /* \"#utility.yul\":806:813   */\n      0x00\n        /* \"#utility.yul\":846:888   */\n      0xffffffffffffffffffffffffffffffffffffffff\n        /* \"#utility.yul\":839:844   */\n      dup3\n        /* \"#utility.yul\":835:889   */\n      and\n        /* \"#utility.yul\":824:889   */\n      swap1\n      pop\n        /* \"#utility.yul\":769:895   */\n      swap2\n      swap1\n      pop\n      jump\t// out\n        /* \"#utility.yul\":901:997   */\n    tag_49:\n        /* \"#utility.yul\":938:945   */\n      0x00\n        /* \"#utility.yul\":967:991   */\n      tag_70\n        /* \"#utility.yul\":985:990   */\n      dup3\n        /* \"#utility.yul\":967:991   */\n      tag_48\n      jump\t// in\n    tag_70:\n        /* \"#utility.yul\":956:991   */\n      swap1\n      pop\n        /* \"#utility.yul\":901:997   */\n      swap2\n      swap1\n      pop\n      jump\t// out\n        /* \"#utility.yul\":1003:1125   */\n    tag_50:\n        /* \"#utility.yul\":1076:1100   */\n      tag_72\n        /* \"#utility.yul\":1094:1099   */\n      dup2\n        /* \"#utility.yul\":1076:1100   */\n      tag_49\n      jump\t// in\n    tag_72:\n        /* \"#utility.yul\":1069:1074   */\n      dup2\n        /* \"#utility.yul\":1066:1101   */\n      eq\n        /* \"#utility.yul\":1056:1119   */\n      tag_73\n      jumpi\n        /* \"#utility.yul\":1115:1116   */\n      0x00\n        /* \"#utility.yul\":1112:1113   */\n      dup1\n        /* \"#utility.yul\":1105:1117   */\n      revert\n        /* \"#utility.yul\":1056:1119   */\n    tag_73:\n        /* \"#utility.yul\":1003:1125   */\n      pop\n      jump\t// out\n        /* \"#utility.yul\":1131:1270   */\n    tag_51:\n        /* \"#utility.yul\":1177:1182   */\n      0x00\n        /* \"#utility.yul\":1215:1221   */\n      dup2\n        /* \"#utility.yul\":1202:1222   */\n      calldataload\n        /* \"#utility.yul\":1193:1222   */\n      swap1\n      pop\n        /* \"#utility.yul\":1231:1264   */\n      tag_75\n        /* \"#utility.yul\":1258:1263   */\n      dup2\n        /* \"#utility.yul\":1231:1264   */\n      tag_50\n      jump\t// in\n    tag_75:\n        /* \"#utility.yul\":1131:1270   */\n      swap3\n      swap2\n      pop\n      pop\n      jump\t// out\n        /* \"#utility.yul\":1276:1605   */\n    tag_14:\n        /* \"#utility.yul\":1335:1341   */\n      0x00\n        /* \"#utility.yul\":1384:1386   */\n      0x20\n        /* \"#utility.yul\":1372:1381   */\n      dup3\n        /* \"#utility.yul\":1363:1370   */\n      dup5\n        /* \"#utility.yul\":1359:1382   */\n      sub\n        /* \"#utility.yul\":1355:1387   */\n      slt\n        /* \"#utility.yul\":1352:1471   */\n      iszero\n      tag_77\n      jumpi\n        /* \"#utility.yul\":1390:1469   */\n      tag_78\n      tag_46\n      jump\t// in\n    tag_78:\n        /* \"#utility.yul\":1352:1471   */\n    tag_77:\n        /* \"#utility.yul\":1510:1511   */\n      0x00\n        /* \"#utility.yul\":1535:1588   */\n      tag_79\n        /* \"#utility.yul\":1580:1587   */\n      dup5\n        /* \"#utility.yul\":1571:1577   */\n      dup3\n        /* \"#utility.yul\":1560:1569   */\n      dup6\n        /* \"#utility.yul\":1556:1578   */\n      add\n        /* \"#utility.yul\":1535:1588   */\n      tag_51\n      jump\t// in\n    tag_79:\n        /* \"#utility.yul\":1525:1588   */\n      swap2\n      pop\n        /* \"#utility.yul\":1481:1598   */\n      pop\n        /* \"#utility.yul\":1276:1605   */\n      swap3\n      swap2\n      pop\n      pop\n      jump\t// out\n        /* \"#utility.yul\":1611:1733   */\n    tag_52:\n        /* \"#utility.yul\":1684:1708   */\n      tag_81\n        /* \"#utility.yul\":1702:1707   */\n      dup2\n        /* \"#utility.yul\":1684:1708   */\n      tag_43\n      jump\t// in\n    tag_81:\n        /* \"#utility.yul\":1677:1682   */\n      dup2\n        /* \"#utility.yul\":1674:1709   */\n      eq\n        /* \"#utility.yul\":1664:1727   */\n      tag_82\n      jumpi\n        /* \"#utility.yul\":1723:1724   */\n      0x00\n        /* \"#utility.yul\":1720:1721   */\n      dup1\n        /* \"#utility.yul\":1713:1725   */\n      revert\n        /* \"#utility.yul\":1664:1727   */\n    tag_82:\n        /* \"#utility.yul\":1611:1733   */\n      pop\n      jump\t// out\n        /* \"#utility.yul\":1739:1878   */\n    tag_53:\n        /* \"#utility.yul\":1785:1790   */\n      0x00\n        /* \"#utility.yul\":1823:1829   */\n      dup2\n        /* \"#utility.yul\":1810:1830   */\n      calldataload\n        /* \"#utility.yul\":1801:1830   */\n      swap1\n      pop\n        /* \"#utility.yul\":1839:1872   */\n      tag_84\n        /* \"#utility.yul\":1866:1871   */\n      dup2\n        /* \"#utility.yul\":1839:1872   */\n      tag_52\n      jump\t// in\n    tag_84:\n        /* \"#utility.yul\":1739:1878   */\n      swap3\n      swap2\n      pop\n      pop\n      jump\t// out\n        /* \"#utility.yul\":1884:2358   */\n    tag_19:\n        /* \"#utility.yul\":1952:1958   */\n      0x00\n        /* \"#utility.yul\":1960:1966   */\n      dup1\n        /* \"#utility.yul\":2009:2011   */\n      0x40\n        /* \"#utility.yul\":1997:2006   */\n      dup4\n        /* \"#utility.yul\":1988:1995   */\n      dup6\n        /* \"#utility.yul\":1984:2007   */\n      sub\n        /* \"#utility.yul\":1980:2012   */\n      slt\n        /* \"#utility.yul\":1977:2096   */\n      iszero\n      tag_86\n      jumpi\n        /* \"#utility.yul\":2015:2094   */\n      tag_87\n      tag_46\n      jump\t// in\n    tag_87:\n        /* \"#utility.yul\":1977:2096   */\n    tag_86:\n        /* \"#utility.yul\":2135:2136   */\n      0x00\n        /* \"#utility.yul\":2160:2213   */\n      tag_88\n        /* \"#utility.yul\":2205:2212   */\n      dup6\n        /* \"#utility.yul\":2196:2202   */\n      dup3\n        /* \"#utility.yul\":2185:2194   */\n      dup7\n        /* \"#utility.yul\":2181:2203   */\n      add\n        /* \"#utility.yul\":2160:2213   */\n      tag_51\n      jump\t// in\n    tag_88:\n        /* \"#utility.yul\":2150:2213   */\n      swap3\n      pop\n        /* \"#utility.yul\":2106:2223   */\n      pop\n        /* \"#utility.yul\":2262:2264   */\n      0x20\n        /* \"#utility.yul\":2288:2341   */\n      tag_89\n        /* \"#utility.yul\":2333:2340   */\n      dup6\n        /* \"#utility.yul\":2324:2330   */\n      dup3\n        /* \"#utility.yul\":2313:2322   */\n      dup7\n        /* \"#utility.yul\":2309:2331   */\n      add\n        /* \"#utility.yul\":2288:2341   */\n      tag_53\n      jump\t// in\n    tag_89:\n        /* \"#utility.yul\":2278:2341   */\n      swap2\n      pop\n        /* \"#utility.yul\":2233:2351   */\n      pop\n        /* \"#utility.yul\":1884:2358   */\n      swap3\n      pop\n      swap3\n      swap1\n      pop\n      jump\t// out\n        /* \"#utility.yul\":2364:2482   */\n    tag_54:\n        /* \"#utility.yul\":2451:2475   */\n      tag_91\n        /* \"#utility.yul\":2469:2474   */\n      dup2\n        /* \"#utility.yul\":2451:2475   */\n      tag_49\n      jump\t// in\n    tag_91:\n        /* \"#utility.yul\":2446:2449   */\n      dup3\n        /* \"#utility.yul\":2439:2476   */\n      mstore\n        /* \"#utility.yul\":2364:2482   */\n      pop\n      pop\n      jump\t// out\n        /* \"#utility.yul\":2488:2710   */\n    tag_30:\n        /* \"#utility.yul\":2581:2585   */\n      0x00\n        /* \"#utility.yul\":2619:2621   */\n      0x20\n        /* \"#utility.yul\":2608:2617   */\n      dup3\n        /* \"#utility.yul\":2604:2622   */\n      add\n        /* \"#utility.yul\":2596:2622   */\n      swap1\n      pop\n        /* \"#utility.yul\":2632:2703   */\n      tag_93\n        /* \"#utility.yul\":2700:2701   */\n      0x00\n        /* \"#utility.yul\":2689:2698   */\n      dup4\n        /* \"#utility.yul\":2685:2702   */\n      add\n        /* \"#utility.yul\":2676:2682   */\n      dup5\n        /* \"#utility.yul\":2632:2703   */\n      tag_54\n      jump\t// in\n    tag_93:\n        /* \"#utility.yul\":2488:2710   */\n      swap3\n      swap2\n      pop\n      pop\n      jump\t// out\n        /* \"#utility.yul\":2716:2885   */\n    tag_55:\n        /* \"#utility.yul\":2800:2811   */\n      0x00\n        /* \"#utility.yul\":2834:2840   */\n      dup3\n        /* \"#utility.yul\":2829:2832   */\n      dup3\n        /* \"#utility.yul\":2822:2841   */\n      mstore\n        /* \"#utility.yul\":2874:2878   */\n      0x20\n        /* \"#utility.yul\":2869:2872   */\n      dup3\n        /* \"#utility.yul\":2865:2879   */\n      add\n        /* \"#utility.yul\":2850:2879   */\n      swap1\n      pop\n        /* \"#utility.yul\":2716:2885   */\n      swap3\n      swap2\n      pop\n      pop\n      jump\t// out\n        /* \"#utility.yul\":2891:3061   */\n    tag_56:\n        /* \"#utility.yul\":3031:3053   */\n      0x496e73756666696369656e742062616c616e6365000000000000000000000000\n        /* \"#utility.yul\":3027:3028   */\n      0x00\n        /* \"#utility.yul\":3019:3025   */\n      dup3\n        /* \"#utility.yul\":3015:3029   */\n      add\n        /* \"#utility.yul\":3008:3054   */\n      mstore\n        /* \"#utility.yul\":2891:3061   */\n      pop\n      jump\t// out\n        /* \"#utility.yul\":3067:3433   */\n    tag_57:\n        /* \"#utility.yul\":3209:3212   */\n      0x00\n        /* \"#utility.yul\":3230:3297   */\n      tag_97\n        /* \"#utility.yul\":3294:3296   */\n      0x14\n        /* \"#utility.yul\":3289:3292   */\n      dup4\n        /* \"#utility.yul\":3230:3297   */\n      tag_55\n      jump\t// in\n    tag_97:\n        /* \"#utility.yul\":3223:3297   */\n      swap2\n      pop\n        /* \"#utility.yul\":3306:3399   */\n      tag_98\n        /* \"#utility.yul\":3395:3398   */\n      dup3\n        /* \"#utility.yul\":3306:3399   */\n      tag_56\n      jump\t// in\n    tag_98:\n        /* \"#utility.yul\":3424:3426   */\n      0x20\n        /* \"#utility.yul\":3419:3422   */\n      dup3\n        /* \"#utility.yul\":3415:3427   */\n      add\n        /* \"#utility.yul\":3408:3427   */\n      swap1\n      pop\n        /* \"#utility.yul\":3067:3433   */\n      swap2\n      swap1\n      pop\n      jump\t// out\n        /* \"#utility.yul\":3439:3858   */\n    tag_33:\n        /* \"#utility.yul\":3605:3609   */\n      0x00\n        /* \"#utility.yul\":3643:3645   */\n      0x20\n        /* \"#utility.yul\":3632:3641   */\n      dup3\n        /* \"#utility.yul\":3628:3646   */\n      add\n        /* \"#utility.yul\":3620:3646   */\n      swap1\n      pop\n        /* \"#utility.yul\":3692:3701   */\n      dup2\n        /* \"#utility.yul\":3686:3690   */\n      dup2\n        /* \"#utility.yul\":3682:3702   */\n      sub\n        /* \"#utility.yul\":3678:3679   */\n      0x00\n        /* \"#utility.yul\":3667:3676   */\n      dup4\n        /* \"#utility.yul\":3663:3680   */\n      add\n        /* \"#utility.yul\":3656:3703   */\n      mstore\n        /* \"#utility.yul\":3720:3851   */\n      tag_100\n        /* \"#utility.yul\":3846:3850   */\n      dup2\n        /* \"#utility.yul\":3720:3851   */\n      tag_57\n      jump\t// in\n    tag_100:\n        /* \"#utility.yul\":3712:3851   */\n      swap1\n      pop\n        /* \"#utility.yul\":3439:3858   */\n      swap2\n      swap1\n      pop\n      jump\t// out\n        /* \"#utility.yul\":3864:4044   */\n    tag_58:\n        /* \"#utility.yul\":3912:3989   */\n      0x4e487b7100000000000000000000000000000000000000000000000000000000\n        /* \"#utility.yul\":3909:3910   */\n      0x00\n        /* \"#utility.yul\":3902:3990   */\n      mstore\n        /* \"#utility.yul\":4009:4013   */\n      0x11\n        /* \"#utility.yul\":4006:4007   */\n      0x04\n        /* \"#utility.yul\":3999:4014   */\n      mstore\n        /* \"#utility.yul\":4033:4037   */\n      0x24\n        /* \"#utility.yul\":4030:4031   */\n      0x00\n        /* \"#utility.yul\":4023:4038   */\n      revert\n        /* \"#utility.yul\":4050:4244   */\n    tag_35:\n        /* \"#utility.yul\":4090:4094   */\n      0x00\n        /* \"#utility.yul\":4110:4130   */\n      tag_103\n        /* \"#utility.yul\":4128:4129   */\n      dup3\n        /* \"#utility.yul\":4110:4130   */\n      tag_43\n      jump\t// in\n    tag_103:\n        /* \"#utility.yul\":4105:4130   */\n      swap2\n      pop\n        /* \"#utility.yul\":4144:4164   */\n      tag_104\n        /* \"#utility.yul\":4162:4163   */\n      dup4\n        /* \"#utility.yul\":4144:4164   */\n      tag_43\n      jump\t// in\n    tag_104:\n        /* \"#utility.yul\":4139:4164   */\n      swap3\n      pop\n        /* \"#utility.yul\":4188:4189   */\n      dup3\n        /* \"#utility.yul\":4185:4186   */\n      dup3\n        /* \"#utility.yul\":4181:4190   */\n      sub\n        /* \"#utility.yul\":4173:4190   */\n      swap1\n      pop\n        /* \"#utility.yul\":4212:4213   */\n      dup2\n        /* \"#utility.yul\":4206:4210   */\n      dup2\n        /* \"#utility.yul\":4203:4214   */\n      gt\n        /* \"#utility.yul\":4200:4237   */\n      iszero\n      tag_105\n      jumpi\n        /* \"#utility.yul\":4217:4235   */\n      tag_106\n      tag_58\n      jump\t// in\n    tag_106:\n        /* \"#utility.yul\":4200:4237   */\n    tag_105:\n        /* \"#utility.yul\":4050:4244   */\n      swap3\n      swap2\n      pop\n      pop\n      jump\t// out\n        /* \"#utility.yul\":4250:4441   */\n    tag_37:\n        /* \"#utility.yul\":4290:4293   */\n      0x00\n        /* \"#utility.yul\":4309:4329   */\n      tag_108\n        /* \"#utility.yul\":4327:4328   */\n      dup3\n        /* \"#utility.yul\":4309:4329   */\n      tag_43\n      jump\t// in\n    tag_108:\n        /* \"#utility.yul\":4304:4329   */\n      swap2\n      pop\n        /* \"#utility.yul\":4343:4363   */\n      tag_109\n        /* \"#utility.yul\":4361:4362   */\n      dup4\n        /* \"#utility.yul\":4343:4363   */\n      tag_43\n      jump\t// in\n    tag_109:\n        /* \"#utility.yul\":4338:4363   */\n      swap3\n      pop\n        /* \"#utility.yul\":4386:4387   */\n      dup3\n        /* \"#utility.yul\":4383:4384   */\n      dup3\n        /* \"#utility.yul\":4379:4388   */\n      add\n        /* \"#utility.yul\":4372:4388   */\n      swap1\n      pop\n        /* \"#utility.yul\":4407:4410   */\n      dup1\n        /* \"#utility.yul\":4404:4405   */\n      dup3\n        /* \"#utility.yul\":4401:4411   */\n      gt\n        /* \"#utility.yul\":4398:4434   */\n      iszero\n      tag_110\n      jumpi\n        /* \"#utility.yul\":4414:4432   */\n      tag_111\n      tag_58\n      jump\t// in\n    tag_111:\n        /* \"#utility.yul\":4398:4434   */\n    tag_110:\n        /* \"#utility.yul\":4250:4441   */\n      swap3\n      swap2\n      pop\n      pop\n      jump\t// out\n\n    auxdata: 0xa26469706673582212206d47616143c5518920ed73dcf922dba4a93e420766ffba57859c9353684ca3ee64736f6c634300081a0033\n}\n",
				"bytecode": {
					"linkReferences": {},
					"object": "60806040526040518060400160405280600581526020017f76616c75650000000000000000000000000000000000000000000000000000008152505f9081610047919061029e565b50348015610053575f80fd5b506305f5e10060028190555061036d565b5f81519050919050565b7f4e487b71000000000000000000000000000000000000000000000000000000005f52604160045260245ffd5b7f4e487b71000000000000000000000000000000000000000000000000000000005f52602260045260245ffd5b5f60028204905060018216806100df57607f821691505b6020821081036100f2576100f161009b565b5b50919050565b5f819050815f5260205f209050919050565b5f6020601f8301049050919050565b5f82821b905092915050565b5f600883026101547fffffffffffffffffffffffffffffffffffffffffffffffffffffffffffffffff82610119565b61015e8683610119565b95508019841693508086168417925050509392505050565b5f819050919050565b5f819050919050565b5f6101a261019d61019884610176565b61017f565b610176565b9050919050565b5f819050919050565b6101bb83610188565b6101cf6101c7826101a9565b848454610125565b825550505050565b5f90565b6101e36101d7565b6101ee8184846101b2565b505050565b5b81811015610211576102065f826101db565b6001810190506101f4565b5050565b601f82111561025657610227816100f8565b6102308461010a565b8101602085101561023f578190505b61025361024b8561010a565b8301826101f3565b50505b505050565b5f82821c905092915050565b5f6102765f198460080261025b565b1980831691505092915050565b5f61028e8383610267565b9150826002028217905092915050565b6102a782610064565b67ffffffffffffffff8111156102c0576102bf61006e565b5b6102ca82546100c8565b6102d5828285610215565b5f60209050601f831160018114610306575f84156102f4578287015190505b6102fe8582610283565b865550610365565b601f198416610314866100f8565b5f5b8281101561033b57848901518255600182019150602085019450602081019050610316565b868310156103585784890151610354601f891682610267565b8355505b6001600288020188555050505b505050505050565b6106d78061037a5f395ff3fe608060405234801561000f575f80fd5b5060043610610055575f3560e01c806318160ddd1461005957806327e235e314610077578063423f6cef146100a75780634e71d92d146100c3578063d54ad2a1146100cd575b5f80fd5b6100616100eb565b60405161006e9190610464565b60405180910390f35b610091600480360381019061008c91906104db565b6100f1565b60405161009e9190610464565b60405180910390f35b6100c160048036038101906100bc9190610530565b610106565b005b6100cb6102c2565b005b6100d5610446565b6040516100e29190610464565b60405180910390f35b60025481565b6001602052805f5260405f205f915090505481565b5f73ffffffffffffffffffffffffffffffffffffffff168273ffffffffffffffffffffffffffffffffffffffff16148061015657505f8273ffffffffffffffffffffffffffffffffffffffff1631145b1561019857816040517f6a86d24c00000000000000000000000000000000000000000000000000000000815260040161018f919061057d565b60405180910390fd5b8060015f3373ffffffffffffffffffffffffffffffffffffffff1673ffffffffffffffffffffffffffffffffffffffff1681526020019081526020015f20541015610218576040517f08c379a000000000000000000000000000000000000000000000000000000000815260040161020f906105f0565b60405180910390fd5b8060015f3373ffffffffffffffffffffffffffffffffffffffff1673ffffffffffffffffffffffffffffffffffffffff1681526020019081526020015f205f828254610264919061063b565b925050819055508060015f8473ffffffffffffffffffffffffffffffffffffffff1673ffffffffffffffffffffffffffffffffffffffff1681526020019081526020015f205f8282546102b7919061066e565b925050819055505050565b600254600354106102ff576040517fcbe2483100000000000000000000000000000000000000000000000000000000815260040160405180910390fd5b60045f3373ffffffffffffffffffffffffffffffffffffffff1673ffffffffffffffffffffffffffffffffffffffff1681526020019081526020015f205f9054906101000a900460ff1615610380576040517f0b1327a600000000000000000000000000000000000000000000000000000000815260040160405180910390fd5b6103e860015f3373ffffffffffffffffffffffffffffffffffffffff1673ffffffffffffffffffffffffffffffffffffffff1681526020019081526020015f205f8282546103ce919061066e565b925050819055506103e860035f8282546103e8919061066e565b92505081905550600160045f3373ffffffffffffffffffffffffffffffffffffffff1673ffffffffffffffffffffffffffffffffffffffff1681526020019081526020015f205f6101000a81548160ff021916908315150217905550565b60035481565b5f819050919050565b61045e8161044c565b82525050565b5f6020820190506104775f830184610455565b92915050565b5f80fd5b5f73ffffffffffffffffffffffffffffffffffffffff82169050919050565b5f6104aa82610481565b9050919050565b6104ba816104a0565b81146104c4575f80fd5b50565b5f813590506104d5816104b1565b92915050565b5f602082840312156104f0576104ef61047d565b5b5f6104fd848285016104c7565b91505092915050565b61050f8161044c565b8114610519575f80fd5b50565b5f8135905061052a81610506565b92915050565b5f80604083850312156105465761054561047d565b5b5f610553858286016104c7565b92505060206105648582860161051c565b9150509250929050565b610577816104a0565b82525050565b5f6020820190506105905f83018461056e565b92915050565b5f82825260208201905092915050565b7f496e73756666696369656e742062616c616e63650000000000000000000000005f82015250565b5f6105da601483610596565b91506105e5826105a6565b602082019050919050565b5f6020820190508181035f830152610607816105ce565b9050919050565b7f4e487b71000000000000000000000000000000000000000000000000000000005f52601160045260245ffd5b5f6106458261044c565b91506106508361044c565b92508282039050818111156106685761066761060e565b5b92915050565b5f6106788261044c565b91506106838361044c565b925082820190508082111561069b5761069a61060e565b5b9291505056fea26469706673582212206d47616143c5518920ed73dcf922dba4a93e420766ffba57859c9353684ca3ee64736f6c634300081a0033",
					"opcodes": "PUSH1 0x80 PUSH1 0x40 MSTORE PUSH1 0x40 MLOAD DUP1 PUSH1 0x40 ADD PUSH1 0x40 MSTORE DUP1 PUSH1 0x5 DUP2 MSTORE PUSH1 0x20 ADD PUSH32 0x76616C7565000000000000000000000000000000000000000000000000000000 DUP2 MSTORE POP PUSH0 SWAP1 DUP2 PUSH2 0x47 SWAP2 SWAP1 PUSH2 0x29E JUMP JUMPDEST POP CALLVALUE DUP1 ISZERO PUSH2 0x53 JUMPI PUSH0 DUP1 REVERT JUMPDEST POP PUSH4 0x5F5E100 PUSH1 0x2 DUP2 SWAP1 SSTORE POP PUSH2 0x36D JUMP JUMPDEST PUSH0 DUP2 MLOAD SWAP1 POP SWAP2 SWAP1 POP JUMP JUMPDEST PUSH32 0x4E487B7100000000000000000000000000000000000000000000000000000000 PUSH0 MSTORE PUSH1 0x41 PUSH1 0x4 MSTORE PUSH1 0x24 PUSH0 REVERT JUMPDEST PUSH32 0x4E487B7100000000000000000000000000000000000000000000000000000000 PUSH0 MSTORE PUSH1 0x22 PUSH1 0x4 MSTORE PUSH1 0x24 PUSH0 REVERT JUMPDEST PUSH0 PUSH1 0x2 DUP3 DIV SWAP1 POP PUSH1 0x1 DUP3 AND DUP1 PUSH2 0xDF JUMPI PUSH1 0x7F DUP3 AND SWAP2 POP JUMPDEST PUSH1 0x20 DUP3 LT DUP2 SUB PUSH2 0xF2 JUMPI PUSH2 0xF1 PUSH2 0x9B JUMP JUMPDEST JUMPDEST POP SWAP2 SWAP1 POP JUMP JUMPDEST PUSH0 DUP2 SWAP1 POP DUP2 PUSH0 MSTORE PUSH1 0x20 PUSH0 KECCAK256 SWAP1 POP SWAP2 SWAP1 POP JUMP JUMPDEST PUSH0 PUSH1 0x20 PUSH1 0x1F DUP4 ADD DIV SWAP1 POP SWAP2 SWAP1 POP JUMP JUMPDEST PUSH0 DUP3 DUP3 SHL SWAP1 POP SWAP3 SWAP2 POP POP JUMP JUMPDEST PUSH0 PUSH1 0x8 DUP4 MUL PUSH2 0x154 PUSH32 0xFFFFFFFFFFFFFFFFFFFFFFFFFFFFFFFFFFFFFFFFFFFFFFFFFFFFFFFFFFFFFFFF DUP3 PUSH2 0x119 JUMP JUMPDEST PUSH2 0x15E DUP7 DUP4 PUSH2 0x119 JUMP JUMPDEST SWAP6 POP DUP1 NOT DUP5 AND SWAP4 POP DUP1 DUP7 AND DUP5 OR SWAP3 POP POP POP SWAP4 SWAP3 POP POP POP JUMP JUMPDEST PUSH0 DUP2 SWAP1 POP SWAP2 SWAP1 POP JUMP JUMPDEST PUSH0 DUP2 SWAP1 POP SWAP2 SWAP1 POP JUMP JUMPDEST PUSH0 PUSH2 0x1A2 PUSH2 0x19D PUSH2 0x198 DUP5 PUSH2 0x176 JUMP JUMPDEST PUSH2 0x17F JUMP JUMPDEST PUSH2 0x176 JUMP JUMPDEST SWAP1 POP SWAP2 SWAP1 POP JUMP JUMPDEST PUSH0 DUP2 SWAP1 POP SWAP2 SWAP1 POP JUMP JUMPDEST PUSH2 0x1BB DUP4 PUSH2 0x188 JUMP JUMPDEST PUSH2 0x1CF PUSH2 0x1C7 DUP3 PUSH2 0x1A9 JUMP JUMPDEST DUP5 DUP5 SLOAD PUSH2 0x125 JUMP JUMPDEST DUP3 SSTORE POP POP POP POP JUMP JUMPDEST PUSH0 SWAP1 JUMP JUMPDEST PUSH2 0x1E3 PUSH2 0x1D7 JUMP JUMPDEST PUSH2 0x1EE DUP2 DUP5 DUP5 PUSH2 0x1B2 JUMP JUMPDEST POP POP POP JUMP JUMPDEST JUMPDEST DUP2 DUP2 LT ISZERO PUSH2 0x211 JUMPI PUSH2 0x206 PUSH0 DUP3 PUSH2 0x1DB JUMP JUMPDEST PUSH1 0x1 DUP2 ADD SWAP1 POP PUSH2 0x1F4 JUMP JUMPDEST POP POP JUMP JUMPDEST PUSH1 0x1F DUP3 GT ISZERO PUSH2 0x256 JUMPI PUSH2 0x227 DUP2 PUSH2 0xF8 JUMP JUMPDEST PUSH2 0x230 DUP5 PUSH2 0x10A JUMP JUMPDEST DUP2 ADD PUSH1 0x20 DUP6 LT ISZERO PUSH2 0x23F JUMPI DUP2 SWAP1 POP JUMPDEST PUSH2 0x253 PUSH2 0x24B DUP6 PUSH2 0x10A JUMP JUMPDEST DUP4 ADD DUP3 PUSH2 0x1F3 JUMP JUMPDEST POP POP JUMPDEST POP POP POP JUMP JUMPDEST PUSH0 DUP3 DUP3 SHR SWAP1 POP SWAP3 SWAP2 POP POP JUMP JUMPDEST PUSH0 PUSH2 0x276 PUSH0 NOT DUP5 PUSH1 0x8 MUL PUSH2 0x25B JUMP JUMPDEST NOT DUP1 DUP4 AND SWAP2 POP POP SWAP3 SWAP2 POP POP JUMP JUMPDEST PUSH0 PUSH2 0x28E DUP4 DUP4 PUSH2 0x267 JUMP JUMPDEST SWAP2 POP DUP3 PUSH1 0x2 MUL DUP3 OR SWAP1 POP SWAP3 SWAP2 POP POP JUMP JUMPDEST PUSH2 0x2A7 DUP3 PUSH2 0x64 JUMP JUMPDEST PUSH8 0xFFFFFFFFFFFFFFFF DUP2 GT ISZERO PUSH2 0x2C0 JUMPI PUSH2 0x2BF PUSH2 0x6E JUMP JUMPDEST JUMPDEST PUSH2 0x2CA DUP3 SLOAD PUSH2 0xC8 JUMP JUMPDEST PUSH2 0x2D5 DUP3 DUP3 DUP6 PUSH2 0x215 JUMP JUMPDEST PUSH0 PUSH1 0x20 SWAP1 POP PUSH1 0x1F DUP4 GT PUSH1 0x1 DUP2 EQ PUSH2 0x306 JUMPI PUSH0 DUP5 ISZERO PUSH2 0x2F4 JUMPI DUP3 DUP8 ADD MLOAD SWAP1 POP JUMPDEST PUSH2 0x2FE DUP6 DUP3 PUSH2 0x283 JUMP JUMPDEST DUP7 SSTORE POP PUSH2 0x365 JUMP JUMPDEST PUSH1 0x1F NOT DUP5 AND PUSH2 0x314 DUP7 PUSH2 0xF8 JUMP JUMPDEST PUSH0 JUMPDEST DUP3 DUP2 LT ISZERO PUSH2 0x33B JUMPI DUP5 DUP10 ADD MLOAD DUP3 SSTORE PUSH1 0x1 DUP3 ADD SWAP2 POP PUSH1 0x20 DUP6 ADD SWAP5 POP PUSH1 0x20 DUP2 ADD SWAP1 POP PUSH2 0x316 JUMP JUMPDEST DUP7 DUP4 LT ISZERO PUSH2 0x358 JUMPI DUP5 DUP10 ADD MLOAD PUSH2 0x354 PUSH1 0x1F DUP10 AND DUP3 PUSH2 0x267 JUMP JUMPDEST DUP4 SSTORE POP JUMPDEST PUSH1 0x1 PUSH1 0x2 DUP9 MUL ADD DUP9 SSTORE POP POP POP JUMPDEST POP POP POP POP POP POP JUMP JUMPDEST PUSH2 0x6D7 DUP1 PUSH2 0x37A PUSH0 CODECOPY PUSH0 RETURN INVALID PUSH1 0x80 PUSH1 0x40 MSTORE CALLVALUE DUP1 ISZERO PUSH2 0xF JUMPI PUSH0 DUP1 REVERT JUMPDEST POP PUSH1 0x4 CALLDATASIZE LT PUSH2 0x55 JUMPI PUSH0 CALLDATALOAD PUSH1 0xE0 SHR DUP1 PUSH4 0x18160DDD EQ PUSH2 0x59 JUMPI DUP1 PUSH4 0x27E235E3 EQ PUSH2 0x77 JUMPI DUP1 PUSH4 0x423F6CEF EQ PUSH2 0xA7 JUMPI DUP1 PUSH4 0x4E71D92D EQ PUSH2 0xC3 JUMPI DUP1 PUSH4 0xD54AD2A1 EQ PUSH2 0xCD JUMPI JUMPDEST PUSH0 DUP1 REVERT JUMPDEST PUSH2 0x61 PUSH2 0xEB JUMP JUMPDEST PUSH1 0x40 MLOAD PUSH2 0x6E SWAP2 SWAP1 PUSH2 0x464 JUMP JUMPDEST PUSH1 0x40 MLOAD DUP1 SWAP2 SUB SWAP1 RETURN JUMPDEST PUSH2 0x91 PUSH1 0x4 DUP1 CALLDATASIZE SUB DUP2 ADD SWAP1 PUSH2 0x8C SWAP2 SWAP1 PUSH2 0x4DB JUMP JUMPDEST PUSH2 0xF1 JUMP JUMPDEST PUSH1 0x40 MLOAD PUSH2 0x9E SWAP2 SWAP1 PUSH2 0x464 JUMP JUMPDEST PUSH1 0x40 MLOAD DUP1 SWAP2 SUB SWAP1 RETURN JUMPDEST PUSH2 0xC1 PUSH1 0x4 DUP1 CALLDATASIZE SUB DUP2 ADD SWAP1 PUSH2 0xBC SWAP2 SWAP1 PUSH2 0x530 JUMP JUMPDEST PUSH2 0x106 JUMP JUMPDEST STOP JUMPDEST PUSH2 0xCB PUSH2 0x2C2 JUMP JUMPDEST STOP JUMPDEST PUSH2 0xD5 PUSH2 0x446 JUMP JUMPDEST PUSH1 0x40 MLOAD PUSH2 0xE2 SWAP2 SWAP1 PUSH2 0x464 JUMP JUMPDEST PUSH1 0x40 MLOAD DUP1 SWAP2 SUB SWAP1 RETURN JUMPDEST PUSH1 0x2 SLOAD DUP2 JUMP JUMPDEST PUSH1 0x1 PUSH1 0x20 MSTORE DUP1 PUSH0 MSTORE PUSH1 0x40 PUSH0 KECCAK256 PUSH0 SWAP2 POP SWAP1 POP SLOAD DUP2 JUMP JUMPDEST PUSH0 PUSH20 0xFFFFFFFFFFFFFFFFFFFFFFFFFFFFFFFFFFFFFFFF AND DUP3 PUSH20 0xFFFFFFFFFFFFFFFFFFFFFFFFFFFFFFFFFFFFFFFF AND EQ DUP1 PUSH2 0x156 JUMPI POP PUSH0 DUP3 PUSH20 0xFFFFFFFFFFFFFFFFFFFFFFFFFFFFFFFFFFFFFFFF AND BALANCE EQ JUMPDEST ISZERO PUSH2 0x198 JUMPI DUP2 PUSH1 0x40 MLOAD PUSH32 0x6A86D24C00000000000000000000000000000000000000000000000000000000 DUP2 MSTORE PUSH1 0x4 ADD PUSH2 0x18F SWAP2 SWAP1 PUSH2 0x57D JUMP JUMPDEST PUSH1 0x40 MLOAD DUP1 SWAP2 SUB SWAP1 REVERT JUMPDEST DUP1 PUSH1 0x1 PUSH0 CALLER PUSH20 0xFFFFFFFFFFFFFFFFFFFFFFFFFFFFFFFFFFFFFFFF AND PUSH20 0xFFFFFFFFFFFFFFFFFFFFFFFFFFFFFFFFFFFFFFFF AND DUP2 MSTORE PUSH1 0x20 ADD SWAP1 DUP2 MSTORE PUSH1 0x20 ADD PUSH0 KECCAK256 SLOAD LT ISZERO PUSH2 0x218 JUMPI PUSH1 0x40 MLOAD PUSH32 0x8C379A000000000000000000000000000000000000000000000000000000000 DUP2 MSTORE PUSH1 0x4 ADD PUSH2 0x20F SWAP1 PUSH2 0x5F0 JUMP JUMPDEST PUSH1 0x40 MLOAD DUP1 SWAP2 SUB SWAP1 REVERT JUMPDEST DUP1 PUSH1 0x1 PUSH0 CALLER PUSH20 0xFFFFFFFFFFFFFFFFFFFFFFFFFFFFFFFFFFFFFFFF AND PUSH20 0xFFFFFFFFFFFFFFFFFFFFFFFFFFFFFFFFFFFFFFFF AND DUP2 MSTORE PUSH1 0x20 ADD SWAP1 DUP2 MSTORE PUSH1 0x20 ADD PUSH0 KECCAK256 PUSH0 DUP3 DUP3 SLOAD PUSH2 0x264 SWAP2 SWAP1 PUSH2 0x63B JUMP JUMPDEST SWAP3 POP POP DUP2 SWAP1 SSTORE POP DUP1 PUSH1 0x1 PUSH0 DUP5 PUSH20 0xFFFFFFFFFFFFFFFFFFFFFFFFFFFFFFFFFFFFFFFF AND PUSH20 0xFFFFFFFFFFFFFFFFFFFFFFFFFFFFFFFFFFFFFFFF AND DUP2 MSTORE PUSH1 0x20 ADD SWAP1 DUP2 MSTORE PUSH1 0x20 ADD PUSH0 KECCAK256 PUSH0 DUP3 DUP3 SLOAD PUSH2 0x2B7 SWAP2 SWAP1 PUSH2 0x66E JUMP JUMPDEST SWAP3 POP POP DUP2 SWAP1 SSTORE POP POP POP JUMP JUMPDEST PUSH1 0x2 SLOAD PUSH1 0x3 SLOAD LT PUSH2 0x2FF JUMPI PUSH1 0x40 MLOAD PUSH32 0xCBE2483100000000000000000000000000000000000000000000000000000000 DUP2 MSTORE PUSH1 0x4 ADD PUSH1 0x40 MLOAD DUP1 SWAP2 SUB SWAP1 REVERT JUMPDEST PUSH1 0x4 PUSH0 CALLER PUSH20 0xFFFFFFFFFFFFFFFFFFFFFFFFFFFFFFFFFFFFFFFF AND PUSH20 0xFFFFFFFFFFFFFFFFFFFFFFFFFFFFFFFFFFFFFFFF AND DUP2 MSTORE PUSH1 0x20 ADD SWAP1 DUP2 MSTORE PUSH1 0x20 ADD PUSH0 KECCAK256 PUSH0 SWAP1 SLOAD SWAP1 PUSH2 0x100 EXP SWAP1 DIV PUSH1 0xFF AND ISZERO PUSH2 0x380 JUMPI PUSH1 0x40 MLOAD PUSH32 0xB1327A600000000000000000000000000000000000000000000000000000000 DUP2 MSTORE PUSH1 0x4 ADD PUSH1 0x40 MLOAD DUP1 SWAP2 SUB SWAP1 REVERT JUMPDEST PUSH2 0x3E8 PUSH1 0x1 PUSH0 CALLER PUSH20 0xFFFFFFFFFFFFFFFFFFFFFFFFFFFFFFFFFFFFFFFF AND PUSH20 0xFFFFFFFFFFFFFFFFFFFFFFFFFFFFFFFFFFFFFFFF AND DUP2 MSTORE PUSH1 0x20 ADD SWAP1 DUP2 MSTORE PUSH1 0x20 ADD PUSH0 KECCAK256 PUSH0 DUP3 DUP3 SLOAD PUSH2 0x3CE SWAP2 SWAP1 PUSH2 0x66E JUMP JUMPDEST SWAP3 POP POP DUP2 SWAP1 SSTORE POP PUSH2 0x3E8 PUSH1 0x3 PUSH0 DUP3 DUP3 SLOAD PUSH2 0x3E8 SWAP2 SWAP1 PUSH2 0x66E JUMP JUMPDEST SWAP3 POP POP DUP2 SWAP1 SSTORE POP PUSH1 0x1 PUSH1 0x4 PUSH0 CALLER PUSH20 0xFFFFFFFFFFFFFFFFFFFFFFFFFFFFFFFFFFFFFFFF AND PUSH20 0xFFFFFFFFFFFFFFFFFFFFFFFFFFFFFFFFFFFFFFFF AND DUP2 MSTORE PUSH1 0x20 ADD SWAP1 DUP2 MSTORE PUSH1 0x20 ADD PUSH0 KECCAK256 PUSH0 PUSH2 0x100 EXP DUP2 SLOAD DUP2 PUSH1 0xFF MUL NOT AND SWAP1 DUP4 ISZERO ISZERO MUL OR SWAP1 SSTORE POP JUMP JUMPDEST PUSH1 0x3 SLOAD DUP2 JUMP JUMPDEST PUSH0 DUP2 SWAP1 POP SWAP2 SWAP1 POP JUMP JUMPDEST PUSH2 0x45E DUP2 PUSH2 0x44C JUMP JUMPDEST DUP3 MSTORE POP POP JUMP JUMPDEST PUSH0 PUSH1 0x20 DUP3 ADD SWAP1 POP PUSH2 0x477 PUSH0 DUP4 ADD DUP5 PUSH2 0x455 JUMP JUMPDEST SWAP3 SWAP2 POP POP JUMP JUMPDEST PUSH0 DUP1 REVERT JUMPDEST PUSH0 PUSH20 0xFFFFFFFFFFFFFFFFFFFFFFFFFFFFFFFFFFFFFFFF DUP3 AND SWAP1 POP SWAP2 SWAP1 POP JUMP JUMPDEST PUSH0 PUSH2 0x4AA DUP3 PUSH2 0x481 JUMP JUMPDEST SWAP1 POP SWAP2 SWAP1 POP JUMP JUMPDEST PUSH2 0x4BA DUP2 PUSH2 0x4A0 JUMP JUMPDEST DUP2 EQ PUSH2 0x4C4 JUMPI PUSH0 DUP1 REVERT JUMPDEST POP JUMP JUMPDEST PUSH0 DUP2 CALLDATALOAD SWAP1 POP PUSH2 0x4D5 DUP2 PUSH2 0x4B1 JUMP JUMPDEST SWAP3 SWAP2 POP POP JUMP JUMPDEST PUSH0 PUSH1 0x20 DUP3 DUP5 SUB SLT ISZERO PUSH2 0x4F0 JUMPI PUSH2 0x4EF PUSH2 0x47D JUMP JUMPDEST JUMPDEST PUSH0 PUSH2 0x4FD DUP5 DUP3 DUP6 ADD PUSH2 0x4C7 JUMP JUMPDEST SWAP2 POP POP SWAP3 SWAP2 POP POP JUMP JUMPDEST PUSH2 0x50F DUP2 PUSH2 0x44C JUMP JUMPDEST DUP2 EQ PUSH2 0x519 JUMPI PUSH0 DUP1 REVERT JUMPDEST POP JUMP JUMPDEST PUSH0 DUP2 CALLDATALOAD SWAP1 POP PUSH2 0x52A DUP2 PUSH2 0x506 JUMP JUMPDEST SWAP3 SWAP2 POP POP JUMP JUMPDEST PUSH0 DUP1 PUSH1 0x40 DUP4 DUP6 SUB SLT ISZERO PUSH2 0x546 JUMPI PUSH2 0x545 PUSH2 0x47D JUMP JUMPDEST JUMPDEST PUSH0 PUSH2 0x553 DUP6 DUP3 DUP7 ADD PUSH2 0x4C7 JUMP JUMPDEST SWAP3 POP POP PUSH1 0x20 PUSH2 0x564 DUP6 DUP3 DUP7 ADD PUSH2 0x51C JUMP JUMPDEST SWAP2 POP POP SWAP3 POP SWAP3 SWAP1 POP JUMP JUMPDEST PUSH2 0x577 DUP2 PUSH2 0x4A0 JUMP JUMPDEST DUP3 MSTORE POP POP JUMP JUMPDEST PUSH0 PUSH1 0x20 DUP3 ADD SWAP1 POP PUSH2 0x590 PUSH0 DUP4 ADD DUP5 PUSH2 0x56E JUMP JUMPDEST SWAP3 SWAP2 POP POP JUMP JUMPDEST PUSH0 DUP3 DUP3 MSTORE PUSH1 0x20 DUP3 ADD SWAP1 POP SWAP3 SWAP2 POP POP JUMP JUMPDEST PUSH32 0x496E73756666696369656E742062616C616E6365000000000000000000000000 PUSH0 DUP3 ADD MSTORE POP JUMP JUMPDEST PUSH0 PUSH2 0x5DA PUSH1 0x14 DUP4 PUSH2 0x596 JUMP JUMPDEST SWAP2 POP PUSH2 0x5E5 DUP3 PUSH2 0x5A6 JUMP JUMPDEST PUSH1 0x20 DUP3 ADD SWAP1 POP SWAP2 SWAP1 POP JUMP JUMPDEST PUSH0 PUSH1 0x20 DUP3 ADD SWAP1 POP DUP2 DUP2 SUB PUSH0 DUP4 ADD MSTORE PUSH2 0x607 DUP2 PUSH2 0x5CE JUMP JUMPDEST SWAP1 POP SWAP2 SWAP1 POP JUMP JUMPDEST PUSH32 0x4E487B7100000000000000000000000000000000000000000000000000000000 PUSH0 MSTORE PUSH1 0x11 PUSH1 0x4 MSTORE PUSH1 0x24 PUSH0 REVERT JUMPDEST PUSH0 PUSH2 0x645 DUP3 PUSH2 0x44C JUMP JUMPDEST SWAP2 POP PUSH2 0x650 DUP4 PUSH2 0x44C JUMP JUMPDEST SWAP3 POP DUP3 DUP3 SUB SWAP1 POP DUP2 DUP2 GT ISZERO PUSH2 0x668 JUMPI PUSH2 0x667 PUSH2 0x60E JUMP JUMPDEST JUMPDEST SWAP3 SWAP2 POP POP JUMP JUMPDEST PUSH0 PUSH2 0x678 DUP3 PUSH2 0x44C JUMP JUMPDEST SWAP2 POP PUSH2 0x683 DUP4 PUSH2 0x44C JUMP JUMPDEST SWAP3 POP DUP3 DUP3 ADD SWAP1 POP DUP1 DUP3 GT ISZERO PUSH2 0x69B JUMPI PUSH2 0x69A PUSH2 0x60E JUMP JUMPDEST JUMPDEST SWAP3 SWAP2 POP POP JUMP INVALID LOG2 PUSH5 0x6970667358 0x22 SLT KECCAK256 PUSH14 0x47616143C5518920ED73DCF922DB LOG4 0xA9 RETURNDATACOPY TIMESTAMP SMOD PUSH7 0xFFBA57859C9353 PUSH9 0x4CA3EE64736F6C6343 STOP ADDMOD BYTE STOP CALLER "
				},
				"gasEstimates": {
					"creation": {
						"codeDepositCost": "350200",
						"executionCost": "infinite",
						"totalCost": "infinite"
					},
					"external": {
						"balances(address)": "2802",
						"claim()": "infinite",
						"safeTransfer(address,uint256)": "infinite",
						"totalClaimed()": "2491",
						"totalSupply()": "2403"
					}
				},
				"methodIdentifiers": {
					"balances(address)": "27e235e3",
					"claim()": "4e71d92d",
					"safeTransfer(address,uint256)": "423f6cef",
					"totalClaimed()": "d54ad2a1",
					"totalSupply()": "18160ddd"
				}
			},
			"storageLayout": {
				"storage": [
					{
						"astId": 4,
						"contract": "11_MinimalTokens.sol:UnburnableToken",
						"label": "salt",
						"offset": 0,
						"slot": "0",
						"type": "t_string_storage"
					},
					{
						"astId": 8,
						"contract": "11_MinimalTokens.sol:UnburnableToken",
						"label": "balances",
						"offset": 0,
						"slot": "1",
						"type": "t_mapping(t_address,t_uint256)"
					},
					{
						"astId": 10,
						"contract": "11_MinimalTokens.sol:UnburnableToken",
						"label": "totalSupply",
						"offset": 0,
						"slot": "2",
						"type": "t_uint256"
					},
					{
						"astId": 12,
						"contract": "11_MinimalTokens.sol:UnburnableToken",
						"label": "totalClaimed",
						"offset": 0,
						"slot": "3",
						"type": "t_uint256"
					},
					{
						"astId": 16,
						"contract": "11_MinimalTokens.sol:UnburnableToken",
						"label": "claimed",
						"offset": 0,
						"slot": "4",
						"type": "t_mapping(t_address,t_bool)"
					}
				],
				"types": {
					"t_address": {
						"encoding": "inplace",
						"label": "address",
						"numberOfBytes": "20"
					},
					"t_bool": {
						"encoding": "inplace",
						"label": "bool",
						"numberOfBytes": "1"
					},
					"t_mapping(t_address,t_bool)": {
						"encoding": "mapping",
						"key": "t_address",
						"label": "mapping(address => bool)",
						"numberOfBytes": "32",
						"value": "t_bool"
					},
					"t_mapping(t_address,t_uint256)": {
						"encoding": "mapping",
						"key": "t_address",
						"label": "mapping(address => uint256)",
						"numberOfBytes": "32",
						"value": "t_uint256"
					},
					"t_string_storage": {
						"encoding": "bytes",
						"label": "string",
						"numberOfBytes": "32"
					},
					"t_uint256": {
						"encoding": "inplace",
						"label": "uint256",
						"numberOfBytes": "32"
					}
				}
			},
			"userdoc": {
				"kind": "user",
				"methods": {},
				"version": 1
			}
		}
	}
}