{
	"Storage.sol": {
		"EmployeeStorage": {
			"abi": [
				{
					"inputs": [
						{
							"internalType": "uint16",
							"name": "_shares",
							"type": "uint16"
						},
						{
							"internalType": "string",
							"name": "_name",
							"type": "string"
						},
						{
							"internalType": "uint32",
							"name": "_salary",
							"type": "uint32"
						},
						{
							"internalType": "uint256",
							"name": "_idNumber",
							"type": "uint256"
						}
					],
					"stateMutability": "nonpayable",
					"type": "constructor"
				},
				{
					"inputs": [
						{
							"internalType": "uint16",
							"name": "_shares",
							"type": "uint16"
						}
					],
					"name": "TooManyShares",
					"type": "error"
				},
				{
					"inputs": [
						{
							"internalType": "uint256",
							"name": "_slot",
							"type": "uint256"
						}
					],
					"name": "checkForPacking",
					"outputs": [
						{
							"internalType": "uint256",
							"name": "r",
							"type": "uint256"
						}
					],
					"stateMutability": "view",
					"type": "function"
				},
				{
					"inputs": [],
					"name": "debugResetShares",
					"outputs": [],
					"stateMutability": "nonpayable",
					"type": "function"
				},
				{
					"inputs": [
						{
							"internalType": "uint16",
							"name": "_newShares",
							"type": "uint16"
						}
					],
					"name": "grantShares",
					"outputs": [],
					"stateMutability": "nonpayable",
					"type": "function"
				},
				{
					"inputs": [],
					"name": "idNumber",
					"outputs": [
						{
							"internalType": "uint256",
							"name": "",
							"type": "uint256"
						}
					],
					"stateMutability": "view",
					"type": "function"
				},
				{
					"inputs": [],
					"name": "name",
					"outputs": [
						{
							"internalType": "string",
							"name": "",
							"type": "string"
						}
					],
					"stateMutability": "view",
					"type": "function"
				},
				{
					"inputs": [],
					"name": "viewSalary",
					"outputs": [
						{
							"internalType": "uint32",
							"name": "",
							"type": "uint32"
						}
					],
					"stateMutability": "view",
					"type": "function"
				},
				{
					"inputs": [],
					"name": "viewShares",
					"outputs": [
						{
							"internalType": "uint16",
							"name": "",
							"type": "uint16"
						}
					],
					"stateMutability": "view",
					"type": "function"
				}
			],
			"devdoc": {
				"kind": "dev",
				"methods": {},
				"version": 1
			},
			"evm": {
				"assembly": "    /* \"Storage.sol\":66:1600  contract EmployeeStorage {... */\n  mstore(0x40, 0x80)\n    /* \"Storage.sol\":441:717  constructor(uint16 _shares, string memory _name, uint32 _salary, uint _idNumber) {... */\n  callvalue\n  dup1\n  iszero\n  tag_1\n  jumpi\n  0x00\n  dup1\n  revert\ntag_1:\n  pop\n  mload(0x40)\n  sub(codesize, bytecodeSize)\n  dup1\n  bytecodeSize\n  dup4\n  codecopy\n  dup2\n  dup2\n  add\n  0x40\n  mstore\n  dup2\n  add\n  swap1\n  tag_2\n  swap2\n  swap1\n  tag_3\n  jump\t// in\ntag_2:\n    /* \"Storage.sol\":541:548  _shares */\n  dup4\n    /* \"Storage.sol\":532:538  shares */\n  0x00\n  dup1\n    /* \"Storage.sol\":532:548  shares = _shares */\n  0x0100\n  exp\n  dup2\n  sload\n  dup2\n  0xffff\n  mul\n  not\n  and\n  swap1\n  dup4\n  0xffff\n  and\n  mul\n  or\n  swap1\n  sstore\n  pop\n    /* \"Storage.sol\":586:591  _name */\n  dup3\n    /* \"Storage.sol\":579:583  name */\n  0x02\n    /* \"Storage.sol\":579:591  name = _name */\n  swap1\n  dup2\n  tag_6\n  swap2\n  swap1\n  tag_7\n  jump\t// in\ntag_6:\n  pop\n    /* \"Storage.sol\":629:636  _salary */\n  dup2\n    /* \"Storage.sol\":620:626  salary */\n  0x00\n  0x02\n    /* \"Storage.sol\":620:636  salary = _salary */\n  0x0100\n  exp\n  dup2\n  sload\n  dup2\n  0xffffffff\n  mul\n  not\n  and\n  swap1\n  dup4\n  0xffffffff\n  and\n  mul\n  or\n  swap1\n  sstore\n  pop\n    /* \"Storage.sol\":678:687  _idNumber */\n  dup1\n    /* \"Storage.sol\":667:675  idNumber */\n  0x01\n    /* \"Storage.sol\":667:687  idNumber = _idNumber */\n  dup2\n  swap1\n  sstore\n  pop\n    /* \"Storage.sol\":441:717  constructor(uint16 _shares, string memory _name, uint32 _salary, uint _idNumber) {... */\n  pop\n  pop\n  pop\n  pop\n    /* \"Storage.sol\":66:1600  contract EmployeeStorage {... */\n  jump(tag_8)\n    /* \"#utility.yul\":7:82   */\ntag_9:\n    /* \"#utility.yul\":40:46   */\n  0x00\n    /* \"#utility.yul\":73:75   */\n  0x40\n    /* \"#utility.yul\":67:76   */\n  mload\n    /* \"#utility.yul\":57:76   */\n  swap1\n  pop\n    /* \"#utility.yul\":7:82   */\n  swap1\n  jump\t// out\n    /* \"#utility.yul\":88:205   */\ntag_10:\n    /* \"#utility.yul\":197:198   */\n  0x00\n    /* \"#utility.yul\":194:195   */\n  dup1\n    /* \"#utility.yul\":187:199   */\n  revert\n    /* \"#utility.yul\":211:328   */\ntag_11:\n    /* \"#utility.yul\":320:321   */\n  0x00\n    /* \"#utility.yul\":317:318   */\n  dup1\n    /* \"#utility.yul\":310:322   */\n  revert\n    /* \"#utility.yul\":334:423   */\ntag_12:\n    /* \"#utility.yul\":370:377   */\n  0x00\n    /* \"#utility.yul\":410:416   */\n  0xffff\n    /* \"#utility.yul\":403:408   */\n  dup3\n    /* \"#utility.yul\":399:417   */\n  and\n    /* \"#utility.yul\":388:417   */\n  swap1\n  pop\n    /* \"#utility.yul\":334:423   */\n  swap2\n  swap1\n  pop\n  jump\t// out\n    /* \"#utility.yul\":429:549   */\ntag_13:\n    /* \"#utility.yul\":501:524   */\n  tag_55\n    /* \"#utility.yul\":518:523   */\n  dup2\n    /* \"#utility.yul\":501:524   */\n  tag_12\n  jump\t// in\ntag_55:\n    /* \"#utility.yul\":494:499   */\n  dup2\n    /* \"#utility.yul\":491:525   */\n  eq\n    /* \"#utility.yul\":481:543   */\n  tag_56\n  jumpi\n    /* \"#utility.yul\":539:540   */\n  0x00\n    /* \"#utility.yul\":536:537   */\n  dup1\n    /* \"#utility.yul\":529:541   */\n  revert\n    /* \"#utility.yul\":481:543   */\ntag_56:\n    /* \"#utility.yul\":429:549   */\n  pop\n  jump\t// out\n    /* \"#utility.yul\":555:696   */\ntag_14:\n    /* \"#utility.yul\":611:616   */\n  0x00\n    /* \"#utility.yul\":642:648   */\n  dup2\n    /* \"#utility.yul\":636:649   */\n  mload\n    /* \"#utility.yul\":627:649   */\n  swap1\n  pop\n    /* \"#utility.yul\":658:690   */\n  tag_58\n    /* \"#utility.yul\":684:689   */\n  dup2\n    /* \"#utility.yul\":658:690   */\n  tag_13\n  jump\t// in\ntag_58:\n    /* \"#utility.yul\":555:696   */\n  swap3\n  swap2\n  pop\n  pop\n  jump\t// out\n    /* \"#utility.yul\":702:819   */\ntag_15:\n    /* \"#utility.yul\":811:812   */\n  0x00\n    /* \"#utility.yul\":808:809   */\n  dup1\n    /* \"#utility.yul\":801:813   */\n  revert\n    /* \"#utility.yul\":825:942   */\ntag_16:\n    /* \"#utility.yul\":934:935   */\n  0x00\n    /* \"#utility.yul\":931:932   */\n  dup1\n    /* \"#utility.yul\":924:936   */\n  revert\n    /* \"#utility.yul\":948:1050   */\ntag_17:\n    /* \"#utility.yul\":989:995   */\n  0x00\n    /* \"#utility.yul\":1040:1042   */\n  0x1f\n    /* \"#utility.yul\":1036:1043   */\n  not\n    /* \"#utility.yul\":1031:1033   */\n  0x1f\n    /* \"#utility.yul\":1024:1029   */\n  dup4\n    /* \"#utility.yul\":1020:1034   */\n  add\n    /* \"#utility.yul\":1016:1044   */\n  and\n    /* \"#utility.yul\":1006:1044   */\n  swap1\n  pop\n    /* \"#utility.yul\":948:1050   */\n  swap2\n  swap1\n  pop\n  jump\t// out\n    /* \"#utility.yul\":1056:1236   */\ntag_18:\n    /* \"#utility.yul\":1104:1181   */\n  0x4e487b7100000000000000000000000000000000000000000000000000000000\n    /* \"#utility.yul\":1101:1102   */\n  0x00\n    /* \"#utility.yul\":1094:1182   */\n  mstore\n    /* \"#utility.yul\":1201:1205   */\n  0x41\n    /* \"#utility.yul\":1198:1199   */\n  0x04\n    /* \"#utility.yul\":1191:1206   */\n  mstore\n    /* \"#utility.yul\":1225:1229   */\n  0x24\n    /* \"#utility.yul\":1222:1223   */\n  0x00\n    /* \"#utility.yul\":1215:1230   */\n  revert\n    /* \"#utility.yul\":1242:1523   */\ntag_19:\n    /* \"#utility.yul\":1325:1352   */\n  tag_64\n    /* \"#utility.yul\":1347:1351   */\n  dup3\n    /* \"#utility.yul\":1325:1352   */\n  tag_17\n  jump\t// in\ntag_64:\n    /* \"#utility.yul\":1317:1323   */\n  dup2\n    /* \"#utility.yul\":1313:1353   */\n  add\n    /* \"#utility.yul\":1455:1461   */\n  dup2\n    /* \"#utility.yul\":1443:1453   */\n  dup2\n    /* \"#utility.yul\":1440:1462   */\n  lt\n    /* \"#utility.yul\":1419:1437   */\n  0xffffffffffffffff\n    /* \"#utility.yul\":1407:1417   */\n  dup3\n    /* \"#utility.yul\":1404:1438   */\n  gt\n    /* \"#utility.yul\":1401:1463   */\n  or\n    /* \"#utility.yul\":1398:1486   */\n  iszero\n  tag_65\n  jumpi\n    /* \"#utility.yul\":1466:1484   */\n  tag_66\n  tag_18\n  jump\t// in\ntag_66:\n    /* \"#utility.yul\":1398:1486   */\ntag_65:\n    /* \"#utility.yul\":1506:1516   */\n  dup1\n    /* \"#utility.yul\":1502:1504   */\n  0x40\n    /* \"#utility.yul\":1495:1517   */\n  mstore\n    /* \"#utility.yul\":1285:1523   */\n  pop\n    /* \"#utility.yul\":1242:1523   */\n  pop\n  pop\n  jump\t// out\n    /* \"#utility.yul\":1529:1658   */\ntag_20:\n    /* \"#utility.yul\":1563:1569   */\n  0x00\n    /* \"#utility.yul\":1590:1610   */\n  tag_68\n  tag_9\n  jump\t// in\ntag_68:\n    /* \"#utility.yul\":1580:1610   */\n  swap1\n  pop\n    /* \"#utility.yul\":1619:1652   */\n  tag_69\n    /* \"#utility.yul\":1647:1651   */\n  dup3\n    /* \"#utility.yul\":1639:1645   */\n  dup3\n    /* \"#utility.yul\":1619:1652   */\n  tag_19\n  jump\t// in\ntag_69:\n    /* \"#utility.yul\":1529:1658   */\n  swap2\n  swap1\n  pop\n  jump\t// out\n    /* \"#utility.yul\":1664:1972   */\ntag_21:\n    /* \"#utility.yul\":1726:1730   */\n  0x00\n    /* \"#utility.yul\":1816:1834   */\n  0xffffffffffffffff\n    /* \"#utility.yul\":1808:1814   */\n  dup3\n    /* \"#utility.yul\":1805:1835   */\n  gt\n    /* \"#utility.yul\":1802:1858   */\n  iszero\n  tag_71\n  jumpi\n    /* \"#utility.yul\":1838:1856   */\n  tag_72\n  tag_18\n  jump\t// in\ntag_72:\n    /* \"#utility.yul\":1802:1858   */\ntag_71:\n    /* \"#utility.yul\":1876:1905   */\n  tag_73\n    /* \"#utility.yul\":1898:1904   */\n  dup3\n    /* \"#utility.yul\":1876:1905   */\n  tag_17\n  jump\t// in\ntag_73:\n    /* \"#utility.yul\":1868:1905   */\n  swap1\n  pop\n    /* \"#utility.yul\":1960:1964   */\n  0x20\n    /* \"#utility.yul\":1954:1958   */\n  dup2\n    /* \"#utility.yul\":1950:1965   */\n  add\n    /* \"#utility.yul\":1942:1965   */\n  swap1\n  pop\n    /* \"#utility.yul\":1664:1972   */\n  swap2\n  swap1\n  pop\n  jump\t// out\n    /* \"#utility.yul\":1978:2117   */\ntag_22:\n    /* \"#utility.yul\":2067:2073   */\n  dup3\n    /* \"#utility.yul\":2062:2065   */\n  dup2\n    /* \"#utility.yul\":2057:2060   */\n  dup4\n    /* \"#utility.yul\":2051:2074   */\n  mcopy\n    /* \"#utility.yul\":2108:2109   */\n  0x00\n    /* \"#utility.yul\":2099:2105   */\n  dup4\n    /* \"#utility.yul\":2094:2097   */\n  dup4\n    /* \"#utility.yul\":2090:2106   */\n  add\n    /* \"#utility.yul\":2083:2110   */\n  mstore\n    /* \"#utility.yul\":1978:2117   */\n  pop\n  pop\n  pop\n  jump\t// out\n    /* \"#utility.yul\":2123:2557   */\ntag_23:\n    /* \"#utility.yul\":2212:2217   */\n  0x00\n    /* \"#utility.yul\":2237:2303   */\n  tag_76\n    /* \"#utility.yul\":2253:2302   */\n  tag_77\n    /* \"#utility.yul\":2295:2301   */\n  dup5\n    /* \"#utility.yul\":2253:2302   */\n  tag_21\n  jump\t// in\ntag_77:\n    /* \"#utility.yul\":2237:2303   */\n  tag_20\n  jump\t// in\ntag_76:\n    /* \"#utility.yul\":2228:2303   */\n  swap1\n  pop\n    /* \"#utility.yul\":2326:2332   */\n  dup3\n    /* \"#utility.yul\":2319:2324   */\n  dup2\n    /* \"#utility.yul\":2312:2333   */\n  mstore\n    /* \"#utility.yul\":2364:2368   */\n  0x20\n    /* \"#utility.yul\":2357:2362   */\n  dup2\n    /* \"#utility.yul\":2353:2369   */\n  add\n    /* \"#utility.yul\":2402:2405   */\n  dup5\n    /* \"#utility.yul\":2393:2399   */\n  dup5\n    /* \"#utility.yul\":2388:2391   */\n  dup5\n    /* \"#utility.yul\":2384:2400   */\n  add\n    /* \"#utility.yul\":2381:2406   */\n  gt\n    /* \"#utility.yul\":2378:2490   */\n  iszero\n  tag_78\n  jumpi\n    /* \"#utility.yul\":2409:2488   */\n  tag_79\n  tag_16\n  jump\t// in\ntag_79:\n    /* \"#utility.yul\":2378:2490   */\ntag_78:\n    /* \"#utility.yul\":2499:2551   */\n  tag_80\n    /* \"#utility.yul\":2544:2550   */\n  dup5\n    /* \"#utility.yul\":2539:2542   */\n  dup3\n    /* \"#utility.yul\":2534:2537   */\n  dup6\n    /* \"#utility.yul\":2499:2551   */\n  tag_22\n  jump\t// in\ntag_80:\n    /* \"#utility.yul\":2218:2557   */\n  pop\n    /* \"#utility.yul\":2123:2557   */\n  swap4\n  swap3\n  pop\n  pop\n  pop\n  jump\t// out\n    /* \"#utility.yul\":2577:2932   */\ntag_24:\n    /* \"#utility.yul\":2644:2649   */\n  0x00\n    /* \"#utility.yul\":2693:2696   */\n  dup3\n    /* \"#utility.yul\":2686:2690   */\n  0x1f\n    /* \"#utility.yul\":2678:2684   */\n  dup4\n    /* \"#utility.yul\":2674:2691   */\n  add\n    /* \"#utility.yul\":2670:2697   */\n  slt\n    /* \"#utility.yul\":2660:2782   */\n  tag_82\n  jumpi\n    /* \"#utility.yul\":2701:2780   */\n  tag_83\n  tag_15\n  jump\t// in\ntag_83:\n    /* \"#utility.yul\":2660:2782   */\ntag_82:\n    /* \"#utility.yul\":2811:2817   */\n  dup2\n    /* \"#utility.yul\":2805:2818   */\n  mload\n    /* \"#utility.yul\":2836:2926   */\n  tag_84\n    /* \"#utility.yul\":2922:2925   */\n  dup5\n    /* \"#utility.yul\":2914:2920   */\n  dup3\n    /* \"#utility.yul\":2907:2911   */\n  0x20\n    /* \"#utility.yul\":2899:2905   */\n  dup7\n    /* \"#utility.yul\":2895:2912   */\n  add\n    /* \"#utility.yul\":2836:2926   */\n  tag_23\n  jump\t// in\ntag_84:\n    /* \"#utility.yul\":2827:2926   */\n  swap2\n  pop\n    /* \"#utility.yul\":2650:2932   */\n  pop\n    /* \"#utility.yul\":2577:2932   */\n  swap3\n  swap2\n  pop\n  pop\n  jump\t// out\n    /* \"#utility.yul\":2938:3031   */\ntag_25:\n    /* \"#utility.yul\":2974:2981   */\n  0x00\n    /* \"#utility.yul\":3014:3024   */\n  0xffffffff\n    /* \"#utility.yul\":3007:3012   */\n  dup3\n    /* \"#utility.yul\":3003:3025   */\n  and\n    /* \"#utility.yul\":2992:3025   */\n  swap1\n  pop\n    /* \"#utility.yul\":2938:3031   */\n  swap2\n  swap1\n  pop\n  jump\t// out\n    /* \"#utility.yul\":3037:3157   */\ntag_26:\n    /* \"#utility.yul\":3109:3132   */\n  tag_87\n    /* \"#utility.yul\":3126:3131   */\n  dup2\n    /* \"#utility.yul\":3109:3132   */\n  tag_25\n  jump\t// in\ntag_87:\n    /* \"#utility.yul\":3102:3107   */\n  dup2\n    /* \"#utility.yul\":3099:3133   */\n  eq\n    /* \"#utility.yul\":3089:3151   */\n  tag_88\n  jumpi\n    /* \"#utility.yul\":3147:3148   */\n  0x00\n    /* \"#utility.yul\":3144:3145   */\n  dup1\n    /* \"#utility.yul\":3137:3149   */\n  revert\n    /* \"#utility.yul\":3089:3151   */\ntag_88:\n    /* \"#utility.yul\":3037:3157   */\n  pop\n  jump\t// out\n    /* \"#utility.yul\":3163:3304   */\ntag_27:\n    /* \"#utility.yul\":3219:3224   */\n  0x00\n    /* \"#utility.yul\":3250:3256   */\n  dup2\n    /* \"#utility.yul\":3244:3257   */\n  mload\n    /* \"#utility.yul\":3235:3257   */\n  swap1\n  pop\n    /* \"#utility.yul\":3266:3298   */\n  tag_90\n    /* \"#utility.yul\":3292:3297   */\n  dup2\n    /* \"#utility.yul\":3266:3298   */\n  tag_26\n  jump\t// in\ntag_90:\n    /* \"#utility.yul\":3163:3304   */\n  swap3\n  swap2\n  pop\n  pop\n  jump\t// out\n    /* \"#utility.yul\":3310:3387   */\ntag_28:\n    /* \"#utility.yul\":3347:3354   */\n  0x00\n    /* \"#utility.yul\":3376:3381   */\n  dup2\n    /* \"#utility.yul\":3365:3381   */\n  swap1\n  pop\n    /* \"#utility.yul\":3310:3387   */\n  swap2\n  swap1\n  pop\n  jump\t// out\n    /* \"#utility.yul\":3393:3515   */\ntag_29:\n    /* \"#utility.yul\":3466:3490   */\n  tag_93\n    /* \"#utility.yul\":3484:3489   */\n  dup2\n    /* \"#utility.yul\":3466:3490   */\n  tag_28\n  jump\t// in\ntag_93:\n    /* \"#utility.yul\":3459:3464   */\n  dup2\n    /* \"#utility.yul\":3456:3491   */\n  eq\n    /* \"#utility.yul\":3446:3509   */\n  tag_94\n  jumpi\n    /* \"#utility.yul\":3505:3506   */\n  0x00\n    /* \"#utility.yul\":3502:3503   */\n  dup1\n    /* \"#utility.yul\":3495:3507   */\n  revert\n    /* \"#utility.yul\":3446:3509   */\ntag_94:\n    /* \"#utility.yul\":3393:3515   */\n  pop\n  jump\t// out\n    /* \"#utility.yul\":3521:3664   */\ntag_30:\n    /* \"#utility.yul\":3578:3583   */\n  0x00\n    /* \"#utility.yul\":3609:3615   */\n  dup2\n    /* \"#utility.yul\":3603:3616   */\n  mload\n    /* \"#utility.yul\":3594:3616   */\n  swap1\n  pop\n    /* \"#utility.yul\":3625:3658   */\n  tag_96\n    /* \"#utility.yul\":3652:3657   */\n  dup2\n    /* \"#utility.yul\":3625:3658   */\n  tag_29\n  jump\t// in\ntag_96:\n    /* \"#utility.yul\":3521:3664   */\n  swap3\n  swap2\n  pop\n  pop\n  jump\t// out\n    /* \"#utility.yul\":3670:4659   */\ntag_3:\n    /* \"#utility.yul\":3775:3781   */\n  0x00\n    /* \"#utility.yul\":3783:3789   */\n  dup1\n    /* \"#utility.yul\":3791:3797   */\n  0x00\n    /* \"#utility.yul\":3799:3805   */\n  dup1\n    /* \"#utility.yul\":3848:3851   */\n  0x80\n    /* \"#utility.yul\":3836:3845   */\n  dup6\n    /* \"#utility.yul\":3827:3834   */\n  dup8\n    /* \"#utility.yul\":3823:3846   */\n  sub\n    /* \"#utility.yul\":3819:3852   */\n  slt\n    /* \"#utility.yul\":3816:3936   */\n  iszero\n  tag_98\n  jumpi\n    /* \"#utility.yul\":3855:3934   */\n  tag_99\n  tag_10\n  jump\t// in\ntag_99:\n    /* \"#utility.yul\":3816:3936   */\ntag_98:\n    /* \"#utility.yul\":3975:3976   */\n  0x00\n    /* \"#utility.yul\":4000:4063   */\n  tag_100\n    /* \"#utility.yul\":4055:4062   */\n  dup8\n    /* \"#utility.yul\":4046:4052   */\n  dup3\n    /* \"#utility.yul\":4035:4044   */\n  dup9\n    /* \"#utility.yul\":4031:4053   */\n  add\n    /* \"#utility.yul\":4000:4063   */\n  tag_14\n  jump\t// in\ntag_100:\n    /* \"#utility.yul\":3990:4063   */\n  swap5\n  pop\n    /* \"#utility.yul\":3946:4073   */\n  pop\n    /* \"#utility.yul\":4133:4135   */\n  0x20\n    /* \"#utility.yul\":4122:4131   */\n  dup6\n    /* \"#utility.yul\":4118:4136   */\n  add\n    /* \"#utility.yul\":4112:4137   */\n  mload\n    /* \"#utility.yul\":4164:4182   */\n  0xffffffffffffffff\n    /* \"#utility.yul\":4156:4162   */\n  dup2\n    /* \"#utility.yul\":4153:4183   */\n  gt\n    /* \"#utility.yul\":4150:4267   */\n  iszero\n  tag_101\n  jumpi\n    /* \"#utility.yul\":4186:4265   */\n  tag_102\n  tag_11\n  jump\t// in\ntag_102:\n    /* \"#utility.yul\":4150:4267   */\ntag_101:\n    /* \"#utility.yul\":4291:4365   */\n  tag_103\n    /* \"#utility.yul\":4357:4364   */\n  dup8\n    /* \"#utility.yul\":4348:4354   */\n  dup3\n    /* \"#utility.yul\":4337:4346   */\n  dup9\n    /* \"#utility.yul\":4333:4355   */\n  add\n    /* \"#utility.yul\":4291:4365   */\n  tag_24\n  jump\t// in\ntag_103:\n    /* \"#utility.yul\":4281:4365   */\n  swap4\n  pop\n    /* \"#utility.yul\":4083:4375   */\n  pop\n    /* \"#utility.yul\":4414:4416   */\n  0x40\n    /* \"#utility.yul\":4440:4503   */\n  tag_104\n    /* \"#utility.yul\":4495:4502   */\n  dup8\n    /* \"#utility.yul\":4486:4492   */\n  dup3\n    /* \"#utility.yul\":4475:4484   */\n  dup9\n    /* \"#utility.yul\":4471:4493   */\n  add\n    /* \"#utility.yul\":4440:4503   */\n  tag_27\n  jump\t// in\ntag_104:\n    /* \"#utility.yul\":4430:4503   */\n  swap3\n  pop\n    /* \"#utility.yul\":4385:4513   */\n  pop\n    /* \"#utility.yul\":4552:4554   */\n  0x60\n    /* \"#utility.yul\":4578:4642   */\n  tag_105\n    /* \"#utility.yul\":4634:4641   */\n  dup8\n    /* \"#utility.yul\":4625:4631   */\n  dup3\n    /* \"#utility.yul\":4614:4623   */\n  dup9\n    /* \"#utility.yul\":4610:4632   */\n  add\n    /* \"#utility.yul\":4578:4642   */\n  tag_30\n  jump\t// in\ntag_105:\n    /* \"#utility.yul\":4568:4642   */\n  swap2\n  pop\n    /* \"#utility.yul\":4523:4652   */\n  pop\n    /* \"#utility.yul\":3670:4659   */\n  swap3\n  swap6\n  swap2\n  swap5\n  pop\n  swap3\n  pop\n  jump\t// out\n    /* \"#utility.yul\":4665:4764   */\ntag_31:\n    /* \"#utility.yul\":4717:4723   */\n  0x00\n    /* \"#utility.yul\":4751:4756   */\n  dup2\n    /* \"#utility.yul\":4745:4757   */\n  mload\n    /* \"#utility.yul\":4735:4757   */\n  swap1\n  pop\n    /* \"#utility.yul\":4665:4764   */\n  swap2\n  swap1\n  pop\n  jump\t// out\n    /* \"#utility.yul\":4770:4950   */\ntag_32:\n    /* \"#utility.yul\":4818:4895   */\n  0x4e487b7100000000000000000000000000000000000000000000000000000000\n    /* \"#utility.yul\":4815:4816   */\n  0x00\n    /* \"#utility.yul\":4808:4896   */\n  mstore\n    /* \"#utility.yul\":4915:4919   */\n  0x22\n    /* \"#utility.yul\":4912:4913   */\n  0x04\n    /* \"#utility.yul\":4905:4920   */\n  mstore\n    /* \"#utility.yul\":4939:4943   */\n  0x24\n    /* \"#utility.yul\":4936:4937   */\n  0x00\n    /* \"#utility.yul\":4929:4944   */\n  revert\n    /* \"#utility.yul\":4956:5276   */\ntag_33:\n    /* \"#utility.yul\":5000:5006   */\n  0x00\n    /* \"#utility.yul\":5037:5038   */\n  0x02\n    /* \"#utility.yul\":5031:5035   */\n  dup3\n    /* \"#utility.yul\":5027:5039   */\n  div\n    /* \"#utility.yul\":5017:5039   */\n  swap1\n  pop\n    /* \"#utility.yul\":5084:5085   */\n  0x01\n    /* \"#utility.yul\":5078:5082   */\n  dup3\n    /* \"#utility.yul\":5074:5086   */\n  and\n    /* \"#utility.yul\":5105:5123   */\n  dup1\n    /* \"#utility.yul\":5095:5176   */\n  tag_109\n  jumpi\n    /* \"#utility.yul\":5161:5165   */\n  0x7f\n    /* \"#utility.yul\":5153:5159   */\n  dup3\n    /* \"#utility.yul\":5149:5166   */\n  and\n    /* \"#utility.yul\":5139:5166   */\n  swap2\n  pop\n    /* \"#utility.yul\":5095:5176   */\ntag_109:\n    /* \"#utility.yul\":5223:5225   */\n  0x20\n    /* \"#utility.yul\":5215:5221   */\n  dup3\n    /* \"#utility.yul\":5212:5226   */\n  lt\n    /* \"#utility.yul\":5192:5210   */\n  dup2\n    /* \"#utility.yul\":5189:5227   */\n  sub\n    /* \"#utility.yul\":5186:5270   */\n  tag_110\n  jumpi\n    /* \"#utility.yul\":5242:5260   */\n  tag_111\n  tag_32\n  jump\t// in\ntag_111:\n    /* \"#utility.yul\":5186:5270   */\ntag_110:\n    /* \"#utility.yul\":5007:5276   */\n  pop\n    /* \"#utility.yul\":4956:5276   */\n  swap2\n  swap1\n  pop\n  jump\t// out\n    /* \"#utility.yul\":5282:5423   */\ntag_34:\n    /* \"#utility.yul\":5331:5335   */\n  0x00\n    /* \"#utility.yul\":5354:5357   */\n  dup2\n    /* \"#utility.yul\":5346:5357   */\n  swap1\n  pop\n    /* \"#utility.yul\":5377:5380   */\n  dup2\n    /* \"#utility.yul\":5374:5375   */\n  0x00\n    /* \"#utility.yul\":5367:5381   */\n  mstore\n    /* \"#utility.yul\":5411:5415   */\n  0x20\n    /* \"#utility.yul\":5408:5409   */\n  0x00\n    /* \"#utility.yul\":5398:5416   */\n  keccak256\n    /* \"#utility.yul\":5390:5416   */\n  swap1\n  pop\n    /* \"#utility.yul\":5282:5423   */\n  swap2\n  swap1\n  pop\n  jump\t// out\n    /* \"#utility.yul\":5429:5522   */\ntag_35:\n    /* \"#utility.yul\":5466:5472   */\n  0x00\n    /* \"#utility.yul\":5513:5515   */\n  0x20\n    /* \"#utility.yul\":5508:5510   */\n  0x1f\n    /* \"#utility.yul\":5501:5506   */\n  dup4\n    /* \"#utility.yul\":5497:5511   */\n  add\n    /* \"#utility.yul\":5493:5516   */\n  div\n    /* \"#utility.yul\":5483:5516   */\n  swap1\n  pop\n    /* \"#utility.yul\":5429:5522   */\n  swap2\n  swap1\n  pop\n  jump\t// out\n    /* \"#utility.yul\":5528:5635   */\ntag_36:\n    /* \"#utility.yul\":5572:5580   */\n  0x00\n    /* \"#utility.yul\":5622:5627   */\n  dup3\n    /* \"#utility.yul\":5616:5620   */\n  dup3\n    /* \"#utility.yul\":5612:5628   */\n  shl\n    /* \"#utility.yul\":5591:5628   */\n  swap1\n  pop\n    /* \"#utility.yul\":5528:5635   */\n  swap3\n  swap2\n  pop\n  pop\n  jump\t// out\n    /* \"#utility.yul\":5641:6034   */\ntag_37:\n    /* \"#utility.yul\":5710:5716   */\n  0x00\n    /* \"#utility.yul\":5760:5761   */\n  0x08\n    /* \"#utility.yul\":5748:5758   */\n  dup4\n    /* \"#utility.yul\":5744:5762   */\n  mul\n    /* \"#utility.yul\":5783:5880   */\n  tag_116\n    /* \"#utility.yul\":5813:5879   */\n  0xffffffffffffffffffffffffffffffffffffffffffffffffffffffffffffffff\n    /* \"#utility.yul\":5802:5811   */\n  dup3\n    /* \"#utility.yul\":5783:5880   */\n  tag_36\n  jump\t// in\ntag_116:\n    /* \"#utility.yul\":5901:5940   */\n  tag_117\n    /* \"#utility.yul\":5931:5939   */\n  dup7\n    /* \"#utility.yul\":5920:5929   */\n  dup4\n    /* \"#utility.yul\":5901:5940   */\n  tag_36\n  jump\t// in\ntag_117:\n    /* \"#utility.yul\":5889:5940   */\n  swap6\n  pop\n    /* \"#utility.yul\":5973:5977   */\n  dup1\n    /* \"#utility.yul\":5969:5978   */\n  not\n    /* \"#utility.yul\":5962:5967   */\n  dup5\n    /* \"#utility.yul\":5958:5979   */\n  and\n    /* \"#utility.yul\":5949:5979   */\n  swap4\n  pop\n    /* \"#utility.yul\":6022:6026   */\n  dup1\n    /* \"#utility.yul\":6012:6020   */\n  dup7\n    /* \"#utility.yul\":6008:6027   */\n  and\n    /* \"#utility.yul\":6001:6006   */\n  dup5\n    /* \"#utility.yul\":5998:6028   */\n  or\n    /* \"#utility.yul\":5988:6028   */\n  swap3\n  pop\n    /* \"#utility.yul\":5717:6034   */\n  pop\n  pop\n    /* \"#utility.yul\":5641:6034   */\n  swap4\n  swap3\n  pop\n  pop\n  pop\n  jump\t// out\n    /* \"#utility.yul\":6040:6100   */\ntag_38:\n    /* \"#utility.yul\":6068:6071   */\n  0x00\n    /* \"#utility.yul\":6089:6094   */\n  dup2\n    /* \"#utility.yul\":6082:6094   */\n  swap1\n  pop\n    /* \"#utility.yul\":6040:6100   */\n  swap2\n  swap1\n  pop\n  jump\t// out\n    /* \"#utility.yul\":6106:6248   */\ntag_39:\n    /* \"#utility.yul\":6156:6165   */\n  0x00\n    /* \"#utility.yul\":6189:6242   */\n  tag_120\n    /* \"#utility.yul\":6207:6241   */\n  tag_121\n    /* \"#utility.yul\":6216:6240   */\n  tag_122\n    /* \"#utility.yul\":6234:6239   */\n  dup5\n    /* \"#utility.yul\":6216:6240   */\n  tag_28\n  jump\t// in\ntag_122:\n    /* \"#utility.yul\":6207:6241   */\n  tag_38\n  jump\t// in\ntag_121:\n    /* \"#utility.yul\":6189:6242   */\n  tag_28\n  jump\t// in\ntag_120:\n    /* \"#utility.yul\":6176:6242   */\n  swap1\n  pop\n    /* \"#utility.yul\":6106:6248   */\n  swap2\n  swap1\n  pop\n  jump\t// out\n    /* \"#utility.yul\":6254:6329   */\ntag_40:\n    /* \"#utility.yul\":6297:6300   */\n  0x00\n    /* \"#utility.yul\":6318:6323   */\n  dup2\n    /* \"#utility.yul\":6311:6323   */\n  swap1\n  pop\n    /* \"#utility.yul\":6254:6329   */\n  swap2\n  swap1\n  pop\n  jump\t// out\n    /* \"#utility.yul\":6335:6604   */\ntag_41:\n    /* \"#utility.yul\":6445:6484   */\n  tag_125\n    /* \"#utility.yul\":6476:6483   */\n  dup4\n    /* \"#utility.yul\":6445:6484   */\n  tag_39\n  jump\t// in\ntag_125:\n    /* \"#utility.yul\":6506:6597   */\n  tag_126\n    /* \"#utility.yul\":6555:6596   */\n  tag_127\n    /* \"#utility.yul\":6579:6595   */\n  dup3\n    /* \"#utility.yul\":6555:6596   */\n  tag_40\n  jump\t// in\ntag_127:\n    /* \"#utility.yul\":6547:6553   */\n  dup5\n    /* \"#utility.yul\":6540:6544   */\n  dup5\n    /* \"#utility.yul\":6534:6545   */\n  sload\n    /* \"#utility.yul\":6506:6597   */\n  tag_37\n  jump\t// in\ntag_126:\n    /* \"#utility.yul\":6500:6504   */\n  dup3\n    /* \"#utility.yul\":6493:6598   */\n  sstore\n    /* \"#utility.yul\":6411:6604   */\n  pop\n    /* \"#utility.yul\":6335:6604   */\n  pop\n  pop\n  pop\n  jump\t// out\n    /* \"#utility.yul\":6610:6683   */\ntag_42:\n    /* \"#utility.yul\":6655:6658   */\n  0x00\n    /* \"#utility.yul\":6610:6683   */\n  swap1\n  jump\t// out\n    /* \"#utility.yul\":6689:6878   */\ntag_43:\n    /* \"#utility.yul\":6766:6798   */\n  tag_130\n  tag_42\n  jump\t// in\ntag_130:\n    /* \"#utility.yul\":6807:6872   */\n  tag_131\n    /* \"#utility.yul\":6865:6871   */\n  dup2\n    /* \"#utility.yul\":6857:6863   */\n  dup5\n    /* \"#utility.yul\":6851:6855   */\n  dup5\n    /* \"#utility.yul\":6807:6872   */\n  tag_41\n  jump\t// in\ntag_131:\n    /* \"#utility.yul\":6742:6878   */\n  pop\n    /* \"#utility.yul\":6689:6878   */\n  pop\n  pop\n  jump\t// out\n    /* \"#utility.yul\":6884:7070   */\ntag_44:\n    /* \"#utility.yul\":6944:7064   */\ntag_133:\n    /* \"#utility.yul\":6961:6964   */\n  dup2\n    /* \"#utility.yul\":6954:6959   */\n  dup2\n    /* \"#utility.yul\":6951:6965   */\n  lt\n    /* \"#utility.yul\":6944:7064   */\n  iszero\n  tag_135\n  jumpi\n    /* \"#utility.yul\":7015:7054   */\n  tag_136\n    /* \"#utility.yul\":7052:7053   */\n  0x00\n    /* \"#utility.yul\":7045:7050   */\n  dup3\n    /* \"#utility.yul\":7015:7054   */\n  tag_43\n  jump\t// in\ntag_136:\n    /* \"#utility.yul\":6988:6989   */\n  0x01\n    /* \"#utility.yul\":6981:6986   */\n  dup2\n    /* \"#utility.yul\":6977:6990   */\n  add\n    /* \"#utility.yul\":6968:6990   */\n  swap1\n  pop\n    /* \"#utility.yul\":6944:7064   */\n  jump(tag_133)\ntag_135:\n    /* \"#utility.yul\":6884:7070   */\n  pop\n  pop\n  jump\t// out\n    /* \"#utility.yul\":7076:7619   */\ntag_45:\n    /* \"#utility.yul\":7177:7179   */\n  0x1f\n    /* \"#utility.yul\":7172:7175   */\n  dup3\n    /* \"#utility.yul\":7169:7180   */\n  gt\n    /* \"#utility.yul\":7166:7612   */\n  iszero\n  tag_138\n  jumpi\n    /* \"#utility.yul\":7211:7249   */\n  tag_139\n    /* \"#utility.yul\":7243:7248   */\n  dup2\n    /* \"#utility.yul\":7211:7249   */\n  tag_34\n  jump\t// in\ntag_139:\n    /* \"#utility.yul\":7295:7324   */\n  tag_140\n    /* \"#utility.yul\":7313:7323   */\n  dup5\n    /* \"#utility.yul\":7295:7324   */\n  tag_35\n  jump\t// in\ntag_140:\n    /* \"#utility.yul\":7285:7293   */\n  dup2\n    /* \"#utility.yul\":7281:7325   */\n  add\n    /* \"#utility.yul\":7478:7480   */\n  0x20\n    /* \"#utility.yul\":7466:7476   */\n  dup6\n    /* \"#utility.yul\":7463:7481   */\n  lt\n    /* \"#utility.yul\":7460:7509   */\n  iszero\n  tag_141\n  jumpi\n    /* \"#utility.yul\":7499:7507   */\n  dup2\n    /* \"#utility.yul\":7484:7507   */\n  swap1\n  pop\n    /* \"#utility.yul\":7460:7509   */\ntag_141:\n    /* \"#utility.yul\":7522:7602   */\n  tag_142\n    /* \"#utility.yul\":7578:7600   */\n  tag_143\n    /* \"#utility.yul\":7596:7599   */\n  dup6\n    /* \"#utility.yul\":7578:7600   */\n  tag_35\n  jump\t// in\ntag_143:\n    /* \"#utility.yul\":7568:7576   */\n  dup4\n    /* \"#utility.yul\":7564:7601   */\n  add\n    /* \"#utility.yul\":7551:7562   */\n  dup3\n    /* \"#utility.yul\":7522:7602   */\n  tag_44\n  jump\t// in\ntag_142:\n    /* \"#utility.yul\":7181:7612   */\n  pop\n  pop\n    /* \"#utility.yul\":7166:7612   */\ntag_138:\n    /* \"#utility.yul\":7076:7619   */\n  pop\n  pop\n  pop\n  jump\t// out\n    /* \"#utility.yul\":7625:7742   */\ntag_46:\n    /* \"#utility.yul\":7679:7687   */\n  0x00\n    /* \"#utility.yul\":7729:7734   */\n  dup3\n    /* \"#utility.yul\":7723:7727   */\n  dup3\n    /* \"#utility.yul\":7719:7735   */\n  shr\n    /* \"#utility.yul\":7698:7735   */\n  swap1\n  pop\n    /* \"#utility.yul\":7625:7742   */\n  swap3\n  swap2\n  pop\n  pop\n  jump\t// out\n    /* \"#utility.yul\":7748:7917   */\ntag_47:\n    /* \"#utility.yul\":7792:7798   */\n  0x00\n    /* \"#utility.yul\":7825:7876   */\n  tag_146\n    /* \"#utility.yul\":7873:7874   */\n  0x00\n    /* \"#utility.yul\":7869:7875   */\n  not\n    /* \"#utility.yul\":7861:7866   */\n  dup5\n    /* \"#utility.yul\":7858:7859   */\n  0x08\n    /* \"#utility.yul\":7854:7867   */\n  mul\n    /* \"#utility.yul\":7825:7876   */\n  tag_46\n  jump\t// in\ntag_146:\n    /* \"#utility.yul\":7821:7877   */\n  not\n    /* \"#utility.yul\":7906:7910   */\n  dup1\n    /* \"#utility.yul\":7900:7904   */\n  dup4\n    /* \"#utility.yul\":7896:7911   */\n  and\n    /* \"#utility.yul\":7886:7911   */\n  swap2\n  pop\n    /* \"#utility.yul\":7799:7917   */\n  pop\n    /* \"#utility.yul\":7748:7917   */\n  swap3\n  swap2\n  pop\n  pop\n  jump\t// out\n    /* \"#utility.yul\":7922:8217   */\ntag_48:\n    /* \"#utility.yul\":7998:8002   */\n  0x00\n    /* \"#utility.yul\":8144:8173   */\n  tag_148\n    /* \"#utility.yul\":8169:8172   */\n  dup4\n    /* \"#utility.yul\":8163:8167   */\n  dup4\n    /* \"#utility.yul\":8144:8173   */\n  tag_47\n  jump\t// in\ntag_148:\n    /* \"#utility.yul\":8136:8173   */\n  swap2\n  pop\n    /* \"#utility.yul\":8206:8209   */\n  dup3\n    /* \"#utility.yul\":8203:8204   */\n  0x02\n    /* \"#utility.yul\":8199:8210   */\n  mul\n    /* \"#utility.yul\":8193:8197   */\n  dup3\n    /* \"#utility.yul\":8190:8211   */\n  or\n    /* \"#utility.yul\":8182:8211   */\n  swap1\n  pop\n    /* \"#utility.yul\":7922:8217   */\n  swap3\n  swap2\n  pop\n  pop\n  jump\t// out\n    /* \"#utility.yul\":8222:9617   */\ntag_7:\n    /* \"#utility.yul\":8339:8376   */\n  tag_150\n    /* \"#utility.yul\":8372:8375   */\n  dup3\n    /* \"#utility.yul\":8339:8376   */\n  tag_31\n  jump\t// in\ntag_150:\n    /* \"#utility.yul\":8441:8459   */\n  0xffffffffffffffff\n    /* \"#utility.yul\":8433:8439   */\n  dup2\n    /* \"#utility.yul\":8430:8460   */\n  gt\n    /* \"#utility.yul\":8427:8483   */\n  iszero\n  tag_151\n  jumpi\n    /* \"#utility.yul\":8463:8481   */\n  tag_152\n  tag_18\n  jump\t// in\ntag_152:\n    /* \"#utility.yul\":8427:8483   */\ntag_151:\n    /* \"#utility.yul\":8507:8545   */\n  tag_153\n    /* \"#utility.yul\":8539:8543   */\n  dup3\n    /* \"#utility.yul\":8533:8544   */\n  sload\n    /* \"#utility.yul\":8507:8545   */\n  tag_33\n  jump\t// in\ntag_153:\n    /* \"#utility.yul\":8592:8659   */\n  tag_154\n    /* \"#utility.yul\":8652:8658   */\n  dup3\n    /* \"#utility.yul\":8644:8650   */\n  dup3\n    /* \"#utility.yul\":8638:8642   */\n  dup6\n    /* \"#utility.yul\":8592:8659   */\n  tag_45\n  jump\t// in\ntag_154:\n    /* \"#utility.yul\":8686:8687   */\n  0x00\n    /* \"#utility.yul\":8710:8714   */\n  0x20\n    /* \"#utility.yul\":8697:8714   */\n  swap1\n  pop\n    /* \"#utility.yul\":8742:8744   */\n  0x1f\n    /* \"#utility.yul\":8734:8740   */\n  dup4\n    /* \"#utility.yul\":8731:8745   */\n  gt\n    /* \"#utility.yul\":8759:8760   */\n  0x01\n    /* \"#utility.yul\":8754:9372   */\n  dup2\n  eq\n  tag_156\n  jumpi\n    /* \"#utility.yul\":9416:9417   */\n  0x00\n    /* \"#utility.yul\":9433:9439   */\n  dup5\n    /* \"#utility.yul\":9430:9507   */\n  iszero\n  tag_157\n  jumpi\n    /* \"#utility.yul\":9482:9491   */\n  dup3\n    /* \"#utility.yul\":9477:9480   */\n  dup8\n    /* \"#utility.yul\":9473:9492   */\n  add\n    /* \"#utility.yul\":9467:9493   */\n  mload\n    /* \"#utility.yul\":9458:9493   */\n  swap1\n  pop\n    /* \"#utility.yul\":9430:9507   */\ntag_157:\n    /* \"#utility.yul\":9533:9600   */\n  tag_158\n    /* \"#utility.yul\":9593:9599   */\n  dup6\n    /* \"#utility.yul\":9586:9591   */\n  dup3\n    /* \"#utility.yul\":9533:9600   */\n  tag_48\n  jump\t// in\ntag_158:\n    /* \"#utility.yul\":9527:9531   */\n  dup7\n    /* \"#utility.yul\":9520:9601   */\n  sstore\n    /* \"#utility.yul\":9389:9611   */\n  pop\n    /* \"#utility.yul\":8724:9611   */\n  jump(tag_155)\n    /* \"#utility.yul\":8754:9372   */\ntag_156:\n    /* \"#utility.yul\":8806:8810   */\n  0x1f\n    /* \"#utility.yul\":8802:8811   */\n  not\n    /* \"#utility.yul\":8794:8800   */\n  dup5\n    /* \"#utility.yul\":8790:8812   */\n  and\n    /* \"#utility.yul\":8840:8877   */\n  tag_159\n    /* \"#utility.yul\":8872:8876   */\n  dup7\n    /* \"#utility.yul\":8840:8877   */\n  tag_34\n  jump\t// in\ntag_159:\n    /* \"#utility.yul\":8899:8900   */\n  0x00\n    /* \"#utility.yul\":8913:9121   */\ntag_160:\n    /* \"#utility.yul\":8927:8934   */\n  dup3\n    /* \"#utility.yul\":8924:8925   */\n  dup2\n    /* \"#utility.yul\":8921:8935   */\n  lt\n    /* \"#utility.yul\":8913:9121   */\n  iszero\n  tag_162\n  jumpi\n    /* \"#utility.yul\":9006:9015   */\n  dup5\n    /* \"#utility.yul\":9001:9004   */\n  dup10\n    /* \"#utility.yul\":8997:9016   */\n  add\n    /* \"#utility.yul\":8991:9017   */\n  mload\n    /* \"#utility.yul\":8983:8989   */\n  dup3\n    /* \"#utility.yul\":8976:9018   */\n  sstore\n    /* \"#utility.yul\":9057:9058   */\n  0x01\n    /* \"#utility.yul\":9049:9055   */\n  dup3\n    /* \"#utility.yul\":9045:9059   */\n  add\n    /* \"#utility.yul\":9035:9059   */\n  swap2\n  pop\n    /* \"#utility.yul\":9104:9106   */\n  0x20\n    /* \"#utility.yul\":9093:9102   */\n  dup6\n    /* \"#utility.yul\":9089:9107   */\n  add\n    /* \"#utility.yul\":9076:9107   */\n  swap5\n  pop\n    /* \"#utility.yul\":8950:8954   */\n  0x20\n    /* \"#utility.yul\":8947:8948   */\n  dup2\n    /* \"#utility.yul\":8943:8955   */\n  add\n    /* \"#utility.yul\":8938:8955   */\n  swap1\n  pop\n    /* \"#utility.yul\":8913:9121   */\n  jump(tag_160)\ntag_162:\n    /* \"#utility.yul\":9149:9155   */\n  dup7\n    /* \"#utility.yul\":9140:9147   */\n  dup4\n    /* \"#utility.yul\":9137:9156   */\n  lt\n    /* \"#utility.yul\":9134:9313   */\n  iszero\n  tag_163\n  jumpi\n    /* \"#utility.yul\":9207:9216   */\n  dup5\n    /* \"#utility.yul\":9202:9205   */\n  dup10\n    /* \"#utility.yul\":9198:9217   */\n  add\n    /* \"#utility.yul\":9192:9218   */\n  mload\n    /* \"#utility.yul\":9250:9298   */\n  tag_164\n    /* \"#utility.yul\":9292:9296   */\n  0x1f\n    /* \"#utility.yul\":9284:9290   */\n  dup10\n    /* \"#utility.yul\":9280:9297   */\n  and\n    /* \"#utility.yul\":9269:9278   */\n  dup3\n    /* \"#utility.yul\":9250:9298   */\n  tag_47\n  jump\t// in\ntag_164:\n    /* \"#utility.yul\":9242:9248   */\n  dup4\n    /* \"#utility.yul\":9235:9299   */\n  sstore\n    /* \"#utility.yul\":9157:9313   */\n  pop\n    /* \"#utility.yul\":9134:9313   */\ntag_163:\n    /* \"#utility.yul\":9359:9360   */\n  0x01\n    /* \"#utility.yul\":9355:9356   */\n  0x02\n    /* \"#utility.yul\":9347:9353   */\n  dup9\n    /* \"#utility.yul\":9343:9357   */\n  mul\n    /* \"#utility.yul\":9339:9361   */\n  add\n    /* \"#utility.yul\":9333:9337   */\n  dup9\n    /* \"#utility.yul\":9326:9362   */\n  sstore\n    /* \"#utility.yul\":8761:9372   */\n  pop\n  pop\n  pop\n    /* \"#utility.yul\":8724:9611   */\ntag_155:\n  pop\n    /* \"#utility.yul\":8314:9617   */\n  pop\n  pop\n  pop\n    /* \"#utility.yul\":8222:9617   */\n  pop\n  pop\n  jump\t// out\n    /* \"Storage.sol\":66:1600  contract EmployeeStorage {... */\ntag_8:\n  dataSize(sub_0)\n  dup1\n  dataOffset(sub_0)\n  0x00\n  codecopy\n  0x00\n  return\nstop\n\nsub_0: assembly {\n        /* \"Storage.sol\":66:1600  contract EmployeeStorage {... */\n      mstore(0x40, 0x80)\n      callvalue\n      dup1\n      iszero\n      tag_1\n      jumpi\n      0x00\n      dup1\n      revert\n    tag_1:\n      pop\n      jumpi(tag_2, lt(calldatasize, 0x04))\n      shr(0xe0, calldataload(0x00))\n      dup1\n      0x4c764809\n      gt\n      tag_10\n      jumpi\n      dup1\n      0x4c764809\n      eq\n      tag_6\n      jumpi\n      dup1\n      0x52c98689\n      eq\n      tag_7\n      jumpi\n      dup1\n      0x6d45e2a5\n      eq\n      tag_8\n      jumpi\n      dup1\n      0x8f6a861a\n      eq\n      tag_9\n      jumpi\n      jump(tag_2)\n    tag_10:\n      dup1\n      0x06fdde03\n      eq\n      tag_3\n      jumpi\n      dup1\n      0x3f83ea3b\n      eq\n      tag_4\n      jumpi\n      dup1\n      0x49574402\n      eq\n      tag_5\n      jumpi\n    tag_2:\n      0x00\n      dup1\n      revert\n        /* \"Storage.sol\":370:388  string public name */\n    tag_3:\n      tag_11\n      tag_12\n      jump\t// in\n    tag_11:\n      mload(0x40)\n      tag_13\n      swap2\n      swap1\n      tag_14\n      jump\t// in\n    tag_13:\n      mload(0x40)\n      dup1\n      swap2\n      sub\n      swap1\n      return\n        /* \"Storage.sol\":271:294  uint256 public idNumber */\n    tag_4:\n      tag_15\n      tag_16\n      jump\t// in\n    tag_15:\n      mload(0x40)\n      tag_17\n      swap2\n      swap1\n      tag_18\n      jump\t// in\n    tag_17:\n      mload(0x40)\n      dup1\n      swap2\n      sub\n      swap1\n      return\n        /* \"Storage.sol\":814:895  function viewSalary() public view returns (uint32) {... */\n    tag_5:\n      tag_19\n      tag_20\n      jump\t// in\n    tag_19:\n      mload(0x40)\n      tag_21\n      swap2\n      swap1\n      tag_22\n      jump\t// in\n    tag_21:\n      mload(0x40)\n      dup1\n      swap2\n      sub\n      swap1\n      return\n        /* \"Storage.sol\":1509:1598  function debugResetShares() public {... */\n    tag_6:\n      tag_23\n      tag_24\n      jump\t// in\n    tag_23:\n      stop\n        /* \"Storage.sol\":947:1364  function grantShares(uint16 _newShares) public {... */\n    tag_7:\n      tag_25\n      0x04\n      dup1\n      calldatasize\n      sub\n      dup2\n      add\n      swap1\n      tag_26\n      swap2\n      swap1\n      tag_27\n      jump\t// in\n    tag_26:\n      tag_28\n      jump\t// in\n    tag_25:\n      stop\n        /* \"Storage.sol\":723:804  function viewShares() public view returns (uint16) {... */\n    tag_8:\n      tag_29\n      tag_30\n      jump\t// in\n    tag_29:\n      mload(0x40)\n      tag_31\n      swap2\n      swap1\n      tag_32\n      jump\t// in\n    tag_31:\n      mload(0x40)\n      dup1\n      swap2\n      sub\n      swap1\n      return\n        /* \"Storage.sol\":1370:1503  function checkForPacking(uint _slot) public view returns (uint r) {... */\n    tag_9:\n      tag_33\n      0x04\n      dup1\n      calldatasize\n      sub\n      dup2\n      add\n      swap1\n      tag_34\n      swap2\n      swap1\n      tag_35\n      jump\t// in\n    tag_34:\n      tag_36\n      jump\t// in\n    tag_33:\n      mload(0x40)\n      tag_37\n      swap2\n      swap1\n      tag_18\n      jump\t// in\n    tag_37:\n      mload(0x40)\n      dup1\n      swap2\n      sub\n      swap1\n      return\n        /* \"Storage.sol\":370:388  string public name */\n    tag_12:\n      0x02\n      dup1\n      sload\n      tag_38\n      swap1\n      tag_39\n      jump\t// in\n    tag_38:\n      dup1\n      0x1f\n      add\n      0x20\n      dup1\n      swap2\n      div\n      mul\n      0x20\n      add\n      mload(0x40)\n      swap1\n      dup2\n      add\n      0x40\n      mstore\n      dup1\n      swap3\n      swap2\n      swap1\n      dup2\n      dup2\n      mstore\n      0x20\n      add\n      dup3\n      dup1\n      sload\n      tag_40\n      swap1\n      tag_39\n      jump\t// in\n    tag_40:\n      dup1\n      iszero\n      tag_41\n      jumpi\n      dup1\n      0x1f\n      lt\n      tag_42\n      jumpi\n      0x0100\n      dup1\n      dup4\n      sload\n      div\n      mul\n      dup4\n      mstore\n      swap2\n      0x20\n      add\n      swap2\n      jump(tag_41)\n    tag_42:\n      dup3\n      add\n      swap2\n      swap1\n      0x00\n      mstore\n      keccak256(0x00, 0x20)\n      swap1\n    tag_43:\n      dup2\n      sload\n      dup2\n      mstore\n      swap1\n      0x01\n      add\n      swap1\n      0x20\n      add\n      dup1\n      dup4\n      gt\n      tag_43\n      jumpi\n      dup3\n      swap1\n      sub\n      0x1f\n      and\n      dup3\n      add\n      swap2\n    tag_41:\n      pop\n      pop\n      pop\n      pop\n      pop\n      dup2\n      jump\t// out\n        /* \"Storage.sol\":271:294  uint256 public idNumber */\n    tag_16:\n      sload(0x01)\n      dup2\n      jump\t// out\n        /* \"Storage.sol\":814:895  function viewSalary() public view returns (uint32) {... */\n    tag_20:\n        /* \"Storage.sol\":857:863  uint32 */\n      0x00\n        /* \"Storage.sol\":882:888  salary */\n      dup1\n      0x02\n      swap1\n      sload\n      swap1\n      0x0100\n      exp\n      swap1\n      div\n      0xffffffff\n      and\n        /* \"Storage.sol\":875:888  return salary */\n      swap1\n      pop\n        /* \"Storage.sol\":814:895  function viewSalary() public view returns (uint32) {... */\n      swap1\n      jump\t// out\n        /* \"Storage.sol\":1509:1598  function debugResetShares() public {... */\n    tag_24:\n        /* \"Storage.sol\":1563:1567  1000 */\n      0x03e8\n        /* \"Storage.sol\":1554:1560  shares */\n      0x00\n      dup1\n        /* \"Storage.sol\":1554:1567  shares = 1000 */\n      0x0100\n      exp\n      dup2\n      sload\n      dup2\n      0xffff\n      mul\n      not\n      and\n      swap1\n      dup4\n      0xffff\n      and\n      mul\n      or\n      swap1\n      sstore\n      pop\n        /* \"Storage.sol\":1509:1598  function debugResetShares() public {... */\n      jump\t// out\n        /* \"Storage.sol\":947:1364  function grantShares(uint16 _newShares) public {... */\n    tag_28:\n        /* \"Storage.sol\":1079:1083  5000 */\n      0x1388\n        /* \"Storage.sol\":1066:1076  _newShares */\n      dup2\n        /* \"Storage.sol\":1066:1083  _newShares > 5000 */\n      0xffff\n      and\n      gt\n        /* \"Storage.sol\":1062:1304  if (_newShares > 5000) {... */\n      iszero\n      tag_47\n      jumpi\n        /* \"Storage.sol\":1099:1124  revert(\"Too many shares\") */\n      mload(0x40)\n      0x08c379a000000000000000000000000000000000000000000000000000000000\n      dup2\n      mstore\n      0x04\n      add\n      tag_48\n      swap1\n      tag_49\n      jump\t// in\n    tag_48:\n      mload(0x40)\n      dup1\n      swap2\n      sub\n      swap1\n      revert\n        /* \"Storage.sol\":1062:1304  if (_newShares > 5000) {... */\n    tag_47:\n        /* \"Storage.sol\":1196:1200  5000 */\n      0x1388\n        /* \"Storage.sol\":1183:1193  _newShares */\n      dup2\n        /* \"Storage.sol\":1174:1180  shares */\n      0x00\n      dup1\n      sload\n      swap1\n      0x0100\n      exp\n      swap1\n      div\n      0xffff\n      and\n        /* \"Storage.sol\":1174:1193  shares + _newShares */\n      tag_51\n      swap2\n      swap1\n      tag_52\n      jump\t// in\n    tag_51:\n        /* \"Storage.sol\":1174:1200  shares + _newShares > 5000 */\n      0xffff\n      and\n      gt\n        /* \"Storage.sol\":1170:1304  if (shares + _newShares > 5000) {... */\n      iszero\n      tag_53\n      jumpi\n        /* \"Storage.sol\":1246:1256  _newShares */\n      dup1\n        /* \"Storage.sol\":1237:1243  shares */\n      0x00\n      dup1\n      sload\n      swap1\n      0x0100\n      exp\n      swap1\n      div\n      0xffff\n      and\n        /* \"Storage.sol\":1237:1256  shares + _newShares */\n      tag_54\n      swap2\n      swap1\n      tag_52\n      jump\t// in\n    tag_54:\n        /* \"Storage.sol\":1223:1257  TooManyShares(shares + _newShares) */\n      mload(0x40)\n      0x57e7182400000000000000000000000000000000000000000000000000000000\n      dup2\n      mstore\n      0x04\n      add\n      tag_55\n      swap2\n      swap1\n      tag_32\n      jump\t// in\n    tag_55:\n      mload(0x40)\n      dup1\n      swap2\n      sub\n      swap1\n      revert\n        /* \"Storage.sol\":1170:1304  if (shares + _newShares > 5000) {... */\n    tag_53:\n        /* \"Storage.sol\":1323:1333  _newShares */\n      dup1\n        /* \"Storage.sol\":1313:1319  shares */\n      0x00\n      dup1\n        /* \"Storage.sol\":1313:1333  shares += _newShares */\n      dup3\n      dup3\n      dup3\n      swap1\n      sload\n      swap1\n      0x0100\n      exp\n      swap1\n      div\n      0xffff\n      and\n      tag_56\n      swap2\n      swap1\n      tag_52\n      jump\t// in\n    tag_56:\n      swap3\n      pop\n      0x0100\n      exp\n      dup2\n      sload\n      dup2\n      0xffff\n      mul\n      not\n      and\n      swap1\n      dup4\n      0xffff\n      and\n      mul\n      or\n      swap1\n      sstore\n      pop\n        /* \"Storage.sol\":947:1364  function grantShares(uint16 _newShares) public {... */\n      pop\n      jump\t// out\n        /* \"Storage.sol\":723:804  function viewShares() public view returns (uint16) {... */\n    tag_30:\n        /* \"Storage.sol\":766:772  uint16 */\n      0x00\n        /* \"Storage.sol\":791:797  shares */\n      dup1\n      0x00\n      swap1\n      sload\n      swap1\n      0x0100\n      exp\n      swap1\n      div\n      0xffff\n      and\n        /* \"Storage.sol\":784:797  return shares */\n      swap1\n      pop\n        /* \"Storage.sol\":723:804  function viewShares() public view returns (uint16) {... */\n      swap1\n      jump\t// out\n        /* \"Storage.sol\":1370:1503  function checkForPacking(uint _slot) public view returns (uint r) {... */\n    tag_36:\n        /* \"Storage.sol\":1428:1434  uint r */\n      0x00\n        /* \"Storage.sol\":1481:1486  _slot */\n      dup2\n        /* \"Storage.sol\":1474:1487  sload (_slot) */\n      sload\n        /* \"Storage.sol\":1469:1487  r := sload (_slot) */\n      swap1\n      pop\n        /* \"Storage.sol\":1370:1503  function checkForPacking(uint _slot) public view returns (uint r) {... */\n      swap2\n      swap1\n      pop\n      jump\t// out\n        /* \"#utility.yul\":7:106   */\n    tag_59:\n        /* \"#utility.yul\":59:65   */\n      0x00\n        /* \"#utility.yul\":93:98   */\n      dup2\n        /* \"#utility.yul\":87:99   */\n      mload\n        /* \"#utility.yul\":77:99   */\n      swap1\n      pop\n        /* \"#utility.yul\":7:106   */\n      swap2\n      swap1\n      pop\n      jump\t// out\n        /* \"#utility.yul\":112:281   */\n    tag_60:\n        /* \"#utility.yul\":196:207   */\n      0x00\n        /* \"#utility.yul\":230:236   */\n      dup3\n        /* \"#utility.yul\":225:228   */\n      dup3\n        /* \"#utility.yul\":218:237   */\n      mstore\n        /* \"#utility.yul\":270:274   */\n      0x20\n        /* \"#utility.yul\":265:268   */\n      dup3\n        /* \"#utility.yul\":261:275   */\n      add\n        /* \"#utility.yul\":246:275   */\n      swap1\n      pop\n        /* \"#utility.yul\":112:281   */\n      swap3\n      swap2\n      pop\n      pop\n      jump\t// out\n        /* \"#utility.yul\":287:426   */\n    tag_61:\n        /* \"#utility.yul\":376:382   */\n      dup3\n        /* \"#utility.yul\":371:374   */\n      dup2\n        /* \"#utility.yul\":366:369   */\n      dup4\n        /* \"#utility.yul\":360:383   */\n      mcopy\n        /* \"#utility.yul\":417:418   */\n      0x00\n        /* \"#utility.yul\":408:414   */\n      dup4\n        /* \"#utility.yul\":403:406   */\n      dup4\n        /* \"#utility.yul\":399:415   */\n      add\n        /* \"#utility.yul\":392:419   */\n      mstore\n        /* \"#utility.yul\":287:426   */\n      pop\n      pop\n      pop\n      jump\t// out\n        /* \"#utility.yul\":432:534   */\n    tag_62:\n        /* \"#utility.yul\":473:479   */\n      0x00\n        /* \"#utility.yul\":524:526   */\n      0x1f\n        /* \"#utility.yul\":520:527   */\n      not\n        /* \"#utility.yul\":515:517   */\n      0x1f\n        /* \"#utility.yul\":508:513   */\n      dup4\n        /* \"#utility.yul\":504:518   */\n      add\n        /* \"#utility.yul\":500:528   */\n      and\n        /* \"#utility.yul\":490:528   */\n      swap1\n      pop\n        /* \"#utility.yul\":432:534   */\n      swap2\n      swap1\n      pop\n      jump\t// out\n        /* \"#utility.yul\":540:917   */\n    tag_63:\n        /* \"#utility.yul\":628:631   */\n      0x00\n        /* \"#utility.yul\":656:695   */\n      tag_87\n        /* \"#utility.yul\":689:694   */\n      dup3\n        /* \"#utility.yul\":656:695   */\n      tag_59\n      jump\t// in\n    tag_87:\n        /* \"#utility.yul\":711:782   */\n      tag_88\n        /* \"#utility.yul\":775:781   */\n      dup2\n        /* \"#utility.yul\":770:773   */\n      dup6\n        /* \"#utility.yul\":711:782   */\n      tag_60\n      jump\t// in\n    tag_88:\n        /* \"#utility.yul\":704:782   */\n      swap4\n      pop\n        /* \"#utility.yul\":791:856   */\n      tag_89\n        /* \"#utility.yul\":849:855   */\n      dup2\n        /* \"#utility.yul\":844:847   */\n      dup6\n        /* \"#utility.yul\":837:841   */\n      0x20\n        /* \"#utility.yul\":830:835   */\n      dup7\n        /* \"#utility.yul\":826:842   */\n      add\n        /* \"#utility.yul\":791:856   */\n      tag_61\n      jump\t// in\n    tag_89:\n        /* \"#utility.yul\":881:910   */\n      tag_90\n        /* \"#utility.yul\":903:909   */\n      dup2\n        /* \"#utility.yul\":881:910   */\n      tag_62\n      jump\t// in\n    tag_90:\n        /* \"#utility.yul\":876:879   */\n      dup5\n        /* \"#utility.yul\":872:911   */\n      add\n        /* \"#utility.yul\":865:911   */\n      swap2\n      pop\n        /* \"#utility.yul\":632:917   */\n      pop\n        /* \"#utility.yul\":540:917   */\n      swap3\n      swap2\n      pop\n      pop\n      jump\t// out\n        /* \"#utility.yul\":923:1236   */\n    tag_14:\n        /* \"#utility.yul\":1036:1040   */\n      0x00\n        /* \"#utility.yul\":1074:1076   */\n      0x20\n        /* \"#utility.yul\":1063:1072   */\n      dup3\n        /* \"#utility.yul\":1059:1077   */\n      add\n        /* \"#utility.yul\":1051:1077   */\n      swap1\n      pop\n        /* \"#utility.yul\":1123:1132   */\n      dup2\n        /* \"#utility.yul\":1117:1121   */\n      dup2\n        /* \"#utility.yul\":1113:1133   */\n      sub\n        /* \"#utility.yul\":1109:1110   */\n      0x00\n        /* \"#utility.yul\":1098:1107   */\n      dup4\n        /* \"#utility.yul\":1094:1111   */\n      add\n        /* \"#utility.yul\":1087:1134   */\n      mstore\n        /* \"#utility.yul\":1151:1229   */\n      tag_92\n        /* \"#utility.yul\":1224:1228   */\n      dup2\n        /* \"#utility.yul\":1215:1221   */\n      dup5\n        /* \"#utility.yul\":1151:1229   */\n      tag_63\n      jump\t// in\n    tag_92:\n        /* \"#utility.yul\":1143:1229   */\n      swap1\n      pop\n        /* \"#utility.yul\":923:1236   */\n      swap3\n      swap2\n      pop\n      pop\n      jump\t// out\n        /* \"#utility.yul\":1242:1319   */\n    tag_64:\n        /* \"#utility.yul\":1279:1286   */\n      0x00\n        /* \"#utility.yul\":1308:1313   */\n      dup2\n        /* \"#utility.yul\":1297:1313   */\n      swap1\n      pop\n        /* \"#utility.yul\":1242:1319   */\n      swap2\n      swap1\n      pop\n      jump\t// out\n        /* \"#utility.yul\":1325:1443   */\n    tag_65:\n        /* \"#utility.yul\":1412:1436   */\n      tag_95\n        /* \"#utility.yul\":1430:1435   */\n      dup2\n        /* \"#utility.yul\":1412:1436   */\n      tag_64\n      jump\t// in\n    tag_95:\n        /* \"#utility.yul\":1407:1410   */\n      dup3\n        /* \"#utility.yul\":1400:1437   */\n      mstore\n        /* \"#utility.yul\":1325:1443   */\n      pop\n      pop\n      jump\t// out\n        /* \"#utility.yul\":1449:1671   */\n    tag_18:\n        /* \"#utility.yul\":1542:1546   */\n      0x00\n        /* \"#utility.yul\":1580:1582   */\n      0x20\n        /* \"#utility.yul\":1569:1578   */\n      dup3\n        /* \"#utility.yul\":1565:1583   */\n      add\n        /* \"#utility.yul\":1557:1583   */\n      swap1\n      pop\n        /* \"#utility.yul\":1593:1664   */\n      tag_97\n        /* \"#utility.yul\":1661:1662   */\n      0x00\n        /* \"#utility.yul\":1650:1659   */\n      dup4\n        /* \"#utility.yul\":1646:1663   */\n      add\n        /* \"#utility.yul\":1637:1643   */\n      dup5\n        /* \"#utility.yul\":1593:1664   */\n      tag_65\n      jump\t// in\n    tag_97:\n        /* \"#utility.yul\":1449:1671   */\n      swap3\n      swap2\n      pop\n      pop\n      jump\t// out\n        /* \"#utility.yul\":1677:1770   */\n    tag_66:\n        /* \"#utility.yul\":1713:1720   */\n      0x00\n        /* \"#utility.yul\":1753:1763   */\n      0xffffffff\n        /* \"#utility.yul\":1746:1751   */\n      dup3\n        /* \"#utility.yul\":1742:1764   */\n      and\n        /* \"#utility.yul\":1731:1764   */\n      swap1\n      pop\n        /* \"#utility.yul\":1677:1770   */\n      swap2\n      swap1\n      pop\n      jump\t// out\n        /* \"#utility.yul\":1776:1891   */\n    tag_67:\n        /* \"#utility.yul\":1861:1884   */\n      tag_100\n        /* \"#utility.yul\":1878:1883   */\n      dup2\n        /* \"#utility.yul\":1861:1884   */\n      tag_66\n      jump\t// in\n    tag_100:\n        /* \"#utility.yul\":1856:1859   */\n      dup3\n        /* \"#utility.yul\":1849:1885   */\n      mstore\n        /* \"#utility.yul\":1776:1891   */\n      pop\n      pop\n      jump\t// out\n        /* \"#utility.yul\":1897:2115   */\n    tag_22:\n        /* \"#utility.yul\":1988:1992   */\n      0x00\n        /* \"#utility.yul\":2026:2028   */\n      0x20\n        /* \"#utility.yul\":2015:2024   */\n      dup3\n        /* \"#utility.yul\":2011:2029   */\n      add\n        /* \"#utility.yul\":2003:2029   */\n      swap1\n      pop\n        /* \"#utility.yul\":2039:2108   */\n      tag_102\n        /* \"#utility.yul\":2105:2106   */\n      0x00\n        /* \"#utility.yul\":2094:2103   */\n      dup4\n        /* \"#utility.yul\":2090:2107   */\n      add\n        /* \"#utility.yul\":2081:2087   */\n      dup5\n        /* \"#utility.yul\":2039:2108   */\n      tag_67\n      jump\t// in\n    tag_102:\n        /* \"#utility.yul\":1897:2115   */\n      swap3\n      swap2\n      pop\n      pop\n      jump\t// out\n        /* \"#utility.yul\":2202:2319   */\n    tag_69:\n        /* \"#utility.yul\":2311:2312   */\n      0x00\n        /* \"#utility.yul\":2308:2309   */\n      dup1\n        /* \"#utility.yul\":2301:2313   */\n      revert\n        /* \"#utility.yul\":2448:2537   */\n    tag_71:\n        /* \"#utility.yul\":2484:2491   */\n      0x00\n        /* \"#utility.yul\":2524:2530   */\n      0xffff\n        /* \"#utility.yul\":2517:2522   */\n      dup3\n        /* \"#utility.yul\":2513:2531   */\n      and\n        /* \"#utility.yul\":2502:2531   */\n      swap1\n      pop\n        /* \"#utility.yul\":2448:2537   */\n      swap2\n      swap1\n      pop\n      jump\t// out\n        /* \"#utility.yul\":2543:2663   */\n    tag_72:\n        /* \"#utility.yul\":2615:2638   */\n      tag_108\n        /* \"#utility.yul\":2632:2637   */\n      dup2\n        /* \"#utility.yul\":2615:2638   */\n      tag_71\n      jump\t// in\n    tag_108:\n        /* \"#utility.yul\":2608:2613   */\n      dup2\n        /* \"#utility.yul\":2605:2639   */\n      eq\n        /* \"#utility.yul\":2595:2657   */\n      tag_109\n      jumpi\n        /* \"#utility.yul\":2653:2654   */\n      0x00\n        /* \"#utility.yul\":2650:2651   */\n      dup1\n        /* \"#utility.yul\":2643:2655   */\n      revert\n        /* \"#utility.yul\":2595:2657   */\n    tag_109:\n        /* \"#utility.yul\":2543:2663   */\n      pop\n      jump\t// out\n        /* \"#utility.yul\":2669:2806   */\n    tag_73:\n        /* \"#utility.yul\":2714:2719   */\n      0x00\n        /* \"#utility.yul\":2752:2758   */\n      dup2\n        /* \"#utility.yul\":2739:2759   */\n      calldataload\n        /* \"#utility.yul\":2730:2759   */\n      swap1\n      pop\n        /* \"#utility.yul\":2768:2800   */\n      tag_111\n        /* \"#utility.yul\":2794:2799   */\n      dup2\n        /* \"#utility.yul\":2768:2800   */\n      tag_72\n      jump\t// in\n    tag_111:\n        /* \"#utility.yul\":2669:2806   */\n      swap3\n      swap2\n      pop\n      pop\n      jump\t// out\n        /* \"#utility.yul\":2812:3139   */\n    tag_27:\n        /* \"#utility.yul\":2870:2876   */\n      0x00\n        /* \"#utility.yul\":2919:2921   */\n      0x20\n        /* \"#utility.yul\":2907:2916   */\n      dup3\n        /* \"#utility.yul\":2898:2905   */\n      dup5\n        /* \"#utility.yul\":2894:2917   */\n      sub\n        /* \"#utility.yul\":2890:2922   */\n      slt\n        /* \"#utility.yul\":2887:3006   */\n      iszero\n      tag_113\n      jumpi\n        /* \"#utility.yul\":2925:3004   */\n      tag_114\n      tag_69\n      jump\t// in\n    tag_114:\n        /* \"#utility.yul\":2887:3006   */\n    tag_113:\n        /* \"#utility.yul\":3045:3046   */\n      0x00\n        /* \"#utility.yul\":3070:3122   */\n      tag_115\n        /* \"#utility.yul\":3114:3121   */\n      dup5\n        /* \"#utility.yul\":3105:3111   */\n      dup3\n        /* \"#utility.yul\":3094:3103   */\n      dup6\n        /* \"#utility.yul\":3090:3112   */\n      add\n        /* \"#utility.yul\":3070:3122   */\n      tag_73\n      jump\t// in\n    tag_115:\n        /* \"#utility.yul\":3060:3122   */\n      swap2\n      pop\n        /* \"#utility.yul\":3016:3132   */\n      pop\n        /* \"#utility.yul\":2812:3139   */\n      swap3\n      swap2\n      pop\n      pop\n      jump\t// out\n        /* \"#utility.yul\":3145:3260   */\n    tag_74:\n        /* \"#utility.yul\":3230:3253   */\n      tag_117\n        /* \"#utility.yul\":3247:3252   */\n      dup2\n        /* \"#utility.yul\":3230:3253   */\n      tag_71\n      jump\t// in\n    tag_117:\n        /* \"#utility.yul\":3225:3228   */\n      dup3\n        /* \"#utility.yul\":3218:3254   */\n      mstore\n        /* \"#utility.yul\":3145:3260   */\n      pop\n      pop\n      jump\t// out\n        /* \"#utility.yul\":3266:3484   */\n    tag_32:\n        /* \"#utility.yul\":3357:3361   */\n      0x00\n        /* \"#utility.yul\":3395:3397   */\n      0x20\n        /* \"#utility.yul\":3384:3393   */\n      dup3\n        /* \"#utility.yul\":3380:3398   */\n      add\n        /* \"#utility.yul\":3372:3398   */\n      swap1\n      pop\n        /* \"#utility.yul\":3408:3477   */\n      tag_119\n        /* \"#utility.yul\":3474:3475   */\n      0x00\n        /* \"#utility.yul\":3463:3472   */\n      dup4\n        /* \"#utility.yul\":3459:3476   */\n      add\n        /* \"#utility.yul\":3450:3456   */\n      dup5\n        /* \"#utility.yul\":3408:3477   */\n      tag_74\n      jump\t// in\n    tag_119:\n        /* \"#utility.yul\":3266:3484   */\n      swap3\n      swap2\n      pop\n      pop\n      jump\t// out\n        /* \"#utility.yul\":3490:3612   */\n    tag_75:\n        /* \"#utility.yul\":3563:3587   */\n      tag_121\n        /* \"#utility.yul\":3581:3586   */\n      dup2\n        /* \"#utility.yul\":3563:3587   */\n      tag_64\n      jump\t// in\n    tag_121:\n        /* \"#utility.yul\":3556:3561   */\n      dup2\n        /* \"#utility.yul\":3553:3588   */\n      eq\n        /* \"#utility.yul\":3543:3606   */\n      tag_122\n      jumpi\n        /* \"#utility.yul\":3602:3603   */\n      0x00\n        /* \"#utility.yul\":3599:3600   */\n      dup1\n        /* \"#utility.yul\":3592:3604   */\n      revert\n        /* \"#utility.yul\":3543:3606   */\n    tag_122:\n        /* \"#utility.yul\":3490:3612   */\n      pop\n      jump\t// out\n        /* \"#utility.yul\":3618:3757   */\n    tag_76:\n        /* \"#utility.yul\":3664:3669   */\n      0x00\n        /* \"#utility.yul\":3702:3708   */\n      dup2\n        /* \"#utility.yul\":3689:3709   */\n      calldataload\n        /* \"#utility.yul\":3680:3709   */\n      swap1\n      pop\n        /* \"#utility.yul\":3718:3751   */\n      tag_124\n        /* \"#utility.yul\":3745:3750   */\n      dup2\n        /* \"#utility.yul\":3718:3751   */\n      tag_75\n      jump\t// in\n    tag_124:\n        /* \"#utility.yul\":3618:3757   */\n      swap3\n      swap2\n      pop\n      pop\n      jump\t// out\n        /* \"#utility.yul\":3763:4092   */\n    tag_35:\n        /* \"#utility.yul\":3822:3828   */\n      0x00\n        /* \"#utility.yul\":3871:3873   */\n      0x20\n        /* \"#utility.yul\":3859:3868   */\n      dup3\n        /* \"#utility.yul\":3850:3857   */\n      dup5\n        /* \"#utility.yul\":3846:3869   */\n      sub\n        /* \"#utility.yul\":3842:3874   */\n      slt\n        /* \"#utility.yul\":3839:3958   */\n      iszero\n      tag_126\n      jumpi\n        /* \"#utility.yul\":3877:3956   */\n      tag_127\n      tag_69\n      jump\t// in\n    tag_127:\n        /* \"#utility.yul\":3839:3958   */\n    tag_126:\n        /* \"#utility.yul\":3997:3998   */\n      0x00\n        /* \"#utility.yul\":4022:4075   */\n      tag_128\n        /* \"#utility.yul\":4067:4074   */\n      dup5\n        /* \"#utility.yul\":4058:4064   */\n      dup3\n        /* \"#utility.yul\":4047:4056   */\n      dup6\n        /* \"#utility.yul\":4043:4065   */\n      add\n        /* \"#utility.yul\":4022:4075   */\n      tag_76\n      jump\t// in\n    tag_128:\n        /* \"#utility.yul\":4012:4075   */\n      swap2\n      pop\n        /* \"#utility.yul\":3968:4085   */\n      pop\n        /* \"#utility.yul\":3763:4092   */\n      swap3\n      swap2\n      pop\n      pop\n      jump\t// out\n        /* \"#utility.yul\":4098:4278   */\n    tag_77:\n        /* \"#utility.yul\":4146:4223   */\n      0x4e487b7100000000000000000000000000000000000000000000000000000000\n        /* \"#utility.yul\":4143:4144   */\n      0x00\n        /* \"#utility.yul\":4136:4224   */\n      mstore\n        /* \"#utility.yul\":4243:4247   */\n      0x22\n        /* \"#utility.yul\":4240:4241   */\n      0x04\n        /* \"#utility.yul\":4233:4248   */\n      mstore\n        /* \"#utility.yul\":4267:4271   */\n      0x24\n        /* \"#utility.yul\":4264:4265   */\n      0x00\n        /* \"#utility.yul\":4257:4272   */\n      revert\n        /* \"#utility.yul\":4284:4604   */\n    tag_39:\n        /* \"#utility.yul\":4328:4334   */\n      0x00\n        /* \"#utility.yul\":4365:4366   */\n      0x02\n        /* \"#utility.yul\":4359:4363   */\n      dup3\n        /* \"#utility.yul\":4355:4367   */\n      div\n        /* \"#utility.yul\":4345:4367   */\n      swap1\n      pop\n        /* \"#utility.yul\":4412:4413   */\n      0x01\n        /* \"#utility.yul\":4406:4410   */\n      dup3\n        /* \"#utility.yul\":4402:4414   */\n      and\n        /* \"#utility.yul\":4433:4451   */\n      dup1\n        /* \"#utility.yul\":4423:4504   */\n      tag_131\n      jumpi\n        /* \"#utility.yul\":4489:4493   */\n      0x7f\n        /* \"#utility.yul\":4481:4487   */\n      dup3\n        /* \"#utility.yul\":4477:4494   */\n      and\n        /* \"#utility.yul\":4467:4494   */\n      swap2\n      pop\n        /* \"#utility.yul\":4423:4504   */\n    tag_131:\n        /* \"#utility.yul\":4551:4553   */\n      0x20\n        /* \"#utility.yul\":4543:4549   */\n      dup3\n        /* \"#utility.yul\":4540:4554   */\n      lt\n        /* \"#utility.yul\":4520:4538   */\n      dup2\n        /* \"#utility.yul\":4517:4555   */\n      sub\n        /* \"#utility.yul\":4514:4598   */\n      tag_132\n      jumpi\n        /* \"#utility.yul\":4570:4588   */\n      tag_133\n      tag_77\n      jump\t// in\n    tag_133:\n        /* \"#utility.yul\":4514:4598   */\n    tag_132:\n        /* \"#utility.yul\":4335:4604   */\n      pop\n        /* \"#utility.yul\":4284:4604   */\n      swap2\n      swap1\n      pop\n      jump\t// out\n        /* \"#utility.yul\":4610:4775   */\n    tag_78:\n        /* \"#utility.yul\":4750:4767   */\n      0x546f6f206d616e79207368617265730000000000000000000000000000000000\n        /* \"#utility.yul\":4746:4747   */\n      0x00\n        /* \"#utility.yul\":4738:4744   */\n      dup3\n        /* \"#utility.yul\":4734:4748   */\n      add\n        /* \"#utility.yul\":4727:4768   */\n      mstore\n        /* \"#utility.yul\":4610:4775   */\n      pop\n      jump\t// out\n        /* \"#utility.yul\":4781:5147   */\n    tag_79:\n        /* \"#utility.yul\":4923:4926   */\n      0x00\n        /* \"#utility.yul\":4944:5011   */\n      tag_136\n        /* \"#utility.yul\":5008:5010   */\n      0x0f\n        /* \"#utility.yul\":5003:5006   */\n      dup4\n        /* \"#utility.yul\":4944:5011   */\n      tag_60\n      jump\t// in\n    tag_136:\n        /* \"#utility.yul\":4937:5011   */\n      swap2\n      pop\n        /* \"#utility.yul\":5020:5113   */\n      tag_137\n        /* \"#utility.yul\":5109:5112   */\n      dup3\n        /* \"#utility.yul\":5020:5113   */\n      tag_78\n      jump\t// in\n    tag_137:\n        /* \"#utility.yul\":5138:5140   */\n      0x20\n        /* \"#utility.yul\":5133:5136   */\n      dup3\n        /* \"#utility.yul\":5129:5141   */\n      add\n        /* \"#utility.yul\":5122:5141   */\n      swap1\n      pop\n        /* \"#utility.yul\":4781:5147   */\n      swap2\n      swap1\n      pop\n      jump\t// out\n        /* \"#utility.yul\":5153:5572   */\n    tag_49:\n        /* \"#utility.yul\":5319:5323   */\n      0x00\n        /* \"#utility.yul\":5357:5359   */\n      0x20\n        /* \"#utility.yul\":5346:5355   */\n      dup3\n        /* \"#utility.yul\":5342:5360   */\n      add\n        /* \"#utility.yul\":5334:5360   */\n      swap1\n      pop\n        /* \"#utility.yul\":5406:5415   */\n      dup2\n        /* \"#utility.yul\":5400:5404   */\n      dup2\n        /* \"#utility.yul\":5396:5416   */\n      sub\n        /* \"#utility.yul\":5392:5393   */\n      0x00\n        /* \"#utility.yul\":5381:5390   */\n      dup4\n        /* \"#utility.yul\":5377:5394   */\n      add\n        /* \"#utility.yul\":5370:5417   */\n      mstore\n        /* \"#utility.yul\":5434:5565   */\n      tag_139\n        /* \"#utility.yul\":5560:5564   */\n      dup2\n        /* \"#utility.yul\":5434:5565   */\n      tag_79\n      jump\t// in\n    tag_139:\n        /* \"#utility.yul\":5426:5565   */\n      swap1\n      pop\n        /* \"#utility.yul\":5153:5572   */\n      swap2\n      swap1\n      pop\n      jump\t// out\n        /* \"#utility.yul\":5578:5758   */\n    tag_80:\n        /* \"#utility.yul\":5626:5703   */\n      0x4e487b7100000000000000000000000000000000000000000000000000000000\n        /* \"#utility.yul\":5623:5624   */\n      0x00\n        /* \"#utility.yul\":5616:5704   */\n      mstore\n        /* \"#utility.yul\":5723:5727   */\n      0x11\n        /* \"#utility.yul\":5720:5721   */\n      0x04\n        /* \"#utility.yul\":5713:5728   */\n      mstore\n        /* \"#utility.yul\":5747:5751   */\n      0x24\n        /* \"#utility.yul\":5744:5745   */\n      0x00\n        /* \"#utility.yul\":5737:5752   */\n      revert\n        /* \"#utility.yul\":5764:5957   */\n    tag_52:\n        /* \"#utility.yul\":5803:5806   */\n      0x00\n        /* \"#utility.yul\":5822:5841   */\n      tag_142\n        /* \"#utility.yul\":5839:5840   */\n      dup3\n        /* \"#utility.yul\":5822:5841   */\n      tag_71\n      jump\t// in\n    tag_142:\n        /* \"#utility.yul\":5817:5841   */\n      swap2\n      pop\n        /* \"#utility.yul\":5855:5874   */\n      tag_143\n        /* \"#utility.yul\":5872:5873   */\n      dup4\n        /* \"#utility.yul\":5855:5874   */\n      tag_71\n      jump\t// in\n    tag_143:\n        /* \"#utility.yul\":5850:5874   */\n      swap3\n      pop\n        /* \"#utility.yul\":5897:5898   */\n      dup3\n        /* \"#utility.yul\":5894:5895   */\n      dup3\n        /* \"#utility.yul\":5890:5899   */\n      add\n        /* \"#utility.yul\":5883:5899   */\n      swap1\n      pop\n        /* \"#utility.yul\":5920:5926   */\n      0xffff\n        /* \"#utility.yul\":5915:5918   */\n      dup2\n        /* \"#utility.yul\":5912:5927   */\n      gt\n        /* \"#utility.yul\":5909:5950   */\n      iszero\n      tag_144\n      jumpi\n        /* \"#utility.yul\":5930:5948   */\n      tag_145\n      tag_80\n      jump\t// in\n    tag_145:\n        /* \"#utility.yul\":5909:5950   */\n    tag_144:\n        /* \"#utility.yul\":5764:5957   */\n      swap3\n      swap2\n      pop\n      pop\n      jump\t// out\n\n    auxdata: 0xa26469706673582212208439f1c9347ca92080b2ae74d25fc85a152256c2e708dd537781d7b3c8e327de64736f6c634300081a0033\n}\n",
				"bytecode": {
					"linkReferences": {},
					"object": "608060405234801561000f575f80fd5b50604051610c47380380610c478339818101604052810190610031919061027c565b835f806101000a81548161ffff021916908361ffff160217905550826002908161005b9190610500565b50815f60026101000a81548163ffffffff021916908363ffffffff16021790555080600181905550505050506105cf565b5f604051905090565b5f80fd5b5f80fd5b5f61ffff82169050919050565b6100b38161009d565b81146100bd575f80fd5b50565b5f815190506100ce816100aa565b92915050565b5f80fd5b5f80fd5b5f601f19601f8301169050919050565b7f4e487b71000000000000000000000000000000000000000000000000000000005f52604160045260245ffd5b610122826100dc565b810181811067ffffffffffffffff82111715610141576101406100ec565b5b80604052505050565b5f61015361008c565b905061015f8282610119565b919050565b5f67ffffffffffffffff82111561017e5761017d6100ec565b5b610187826100dc565b9050602081019050919050565b8281835e5f83830152505050565b5f6101b46101af84610164565b61014a565b9050828152602081018484840111156101d0576101cf6100d8565b5b6101db848285610194565b509392505050565b5f82601f8301126101f7576101f66100d4565b5b81516102078482602086016101a2565b91505092915050565b5f63ffffffff82169050919050565b61022881610210565b8114610232575f80fd5b50565b5f815190506102438161021f565b92915050565b5f819050919050565b61025b81610249565b8114610265575f80fd5b50565b5f8151905061027681610252565b92915050565b5f805f806080858703121561029457610293610095565b5b5f6102a1878288016100c0565b945050602085015167ffffffffffffffff8111156102c2576102c1610099565b5b6102ce878288016101e3565b93505060406102df87828801610235565b92505060606102f087828801610268565b91505092959194509250565b5f81519050919050565b7f4e487b71000000000000000000000000000000000000000000000000000000005f52602260045260245ffd5b5f600282049050600182168061034a57607f821691505b60208210810361035d5761035c610306565b5b50919050565b5f819050815f5260205f209050919050565b5f6020601f8301049050919050565b5f82821b905092915050565b5f600883026103bf7fffffffffffffffffffffffffffffffffffffffffffffffffffffffffffffffff82610384565b6103c98683610384565b95508019841693508086168417925050509392505050565b5f819050919050565b5f6104046103ff6103fa84610249565b6103e1565b610249565b9050919050565b5f819050919050565b61041d836103ea565b6104316104298261040b565b848454610390565b825550505050565b5f90565b610445610439565b610450818484610414565b505050565b5b81811015610473576104685f8261043d565b600181019050610456565b5050565b601f8211156104b85761048981610363565b61049284610375565b810160208510156104a1578190505b6104b56104ad85610375565b830182610455565b50505b505050565b5f82821c905092915050565b5f6104d85f19846008026104bd565b1980831691505092915050565b5f6104f083836104c9565b9150826002028217905092915050565b610509826102fc565b67ffffffffffffffff811115610522576105216100ec565b5b61052c8254610333565b610537828285610477565b5f60209050601f831160018114610568575f8415610556578287015190505b61056085826104e5565b8655506105c7565b601f19841661057686610363565b5f5b8281101561059d57848901518255600182019150602085019450602081019050610578565b868310156105ba57848901516105b6601f8916826104c9565b8355505b6001600288020188555050505b505050505050565b61066b806105dc5f395ff3fe608060405234801561000f575f80fd5b506004361061007b575f3560e01c80634c764809116100595780634c764809146100d957806352c98689146100e35780636d45e2a5146100ff5780638f6a861a1461011d5761007b565b806306fdde031461007f5780633f83ea3b1461009d57806349574402146100bb575b5f80fd5b61008761014d565b60405161009491906103a3565b60405180910390f35b6100a56101d9565b6040516100b291906103db565b60405180910390f35b6100c36101df565b6040516100d09190610412565b60405180910390f35b6100e16101f7565b005b6100fd60048036038101906100f89190610466565b610216565b005b610107610314565b60405161011491906104a0565b60405180910390f35b610137600480360381019061013291906104e3565b610329565b60405161014491906103db565b60405180910390f35b6002805461015a9061053b565b80601f01602080910402602001604051908101604052809291908181526020018280546101869061053b565b80156101d15780601f106101a8576101008083540402835291602001916101d1565b820191905f5260205f20905b8154815290600101906020018083116101b457829003601f168201915b505050505081565b60015481565b5f8060029054906101000a900463ffffffff16905090565b6103e85f806101000a81548161ffff021916908361ffff160217905550565b6113888161ffff16111561025f576040517f08c379a0000000000000000000000000000000000000000000000000000000008152600401610256906105b5565b60405180910390fd5b611388815f8054906101000a900461ffff1661027b9190610600565b61ffff1611156102da57805f8054906101000a900461ffff1661029e9190610600565b6040517f57e718240000000000000000000000000000000000000000000000000000000081526004016102d191906104a0565b60405180910390fd5b805f808282829054906101000a900461ffff166102f79190610600565b92506101000a81548161ffff021916908361ffff16021790555050565b5f805f9054906101000a900461ffff16905090565b5f81549050919050565b5f81519050919050565b5f82825260208201905092915050565b8281835e5f83830152505050565b5f601f19601f8301169050919050565b5f61037582610333565b61037f818561033d565b935061038f81856020860161034d565b6103988161035b565b840191505092915050565b5f6020820190508181035f8301526103bb818461036b565b905092915050565b5f819050919050565b6103d5816103c3565b82525050565b5f6020820190506103ee5f8301846103cc565b92915050565b5f63ffffffff82169050919050565b61040c816103f4565b82525050565b5f6020820190506104255f830184610403565b92915050565b5f80fd5b5f61ffff82169050919050565b6104458161042f565b811461044f575f80fd5b50565b5f813590506104608161043c565b92915050565b5f6020828403121561047b5761047a61042b565b5b5f61048884828501610452565b91505092915050565b61049a8161042f565b82525050565b5f6020820190506104b35f830184610491565b92915050565b6104c2816103c3565b81146104cc575f80fd5b50565b5f813590506104dd816104b9565b92915050565b5f602082840312156104f8576104f761042b565b5b5f610505848285016104cf565b91505092915050565b7f4e487b71000000000000000000000000000000000000000000000000000000005f52602260045260245ffd5b5f600282049050600182168061055257607f821691505b6020821081036105655761056461050e565b5b50919050565b7f546f6f206d616e792073686172657300000000000000000000000000000000005f82015250565b5f61059f600f8361033d565b91506105aa8261056b565b602082019050919050565b5f6020820190508181035f8301526105cc81610593565b9050919050565b7f4e487b71000000000000000000000000000000000000000000000000000000005f52601160045260245ffd5b5f61060a8261042f565b91506106158361042f565b9250828201905061ffff81111561062f5761062e6105d3565b5b9291505056fea26469706673582212208439f1c9347ca92080b2ae74d25fc85a152256c2e708dd537781d7b3c8e327de64736f6c634300081a0033",
					"opcodes": "PUSH1 0x80 PUSH1 0x40 MSTORE CALLVALUE DUP1 ISZERO PUSH2 0xF JUMPI PUSH0 DUP1 REVERT JUMPDEST POP PUSH1 0x40 MLOAD PUSH2 0xC47 CODESIZE SUB DUP1 PUSH2 0xC47 DUP4 CODECOPY DUP2 DUP2 ADD PUSH1 0x40 MSTORE DUP2 ADD SWAP1 PUSH2 0x31 SWAP2 SWAP1 PUSH2 0x27C JUMP JUMPDEST DUP4 PUSH0 DUP1 PUSH2 0x100 EXP DUP2 SLOAD DUP2 PUSH2 0xFFFF MUL NOT AND SWAP1 DUP4 PUSH2 0xFFFF AND MUL OR SWAP1 SSTORE POP DUP3 PUSH1 0x2 SWAP1 DUP2 PUSH2 0x5B SWAP2 SWAP1 PUSH2 0x500 JUMP JUMPDEST POP DUP2 PUSH0 PUSH1 0x2 PUSH2 0x100 EXP DUP2 SLOAD DUP2 PUSH4 0xFFFFFFFF MUL NOT AND SWAP1 DUP4 PUSH4 0xFFFFFFFF AND MUL OR SWAP1 SSTORE POP DUP1 PUSH1 0x1 DUP2 SWAP1 SSTORE POP POP POP POP POP PUSH2 0x5CF JUMP JUMPDEST PUSH0 PUSH1 0x40 MLOAD SWAP1 POP SWAP1 JUMP JUMPDEST PUSH0 DUP1 REVERT JUMPDEST PUSH0 DUP1 REVERT JUMPDEST PUSH0 PUSH2 0xFFFF DUP3 AND SWAP1 POP SWAP2 SWAP1 POP JUMP JUMPDEST PUSH2 0xB3 DUP2 PUSH2 0x9D JUMP JUMPDEST DUP2 EQ PUSH2 0xBD JUMPI PUSH0 DUP1 REVERT JUMPDEST POP JUMP JUMPDEST PUSH0 DUP2 MLOAD SWAP1 POP PUSH2 0xCE DUP2 PUSH2 0xAA JUMP JUMPDEST SWAP3 SWAP2 POP POP JUMP JUMPDEST PUSH0 DUP1 REVERT JUMPDEST PUSH0 DUP1 REVERT JUMPDEST PUSH0 PUSH1 0x1F NOT PUSH1 0x1F DUP4 ADD AND SWAP1 POP SWAP2 SWAP1 POP JUMP JUMPDEST PUSH32 0x4E487B7100000000000000000000000000000000000000000000000000000000 PUSH0 MSTORE PUSH1 0x41 PUSH1 0x4 MSTORE PUSH1 0x24 PUSH0 REVERT JUMPDEST PUSH2 0x122 DUP3 PUSH2 0xDC JUMP JUMPDEST DUP2 ADD DUP2 DUP2 LT PUSH8 0xFFFFFFFFFFFFFFFF DUP3 GT OR ISZERO PUSH2 0x141 JUMPI PUSH2 0x140 PUSH2 0xEC JUMP JUMPDEST JUMPDEST DUP1 PUSH1 0x40 MSTORE POP POP POP JUMP JUMPDEST PUSH0 PUSH2 0x153 PUSH2 0x8C JUMP JUMPDEST SWAP1 POP PUSH2 0x15F DUP3 DUP3 PUSH2 0x119 JUMP JUMPDEST SWAP2 SWAP1 POP JUMP JUMPDEST PUSH0 PUSH8 0xFFFFFFFFFFFFFFFF DUP3 GT ISZERO PUSH2 0x17E JUMPI PUSH2 0x17D PUSH2 0xEC JUMP JUMPDEST JUMPDEST PUSH2 0x187 DUP3 PUSH2 0xDC JUMP JUMPDEST SWAP1 POP PUSH1 0x20 DUP2 ADD SWAP1 POP SWAP2 SWAP1 POP JUMP JUMPDEST DUP3 DUP2 DUP4 MCOPY PUSH0 DUP4 DUP4 ADD MSTORE POP POP POP JUMP JUMPDEST PUSH0 PUSH2 0x1B4 PUSH2 0x1AF DUP5 PUSH2 0x164 JUMP JUMPDEST PUSH2 0x14A JUMP JUMPDEST SWAP1 POP DUP3 DUP2 MSTORE PUSH1 0x20 DUP2 ADD DUP5 DUP5 DUP5 ADD GT ISZERO PUSH2 0x1D0 JUMPI PUSH2 0x1CF PUSH2 0xD8 JUMP JUMPDEST JUMPDEST PUSH2 0x1DB DUP5 DUP3 DUP6 PUSH2 0x194 JUMP JUMPDEST POP SWAP4 SWAP3 POP POP POP JUMP JUMPDEST PUSH0 DUP3 PUSH1 0x1F DUP4 ADD SLT PUSH2 0x1F7 JUMPI PUSH2 0x1F6 PUSH2 0xD4 JUMP JUMPDEST JUMPDEST DUP2 MLOAD PUSH2 0x207 DUP5 DUP3 PUSH1 0x20 DUP7 ADD PUSH2 0x1A2 JUMP JUMPDEST SWAP2 POP POP SWAP3 SWAP2 POP POP JUMP JUMPDEST PUSH0 PUSH4 0xFFFFFFFF DUP3 AND SWAP1 POP SWAP2 SWAP1 POP JUMP JUMPDEST PUSH2 0x228 DUP2 PUSH2 0x210 JUMP JUMPDEST DUP2 EQ PUSH2 0x232 JUMPI PUSH0 DUP1 REVERT JUMPDEST POP JUMP JUMPDEST PUSH0 DUP2 MLOAD SWAP1 POP PUSH2 0x243 DUP2 PUSH2 0x21F JUMP JUMPDEST SWAP3 SWAP2 POP POP JUMP JUMPDEST PUSH0 DUP2 SWAP1 POP SWAP2 SWAP1 POP JUMP JUMPDEST PUSH2 0x25B DUP2 PUSH2 0x249 JUMP JUMPDEST DUP2 EQ PUSH2 0x265 JUMPI PUSH0 DUP1 REVERT JUMPDEST POP JUMP JUMPDEST PUSH0 DUP2 MLOAD SWAP1 POP PUSH2 0x276 DUP2 PUSH2 0x252 JUMP JUMPDEST SWAP3 SWAP2 POP POP JUMP JUMPDEST PUSH0 DUP1 PUSH0 DUP1 PUSH1 0x80 DUP6 DUP8 SUB SLT ISZERO PUSH2 0x294 JUMPI PUSH2 0x293 PUSH2 0x95 JUMP JUMPDEST JUMPDEST PUSH0 PUSH2 0x2A1 DUP8 DUP3 DUP9 ADD PUSH2 0xC0 JUMP JUMPDEST SWAP5 POP POP PUSH1 0x20 DUP6 ADD MLOAD PUSH8 0xFFFFFFFFFFFFFFFF DUP2 GT ISZERO PUSH2 0x2C2 JUMPI PUSH2 0x2C1 PUSH2 0x99 JUMP JUMPDEST JUMPDEST PUSH2 0x2CE DUP8 DUP3 DUP9 ADD PUSH2 0x1E3 JUMP JUMPDEST SWAP4 POP POP PUSH1 0x40 PUSH2 0x2DF DUP8 DUP3 DUP9 ADD PUSH2 0x235 JUMP JUMPDEST SWAP3 POP POP PUSH1 0x60 PUSH2 0x2F0 DUP8 DUP3 DUP9 ADD PUSH2 0x268 JUMP JUMPDEST SWAP2 POP POP SWAP3 SWAP6 SWAP2 SWAP5 POP SWAP3 POP JUMP JUMPDEST PUSH0 DUP2 MLOAD SWAP1 POP SWAP2 SWAP1 POP JUMP JUMPDEST PUSH32 0x4E487B7100000000000000000000000000000000000000000000000000000000 PUSH0 MSTORE PUSH1 0x22 PUSH1 0x4 MSTORE PUSH1 0x24 PUSH0 REVERT JUMPDEST PUSH0 PUSH1 0x2 DUP3 DIV SWAP1 POP PUSH1 0x1 DUP3 AND DUP1 PUSH2 0x34A JUMPI PUSH1 0x7F DUP3 AND SWAP2 POP JUMPDEST PUSH1 0x20 DUP3 LT DUP2 SUB PUSH2 0x35D JUMPI PUSH2 0x35C PUSH2 0x306 JUMP JUMPDEST JUMPDEST POP SWAP2 SWAP1 POP JUMP JUMPDEST PUSH0 DUP2 SWAP1 POP DUP2 PUSH0 MSTORE PUSH1 0x20 PUSH0 KECCAK256 SWAP1 POP SWAP2 SWAP1 POP JUMP JUMPDEST PUSH0 PUSH1 0x20 PUSH1 0x1F DUP4 ADD DIV SWAP1 POP SWAP2 SWAP1 POP JUMP JUMPDEST PUSH0 DUP3 DUP3 SHL SWAP1 POP SWAP3 SWAP2 POP POP JUMP JUMPDEST PUSH0 PUSH1 0x8 DUP4 MUL PUSH2 0x3BF PUSH32 0xFFFFFFFFFFFFFFFFFFFFFFFFFFFFFFFFFFFFFFFFFFFFFFFFFFFFFFFFFFFFFFFF DUP3 PUSH2 0x384 JUMP JUMPDEST PUSH2 0x3C9 DUP7 DUP4 PUSH2 0x384 JUMP JUMPDEST SWAP6 POP DUP1 NOT DUP5 AND SWAP4 POP DUP1 DUP7 AND DUP5 OR SWAP3 POP POP POP SWAP4 SWAP3 POP POP POP JUMP JUMPDEST PUSH0 DUP2 SWAP1 POP SWAP2 SWAP1 POP JUMP JUMPDEST PUSH0 PUSH2 0x404 PUSH2 0x3FF PUSH2 0x3FA DUP5 PUSH2 0x249 JUMP JUMPDEST PUSH2 0x3E1 JUMP JUMPDEST PUSH2 0x249 JUMP JUMPDEST SWAP1 POP SWAP2 SWAP1 POP JUMP JUMPDEST PUSH0 DUP2 SWAP1 POP SWAP2 SWAP1 POP JUMP JUMPDEST PUSH2 0x41D DUP4 PUSH2 0x3EA JUMP JUMPDEST PUSH2 0x431 PUSH2 0x429 DUP3 PUSH2 0x40B JUMP JUMPDEST DUP5 DUP5 SLOAD PUSH2 0x390 JUMP JUMPDEST DUP3 SSTORE POP POP POP POP JUMP JUMPDEST PUSH0 SWAP1 JUMP JUMPDEST PUSH2 0x445 PUSH2 0x439 JUMP JUMPDEST PUSH2 0x450 DUP2 DUP5 DUP5 PUSH2 0x414 JUMP JUMPDEST POP POP POP JUMP JUMPDEST JUMPDEST DUP2 DUP2 LT ISZERO PUSH2 0x473 JUMPI PUSH2 0x468 PUSH0 DUP3 PUSH2 0x43D JUMP JUMPDEST PUSH1 0x1 DUP2 ADD SWAP1 POP PUSH2 0x456 JUMP JUMPDEST POP POP JUMP JUMPDEST PUSH1 0x1F DUP3 GT ISZERO PUSH2 0x4B8 JUMPI PUSH2 0x489 DUP2 PUSH2 0x363 JUMP JUMPDEST PUSH2 0x492 DUP5 PUSH2 0x375 JUMP JUMPDEST DUP2 ADD PUSH1 0x20 DUP6 LT ISZERO PUSH2 0x4A1 JUMPI DUP2 SWAP1 POP JUMPDEST PUSH2 0x4B5 PUSH2 0x4AD DUP6 PUSH2 0x375 JUMP JUMPDEST DUP4 ADD DUP3 PUSH2 0x455 JUMP JUMPDEST POP POP JUMPDEST POP POP POP JUMP JUMPDEST PUSH0 DUP3 DUP3 SHR SWAP1 POP SWAP3 SWAP2 POP POP JUMP JUMPDEST PUSH0 PUSH2 0x4D8 PUSH0 NOT DUP5 PUSH1 0x8 MUL PUSH2 0x4BD JUMP JUMPDEST NOT DUP1 DUP4 AND SWAP2 POP POP SWAP3 SWAP2 POP POP JUMP JUMPDEST PUSH0 PUSH2 0x4F0 DUP4 DUP4 PUSH2 0x4C9 JUMP JUMPDEST SWAP2 POP DUP3 PUSH1 0x2 MUL DUP3 OR SWAP1 POP SWAP3 SWAP2 POP POP JUMP JUMPDEST PUSH2 0x509 DUP3 PUSH2 0x2FC JUMP JUMPDEST PUSH8 0xFFFFFFFFFFFFFFFF DUP2 GT ISZERO PUSH2 0x522 JUMPI PUSH2 0x521 PUSH2 0xEC JUMP JUMPDEST JUMPDEST PUSH2 0x52C DUP3 SLOAD PUSH2 0x333 JUMP JUMPDEST PUSH2 0x537 DUP3 DUP3 DUP6 PUSH2 0x477 JUMP JUMPDEST PUSH0 PUSH1 0x20 SWAP1 POP PUSH1 0x1F DUP4 GT PUSH1 0x1 DUP2 EQ PUSH2 0x568 JUMPI PUSH0 DUP5 ISZERO PUSH2 0x556 JUMPI DUP3 DUP8 ADD MLOAD SWAP1 POP JUMPDEST PUSH2 0x560 DUP6 DUP3 PUSH2 0x4E5 JUMP JUMPDEST DUP7 SSTORE POP PUSH2 0x5C7 JUMP JUMPDEST PUSH1 0x1F NOT DUP5 AND PUSH2 0x576 DUP7 PUSH2 0x363 JUMP JUMPDEST PUSH0 JUMPDEST DUP3 DUP2 LT ISZERO PUSH2 0x59D JUMPI DUP5 DUP10 ADD MLOAD DUP3 SSTORE PUSH1 0x1 DUP3 ADD SWAP2 POP PUSH1 0x20 DUP6 ADD SWAP5 POP PUSH1 0x20 DUP2 ADD SWAP1 POP PUSH2 0x578 JUMP JUMPDEST DUP7 DUP4 LT ISZERO PUSH2 0x5BA JUMPI DUP5 DUP10 ADD MLOAD PUSH2 0x5B6 PUSH1 0x1F DUP10 AND DUP3 PUSH2 0x4C9 JUMP JUMPDEST DUP4 SSTORE POP JUMPDEST PUSH1 0x1 PUSH1 0x2 DUP9 MUL ADD DUP9 SSTORE POP POP POP JUMPDEST POP POP POP POP POP POP JUMP JUMPDEST PUSH2 0x66B DUP1 PUSH2 0x5DC PUSH0 CODECOPY PUSH0 RETURN INVALID PUSH1 0x80 PUSH1 0x40 MSTORE CALLVALUE DUP1 ISZERO PUSH2 0xF JUMPI PUSH0 DUP1 REVERT JUMPDEST POP PUSH1 0x4 CALLDATASIZE LT PUSH2 0x7B JUMPI PUSH0 CALLDATALOAD PUSH1 0xE0 SHR DUP1 PUSH4 0x4C764809 GT PUSH2 0x59 JUMPI DUP1 PUSH4 0x4C764809 EQ PUSH2 0xD9 JUMPI DUP1 PUSH4 0x52C98689 EQ PUSH2 0xE3 JUMPI DUP1 PUSH4 0x6D45E2A5 EQ PUSH2 0xFF JUMPI DUP1 PUSH4 0x8F6A861A EQ PUSH2 0x11D JUMPI PUSH2 0x7B JUMP JUMPDEST DUP1 PUSH4 0x6FDDE03 EQ PUSH2 0x7F JUMPI DUP1 PUSH4 0x3F83EA3B EQ PUSH2 0x9D JUMPI DUP1 PUSH4 0x49574402 EQ PUSH2 0xBB JUMPI JUMPDEST PUSH0 DUP1 REVERT JUMPDEST PUSH2 0x87 PUSH2 0x14D JUMP JUMPDEST PUSH1 0x40 MLOAD PUSH2 0x94 SWAP2 SWAP1 PUSH2 0x3A3 JUMP JUMPDEST PUSH1 0x40 MLOAD DUP1 SWAP2 SUB SWAP1 RETURN JUMPDEST PUSH2 0xA5 PUSH2 0x1D9 JUMP JUMPDEST PUSH1 0x40 MLOAD PUSH2 0xB2 SWAP2 SWAP1 PUSH2 0x3DB JUMP JUMPDEST PUSH1 0x40 MLOAD DUP1 SWAP2 SUB SWAP1 RETURN JUMPDEST PUSH2 0xC3 PUSH2 0x1DF JUMP JUMPDEST PUSH1 0x40 MLOAD PUSH2 0xD0 SWAP2 SWAP1 PUSH2 0x412 JUMP JUMPDEST PUSH1 0x40 MLOAD DUP1 SWAP2 SUB SWAP1 RETURN JUMPDEST PUSH2 0xE1 PUSH2 0x1F7 JUMP JUMPDEST STOP JUMPDEST PUSH2 0xFD PUSH1 0x4 DUP1 CALLDATASIZE SUB DUP2 ADD SWAP1 PUSH2 0xF8 SWAP2 SWAP1 PUSH2 0x466 JUMP JUMPDEST PUSH2 0x216 JUMP JUMPDEST STOP JUMPDEST PUSH2 0x107 PUSH2 0x314 JUMP JUMPDEST PUSH1 0x40 MLOAD PUSH2 0x114 SWAP2 SWAP1 PUSH2 0x4A0 JUMP JUMPDEST PUSH1 0x40 MLOAD DUP1 SWAP2 SUB SWAP1 RETURN JUMPDEST PUSH2 0x137 PUSH1 0x4 DUP1 CALLDATASIZE SUB DUP2 ADD SWAP1 PUSH2 0x132 SWAP2 SWAP1 PUSH2 0x4E3 JUMP JUMPDEST PUSH2 0x329 JUMP JUMPDEST PUSH1 0x40 MLOAD PUSH2 0x144 SWAP2 SWAP1 PUSH2 0x3DB JUMP JUMPDEST PUSH1 0x40 MLOAD DUP1 SWAP2 SUB SWAP1 RETURN JUMPDEST PUSH1 0x2 DUP1 SLOAD PUSH2 0x15A SWAP1 PUSH2 0x53B JUMP JUMPDEST DUP1 PUSH1 0x1F ADD PUSH1 0x20 DUP1 SWAP2 DIV MUL PUSH1 0x20 ADD PUSH1 0x40 MLOAD SWAP1 DUP2 ADD PUSH1 0x40 MSTORE DUP1 SWAP3 SWAP2 SWAP1 DUP2 DUP2 MSTORE PUSH1 0x20 ADD DUP3 DUP1 SLOAD PUSH2 0x186 SWAP1 PUSH2 0x53B JUMP JUMPDEST DUP1 ISZERO PUSH2 0x1D1 JUMPI DUP1 PUSH1 0x1F LT PUSH2 0x1A8 JUMPI PUSH2 0x100 DUP1 DUP4 SLOAD DIV MUL DUP4 MSTORE SWAP2 PUSH1 0x20 ADD SWAP2 PUSH2 0x1D1 JUMP JUMPDEST DUP3 ADD SWAP2 SWAP1 PUSH0 MSTORE PUSH1 0x20 PUSH0 KECCAK256 SWAP1 JUMPDEST DUP2 SLOAD DUP2 MSTORE SWAP1 PUSH1 0x1 ADD SWAP1 PUSH1 0x20 ADD DUP1 DUP4 GT PUSH2 0x1B4 JUMPI DUP3 SWAP1 SUB PUSH1 0x1F AND DUP3 ADD SWAP2 JUMPDEST POP POP POP POP POP DUP2 JUMP JUMPDEST PUSH1 0x1 SLOAD DUP2 JUMP JUMPDEST PUSH0 DUP1 PUSH1 0x2 SWAP1 SLOAD SWAP1 PUSH2 0x100 EXP SWAP1 DIV PUSH4 0xFFFFFFFF AND SWAP1 POP SWAP1 JUMP JUMPDEST PUSH2 0x3E8 PUSH0 DUP1 PUSH2 0x100 EXP DUP2 SLOAD DUP2 PUSH2 0xFFFF MUL NOT AND SWAP1 DUP4 PUSH2 0xFFFF AND MUL OR SWAP1 SSTORE POP JUMP JUMPDEST PUSH2 0x1388 DUP2 PUSH2 0xFFFF AND GT ISZERO PUSH2 0x25F JUMPI PUSH1 0x40 MLOAD PUSH32 0x8C379A000000000000000000000000000000000000000000000000000000000 DUP2 MSTORE PUSH1 0x4 ADD PUSH2 0x256 SWAP1 PUSH2 0x5B5 JUMP JUMPDEST PUSH1 0x40 MLOAD DUP1 SWAP2 SUB SWAP1 REVERT JUMPDEST PUSH2 0x1388 DUP2 PUSH0 DUP1 SLOAD SWAP1 PUSH2 0x100 EXP SWAP1 DIV PUSH2 0xFFFF AND PUSH2 0x27B SWAP2 SWAP1 PUSH2 0x600 JUMP JUMPDEST PUSH2 0xFFFF AND GT ISZERO PUSH2 0x2DA JUMPI DUP1 PUSH0 DUP1 SLOAD SWAP1 PUSH2 0x100 EXP SWAP1 DIV PUSH2 0xFFFF AND PUSH2 0x29E SWAP2 SWAP1 PUSH2 0x600 JUMP JUMPDEST PUSH1 0x40 MLOAD PUSH32 0x57E7182400000000000000000000000000000000000000000000000000000000 DUP2 MSTORE PUSH1 0x4 ADD PUSH2 0x2D1 SWAP2 SWAP1 PUSH2 0x4A0 JUMP JUMPDEST PUSH1 0x40 MLOAD DUP1 SWAP2 SUB SWAP1 REVERT JUMPDEST DUP1 PUSH0 DUP1 DUP3 DUP3 DUP3 SWAP1 SLOAD SWAP1 PUSH2 0x100 EXP SWAP1 DIV PUSH2 0xFFFF AND PUSH2 0x2F7 SWAP2 SWAP1 PUSH2 0x600 JUMP JUMPDEST SWAP3 POP PUSH2 0x100 EXP DUP2 SLOAD DUP2 PUSH2 0xFFFF MUL NOT AND SWAP1 DUP4 PUSH2 0xFFFF AND MUL OR SWAP1 SSTORE POP POP JUMP JUMPDEST PUSH0 DUP1 PUSH0 SWAP1 SLOAD SWAP1 PUSH2 0x100 EXP SWAP1 DIV PUSH2 0xFFFF AND SWAP1 POP SWAP1 JUMP JUMPDEST PUSH0 DUP2 SLOAD SWAP1 POP SWAP2 SWAP1 POP JUMP JUMPDEST PUSH0 DUP2 MLOAD SWAP1 POP SWAP2 SWAP1 POP JUMP JUMPDEST PUSH0 DUP3 DUP3 MSTORE PUSH1 0x20 DUP3 ADD SWAP1 POP SWAP3 SWAP2 POP POP JUMP JUMPDEST DUP3 DUP2 DUP4 MCOPY PUSH0 DUP4 DUP4 ADD MSTORE POP POP POP JUMP JUMPDEST PUSH0 PUSH1 0x1F NOT PUSH1 0x1F DUP4 ADD AND SWAP1 POP SWAP2 SWAP1 POP JUMP JUMPDEST PUSH0 PUSH2 0x375 DUP3 PUSH2 0x333 JUMP JUMPDEST PUSH2 0x37F DUP2 DUP6 PUSH2 0x33D JUMP JUMPDEST SWAP4 POP PUSH2 0x38F DUP2 DUP6 PUSH1 0x20 DUP7 ADD PUSH2 0x34D JUMP JUMPDEST PUSH2 0x398 DUP2 PUSH2 0x35B JUMP JUMPDEST DUP5 ADD SWAP2 POP POP SWAP3 SWAP2 POP POP JUMP JUMPDEST PUSH0 PUSH1 0x20 DUP3 ADD SWAP1 POP DUP2 DUP2 SUB PUSH0 DUP4 ADD MSTORE PUSH2 0x3BB DUP2 DUP5 PUSH2 0x36B JUMP JUMPDEST SWAP1 POP SWAP3 SWAP2 POP POP JUMP JUMPDEST PUSH0 DUP2 SWAP1 POP SWAP2 SWAP1 POP JUMP JUMPDEST PUSH2 0x3D5 DUP2 PUSH2 0x3C3 JUMP JUMPDEST DUP3 MSTORE POP POP JUMP JUMPDEST PUSH0 PUSH1 0x20 DUP3 ADD SWAP1 POP PUSH2 0x3EE PUSH0 DUP4 ADD DUP5 PUSH2 0x3CC JUMP JUMPDEST SWAP3 SWAP2 POP POP JUMP JUMPDEST PUSH0 PUSH4 0xFFFFFFFF DUP3 AND SWAP1 POP SWAP2 SWAP1 POP JUMP JUMPDEST PUSH2 0x40C DUP2 PUSH2 0x3F4 JUMP JUMPDEST DUP3 MSTORE POP POP JUMP JUMPDEST PUSH0 PUSH1 0x20 DUP3 ADD SWAP1 POP PUSH2 0x425 PUSH0 DUP4 ADD DUP5 PUSH2 0x403 JUMP JUMPDEST SWAP3 SWAP2 POP POP JUMP JUMPDEST PUSH0 DUP1 REVERT JUMPDEST PUSH0 PUSH2 0xFFFF DUP3 AND SWAP1 POP SWAP2 SWAP1 POP JUMP JUMPDEST PUSH2 0x445 DUP2 PUSH2 0x42F JUMP JUMPDEST DUP2 EQ PUSH2 0x44F JUMPI PUSH0 DUP1 REVERT JUMPDEST POP JUMP JUMPDEST PUSH0 DUP2 CALLDATALOAD SWAP1 POP PUSH2 0x460 DUP2 PUSH2 0x43C JUMP JUMPDEST SWAP3 SWAP2 POP POP JUMP JUMPDEST PUSH0 PUSH1 0x20 DUP3 DUP5 SUB SLT ISZERO PUSH2 0x47B JUMPI PUSH2 0x47A PUSH2 0x42B JUMP JUMPDEST JUMPDEST PUSH0 PUSH2 0x488 DUP5 DUP3 DUP6 ADD PUSH2 0x452 JUMP JUMPDEST SWAP2 POP POP SWAP3 SWAP2 POP POP JUMP JUMPDEST PUSH2 0x49A DUP2 PUSH2 0x42F JUMP JUMPDEST DUP3 MSTORE POP POP JUMP JUMPDEST PUSH0 PUSH1 0x20 DUP3 ADD SWAP1 POP PUSH2 0x4B3 PUSH0 DUP4 ADD DUP5 PUSH2 0x491 JUMP JUMPDEST SWAP3 SWAP2 POP POP JUMP JUMPDEST PUSH2 0x4C2 DUP2 PUSH2 0x3C3 JUMP JUMPDEST DUP2 EQ PUSH2 0x4CC JUMPI PUSH0 DUP1 REVERT JUMPDEST POP JUMP JUMPDEST PUSH0 DUP2 CALLDATALOAD SWAP1 POP PUSH2 0x4DD DUP2 PUSH2 0x4B9 JUMP JUMPDEST SWAP3 SWAP2 POP POP JUMP JUMPDEST PUSH0 PUSH1 0x20 DUP3 DUP5 SUB SLT ISZERO PUSH2 0x4F8 JUMPI PUSH2 0x4F7 PUSH2 0x42B JUMP JUMPDEST JUMPDEST PUSH0 PUSH2 0x505 DUP5 DUP3 DUP6 ADD PUSH2 0x4CF JUMP JUMPDEST SWAP2 POP POP SWAP3 SWAP2 POP POP JUMP JUMPDEST PUSH32 0x4E487B7100000000000000000000000000000000000000000000000000000000 PUSH0 MSTORE PUSH1 0x22 PUSH1 0x4 MSTORE PUSH1 0x24 PUSH0 REVERT JUMPDEST PUSH0 PUSH1 0x2 DUP3 DIV SWAP1 POP PUSH1 0x1 DUP3 AND DUP1 PUSH2 0x552 JUMPI PUSH1 0x7F DUP3 AND SWAP2 POP JUMPDEST PUSH1 0x20 DUP3 LT DUP2 SUB PUSH2 0x565 JUMPI PUSH2 0x564 PUSH2 0x50E JUMP JUMPDEST JUMPDEST POP SWAP2 SWAP1 POP JUMP JUMPDEST PUSH32 0x546F6F206D616E79207368617265730000000000000000000000000000000000 PUSH0 DUP3 ADD MSTORE POP JUMP JUMPDEST PUSH0 PUSH2 0x59F PUSH1 0xF DUP4 PUSH2 0x33D JUMP JUMPDEST SWAP2 POP PUSH2 0x5AA DUP3 PUSH2 0x56B JUMP JUMPDEST PUSH1 0x20 DUP3 ADD SWAP1 POP SWAP2 SWAP1 POP JUMP JUMPDEST PUSH0 PUSH1 0x20 DUP3 ADD SWAP1 POP DUP2 DUP2 SUB PUSH0 DUP4 ADD MSTORE PUSH2 0x5CC DUP2 PUSH2 0x593 JUMP JUMPDEST SWAP1 POP SWAP2 SWAP1 POP JUMP JUMPDEST PUSH32 0x4E487B7100000000000000000000000000000000000000000000000000000000 PUSH0 MSTORE PUSH1 0x11 PUSH1 0x4 MSTORE PUSH1 0x24 PUSH0 REVERT JUMPDEST PUSH0 PUSH2 0x60A DUP3 PUSH2 0x42F JUMP JUMPDEST SWAP2 POP PUSH2 0x615 DUP4 PUSH2 0x42F JUMP JUMPDEST SWAP3 POP DUP3 DUP3 ADD SWAP1 POP PUSH2 0xFFFF DUP2 GT ISZERO PUSH2 0x62F JUMPI PUSH2 0x62E PUSH2 0x5D3 JUMP JUMPDEST JUMPDEST SWAP3 SWAP2 POP POP JUMP INVALID LOG2 PUSH5 0x6970667358 0x22 SLT KECCAK256 DUP5 CODECOPY CALL 0xC9 CALLVALUE PUSH29 0xA92080B2AE74D25FC85A152256C2E708DD537781D7B3C8E327DE64736F PUSH13 0x634300081A0033000000000000 "
				},
				"gasEstimates": {
					"creation": {
						"codeDepositCost": "328600",
						"executionCost": "infinite",
						"totalCost": "infinite"
					},
					"external": {
						"checkForPacking(uint256)": "infinite",
						"debugResetShares()": "24409",
						"grantShares(uint16)": "infinite",
						"idNumber()": "2448",
						"name()": "infinite",
						"viewSalary()": "2569",
						"viewShares()": "2517"
					}
				},
				"methodIdentifiers": {
					"checkForPacking(uint256)": "8f6a861a",
					"debugResetShares()": "4c764809",
					"grantShares(uint16)": "52c98689",
					"idNumber()": "3f83ea3b",
					"name()": "06fdde03",
					"viewSalary()": "49574402",
					"viewShares()": "6d45e2a5"
				}
			},
			"storageLayout": {
				"storage": [
					{
						"astId": 3,
						"contract": "Storage.sol:EmployeeStorage",
						"label": "shares",
						"offset": 0,
						"slot": "0",
						"type": "t_uint16"
					},
					{
						"astId": 5,
						"contract": "Storage.sol:EmployeeStorage",
						"label": "salary",
						"offset": 2,
						"slot": "0",
						"type": "t_uint32"
					},
					{
						"astId": 7,
						"contract": "Storage.sol:EmployeeStorage",
						"label": "idNumber",
						"offset": 0,
						"slot": "1",
						"type": "t_uint256"
					},
					{
						"astId": 9,
						"contract": "Storage.sol:EmployeeStorage",
						"label": "name",
						"offset": 0,
						"slot": "2",
						"type": "t_string_storage"
					}
				],
				"types": {
					"t_string_storage": {
						"encoding": "bytes",
						"label": "string",
						"numberOfBytes": "32"
					},
					"t_uint16": {
						"encoding": "inplace",
						"label": "uint16",
						"numberOfBytes": "2"
					},
					"t_uint256": {
						"encoding": "inplace",
						"label": "uint256",
						"numberOfBytes": "32"
					},
					"t_uint32": {
						"encoding": "inplace",
						"label": "uint32",
						"numberOfBytes": "4"
					}
				}
			},
			"userdoc": {
				"kind": "user",
				"methods": {},
				"version": 1
			}
		}
	}
}