{
	"6_ Structs.sol": {
		"GarageManager": {
			"abi": [
				{
					"inputs": [
						{
							"internalType": "uint256",
							"name": "index",
							"type": "uint256"
						}
					],
					"name": "BadCarIndex",
					"type": "error"
				},
				{
					"inputs": [
						{
							"internalType": "string",
							"name": "_make",
							"type": "string"
						},
						{
							"internalType": "string",
							"name": "_model",
							"type": "string"
						},
						{
							"internalType": "string",
							"name": "_color",
							"type": "string"
						},
						{
							"internalType": "uint256",
							"name": "_numberOfDoors",
							"type": "uint256"
						}
					],
					"name": "addCar",
					"outputs": [],
					"stateMutability": "nonpayable",
					"type": "function"
				},
				{
					"inputs": [],
					"name": "getMyCars",
					"outputs": [
						{
							"components": [
								{
									"internalType": "string",
									"name": "make",
									"type": "string"
								},
								{
									"internalType": "string",
									"name": "model",
									"type": "string"
								},
								{
									"internalType": "string",
									"name": "color",
									"type": "string"
								},
								{
									"internalType": "uint256",
									"name": "numberOfDoors",
									"type": "uint256"
								}
							],
							"internalType": "struct GarageManager.Car[]",
							"name": "",
							"type": "tuple[]"
						}
					],
					"stateMutability": "view",
					"type": "function"
				},
				{
					"inputs": [
						{
							"internalType": "address",
							"name": "_user",
							"type": "address"
						}
					],
					"name": "getUserCars",
					"outputs": [
						{
							"components": [
								{
									"internalType": "string",
									"name": "make",
									"type": "string"
								},
								{
									"internalType": "string",
									"name": "model",
									"type": "string"
								},
								{
									"internalType": "string",
									"name": "color",
									"type": "string"
								},
								{
									"internalType": "uint256",
									"name": "numberOfDoors",
									"type": "uint256"
								}
							],
							"internalType": "struct GarageManager.Car[]",
							"name": "",
							"type": "tuple[]"
						}
					],
					"stateMutability": "view",
					"type": "function"
				},
				{
					"inputs": [],
					"name": "resetMyGarage",
					"outputs": [],
					"stateMutability": "nonpayable",
					"type": "function"
				},
				{
					"inputs": [
						{
							"internalType": "uint256",
							"name": "_index",
							"type": "uint256"
						},
						{
							"internalType": "string",
							"name": "_make",
							"type": "string"
						},
						{
							"internalType": "string",
							"name": "_model",
							"type": "string"
						},
						{
							"internalType": "string",
							"name": "_color",
							"type": "string"
						},
						{
							"internalType": "uint256",
							"name": "_numberOfDoors",
							"type": "uint256"
						}
					],
					"name": "updateCar",
					"outputs": [],
					"stateMutability": "nonpayable",
					"type": "function"
				}
			],
			"devdoc": {
				"kind": "dev",
				"methods": {},
				"version": 1
			},
			"evm": {
				"assembly": "    /* \"6_ Structs.sol\":66:1806  contract GarageManager {... */\n  mstore(0x40, 0x80)\n  callvalue\n  dup1\n  iszero\n  tag_1\n  jumpi\n  0x00\n  dup1\n  revert\ntag_1:\n  pop\n  dataSize(sub_0)\n  dup1\n  dataOffset(sub_0)\n  0x00\n  codecopy\n  0x00\n  return\nstop\n\nsub_0: assembly {\n        /* \"6_ Structs.sol\":66:1806  contract GarageManager {... */\n      mstore(0x40, 0x80)\n      callvalue\n      dup1\n      iszero\n      tag_1\n      jumpi\n      0x00\n      dup1\n      revert\n    tag_1:\n      pop\n      jumpi(tag_2, lt(calldatasize, 0x04))\n      shr(0xe0, calldataload(0x00))\n      dup1\n      0x2698286c\n      eq\n      tag_3\n      jumpi\n      dup1\n      0x341fa05d\n      eq\n      tag_4\n      jumpi\n      dup1\n      0x4cd1ed3d\n      eq\n      tag_5\n      jumpi\n      dup1\n      0x6dcb7896\n      eq\n      tag_6\n      jumpi\n      dup1\n      0xd2d50bd8\n      eq\n      tag_7\n      jumpi\n    tag_2:\n      0x00\n      dup1\n      revert\n        /* \"6_ Structs.sol\":986:1176  function getUserCars(address _user) external view returns (Car[] memory) {... */\n    tag_3:\n      tag_8\n      0x04\n      dup1\n      calldatasize\n      sub\n      dup2\n      add\n      swap1\n      tag_9\n      swap2\n      swap1\n      tag_10\n      jump\t// in\n    tag_9:\n      tag_11\n      jump\t// in\n    tag_8:\n      mload(0x40)\n      tag_12\n      swap2\n      swap1\n      tag_13\n      jump\t// in\n    tag_12:\n      mload(0x40)\n      dup1\n      swap2\n      sub\n      swap1\n      return\n        /* \"6_ Structs.sol\":813:980  function getMyCars() external view returns (Car[] memory) {... */\n    tag_4:\n      tag_14\n      tag_15\n      jump\t// in\n    tag_14:\n      mload(0x40)\n      tag_16\n      swap2\n      swap1\n      tag_13\n      jump\t// in\n    tag_16:\n      mload(0x40)\n      dup1\n      swap2\n      sub\n      swap1\n      return\n        /* \"6_ Structs.sol\":1182:1669  function updateCar(uint256 _index, string memory _make, string memory _model, string memory _color, uint _numberOfDoors) external {... */\n    tag_5:\n      tag_17\n      0x04\n      dup1\n      calldatasize\n      sub\n      dup2\n      add\n      swap1\n      tag_18\n      swap2\n      swap1\n      tag_19\n      jump\t// in\n    tag_18:\n      tag_20\n      jump\t// in\n    tag_17:\n      stop\n        /* \"6_ Structs.sol\":1675:1804  function resetMyGarage() external {... */\n    tag_6:\n      tag_21\n      tag_22\n      jump\t// in\n    tag_21:\n      stop\n        /* \"6_ Structs.sol\":529:807  function addCar(string memory _make, string memory _model, string memory _color, uint _numberOfDoors) external {... */\n    tag_7:\n      tag_23\n      0x04\n      dup1\n      calldatasize\n      sub\n      dup2\n      add\n      swap1\n      tag_24\n      swap2\n      swap1\n      tag_25\n      jump\t// in\n    tag_24:\n      tag_26\n      jump\t// in\n    tag_23:\n      stop\n        /* \"6_ Structs.sol\":986:1176  function getUserCars(address _user) external view returns (Car[] memory) {... */\n    tag_11:\n        /* \"6_ Structs.sol\":1045:1057  Car[] memory */\n      0x60\n        /* \"6_ Structs.sol\":1155:1162  garages */\n      0x00\n        /* \"6_ Structs.sol\":1155:1169  garages[_user] */\n      dup1\n        /* \"6_ Structs.sol\":1163:1168  _user */\n      dup4\n        /* \"6_ Structs.sol\":1155:1169  garages[_user] */\n      0xffffffffffffffffffffffffffffffffffffffff\n      and\n      0xffffffffffffffffffffffffffffffffffffffff\n      and\n      dup2\n      mstore\n      0x20\n      add\n      swap1\n      dup2\n      mstore\n      0x20\n      add\n      0x00\n      keccak256\n        /* \"6_ Structs.sol\":1148:1169  return garages[_user] */\n      dup1\n      sload\n      dup1\n      0x20\n      mul\n      0x20\n      add\n      mload(0x40)\n      swap1\n      dup2\n      add\n      0x40\n      mstore\n      dup1\n      swap3\n      swap2\n      swap1\n      dup2\n      dup2\n      mstore\n      0x20\n      add\n      0x00\n      swap1\n    tag_28:\n      dup3\n      dup3\n      lt\n      iszero\n      tag_29\n      jumpi\n      dup4\n      dup3\n      swap1\n      0x00\n      mstore\n      keccak256(0x00, 0x20)\n      swap1\n      0x04\n      mul\n      add\n      mload(0x40)\n      dup1\n      0x80\n      add\n      0x40\n      mstore\n      swap1\n      dup2\n      0x00\n      dup3\n      add\n      dup1\n      sload\n      tag_31\n      swap1\n      tag_32\n      jump\t// in\n    tag_31:\n      dup1\n      0x1f\n      add\n      0x20\n      dup1\n      swap2\n      div\n      mul\n      0x20\n      add\n      mload(0x40)\n      swap1\n      dup2\n      add\n      0x40\n      mstore\n      dup1\n      swap3\n      swap2\n      swap1\n      dup2\n      dup2\n      mstore\n      0x20\n      add\n      dup3\n      dup1\n      sload\n      tag_33\n      swap1\n      tag_32\n      jump\t// in\n    tag_33:\n      dup1\n      iszero\n      tag_34\n      jumpi\n      dup1\n      0x1f\n      lt\n      tag_35\n      jumpi\n      0x0100\n      dup1\n      dup4\n      sload\n      div\n      mul\n      dup4\n      mstore\n      swap2\n      0x20\n      add\n      swap2\n      jump(tag_34)\n    tag_35:\n      dup3\n      add\n      swap2\n      swap1\n      0x00\n      mstore\n      keccak256(0x00, 0x20)\n      swap1\n    tag_36:\n      dup2\n      sload\n      dup2\n      mstore\n      swap1\n      0x01\n      add\n      swap1\n      0x20\n      add\n      dup1\n      dup4\n      gt\n      tag_36\n      jumpi\n      dup3\n      swap1\n      sub\n      0x1f\n      and\n      dup3\n      add\n      swap2\n    tag_34:\n      pop\n      pop\n      pop\n      pop\n      pop\n      dup2\n      mstore\n      0x20\n      add\n      0x01\n      dup3\n      add\n      dup1\n      sload\n      tag_37\n      swap1\n      tag_32\n      jump\t// in\n    tag_37:\n      dup1\n      0x1f\n      add\n      0x20\n      dup1\n      swap2\n      div\n      mul\n      0x20\n      add\n      mload(0x40)\n      swap1\n      dup2\n      add\n      0x40\n      mstore\n      dup1\n      swap3\n      swap2\n      swap1\n      dup2\n      dup2\n      mstore\n      0x20\n      add\n      dup3\n      dup1\n      sload\n      tag_38\n      swap1\n      tag_32\n      jump\t// in\n    tag_38:\n      dup1\n      iszero\n      tag_39\n      jumpi\n      dup1\n      0x1f\n      lt\n      tag_40\n      jumpi\n      0x0100\n      dup1\n      dup4\n      sload\n      div\n      mul\n      dup4\n      mstore\n      swap2\n      0x20\n      add\n      swap2\n      jump(tag_39)\n    tag_40:\n      dup3\n      add\n      swap2\n      swap1\n      0x00\n      mstore\n      keccak256(0x00, 0x20)\n      swap1\n    tag_41:\n      dup2\n      sload\n      dup2\n      mstore\n      swap1\n      0x01\n      add\n      swap1\n      0x20\n      add\n      dup1\n      dup4\n      gt\n      tag_41\n      jumpi\n      dup3\n      swap1\n      sub\n      0x1f\n      and\n      dup3\n      add\n      swap2\n    tag_39:\n      pop\n      pop\n      pop\n      pop\n      pop\n      dup2\n      mstore\n      0x20\n      add\n      0x02\n      dup3\n      add\n      dup1\n      sload\n      tag_42\n      swap1\n      tag_32\n      jump\t// in\n    tag_42:\n      dup1\n      0x1f\n      add\n      0x20\n      dup1\n      swap2\n      div\n      mul\n      0x20\n      add\n      mload(0x40)\n      swap1\n      dup2\n      add\n      0x40\n      mstore\n      dup1\n      swap3\n      swap2\n      swap1\n      dup2\n      dup2\n      mstore\n      0x20\n      add\n      dup3\n      dup1\n      sload\n      tag_43\n      swap1\n      tag_32\n      jump\t// in\n    tag_43:\n      dup1\n      iszero\n      tag_44\n      jumpi\n      dup1\n      0x1f\n      lt\n      tag_45\n      jumpi\n      0x0100\n      dup1\n      dup4\n      sload\n      div\n      mul\n      dup4\n      mstore\n      swap2\n      0x20\n      add\n      swap2\n      jump(tag_44)\n    tag_45:\n      dup3\n      add\n      swap2\n      swap1\n      0x00\n      mstore\n      keccak256(0x00, 0x20)\n      swap1\n    tag_46:\n      dup2\n      sload\n      dup2\n      mstore\n      swap1\n      0x01\n      add\n      swap1\n      0x20\n      add\n      dup1\n      dup4\n      gt\n      tag_46\n      jumpi\n      dup3\n      swap1\n      sub\n      0x1f\n      and\n      dup3\n      add\n      swap2\n    tag_44:\n      pop\n      pop\n      pop\n      pop\n      pop\n      dup2\n      mstore\n      0x20\n      add\n      0x03\n      dup3\n      add\n      sload\n      dup2\n      mstore\n      pop\n      pop\n      dup2\n      mstore\n      0x20\n      add\n      swap1\n      0x01\n      add\n      swap1\n      jump(tag_28)\n    tag_29:\n      pop\n      pop\n      pop\n      pop\n      swap1\n      pop\n        /* \"6_ Structs.sol\":986:1176  function getUserCars(address _user) external view returns (Car[] memory) {... */\n      swap2\n      swap1\n      pop\n      jump\t// out\n        /* \"6_ Structs.sol\":813:980  function getMyCars() external view returns (Car[] memory) {... */\n    tag_15:\n        /* \"6_ Structs.sol\":857:869  Car[] memory */\n      0x60\n        /* \"6_ Structs.sol\":954:961  garages */\n      0x00\n        /* \"6_ Structs.sol\":954:973  garages[msg.sender] */\n      dup1\n        /* \"6_ Structs.sol\":962:972  msg.sender */\n      caller\n        /* \"6_ Structs.sol\":954:973  garages[msg.sender] */\n      0xffffffffffffffffffffffffffffffffffffffff\n      and\n      0xffffffffffffffffffffffffffffffffffffffff\n      and\n      dup2\n      mstore\n      0x20\n      add\n      swap1\n      dup2\n      mstore\n      0x20\n      add\n      0x00\n      keccak256\n        /* \"6_ Structs.sol\":947:973  return garages[msg.sender] */\n      dup1\n      sload\n      dup1\n      0x20\n      mul\n      0x20\n      add\n      mload(0x40)\n      swap1\n      dup2\n      add\n      0x40\n      mstore\n      dup1\n      swap3\n      swap2\n      swap1\n      dup2\n      dup2\n      mstore\n      0x20\n      add\n      0x00\n      swap1\n    tag_48:\n      dup3\n      dup3\n      lt\n      iszero\n      tag_49\n      jumpi\n      dup4\n      dup3\n      swap1\n      0x00\n      mstore\n      keccak256(0x00, 0x20)\n      swap1\n      0x04\n      mul\n      add\n      mload(0x40)\n      dup1\n      0x80\n      add\n      0x40\n      mstore\n      swap1\n      dup2\n      0x00\n      dup3\n      add\n      dup1\n      sload\n      tag_51\n      swap1\n      tag_32\n      jump\t// in\n    tag_51:\n      dup1\n      0x1f\n      add\n      0x20\n      dup1\n      swap2\n      div\n      mul\n      0x20\n      add\n      mload(0x40)\n      swap1\n      dup2\n      add\n      0x40\n      mstore\n      dup1\n      swap3\n      swap2\n      swap1\n      dup2\n      dup2\n      mstore\n      0x20\n      add\n      dup3\n      dup1\n      sload\n      tag_52\n      swap1\n      tag_32\n      jump\t// in\n    tag_52:\n      dup1\n      iszero\n      tag_53\n      jumpi\n      dup1\n      0x1f\n      lt\n      tag_54\n      jumpi\n      0x0100\n      dup1\n      dup4\n      sload\n      div\n      mul\n      dup4\n      mstore\n      swap2\n      0x20\n      add\n      swap2\n      jump(tag_53)\n    tag_54:\n      dup3\n      add\n      swap2\n      swap1\n      0x00\n      mstore\n      keccak256(0x00, 0x20)\n      swap1\n    tag_55:\n      dup2\n      sload\n      dup2\n      mstore\n      swap1\n      0x01\n      add\n      swap1\n      0x20\n      add\n      dup1\n      dup4\n      gt\n      tag_55\n      jumpi\n      dup3\n      swap1\n      sub\n      0x1f\n      and\n      dup3\n      add\n      swap2\n    tag_53:\n      pop\n      pop\n      pop\n      pop\n      pop\n      dup2\n      mstore\n      0x20\n      add\n      0x01\n      dup3\n      add\n      dup1\n      sload\n      tag_56\n      swap1\n      tag_32\n      jump\t// in\n    tag_56:\n      dup1\n      0x1f\n      add\n      0x20\n      dup1\n      swap2\n      div\n      mul\n      0x20\n      add\n      mload(0x40)\n      swap1\n      dup2\n      add\n      0x40\n      mstore\n      dup1\n      swap3\n      swap2\n      swap1\n      dup2\n      dup2\n      mstore\n      0x20\n      add\n      dup3\n      dup1\n      sload\n      tag_57\n      swap1\n      tag_32\n      jump\t// in\n    tag_57:\n      dup1\n      iszero\n      tag_58\n      jumpi\n      dup1\n      0x1f\n      lt\n      tag_59\n      jumpi\n      0x0100\n      dup1\n      dup4\n      sload\n      div\n      mul\n      dup4\n      mstore\n      swap2\n      0x20\n      add\n      swap2\n      jump(tag_58)\n    tag_59:\n      dup3\n      add\n      swap2\n      swap1\n      0x00\n      mstore\n      keccak256(0x00, 0x20)\n      swap1\n    tag_60:\n      dup2\n      sload\n      dup2\n      mstore\n      swap1\n      0x01\n      add\n      swap1\n      0x20\n      add\n      dup1\n      dup4\n      gt\n      tag_60\n      jumpi\n      dup3\n      swap1\n      sub\n      0x1f\n      and\n      dup3\n      add\n      swap2\n    tag_58:\n      pop\n      pop\n      pop\n      pop\n      pop\n      dup2\n      mstore\n      0x20\n      add\n      0x02\n      dup3\n      add\n      dup1\n      sload\n      tag_61\n      swap1\n      tag_32\n      jump\t// in\n    tag_61:\n      dup1\n      0x1f\n      add\n      0x20\n      dup1\n      swap2\n      div\n      mul\n      0x20\n      add\n      mload(0x40)\n      swap1\n      dup2\n      add\n      0x40\n      mstore\n      dup1\n      swap3\n      swap2\n      swap1\n      dup2\n      dup2\n      mstore\n      0x20\n      add\n      dup3\n      dup1\n      sload\n      tag_62\n      swap1\n      tag_32\n      jump\t// in\n    tag_62:\n      dup1\n      iszero\n      tag_63\n      jumpi\n      dup1\n      0x1f\n      lt\n      tag_64\n      jumpi\n      0x0100\n      dup1\n      dup4\n      sload\n      div\n      mul\n      dup4\n      mstore\n      swap2\n      0x20\n      add\n      swap2\n      jump(tag_63)\n    tag_64:\n      dup3\n      add\n      swap2\n      swap1\n      0x00\n      mstore\n      keccak256(0x00, 0x20)\n      swap1\n    tag_65:\n      dup2\n      sload\n      dup2\n      mstore\n      swap1\n      0x01\n      add\n      swap1\n      0x20\n      add\n      dup1\n      dup4\n      gt\n      tag_65\n      jumpi\n      dup3\n      swap1\n      sub\n      0x1f\n      and\n      dup3\n      add\n      swap2\n    tag_63:\n      pop\n      pop\n      pop\n      pop\n      pop\n      dup2\n      mstore\n      0x20\n      add\n      0x03\n      dup3\n      add\n      sload\n      dup2\n      mstore\n      pop\n      pop\n      dup2\n      mstore\n      0x20\n      add\n      swap1\n      0x01\n      add\n      swap1\n      jump(tag_48)\n    tag_49:\n      pop\n      pop\n      pop\n      pop\n      swap1\n      pop\n        /* \"6_ Structs.sol\":813:980  function getMyCars() external view returns (Car[] memory) {... */\n      swap1\n      jump\t// out\n        /* \"6_ Structs.sol\":1182:1669  function updateCar(uint256 _index, string memory _make, string memory _model, string memory _color, uint _numberOfDoors) external {... */\n    tag_20:\n        /* \"6_ Structs.sol\":1384:1391  garages */\n      0x00\n        /* \"6_ Structs.sol\":1384:1403  garages[msg.sender] */\n      dup1\n        /* \"6_ Structs.sol\":1392:1402  msg.sender */\n      caller\n        /* \"6_ Structs.sol\":1384:1403  garages[msg.sender] */\n      0xffffffffffffffffffffffffffffffffffffffff\n      and\n      0xffffffffffffffffffffffffffffffffffffffff\n      and\n      dup2\n      mstore\n      0x20\n      add\n      swap1\n      dup2\n      mstore\n      0x20\n      add\n      0x00\n      keccak256\n        /* \"6_ Structs.sol\":1384:1410  garages[msg.sender].length */\n      dup1\n      sload\n      swap1\n      pop\n        /* \"6_ Structs.sol\":1374:1380  _index */\n      dup6\n        /* \"6_ Structs.sol\":1374:1410  _index >= garages[msg.sender].length */\n      lt\n        /* \"6_ Structs.sol\":1370:1524  if (_index >= garages[msg.sender].length) {... */\n      tag_67\n      jumpi\n        /* \"6_ Structs.sol\":1453:1459  _index */\n      dup5\n        /* \"6_ Structs.sol\":1433:1461  BadCarIndex({index: _index}) */\n      mload(0x40)\n      0x40c901ce00000000000000000000000000000000000000000000000000000000\n      dup2\n      mstore\n      0x04\n      add\n      tag_68\n      swap2\n      swap1\n      tag_69\n      jump\t// in\n    tag_68:\n      mload(0x40)\n      dup1\n      swap2\n      sub\n      swap1\n      revert\n        /* \"6_ Structs.sol\":1370:1524  if (_index >= garages[msg.sender].length) {... */\n    tag_67:\n        /* \"6_ Structs.sol\":1620:1662  Car(_make, _model, _color, _numberOfDoors) */\n      mload(0x40)\n      dup1\n      0x80\n      add\n      0x40\n      mstore\n      dup1\n        /* \"6_ Structs.sol\":1624:1629  _make */\n      dup6\n        /* \"6_ Structs.sol\":1620:1662  Car(_make, _model, _color, _numberOfDoors) */\n      dup2\n      mstore\n      0x20\n      add\n        /* \"6_ Structs.sol\":1631:1637  _model */\n      dup5\n        /* \"6_ Structs.sol\":1620:1662  Car(_make, _model, _color, _numberOfDoors) */\n      dup2\n      mstore\n      0x20\n      add\n        /* \"6_ Structs.sol\":1639:1645  _color */\n      dup4\n        /* \"6_ Structs.sol\":1620:1662  Car(_make, _model, _color, _numberOfDoors) */\n      dup2\n      mstore\n      0x20\n      add\n        /* \"6_ Structs.sol\":1647:1661  _numberOfDoors */\n      dup3\n        /* \"6_ Structs.sol\":1620:1662  Car(_make, _model, _color, _numberOfDoors) */\n      dup2\n      mstore\n      pop\n        /* \"6_ Structs.sol\":1590:1597  garages */\n      0x00\n        /* \"6_ Structs.sol\":1590:1609  garages[msg.sender] */\n      dup1\n        /* \"6_ Structs.sol\":1598:1608  msg.sender */\n      caller\n        /* \"6_ Structs.sol\":1590:1609  garages[msg.sender] */\n      0xffffffffffffffffffffffffffffffffffffffff\n      and\n      0xffffffffffffffffffffffffffffffffffffffff\n      and\n      dup2\n      mstore\n      0x20\n      add\n      swap1\n      dup2\n      mstore\n      0x20\n      add\n      0x00\n      keccak256\n        /* \"6_ Structs.sol\":1610:1616  _index */\n      dup7\n        /* \"6_ Structs.sol\":1590:1617  garages[msg.sender][_index] */\n      dup2\n      sload\n      dup2\n      lt\n      tag_70\n      jumpi\n      tag_71\n      tag_72\n      jump\t// in\n    tag_71:\n    tag_70:\n      swap1\n      0x00\n      mstore\n      keccak256(0x00, 0x20)\n      swap1\n      0x04\n      mul\n      add\n        /* \"6_ Structs.sol\":1590:1662  garages[msg.sender][_index] = Car(_make, _model, _color, _numberOfDoors) */\n      0x00\n      dup3\n      add\n      mload\n      dup2\n      0x00\n      add\n      swap1\n      dup2\n      tag_74\n      swap2\n      swap1\n      tag_75\n      jump\t// in\n    tag_74:\n      pop\n      0x20\n      dup3\n      add\n      mload\n      dup2\n      0x01\n      add\n      swap1\n      dup2\n      tag_76\n      swap2\n      swap1\n      tag_75\n      jump\t// in\n    tag_76:\n      pop\n      0x40\n      dup3\n      add\n      mload\n      dup2\n      0x02\n      add\n      swap1\n      dup2\n      tag_77\n      swap2\n      swap1\n      tag_75\n      jump\t// in\n    tag_77:\n      pop\n      0x60\n      dup3\n      add\n      mload\n      dup2\n      0x03\n      add\n      sstore\n      swap1\n      pop\n      pop\n        /* \"6_ Structs.sol\":1182:1669  function updateCar(uint256 _index, string memory _make, string memory _model, string memory _color, uint _numberOfDoors) external {... */\n      pop\n      pop\n      pop\n      pop\n      pop\n      jump\t// out\n        /* \"6_ Structs.sol\":1675:1804  function resetMyGarage() external {... */\n    tag_22:\n        /* \"6_ Structs.sol\":1778:1785  garages */\n      0x00\n        /* \"6_ Structs.sol\":1778:1797  garages[msg.sender] */\n      dup1\n        /* \"6_ Structs.sol\":1786:1796  msg.sender */\n      caller\n        /* \"6_ Structs.sol\":1778:1797  garages[msg.sender] */\n      0xffffffffffffffffffffffffffffffffffffffff\n      and\n      0xffffffffffffffffffffffffffffffffffffffff\n      and\n      dup2\n      mstore\n      0x20\n      add\n      swap1\n      dup2\n      mstore\n      0x20\n      add\n      0x00\n      keccak256\n      0x00\n        /* \"6_ Structs.sol\":1771:1797  delete garages[msg.sender] */\n      tag_79\n      swap2\n      swap1\n      tag_80\n      jump\t// in\n    tag_79:\n        /* \"6_ Structs.sol\":1675:1804  function resetMyGarage() external {... */\n      jump\t// out\n        /* \"6_ Structs.sol\":529:807  function addCar(string memory _make, string memory _model, string memory _color, uint _numberOfDoors) external {... */\n    tag_26:\n        /* \"6_ Structs.sol\":732:739  garages */\n      0x00\n        /* \"6_ Structs.sol\":732:751  garages[msg.sender] */\n      dup1\n        /* \"6_ Structs.sol\":740:750  msg.sender */\n      caller\n        /* \"6_ Structs.sol\":732:751  garages[msg.sender] */\n      0xffffffffffffffffffffffffffffffffffffffff\n      and\n      0xffffffffffffffffffffffffffffffffffffffff\n      and\n      dup2\n      mstore\n      0x20\n      add\n      swap1\n      dup2\n      mstore\n      0x20\n      add\n      0x00\n      keccak256\n        /* \"6_ Structs.sol\":757:799  Car(_make, _model, _color, _numberOfDoors) */\n      mload(0x40)\n      dup1\n      0x80\n      add\n      0x40\n      mstore\n      dup1\n        /* \"6_ Structs.sol\":761:766  _make */\n      dup7\n        /* \"6_ Structs.sol\":757:799  Car(_make, _model, _color, _numberOfDoors) */\n      dup2\n      mstore\n      0x20\n      add\n        /* \"6_ Structs.sol\":768:774  _model */\n      dup6\n        /* \"6_ Structs.sol\":757:799  Car(_make, _model, _color, _numberOfDoors) */\n      dup2\n      mstore\n      0x20\n      add\n        /* \"6_ Structs.sol\":776:782  _color */\n      dup5\n        /* \"6_ Structs.sol\":757:799  Car(_make, _model, _color, _numberOfDoors) */\n      dup2\n      mstore\n      0x20\n      add\n        /* \"6_ Structs.sol\":784:798  _numberOfDoors */\n      dup4\n        /* \"6_ Structs.sol\":757:799  Car(_make, _model, _color, _numberOfDoors) */\n      dup2\n      mstore\n      pop\n        /* \"6_ Structs.sol\":732:800  garages[msg.sender].push(Car(_make, _model, _color, _numberOfDoors)) */\n      swap1\n      dup1\n      0x01\n      dup2\n      sload\n      add\n      dup1\n      dup3\n      sstore\n      dup1\n      swap2\n      pop\n      pop\n      0x01\n      swap1\n      sub\n      swap1\n      0x00\n      mstore\n      keccak256(0x00, 0x20)\n      swap1\n      0x04\n      mul\n      add\n      0x00\n      swap1\n      swap2\n      swap1\n      swap2\n      swap1\n      swap2\n      pop\n      0x00\n      dup3\n      add\n      mload\n      dup2\n      0x00\n      add\n      swap1\n      dup2\n      tag_83\n      swap2\n      swap1\n      tag_75\n      jump\t// in\n    tag_83:\n      pop\n      0x20\n      dup3\n      add\n      mload\n      dup2\n      0x01\n      add\n      swap1\n      dup2\n      tag_84\n      swap2\n      swap1\n      tag_75\n      jump\t// in\n    tag_84:\n      pop\n      0x40\n      dup3\n      add\n      mload\n      dup2\n      0x02\n      add\n      swap1\n      dup2\n      tag_85\n      swap2\n      swap1\n      tag_75\n      jump\t// in\n    tag_85:\n      pop\n      0x60\n      dup3\n      add\n      mload\n      dup2\n      0x03\n      add\n      sstore\n      pop\n      pop\n        /* \"6_ Structs.sol\":529:807  function addCar(string memory _make, string memory _model, string memory _color, uint _numberOfDoors) external {... */\n      pop\n      pop\n      pop\n      pop\n      jump\t// out\n    tag_80:\n      pop\n      dup1\n      sload\n      0x00\n      dup3\n      sstore\n      0x04\n      mul\n      swap1\n      0x00\n      mstore\n      keccak256(0x00, 0x20)\n      swap1\n      dup2\n      add\n      swap1\n      tag_87\n      swap2\n      swap1\n      tag_88\n      jump\t// in\n    tag_87:\n      pop\n      jump\t// out\n    tag_88:\n    tag_89:\n      dup1\n      dup3\n      gt\n      iszero\n      tag_90\n      jumpi\n      0x00\n      dup1\n      dup3\n      add\n      0x00\n      tag_91\n      swap2\n      swap1\n      tag_92\n      jump\t// in\n    tag_91:\n      0x01\n      dup3\n      add\n      0x00\n      tag_93\n      swap2\n      swap1\n      tag_92\n      jump\t// in\n    tag_93:\n      0x02\n      dup3\n      add\n      0x00\n      tag_94\n      swap2\n      swap1\n      tag_92\n      jump\t// in\n    tag_94:\n      0x03\n      dup3\n      add\n      0x00\n      swap1\n      sstore\n      pop\n      0x04\n      add\n      jump(tag_89)\n    tag_90:\n      pop\n      swap1\n      jump\t// out\n    tag_92:\n      pop\n      dup1\n      sload\n      tag_95\n      swap1\n      tag_32\n      jump\t// in\n    tag_95:\n      0x00\n      dup3\n      sstore\n      dup1\n      0x1f\n      lt\n      tag_97\n      jumpi\n      pop\n      jump(tag_96)\n    tag_97:\n      0x1f\n      add\n      0x20\n      swap1\n      div\n      swap1\n      0x00\n      mstore\n      keccak256(0x00, 0x20)\n      swap1\n      dup2\n      add\n      swap1\n      tag_98\n      swap2\n      swap1\n      tag_99\n      jump\t// in\n    tag_98:\n    tag_96:\n      pop\n      jump\t// out\n    tag_99:\n    tag_100:\n      dup1\n      dup3\n      gt\n      iszero\n      tag_101\n      jumpi\n      0x00\n      dup2\n      0x00\n      swap1\n      sstore\n      pop\n      0x01\n      add\n      jump(tag_100)\n    tag_101:\n      pop\n      swap1\n      jump\t// out\n        /* \"#utility.yul\":7:82   */\n    tag_102:\n        /* \"#utility.yul\":40:46   */\n      0x00\n        /* \"#utility.yul\":73:75   */\n      0x40\n        /* \"#utility.yul\":67:76   */\n      mload\n        /* \"#utility.yul\":57:76   */\n      swap1\n      pop\n        /* \"#utility.yul\":7:82   */\n      swap1\n      jump\t// out\n        /* \"#utility.yul\":88:205   */\n    tag_103:\n        /* \"#utility.yul\":197:198   */\n      0x00\n        /* \"#utility.yul\":194:195   */\n      dup1\n        /* \"#utility.yul\":187:199   */\n      revert\n        /* \"#utility.yul\":211:328   */\n    tag_104:\n        /* \"#utility.yul\":320:321   */\n      0x00\n        /* \"#utility.yul\":317:318   */\n      dup1\n        /* \"#utility.yul\":310:322   */\n      revert\n        /* \"#utility.yul\":334:460   */\n    tag_105:\n        /* \"#utility.yul\":371:378   */\n      0x00\n        /* \"#utility.yul\":411:453   */\n      0xffffffffffffffffffffffffffffffffffffffff\n        /* \"#utility.yul\":404:409   */\n      dup3\n        /* \"#utility.yul\":400:454   */\n      and\n        /* \"#utility.yul\":389:454   */\n      swap1\n      pop\n        /* \"#utility.yul\":334:460   */\n      swap2\n      swap1\n      pop\n      jump\t// out\n        /* \"#utility.yul\":466:562   */\n    tag_106:\n        /* \"#utility.yul\":503:510   */\n      0x00\n        /* \"#utility.yul\":532:556   */\n      tag_157\n        /* \"#utility.yul\":550:555   */\n      dup3\n        /* \"#utility.yul\":532:556   */\n      tag_105\n      jump\t// in\n    tag_157:\n        /* \"#utility.yul\":521:556   */\n      swap1\n      pop\n        /* \"#utility.yul\":466:562   */\n      swap2\n      swap1\n      pop\n      jump\t// out\n        /* \"#utility.yul\":568:690   */\n    tag_107:\n        /* \"#utility.yul\":641:665   */\n      tag_159\n        /* \"#utility.yul\":659:664   */\n      dup2\n        /* \"#utility.yul\":641:665   */\n      tag_106\n      jump\t// in\n    tag_159:\n        /* \"#utility.yul\":634:639   */\n      dup2\n        /* \"#utility.yul\":631:666   */\n      eq\n        /* \"#utility.yul\":621:684   */\n      tag_160\n      jumpi\n        /* \"#utility.yul\":680:681   */\n      0x00\n        /* \"#utility.yul\":677:678   */\n      dup1\n        /* \"#utility.yul\":670:682   */\n      revert\n        /* \"#utility.yul\":621:684   */\n    tag_160:\n        /* \"#utility.yul\":568:690   */\n      pop\n      jump\t// out\n        /* \"#utility.yul\":696:835   */\n    tag_108:\n        /* \"#utility.yul\":742:747   */\n      0x00\n        /* \"#utility.yul\":780:786   */\n      dup2\n        /* \"#utility.yul\":767:787   */\n      calldataload\n        /* \"#utility.yul\":758:787   */\n      swap1\n      pop\n        /* \"#utility.yul\":796:829   */\n      tag_162\n        /* \"#utility.yul\":823:828   */\n      dup2\n        /* \"#utility.yul\":796:829   */\n      tag_107\n      jump\t// in\n    tag_162:\n        /* \"#utility.yul\":696:835   */\n      swap3\n      swap2\n      pop\n      pop\n      jump\t// out\n        /* \"#utility.yul\":841:1170   */\n    tag_10:\n        /* \"#utility.yul\":900:906   */\n      0x00\n        /* \"#utility.yul\":949:951   */\n      0x20\n        /* \"#utility.yul\":937:946   */\n      dup3\n        /* \"#utility.yul\":928:935   */\n      dup5\n        /* \"#utility.yul\":924:947   */\n      sub\n        /* \"#utility.yul\":920:952   */\n      slt\n        /* \"#utility.yul\":917:1036   */\n      iszero\n      tag_164\n      jumpi\n        /* \"#utility.yul\":955:1034   */\n      tag_165\n      tag_103\n      jump\t// in\n    tag_165:\n        /* \"#utility.yul\":917:1036   */\n    tag_164:\n        /* \"#utility.yul\":1075:1076   */\n      0x00\n        /* \"#utility.yul\":1100:1153   */\n      tag_166\n        /* \"#utility.yul\":1145:1152   */\n      dup5\n        /* \"#utility.yul\":1136:1142   */\n      dup3\n        /* \"#utility.yul\":1125:1134   */\n      dup6\n        /* \"#utility.yul\":1121:1143   */\n      add\n        /* \"#utility.yul\":1100:1153   */\n      tag_108\n      jump\t// in\n    tag_166:\n        /* \"#utility.yul\":1090:1153   */\n      swap2\n      pop\n        /* \"#utility.yul\":1046:1163   */\n      pop\n        /* \"#utility.yul\":841:1170   */\n      swap3\n      swap2\n      pop\n      pop\n      jump\t// out\n        /* \"#utility.yul\":1176:1309   */\n    tag_109:\n        /* \"#utility.yul\":1262:1268   */\n      0x00\n        /* \"#utility.yul\":1296:1301   */\n      dup2\n        /* \"#utility.yul\":1290:1302   */\n      mload\n        /* \"#utility.yul\":1280:1302   */\n      swap1\n      pop\n        /* \"#utility.yul\":1176:1309   */\n      swap2\n      swap1\n      pop\n      jump\t// out\n        /* \"#utility.yul\":1315:1518   */\n    tag_110:\n        /* \"#utility.yul\":1433:1444   */\n      0x00\n        /* \"#utility.yul\":1467:1473   */\n      dup3\n        /* \"#utility.yul\":1462:1465   */\n      dup3\n        /* \"#utility.yul\":1455:1474   */\n      mstore\n        /* \"#utility.yul\":1507:1511   */\n      0x20\n        /* \"#utility.yul\":1502:1505   */\n      dup3\n        /* \"#utility.yul\":1498:1512   */\n      add\n        /* \"#utility.yul\":1483:1512   */\n      swap1\n      pop\n        /* \"#utility.yul\":1315:1518   */\n      swap3\n      swap2\n      pop\n      pop\n      jump\t// out\n        /* \"#utility.yul\":1524:1675   */\n    tag_111:\n        /* \"#utility.yul\":1610:1614   */\n      0x00\n        /* \"#utility.yul\":1633:1636   */\n      dup2\n        /* \"#utility.yul\":1625:1636   */\n      swap1\n      pop\n        /* \"#utility.yul\":1663:1667   */\n      0x20\n        /* \"#utility.yul\":1658:1661   */\n      dup3\n        /* \"#utility.yul\":1654:1668   */\n      add\n        /* \"#utility.yul\":1646:1668   */\n      swap1\n      pop\n        /* \"#utility.yul\":1524:1675   */\n      swap2\n      swap1\n      pop\n      jump\t// out\n        /* \"#utility.yul\":1681:1780   */\n    tag_112:\n        /* \"#utility.yul\":1733:1739   */\n      0x00\n        /* \"#utility.yul\":1767:1772   */\n      dup2\n        /* \"#utility.yul\":1761:1773   */\n      mload\n        /* \"#utility.yul\":1751:1773   */\n      swap1\n      pop\n        /* \"#utility.yul\":1681:1780   */\n      swap2\n      swap1\n      pop\n      jump\t// out\n        /* \"#utility.yul\":1786:1945   */\n    tag_113:\n        /* \"#utility.yul\":1860:1871   */\n      0x00\n        /* \"#utility.yul\":1894:1900   */\n      dup3\n        /* \"#utility.yul\":1889:1892   */\n      dup3\n        /* \"#utility.yul\":1882:1901   */\n      mstore\n        /* \"#utility.yul\":1934:1938   */\n      0x20\n        /* \"#utility.yul\":1929:1932   */\n      dup3\n        /* \"#utility.yul\":1925:1939   */\n      add\n        /* \"#utility.yul\":1910:1939   */\n      swap1\n      pop\n        /* \"#utility.yul\":1786:1945   */\n      swap3\n      swap2\n      pop\n      pop\n      jump\t// out\n        /* \"#utility.yul\":1951:2090   */\n    tag_114:\n        /* \"#utility.yul\":2040:2046   */\n      dup3\n        /* \"#utility.yul\":2035:2038   */\n      dup2\n        /* \"#utility.yul\":2030:2033   */\n      dup4\n        /* \"#utility.yul\":2024:2047   */\n      mcopy\n        /* \"#utility.yul\":2081:2082   */\n      0x00\n        /* \"#utility.yul\":2072:2078   */\n      dup4\n        /* \"#utility.yul\":2067:2070   */\n      dup4\n        /* \"#utility.yul\":2063:2079   */\n      add\n        /* \"#utility.yul\":2056:2083   */\n      mstore\n        /* \"#utility.yul\":1951:2090   */\n      pop\n      pop\n      pop\n      jump\t// out\n        /* \"#utility.yul\":2096:2198   */\n    tag_115:\n        /* \"#utility.yul\":2137:2143   */\n      0x00\n        /* \"#utility.yul\":2188:2190   */\n      0x1f\n        /* \"#utility.yul\":2184:2191   */\n      not\n        /* \"#utility.yul\":2179:2181   */\n      0x1f\n        /* \"#utility.yul\":2172:2177   */\n      dup4\n        /* \"#utility.yul\":2168:2182   */\n      add\n        /* \"#utility.yul\":2164:2192   */\n      and\n        /* \"#utility.yul\":2154:2192   */\n      swap1\n      pop\n        /* \"#utility.yul\":2096:2198   */\n      swap2\n      swap1\n      pop\n      jump\t// out\n        /* \"#utility.yul\":2204:2561   */\n    tag_116:\n        /* \"#utility.yul\":2282:2285   */\n      0x00\n        /* \"#utility.yul\":2310:2349   */\n      tag_175\n        /* \"#utility.yul\":2343:2348   */\n      dup3\n        /* \"#utility.yul\":2310:2349   */\n      tag_112\n      jump\t// in\n    tag_175:\n        /* \"#utility.yul\":2365:2426   */\n      tag_176\n        /* \"#utility.yul\":2419:2425   */\n      dup2\n        /* \"#utility.yul\":2414:2417   */\n      dup6\n        /* \"#utility.yul\":2365:2426   */\n      tag_113\n      jump\t// in\n    tag_176:\n        /* \"#utility.yul\":2358:2426   */\n      swap4\n      pop\n        /* \"#utility.yul\":2435:2500   */\n      tag_177\n        /* \"#utility.yul\":2493:2499   */\n      dup2\n        /* \"#utility.yul\":2488:2491   */\n      dup6\n        /* \"#utility.yul\":2481:2485   */\n      0x20\n        /* \"#utility.yul\":2474:2479   */\n      dup7\n        /* \"#utility.yul\":2470:2486   */\n      add\n        /* \"#utility.yul\":2435:2500   */\n      tag_114\n      jump\t// in\n    tag_177:\n        /* \"#utility.yul\":2525:2554   */\n      tag_178\n        /* \"#utility.yul\":2547:2553   */\n      dup2\n        /* \"#utility.yul\":2525:2554   */\n      tag_115\n      jump\t// in\n    tag_178:\n        /* \"#utility.yul\":2520:2523   */\n      dup5\n        /* \"#utility.yul\":2516:2555   */\n      add\n        /* \"#utility.yul\":2509:2555   */\n      swap2\n      pop\n        /* \"#utility.yul\":2286:2561   */\n      pop\n        /* \"#utility.yul\":2204:2561   */\n      swap3\n      swap2\n      pop\n      pop\n      jump\t// out\n        /* \"#utility.yul\":2567:2644   */\n    tag_117:\n        /* \"#utility.yul\":2604:2611   */\n      0x00\n        /* \"#utility.yul\":2633:2638   */\n      dup2\n        /* \"#utility.yul\":2622:2638   */\n      swap1\n      pop\n        /* \"#utility.yul\":2567:2644   */\n      swap2\n      swap1\n      pop\n      jump\t// out\n        /* \"#utility.yul\":2650:2758   */\n    tag_118:\n        /* \"#utility.yul\":2727:2751   */\n      tag_181\n        /* \"#utility.yul\":2745:2750   */\n      dup2\n        /* \"#utility.yul\":2727:2751   */\n      tag_117\n      jump\t// in\n    tag_181:\n        /* \"#utility.yul\":2722:2725   */\n      dup3\n        /* \"#utility.yul\":2715:2752   */\n      mstore\n        /* \"#utility.yul\":2650:2758   */\n      pop\n      pop\n      jump\t// out\n        /* \"#utility.yul\":2824:3909   */\n    tag_119:\n        /* \"#utility.yul\":2921:2924   */\n      0x00\n        /* \"#utility.yul\":2957:2961   */\n      0x80\n        /* \"#utility.yul\":2952:2955   */\n      dup4\n        /* \"#utility.yul\":2948:2962   */\n      add\n        /* \"#utility.yul\":3044:3048   */\n      0x00\n        /* \"#utility.yul\":3037:3042   */\n      dup4\n        /* \"#utility.yul\":3033:3049   */\n      add\n        /* \"#utility.yul\":3027:3050   */\n      mload\n        /* \"#utility.yul\":3097:3100   */\n      dup5\n        /* \"#utility.yul\":3091:3095   */\n      dup3\n        /* \"#utility.yul\":3087:3101   */\n      sub\n        /* \"#utility.yul\":3080:3084   */\n      0x00\n        /* \"#utility.yul\":3075:3078   */\n      dup7\n        /* \"#utility.yul\":3071:3085   */\n      add\n        /* \"#utility.yul\":3064:3102   */\n      mstore\n        /* \"#utility.yul\":3123:3196   */\n      tag_183\n        /* \"#utility.yul\":3191:3195   */\n      dup3\n        /* \"#utility.yul\":3177:3189   */\n      dup3\n        /* \"#utility.yul\":3123:3196   */\n      tag_116\n      jump\t// in\n    tag_183:\n        /* \"#utility.yul\":3115:3196   */\n      swap2\n      pop\n        /* \"#utility.yul\":2972:3207   */\n      pop\n        /* \"#utility.yul\":3290:3294   */\n      0x20\n        /* \"#utility.yul\":3283:3288   */\n      dup4\n        /* \"#utility.yul\":3279:3295   */\n      add\n        /* \"#utility.yul\":3273:3296   */\n      mload\n        /* \"#utility.yul\":3343:3346   */\n      dup5\n        /* \"#utility.yul\":3337:3341   */\n      dup3\n        /* \"#utility.yul\":3333:3347   */\n      sub\n        /* \"#utility.yul\":3326:3330   */\n      0x20\n        /* \"#utility.yul\":3321:3324   */\n      dup7\n        /* \"#utility.yul\":3317:3331   */\n      add\n        /* \"#utility.yul\":3310:3348   */\n      mstore\n        /* \"#utility.yul\":3369:3442   */\n      tag_184\n        /* \"#utility.yul\":3437:3441   */\n      dup3\n        /* \"#utility.yul\":3423:3435   */\n      dup3\n        /* \"#utility.yul\":3369:3442   */\n      tag_116\n      jump\t// in\n    tag_184:\n        /* \"#utility.yul\":3361:3442   */\n      swap2\n      pop\n        /* \"#utility.yul\":3217:3453   */\n      pop\n        /* \"#utility.yul\":3536:3540   */\n      0x40\n        /* \"#utility.yul\":3529:3534   */\n      dup4\n        /* \"#utility.yul\":3525:3541   */\n      add\n        /* \"#utility.yul\":3519:3542   */\n      mload\n        /* \"#utility.yul\":3589:3592   */\n      dup5\n        /* \"#utility.yul\":3583:3587   */\n      dup3\n        /* \"#utility.yul\":3579:3593   */\n      sub\n        /* \"#utility.yul\":3572:3576   */\n      0x40\n        /* \"#utility.yul\":3567:3570   */\n      dup7\n        /* \"#utility.yul\":3563:3577   */\n      add\n        /* \"#utility.yul\":3556:3594   */\n      mstore\n        /* \"#utility.yul\":3615:3688   */\n      tag_185\n        /* \"#utility.yul\":3683:3687   */\n      dup3\n        /* \"#utility.yul\":3669:3681   */\n      dup3\n        /* \"#utility.yul\":3615:3688   */\n      tag_116\n      jump\t// in\n    tag_185:\n        /* \"#utility.yul\":3607:3688   */\n      swap2\n      pop\n        /* \"#utility.yul\":3463:3699   */\n      pop\n        /* \"#utility.yul\":3790:3794   */\n      0x60\n        /* \"#utility.yul\":3783:3788   */\n      dup4\n        /* \"#utility.yul\":3779:3795   */\n      add\n        /* \"#utility.yul\":3773:3796   */\n      mload\n        /* \"#utility.yul\":3809:3872   */\n      tag_186\n        /* \"#utility.yul\":3866:3870   */\n      0x60\n        /* \"#utility.yul\":3861:3864   */\n      dup7\n        /* \"#utility.yul\":3857:3871   */\n      add\n        /* \"#utility.yul\":3843:3855   */\n      dup3\n        /* \"#utility.yul\":3809:3872   */\n      tag_118\n      jump\t// in\n    tag_186:\n        /* \"#utility.yul\":3709:3882   */\n      pop\n        /* \"#utility.yul\":3899:3903   */\n      dup1\n        /* \"#utility.yul\":3892:3903   */\n      swap2\n      pop\n        /* \"#utility.yul\":2926:3909   */\n      pop\n        /* \"#utility.yul\":2824:3909   */\n      swap3\n      swap2\n      pop\n      pop\n      jump\t// out\n        /* \"#utility.yul\":3915:4147   */\n    tag_120:\n        /* \"#utility.yul\":4022:4032   */\n      0x00\n        /* \"#utility.yul\":4057:4141   */\n      tag_188\n        /* \"#utility.yul\":4137:4140   */\n      dup4\n        /* \"#utility.yul\":4129:4135   */\n      dup4\n        /* \"#utility.yul\":4057:4141   */\n      tag_119\n      jump\t// in\n    tag_188:\n        /* \"#utility.yul\":4043:4141   */\n      swap1\n      pop\n        /* \"#utility.yul\":3915:4147   */\n      swap3\n      swap2\n      pop\n      pop\n      jump\t// out\n        /* \"#utility.yul\":4153:4285   */\n    tag_121:\n        /* \"#utility.yul\":4242:4246   */\n      0x00\n        /* \"#utility.yul\":4274:4278   */\n      0x20\n        /* \"#utility.yul\":4269:4272   */\n      dup3\n        /* \"#utility.yul\":4265:4279   */\n      add\n        /* \"#utility.yul\":4257:4279   */\n      swap1\n      pop\n        /* \"#utility.yul\":4153:4285   */\n      swap2\n      swap1\n      pop\n      jump\t// out\n        /* \"#utility.yul\":4355:5418   */\n    tag_122:\n        /* \"#utility.yul\":4512:4515   */\n      0x00\n        /* \"#utility.yul\":4541:4614   */\n      tag_191\n        /* \"#utility.yul\":4608:4613   */\n      dup3\n        /* \"#utility.yul\":4541:4614   */\n      tag_109\n      jump\t// in\n    tag_191:\n        /* \"#utility.yul\":4630:4735   */\n      tag_192\n        /* \"#utility.yul\":4728:4734   */\n      dup2\n        /* \"#utility.yul\":4723:4726   */\n      dup6\n        /* \"#utility.yul\":4630:4735   */\n      tag_110\n      jump\t// in\n    tag_192:\n        /* \"#utility.yul\":4623:4735   */\n      swap4\n      pop\n        /* \"#utility.yul\":4761:4764   */\n      dup4\n        /* \"#utility.yul\":4806:4810   */\n      0x20\n        /* \"#utility.yul\":4798:4804   */\n      dup3\n        /* \"#utility.yul\":4794:4811   */\n      mul\n        /* \"#utility.yul\":4789:4792   */\n      dup6\n        /* \"#utility.yul\":4785:4812   */\n      add\n        /* \"#utility.yul\":4836:4911   */\n      tag_193\n        /* \"#utility.yul\":4905:4910   */\n      dup6\n        /* \"#utility.yul\":4836:4911   */\n      tag_111\n      jump\t// in\n    tag_193:\n        /* \"#utility.yul\":4934:4941   */\n      dup1\n        /* \"#utility.yul\":4965:4966   */\n      0x00\n        /* \"#utility.yul\":4950:5373   */\n    tag_194:\n        /* \"#utility.yul\":4975:4981   */\n      dup6\n        /* \"#utility.yul\":4972:4973   */\n      dup2\n        /* \"#utility.yul\":4969:4982   */\n      lt\n        /* \"#utility.yul\":4950:5373   */\n      iszero\n      tag_196\n      jumpi\n        /* \"#utility.yul\":5046:5055   */\n      dup5\n        /* \"#utility.yul\":5040:5044   */\n      dup5\n        /* \"#utility.yul\":5036:5056   */\n      sub\n        /* \"#utility.yul\":5031:5034   */\n      dup10\n        /* \"#utility.yul\":5024:5057   */\n      mstore\n        /* \"#utility.yul\":5097:5103   */\n      dup2\n        /* \"#utility.yul\":5091:5104   */\n      mload\n        /* \"#utility.yul\":5125:5227   */\n      tag_197\n        /* \"#utility.yul\":5222:5226   */\n      dup6\n        /* \"#utility.yul\":5207:5220   */\n      dup3\n        /* \"#utility.yul\":5125:5227   */\n      tag_120\n      jump\t// in\n    tag_197:\n        /* \"#utility.yul\":5117:5227   */\n      swap5\n      pop\n        /* \"#utility.yul\":5250:5329   */\n      tag_198\n        /* \"#utility.yul\":5322:5328   */\n      dup4\n        /* \"#utility.yul\":5250:5329   */\n      tag_121\n      jump\t// in\n    tag_198:\n        /* \"#utility.yul\":5240:5329   */\n      swap3\n      pop\n        /* \"#utility.yul\":5358:5362   */\n      0x20\n        /* \"#utility.yul\":5353:5356   */\n      dup11\n        /* \"#utility.yul\":5349:5363   */\n      add\n        /* \"#utility.yul\":5342:5363   */\n      swap10\n      pop\n        /* \"#utility.yul\":5010:5373   */\n      pop\n        /* \"#utility.yul\":4997:4998   */\n      0x01\n        /* \"#utility.yul\":4994:4995   */\n      dup2\n        /* \"#utility.yul\":4990:4999   */\n      add\n        /* \"#utility.yul\":4985:4999   */\n      swap1\n      pop\n        /* \"#utility.yul\":4950:5373   */\n      jump(tag_194)\n    tag_196:\n        /* \"#utility.yul\":4954:4968   */\n      pop\n        /* \"#utility.yul\":5389:5393   */\n      dup3\n        /* \"#utility.yul\":5382:5393   */\n      swap8\n      pop\n        /* \"#utility.yul\":5409:5412   */\n      dup8\n        /* \"#utility.yul\":5402:5412   */\n      swap6\n      pop\n        /* \"#utility.yul\":4517:5418   */\n      pop\n      pop\n      pop\n      pop\n      pop\n        /* \"#utility.yul\":4355:5418   */\n      swap3\n      swap2\n      pop\n      pop\n      jump\t// out\n        /* \"#utility.yul\":5424:5873   */\n    tag_13:\n        /* \"#utility.yul\":5605:5609   */\n      0x00\n        /* \"#utility.yul\":5643:5645   */\n      0x20\n        /* \"#utility.yul\":5632:5641   */\n      dup3\n        /* \"#utility.yul\":5628:5646   */\n      add\n        /* \"#utility.yul\":5620:5646   */\n      swap1\n      pop\n        /* \"#utility.yul\":5692:5701   */\n      dup2\n        /* \"#utility.yul\":5686:5690   */\n      dup2\n        /* \"#utility.yul\":5682:5702   */\n      sub\n        /* \"#utility.yul\":5678:5679   */\n      0x00\n        /* \"#utility.yul\":5667:5676   */\n      dup4\n        /* \"#utility.yul\":5663:5680   */\n      add\n        /* \"#utility.yul\":5656:5703   */\n      mstore\n        /* \"#utility.yul\":5720:5866   */\n      tag_200\n        /* \"#utility.yul\":5861:5865   */\n      dup2\n        /* \"#utility.yul\":5852:5858   */\n      dup5\n        /* \"#utility.yul\":5720:5866   */\n      tag_122\n      jump\t// in\n    tag_200:\n        /* \"#utility.yul\":5712:5866   */\n      swap1\n      pop\n        /* \"#utility.yul\":5424:5873   */\n      swap3\n      swap2\n      pop\n      pop\n      jump\t// out\n        /* \"#utility.yul\":5879:6001   */\n    tag_123:\n        /* \"#utility.yul\":5952:5976   */\n      tag_202\n        /* \"#utility.yul\":5970:5975   */\n      dup2\n        /* \"#utility.yul\":5952:5976   */\n      tag_117\n      jump\t// in\n    tag_202:\n        /* \"#utility.yul\":5945:5950   */\n      dup2\n        /* \"#utility.yul\":5942:5977   */\n      eq\n        /* \"#utility.yul\":5932:5995   */\n      tag_203\n      jumpi\n        /* \"#utility.yul\":5991:5992   */\n      0x00\n        /* \"#utility.yul\":5988:5989   */\n      dup1\n        /* \"#utility.yul\":5981:5993   */\n      revert\n        /* \"#utility.yul\":5932:5995   */\n    tag_203:\n        /* \"#utility.yul\":5879:6001   */\n      pop\n      jump\t// out\n        /* \"#utility.yul\":6007:6146   */\n    tag_124:\n        /* \"#utility.yul\":6053:6058   */\n      0x00\n        /* \"#utility.yul\":6091:6097   */\n      dup2\n        /* \"#utility.yul\":6078:6098   */\n      calldataload\n        /* \"#utility.yul\":6069:6098   */\n      swap1\n      pop\n        /* \"#utility.yul\":6107:6140   */\n      tag_205\n        /* \"#utility.yul\":6134:6139   */\n      dup2\n        /* \"#utility.yul\":6107:6140   */\n      tag_123\n      jump\t// in\n    tag_205:\n        /* \"#utility.yul\":6007:6146   */\n      swap3\n      swap2\n      pop\n      pop\n      jump\t// out\n        /* \"#utility.yul\":6152:6269   */\n    tag_125:\n        /* \"#utility.yul\":6261:6262   */\n      0x00\n        /* \"#utility.yul\":6258:6259   */\n      dup1\n        /* \"#utility.yul\":6251:6263   */\n      revert\n        /* \"#utility.yul\":6275:6392   */\n    tag_126:\n        /* \"#utility.yul\":6384:6385   */\n      0x00\n        /* \"#utility.yul\":6381:6382   */\n      dup1\n        /* \"#utility.yul\":6374:6386   */\n      revert\n        /* \"#utility.yul\":6398:6578   */\n    tag_127:\n        /* \"#utility.yul\":6446:6523   */\n      0x4e487b7100000000000000000000000000000000000000000000000000000000\n        /* \"#utility.yul\":6443:6444   */\n      0x00\n        /* \"#utility.yul\":6436:6524   */\n      mstore\n        /* \"#utility.yul\":6543:6547   */\n      0x41\n        /* \"#utility.yul\":6540:6541   */\n      0x04\n        /* \"#utility.yul\":6533:6548   */\n      mstore\n        /* \"#utility.yul\":6567:6571   */\n      0x24\n        /* \"#utility.yul\":6564:6565   */\n      0x00\n        /* \"#utility.yul\":6557:6572   */\n      revert\n        /* \"#utility.yul\":6584:6865   */\n    tag_128:\n        /* \"#utility.yul\":6667:6694   */\n      tag_210\n        /* \"#utility.yul\":6689:6693   */\n      dup3\n        /* \"#utility.yul\":6667:6694   */\n      tag_115\n      jump\t// in\n    tag_210:\n        /* \"#utility.yul\":6659:6665   */\n      dup2\n        /* \"#utility.yul\":6655:6695   */\n      add\n        /* \"#utility.yul\":6797:6803   */\n      dup2\n        /* \"#utility.yul\":6785:6795   */\n      dup2\n        /* \"#utility.yul\":6782:6804   */\n      lt\n        /* \"#utility.yul\":6761:6779   */\n      0xffffffffffffffff\n        /* \"#utility.yul\":6749:6759   */\n      dup3\n        /* \"#utility.yul\":6746:6780   */\n      gt\n        /* \"#utility.yul\":6743:6805   */\n      or\n        /* \"#utility.yul\":6740:6828   */\n      iszero\n      tag_211\n      jumpi\n        /* \"#utility.yul\":6808:6826   */\n      tag_212\n      tag_127\n      jump\t// in\n    tag_212:\n        /* \"#utility.yul\":6740:6828   */\n    tag_211:\n        /* \"#utility.yul\":6848:6858   */\n      dup1\n        /* \"#utility.yul\":6844:6846   */\n      0x40\n        /* \"#utility.yul\":6837:6859   */\n      mstore\n        /* \"#utility.yul\":6627:6865   */\n      pop\n        /* \"#utility.yul\":6584:6865   */\n      pop\n      pop\n      jump\t// out\n        /* \"#utility.yul\":6871:7000   */\n    tag_129:\n        /* \"#utility.yul\":6905:6911   */\n      0x00\n        /* \"#utility.yul\":6932:6952   */\n      tag_214\n      tag_102\n      jump\t// in\n    tag_214:\n        /* \"#utility.yul\":6922:6952   */\n      swap1\n      pop\n        /* \"#utility.yul\":6961:6994   */\n      tag_215\n        /* \"#utility.yul\":6989:6993   */\n      dup3\n        /* \"#utility.yul\":6981:6987   */\n      dup3\n        /* \"#utility.yul\":6961:6994   */\n      tag_128\n      jump\t// in\n    tag_215:\n        /* \"#utility.yul\":6871:7000   */\n      swap2\n      swap1\n      pop\n      jump\t// out\n        /* \"#utility.yul\":7006:7314   */\n    tag_130:\n        /* \"#utility.yul\":7068:7072   */\n      0x00\n        /* \"#utility.yul\":7158:7176   */\n      0xffffffffffffffff\n        /* \"#utility.yul\":7150:7156   */\n      dup3\n        /* \"#utility.yul\":7147:7177   */\n      gt\n        /* \"#utility.yul\":7144:7200   */\n      iszero\n      tag_217\n      jumpi\n        /* \"#utility.yul\":7180:7198   */\n      tag_218\n      tag_127\n      jump\t// in\n    tag_218:\n        /* \"#utility.yul\":7144:7200   */\n    tag_217:\n        /* \"#utility.yul\":7218:7247   */\n      tag_219\n        /* \"#utility.yul\":7240:7246   */\n      dup3\n        /* \"#utility.yul\":7218:7247   */\n      tag_115\n      jump\t// in\n    tag_219:\n        /* \"#utility.yul\":7210:7247   */\n      swap1\n      pop\n        /* \"#utility.yul\":7302:7306   */\n      0x20\n        /* \"#utility.yul\":7296:7300   */\n      dup2\n        /* \"#utility.yul\":7292:7307   */\n      add\n        /* \"#utility.yul\":7284:7307   */\n      swap1\n      pop\n        /* \"#utility.yul\":7006:7314   */\n      swap2\n      swap1\n      pop\n      jump\t// out\n        /* \"#utility.yul\":7320:7468   */\n    tag_131:\n        /* \"#utility.yul\":7418:7424   */\n      dup3\n        /* \"#utility.yul\":7413:7416   */\n      dup2\n        /* \"#utility.yul\":7408:7411   */\n      dup4\n        /* \"#utility.yul\":7395:7425   */\n      calldatacopy\n        /* \"#utility.yul\":7459:7460   */\n      0x00\n        /* \"#utility.yul\":7450:7456   */\n      dup4\n        /* \"#utility.yul\":7445:7448   */\n      dup4\n        /* \"#utility.yul\":7441:7457   */\n      add\n        /* \"#utility.yul\":7434:7461   */\n      mstore\n        /* \"#utility.yul\":7320:7468   */\n      pop\n      pop\n      pop\n      jump\t// out\n        /* \"#utility.yul\":7474:7899   */\n    tag_132:\n        /* \"#utility.yul\":7552:7557   */\n      0x00\n        /* \"#utility.yul\":7577:7643   */\n      tag_222\n        /* \"#utility.yul\":7593:7642   */\n      tag_223\n        /* \"#utility.yul\":7635:7641   */\n      dup5\n        /* \"#utility.yul\":7593:7642   */\n      tag_130\n      jump\t// in\n    tag_223:\n        /* \"#utility.yul\":7577:7643   */\n      tag_129\n      jump\t// in\n    tag_222:\n        /* \"#utility.yul\":7568:7643   */\n      swap1\n      pop\n        /* \"#utility.yul\":7666:7672   */\n      dup3\n        /* \"#utility.yul\":7659:7664   */\n      dup2\n        /* \"#utility.yul\":7652:7673   */\n      mstore\n        /* \"#utility.yul\":7704:7708   */\n      0x20\n        /* \"#utility.yul\":7697:7702   */\n      dup2\n        /* \"#utility.yul\":7693:7709   */\n      add\n        /* \"#utility.yul\":7742:7745   */\n      dup5\n        /* \"#utility.yul\":7733:7739   */\n      dup5\n        /* \"#utility.yul\":7728:7731   */\n      dup5\n        /* \"#utility.yul\":7724:7740   */\n      add\n        /* \"#utility.yul\":7721:7746   */\n      gt\n        /* \"#utility.yul\":7718:7830   */\n      iszero\n      tag_224\n      jumpi\n        /* \"#utility.yul\":7749:7828   */\n      tag_225\n      tag_126\n      jump\t// in\n    tag_225:\n        /* \"#utility.yul\":7718:7830   */\n    tag_224:\n        /* \"#utility.yul\":7839:7893   */\n      tag_226\n        /* \"#utility.yul\":7886:7892   */\n      dup5\n        /* \"#utility.yul\":7881:7884   */\n      dup3\n        /* \"#utility.yul\":7876:7879   */\n      dup6\n        /* \"#utility.yul\":7839:7893   */\n      tag_131\n      jump\t// in\n    tag_226:\n        /* \"#utility.yul\":7558:7899   */\n      pop\n        /* \"#utility.yul\":7474:7899   */\n      swap4\n      swap3\n      pop\n      pop\n      pop\n      jump\t// out\n        /* \"#utility.yul\":7919:8259   */\n    tag_133:\n        /* \"#utility.yul\":7975:7980   */\n      0x00\n        /* \"#utility.yul\":8024:8027   */\n      dup3\n        /* \"#utility.yul\":8017:8021   */\n      0x1f\n        /* \"#utility.yul\":8009:8015   */\n      dup4\n        /* \"#utility.yul\":8005:8022   */\n      add\n        /* \"#utility.yul\":8001:8028   */\n      slt\n        /* \"#utility.yul\":7991:8113   */\n      tag_228\n      jumpi\n        /* \"#utility.yul\":8032:8111   */\n      tag_229\n      tag_125\n      jump\t// in\n    tag_229:\n        /* \"#utility.yul\":7991:8113   */\n    tag_228:\n        /* \"#utility.yul\":8149:8155   */\n      dup2\n        /* \"#utility.yul\":8136:8156   */\n      calldataload\n        /* \"#utility.yul\":8174:8253   */\n      tag_230\n        /* \"#utility.yul\":8249:8252   */\n      dup5\n        /* \"#utility.yul\":8241:8247   */\n      dup3\n        /* \"#utility.yul\":8234:8238   */\n      0x20\n        /* \"#utility.yul\":8226:8232   */\n      dup7\n        /* \"#utility.yul\":8222:8239   */\n      add\n        /* \"#utility.yul\":8174:8253   */\n      tag_132\n      jump\t// in\n    tag_230:\n        /* \"#utility.yul\":8165:8253   */\n      swap2\n      pop\n        /* \"#utility.yul\":7981:8259   */\n      pop\n        /* \"#utility.yul\":7919:8259   */\n      swap3\n      swap2\n      pop\n      pop\n      jump\t// out\n        /* \"#utility.yul\":8265:9716   */\n    tag_19:\n        /* \"#utility.yul\":8390:8396   */\n      0x00\n        /* \"#utility.yul\":8398:8404   */\n      dup1\n        /* \"#utility.yul\":8406:8412   */\n      0x00\n        /* \"#utility.yul\":8414:8420   */\n      dup1\n        /* \"#utility.yul\":8422:8428   */\n      0x00\n        /* \"#utility.yul\":8471:8474   */\n      0xa0\n        /* \"#utility.yul\":8459:8468   */\n      dup7\n        /* \"#utility.yul\":8450:8457   */\n      dup9\n        /* \"#utility.yul\":8446:8469   */\n      sub\n        /* \"#utility.yul\":8442:8475   */\n      slt\n        /* \"#utility.yul\":8439:8559   */\n      iszero\n      tag_232\n      jumpi\n        /* \"#utility.yul\":8478:8557   */\n      tag_233\n      tag_103\n      jump\t// in\n    tag_233:\n        /* \"#utility.yul\":8439:8559   */\n    tag_232:\n        /* \"#utility.yul\":8598:8599   */\n      0x00\n        /* \"#utility.yul\":8623:8676   */\n      tag_234\n        /* \"#utility.yul\":8668:8675   */\n      dup9\n        /* \"#utility.yul\":8659:8665   */\n      dup3\n        /* \"#utility.yul\":8648:8657   */\n      dup10\n        /* \"#utility.yul\":8644:8666   */\n      add\n        /* \"#utility.yul\":8623:8676   */\n      tag_124\n      jump\t// in\n    tag_234:\n        /* \"#utility.yul\":8613:8676   */\n      swap6\n      pop\n        /* \"#utility.yul\":8569:8686   */\n      pop\n        /* \"#utility.yul\":8753:8755   */\n      0x20\n        /* \"#utility.yul\":8742:8751   */\n      dup7\n        /* \"#utility.yul\":8738:8756   */\n      add\n        /* \"#utility.yul\":8725:8757   */\n      calldataload\n        /* \"#utility.yul\":8784:8802   */\n      0xffffffffffffffff\n        /* \"#utility.yul\":8776:8782   */\n      dup2\n        /* \"#utility.yul\":8773:8803   */\n      gt\n        /* \"#utility.yul\":8770:8887   */\n      iszero\n      tag_235\n      jumpi\n        /* \"#utility.yul\":8806:8885   */\n      tag_236\n      tag_104\n      jump\t// in\n    tag_236:\n        /* \"#utility.yul\":8770:8887   */\n    tag_235:\n        /* \"#utility.yul\":8911:8974   */\n      tag_237\n        /* \"#utility.yul\":8966:8973   */\n      dup9\n        /* \"#utility.yul\":8957:8963   */\n      dup3\n        /* \"#utility.yul\":8946:8955   */\n      dup10\n        /* \"#utility.yul\":8942:8964   */\n      add\n        /* \"#utility.yul\":8911:8974   */\n      tag_133\n      jump\t// in\n    tag_237:\n        /* \"#utility.yul\":8901:8974   */\n      swap5\n      pop\n        /* \"#utility.yul\":8696:8984   */\n      pop\n        /* \"#utility.yul\":9051:9053   */\n      0x40\n        /* \"#utility.yul\":9040:9049   */\n      dup7\n        /* \"#utility.yul\":9036:9054   */\n      add\n        /* \"#utility.yul\":9023:9055   */\n      calldataload\n        /* \"#utility.yul\":9082:9100   */\n      0xffffffffffffffff\n        /* \"#utility.yul\":9074:9080   */\n      dup2\n        /* \"#utility.yul\":9071:9101   */\n      gt\n        /* \"#utility.yul\":9068:9185   */\n      iszero\n      tag_238\n      jumpi\n        /* \"#utility.yul\":9104:9183   */\n      tag_239\n      tag_104\n      jump\t// in\n    tag_239:\n        /* \"#utility.yul\":9068:9185   */\n    tag_238:\n        /* \"#utility.yul\":9209:9272   */\n      tag_240\n        /* \"#utility.yul\":9264:9271   */\n      dup9\n        /* \"#utility.yul\":9255:9261   */\n      dup3\n        /* \"#utility.yul\":9244:9253   */\n      dup10\n        /* \"#utility.yul\":9240:9262   */\n      add\n        /* \"#utility.yul\":9209:9272   */\n      tag_133\n      jump\t// in\n    tag_240:\n        /* \"#utility.yul\":9199:9272   */\n      swap4\n      pop\n        /* \"#utility.yul\":8994:9282   */\n      pop\n        /* \"#utility.yul\":9349:9351   */\n      0x60\n        /* \"#utility.yul\":9338:9347   */\n      dup7\n        /* \"#utility.yul\":9334:9352   */\n      add\n        /* \"#utility.yul\":9321:9353   */\n      calldataload\n        /* \"#utility.yul\":9380:9398   */\n      0xffffffffffffffff\n        /* \"#utility.yul\":9372:9378   */\n      dup2\n        /* \"#utility.yul\":9369:9399   */\n      gt\n        /* \"#utility.yul\":9366:9483   */\n      iszero\n      tag_241\n      jumpi\n        /* \"#utility.yul\":9402:9481   */\n      tag_242\n      tag_104\n      jump\t// in\n    tag_242:\n        /* \"#utility.yul\":9366:9483   */\n    tag_241:\n        /* \"#utility.yul\":9507:9570   */\n      tag_243\n        /* \"#utility.yul\":9562:9569   */\n      dup9\n        /* \"#utility.yul\":9553:9559   */\n      dup3\n        /* \"#utility.yul\":9542:9551   */\n      dup10\n        /* \"#utility.yul\":9538:9560   */\n      add\n        /* \"#utility.yul\":9507:9570   */\n      tag_133\n      jump\t// in\n    tag_243:\n        /* \"#utility.yul\":9497:9570   */\n      swap3\n      pop\n        /* \"#utility.yul\":9292:9580   */\n      pop\n        /* \"#utility.yul\":9619:9622   */\n      0x80\n        /* \"#utility.yul\":9646:9699   */\n      tag_244\n        /* \"#utility.yul\":9691:9698   */\n      dup9\n        /* \"#utility.yul\":9682:9688   */\n      dup3\n        /* \"#utility.yul\":9671:9680   */\n      dup10\n        /* \"#utility.yul\":9667:9689   */\n      add\n        /* \"#utility.yul\":9646:9699   */\n      tag_124\n      jump\t// in\n    tag_244:\n        /* \"#utility.yul\":9636:9699   */\n      swap2\n      pop\n        /* \"#utility.yul\":9590:9709   */\n      pop\n        /* \"#utility.yul\":8265:9716   */\n      swap3\n      swap6\n      pop\n      swap3\n      swap6\n      swap1\n      swap4\n      pop\n      jump\t// out\n        /* \"#utility.yul\":9722:11027   */\n    tag_25:\n        /* \"#utility.yul\":9838:9844   */\n      0x00\n        /* \"#utility.yul\":9846:9852   */\n      dup1\n        /* \"#utility.yul\":9854:9860   */\n      0x00\n        /* \"#utility.yul\":9862:9868   */\n      dup1\n        /* \"#utility.yul\":9911:9914   */\n      0x80\n        /* \"#utility.yul\":9899:9908   */\n      dup6\n        /* \"#utility.yul\":9890:9897   */\n      dup8\n        /* \"#utility.yul\":9886:9909   */\n      sub\n        /* \"#utility.yul\":9882:9915   */\n      slt\n        /* \"#utility.yul\":9879:9999   */\n      iszero\n      tag_246\n      jumpi\n        /* \"#utility.yul\":9918:9997   */\n      tag_247\n      tag_103\n      jump\t// in\n    tag_247:\n        /* \"#utility.yul\":9879:9999   */\n    tag_246:\n        /* \"#utility.yul\":10066:10067   */\n      0x00\n        /* \"#utility.yul\":10055:10064   */\n      dup6\n        /* \"#utility.yul\":10051:10068   */\n      add\n        /* \"#utility.yul\":10038:10069   */\n      calldataload\n        /* \"#utility.yul\":10096:10114   */\n      0xffffffffffffffff\n        /* \"#utility.yul\":10088:10094   */\n      dup2\n        /* \"#utility.yul\":10085:10115   */\n      gt\n        /* \"#utility.yul\":10082:10199   */\n      iszero\n      tag_248\n      jumpi\n        /* \"#utility.yul\":10118:10197   */\n      tag_249\n      tag_104\n      jump\t// in\n    tag_249:\n        /* \"#utility.yul\":10082:10199   */\n    tag_248:\n        /* \"#utility.yul\":10223:10286   */\n      tag_250\n        /* \"#utility.yul\":10278:10285   */\n      dup8\n        /* \"#utility.yul\":10269:10275   */\n      dup3\n        /* \"#utility.yul\":10258:10267   */\n      dup9\n        /* \"#utility.yul\":10254:10276   */\n      add\n        /* \"#utility.yul\":10223:10286   */\n      tag_133\n      jump\t// in\n    tag_250:\n        /* \"#utility.yul\":10213:10286   */\n      swap5\n      pop\n        /* \"#utility.yul\":10009:10296   */\n      pop\n        /* \"#utility.yul\":10363:10365   */\n      0x20\n        /* \"#utility.yul\":10352:10361   */\n      dup6\n        /* \"#utility.yul\":10348:10366   */\n      add\n        /* \"#utility.yul\":10335:10367   */\n      calldataload\n        /* \"#utility.yul\":10394:10412   */\n      0xffffffffffffffff\n        /* \"#utility.yul\":10386:10392   */\n      dup2\n        /* \"#utility.yul\":10383:10413   */\n      gt\n        /* \"#utility.yul\":10380:10497   */\n      iszero\n      tag_251\n      jumpi\n        /* \"#utility.yul\":10416:10495   */\n      tag_252\n      tag_104\n      jump\t// in\n    tag_252:\n        /* \"#utility.yul\":10380:10497   */\n    tag_251:\n        /* \"#utility.yul\":10521:10584   */\n      tag_253\n        /* \"#utility.yul\":10576:10583   */\n      dup8\n        /* \"#utility.yul\":10567:10573   */\n      dup3\n        /* \"#utility.yul\":10556:10565   */\n      dup9\n        /* \"#utility.yul\":10552:10574   */\n      add\n        /* \"#utility.yul\":10521:10584   */\n      tag_133\n      jump\t// in\n    tag_253:\n        /* \"#utility.yul\":10511:10584   */\n      swap4\n      pop\n        /* \"#utility.yul\":10306:10594   */\n      pop\n        /* \"#utility.yul\":10661:10663   */\n      0x40\n        /* \"#utility.yul\":10650:10659   */\n      dup6\n        /* \"#utility.yul\":10646:10664   */\n      add\n        /* \"#utility.yul\":10633:10665   */\n      calldataload\n        /* \"#utility.yul\":10692:10710   */\n      0xffffffffffffffff\n        /* \"#utility.yul\":10684:10690   */\n      dup2\n        /* \"#utility.yul\":10681:10711   */\n      gt\n        /* \"#utility.yul\":10678:10795   */\n      iszero\n      tag_254\n      jumpi\n        /* \"#utility.yul\":10714:10793   */\n      tag_255\n      tag_104\n      jump\t// in\n    tag_255:\n        /* \"#utility.yul\":10678:10795   */\n    tag_254:\n        /* \"#utility.yul\":10819:10882   */\n      tag_256\n        /* \"#utility.yul\":10874:10881   */\n      dup8\n        /* \"#utility.yul\":10865:10871   */\n      dup3\n        /* \"#utility.yul\":10854:10863   */\n      dup9\n        /* \"#utility.yul\":10850:10872   */\n      add\n        /* \"#utility.yul\":10819:10882   */\n      tag_133\n      jump\t// in\n    tag_256:\n        /* \"#utility.yul\":10809:10882   */\n      swap3\n      pop\n        /* \"#utility.yul\":10604:10892   */\n      pop\n        /* \"#utility.yul\":10931:10933   */\n      0x60\n        /* \"#utility.yul\":10957:11010   */\n      tag_257\n        /* \"#utility.yul\":11002:11009   */\n      dup8\n        /* \"#utility.yul\":10993:10999   */\n      dup3\n        /* \"#utility.yul\":10982:10991   */\n      dup9\n        /* \"#utility.yul\":10978:11000   */\n      add\n        /* \"#utility.yul\":10957:11010   */\n      tag_124\n      jump\t// in\n    tag_257:\n        /* \"#utility.yul\":10947:11010   */\n      swap2\n      pop\n        /* \"#utility.yul\":10902:11020   */\n      pop\n        /* \"#utility.yul\":9722:11027   */\n      swap3\n      swap6\n      swap2\n      swap5\n      pop\n      swap3\n      pop\n      jump\t// out\n        /* \"#utility.yul\":11033:11213   */\n    tag_134:\n        /* \"#utility.yul\":11081:11158   */\n      0x4e487b7100000000000000000000000000000000000000000000000000000000\n        /* \"#utility.yul\":11078:11079   */\n      0x00\n        /* \"#utility.yul\":11071:11159   */\n      mstore\n        /* \"#utility.yul\":11178:11182   */\n      0x22\n        /* \"#utility.yul\":11175:11176   */\n      0x04\n        /* \"#utility.yul\":11168:11183   */\n      mstore\n        /* \"#utility.yul\":11202:11206   */\n      0x24\n        /* \"#utility.yul\":11199:11200   */\n      0x00\n        /* \"#utility.yul\":11192:11207   */\n      revert\n        /* \"#utility.yul\":11219:11539   */\n    tag_32:\n        /* \"#utility.yul\":11263:11269   */\n      0x00\n        /* \"#utility.yul\":11300:11301   */\n      0x02\n        /* \"#utility.yul\":11294:11298   */\n      dup3\n        /* \"#utility.yul\":11290:11302   */\n      div\n        /* \"#utility.yul\":11280:11302   */\n      swap1\n      pop\n        /* \"#utility.yul\":11347:11348   */\n      0x01\n        /* \"#utility.yul\":11341:11345   */\n      dup3\n        /* \"#utility.yul\":11337:11349   */\n      and\n        /* \"#utility.yul\":11368:11386   */\n      dup1\n        /* \"#utility.yul\":11358:11439   */\n      tag_260\n      jumpi\n        /* \"#utility.yul\":11424:11428   */\n      0x7f\n        /* \"#utility.yul\":11416:11422   */\n      dup3\n        /* \"#utility.yul\":11412:11429   */\n      and\n        /* \"#utility.yul\":11402:11429   */\n      swap2\n      pop\n        /* \"#utility.yul\":11358:11439   */\n    tag_260:\n        /* \"#utility.yul\":11486:11488   */\n      0x20\n        /* \"#utility.yul\":11478:11484   */\n      dup3\n        /* \"#utility.yul\":11475:11489   */\n      lt\n        /* \"#utility.yul\":11455:11473   */\n      dup2\n        /* \"#utility.yul\":11452:11490   */\n      sub\n        /* \"#utility.yul\":11449:11533   */\n      tag_261\n      jumpi\n        /* \"#utility.yul\":11505:11523   */\n      tag_262\n      tag_134\n      jump\t// in\n    tag_262:\n        /* \"#utility.yul\":11449:11533   */\n    tag_261:\n        /* \"#utility.yul\":11270:11539   */\n      pop\n        /* \"#utility.yul\":11219:11539   */\n      swap2\n      swap1\n      pop\n      jump\t// out\n        /* \"#utility.yul\":11545:11663   */\n    tag_135:\n        /* \"#utility.yul\":11632:11656   */\n      tag_264\n        /* \"#utility.yul\":11650:11655   */\n      dup2\n        /* \"#utility.yul\":11632:11656   */\n      tag_117\n      jump\t// in\n    tag_264:\n        /* \"#utility.yul\":11627:11630   */\n      dup3\n        /* \"#utility.yul\":11620:11657   */\n      mstore\n        /* \"#utility.yul\":11545:11663   */\n      pop\n      pop\n      jump\t// out\n        /* \"#utility.yul\":11669:11891   */\n    tag_69:\n        /* \"#utility.yul\":11762:11766   */\n      0x00\n        /* \"#utility.yul\":11800:11802   */\n      0x20\n        /* \"#utility.yul\":11789:11798   */\n      dup3\n        /* \"#utility.yul\":11785:11803   */\n      add\n        /* \"#utility.yul\":11777:11803   */\n      swap1\n      pop\n        /* \"#utility.yul\":11813:11884   */\n      tag_266\n        /* \"#utility.yul\":11881:11882   */\n      0x00\n        /* \"#utility.yul\":11870:11879   */\n      dup4\n        /* \"#utility.yul\":11866:11883   */\n      add\n        /* \"#utility.yul\":11857:11863   */\n      dup5\n        /* \"#utility.yul\":11813:11884   */\n      tag_135\n      jump\t// in\n    tag_266:\n        /* \"#utility.yul\":11669:11891   */\n      swap3\n      swap2\n      pop\n      pop\n      jump\t// out\n        /* \"#utility.yul\":11897:12077   */\n    tag_72:\n        /* \"#utility.yul\":11945:12022   */\n      0x4e487b7100000000000000000000000000000000000000000000000000000000\n        /* \"#utility.yul\":11942:11943   */\n      0x00\n        /* \"#utility.yul\":11935:12023   */\n      mstore\n        /* \"#utility.yul\":12042:12046   */\n      0x32\n        /* \"#utility.yul\":12039:12040   */\n      0x04\n        /* \"#utility.yul\":12032:12047   */\n      mstore\n        /* \"#utility.yul\":12066:12070   */\n      0x24\n        /* \"#utility.yul\":12063:12064   */\n      0x00\n        /* \"#utility.yul\":12056:12071   */\n      revert\n        /* \"#utility.yul\":12083:12224   */\n    tag_136:\n        /* \"#utility.yul\":12132:12136   */\n      0x00\n        /* \"#utility.yul\":12155:12158   */\n      dup2\n        /* \"#utility.yul\":12147:12158   */\n      swap1\n      pop\n        /* \"#utility.yul\":12178:12181   */\n      dup2\n        /* \"#utility.yul\":12175:12176   */\n      0x00\n        /* \"#utility.yul\":12168:12182   */\n      mstore\n        /* \"#utility.yul\":12212:12216   */\n      0x20\n        /* \"#utility.yul\":12209:12210   */\n      0x00\n        /* \"#utility.yul\":12199:12217   */\n      keccak256\n        /* \"#utility.yul\":12191:12217   */\n      swap1\n      pop\n        /* \"#utility.yul\":12083:12224   */\n      swap2\n      swap1\n      pop\n      jump\t// out\n        /* \"#utility.yul\":12230:12323   */\n    tag_137:\n        /* \"#utility.yul\":12267:12273   */\n      0x00\n        /* \"#utility.yul\":12314:12316   */\n      0x20\n        /* \"#utility.yul\":12309:12311   */\n      0x1f\n        /* \"#utility.yul\":12302:12307   */\n      dup4\n        /* \"#utility.yul\":12298:12312   */\n      add\n        /* \"#utility.yul\":12294:12317   */\n      div\n        /* \"#utility.yul\":12284:12317   */\n      swap1\n      pop\n        /* \"#utility.yul\":12230:12323   */\n      swap2\n      swap1\n      pop\n      jump\t// out\n        /* \"#utility.yul\":12329:12436   */\n    tag_138:\n        /* \"#utility.yul\":12373:12381   */\n      0x00\n        /* \"#utility.yul\":12423:12428   */\n      dup3\n        /* \"#utility.yul\":12417:12421   */\n      dup3\n        /* \"#utility.yul\":12413:12429   */\n      shl\n        /* \"#utility.yul\":12392:12429   */\n      swap1\n      pop\n        /* \"#utility.yul\":12329:12436   */\n      swap3\n      swap2\n      pop\n      pop\n      jump\t// out\n        /* \"#utility.yul\":12442:12835   */\n    tag_139:\n        /* \"#utility.yul\":12511:12517   */\n      0x00\n        /* \"#utility.yul\":12561:12562   */\n      0x08\n        /* \"#utility.yul\":12549:12559   */\n      dup4\n        /* \"#utility.yul\":12545:12563   */\n      mul\n        /* \"#utility.yul\":12584:12681   */\n      tag_272\n        /* \"#utility.yul\":12614:12680   */\n      0xffffffffffffffffffffffffffffffffffffffffffffffffffffffffffffffff\n        /* \"#utility.yul\":12603:12612   */\n      dup3\n        /* \"#utility.yul\":12584:12681   */\n      tag_138\n      jump\t// in\n    tag_272:\n        /* \"#utility.yul\":12702:12741   */\n      tag_273\n        /* \"#utility.yul\":12732:12740   */\n      dup7\n        /* \"#utility.yul\":12721:12730   */\n      dup4\n        /* \"#utility.yul\":12702:12741   */\n      tag_138\n      jump\t// in\n    tag_273:\n        /* \"#utility.yul\":12690:12741   */\n      swap6\n      pop\n        /* \"#utility.yul\":12774:12778   */\n      dup1\n        /* \"#utility.yul\":12770:12779   */\n      not\n        /* \"#utility.yul\":12763:12768   */\n      dup5\n        /* \"#utility.yul\":12759:12780   */\n      and\n        /* \"#utility.yul\":12750:12780   */\n      swap4\n      pop\n        /* \"#utility.yul\":12823:12827   */\n      dup1\n        /* \"#utility.yul\":12813:12821   */\n      dup7\n        /* \"#utility.yul\":12809:12828   */\n      and\n        /* \"#utility.yul\":12802:12807   */\n      dup5\n        /* \"#utility.yul\":12799:12829   */\n      or\n        /* \"#utility.yul\":12789:12829   */\n      swap3\n      pop\n        /* \"#utility.yul\":12518:12835   */\n      pop\n      pop\n        /* \"#utility.yul\":12442:12835   */\n      swap4\n      swap3\n      pop\n      pop\n      pop\n      jump\t// out\n        /* \"#utility.yul\":12841:12901   */\n    tag_140:\n        /* \"#utility.yul\":12869:12872   */\n      0x00\n        /* \"#utility.yul\":12890:12895   */\n      dup2\n        /* \"#utility.yul\":12883:12895   */\n      swap1\n      pop\n        /* \"#utility.yul\":12841:12901   */\n      swap2\n      swap1\n      pop\n      jump\t// out\n        /* \"#utility.yul\":12907:13049   */\n    tag_141:\n        /* \"#utility.yul\":12957:12966   */\n      0x00\n        /* \"#utility.yul\":12990:13043   */\n      tag_276\n        /* \"#utility.yul\":13008:13042   */\n      tag_277\n        /* \"#utility.yul\":13017:13041   */\n      tag_278\n        /* \"#utility.yul\":13035:13040   */\n      dup5\n        /* \"#utility.yul\":13017:13041   */\n      tag_117\n      jump\t// in\n    tag_278:\n        /* \"#utility.yul\":13008:13042   */\n      tag_140\n      jump\t// in\n    tag_277:\n        /* \"#utility.yul\":12990:13043   */\n      tag_117\n      jump\t// in\n    tag_276:\n        /* \"#utility.yul\":12977:13043   */\n      swap1\n      pop\n        /* \"#utility.yul\":12907:13049   */\n      swap2\n      swap1\n      pop\n      jump\t// out\n        /* \"#utility.yul\":13055:13130   */\n    tag_142:\n        /* \"#utility.yul\":13098:13101   */\n      0x00\n        /* \"#utility.yul\":13119:13124   */\n      dup2\n        /* \"#utility.yul\":13112:13124   */\n      swap1\n      pop\n        /* \"#utility.yul\":13055:13130   */\n      swap2\n      swap1\n      pop\n      jump\t// out\n        /* \"#utility.yul\":13136:13405   */\n    tag_143:\n        /* \"#utility.yul\":13246:13285   */\n      tag_281\n        /* \"#utility.yul\":13277:13284   */\n      dup4\n        /* \"#utility.yul\":13246:13285   */\n      tag_141\n      jump\t// in\n    tag_281:\n        /* \"#utility.yul\":13307:13398   */\n      tag_282\n        /* \"#utility.yul\":13356:13397   */\n      tag_283\n        /* \"#utility.yul\":13380:13396   */\n      dup3\n        /* \"#utility.yul\":13356:13397   */\n      tag_142\n      jump\t// in\n    tag_283:\n        /* \"#utility.yul\":13348:13354   */\n      dup5\n        /* \"#utility.yul\":13341:13345   */\n      dup5\n        /* \"#utility.yul\":13335:13346   */\n      sload\n        /* \"#utility.yul\":13307:13398   */\n      tag_139\n      jump\t// in\n    tag_282:\n        /* \"#utility.yul\":13301:13305   */\n      dup3\n        /* \"#utility.yul\":13294:13399   */\n      sstore\n        /* \"#utility.yul\":13212:13405   */\n      pop\n        /* \"#utility.yul\":13136:13405   */\n      pop\n      pop\n      pop\n      jump\t// out\n        /* \"#utility.yul\":13411:13484   */\n    tag_144:\n        /* \"#utility.yul\":13456:13459   */\n      0x00\n        /* \"#utility.yul\":13411:13484   */\n      swap1\n      jump\t// out\n        /* \"#utility.yul\":13490:13679   */\n    tag_145:\n        /* \"#utility.yul\":13567:13599   */\n      tag_286\n      tag_144\n      jump\t// in\n    tag_286:\n        /* \"#utility.yul\":13608:13673   */\n      tag_287\n        /* \"#utility.yul\":13666:13672   */\n      dup2\n        /* \"#utility.yul\":13658:13664   */\n      dup5\n        /* \"#utility.yul\":13652:13656   */\n      dup5\n        /* \"#utility.yul\":13608:13673   */\n      tag_143\n      jump\t// in\n    tag_287:\n        /* \"#utility.yul\":13543:13679   */\n      pop\n        /* \"#utility.yul\":13490:13679   */\n      pop\n      pop\n      jump\t// out\n        /* \"#utility.yul\":13685:13871   */\n    tag_146:\n        /* \"#utility.yul\":13745:13865   */\n    tag_289:\n        /* \"#utility.yul\":13762:13765   */\n      dup2\n        /* \"#utility.yul\":13755:13760   */\n      dup2\n        /* \"#utility.yul\":13752:13766   */\n      lt\n        /* \"#utility.yul\":13745:13865   */\n      iszero\n      tag_291\n      jumpi\n        /* \"#utility.yul\":13816:13855   */\n      tag_292\n        /* \"#utility.yul\":13853:13854   */\n      0x00\n        /* \"#utility.yul\":13846:13851   */\n      dup3\n        /* \"#utility.yul\":13816:13855   */\n      tag_145\n      jump\t// in\n    tag_292:\n        /* \"#utility.yul\":13789:13790   */\n      0x01\n        /* \"#utility.yul\":13782:13787   */\n      dup2\n        /* \"#utility.yul\":13778:13791   */\n      add\n        /* \"#utility.yul\":13769:13791   */\n      swap1\n      pop\n        /* \"#utility.yul\":13745:13865   */\n      jump(tag_289)\n    tag_291:\n        /* \"#utility.yul\":13685:13871   */\n      pop\n      pop\n      jump\t// out\n        /* \"#utility.yul\":13877:14420   */\n    tag_147:\n        /* \"#utility.yul\":13978:13980   */\n      0x1f\n        /* \"#utility.yul\":13973:13976   */\n      dup3\n        /* \"#utility.yul\":13970:13981   */\n      gt\n        /* \"#utility.yul\":13967:14413   */\n      iszero\n      tag_294\n      jumpi\n        /* \"#utility.yul\":14012:14050   */\n      tag_295\n        /* \"#utility.yul\":14044:14049   */\n      dup2\n        /* \"#utility.yul\":14012:14050   */\n      tag_136\n      jump\t// in\n    tag_295:\n        /* \"#utility.yul\":14096:14125   */\n      tag_296\n        /* \"#utility.yul\":14114:14124   */\n      dup5\n        /* \"#utility.yul\":14096:14125   */\n      tag_137\n      jump\t// in\n    tag_296:\n        /* \"#utility.yul\":14086:14094   */\n      dup2\n        /* \"#utility.yul\":14082:14126   */\n      add\n        /* \"#utility.yul\":14279:14281   */\n      0x20\n        /* \"#utility.yul\":14267:14277   */\n      dup6\n        /* \"#utility.yul\":14264:14282   */\n      lt\n        /* \"#utility.yul\":14261:14310   */\n      iszero\n      tag_297\n      jumpi\n        /* \"#utility.yul\":14300:14308   */\n      dup2\n        /* \"#utility.yul\":14285:14308   */\n      swap1\n      pop\n        /* \"#utility.yul\":14261:14310   */\n    tag_297:\n        /* \"#utility.yul\":14323:14403   */\n      tag_298\n        /* \"#utility.yul\":14379:14401   */\n      tag_299\n        /* \"#utility.yul\":14397:14400   */\n      dup6\n        /* \"#utility.yul\":14379:14401   */\n      tag_137\n      jump\t// in\n    tag_299:\n        /* \"#utility.yul\":14369:14377   */\n      dup4\n        /* \"#utility.yul\":14365:14402   */\n      add\n        /* \"#utility.yul\":14352:14363   */\n      dup3\n        /* \"#utility.yul\":14323:14403   */\n      tag_146\n      jump\t// in\n    tag_298:\n        /* \"#utility.yul\":13982:14413   */\n      pop\n      pop\n        /* \"#utility.yul\":13967:14413   */\n    tag_294:\n        /* \"#utility.yul\":13877:14420   */\n      pop\n      pop\n      pop\n      jump\t// out\n        /* \"#utility.yul\":14426:14543   */\n    tag_148:\n        /* \"#utility.yul\":14480:14488   */\n      0x00\n        /* \"#utility.yul\":14530:14535   */\n      dup3\n        /* \"#utility.yul\":14524:14528   */\n      dup3\n        /* \"#utility.yul\":14520:14536   */\n      shr\n        /* \"#utility.yul\":14499:14536   */\n      swap1\n      pop\n        /* \"#utility.yul\":14426:14543   */\n      swap3\n      swap2\n      pop\n      pop\n      jump\t// out\n        /* \"#utility.yul\":14549:14718   */\n    tag_149:\n        /* \"#utility.yul\":14593:14599   */\n      0x00\n        /* \"#utility.yul\":14626:14677   */\n      tag_302\n        /* \"#utility.yul\":14674:14675   */\n      0x00\n        /* \"#utility.yul\":14670:14676   */\n      not\n        /* \"#utility.yul\":14662:14667   */\n      dup5\n        /* \"#utility.yul\":14659:14660   */\n      0x08\n        /* \"#utility.yul\":14655:14668   */\n      mul\n        /* \"#utility.yul\":14626:14677   */\n      tag_148\n      jump\t// in\n    tag_302:\n        /* \"#utility.yul\":14622:14678   */\n      not\n        /* \"#utility.yul\":14707:14711   */\n      dup1\n        /* \"#utility.yul\":14701:14705   */\n      dup4\n        /* \"#utility.yul\":14697:14712   */\n      and\n        /* \"#utility.yul\":14687:14712   */\n      swap2\n      pop\n        /* \"#utility.yul\":14600:14718   */\n      pop\n        /* \"#utility.yul\":14549:14718   */\n      swap3\n      swap2\n      pop\n      pop\n      jump\t// out\n        /* \"#utility.yul\":14723:15018   */\n    tag_150:\n        /* \"#utility.yul\":14799:14803   */\n      0x00\n        /* \"#utility.yul\":14945:14974   */\n      tag_304\n        /* \"#utility.yul\":14970:14973   */\n      dup4\n        /* \"#utility.yul\":14964:14968   */\n      dup4\n        /* \"#utility.yul\":14945:14974   */\n      tag_149\n      jump\t// in\n    tag_304:\n        /* \"#utility.yul\":14937:14974   */\n      swap2\n      pop\n        /* \"#utility.yul\":15007:15010   */\n      dup3\n        /* \"#utility.yul\":15004:15005   */\n      0x02\n        /* \"#utility.yul\":15000:15011   */\n      mul\n        /* \"#utility.yul\":14994:14998   */\n      dup3\n        /* \"#utility.yul\":14991:15012   */\n      or\n        /* \"#utility.yul\":14983:15012   */\n      swap1\n      pop\n        /* \"#utility.yul\":14723:15018   */\n      swap3\n      swap2\n      pop\n      pop\n      jump\t// out\n        /* \"#utility.yul\":15023:16418   */\n    tag_75:\n        /* \"#utility.yul\":15140:15177   */\n      tag_306\n        /* \"#utility.yul\":15173:15176   */\n      dup3\n        /* \"#utility.yul\":15140:15177   */\n      tag_112\n      jump\t// in\n    tag_306:\n        /* \"#utility.yul\":15242:15260   */\n      0xffffffffffffffff\n        /* \"#utility.yul\":15234:15240   */\n      dup2\n        /* \"#utility.yul\":15231:15261   */\n      gt\n        /* \"#utility.yul\":15228:15284   */\n      iszero\n      tag_307\n      jumpi\n        /* \"#utility.yul\":15264:15282   */\n      tag_308\n      tag_127\n      jump\t// in\n    tag_308:\n        /* \"#utility.yul\":15228:15284   */\n    tag_307:\n        /* \"#utility.yul\":15308:15346   */\n      tag_309\n        /* \"#utility.yul\":15340:15344   */\n      dup3\n        /* \"#utility.yul\":15334:15345   */\n      sload\n        /* \"#utility.yul\":15308:15346   */\n      tag_32\n      jump\t// in\n    tag_309:\n        /* \"#utility.yul\":15393:15460   */\n      tag_310\n        /* \"#utility.yul\":15453:15459   */\n      dup3\n        /* \"#utility.yul\":15445:15451   */\n      dup3\n        /* \"#utility.yul\":15439:15443   */\n      dup6\n        /* \"#utility.yul\":15393:15460   */\n      tag_147\n      jump\t// in\n    tag_310:\n        /* \"#utility.yul\":15487:15488   */\n      0x00\n        /* \"#utility.yul\":15511:15515   */\n      0x20\n        /* \"#utility.yul\":15498:15515   */\n      swap1\n      pop\n        /* \"#utility.yul\":15543:15545   */\n      0x1f\n        /* \"#utility.yul\":15535:15541   */\n      dup4\n        /* \"#utility.yul\":15532:15546   */\n      gt\n        /* \"#utility.yul\":15560:15561   */\n      0x01\n        /* \"#utility.yul\":15555:16173   */\n      dup2\n      eq\n      tag_312\n      jumpi\n        /* \"#utility.yul\":16217:16218   */\n      0x00\n        /* \"#utility.yul\":16234:16240   */\n      dup5\n        /* \"#utility.yul\":16231:16308   */\n      iszero\n      tag_313\n      jumpi\n        /* \"#utility.yul\":16283:16292   */\n      dup3\n        /* \"#utility.yul\":16278:16281   */\n      dup8\n        /* \"#utility.yul\":16274:16293   */\n      add\n        /* \"#utility.yul\":16268:16294   */\n      mload\n        /* \"#utility.yul\":16259:16294   */\n      swap1\n      pop\n        /* \"#utility.yul\":16231:16308   */\n    tag_313:\n        /* \"#utility.yul\":16334:16401   */\n      tag_314\n        /* \"#utility.yul\":16394:16400   */\n      dup6\n        /* \"#utility.yul\":16387:16392   */\n      dup3\n        /* \"#utility.yul\":16334:16401   */\n      tag_150\n      jump\t// in\n    tag_314:\n        /* \"#utility.yul\":16328:16332   */\n      dup7\n        /* \"#utility.yul\":16321:16402   */\n      sstore\n        /* \"#utility.yul\":16190:16412   */\n      pop\n        /* \"#utility.yul\":15525:16412   */\n      jump(tag_311)\n        /* \"#utility.yul\":15555:16173   */\n    tag_312:\n        /* \"#utility.yul\":15607:15611   */\n      0x1f\n        /* \"#utility.yul\":15603:15612   */\n      not\n        /* \"#utility.yul\":15595:15601   */\n      dup5\n        /* \"#utility.yul\":15591:15613   */\n      and\n        /* \"#utility.yul\":15641:15678   */\n      tag_315\n        /* \"#utility.yul\":15673:15677   */\n      dup7\n        /* \"#utility.yul\":15641:15678   */\n      tag_136\n      jump\t// in\n    tag_315:\n        /* \"#utility.yul\":15700:15701   */\n      0x00\n        /* \"#utility.yul\":15714:15922   */\n    tag_316:\n        /* \"#utility.yul\":15728:15735   */\n      dup3\n        /* \"#utility.yul\":15725:15726   */\n      dup2\n        /* \"#utility.yul\":15722:15736   */\n      lt\n        /* \"#utility.yul\":15714:15922   */\n      iszero\n      tag_318\n      jumpi\n        /* \"#utility.yul\":15807:15816   */\n      dup5\n        /* \"#utility.yul\":15802:15805   */\n      dup10\n        /* \"#utility.yul\":15798:15817   */\n      add\n        /* \"#utility.yul\":15792:15818   */\n      mload\n        /* \"#utility.yul\":15784:15790   */\n      dup3\n        /* \"#utility.yul\":15777:15819   */\n      sstore\n        /* \"#utility.yul\":15858:15859   */\n      0x01\n        /* \"#utility.yul\":15850:15856   */\n      dup3\n        /* \"#utility.yul\":15846:15860   */\n      add\n        /* \"#utility.yul\":15836:15860   */\n      swap2\n      pop\n        /* \"#utility.yul\":15905:15907   */\n      0x20\n        /* \"#utility.yul\":15894:15903   */\n      dup6\n        /* \"#utility.yul\":15890:15908   */\n      add\n        /* \"#utility.yul\":15877:15908   */\n      swap5\n      pop\n        /* \"#utility.yul\":15751:15755   */\n      0x20\n        /* \"#utility.yul\":15748:15749   */\n      dup2\n        /* \"#utility.yul\":15744:15756   */\n      add\n        /* \"#utility.yul\":15739:15756   */\n      swap1\n      pop\n        /* \"#utility.yul\":15714:15922   */\n      jump(tag_316)\n    tag_318:\n        /* \"#utility.yul\":15950:15956   */\n      dup7\n        /* \"#utility.yul\":15941:15948   */\n      dup4\n        /* \"#utility.yul\":15938:15957   */\n      lt\n        /* \"#utility.yul\":15935:16114   */\n      iszero\n      tag_319\n      jumpi\n        /* \"#utility.yul\":16008:16017   */\n      dup5\n        /* \"#utility.yul\":16003:16006   */\n      dup10\n        /* \"#utility.yul\":15999:16018   */\n      add\n        /* \"#utility.yul\":15993:16019   */\n      mload\n        /* \"#utility.yul\":16051:16099   */\n      tag_320\n        /* \"#utility.yul\":16093:16097   */\n      0x1f\n        /* \"#utility.yul\":16085:16091   */\n      dup10\n        /* \"#utility.yul\":16081:16098   */\n      and\n        /* \"#utility.yul\":16070:16079   */\n      dup3\n        /* \"#utility.yul\":16051:16099   */\n      tag_149\n      jump\t// in\n    tag_320:\n        /* \"#utility.yul\":16043:16049   */\n      dup4\n        /* \"#utility.yul\":16036:16100   */\n      sstore\n        /* \"#utility.yul\":15958:16114   */\n      pop\n        /* \"#utility.yul\":15935:16114   */\n    tag_319:\n        /* \"#utility.yul\":16160:16161   */\n      0x01\n        /* \"#utility.yul\":16156:16157   */\n      0x02\n        /* \"#utility.yul\":16148:16154   */\n      dup9\n        /* \"#utility.yul\":16144:16158   */\n      mul\n        /* \"#utility.yul\":16140:16162   */\n      add\n        /* \"#utility.yul\":16134:16138   */\n      dup9\n        /* \"#utility.yul\":16127:16163   */\n      sstore\n        /* \"#utility.yul\":15562:16173   */\n      pop\n      pop\n      pop\n        /* \"#utility.yul\":15525:16412   */\n    tag_311:\n      pop\n        /* \"#utility.yul\":15115:16418   */\n      pop\n      pop\n      pop\n        /* \"#utility.yul\":15023:16418   */\n      pop\n      pop\n      jump\t// out\n\n    auxdata: 0xa2646970667358221220c400a4a87d8dd900fc95bc09d047403d114a48d1f1f98e524994838610aaff0d64736f6c634300081a0033\n}\n",
				"bytecode": {
					"linkReferences": {},
					"object": "6080604052348015600e575f80fd5b506111508061001c5f395ff3fe608060405234801561000f575f80fd5b5060043610610055575f3560e01c80632698286c14610059578063341fa05d146100895780634cd1ed3d146100a75780636dcb7896146100c3578063d2d50bd8146100cd575b5f80fd5b610073600480360381019061006e9190610927565b6100e9565b6040516100809190610b03565b60405180910390f35b61009161033a565b60405161009e9190610b03565b60405180910390f35b6100c160048036038101906100bc9190610c79565b610589565b005b6100cb6106db565b005b6100e760048036038101906100e29190610d44565b610724565b005b60605f808373ffffffffffffffffffffffffffffffffffffffff1673ffffffffffffffffffffffffffffffffffffffff1681526020019081526020015f20805480602002602001604051908101604052809291908181526020015f905b8282101561032f578382905f5260205f2090600402016040518060800160405290815f8201805461017690610e29565b80601f01602080910402602001604051908101604052809291908181526020018280546101a290610e29565b80156101ed5780601f106101c4576101008083540402835291602001916101ed565b820191905f5260205f20905b8154815290600101906020018083116101d057829003601f168201915b5050505050815260200160018201805461020690610e29565b80601f016020809104026020016040519081016040528092919081815260200182805461023290610e29565b801561027d5780601f106102545761010080835404028352916020019161027d565b820191905f5260205f20905b81548152906001019060200180831161026057829003601f168201915b5050505050815260200160028201805461029690610e29565b80601f01602080910402602001604051908101604052809291908181526020018280546102c290610e29565b801561030d5780601f106102e45761010080835404028352916020019161030d565b820191905f5260205f20905b8154815290600101906020018083116102f057829003601f168201915b5050505050815260200160038201548152505081526020019060010190610146565b505050509050919050565b60605f803373ffffffffffffffffffffffffffffffffffffffff1673ffffffffffffffffffffffffffffffffffffffff1681526020019081526020015f20805480602002602001604051908101604052809291908181526020015f905b82821015610580578382905f5260205f2090600402016040518060800160405290815f820180546103c790610e29565b80601f01602080910402602001604051908101604052809291908181526020018280546103f390610e29565b801561043e5780601f106104155761010080835404028352916020019161043e565b820191905f5260205f20905b81548152906001019060200180831161042157829003601f168201915b5050505050815260200160018201805461045790610e29565b80601f016020809104026020016040519081016040528092919081815260200182805461048390610e29565b80156104ce5780601f106104a5576101008083540402835291602001916104ce565b820191905f5260205f20905b8154815290600101906020018083116104b157829003601f168201915b505050505081526020016002820180546104e790610e29565b80601f016020809104026020016040519081016040528092919081815260200182805461051390610e29565b801561055e5780601f106105355761010080835404028352916020019161055e565b820191905f5260205f20905b81548152906001019060200180831161054157829003601f168201915b5050505050815260200160038201548152505081526020019060010190610397565b50505050905090565b5f803373ffffffffffffffffffffffffffffffffffffffff1673ffffffffffffffffffffffffffffffffffffffff1681526020019081526020015f2080549050851061060c57846040517f40c901ce0000000000000000000000000000000000000000000000000000000081526004016106039190610e68565b60405180910390fd5b6040518060800160405280858152602001848152602001838152602001828152505f803373ffffffffffffffffffffffffffffffffffffffff1673ffffffffffffffffffffffffffffffffffffffff1681526020019081526020015f20868154811061067b5761067a610e81565b5b905f5260205f2090600402015f820151815f01908161069a919061104b565b5060208201518160010190816106b0919061104b565b5060408201518160020190816106c6919061104b565b50606082015181600301559050505050505050565b5f803373ffffffffffffffffffffffffffffffffffffffff1673ffffffffffffffffffffffffffffffffffffffff1681526020019081526020015f205f61072291906107f9565b565b5f803373ffffffffffffffffffffffffffffffffffffffff1673ffffffffffffffffffffffffffffffffffffffff1681526020019081526020015f20604051806080016040528086815260200185815260200184815260200183815250908060018154018082558091505060019003905f5260205f2090600402015f909190919091505f820151815f0190816107ba919061104b565b5060208201518160010190816107d0919061104b565b5060408201518160020190816107e6919061104b565b5060608201518160030155505050505050565b5080545f8255600402905f5260205f2090810190610817919061081a565b50565b5b80821115610860575f8082015f6108329190610864565b600182015f6108419190610864565b600282015f6108509190610864565b600382015f90555060040161081b565b5090565b50805461087090610e29565b5f825580601f10610881575061089e565b601f0160209004905f5260205f209081019061089d91906108a1565b5b50565b5b808211156108b8575f815f9055506001016108a2565b5090565b5f604051905090565b5f80fd5b5f80fd5b5f73ffffffffffffffffffffffffffffffffffffffff82169050919050565b5f6108f6826108cd565b9050919050565b610906816108ec565b8114610910575f80fd5b50565b5f81359050610921816108fd565b92915050565b5f6020828403121561093c5761093b6108c5565b5b5f61094984828501610913565b91505092915050565b5f81519050919050565b5f82825260208201905092915050565b5f819050602082019050919050565b5f81519050919050565b5f82825260208201905092915050565b8281835e5f83830152505050565b5f601f19601f8301169050919050565b5f6109bd8261097b565b6109c78185610985565b93506109d7818560208601610995565b6109e0816109a3565b840191505092915050565b5f819050919050565b6109fd816109eb565b82525050565b5f608083015f8301518482035f860152610a1d82826109b3565b91505060208301518482036020860152610a3782826109b3565b91505060408301518482036040860152610a5182826109b3565b9150506060830151610a6660608601826109f4565b508091505092915050565b5f610a7c8383610a03565b905092915050565b5f602082019050919050565b5f610a9a82610952565b610aa4818561095c565b935083602082028501610ab68561096c565b805f5b85811015610af15784840389528151610ad28582610a71565b9450610add83610a84565b925060208a01995050600181019050610ab9565b50829750879550505050505092915050565b5f6020820190508181035f830152610b1b8184610a90565b905092915050565b610b2c816109eb565b8114610b36575f80fd5b50565b5f81359050610b4781610b23565b92915050565b5f80fd5b5f80fd5b7f4e487b71000000000000000000000000000000000000000000000000000000005f52604160045260245ffd5b610b8b826109a3565b810181811067ffffffffffffffff82111715610baa57610ba9610b55565b5b80604052505050565b5f610bbc6108bc565b9050610bc88282610b82565b919050565b5f67ffffffffffffffff821115610be757610be6610b55565b5b610bf0826109a3565b9050602081019050919050565b828183375f83830152505050565b5f610c1d610c1884610bcd565b610bb3565b905082815260208101848484011115610c3957610c38610b51565b5b610c44848285610bfd565b509392505050565b5f82601f830112610c6057610c5f610b4d565b5b8135610c70848260208601610c0b565b91505092915050565b5f805f805f60a08688031215610c9257610c916108c5565b5b5f610c9f88828901610b39565b955050602086013567ffffffffffffffff811115610cc057610cbf6108c9565b5b610ccc88828901610c4c565b945050604086013567ffffffffffffffff811115610ced57610cec6108c9565b5b610cf988828901610c4c565b935050606086013567ffffffffffffffff811115610d1a57610d196108c9565b5b610d2688828901610c4c565b9250506080610d3788828901610b39565b9150509295509295909350565b5f805f8060808587031215610d5c57610d5b6108c5565b5b5f85013567ffffffffffffffff811115610d7957610d786108c9565b5b610d8587828801610c4c565b945050602085013567ffffffffffffffff811115610da657610da56108c9565b5b610db287828801610c4c565b935050604085013567ffffffffffffffff811115610dd357610dd26108c9565b5b610ddf87828801610c4c565b9250506060610df087828801610b39565b91505092959194509250565b7f4e487b71000000000000000000000000000000000000000000000000000000005f52602260045260245ffd5b5f6002820490506001821680610e4057607f821691505b602082108103610e5357610e52610dfc565b5b50919050565b610e62816109eb565b82525050565b5f602082019050610e7b5f830184610e59565b92915050565b7f4e487b71000000000000000000000000000000000000000000000000000000005f52603260045260245ffd5b5f819050815f5260205f209050919050565b5f6020601f8301049050919050565b5f82821b905092915050565b5f60088302610f0a7fffffffffffffffffffffffffffffffffffffffffffffffffffffffffffffffff82610ecf565b610f148683610ecf565b95508019841693508086168417925050509392505050565b5f819050919050565b5f610f4f610f4a610f45846109eb565b610f2c565b6109eb565b9050919050565b5f819050919050565b610f6883610f35565b610f7c610f7482610f56565b848454610edb565b825550505050565b5f90565b610f90610f84565b610f9b818484610f5f565b505050565b5b81811015610fbe57610fb35f82610f88565b600181019050610fa1565b5050565b601f82111561100357610fd481610eae565b610fdd84610ec0565b81016020851015610fec578190505b611000610ff885610ec0565b830182610fa0565b50505b505050565b5f82821c905092915050565b5f6110235f1984600802611008565b1980831691505092915050565b5f61103b8383611014565b9150826002028217905092915050565b6110548261097b565b67ffffffffffffffff81111561106d5761106c610b55565b5b6110778254610e29565b611082828285610fc2565b5f60209050601f8311600181146110b3575f84156110a1578287015190505b6110ab8582611030565b865550611112565b601f1984166110c186610eae565b5f5b828110156110e8578489015182556001820191506020850194506020810190506110c3565b868310156111055784890151611101601f891682611014565b8355505b6001600288020188555050505b50505050505056fea2646970667358221220c400a4a87d8dd900fc95bc09d047403d114a48d1f1f98e524994838610aaff0d64736f6c634300081a0033",
					"opcodes": "PUSH1 0x80 PUSH1 0x40 MSTORE CALLVALUE DUP1 ISZERO PUSH1 0xE JUMPI PUSH0 DUP1 REVERT JUMPDEST POP PUSH2 0x1150 DUP1 PUSH2 0x1C PUSH0 CODECOPY PUSH0 RETURN INVALID PUSH1 0x80 PUSH1 0x40 MSTORE CALLVALUE DUP1 ISZERO PUSH2 0xF JUMPI PUSH0 DUP1 REVERT JUMPDEST POP PUSH1 0x4 CALLDATASIZE LT PUSH2 0x55 JUMPI PUSH0 CALLDATALOAD PUSH1 0xE0 SHR DUP1 PUSH4 0x2698286C EQ PUSH2 0x59 JUMPI DUP1 PUSH4 0x341FA05D EQ PUSH2 0x89 JUMPI DUP1 PUSH4 0x4CD1ED3D EQ PUSH2 0xA7 JUMPI DUP1 PUSH4 0x6DCB7896 EQ PUSH2 0xC3 JUMPI DUP1 PUSH4 0xD2D50BD8 EQ PUSH2 0xCD JUMPI JUMPDEST PUSH0 DUP1 REVERT JUMPDEST PUSH2 0x73 PUSH1 0x4 DUP1 CALLDATASIZE SUB DUP2 ADD SWAP1 PUSH2 0x6E SWAP2 SWAP1 PUSH2 0x927 JUMP JUMPDEST PUSH2 0xE9 JUMP JUMPDEST PUSH1 0x40 MLOAD PUSH2 0x80 SWAP2 SWAP1 PUSH2 0xB03 JUMP JUMPDEST PUSH1 0x40 MLOAD DUP1 SWAP2 SUB SWAP1 RETURN JUMPDEST PUSH2 0x91 PUSH2 0x33A JUMP JUMPDEST PUSH1 0x40 MLOAD PUSH2 0x9E SWAP2 SWAP1 PUSH2 0xB03 JUMP JUMPDEST PUSH1 0x40 MLOAD DUP1 SWAP2 SUB SWAP1 RETURN JUMPDEST PUSH2 0xC1 PUSH1 0x4 DUP1 CALLDATASIZE SUB DUP2 ADD SWAP1 PUSH2 0xBC SWAP2 SWAP1 PUSH2 0xC79 JUMP JUMPDEST PUSH2 0x589 JUMP JUMPDEST STOP JUMPDEST PUSH2 0xCB PUSH2 0x6DB JUMP JUMPDEST STOP JUMPDEST PUSH2 0xE7 PUSH1 0x4 DUP1 CALLDATASIZE SUB DUP2 ADD SWAP1 PUSH2 0xE2 SWAP2 SWAP1 PUSH2 0xD44 JUMP JUMPDEST PUSH2 0x724 JUMP JUMPDEST STOP JUMPDEST PUSH1 0x60 PUSH0 DUP1 DUP4 PUSH20 0xFFFFFFFFFFFFFFFFFFFFFFFFFFFFFFFFFFFFFFFF AND PUSH20 0xFFFFFFFFFFFFFFFFFFFFFFFFFFFFFFFFFFFFFFFF AND DUP2 MSTORE PUSH1 0x20 ADD SWAP1 DUP2 MSTORE PUSH1 0x20 ADD PUSH0 KECCAK256 DUP1 SLOAD DUP1 PUSH1 0x20 MUL PUSH1 0x20 ADD PUSH1 0x40 MLOAD SWAP1 DUP2 ADD PUSH1 0x40 MSTORE DUP1 SWAP3 SWAP2 SWAP1 DUP2 DUP2 MSTORE PUSH1 0x20 ADD PUSH0 SWAP1 JUMPDEST DUP3 DUP3 LT ISZERO PUSH2 0x32F JUMPI DUP4 DUP3 SWAP1 PUSH0 MSTORE PUSH1 0x20 PUSH0 KECCAK256 SWAP1 PUSH1 0x4 MUL ADD PUSH1 0x40 MLOAD DUP1 PUSH1 0x80 ADD PUSH1 0x40 MSTORE SWAP1 DUP2 PUSH0 DUP3 ADD DUP1 SLOAD PUSH2 0x176 SWAP1 PUSH2 0xE29 JUMP JUMPDEST DUP1 PUSH1 0x1F ADD PUSH1 0x20 DUP1 SWAP2 DIV MUL PUSH1 0x20 ADD PUSH1 0x40 MLOAD SWAP1 DUP2 ADD PUSH1 0x40 MSTORE DUP1 SWAP3 SWAP2 SWAP1 DUP2 DUP2 MSTORE PUSH1 0x20 ADD DUP3 DUP1 SLOAD PUSH2 0x1A2 SWAP1 PUSH2 0xE29 JUMP JUMPDEST DUP1 ISZERO PUSH2 0x1ED JUMPI DUP1 PUSH1 0x1F LT PUSH2 0x1C4 JUMPI PUSH2 0x100 DUP1 DUP4 SLOAD DIV MUL DUP4 MSTORE SWAP2 PUSH1 0x20 ADD SWAP2 PUSH2 0x1ED JUMP JUMPDEST DUP3 ADD SWAP2 SWAP1 PUSH0 MSTORE PUSH1 0x20 PUSH0 KECCAK256 SWAP1 JUMPDEST DUP2 SLOAD DUP2 MSTORE SWAP1 PUSH1 0x1 ADD SWAP1 PUSH1 0x20 ADD DUP1 DUP4 GT PUSH2 0x1D0 JUMPI DUP3 SWAP1 SUB PUSH1 0x1F AND DUP3 ADD SWAP2 JUMPDEST POP POP POP POP POP DUP2 MSTORE PUSH1 0x20 ADD PUSH1 0x1 DUP3 ADD DUP1 SLOAD PUSH2 0x206 SWAP1 PUSH2 0xE29 JUMP JUMPDEST DUP1 PUSH1 0x1F ADD PUSH1 0x20 DUP1 SWAP2 DIV MUL PUSH1 0x20 ADD PUSH1 0x40 MLOAD SWAP1 DUP2 ADD PUSH1 0x40 MSTORE DUP1 SWAP3 SWAP2 SWAP1 DUP2 DUP2 MSTORE PUSH1 0x20 ADD DUP3 DUP1 SLOAD PUSH2 0x232 SWAP1 PUSH2 0xE29 JUMP JUMPDEST DUP1 ISZERO PUSH2 0x27D JUMPI DUP1 PUSH1 0x1F LT PUSH2 0x254 JUMPI PUSH2 0x100 DUP1 DUP4 SLOAD DIV MUL DUP4 MSTORE SWAP2 PUSH1 0x20 ADD SWAP2 PUSH2 0x27D JUMP JUMPDEST DUP3 ADD SWAP2 SWAP1 PUSH0 MSTORE PUSH1 0x20 PUSH0 KECCAK256 SWAP1 JUMPDEST DUP2 SLOAD DUP2 MSTORE SWAP1 PUSH1 0x1 ADD SWAP1 PUSH1 0x20 ADD DUP1 DUP4 GT PUSH2 0x260 JUMPI DUP3 SWAP1 SUB PUSH1 0x1F AND DUP3 ADD SWAP2 JUMPDEST POP POP POP POP POP DUP2 MSTORE PUSH1 0x20 ADD PUSH1 0x2 DUP3 ADD DUP1 SLOAD PUSH2 0x296 SWAP1 PUSH2 0xE29 JUMP JUMPDEST DUP1 PUSH1 0x1F ADD PUSH1 0x20 DUP1 SWAP2 DIV MUL PUSH1 0x20 ADD PUSH1 0x40 MLOAD SWAP1 DUP2 ADD PUSH1 0x40 MSTORE DUP1 SWAP3 SWAP2 SWAP1 DUP2 DUP2 MSTORE PUSH1 0x20 ADD DUP3 DUP1 SLOAD PUSH2 0x2C2 SWAP1 PUSH2 0xE29 JUMP JUMPDEST DUP1 ISZERO PUSH2 0x30D JUMPI DUP1 PUSH1 0x1F LT PUSH2 0x2E4 JUMPI PUSH2 0x100 DUP1 DUP4 SLOAD DIV MUL DUP4 MSTORE SWAP2 PUSH1 0x20 ADD SWAP2 PUSH2 0x30D JUMP JUMPDEST DUP3 ADD SWAP2 SWAP1 PUSH0 MSTORE PUSH1 0x20 PUSH0 KECCAK256 SWAP1 JUMPDEST DUP2 SLOAD DUP2 MSTORE SWAP1 PUSH1 0x1 ADD SWAP1 PUSH1 0x20 ADD DUP1 DUP4 GT PUSH2 0x2F0 JUMPI DUP3 SWAP1 SUB PUSH1 0x1F AND DUP3 ADD SWAP2 JUMPDEST POP POP POP POP POP DUP2 MSTORE PUSH1 0x20 ADD PUSH1 0x3 DUP3 ADD SLOAD DUP2 MSTORE POP POP DUP2 MSTORE PUSH1 0x20 ADD SWAP1 PUSH1 0x1 ADD SWAP1 PUSH2 0x146 JUMP JUMPDEST POP POP POP POP SWAP1 POP SWAP2 SWAP1 POP JUMP JUMPDEST PUSH1 0x60 PUSH0 DUP1 CALLER PUSH20 0xFFFFFFFFFFFFFFFFFFFFFFFFFFFFFFFFFFFFFFFF AND PUSH20 0xFFFFFFFFFFFFFFFFFFFFFFFFFFFFFFFFFFFFFFFF AND DUP2 MSTORE PUSH1 0x20 ADD SWAP1 DUP2 MSTORE PUSH1 0x20 ADD PUSH0 KECCAK256 DUP1 SLOAD DUP1 PUSH1 0x20 MUL PUSH1 0x20 ADD PUSH1 0x40 MLOAD SWAP1 DUP2 ADD PUSH1 0x40 MSTORE DUP1 SWAP3 SWAP2 SWAP1 DUP2 DUP2 MSTORE PUSH1 0x20 ADD PUSH0 SWAP1 JUMPDEST DUP3 DUP3 LT ISZERO PUSH2 0x580 JUMPI DUP4 DUP3 SWAP1 PUSH0 MSTORE PUSH1 0x20 PUSH0 KECCAK256 SWAP1 PUSH1 0x4 MUL ADD PUSH1 0x40 MLOAD DUP1 PUSH1 0x80 ADD PUSH1 0x40 MSTORE SWAP1 DUP2 PUSH0 DUP3 ADD DUP1 SLOAD PUSH2 0x3C7 SWAP1 PUSH2 0xE29 JUMP JUMPDEST DUP1 PUSH1 0x1F ADD PUSH1 0x20 DUP1 SWAP2 DIV MUL PUSH1 0x20 ADD PUSH1 0x40 MLOAD SWAP1 DUP2 ADD PUSH1 0x40 MSTORE DUP1 SWAP3 SWAP2 SWAP1 DUP2 DUP2 MSTORE PUSH1 0x20 ADD DUP3 DUP1 SLOAD PUSH2 0x3F3 SWAP1 PUSH2 0xE29 JUMP JUMPDEST DUP1 ISZERO PUSH2 0x43E JUMPI DUP1 PUSH1 0x1F LT PUSH2 0x415 JUMPI PUSH2 0x100 DUP1 DUP4 SLOAD DIV MUL DUP4 MSTORE SWAP2 PUSH1 0x20 ADD SWAP2 PUSH2 0x43E JUMP JUMPDEST DUP3 ADD SWAP2 SWAP1 PUSH0 MSTORE PUSH1 0x20 PUSH0 KECCAK256 SWAP1 JUMPDEST DUP2 SLOAD DUP2 MSTORE SWAP1 PUSH1 0x1 ADD SWAP1 PUSH1 0x20 ADD DUP1 DUP4 GT PUSH2 0x421 JUMPI DUP3 SWAP1 SUB PUSH1 0x1F AND DUP3 ADD SWAP2 JUMPDEST POP POP POP POP POP DUP2 MSTORE PUSH1 0x20 ADD PUSH1 0x1 DUP3 ADD DUP1 SLOAD PUSH2 0x457 SWAP1 PUSH2 0xE29 JUMP JUMPDEST DUP1 PUSH1 0x1F ADD PUSH1 0x20 DUP1 SWAP2 DIV MUL PUSH1 0x20 ADD PUSH1 0x40 MLOAD SWAP1 DUP2 ADD PUSH1 0x40 MSTORE DUP1 SWAP3 SWAP2 SWAP1 DUP2 DUP2 MSTORE PUSH1 0x20 ADD DUP3 DUP1 SLOAD PUSH2 0x483 SWAP1 PUSH2 0xE29 JUMP JUMPDEST DUP1 ISZERO PUSH2 0x4CE JUMPI DUP1 PUSH1 0x1F LT PUSH2 0x4A5 JUMPI PUSH2 0x100 DUP1 DUP4 SLOAD DIV MUL DUP4 MSTORE SWAP2 PUSH1 0x20 ADD SWAP2 PUSH2 0x4CE JUMP JUMPDEST DUP3 ADD SWAP2 SWAP1 PUSH0 MSTORE PUSH1 0x20 PUSH0 KECCAK256 SWAP1 JUMPDEST DUP2 SLOAD DUP2 MSTORE SWAP1 PUSH1 0x1 ADD SWAP1 PUSH1 0x20 ADD DUP1 DUP4 GT PUSH2 0x4B1 JUMPI DUP3 SWAP1 SUB PUSH1 0x1F AND DUP3 ADD SWAP2 JUMPDEST POP POP POP POP POP DUP2 MSTORE PUSH1 0x20 ADD PUSH1 0x2 DUP3 ADD DUP1 SLOAD PUSH2 0x4E7 SWAP1 PUSH2 0xE29 JUMP JUMPDEST DUP1 PUSH1 0x1F ADD PUSH1 0x20 DUP1 SWAP2 DIV MUL PUSH1 0x20 ADD PUSH1 0x40 MLOAD SWAP1 DUP2 ADD PUSH1 0x40 MSTORE DUP1 SWAP3 SWAP2 SWAP1 DUP2 DUP2 MSTORE PUSH1 0x20 ADD DUP3 DUP1 SLOAD PUSH2 0x513 SWAP1 PUSH2 0xE29 JUMP JUMPDEST DUP1 ISZERO PUSH2 0x55E JUMPI DUP1 PUSH1 0x1F LT PUSH2 0x535 JUMPI PUSH2 0x100 DUP1 DUP4 SLOAD DIV MUL DUP4 MSTORE SWAP2 PUSH1 0x20 ADD SWAP2 PUSH2 0x55E JUMP JUMPDEST DUP3 ADD SWAP2 SWAP1 PUSH0 MSTORE PUSH1 0x20 PUSH0 KECCAK256 SWAP1 JUMPDEST DUP2 SLOAD DUP2 MSTORE SWAP1 PUSH1 0x1 ADD SWAP1 PUSH1 0x20 ADD DUP1 DUP4 GT PUSH2 0x541 JUMPI DUP3 SWAP1 SUB PUSH1 0x1F AND DUP3 ADD SWAP2 JUMPDEST POP POP POP POP POP DUP2 MSTORE PUSH1 0x20 ADD PUSH1 0x3 DUP3 ADD SLOAD DUP2 MSTORE POP POP DUP2 MSTORE PUSH1 0x20 ADD SWAP1 PUSH1 0x1 ADD SWAP1 PUSH2 0x397 JUMP JUMPDEST POP POP POP POP SWAP1 POP SWAP1 JUMP JUMPDEST PUSH0 DUP1 CALLER PUSH20 0xFFFFFFFFFFFFFFFFFFFFFFFFFFFFFFFFFFFFFFFF AND PUSH20 0xFFFFFFFFFFFFFFFFFFFFFFFFFFFFFFFFFFFFFFFF AND DUP2 MSTORE PUSH1 0x20 ADD SWAP1 DUP2 MSTORE PUSH1 0x20 ADD PUSH0 KECCAK256 DUP1 SLOAD SWAP1 POP DUP6 LT PUSH2 0x60C JUMPI DUP5 PUSH1 0x40 MLOAD PUSH32 0x40C901CE00000000000000000000000000000000000000000000000000000000 DUP2 MSTORE PUSH1 0x4 ADD PUSH2 0x603 SWAP2 SWAP1 PUSH2 0xE68 JUMP JUMPDEST PUSH1 0x40 MLOAD DUP1 SWAP2 SUB SWAP1 REVERT JUMPDEST PUSH1 0x40 MLOAD DUP1 PUSH1 0x80 ADD PUSH1 0x40 MSTORE DUP1 DUP6 DUP2 MSTORE PUSH1 0x20 ADD DUP5 DUP2 MSTORE PUSH1 0x20 ADD DUP4 DUP2 MSTORE PUSH1 0x20 ADD DUP3 DUP2 MSTORE POP PUSH0 DUP1 CALLER PUSH20 0xFFFFFFFFFFFFFFFFFFFFFFFFFFFFFFFFFFFFFFFF AND PUSH20 0xFFFFFFFFFFFFFFFFFFFFFFFFFFFFFFFFFFFFFFFF AND DUP2 MSTORE PUSH1 0x20 ADD SWAP1 DUP2 MSTORE PUSH1 0x20 ADD PUSH0 KECCAK256 DUP7 DUP2 SLOAD DUP2 LT PUSH2 0x67B JUMPI PUSH2 0x67A PUSH2 0xE81 JUMP JUMPDEST JUMPDEST SWAP1 PUSH0 MSTORE PUSH1 0x20 PUSH0 KECCAK256 SWAP1 PUSH1 0x4 MUL ADD PUSH0 DUP3 ADD MLOAD DUP2 PUSH0 ADD SWAP1 DUP2 PUSH2 0x69A SWAP2 SWAP1 PUSH2 0x104B JUMP JUMPDEST POP PUSH1 0x20 DUP3 ADD MLOAD DUP2 PUSH1 0x1 ADD SWAP1 DUP2 PUSH2 0x6B0 SWAP2 SWAP1 PUSH2 0x104B JUMP JUMPDEST POP PUSH1 0x40 DUP3 ADD MLOAD DUP2 PUSH1 0x2 ADD SWAP1 DUP2 PUSH2 0x6C6 SWAP2 SWAP1 PUSH2 0x104B JUMP JUMPDEST POP PUSH1 0x60 DUP3 ADD MLOAD DUP2 PUSH1 0x3 ADD SSTORE SWAP1 POP POP POP POP POP POP POP JUMP JUMPDEST PUSH0 DUP1 CALLER PUSH20 0xFFFFFFFFFFFFFFFFFFFFFFFFFFFFFFFFFFFFFFFF AND PUSH20 0xFFFFFFFFFFFFFFFFFFFFFFFFFFFFFFFFFFFFFFFF AND DUP2 MSTORE PUSH1 0x20 ADD SWAP1 DUP2 MSTORE PUSH1 0x20 ADD PUSH0 KECCAK256 PUSH0 PUSH2 0x722 SWAP2 SWAP1 PUSH2 0x7F9 JUMP JUMPDEST JUMP JUMPDEST PUSH0 DUP1 CALLER PUSH20 0xFFFFFFFFFFFFFFFFFFFFFFFFFFFFFFFFFFFFFFFF AND PUSH20 0xFFFFFFFFFFFFFFFFFFFFFFFFFFFFFFFFFFFFFFFF AND DUP2 MSTORE PUSH1 0x20 ADD SWAP1 DUP2 MSTORE PUSH1 0x20 ADD PUSH0 KECCAK256 PUSH1 0x40 MLOAD DUP1 PUSH1 0x80 ADD PUSH1 0x40 MSTORE DUP1 DUP7 DUP2 MSTORE PUSH1 0x20 ADD DUP6 DUP2 MSTORE PUSH1 0x20 ADD DUP5 DUP2 MSTORE PUSH1 0x20 ADD DUP4 DUP2 MSTORE POP SWAP1 DUP1 PUSH1 0x1 DUP2 SLOAD ADD DUP1 DUP3 SSTORE DUP1 SWAP2 POP POP PUSH1 0x1 SWAP1 SUB SWAP1 PUSH0 MSTORE PUSH1 0x20 PUSH0 KECCAK256 SWAP1 PUSH1 0x4 MUL ADD PUSH0 SWAP1 SWAP2 SWAP1 SWAP2 SWAP1 SWAP2 POP PUSH0 DUP3 ADD MLOAD DUP2 PUSH0 ADD SWAP1 DUP2 PUSH2 0x7BA SWAP2 SWAP1 PUSH2 0x104B JUMP JUMPDEST POP PUSH1 0x20 DUP3 ADD MLOAD DUP2 PUSH1 0x1 ADD SWAP1 DUP2 PUSH2 0x7D0 SWAP2 SWAP1 PUSH2 0x104B JUMP JUMPDEST POP PUSH1 0x40 DUP3 ADD MLOAD DUP2 PUSH1 0x2 ADD SWAP1 DUP2 PUSH2 0x7E6 SWAP2 SWAP1 PUSH2 0x104B JUMP JUMPDEST POP PUSH1 0x60 DUP3 ADD MLOAD DUP2 PUSH1 0x3 ADD SSTORE POP POP POP POP POP POP JUMP JUMPDEST POP DUP1 SLOAD PUSH0 DUP3 SSTORE PUSH1 0x4 MUL SWAP1 PUSH0 MSTORE PUSH1 0x20 PUSH0 KECCAK256 SWAP1 DUP2 ADD SWAP1 PUSH2 0x817 SWAP2 SWAP1 PUSH2 0x81A JUMP JUMPDEST POP JUMP JUMPDEST JUMPDEST DUP1 DUP3 GT ISZERO PUSH2 0x860 JUMPI PUSH0 DUP1 DUP3 ADD PUSH0 PUSH2 0x832 SWAP2 SWAP1 PUSH2 0x864 JUMP JUMPDEST PUSH1 0x1 DUP3 ADD PUSH0 PUSH2 0x841 SWAP2 SWAP1 PUSH2 0x864 JUMP JUMPDEST PUSH1 0x2 DUP3 ADD PUSH0 PUSH2 0x850 SWAP2 SWAP1 PUSH2 0x864 JUMP JUMPDEST PUSH1 0x3 DUP3 ADD PUSH0 SWAP1 SSTORE POP PUSH1 0x4 ADD PUSH2 0x81B JUMP JUMPDEST POP SWAP1 JUMP JUMPDEST POP DUP1 SLOAD PUSH2 0x870 SWAP1 PUSH2 0xE29 JUMP JUMPDEST PUSH0 DUP3 SSTORE DUP1 PUSH1 0x1F LT PUSH2 0x881 JUMPI POP PUSH2 0x89E JUMP JUMPDEST PUSH1 0x1F ADD PUSH1 0x20 SWAP1 DIV SWAP1 PUSH0 MSTORE PUSH1 0x20 PUSH0 KECCAK256 SWAP1 DUP2 ADD SWAP1 PUSH2 0x89D SWAP2 SWAP1 PUSH2 0x8A1 JUMP JUMPDEST JUMPDEST POP JUMP JUMPDEST JUMPDEST DUP1 DUP3 GT ISZERO PUSH2 0x8B8 JUMPI PUSH0 DUP2 PUSH0 SWAP1 SSTORE POP PUSH1 0x1 ADD PUSH2 0x8A2 JUMP JUMPDEST POP SWAP1 JUMP JUMPDEST PUSH0 PUSH1 0x40 MLOAD SWAP1 POP SWAP1 JUMP JUMPDEST PUSH0 DUP1 REVERT JUMPDEST PUSH0 DUP1 REVERT JUMPDEST PUSH0 PUSH20 0xFFFFFFFFFFFFFFFFFFFFFFFFFFFFFFFFFFFFFFFF DUP3 AND SWAP1 POP SWAP2 SWAP1 POP JUMP JUMPDEST PUSH0 PUSH2 0x8F6 DUP3 PUSH2 0x8CD JUMP JUMPDEST SWAP1 POP SWAP2 SWAP1 POP JUMP JUMPDEST PUSH2 0x906 DUP2 PUSH2 0x8EC JUMP JUMPDEST DUP2 EQ PUSH2 0x910 JUMPI PUSH0 DUP1 REVERT JUMPDEST POP JUMP JUMPDEST PUSH0 DUP2 CALLDATALOAD SWAP1 POP PUSH2 0x921 DUP2 PUSH2 0x8FD JUMP JUMPDEST SWAP3 SWAP2 POP POP JUMP JUMPDEST PUSH0 PUSH1 0x20 DUP3 DUP5 SUB SLT ISZERO PUSH2 0x93C JUMPI PUSH2 0x93B PUSH2 0x8C5 JUMP JUMPDEST JUMPDEST PUSH0 PUSH2 0x949 DUP5 DUP3 DUP6 ADD PUSH2 0x913 JUMP JUMPDEST SWAP2 POP POP SWAP3 SWAP2 POP POP JUMP JUMPDEST PUSH0 DUP2 MLOAD SWAP1 POP SWAP2 SWAP1 POP JUMP JUMPDEST PUSH0 DUP3 DUP3 MSTORE PUSH1 0x20 DUP3 ADD SWAP1 POP SWAP3 SWAP2 POP POP JUMP JUMPDEST PUSH0 DUP2 SWAP1 POP PUSH1 0x20 DUP3 ADD SWAP1 POP SWAP2 SWAP1 POP JUMP JUMPDEST PUSH0 DUP2 MLOAD SWAP1 POP SWAP2 SWAP1 POP JUMP JUMPDEST PUSH0 DUP3 DUP3 MSTORE PUSH1 0x20 DUP3 ADD SWAP1 POP SWAP3 SWAP2 POP POP JUMP JUMPDEST DUP3 DUP2 DUP4 MCOPY PUSH0 DUP4 DUP4 ADD MSTORE POP POP POP JUMP JUMPDEST PUSH0 PUSH1 0x1F NOT PUSH1 0x1F DUP4 ADD AND SWAP1 POP SWAP2 SWAP1 POP JUMP JUMPDEST PUSH0 PUSH2 0x9BD DUP3 PUSH2 0x97B JUMP JUMPDEST PUSH2 0x9C7 DUP2 DUP6 PUSH2 0x985 JUMP JUMPDEST SWAP4 POP PUSH2 0x9D7 DUP2 DUP6 PUSH1 0x20 DUP7 ADD PUSH2 0x995 JUMP JUMPDEST PUSH2 0x9E0 DUP2 PUSH2 0x9A3 JUMP JUMPDEST DUP5 ADD SWAP2 POP POP SWAP3 SWAP2 POP POP JUMP JUMPDEST PUSH0 DUP2 SWAP1 POP SWAP2 SWAP1 POP JUMP JUMPDEST PUSH2 0x9FD DUP2 PUSH2 0x9EB JUMP JUMPDEST DUP3 MSTORE POP POP JUMP JUMPDEST PUSH0 PUSH1 0x80 DUP4 ADD PUSH0 DUP4 ADD MLOAD DUP5 DUP3 SUB PUSH0 DUP7 ADD MSTORE PUSH2 0xA1D DUP3 DUP3 PUSH2 0x9B3 JUMP JUMPDEST SWAP2 POP POP PUSH1 0x20 DUP4 ADD MLOAD DUP5 DUP3 SUB PUSH1 0x20 DUP7 ADD MSTORE PUSH2 0xA37 DUP3 DUP3 PUSH2 0x9B3 JUMP JUMPDEST SWAP2 POP POP PUSH1 0x40 DUP4 ADD MLOAD DUP5 DUP3 SUB PUSH1 0x40 DUP7 ADD MSTORE PUSH2 0xA51 DUP3 DUP3 PUSH2 0x9B3 JUMP JUMPDEST SWAP2 POP POP PUSH1 0x60 DUP4 ADD MLOAD PUSH2 0xA66 PUSH1 0x60 DUP7 ADD DUP3 PUSH2 0x9F4 JUMP JUMPDEST POP DUP1 SWAP2 POP POP SWAP3 SWAP2 POP POP JUMP JUMPDEST PUSH0 PUSH2 0xA7C DUP4 DUP4 PUSH2 0xA03 JUMP JUMPDEST SWAP1 POP SWAP3 SWAP2 POP POP JUMP JUMPDEST PUSH0 PUSH1 0x20 DUP3 ADD SWAP1 POP SWAP2 SWAP1 POP JUMP JUMPDEST PUSH0 PUSH2 0xA9A DUP3 PUSH2 0x952 JUMP JUMPDEST PUSH2 0xAA4 DUP2 DUP6 PUSH2 0x95C JUMP JUMPDEST SWAP4 POP DUP4 PUSH1 0x20 DUP3 MUL DUP6 ADD PUSH2 0xAB6 DUP6 PUSH2 0x96C JUMP JUMPDEST DUP1 PUSH0 JUMPDEST DUP6 DUP2 LT ISZERO PUSH2 0xAF1 JUMPI DUP5 DUP5 SUB DUP10 MSTORE DUP2 MLOAD PUSH2 0xAD2 DUP6 DUP3 PUSH2 0xA71 JUMP JUMPDEST SWAP5 POP PUSH2 0xADD DUP4 PUSH2 0xA84 JUMP JUMPDEST SWAP3 POP PUSH1 0x20 DUP11 ADD SWAP10 POP POP PUSH1 0x1 DUP2 ADD SWAP1 POP PUSH2 0xAB9 JUMP JUMPDEST POP DUP3 SWAP8 POP DUP8 SWAP6 POP POP POP POP POP POP SWAP3 SWAP2 POP POP JUMP JUMPDEST PUSH0 PUSH1 0x20 DUP3 ADD SWAP1 POP DUP2 DUP2 SUB PUSH0 DUP4 ADD MSTORE PUSH2 0xB1B DUP2 DUP5 PUSH2 0xA90 JUMP JUMPDEST SWAP1 POP SWAP3 SWAP2 POP POP JUMP JUMPDEST PUSH2 0xB2C DUP2 PUSH2 0x9EB JUMP JUMPDEST DUP2 EQ PUSH2 0xB36 JUMPI PUSH0 DUP1 REVERT JUMPDEST POP JUMP JUMPDEST PUSH0 DUP2 CALLDATALOAD SWAP1 POP PUSH2 0xB47 DUP2 PUSH2 0xB23 JUMP JUMPDEST SWAP3 SWAP2 POP POP JUMP JUMPDEST PUSH0 DUP1 REVERT JUMPDEST PUSH0 DUP1 REVERT JUMPDEST PUSH32 0x4E487B7100000000000000000000000000000000000000000000000000000000 PUSH0 MSTORE PUSH1 0x41 PUSH1 0x4 MSTORE PUSH1 0x24 PUSH0 REVERT JUMPDEST PUSH2 0xB8B DUP3 PUSH2 0x9A3 JUMP JUMPDEST DUP2 ADD DUP2 DUP2 LT PUSH8 0xFFFFFFFFFFFFFFFF DUP3 GT OR ISZERO PUSH2 0xBAA JUMPI PUSH2 0xBA9 PUSH2 0xB55 JUMP JUMPDEST JUMPDEST DUP1 PUSH1 0x40 MSTORE POP POP POP JUMP JUMPDEST PUSH0 PUSH2 0xBBC PUSH2 0x8BC JUMP JUMPDEST SWAP1 POP PUSH2 0xBC8 DUP3 DUP3 PUSH2 0xB82 JUMP JUMPDEST SWAP2 SWAP1 POP JUMP JUMPDEST PUSH0 PUSH8 0xFFFFFFFFFFFFFFFF DUP3 GT ISZERO PUSH2 0xBE7 JUMPI PUSH2 0xBE6 PUSH2 0xB55 JUMP JUMPDEST JUMPDEST PUSH2 0xBF0 DUP3 PUSH2 0x9A3 JUMP JUMPDEST SWAP1 POP PUSH1 0x20 DUP2 ADD SWAP1 POP SWAP2 SWAP1 POP JUMP JUMPDEST DUP3 DUP2 DUP4 CALLDATACOPY PUSH0 DUP4 DUP4 ADD MSTORE POP POP POP JUMP JUMPDEST PUSH0 PUSH2 0xC1D PUSH2 0xC18 DUP5 PUSH2 0xBCD JUMP JUMPDEST PUSH2 0xBB3 JUMP JUMPDEST SWAP1 POP DUP3 DUP2 MSTORE PUSH1 0x20 DUP2 ADD DUP5 DUP5 DUP5 ADD GT ISZERO PUSH2 0xC39 JUMPI PUSH2 0xC38 PUSH2 0xB51 JUMP JUMPDEST JUMPDEST PUSH2 0xC44 DUP5 DUP3 DUP6 PUSH2 0xBFD JUMP JUMPDEST POP SWAP4 SWAP3 POP POP POP JUMP JUMPDEST PUSH0 DUP3 PUSH1 0x1F DUP4 ADD SLT PUSH2 0xC60 JUMPI PUSH2 0xC5F PUSH2 0xB4D JUMP JUMPDEST JUMPDEST DUP2 CALLDATALOAD PUSH2 0xC70 DUP5 DUP3 PUSH1 0x20 DUP7 ADD PUSH2 0xC0B JUMP JUMPDEST SWAP2 POP POP SWAP3 SWAP2 POP POP JUMP JUMPDEST PUSH0 DUP1 PUSH0 DUP1 PUSH0 PUSH1 0xA0 DUP7 DUP9 SUB SLT ISZERO PUSH2 0xC92 JUMPI PUSH2 0xC91 PUSH2 0x8C5 JUMP JUMPDEST JUMPDEST PUSH0 PUSH2 0xC9F DUP9 DUP3 DUP10 ADD PUSH2 0xB39 JUMP JUMPDEST SWAP6 POP POP PUSH1 0x20 DUP7 ADD CALLDATALOAD PUSH8 0xFFFFFFFFFFFFFFFF DUP2 GT ISZERO PUSH2 0xCC0 JUMPI PUSH2 0xCBF PUSH2 0x8C9 JUMP JUMPDEST JUMPDEST PUSH2 0xCCC DUP9 DUP3 DUP10 ADD PUSH2 0xC4C JUMP JUMPDEST SWAP5 POP POP PUSH1 0x40 DUP7 ADD CALLDATALOAD PUSH8 0xFFFFFFFFFFFFFFFF DUP2 GT ISZERO PUSH2 0xCED JUMPI PUSH2 0xCEC PUSH2 0x8C9 JUMP JUMPDEST JUMPDEST PUSH2 0xCF9 DUP9 DUP3 DUP10 ADD PUSH2 0xC4C JUMP JUMPDEST SWAP4 POP POP PUSH1 0x60 DUP7 ADD CALLDATALOAD PUSH8 0xFFFFFFFFFFFFFFFF DUP2 GT ISZERO PUSH2 0xD1A JUMPI PUSH2 0xD19 PUSH2 0x8C9 JUMP JUMPDEST JUMPDEST PUSH2 0xD26 DUP9 DUP3 DUP10 ADD PUSH2 0xC4C JUMP JUMPDEST SWAP3 POP POP PUSH1 0x80 PUSH2 0xD37 DUP9 DUP3 DUP10 ADD PUSH2 0xB39 JUMP JUMPDEST SWAP2 POP POP SWAP3 SWAP6 POP SWAP3 SWAP6 SWAP1 SWAP4 POP JUMP JUMPDEST PUSH0 DUP1 PUSH0 DUP1 PUSH1 0x80 DUP6 DUP8 SUB SLT ISZERO PUSH2 0xD5C JUMPI PUSH2 0xD5B PUSH2 0x8C5 JUMP JUMPDEST JUMPDEST PUSH0 DUP6 ADD CALLDATALOAD PUSH8 0xFFFFFFFFFFFFFFFF DUP2 GT ISZERO PUSH2 0xD79 JUMPI PUSH2 0xD78 PUSH2 0x8C9 JUMP JUMPDEST JUMPDEST PUSH2 0xD85 DUP8 DUP3 DUP9 ADD PUSH2 0xC4C JUMP JUMPDEST SWAP5 POP POP PUSH1 0x20 DUP6 ADD CALLDATALOAD PUSH8 0xFFFFFFFFFFFFFFFF DUP2 GT ISZERO PUSH2 0xDA6 JUMPI PUSH2 0xDA5 PUSH2 0x8C9 JUMP JUMPDEST JUMPDEST PUSH2 0xDB2 DUP8 DUP3 DUP9 ADD PUSH2 0xC4C JUMP JUMPDEST SWAP4 POP POP PUSH1 0x40 DUP6 ADD CALLDATALOAD PUSH8 0xFFFFFFFFFFFFFFFF DUP2 GT ISZERO PUSH2 0xDD3 JUMPI PUSH2 0xDD2 PUSH2 0x8C9 JUMP JUMPDEST JUMPDEST PUSH2 0xDDF DUP8 DUP3 DUP9 ADD PUSH2 0xC4C JUMP JUMPDEST SWAP3 POP POP PUSH1 0x60 PUSH2 0xDF0 DUP8 DUP3 DUP9 ADD PUSH2 0xB39 JUMP JUMPDEST SWAP2 POP POP SWAP3 SWAP6 SWAP2 SWAP5 POP SWAP3 POP JUMP JUMPDEST PUSH32 0x4E487B7100000000000000000000000000000000000000000000000000000000 PUSH0 MSTORE PUSH1 0x22 PUSH1 0x4 MSTORE PUSH1 0x24 PUSH0 REVERT JUMPDEST PUSH0 PUSH1 0x2 DUP3 DIV SWAP1 POP PUSH1 0x1 DUP3 AND DUP1 PUSH2 0xE40 JUMPI PUSH1 0x7F DUP3 AND SWAP2 POP JUMPDEST PUSH1 0x20 DUP3 LT DUP2 SUB PUSH2 0xE53 JUMPI PUSH2 0xE52 PUSH2 0xDFC JUMP JUMPDEST JUMPDEST POP SWAP2 SWAP1 POP JUMP JUMPDEST PUSH2 0xE62 DUP2 PUSH2 0x9EB JUMP JUMPDEST DUP3 MSTORE POP POP JUMP JUMPDEST PUSH0 PUSH1 0x20 DUP3 ADD SWAP1 POP PUSH2 0xE7B PUSH0 DUP4 ADD DUP5 PUSH2 0xE59 JUMP JUMPDEST SWAP3 SWAP2 POP POP JUMP JUMPDEST PUSH32 0x4E487B7100000000000000000000000000000000000000000000000000000000 PUSH0 MSTORE PUSH1 0x32 PUSH1 0x4 MSTORE PUSH1 0x24 PUSH0 REVERT JUMPDEST PUSH0 DUP2 SWAP1 POP DUP2 PUSH0 MSTORE PUSH1 0x20 PUSH0 KECCAK256 SWAP1 POP SWAP2 SWAP1 POP JUMP JUMPDEST PUSH0 PUSH1 0x20 PUSH1 0x1F DUP4 ADD DIV SWAP1 POP SWAP2 SWAP1 POP JUMP JUMPDEST PUSH0 DUP3 DUP3 SHL SWAP1 POP SWAP3 SWAP2 POP POP JUMP JUMPDEST PUSH0 PUSH1 0x8 DUP4 MUL PUSH2 0xF0A PUSH32 0xFFFFFFFFFFFFFFFFFFFFFFFFFFFFFFFFFFFFFFFFFFFFFFFFFFFFFFFFFFFFFFFF DUP3 PUSH2 0xECF JUMP JUMPDEST PUSH2 0xF14 DUP7 DUP4 PUSH2 0xECF JUMP JUMPDEST SWAP6 POP DUP1 NOT DUP5 AND SWAP4 POP DUP1 DUP7 AND DUP5 OR SWAP3 POP POP POP SWAP4 SWAP3 POP POP POP JUMP JUMPDEST PUSH0 DUP2 SWAP1 POP SWAP2 SWAP1 POP JUMP JUMPDEST PUSH0 PUSH2 0xF4F PUSH2 0xF4A PUSH2 0xF45 DUP5 PUSH2 0x9EB JUMP JUMPDEST PUSH2 0xF2C JUMP JUMPDEST PUSH2 0x9EB JUMP JUMPDEST SWAP1 POP SWAP2 SWAP1 POP JUMP JUMPDEST PUSH0 DUP2 SWAP1 POP SWAP2 SWAP1 POP JUMP JUMPDEST PUSH2 0xF68 DUP4 PUSH2 0xF35 JUMP JUMPDEST PUSH2 0xF7C PUSH2 0xF74 DUP3 PUSH2 0xF56 JUMP JUMPDEST DUP5 DUP5 SLOAD PUSH2 0xEDB JUMP JUMPDEST DUP3 SSTORE POP POP POP POP JUMP JUMPDEST PUSH0 SWAP1 JUMP JUMPDEST PUSH2 0xF90 PUSH2 0xF84 JUMP JUMPDEST PUSH2 0xF9B DUP2 DUP5 DUP5 PUSH2 0xF5F JUMP JUMPDEST POP POP POP JUMP JUMPDEST JUMPDEST DUP2 DUP2 LT ISZERO PUSH2 0xFBE JUMPI PUSH2 0xFB3 PUSH0 DUP3 PUSH2 0xF88 JUMP JUMPDEST PUSH1 0x1 DUP2 ADD SWAP1 POP PUSH2 0xFA1 JUMP JUMPDEST POP POP JUMP JUMPDEST PUSH1 0x1F DUP3 GT ISZERO PUSH2 0x1003 JUMPI PUSH2 0xFD4 DUP2 PUSH2 0xEAE JUMP JUMPDEST PUSH2 0xFDD DUP5 PUSH2 0xEC0 JUMP JUMPDEST DUP2 ADD PUSH1 0x20 DUP6 LT ISZERO PUSH2 0xFEC JUMPI DUP2 SWAP1 POP JUMPDEST PUSH2 0x1000 PUSH2 0xFF8 DUP6 PUSH2 0xEC0 JUMP JUMPDEST DUP4 ADD DUP3 PUSH2 0xFA0 JUMP JUMPDEST POP POP JUMPDEST POP POP POP JUMP JUMPDEST PUSH0 DUP3 DUP3 SHR SWAP1 POP SWAP3 SWAP2 POP POP JUMP JUMPDEST PUSH0 PUSH2 0x1023 PUSH0 NOT DUP5 PUSH1 0x8 MUL PUSH2 0x1008 JUMP JUMPDEST NOT DUP1 DUP4 AND SWAP2 POP POP SWAP3 SWAP2 POP POP JUMP JUMPDEST PUSH0 PUSH2 0x103B DUP4 DUP4 PUSH2 0x1014 JUMP JUMPDEST SWAP2 POP DUP3 PUSH1 0x2 MUL DUP3 OR SWAP1 POP SWAP3 SWAP2 POP POP JUMP JUMPDEST PUSH2 0x1054 DUP3 PUSH2 0x97B JUMP JUMPDEST PUSH8 0xFFFFFFFFFFFFFFFF DUP2 GT ISZERO PUSH2 0x106D JUMPI PUSH2 0x106C PUSH2 0xB55 JUMP JUMPDEST JUMPDEST PUSH2 0x1077 DUP3 SLOAD PUSH2 0xE29 JUMP JUMPDEST PUSH2 0x1082 DUP3 DUP3 DUP6 PUSH2 0xFC2 JUMP JUMPDEST PUSH0 PUSH1 0x20 SWAP1 POP PUSH1 0x1F DUP4 GT PUSH1 0x1 DUP2 EQ PUSH2 0x10B3 JUMPI PUSH0 DUP5 ISZERO PUSH2 0x10A1 JUMPI DUP3 DUP8 ADD MLOAD SWAP1 POP JUMPDEST PUSH2 0x10AB DUP6 DUP3 PUSH2 0x1030 JUMP JUMPDEST DUP7 SSTORE POP PUSH2 0x1112 JUMP JUMPDEST PUSH1 0x1F NOT DUP5 AND PUSH2 0x10C1 DUP7 PUSH2 0xEAE JUMP JUMPDEST PUSH0 JUMPDEST DUP3 DUP2 LT ISZERO PUSH2 0x10E8 JUMPI DUP5 DUP10 ADD MLOAD DUP3 SSTORE PUSH1 0x1 DUP3 ADD SWAP2 POP PUSH1 0x20 DUP6 ADD SWAP5 POP PUSH1 0x20 DUP2 ADD SWAP1 POP PUSH2 0x10C3 JUMP JUMPDEST DUP7 DUP4 LT ISZERO PUSH2 0x1105 JUMPI DUP5 DUP10 ADD MLOAD PUSH2 0x1101 PUSH1 0x1F DUP10 AND DUP3 PUSH2 0x1014 JUMP JUMPDEST DUP4 SSTORE POP JUMPDEST PUSH1 0x1 PUSH1 0x2 DUP9 MUL ADD DUP9 SSTORE POP POP POP JUMPDEST POP POP POP POP POP POP JUMP INVALID LOG2 PUSH5 0x6970667358 0x22 SLT KECCAK256 0xC4 STOP LOG4 0xA8 PUSH30 0x8DD900FC95BC09D047403D114A48D1F1F98E524994838610AAFF0D64736F PUSH13 0x634300081A0033000000000000 "
				},
				"gasEstimates": {
					"creation": {
						"codeDepositCost": "886400",
						"executionCost": "920",
						"totalCost": "887320"
					},
					"external": {
						"addCar(string,string,string,uint256)": "infinite",
						"getMyCars()": "infinite",
						"getUserCars(address)": "infinite",
						"resetMyGarage()": "infinite",
						"updateCar(uint256,string,string,string,uint256)": "infinite"
					}
				},
				"methodIdentifiers": {
					"addCar(string,string,string,uint256)": "d2d50bd8",
					"getMyCars()": "341fa05d",
					"getUserCars(address)": "2698286c",
					"resetMyGarage()": "6dcb7896",
					"updateCar(uint256,string,string,string,uint256)": "4cd1ed3d"
				}
			},
			"storageLayout": {
				"storage": [
					{
						"astId": 7,
						"contract": "6_ Structs.sol:GarageManager",
						"label": "garages",
						"offset": 0,
						"slot": "0",
						"type": "t_mapping(t_address,t_array(t_struct(Car)16_storage)dyn_storage)"
					}
				],
				"types": {
					"t_address": {
						"encoding": "inplace",
						"label": "address",
						"numberOfBytes": "20"
					},
					"t_array(t_struct(Car)16_storage)dyn_storage": {
						"base": "t_struct(Car)16_storage",
						"encoding": "dynamic_array",
						"label": "struct GarageManager.Car[]",
						"numberOfBytes": "32"
					},
					"t_mapping(t_address,t_array(t_struct(Car)16_storage)dyn_storage)": {
						"encoding": "mapping",
						"key": "t_address",
						"label": "mapping(address => struct GarageManager.Car[])",
						"numberOfBytes": "32",
						"value": "t_array(t_struct(Car)16_storage)dyn_storage"
					},
					"t_string_storage": {
						"encoding": "bytes",
						"label": "string",
						"numberOfBytes": "32"
					},
					"t_struct(Car)16_storage": {
						"encoding": "inplace",
						"label": "struct GarageManager.Car",
						"members": [
							{
								"astId": 9,
								"contract": "6_ Structs.sol:GarageManager",
								"label": "make",
								"offset": 0,
								"slot": "0",
								"type": "t_string_storage"
							},
							{
								"astId": 11,
								"contract": "6_ Structs.sol:GarageManager",
								"label": "model",
								"offset": 0,
								"slot": "1",
								"type": "t_string_storage"
							},
							{
								"astId": 13,
								"contract": "6_ Structs.sol:GarageManager",
								"label": "color",
								"offset": 0,
								"slot": "2",
								"type": "t_string_storage"
							},
							{
								"astId": 15,
								"contract": "6_ Structs.sol:GarageManager",
								"label": "numberOfDoors",
								"offset": 0,
								"slot": "3",
								"type": "t_uint256"
							}
						],
						"numberOfBytes": "128"
					},
					"t_uint256": {
						"encoding": "inplace",
						"label": "uint256",
						"numberOfBytes": "32"
					}
				}
			},
			"userdoc": {
				"kind": "user",
				"methods": {},
				"version": 1
			}
		}
	}
}