{
	"data": {
		"bytecode": {
			"linkReferences": {},
			"object": "6080604052604051806101400160405280600160ff168152602001600260ff168152602001600360ff168152602001600460ff168152602001600560ff168152602001600660ff168152602001600760ff168152602001600860ff168152602001600960ff168152602001600a60ff168152505f90600a610081929190610093565b5034801561008d575f80fd5b506100fe565b828054828255905f5260205f209081019282156100d2579160200282015b828111156100d1578251829060ff169055916020019190600101906100b1565b5b5090506100df91906100e3565b5090565b5b808211156100fa575f815f9055506001016100e4565b5090565b610a0e8061010b5f395ff3fe608060405234801561000f575f80fd5b506004361061007b575f3560e01c806389f915f61161005957806389f915f6146100c4578063a00b7acd146100e2578063ade82bfd146100fe578063b1cebac5146101085761007b565b806320aaf79a1461007f5780634f9377db1461009e5780637f66b1b8146100ba575b5f80fd5b610087610112565b6040516100959291906107ac565b60405180910390f35b6100b860048036038101906100b3919061084a565b61032a565b005b6100c2610387565b005b6100cc610396565b6040516100d99190610895565b60405180910390f35b6100fc60048036038101906100f791906108df565b610446565b005b6101066104cf565b005b6101106104de565b005b6060805f805b6001805490508110156101695763386d89d06001828154811061013e5761013d61090a565b5b905f5260205f200154111561015c57818061015890610964565b9250505b8080600101915050610118565b505f8167ffffffffffffffff811115610185576101846109ab565b5b6040519080825280602002602001820160405280156101b35781602001602082028036833780820191505090505b5090505f8267ffffffffffffffff8111156101d1576101d06109ab565b5b6040519080825280602002602001820160405280156101ff5781602001602082028036833780820191505090505b5090505f805b60018054905081101561031b5763386d89d06001828154811061022b5761022a61090a565b5b905f5260205f200154111561030e576001818154811061024e5761024d61090a565b5b905f5260205f20015484838151811061026a5761026961090a565b5b6020026020010181815250506002818154811061028a5761028961090a565b5b905f5260205f20015f9054906101000a900473ffffffffffffffffffffffffffffffffffffffff168383815181106102c5576102c461090a565b5b602002602001019073ffffffffffffffffffffffffffffffffffffffff16908173ffffffffffffffffffffffffffffffffffffffff1681525050818061030a90610964565b9250505b8080600101915050610205565b50828295509550505050509091565b5f5b82829050811015610382575f83838381811061034b5761034a61090a565b5b90506020020135908060018154018082558091505060019003905f5260205f20015f9091909190915055808060010191505061032c565b505050565b60025f610394919061055e565b565b60605f808054905067ffffffffffffffff8111156103b7576103b66109ab565b5b6040519080825280602002602001820160405280156103e55781602001602082028036833780820191505090505b5090505f5b5f8054905081101561043e575f81815481106104095761040861090a565b5b905f5260205f2001548282815181106104255761042461090a565b5b60200260200101818152505080806001019150506103ea565b508091505090565b600181908060018154018082558091505060019003905f5260205f20015f9091909190915055600233908060018154018082558091505060019003905f5260205f20015f9091909190916101000a81548173ffffffffffffffffffffffffffffffffffffffff021916908373ffffffffffffffffffffffffffffffffffffffff16021790555050565b60015f6104dc919061057c565b565b604051806101400160405280600160ff168152602001600260ff168152602001600360ff168152602001600460ff168152602001600560ff168152602001600660ff168152602001600760ff168152602001600860ff168152602001600960ff168152602001600a60ff168152505f90600a61055b92919061059a565b50565b5080545f8255905f5260205f209081019061057991906105ea565b50565b5080545f8255905f5260205f209081019061059791906105ea565b50565b828054828255905f5260205f209081019282156105d9579160200282015b828111156105d8578251829060ff169055916020019190600101906105b8565b5b5090506105e691906105ea565b5090565b5b80821115610601575f815f9055506001016105eb565b5090565b5f81519050919050565b5f82825260208201905092915050565b5f819050602082019050919050565b5f819050919050565b6106408161062e565b82525050565b5f6106518383610637565b60208301905092915050565b5f602082019050919050565b5f61067382610605565b61067d818561060f565b93506106888361061f565b805f5b838110156106b857815161069f8882610646565b97506106aa8361065d565b92505060018101905061068b565b5085935050505092915050565b5f81519050919050565b5f82825260208201905092915050565b5f819050602082019050919050565b5f73ffffffffffffffffffffffffffffffffffffffff82169050919050565b5f610717826106ee565b9050919050565b6107278161070d565b82525050565b5f610738838361071e565b60208301905092915050565b5f602082019050919050565b5f61075a826106c5565b61076481856106cf565b935061076f836106df565b805f5b8381101561079f578151610786888261072d565b975061079183610744565b925050600181019050610772565b5085935050505092915050565b5f6040820190508181035f8301526107c48185610669565b905081810360208301526107d88184610750565b90509392505050565b5f80fd5b5f80fd5b5f80fd5b5f80fd5b5f80fd5b5f8083601f84011261080a576108096107e9565b5b8235905067ffffffffffffffff811115610827576108266107ed565b5b602083019150836020820283011115610843576108426107f1565b5b9250929050565b5f80602083850312156108605761085f6107e1565b5b5f83013567ffffffffffffffff81111561087d5761087c6107e5565b5b610889858286016107f5565b92509250509250929050565b5f6020820190508181035f8301526108ad8184610669565b905092915050565b6108be8161062e565b81146108c8575f80fd5b50565b5f813590506108d9816108b5565b92915050565b5f602082840312156108f4576108f36107e1565b5b5f610901848285016108cb565b91505092915050565b7f4e487b71000000000000000000000000000000000000000000000000000000005f52603260045260245ffd5b7f4e487b71000000000000000000000000000000000000000000000000000000005f52601160045260245ffd5b5f61096e8261062e565b91507fffffffffffffffffffffffffffffffffffffffffffffffffffffffffffffffff82036109a05761099f610937565b5b600182019050919050565b7f4e487b71000000000000000000000000000000000000000000000000000000005f52604160045260245ffdfea2646970667358221220dbb64c4492a7493a42e2c4e5a4ab2d8f3aed60528f688d46fd0c344c4a37425864736f6c634300081a0033",
			"opcodes": "PUSH1 0x80 PUSH1 0x40 MSTORE PUSH1 0x40 MLOAD DUP1 PUSH2 0x140 ADD PUSH1 0x40 MSTORE DUP1 PUSH1 0x1 PUSH1 0xFF AND DUP2 MSTORE PUSH1 0x20 ADD PUSH1 0x2 PUSH1 0xFF AND DUP2 MSTORE PUSH1 0x20 ADD PUSH1 0x3 PUSH1 0xFF AND DUP2 MSTORE PUSH1 0x20 ADD PUSH1 0x4 PUSH1 0xFF AND DUP2 MSTORE PUSH1 0x20 ADD PUSH1 0x5 PUSH1 0xFF AND DUP2 MSTORE PUSH1 0x20 ADD PUSH1 0x6 PUSH1 0xFF AND DUP2 MSTORE PUSH1 0x20 ADD PUSH1 0x7 PUSH1 0xFF AND DUP2 MSTORE PUSH1 0x20 ADD PUSH1 0x8 PUSH1 0xFF AND DUP2 MSTORE PUSH1 0x20 ADD PUSH1 0x9 PUSH1 0xFF AND DUP2 MSTORE PUSH1 0x20 ADD PUSH1 0xA PUSH1 0xFF AND DUP2 MSTORE POP PUSH0 SWAP1 PUSH1 0xA PUSH2 0x81 SWAP3 SWAP2 SWAP1 PUSH2 0x93 JUMP JUMPDEST POP CALLVALUE DUP1 ISZERO PUSH2 0x8D JUMPI PUSH0 DUP1 REVERT JUMPDEST POP PUSH2 0xFE JUMP JUMPDEST DUP3 DUP1 SLOAD DUP3 DUP3 SSTORE SWAP1 PUSH0 MSTORE PUSH1 0x20 PUSH0 KECCAK256 SWAP1 DUP2 ADD SWAP3 DUP3 ISZERO PUSH2 0xD2 JUMPI SWAP2 PUSH1 0x20 MUL DUP3 ADD JUMPDEST DUP3 DUP2 GT ISZERO PUSH2 0xD1 JUMPI DUP3 MLOAD DUP3 SWAP1 PUSH1 0xFF AND SWAP1 SSTORE SWAP2 PUSH1 0x20 ADD SWAP2 SWAP1 PUSH1 0x1 ADD SWAP1 PUSH2 0xB1 JUMP JUMPDEST JUMPDEST POP SWAP1 POP PUSH2 0xDF SWAP2 SWAP1 PUSH2 0xE3 JUMP JUMPDEST POP SWAP1 JUMP JUMPDEST JUMPDEST DUP1 DUP3 GT ISZERO PUSH2 0xFA JUMPI PUSH0 DUP2 PUSH0 SWAP1 SSTORE POP PUSH1 0x1 ADD PUSH2 0xE4 JUMP JUMPDEST POP SWAP1 JUMP JUMPDEST PUSH2 0xA0E DUP1 PUSH2 0x10B PUSH0 CODECOPY PUSH0 RETURN INVALID PUSH1 0x80 PUSH1 0x40 MSTORE CALLVALUE DUP1 ISZERO PUSH2 0xF JUMPI PUSH0 DUP1 REVERT JUMPDEST POP PUSH1 0x4 CALLDATASIZE LT PUSH2 0x7B JUMPI PUSH0 CALLDATALOAD PUSH1 0xE0 SHR DUP1 PUSH4 0x89F915F6 GT PUSH2 0x59 JUMPI DUP1 PUSH4 0x89F915F6 EQ PUSH2 0xC4 JUMPI DUP1 PUSH4 0xA00B7ACD EQ PUSH2 0xE2 JUMPI DUP1 PUSH4 0xADE82BFD EQ PUSH2 0xFE JUMPI DUP1 PUSH4 0xB1CEBAC5 EQ PUSH2 0x108 JUMPI PUSH2 0x7B JUMP JUMPDEST DUP1 PUSH4 0x20AAF79A EQ PUSH2 0x7F JUMPI DUP1 PUSH4 0x4F9377DB EQ PUSH2 0x9E JUMPI DUP1 PUSH4 0x7F66B1B8 EQ PUSH2 0xBA JUMPI JUMPDEST PUSH0 DUP1 REVERT JUMPDEST PUSH2 0x87 PUSH2 0x112 JUMP JUMPDEST PUSH1 0x40 MLOAD PUSH2 0x95 SWAP3 SWAP2 SWAP1 PUSH2 0x7AC JUMP JUMPDEST PUSH1 0x40 MLOAD DUP1 SWAP2 SUB SWAP1 RETURN JUMPDEST PUSH2 0xB8 PUSH1 0x4 DUP1 CALLDATASIZE SUB DUP2 ADD SWAP1 PUSH2 0xB3 SWAP2 SWAP1 PUSH2 0x84A JUMP JUMPDEST PUSH2 0x32A JUMP JUMPDEST STOP JUMPDEST PUSH2 0xC2 PUSH2 0x387 JUMP JUMPDEST STOP JUMPDEST PUSH2 0xCC PUSH2 0x396 JUMP JUMPDEST PUSH1 0x40 MLOAD PUSH2 0xD9 SWAP2 SWAP1 PUSH2 0x895 JUMP JUMPDEST PUSH1 0x40 MLOAD DUP1 SWAP2 SUB SWAP1 RETURN JUMPDEST PUSH2 0xFC PUSH1 0x4 DUP1 CALLDATASIZE SUB DUP2 ADD SWAP1 PUSH2 0xF7 SWAP2 SWAP1 PUSH2 0x8DF JUMP JUMPDEST PUSH2 0x446 JUMP JUMPDEST STOP JUMPDEST PUSH2 0x106 PUSH2 0x4CF JUMP JUMPDEST STOP JUMPDEST PUSH2 0x110 PUSH2 0x4DE JUMP JUMPDEST STOP JUMPDEST PUSH1 0x60 DUP1 PUSH0 DUP1 JUMPDEST PUSH1 0x1 DUP1 SLOAD SWAP1 POP DUP2 LT ISZERO PUSH2 0x169 JUMPI PUSH4 0x386D89D0 PUSH1 0x1 DUP3 DUP2 SLOAD DUP2 LT PUSH2 0x13E JUMPI PUSH2 0x13D PUSH2 0x90A JUMP JUMPDEST JUMPDEST SWAP1 PUSH0 MSTORE PUSH1 0x20 PUSH0 KECCAK256 ADD SLOAD GT ISZERO PUSH2 0x15C JUMPI DUP2 DUP1 PUSH2 0x158 SWAP1 PUSH2 0x964 JUMP JUMPDEST SWAP3 POP POP JUMPDEST DUP1 DUP1 PUSH1 0x1 ADD SWAP2 POP POP PUSH2 0x118 JUMP JUMPDEST POP PUSH0 DUP2 PUSH8 0xFFFFFFFFFFFFFFFF DUP2 GT ISZERO PUSH2 0x185 JUMPI PUSH2 0x184 PUSH2 0x9AB JUMP JUMPDEST JUMPDEST PUSH1 0x40 MLOAD SWAP1 DUP1 DUP3 MSTORE DUP1 PUSH1 0x20 MUL PUSH1 0x20 ADD DUP3 ADD PUSH1 0x40 MSTORE DUP1 ISZERO PUSH2 0x1B3 JUMPI DUP2 PUSH1 0x20 ADD PUSH1 0x20 DUP3 MUL DUP1 CALLDATASIZE DUP4 CALLDATACOPY DUP1 DUP3 ADD SWAP2 POP POP SWAP1 POP JUMPDEST POP SWAP1 POP PUSH0 DUP3 PUSH8 0xFFFFFFFFFFFFFFFF DUP2 GT ISZERO PUSH2 0x1D1 JUMPI PUSH2 0x1D0 PUSH2 0x9AB JUMP JUMPDEST JUMPDEST PUSH1 0x40 MLOAD SWAP1 DUP1 DUP3 MSTORE DUP1 PUSH1 0x20 MUL PUSH1 0x20 ADD DUP3 ADD PUSH1 0x40 MSTORE DUP1 ISZERO PUSH2 0x1FF JUMPI DUP2 PUSH1 0x20 ADD PUSH1 0x20 DUP3 MUL DUP1 CALLDATASIZE DUP4 CALLDATACOPY DUP1 DUP3 ADD SWAP2 POP POP SWAP1 POP JUMPDEST POP SWAP1 POP PUSH0 DUP1 JUMPDEST PUSH1 0x1 DUP1 SLOAD SWAP1 POP DUP2 LT ISZERO PUSH2 0x31B JUMPI PUSH4 0x386D89D0 PUSH1 0x1 DUP3 DUP2 SLOAD DUP2 LT PUSH2 0x22B JUMPI PUSH2 0x22A PUSH2 0x90A JUMP JUMPDEST JUMPDEST SWAP1 PUSH0 MSTORE PUSH1 0x20 PUSH0 KECCAK256 ADD SLOAD GT ISZERO PUSH2 0x30E JUMPI PUSH1 0x1 DUP2 DUP2 SLOAD DUP2 LT PUSH2 0x24E JUMPI PUSH2 0x24D PUSH2 0x90A JUMP JUMPDEST JUMPDEST SWAP1 PUSH0 MSTORE PUSH1 0x20 PUSH0 KECCAK256 ADD SLOAD DUP5 DUP4 DUP2 MLOAD DUP2 LT PUSH2 0x26A JUMPI PUSH2 0x269 PUSH2 0x90A JUMP JUMPDEST JUMPDEST PUSH1 0x20 MUL PUSH1 0x20 ADD ADD DUP2 DUP2 MSTORE POP POP PUSH1 0x2 DUP2 DUP2 SLOAD DUP2 LT PUSH2 0x28A JUMPI PUSH2 0x289 PUSH2 0x90A JUMP JUMPDEST JUMPDEST SWAP1 PUSH0 MSTORE PUSH1 0x20 PUSH0 KECCAK256 ADD PUSH0 SWAP1 SLOAD SWAP1 PUSH2 0x100 EXP SWAP1 DIV PUSH20 0xFFFFFFFFFFFFFFFFFFFFFFFFFFFFFFFFFFFFFFFF AND DUP4 DUP4 DUP2 MLOAD DUP2 LT PUSH2 0x2C5 JUMPI PUSH2 0x2C4 PUSH2 0x90A JUMP JUMPDEST JUMPDEST PUSH1 0x20 MUL PUSH1 0x20 ADD ADD SWAP1 PUSH20 0xFFFFFFFFFFFFFFFFFFFFFFFFFFFFFFFFFFFFFFFF AND SWAP1 DUP2 PUSH20 0xFFFFFFFFFFFFFFFFFFFFFFFFFFFFFFFFFFFFFFFF AND DUP2 MSTORE POP POP DUP2 DUP1 PUSH2 0x30A SWAP1 PUSH2 0x964 JUMP JUMPDEST SWAP3 POP POP JUMPDEST DUP1 DUP1 PUSH1 0x1 ADD SWAP2 POP POP PUSH2 0x205 JUMP JUMPDEST POP DUP3 DUP3 SWAP6 POP SWAP6 POP POP POP POP POP SWAP1 SWAP2 JUMP JUMPDEST PUSH0 JUMPDEST DUP3 DUP3 SWAP1 POP DUP2 LT ISZERO PUSH2 0x382 JUMPI PUSH0 DUP4 DUP4 DUP4 DUP2 DUP2 LT PUSH2 0x34B JUMPI PUSH2 0x34A PUSH2 0x90A JUMP JUMPDEST JUMPDEST SWAP1 POP PUSH1 0x20 MUL ADD CALLDATALOAD SWAP1 DUP1 PUSH1 0x1 DUP2 SLOAD ADD DUP1 DUP3 SSTORE DUP1 SWAP2 POP POP PUSH1 0x1 SWAP1 SUB SWAP1 PUSH0 MSTORE PUSH1 0x20 PUSH0 KECCAK256 ADD PUSH0 SWAP1 SWAP2 SWAP1 SWAP2 SWAP1 SWAP2 POP SSTORE DUP1 DUP1 PUSH1 0x1 ADD SWAP2 POP POP PUSH2 0x32C JUMP JUMPDEST POP POP POP JUMP JUMPDEST PUSH1 0x2 PUSH0 PUSH2 0x394 SWAP2 SWAP1 PUSH2 0x55E JUMP JUMPDEST JUMP JUMPDEST PUSH1 0x60 PUSH0 DUP1 DUP1 SLOAD SWAP1 POP PUSH8 0xFFFFFFFFFFFFFFFF DUP2 GT ISZERO PUSH2 0x3B7 JUMPI PUSH2 0x3B6 PUSH2 0x9AB JUMP JUMPDEST JUMPDEST PUSH1 0x40 MLOAD SWAP1 DUP1 DUP3 MSTORE DUP1 PUSH1 0x20 MUL PUSH1 0x20 ADD DUP3 ADD PUSH1 0x40 MSTORE DUP1 ISZERO PUSH2 0x3E5 JUMPI DUP2 PUSH1 0x20 ADD PUSH1 0x20 DUP3 MUL DUP1 CALLDATASIZE DUP4 CALLDATACOPY DUP1 DUP3 ADD SWAP2 POP POP SWAP1 POP JUMPDEST POP SWAP1 POP PUSH0 JUMPDEST PUSH0 DUP1 SLOAD SWAP1 POP DUP2 LT ISZERO PUSH2 0x43E JUMPI PUSH0 DUP2 DUP2 SLOAD DUP2 LT PUSH2 0x409 JUMPI PUSH2 0x408 PUSH2 0x90A JUMP JUMPDEST JUMPDEST SWAP1 PUSH0 MSTORE PUSH1 0x20 PUSH0 KECCAK256 ADD SLOAD DUP3 DUP3 DUP2 MLOAD DUP2 LT PUSH2 0x425 JUMPI PUSH2 0x424 PUSH2 0x90A JUMP JUMPDEST JUMPDEST PUSH1 0x20 MUL PUSH1 0x20 ADD ADD DUP2 DUP2 MSTORE POP POP DUP1 DUP1 PUSH1 0x1 ADD SWAP2 POP POP PUSH2 0x3EA JUMP JUMPDEST POP DUP1 SWAP2 POP POP SWAP1 JUMP JUMPDEST PUSH1 0x1 DUP2 SWAP1 DUP1 PUSH1 0x1 DUP2 SLOAD ADD DUP1 DUP3 SSTORE DUP1 SWAP2 POP POP PUSH1 0x1 SWAP1 SUB SWAP1 PUSH0 MSTORE PUSH1 0x20 PUSH0 KECCAK256 ADD PUSH0 SWAP1 SWAP2 SWAP1 SWAP2 SWAP1 SWAP2 POP SSTORE PUSH1 0x2 CALLER SWAP1 DUP1 PUSH1 0x1 DUP2 SLOAD ADD DUP1 DUP3 SSTORE DUP1 SWAP2 POP POP PUSH1 0x1 SWAP1 SUB SWAP1 PUSH0 MSTORE PUSH1 0x20 PUSH0 KECCAK256 ADD PUSH0 SWAP1 SWAP2 SWAP1 SWAP2 SWAP1 SWAP2 PUSH2 0x100 EXP DUP2 SLOAD DUP2 PUSH20 0xFFFFFFFFFFFFFFFFFFFFFFFFFFFFFFFFFFFFFFFF MUL NOT AND SWAP1 DUP4 PUSH20 0xFFFFFFFFFFFFFFFFFFFFFFFFFFFFFFFFFFFFFFFF AND MUL OR SWAP1 SSTORE POP POP JUMP JUMPDEST PUSH1 0x1 PUSH0 PUSH2 0x4DC SWAP2 SWAP1 PUSH2 0x57C JUMP JUMPDEST JUMP JUMPDEST PUSH1 0x40 MLOAD DUP1 PUSH2 0x140 ADD PUSH1 0x40 MSTORE DUP1 PUSH1 0x1 PUSH1 0xFF AND DUP2 MSTORE PUSH1 0x20 ADD PUSH1 0x2 PUSH1 0xFF AND DUP2 MSTORE PUSH1 0x20 ADD PUSH1 0x3 PUSH1 0xFF AND DUP2 MSTORE PUSH1 0x20 ADD PUSH1 0x4 PUSH1 0xFF AND DUP2 MSTORE PUSH1 0x20 ADD PUSH1 0x5 PUSH1 0xFF AND DUP2 MSTORE PUSH1 0x20 ADD PUSH1 0x6 PUSH1 0xFF AND DUP2 MSTORE PUSH1 0x20 ADD PUSH1 0x7 PUSH1 0xFF AND DUP2 MSTORE PUSH1 0x20 ADD PUSH1 0x8 PUSH1 0xFF AND DUP2 MSTORE PUSH1 0x20 ADD PUSH1 0x9 PUSH1 0xFF AND DUP2 MSTORE PUSH1 0x20 ADD PUSH1 0xA PUSH1 0xFF AND DUP2 MSTORE POP PUSH0 SWAP1 PUSH1 0xA PUSH2 0x55B SWAP3 SWAP2 SWAP1 PUSH2 0x59A JUMP JUMPDEST POP JUMP JUMPDEST POP DUP1 SLOAD PUSH0 DUP3 SSTORE SWAP1 PUSH0 MSTORE PUSH1 0x20 PUSH0 KECCAK256 SWAP1 DUP2 ADD SWAP1 PUSH2 0x579 SWAP2 SWAP1 PUSH2 0x5EA JUMP JUMPDEST POP JUMP JUMPDEST POP DUP1 SLOAD PUSH0 DUP3 SSTORE SWAP1 PUSH0 MSTORE PUSH1 0x20 PUSH0 KECCAK256 SWAP1 DUP2 ADD SWAP1 PUSH2 0x597 SWAP2 SWAP1 PUSH2 0x5EA JUMP JUMPDEST POP JUMP JUMPDEST DUP3 DUP1 SLOAD DUP3 DUP3 SSTORE SWAP1 PUSH0 MSTORE PUSH1 0x20 PUSH0 KECCAK256 SWAP1 DUP2 ADD SWAP3 DUP3 ISZERO PUSH2 0x5D9 JUMPI SWAP2 PUSH1 0x20 MUL DUP3 ADD JUMPDEST DUP3 DUP2 GT ISZERO PUSH2 0x5D8 JUMPI DUP3 MLOAD DUP3 SWAP1 PUSH1 0xFF AND SWAP1 SSTORE SWAP2 PUSH1 0x20 ADD SWAP2 SWAP1 PUSH1 0x1 ADD SWAP1 PUSH2 0x5B8 JUMP JUMPDEST JUMPDEST POP SWAP1 POP PUSH2 0x5E6 SWAP2 SWAP1 PUSH2 0x5EA JUMP JUMPDEST POP SWAP1 JUMP JUMPDEST JUMPDEST DUP1 DUP3 GT ISZERO PUSH2 0x601 JUMPI PUSH0 DUP2 PUSH0 SWAP1 SSTORE POP PUSH1 0x1 ADD PUSH2 0x5EB JUMP JUMPDEST POP SWAP1 JUMP JUMPDEST PUSH0 DUP2 MLOAD SWAP1 POP SWAP2 SWAP1 POP JUMP JUMPDEST PUSH0 DUP3 DUP3 MSTORE PUSH1 0x20 DUP3 ADD SWAP1 POP SWAP3 SWAP2 POP POP JUMP JUMPDEST PUSH0 DUP2 SWAP1 POP PUSH1 0x20 DUP3 ADD SWAP1 POP SWAP2 SWAP1 POP JUMP JUMPDEST PUSH0 DUP2 SWAP1 POP SWAP2 SWAP1 POP JUMP JUMPDEST PUSH2 0x640 DUP2 PUSH2 0x62E JUMP JUMPDEST DUP3 MSTORE POP POP JUMP JUMPDEST PUSH0 PUSH2 0x651 DUP4 DUP4 PUSH2 0x637 JUMP JUMPDEST PUSH1 0x20 DUP4 ADD SWAP1 POP SWAP3 SWAP2 POP POP JUMP JUMPDEST PUSH0 PUSH1 0x20 DUP3 ADD SWAP1 POP SWAP2 SWAP1 POP JUMP JUMPDEST PUSH0 PUSH2 0x673 DUP3 PUSH2 0x605 JUMP JUMPDEST PUSH2 0x67D DUP2 DUP6 PUSH2 0x60F JUMP JUMPDEST SWAP4 POP PUSH2 0x688 DUP4 PUSH2 0x61F JUMP JUMPDEST DUP1 PUSH0 JUMPDEST DUP4 DUP2 LT ISZERO PUSH2 0x6B8 JUMPI DUP2 MLOAD PUSH2 0x69F DUP9 DUP3 PUSH2 0x646 JUMP JUMPDEST SWAP8 POP PUSH2 0x6AA DUP4 PUSH2 0x65D JUMP JUMPDEST SWAP3 POP POP PUSH1 0x1 DUP2 ADD SWAP1 POP PUSH2 0x68B JUMP JUMPDEST POP DUP6 SWAP4 POP POP POP POP SWAP3 SWAP2 POP POP JUMP JUMPDEST PUSH0 DUP2 MLOAD SWAP1 POP SWAP2 SWAP1 POP JUMP JUMPDEST PUSH0 DUP3 DUP3 MSTORE PUSH1 0x20 DUP3 ADD SWAP1 POP SWAP3 SWAP2 POP POP JUMP JUMPDEST PUSH0 DUP2 SWAP1 POP PUSH1 0x20 DUP3 ADD SWAP1 POP SWAP2 SWAP1 POP JUMP JUMPDEST PUSH0 PUSH20 0xFFFFFFFFFFFFFFFFFFFFFFFFFFFFFFFFFFFFFFFF DUP3 AND SWAP1 POP SWAP2 SWAP1 POP JUMP JUMPDEST PUSH0 PUSH2 0x717 DUP3 PUSH2 0x6EE JUMP JUMPDEST SWAP1 POP SWAP2 SWAP1 POP JUMP JUMPDEST PUSH2 0x727 DUP2 PUSH2 0x70D JUMP JUMPDEST DUP3 MSTORE POP POP JUMP JUMPDEST PUSH0 PUSH2 0x738 DUP4 DUP4 PUSH2 0x71E JUMP JUMPDEST PUSH1 0x20 DUP4 ADD SWAP1 POP SWAP3 SWAP2 POP POP JUMP JUMPDEST PUSH0 PUSH1 0x20 DUP3 ADD SWAP1 POP SWAP2 SWAP1 POP JUMP JUMPDEST PUSH0 PUSH2 0x75A DUP3 PUSH2 0x6C5 JUMP JUMPDEST PUSH2 0x764 DUP2 DUP6 PUSH2 0x6CF JUMP JUMPDEST SWAP4 POP PUSH2 0x76F DUP4 PUSH2 0x6DF JUMP JUMPDEST DUP1 PUSH0 JUMPDEST DUP4 DUP2 LT ISZERO PUSH2 0x79F JUMPI DUP2 MLOAD PUSH2 0x786 DUP9 DUP3 PUSH2 0x72D JUMP JUMPDEST SWAP8 POP PUSH2 0x791 DUP4 PUSH2 0x744 JUMP JUMPDEST SWAP3 POP POP PUSH1 0x1 DUP2 ADD SWAP1 POP PUSH2 0x772 JUMP JUMPDEST POP DUP6 SWAP4 POP POP POP POP SWAP3 SWAP2 POP POP JUMP JUMPDEST PUSH0 PUSH1 0x40 DUP3 ADD SWAP1 POP DUP2 DUP2 SUB PUSH0 DUP4 ADD MSTORE PUSH2 0x7C4 DUP2 DUP6 PUSH2 0x669 JUMP JUMPDEST SWAP1 POP DUP2 DUP2 SUB PUSH1 0x20 DUP4 ADD MSTORE PUSH2 0x7D8 DUP2 DUP5 PUSH2 0x750 JUMP JUMPDEST SWAP1 POP SWAP4 SWAP3 POP POP POP JUMP JUMPDEST PUSH0 DUP1 REVERT JUMPDEST PUSH0 DUP1 REVERT JUMPDEST PUSH0 DUP1 REVERT JUMPDEST PUSH0 DUP1 REVERT JUMPDEST PUSH0 DUP1 REVERT JUMPDEST PUSH0 DUP1 DUP4 PUSH1 0x1F DUP5 ADD SLT PUSH2 0x80A JUMPI PUSH2 0x809 PUSH2 0x7E9 JUMP JUMPDEST JUMPDEST DUP3 CALLDATALOAD SWAP1 POP PUSH8 0xFFFFFFFFFFFFFFFF DUP2 GT ISZERO PUSH2 0x827 JUMPI PUSH2 0x826 PUSH2 0x7ED JUMP JUMPDEST JUMPDEST PUSH1 0x20 DUP4 ADD SWAP2 POP DUP4 PUSH1 0x20 DUP3 MUL DUP4 ADD GT ISZERO PUSH2 0x843 JUMPI PUSH2 0x842 PUSH2 0x7F1 JUMP JUMPDEST JUMPDEST SWAP3 POP SWAP3 SWAP1 POP JUMP JUMPDEST PUSH0 DUP1 PUSH1 0x20 DUP4 DUP6 SUB SLT ISZERO PUSH2 0x860 JUMPI PUSH2 0x85F PUSH2 0x7E1 JUMP JUMPDEST JUMPDEST PUSH0 DUP4 ADD CALLDATALOAD PUSH8 0xFFFFFFFFFFFFFFFF DUP2 GT ISZERO PUSH2 0x87D JUMPI PUSH2 0x87C PUSH2 0x7E5 JUMP JUMPDEST JUMPDEST PUSH2 0x889 DUP6 DUP3 DUP7 ADD PUSH2 0x7F5 JUMP JUMPDEST SWAP3 POP SWAP3 POP POP SWAP3 POP SWAP3 SWAP1 POP JUMP JUMPDEST PUSH0 PUSH1 0x20 DUP3 ADD SWAP1 POP DUP2 DUP2 SUB PUSH0 DUP4 ADD MSTORE PUSH2 0x8AD DUP2 DUP5 PUSH2 0x669 JUMP JUMPDEST SWAP1 POP SWAP3 SWAP2 POP POP JUMP JUMPDEST PUSH2 0x8BE DUP2 PUSH2 0x62E JUMP JUMPDEST DUP2 EQ PUSH2 0x8C8 JUMPI PUSH0 DUP1 REVERT JUMPDEST POP JUMP JUMPDEST PUSH0 DUP2 CALLDATALOAD SWAP1 POP PUSH2 0x8D9 DUP2 PUSH2 0x8B5 JUMP JUMPDEST SWAP3 SWAP2 POP POP JUMP JUMPDEST PUSH0 PUSH1 0x20 DUP3 DUP5 SUB SLT ISZERO PUSH2 0x8F4 JUMPI PUSH2 0x8F3 PUSH2 0x7E1 JUMP JUMPDEST JUMPDEST PUSH0 PUSH2 0x901 DUP5 DUP3 DUP6 ADD PUSH2 0x8CB JUMP JUMPDEST SWAP2 POP POP SWAP3 SWAP2 POP POP JUMP JUMPDEST PUSH32 0x4E487B7100000000000000000000000000000000000000000000000000000000 PUSH0 MSTORE PUSH1 0x32 PUSH1 0x4 MSTORE PUSH1 0x24 PUSH0 REVERT JUMPDEST PUSH32 0x4E487B7100000000000000000000000000000000000000000000000000000000 PUSH0 MSTORE PUSH1 0x11 PUSH1 0x4 MSTORE PUSH1 0x24 PUSH0 REVERT JUMPDEST PUSH0 PUSH2 0x96E DUP3 PUSH2 0x62E JUMP JUMPDEST SWAP2 POP PUSH32 0xFFFFFFFFFFFFFFFFFFFFFFFFFFFFFFFFFFFFFFFFFFFFFFFFFFFFFFFFFFFFFFFF DUP3 SUB PUSH2 0x9A0 JUMPI PUSH2 0x99F PUSH2 0x937 JUMP JUMPDEST JUMPDEST PUSH1 0x1 DUP3 ADD SWAP1 POP SWAP2 SWAP1 POP JUMP JUMPDEST PUSH32 0x4E487B7100000000000000000000000000000000000000000000000000000000 PUSH0 MSTORE PUSH1 0x41 PUSH1 0x4 MSTORE PUSH1 0x24 PUSH0 REVERT INVALID LOG2 PUSH5 0x6970667358 0x22 SLT KECCAK256 0xDB 0xB6 0x4C PREVRANDAO SWAP3 0xA7 BLOBHASH GASPRICE TIMESTAMP 0xE2 0xC4 0xE5 LOG4 0xAB 0x2D DUP16 GASPRICE 0xED PUSH1 0x52 DUP16 PUSH9 0x8D46FD0C344C4A3742 PC PUSH5 0x736F6C6343 STOP ADDMOD BYTE STOP CALLER "
		},
		"gasEstimates": {
			"creation": {
				"codeDepositCost": "514800",
				"executionCost": "infinite",
				"totalCost": "infinite"
			},
			"external": {
				"afterY2K()": "infinite",
				"appendToNumbers(uint256[])": "infinite",
				"getNumbers()": "infinite",
				"resetNumbers()": "infinite",
				"resetSenders()": "infinite",
				"resetTimestamps()": "infinite",
				"saveTimestamp(uint256)": "95418"
			}
		},
		"methodIdentifiers": {
			"afterY2K()": "20aaf79a",
			"appendToNumbers(uint256[])": "4f9377db",
			"getNumbers()": "89f915f6",
			"resetNumbers()": "b1cebac5",
			"resetSenders()": "7f66b1b8",
			"resetTimestamps()": "ade82bfd",
			"saveTimestamp(uint256)": "a00b7acd"
		}
	},
	"abi": [
		{
			"inputs": [],
			"name": "afterY2K",
			"outputs": [
				{
					"internalType": "uint256[]",
					"name": "",
					"type": "uint256[]"
				},
				{
					"internalType": "address[]",
					"name": "",
					"type": "address[]"
				}
			],
			"stateMutability": "view",
			"type": "function"
		},
		{
			"inputs": [
				{
					"internalType": "uint256[]",
					"name": "_toAppend",
					"type": "uint256[]"
				}
			],
			"name": "appendToNumbers",
			"outputs": [],
			"stateMutability": "nonpayable",
			"type": "function"
		},
		{
			"inputs": [],
			"name": "getNumbers",
			"outputs": [
				{
					"internalType": "uint256[]",
					"name": "",
					"type": "uint256[]"
				}
			],
			"stateMutability": "view",
			"type": "function"
		},
		{
			"inputs": [],
			"name": "resetNumbers",
			"outputs": [],
			"stateMutability": "nonpayable",
			"type": "function"
		},
		{
			"inputs": [],
			"name": "resetSenders",
			"outputs": [],
			"stateMutability": "nonpayable",
			"type": "function"
		},
		{
			"inputs": [],
			"name": "resetTimestamps",
			"outputs": [],
			"stateMutability": "nonpayable",
			"type": "function"
		},
		{
			"inputs": [
				{
					"internalType": "uint256",
					"name": "_unixTimestamp",
					"type": "uint256"
				}
			],
			"name": "saveTimestamp",
			"outputs": [],
			"stateMutability": "nonpayable",
			"type": "function"
		}
	]
}