{
	"data": {
		"bytecode": {
			"linkReferences": {},
			"object": "608060405234801561001057600080fd5b506102c7806100206000396000f3fe608060405234801561001057600080fd5b50600436106100365760003560e01c806306b034e91461003b5780635270312a1461006c575b600080fd5b61005560048036038101906100509190610167565b61009d565b6040516100639291906101d1565b60405180910390f35b61008660048036038101906100819190610167565b6100fa565b6040516100949291906101d1565b60405180910390f35b600080827fffffffffffffffffffffffffffffffffffffffffffffffffffffffffffffffff6100cc9190610229565b8411156100e05760006001915091506100f3565b82846100ec919061025d565b6000915091505b9250929050565b60008083831115610112576000600191509150610125565b828461011e9190610229565b6000915091505b9250929050565b600080fd5b6000819050919050565b61014481610131565b811461014f57600080fd5b50565b6000813590506101618161013b565b92915050565b6000806040838503121561017e5761017d61012c565b5b600061018c85828601610152565b925050602061019d85828601610152565b9150509250929050565b6101b081610131565b82525050565b60008115159050919050565b6101cb816101b6565b82525050565b60006040820190506101e660008301856101a7565b6101f360208301846101c2565b9392505050565b7f4e487b7100000000000000000000000000000000000000000000000000000000600052601160045260246000fd5b600061023482610131565b915061023f83610131565b9250828203905081811115610257576102566101fa565b5b92915050565b600061026882610131565b915061027383610131565b925082820190508082111561028b5761028a6101fa565b5b9291505056fea2646970667358221220ac7216b22316188b453928a804241d228e2470ac28bc324cc1892b11dd857f4f64736f6c63430008110033",
			"opcodes": "PUSH1 0x80 PUSH1 0x40 MSTORE CALLVALUE DUP1 ISZERO PUSH2 0x10 JUMPI PUSH1 0x0 DUP1 REVERT JUMPDEST POP PUSH2 0x2C7 DUP1 PUSH2 0x20 PUSH1 0x0 CODECOPY PUSH1 0x0 RETURN INVALID PUSH1 0x80 PUSH1 0x40 MSTORE CALLVALUE DUP1 ISZERO PUSH2 0x10 JUMPI PUSH1 0x0 DUP1 REVERT JUMPDEST POP PUSH1 0x4 CALLDATASIZE LT PUSH2 0x36 JUMPI PUSH1 0x0 CALLDATALOAD PUSH1 0xE0 SHR DUP1 PUSH4 0x6B034E9 EQ PUSH2 0x3B JUMPI DUP1 PUSH4 0x5270312A EQ PUSH2 0x6C JUMPI JUMPDEST PUSH1 0x0 DUP1 REVERT JUMPDEST PUSH2 0x55 PUSH1 0x4 DUP1 CALLDATASIZE SUB DUP2 ADD SWAP1 PUSH2 0x50 SWAP2 SWAP1 PUSH2 0x167 JUMP JUMPDEST PUSH2 0x9D JUMP JUMPDEST PUSH1 0x40 MLOAD PUSH2 0x63 SWAP3 SWAP2 SWAP1 PUSH2 0x1D1 JUMP JUMPDEST PUSH1 0x40 MLOAD DUP1 SWAP2 SUB SWAP1 RETURN JUMPDEST PUSH2 0x86 PUSH1 0x4 DUP1 CALLDATASIZE SUB DUP2 ADD SWAP1 PUSH2 0x81 SWAP2 SWAP1 PUSH2 0x167 JUMP JUMPDEST PUSH2 0xFA JUMP JUMPDEST PUSH1 0x40 MLOAD PUSH2 0x94 SWAP3 SWAP2 SWAP1 PUSH2 0x1D1 JUMP JUMPDEST PUSH1 0x40 MLOAD DUP1 SWAP2 SUB SWAP1 RETURN JUMPDEST PUSH1 0x0 DUP1 DUP3 PUSH32 0xFFFFFFFFFFFFFFFFFFFFFFFFFFFFFFFFFFFFFFFFFFFFFFFFFFFFFFFFFFFFFFFF PUSH2 0xCC SWAP2 SWAP1 PUSH2 0x229 JUMP JUMPDEST DUP5 GT ISZERO PUSH2 0xE0 JUMPI PUSH1 0x0 PUSH1 0x1 SWAP2 POP SWAP2 POP PUSH2 0xF3 JUMP JUMPDEST DUP3 DUP5 PUSH2 0xEC SWAP2 SWAP1 PUSH2 0x25D JUMP JUMPDEST PUSH1 0x0 SWAP2 POP SWAP2 POP JUMPDEST SWAP3 POP SWAP3 SWAP1 POP JUMP JUMPDEST PUSH1 0x0 DUP1 DUP4 DUP4 GT ISZERO PUSH2 0x112 JUMPI PUSH1 0x0 PUSH1 0x1 SWAP2 POP SWAP2 POP PUSH2 0x125 JUMP JUMPDEST DUP3 DUP5 PUSH2 0x11E SWAP2 SWAP1 PUSH2 0x229 JUMP JUMPDEST PUSH1 0x0 SWAP2 POP SWAP2 POP JUMPDEST SWAP3 POP SWAP3 SWAP1 POP JUMP JUMPDEST PUSH1 0x0 DUP1 REVERT JUMPDEST PUSH1 0x0 DUP2 SWAP1 POP SWAP2 SWAP1 POP JUMP JUMPDEST PUSH2 0x144 DUP2 PUSH2 0x131 JUMP JUMPDEST DUP2 EQ PUSH2 0x14F JUMPI PUSH1 0x0 DUP1 REVERT JUMPDEST POP JUMP JUMPDEST PUSH1 0x0 DUP2 CALLDATALOAD SWAP1 POP PUSH2 0x161 DUP2 PUSH2 0x13B JUMP JUMPDEST SWAP3 SWAP2 POP POP JUMP JUMPDEST PUSH1 0x0 DUP1 PUSH1 0x40 DUP4 DUP6 SUB SLT ISZERO PUSH2 0x17E JUMPI PUSH2 0x17D PUSH2 0x12C JUMP JUMPDEST JUMPDEST PUSH1 0x0 PUSH2 0x18C DUP6 DUP3 DUP7 ADD PUSH2 0x152 JUMP JUMPDEST SWAP3 POP POP PUSH1 0x20 PUSH2 0x19D DUP6 DUP3 DUP7 ADD PUSH2 0x152 JUMP JUMPDEST SWAP2 POP POP SWAP3 POP SWAP3 SWAP1 POP JUMP JUMPDEST PUSH2 0x1B0 DUP2 PUSH2 0x131 JUMP JUMPDEST DUP3 MSTORE POP POP JUMP JUMPDEST PUSH1 0x0 DUP2 ISZERO ISZERO SWAP1 POP SWAP2 SWAP1 POP JUMP JUMPDEST PUSH2 0x1CB DUP2 PUSH2 0x1B6 JUMP JUMPDEST DUP3 MSTORE POP POP JUMP JUMPDEST PUSH1 0x0 PUSH1 0x40 DUP3 ADD SWAP1 POP PUSH2 0x1E6 PUSH1 0x0 DUP4 ADD DUP6 PUSH2 0x1A7 JUMP JUMPDEST PUSH2 0x1F3 PUSH1 0x20 DUP4 ADD DUP5 PUSH2 0x1C2 JUMP JUMPDEST SWAP4 SWAP3 POP POP POP JUMP JUMPDEST PUSH32 0x4E487B7100000000000000000000000000000000000000000000000000000000 PUSH1 0x0 MSTORE PUSH1 0x11 PUSH1 0x4 MSTORE PUSH1 0x24 PUSH1 0x0 REVERT JUMPDEST PUSH1 0x0 PUSH2 0x234 DUP3 PUSH2 0x131 JUMP JUMPDEST SWAP2 POP PUSH2 0x23F DUP4 PUSH2 0x131 JUMP JUMPDEST SWAP3 POP DUP3 DUP3 SUB SWAP1 POP DUP2 DUP2 GT ISZERO PUSH2 0x257 JUMPI PUSH2 0x256 PUSH2 0x1FA JUMP JUMPDEST JUMPDEST SWAP3 SWAP2 POP POP JUMP JUMPDEST PUSH1 0x0 PUSH2 0x268 DUP3 PUSH2 0x131 JUMP JUMPDEST SWAP2 POP PUSH2 0x273 DUP4 PUSH2 0x131 JUMP JUMPDEST SWAP3 POP DUP3 DUP3 ADD SWAP1 POP DUP1 DUP3 GT ISZERO PUSH2 0x28B JUMPI PUSH2 0x28A PUSH2 0x1FA JUMP JUMPDEST JUMPDEST SWAP3 SWAP2 POP POP JUMP INVALID LOG2 PUSH5 0x6970667358 0x22 SLT KECCAK256 0xAC PUSH19 0x16B22316188B453928A804241D228E2470AC28 0xBC ORIGIN 0x4C 0xC1 DUP10 0x2B GT 0xDD DUP6 PUSH32 0x4F64736F6C634300081100330000000000000000000000000000000000000000 "
		},
		"gasEstimates": {
			"creation": {
				"codeDepositCost": "142200",
				"executionCost": "190",
				"totalCost": "142390"
			},
			"external": {
				"adder(uint256,uint256)": "infinite",
				"subtractor(uint256,uint256)": "infinite"
			}
		},
		"methodIdentifiers": {
			"adder(uint256,uint256)": "06b034e9",
			"subtractor(uint256,uint256)": "5270312a"
		}
	},
	"abi": [
		{
			"inputs": [
				{
					"internalType": "uint256",
					"name": "_a",
					"type": "uint256"
				},
				{
					"internalType": "uint256",
					"name": "_b",
					"type": "uint256"
				}
			],
			"name": "adder",
			"outputs": [
				{
					"internalType": "uint256",
					"name": "sum",
					"type": "uint256"
				},
				{
					"internalType": "bool",
					"name": "error",
					"type": "bool"
				}
			],
			"stateMutability": "pure",
			"type": "function"
		},
		{
			"inputs": [
				{
					"internalType": "uint256",
					"name": "_a",
					"type": "uint256"
				},
				{
					"internalType": "uint256",
					"name": "_b",
					"type": "uint256"
				}
			],
			"name": "subtractor",
			"outputs": [
				{
					"internalType": "uint256",
					"name": "difference",
					"type": "uint256"
				},
				{
					"internalType": "bool",
					"name": "error",
					"type": "bool"
				}
			],
			"stateMutability": "pure",
			"type": "function"
		}
	]
}