{
	"data": {
		"bytecode": {
			"linkReferences": {},
			"object": "608060405234801561001057600080fd5b506105aa806100206000396000f3fe608060405234801561001057600080fd5b50600436106100365760003560e01c8063440c93e21461003b578063e655b7bb1461006b575b600080fd5b610055600480360381019061005091906103dc565b61009b565b6040516100629190610499565b60405180910390f35b610085600480360381019061008091906103dc565b6101e7565b6040516100929190610499565b60405180910390f35b606060006003836100ac91906104ea565b1480156100c5575060006005836100c391906104ea565b145b15610107576040518060400160405280600881526020017f46697a7a42757a7a00000000000000000000000000000000000000000000000081525090506101e2565b600060038361011691906104ea565b03610158576040518060400160405280600481526020017f46697a7a0000000000000000000000000000000000000000000000000000000081525090506101e2565b600060058361016791906104ea565b036101a9576040518060400160405280600481526020017f42757a7a0000000000000000000000000000000000000000000000000000000081525090506101e2565b6040518060400160405280600581526020017f53706c617400000000000000000000000000000000000000000000000000000081525090505b919050565b606061096082106101fb576101fa61051b565b5b61089882118061020c575061032082105b1561024e57816040517fa4bf701e0000000000000000000000000000000000000000000000000000000081526004016102459190610559565b60405180910390fd5b6104b0821015801561026257506105138211155b15610299576040517f08a3648800000000000000000000000000000000000000000000000000000000815260040160405180910390fd5b61032082101580156102ad57506104af8211155b156102ef576040518060400160405280600881526020017f4d6f726e696e6721000000000000000000000000000000000000000000000000815250905061039c565b610514821015801561030357506107078211155b15610345576040518060400160405280600a81526020017f41667465726e6f6f6e2100000000000000000000000000000000000000000000815250905061039c565b610708821015801561035957506108988211155b1561039b576040518060400160405280600881526020017f4576656e696e6721000000000000000000000000000000000000000000000000815250905061039c565b5b919050565b600080fd5b6000819050919050565b6103b9816103a6565b81146103c457600080fd5b50565b6000813590506103d6816103b0565b92915050565b6000602082840312156103f2576103f16103a1565b5b6000610400848285016103c7565b91505092915050565b600081519050919050565b600082825260208201905092915050565b60005b83811015610443578082015181840152602081019050610428565b60008484015250505050565b6000601f19601f8301169050919050565b600061046b82610409565b6104758185610414565b9350610485818560208601610425565b61048e8161044f565b840191505092915050565b600060208201905081810360008301526104b38184610460565b905092915050565b7f4e487b7100000000000000000000000000000000000000000000000000000000600052601260045260246000fd5b60006104f5826103a6565b9150610500836103a6565b9250826105105761050f6104bb565b5b828206905092915050565b7f4e487b7100000000000000000000000000000000000000000000000000000000600052600160045260246000fd5b610553816103a6565b82525050565b600060208201905061056e600083018461054a565b9291505056fea2646970667358221220946dfce6c32992cf661d7ea2da7174ae1213dd23eb1c24491192ba7c25f0485d64736f6c63430008110033",
			"opcodes": "PUSH1 0x80 PUSH1 0x40 MSTORE CALLVALUE DUP1 ISZERO PUSH2 0x10 JUMPI PUSH1 0x0 DUP1 REVERT JUMPDEST POP PUSH2 0x5AA DUP1 PUSH2 0x20 PUSH1 0x0 CODECOPY PUSH1 0x0 RETURN INVALID PUSH1 0x80 PUSH1 0x40 MSTORE CALLVALUE DUP1 ISZERO PUSH2 0x10 JUMPI PUSH1 0x0 DUP1 REVERT JUMPDEST POP PUSH1 0x4 CALLDATASIZE LT PUSH2 0x36 JUMPI PUSH1 0x0 CALLDATALOAD PUSH1 0xE0 SHR DUP1 PUSH4 0x440C93E2 EQ PUSH2 0x3B JUMPI DUP1 PUSH4 0xE655B7BB EQ PUSH2 0x6B JUMPI JUMPDEST PUSH1 0x0 DUP1 REVERT JUMPDEST PUSH2 0x55 PUSH1 0x4 DUP1 CALLDATASIZE SUB DUP2 ADD SWAP1 PUSH2 0x50 SWAP2 SWAP1 PUSH2 0x3DC JUMP JUMPDEST PUSH2 0x9B JUMP JUMPDEST PUSH1 0x40 MLOAD PUSH2 0x62 SWAP2 SWAP1 PUSH2 0x499 JUMP JUMPDEST PUSH1 0x40 MLOAD DUP1 SWAP2 SUB SWAP1 RETURN JUMPDEST PUSH2 0x85 PUSH1 0x4 DUP1 CALLDATASIZE SUB DUP2 ADD SWAP1 PUSH2 0x80 SWAP2 SWAP1 PUSH2 0x3DC JUMP JUMPDEST PUSH2 0x1E7 JUMP JUMPDEST PUSH1 0x40 MLOAD PUSH2 0x92 SWAP2 SWAP1 PUSH2 0x499 JUMP JUMPDEST PUSH1 0x40 MLOAD DUP1 SWAP2 SUB SWAP1 RETURN JUMPDEST PUSH1 0x60 PUSH1 0x0 PUSH1 0x3 DUP4 PUSH2 0xAC SWAP2 SWAP1 PUSH2 0x4EA JUMP JUMPDEST EQ DUP1 ISZERO PUSH2 0xC5 JUMPI POP PUSH1 0x0 PUSH1 0x5 DUP4 PUSH2 0xC3 SWAP2 SWAP1 PUSH2 0x4EA JUMP JUMPDEST EQ JUMPDEST ISZERO PUSH2 0x107 JUMPI PUSH1 0x40 MLOAD DUP1 PUSH1 0x40 ADD PUSH1 0x40 MSTORE DUP1 PUSH1 0x8 DUP2 MSTORE PUSH1 0x20 ADD PUSH32 0x46697A7A42757A7A000000000000000000000000000000000000000000000000 DUP2 MSTORE POP SWAP1 POP PUSH2 0x1E2 JUMP JUMPDEST PUSH1 0x0 PUSH1 0x3 DUP4 PUSH2 0x116 SWAP2 SWAP1 PUSH2 0x4EA JUMP JUMPDEST SUB PUSH2 0x158 JUMPI PUSH1 0x40 MLOAD DUP1 PUSH1 0x40 ADD PUSH1 0x40 MSTORE DUP1 PUSH1 0x4 DUP2 MSTORE PUSH1 0x20 ADD PUSH32 0x46697A7A00000000000000000000000000000000000000000000000000000000 DUP2 MSTORE POP SWAP1 POP PUSH2 0x1E2 JUMP JUMPDEST PUSH1 0x0 PUSH1 0x5 DUP4 PUSH2 0x167 SWAP2 SWAP1 PUSH2 0x4EA JUMP JUMPDEST SUB PUSH2 0x1A9 JUMPI PUSH1 0x40 MLOAD DUP1 PUSH1 0x40 ADD PUSH1 0x40 MSTORE DUP1 PUSH1 0x4 DUP2 MSTORE PUSH1 0x20 ADD PUSH32 0x42757A7A00000000000000000000000000000000000000000000000000000000 DUP2 MSTORE POP SWAP1 POP PUSH2 0x1E2 JUMP JUMPDEST PUSH1 0x40 MLOAD DUP1 PUSH1 0x40 ADD PUSH1 0x40 MSTORE DUP1 PUSH1 0x5 DUP2 MSTORE PUSH1 0x20 ADD PUSH32 0x53706C6174000000000000000000000000000000000000000000000000000000 DUP2 MSTORE POP SWAP1 POP JUMPDEST SWAP2 SWAP1 POP JUMP JUMPDEST PUSH1 0x60 PUSH2 0x960 DUP3 LT PUSH2 0x1FB JUMPI PUSH2 0x1FA PUSH2 0x51B JUMP JUMPDEST JUMPDEST PUSH2 0x898 DUP3 GT DUP1 PUSH2 0x20C JUMPI POP PUSH2 0x320 DUP3 LT JUMPDEST ISZERO PUSH2 0x24E JUMPI DUP2 PUSH1 0x40 MLOAD PUSH32 0xA4BF701E00000000000000000000000000000000000000000000000000000000 DUP2 MSTORE PUSH1 0x4 ADD PUSH2 0x245 SWAP2 SWAP1 PUSH2 0x559 JUMP JUMPDEST PUSH1 0x40 MLOAD DUP1 SWAP2 SUB SWAP1 REVERT JUMPDEST PUSH2 0x4B0 DUP3 LT ISZERO DUP1 ISZERO PUSH2 0x262 JUMPI POP PUSH2 0x513 DUP3 GT ISZERO JUMPDEST ISZERO PUSH2 0x299 JUMPI PUSH1 0x40 MLOAD PUSH32 0x8A3648800000000000000000000000000000000000000000000000000000000 DUP2 MSTORE PUSH1 0x4 ADD PUSH1 0x40 MLOAD DUP1 SWAP2 SUB SWAP1 REVERT JUMPDEST PUSH2 0x320 DUP3 LT ISZERO DUP1 ISZERO PUSH2 0x2AD JUMPI POP PUSH2 0x4AF DUP3 GT ISZERO JUMPDEST ISZERO PUSH2 0x2EF JUMPI PUSH1 0x40 MLOAD DUP1 PUSH1 0x40 ADD PUSH1 0x40 MSTORE DUP1 PUSH1 0x8 DUP2 MSTORE PUSH1 0x20 ADD PUSH32 0x4D6F726E696E6721000000000000000000000000000000000000000000000000 DUP2 MSTORE POP SWAP1 POP PUSH2 0x39C JUMP JUMPDEST PUSH2 0x514 DUP3 LT ISZERO DUP1 ISZERO PUSH2 0x303 JUMPI POP PUSH2 0x707 DUP3 GT ISZERO JUMPDEST ISZERO PUSH2 0x345 JUMPI PUSH1 0x40 MLOAD DUP1 PUSH1 0x40 ADD PUSH1 0x40 MSTORE DUP1 PUSH1 0xA DUP2 MSTORE PUSH1 0x20 ADD PUSH32 0x41667465726E6F6F6E2100000000000000000000000000000000000000000000 DUP2 MSTORE POP SWAP1 POP PUSH2 0x39C JUMP JUMPDEST PUSH2 0x708 DUP3 LT ISZERO DUP1 ISZERO PUSH2 0x359 JUMPI POP PUSH2 0x898 DUP3 GT ISZERO JUMPDEST ISZERO PUSH2 0x39B JUMPI PUSH1 0x40 MLOAD DUP1 PUSH1 0x40 ADD PUSH1 0x40 MSTORE DUP1 PUSH1 0x8 DUP2 MSTORE PUSH1 0x20 ADD PUSH32 0x4576656E696E6721000000000000000000000000000000000000000000000000 DUP2 MSTORE POP SWAP1 POP PUSH2 0x39C JUMP JUMPDEST JUMPDEST SWAP2 SWAP1 POP JUMP JUMPDEST PUSH1 0x0 DUP1 REVERT JUMPDEST PUSH1 0x0 DUP2 SWAP1 POP SWAP2 SWAP1 POP JUMP JUMPDEST PUSH2 0x3B9 DUP2 PUSH2 0x3A6 JUMP JUMPDEST DUP2 EQ PUSH2 0x3C4 JUMPI PUSH1 0x0 DUP1 REVERT JUMPDEST POP JUMP JUMPDEST PUSH1 0x0 DUP2 CALLDATALOAD SWAP1 POP PUSH2 0x3D6 DUP2 PUSH2 0x3B0 JUMP JUMPDEST SWAP3 SWAP2 POP POP JUMP JUMPDEST PUSH1 0x0 PUSH1 0x20 DUP3 DUP5 SUB SLT ISZERO PUSH2 0x3F2 JUMPI PUSH2 0x3F1 PUSH2 0x3A1 JUMP JUMPDEST JUMPDEST PUSH1 0x0 PUSH2 0x400 DUP5 DUP3 DUP6 ADD PUSH2 0x3C7 JUMP JUMPDEST SWAP2 POP POP SWAP3 SWAP2 POP POP JUMP JUMPDEST PUSH1 0x0 DUP2 MLOAD SWAP1 POP SWAP2 SWAP1 POP JUMP JUMPDEST PUSH1 0x0 DUP3 DUP3 MSTORE PUSH1 0x20 DUP3 ADD SWAP1 POP SWAP3 SWAP2 POP POP JUMP JUMPDEST PUSH1 0x0 JUMPDEST DUP4 DUP2 LT ISZERO PUSH2 0x443 JUMPI DUP1 DUP3 ADD MLOAD DUP2 DUP5 ADD MSTORE PUSH1 0x20 DUP2 ADD SWAP1 POP PUSH2 0x428 JUMP JUMPDEST PUSH1 0x0 DUP5 DUP5 ADD MSTORE POP POP POP POP JUMP JUMPDEST PUSH1 0x0 PUSH1 0x1F NOT PUSH1 0x1F DUP4 ADD AND SWAP1 POP SWAP2 SWAP1 POP JUMP JUMPDEST PUSH1 0x0 PUSH2 0x46B DUP3 PUSH2 0x409 JUMP JUMPDEST PUSH2 0x475 DUP2 DUP6 PUSH2 0x414 JUMP JUMPDEST SWAP4 POP PUSH2 0x485 DUP2 DUP6 PUSH1 0x20 DUP7 ADD PUSH2 0x425 JUMP JUMPDEST PUSH2 0x48E DUP2 PUSH2 0x44F JUMP JUMPDEST DUP5 ADD SWAP2 POP POP SWAP3 SWAP2 POP POP JUMP JUMPDEST PUSH1 0x0 PUSH1 0x20 DUP3 ADD SWAP1 POP DUP2 DUP2 SUB PUSH1 0x0 DUP4 ADD MSTORE PUSH2 0x4B3 DUP2 DUP5 PUSH2 0x460 JUMP JUMPDEST SWAP1 POP SWAP3 SWAP2 POP POP JUMP JUMPDEST PUSH32 0x4E487B7100000000000000000000000000000000000000000000000000000000 PUSH1 0x0 MSTORE PUSH1 0x12 PUSH1 0x4 MSTORE PUSH1 0x24 PUSH1 0x0 REVERT JUMPDEST PUSH1 0x0 PUSH2 0x4F5 DUP3 PUSH2 0x3A6 JUMP JUMPDEST SWAP2 POP PUSH2 0x500 DUP4 PUSH2 0x3A6 JUMP JUMPDEST SWAP3 POP DUP3 PUSH2 0x510 JUMPI PUSH2 0x50F PUSH2 0x4BB JUMP JUMPDEST JUMPDEST DUP3 DUP3 MOD SWAP1 POP SWAP3 SWAP2 POP POP JUMP JUMPDEST PUSH32 0x4E487B7100000000000000000000000000000000000000000000000000000000 PUSH1 0x0 MSTORE PUSH1 0x1 PUSH1 0x4 MSTORE PUSH1 0x24 PUSH1 0x0 REVERT JUMPDEST PUSH2 0x553 DUP2 PUSH2 0x3A6 JUMP JUMPDEST DUP3 MSTORE POP POP JUMP JUMPDEST PUSH1 0x0 PUSH1 0x20 DUP3 ADD SWAP1 POP PUSH2 0x56E PUSH1 0x0 DUP4 ADD DUP5 PUSH2 0x54A JUMP JUMPDEST SWAP3 SWAP2 POP POP JUMP INVALID LOG2 PUSH5 0x6970667358 0x22 SLT KECCAK256 SWAP5 PUSH14 0xFCE6C32992CF661D7EA2DA7174AE SLT SGT 0xDD 0x23 0xEB SHR 0x24 0x49 GT SWAP3 0xBA PUSH29 0x25F0485D64736F6C634300081100330000000000000000000000000000 "
		},
		"gasEstimates": {
			"creation": {
				"codeDepositCost": "290000",
				"executionCost": "331",
				"totalCost": "290331"
			},
			"external": {
				"doNotDisturb(uint256)": "infinite",
				"fizzBuzz(uint256)": "infinite"
			}
		},
		"methodIdentifiers": {
			"doNotDisturb(uint256)": "e655b7bb",
			"fizzBuzz(uint256)": "440c93e2"
		}
	},
	"abi": [
		{
			"inputs": [
				{
					"internalType": "uint256",
					"name": "time",
					"type": "uint256"
				}
			],
			"name": "AfterHours",
			"type": "error"
		},
		{
			"inputs": [],
			"name": "AtLunch",
			"type": "error"
		},
		{
			"inputs": [
				{
					"internalType": "uint256",
					"name": "_time",
					"type": "uint256"
				}
			],
			"name": "doNotDisturb",
			"outputs": [
				{
					"internalType": "string",
					"name": "result",
					"type": "string"
				}
			],
			"stateMutability": "pure",
			"type": "function"
		},
		{
			"inputs": [
				{
					"internalType": "uint256",
					"name": "_number",
					"type": "uint256"
				}
			],
			"name": "fizzBuzz",
			"outputs": [
				{
					"internalType": "string",
					"name": "response",
					"type": "string"
				}
			],
			"stateMutability": "pure",
			"type": "function"
		}
	]
}