{
	"data": {
		"bytecode": {
			"linkReferences": {},
			"object": "6080604052348015600e575f80fd5b506107868061001c5f395ff3fe608060405234801561000f575f80fd5b5060043610610060575f3560e01c80631abe2ac214610064578063294323141461008257806364529db5146100b2578063e1819ff9146100bc578063f74e51ea146100d8578063fb8cbced14610108575b5f80fd5b61006c610126565b60405161007991906103d2565b60405180910390f35b61009c60048036038101906100979190610419565b610193565b6040516100a99190610534565b60405180910390f35b6100ba6102bc565b005b6100d660048036038101906100d19190610554565b6102ca565b005b6100f260048036038101906100ed91906105b2565b6102f2565b6040516100ff91906103d2565b60405180910390f35b61011061032c565b60405161011d9190610534565b60405180910390f35b5f805f80549050111561018f575f8060015f80549050610146919061061d565b8154811061015757610156610650565b5b905f5260205f20015490505f8054806101735761017261067d565b5b600190038181905f5260205f20015f9055905580915050610190565b5b90565b60605f600367ffffffffffffffff8111156101b1576101b06106aa565b5b6040519080825280602002602001820160405280156101df5781602001602082028036833780820191505090505b5090508486116101fa5785856101f5919061061d565b610207565b8486610206919061061d565b5b815f8151811061021a57610219610650565b5b60200260200101818152505083851161023e578484610239919061061d565b61024b565b838561024a919061061d565b5b8160018151811061025f5761025e610650565b5b60200260200101818152505082841161028357838361027e919061061d565b610290565b828461028f919061061d565b5b816002815181106102a4576102a3610650565b5b60200260200101818152505080915050949350505050565b5f806102c89190610381565b565b5f81908060018154018082558091505060019003905f5260205f20015f909190919091505550565b5f8082131561030e57818361030791906106d7565b9050610326565b816103189061070a565b83610323919061061d565b90505b92915050565b60605f80548060200260200160405190810160405280929190818152602001828054801561037757602002820191905f5260205f20905b815481526020019060010190808311610363575b5050505050905090565b5080545f8255905f5260205f209081019061039c919061039f565b50565b5b808211156103b6575f815f9055506001016103a0565b5090565b5f819050919050565b6103cc816103ba565b82525050565b5f6020820190506103e55f8301846103c3565b92915050565b5f80fd5b6103f8816103ba565b8114610402575f80fd5b50565b5f81359050610413816103ef565b92915050565b5f805f8060808587031215610431576104306103eb565b5b5f61043e87828801610405565b945050602061044f87828801610405565b935050604061046087828801610405565b925050606061047187828801610405565b91505092959194509250565b5f81519050919050565b5f82825260208201905092915050565b5f819050602082019050919050565b6104af816103ba565b82525050565b5f6104c083836104a6565b60208301905092915050565b5f602082019050919050565b5f6104e28261047d565b6104ec8185610487565b93506104f783610497565b805f5b8381101561052757815161050e88826104b5565b9750610519836104cc565b9250506001810190506104fa565b5085935050505092915050565b5f6020820190508181035f83015261054c81846104d8565b905092915050565b5f60208284031215610569576105686103eb565b5b5f61057684828501610405565b91505092915050565b5f819050919050565b6105918161057f565b811461059b575f80fd5b50565b5f813590506105ac81610588565b92915050565b5f80604083850312156105c8576105c76103eb565b5b5f6105d585828601610405565b92505060206105e68582860161059e565b9150509250929050565b7f4e487b71000000000000000000000000000000000000000000000000000000005f52601160045260245ffd5b5f610627826103ba565b9150610632836103ba565b925082820390508181111561064a576106496105f0565b5b92915050565b7f4e487b71000000000000000000000000000000000000000000000000000000005f52603260045260245ffd5b7f4e487b71000000000000000000000000000000000000000000000000000000005f52603160045260245ffd5b7f4e487b71000000000000000000000000000000000000000000000000000000005f52604160045260245ffd5b5f6106e1826103ba565b91506106ec836103ba565b9250828201905080821115610704576107036105f0565b5b92915050565b5f6107148261057f565b91507f80000000000000000000000000000000000000000000000000000000000000008203610746576107456105f0565b5b815f03905091905056fea2646970667358221220b64f2e4a3a3709eca35341677ae6805a0f021a3d9d2b75d6344dd608e724214464736f6c634300081a0033",
			"opcodes": "PUSH1 0x80 PUSH1 0x40 MSTORE CALLVALUE DUP1 ISZERO PUSH1 0xE JUMPI PUSH0 DUP1 REVERT JUMPDEST POP PUSH2 0x786 DUP1 PUSH2 0x1C PUSH0 CODECOPY PUSH0 RETURN INVALID PUSH1 0x80 PUSH1 0x40 MSTORE CALLVALUE DUP1 ISZERO PUSH2 0xF JUMPI PUSH0 DUP1 REVERT JUMPDEST POP PUSH1 0x4 CALLDATASIZE LT PUSH2 0x60 JUMPI PUSH0 CALLDATALOAD PUSH1 0xE0 SHR DUP1 PUSH4 0x1ABE2AC2 EQ PUSH2 0x64 JUMPI DUP1 PUSH4 0x29432314 EQ PUSH2 0x82 JUMPI DUP1 PUSH4 0x64529DB5 EQ PUSH2 0xB2 JUMPI DUP1 PUSH4 0xE1819FF9 EQ PUSH2 0xBC JUMPI DUP1 PUSH4 0xF74E51EA EQ PUSH2 0xD8 JUMPI DUP1 PUSH4 0xFB8CBCED EQ PUSH2 0x108 JUMPI JUMPDEST PUSH0 DUP1 REVERT JUMPDEST PUSH2 0x6C PUSH2 0x126 JUMP JUMPDEST PUSH1 0x40 MLOAD PUSH2 0x79 SWAP2 SWAP1 PUSH2 0x3D2 JUMP JUMPDEST PUSH1 0x40 MLOAD DUP1 SWAP2 SUB SWAP1 RETURN JUMPDEST PUSH2 0x9C PUSH1 0x4 DUP1 CALLDATASIZE SUB DUP2 ADD SWAP1 PUSH2 0x97 SWAP2 SWAP1 PUSH2 0x419 JUMP JUMPDEST PUSH2 0x193 JUMP JUMPDEST PUSH1 0x40 MLOAD PUSH2 0xA9 SWAP2 SWAP1 PUSH2 0x534 JUMP JUMPDEST PUSH1 0x40 MLOAD DUP1 SWAP2 SUB SWAP1 RETURN JUMPDEST PUSH2 0xBA PUSH2 0x2BC JUMP JUMPDEST STOP JUMPDEST PUSH2 0xD6 PUSH1 0x4 DUP1 CALLDATASIZE SUB DUP2 ADD SWAP1 PUSH2 0xD1 SWAP2 SWAP1 PUSH2 0x554 JUMP JUMPDEST PUSH2 0x2CA JUMP JUMPDEST STOP JUMPDEST PUSH2 0xF2 PUSH1 0x4 DUP1 CALLDATASIZE SUB DUP2 ADD SWAP1 PUSH2 0xED SWAP2 SWAP1 PUSH2 0x5B2 JUMP JUMPDEST PUSH2 0x2F2 JUMP JUMPDEST PUSH1 0x40 MLOAD PUSH2 0xFF SWAP2 SWAP1 PUSH2 0x3D2 JUMP JUMPDEST PUSH1 0x40 MLOAD DUP1 SWAP2 SUB SWAP1 RETURN JUMPDEST PUSH2 0x110 PUSH2 0x32C JUMP JUMPDEST PUSH1 0x40 MLOAD PUSH2 0x11D SWAP2 SWAP1 PUSH2 0x534 JUMP JUMPDEST PUSH1 0x40 MLOAD DUP1 SWAP2 SUB SWAP1 RETURN JUMPDEST PUSH0 DUP1 PUSH0 DUP1 SLOAD SWAP1 POP GT ISZERO PUSH2 0x18F JUMPI PUSH0 DUP1 PUSH1 0x1 PUSH0 DUP1 SLOAD SWAP1 POP PUSH2 0x146 SWAP2 SWAP1 PUSH2 0x61D JUMP JUMPDEST DUP2 SLOAD DUP2 LT PUSH2 0x157 JUMPI PUSH2 0x156 PUSH2 0x650 JUMP JUMPDEST JUMPDEST SWAP1 PUSH0 MSTORE PUSH1 0x20 PUSH0 KECCAK256 ADD SLOAD SWAP1 POP PUSH0 DUP1 SLOAD DUP1 PUSH2 0x173 JUMPI PUSH2 0x172 PUSH2 0x67D JUMP JUMPDEST JUMPDEST PUSH1 0x1 SWAP1 SUB DUP2 DUP2 SWAP1 PUSH0 MSTORE PUSH1 0x20 PUSH0 KECCAK256 ADD PUSH0 SWAP1 SSTORE SWAP1 SSTORE DUP1 SWAP2 POP POP PUSH2 0x190 JUMP JUMPDEST JUMPDEST SWAP1 JUMP JUMPDEST PUSH1 0x60 PUSH0 PUSH1 0x3 PUSH8 0xFFFFFFFFFFFFFFFF DUP2 GT ISZERO PUSH2 0x1B1 JUMPI PUSH2 0x1B0 PUSH2 0x6AA JUMP JUMPDEST JUMPDEST PUSH1 0x40 MLOAD SWAP1 DUP1 DUP3 MSTORE DUP1 PUSH1 0x20 MUL PUSH1 0x20 ADD DUP3 ADD PUSH1 0x40 MSTORE DUP1 ISZERO PUSH2 0x1DF JUMPI DUP2 PUSH1 0x20 ADD PUSH1 0x20 DUP3 MUL DUP1 CALLDATASIZE DUP4 CALLDATACOPY DUP1 DUP3 ADD SWAP2 POP POP SWAP1 POP JUMPDEST POP SWAP1 POP DUP5 DUP7 GT PUSH2 0x1FA JUMPI DUP6 DUP6 PUSH2 0x1F5 SWAP2 SWAP1 PUSH2 0x61D JUMP JUMPDEST PUSH2 0x207 JUMP JUMPDEST DUP5 DUP7 PUSH2 0x206 SWAP2 SWAP1 PUSH2 0x61D JUMP JUMPDEST JUMPDEST DUP2 PUSH0 DUP2 MLOAD DUP2 LT PUSH2 0x21A JUMPI PUSH2 0x219 PUSH2 0x650 JUMP JUMPDEST JUMPDEST PUSH1 0x20 MUL PUSH1 0x20 ADD ADD DUP2 DUP2 MSTORE POP POP DUP4 DUP6 GT PUSH2 0x23E JUMPI DUP5 DUP5 PUSH2 0x239 SWAP2 SWAP1 PUSH2 0x61D JUMP JUMPDEST PUSH2 0x24B JUMP JUMPDEST DUP4 DUP6 PUSH2 0x24A SWAP2 SWAP1 PUSH2 0x61D JUMP JUMPDEST JUMPDEST DUP2 PUSH1 0x1 DUP2 MLOAD DUP2 LT PUSH2 0x25F JUMPI PUSH2 0x25E PUSH2 0x650 JUMP JUMPDEST JUMPDEST PUSH1 0x20 MUL PUSH1 0x20 ADD ADD DUP2 DUP2 MSTORE POP POP DUP3 DUP5 GT PUSH2 0x283 JUMPI DUP4 DUP4 PUSH2 0x27E SWAP2 SWAP1 PUSH2 0x61D JUMP JUMPDEST PUSH2 0x290 JUMP JUMPDEST DUP3 DUP5 PUSH2 0x28F SWAP2 SWAP1 PUSH2 0x61D JUMP JUMPDEST JUMPDEST DUP2 PUSH1 0x2 DUP2 MLOAD DUP2 LT PUSH2 0x2A4 JUMPI PUSH2 0x2A3 PUSH2 0x650 JUMP JUMPDEST JUMPDEST PUSH1 0x20 MUL PUSH1 0x20 ADD ADD DUP2 DUP2 MSTORE POP POP DUP1 SWAP2 POP POP SWAP5 SWAP4 POP POP POP POP JUMP JUMPDEST PUSH0 DUP1 PUSH2 0x2C8 SWAP2 SWAP1 PUSH2 0x381 JUMP JUMPDEST JUMP JUMPDEST PUSH0 DUP2 SWAP1 DUP1 PUSH1 0x1 DUP2 SLOAD ADD DUP1 DUP3 SSTORE DUP1 SWAP2 POP POP PUSH1 0x1 SWAP1 SUB SWAP1 PUSH0 MSTORE PUSH1 0x20 PUSH0 KECCAK256 ADD PUSH0 SWAP1 SWAP2 SWAP1 SWAP2 SWAP1 SWAP2 POP SSTORE POP JUMP JUMPDEST PUSH0 DUP1 DUP3 SGT ISZERO PUSH2 0x30E JUMPI DUP2 DUP4 PUSH2 0x307 SWAP2 SWAP1 PUSH2 0x6D7 JUMP JUMPDEST SWAP1 POP PUSH2 0x326 JUMP JUMPDEST DUP2 PUSH2 0x318 SWAP1 PUSH2 0x70A JUMP JUMPDEST DUP4 PUSH2 0x323 SWAP2 SWAP1 PUSH2 0x61D JUMP JUMPDEST SWAP1 POP JUMPDEST SWAP3 SWAP2 POP POP JUMP JUMPDEST PUSH1 0x60 PUSH0 DUP1 SLOAD DUP1 PUSH1 0x20 MUL PUSH1 0x20 ADD PUSH1 0x40 MLOAD SWAP1 DUP2 ADD PUSH1 0x40 MSTORE DUP1 SWAP3 SWAP2 SWAP1 DUP2 DUP2 MSTORE PUSH1 0x20 ADD DUP3 DUP1 SLOAD DUP1 ISZERO PUSH2 0x377 JUMPI PUSH1 0x20 MUL DUP3 ADD SWAP2 SWAP1 PUSH0 MSTORE PUSH1 0x20 PUSH0 KECCAK256 SWAP1 JUMPDEST DUP2 SLOAD DUP2 MSTORE PUSH1 0x20 ADD SWAP1 PUSH1 0x1 ADD SWAP1 DUP1 DUP4 GT PUSH2 0x363 JUMPI JUMPDEST POP POP POP POP POP SWAP1 POP SWAP1 JUMP JUMPDEST POP DUP1 SLOAD PUSH0 DUP3 SSTORE SWAP1 PUSH0 MSTORE PUSH1 0x20 PUSH0 KECCAK256 SWAP1 DUP2 ADD SWAP1 PUSH2 0x39C SWAP2 SWAP1 PUSH2 0x39F JUMP JUMPDEST POP JUMP JUMPDEST JUMPDEST DUP1 DUP3 GT ISZERO PUSH2 0x3B6 JUMPI PUSH0 DUP2 PUSH0 SWAP1 SSTORE POP PUSH1 0x1 ADD PUSH2 0x3A0 JUMP JUMPDEST POP SWAP1 JUMP JUMPDEST PUSH0 DUP2 SWAP1 POP SWAP2 SWAP1 POP JUMP JUMPDEST PUSH2 0x3CC DUP2 PUSH2 0x3BA JUMP JUMPDEST DUP3 MSTORE POP POP JUMP JUMPDEST PUSH0 PUSH1 0x20 DUP3 ADD SWAP1 POP PUSH2 0x3E5 PUSH0 DUP4 ADD DUP5 PUSH2 0x3C3 JUMP JUMPDEST SWAP3 SWAP2 POP POP JUMP JUMPDEST PUSH0 DUP1 REVERT JUMPDEST PUSH2 0x3F8 DUP2 PUSH2 0x3BA JUMP JUMPDEST DUP2 EQ PUSH2 0x402 JUMPI PUSH0 DUP1 REVERT JUMPDEST POP JUMP JUMPDEST PUSH0 DUP2 CALLDATALOAD SWAP1 POP PUSH2 0x413 DUP2 PUSH2 0x3EF JUMP JUMPDEST SWAP3 SWAP2 POP POP JUMP JUMPDEST PUSH0 DUP1 PUSH0 DUP1 PUSH1 0x80 DUP6 DUP8 SUB SLT ISZERO PUSH2 0x431 JUMPI PUSH2 0x430 PUSH2 0x3EB JUMP JUMPDEST JUMPDEST PUSH0 PUSH2 0x43E DUP8 DUP3 DUP9 ADD PUSH2 0x405 JUMP JUMPDEST SWAP5 POP POP PUSH1 0x20 PUSH2 0x44F DUP8 DUP3 DUP9 ADD PUSH2 0x405 JUMP JUMPDEST SWAP4 POP POP PUSH1 0x40 PUSH2 0x460 DUP8 DUP3 DUP9 ADD PUSH2 0x405 JUMP JUMPDEST SWAP3 POP POP PUSH1 0x60 PUSH2 0x471 DUP8 DUP3 DUP9 ADD PUSH2 0x405 JUMP JUMPDEST SWAP2 POP POP SWAP3 SWAP6 SWAP2 SWAP5 POP SWAP3 POP JUMP JUMPDEST PUSH0 DUP2 MLOAD SWAP1 POP SWAP2 SWAP1 POP JUMP JUMPDEST PUSH0 DUP3 DUP3 MSTORE PUSH1 0x20 DUP3 ADD SWAP1 POP SWAP3 SWAP2 POP POP JUMP JUMPDEST PUSH0 DUP2 SWAP1 POP PUSH1 0x20 DUP3 ADD SWAP1 POP SWAP2 SWAP1 POP JUMP JUMPDEST PUSH2 0x4AF DUP2 PUSH2 0x3BA JUMP JUMPDEST DUP3 MSTORE POP POP JUMP JUMPDEST PUSH0 PUSH2 0x4C0 DUP4 DUP4 PUSH2 0x4A6 JUMP JUMPDEST PUSH1 0x20 DUP4 ADD SWAP1 POP SWAP3 SWAP2 POP POP JUMP JUMPDEST PUSH0 PUSH1 0x20 DUP3 ADD SWAP1 POP SWAP2 SWAP1 POP JUMP JUMPDEST PUSH0 PUSH2 0x4E2 DUP3 PUSH2 0x47D JUMP JUMPDEST PUSH2 0x4EC DUP2 DUP6 PUSH2 0x487 JUMP JUMPDEST SWAP4 POP PUSH2 0x4F7 DUP4 PUSH2 0x497 JUMP JUMPDEST DUP1 PUSH0 JUMPDEST DUP4 DUP2 LT ISZERO PUSH2 0x527 JUMPI DUP2 MLOAD PUSH2 0x50E DUP9 DUP3 PUSH2 0x4B5 JUMP JUMPDEST SWAP8 POP PUSH2 0x519 DUP4 PUSH2 0x4CC JUMP JUMPDEST SWAP3 POP POP PUSH1 0x1 DUP2 ADD SWAP1 POP PUSH2 0x4FA JUMP JUMPDEST POP DUP6 SWAP4 POP POP POP POP SWAP3 SWAP2 POP POP JUMP JUMPDEST PUSH0 PUSH1 0x20 DUP3 ADD SWAP1 POP DUP2 DUP2 SUB PUSH0 DUP4 ADD MSTORE PUSH2 0x54C DUP2 DUP5 PUSH2 0x4D8 JUMP JUMPDEST SWAP1 POP SWAP3 SWAP2 POP POP JUMP JUMPDEST PUSH0 PUSH1 0x20 DUP3 DUP5 SUB SLT ISZERO PUSH2 0x569 JUMPI PUSH2 0x568 PUSH2 0x3EB JUMP JUMPDEST JUMPDEST PUSH0 PUSH2 0x576 DUP5 DUP3 DUP6 ADD PUSH2 0x405 JUMP JUMPDEST SWAP2 POP POP SWAP3 SWAP2 POP POP JUMP JUMPDEST PUSH0 DUP2 SWAP1 POP SWAP2 SWAP1 POP JUMP JUMPDEST PUSH2 0x591 DUP2 PUSH2 0x57F JUMP JUMPDEST DUP2 EQ PUSH2 0x59B JUMPI PUSH0 DUP1 REVERT JUMPDEST POP JUMP JUMPDEST PUSH0 DUP2 CALLDATALOAD SWAP1 POP PUSH2 0x5AC DUP2 PUSH2 0x588 JUMP JUMPDEST SWAP3 SWAP2 POP POP JUMP JUMPDEST PUSH0 DUP1 PUSH1 0x40 DUP4 DUP6 SUB SLT ISZERO PUSH2 0x5C8 JUMPI PUSH2 0x5C7 PUSH2 0x3EB JUMP JUMPDEST JUMPDEST PUSH0 PUSH2 0x5D5 DUP6 DUP3 DUP7 ADD PUSH2 0x405 JUMP JUMPDEST SWAP3 POP POP PUSH1 0x20 PUSH2 0x5E6 DUP6 DUP3 DUP7 ADD PUSH2 0x59E JUMP JUMPDEST SWAP2 POP POP SWAP3 POP SWAP3 SWAP1 POP JUMP JUMPDEST PUSH32 0x4E487B7100000000000000000000000000000000000000000000000000000000 PUSH0 MSTORE PUSH1 0x11 PUSH1 0x4 MSTORE PUSH1 0x24 PUSH0 REVERT JUMPDEST PUSH0 PUSH2 0x627 DUP3 PUSH2 0x3BA JUMP JUMPDEST SWAP2 POP PUSH2 0x632 DUP4 PUSH2 0x3BA JUMP JUMPDEST SWAP3 POP DUP3 DUP3 SUB SWAP1 POP DUP2 DUP2 GT ISZERO PUSH2 0x64A JUMPI PUSH2 0x649 PUSH2 0x5F0 JUMP JUMPDEST JUMPDEST SWAP3 SWAP2 POP POP JUMP JUMPDEST PUSH32 0x4E487B7100000000000000000000000000000000000000000000000000000000 PUSH0 MSTORE PUSH1 0x32 PUSH1 0x4 MSTORE PUSH1 0x24 PUSH0 REVERT JUMPDEST PUSH32 0x4E487B7100000000000000000000000000000000000000000000000000000000 PUSH0 MSTORE PUSH1 0x31 PUSH1 0x4 MSTORE PUSH1 0x24 PUSH0 REVERT JUMPDEST PUSH32 0x4E487B7100000000000000000000000000000000000000000000000000000000 PUSH0 MSTORE PUSH1 0x41 PUSH1 0x4 MSTORE PUSH1 0x24 PUSH0 REVERT JUMPDEST PUSH0 PUSH2 0x6E1 DUP3 PUSH2 0x3BA JUMP JUMPDEST SWAP2 POP PUSH2 0x6EC DUP4 PUSH2 0x3BA JUMP JUMPDEST SWAP3 POP DUP3 DUP3 ADD SWAP1 POP DUP1 DUP3 GT ISZERO PUSH2 0x704 JUMPI PUSH2 0x703 PUSH2 0x5F0 JUMP JUMPDEST JUMPDEST SWAP3 SWAP2 POP POP JUMP JUMPDEST PUSH0 PUSH2 0x714 DUP3 PUSH2 0x57F JUMP JUMPDEST SWAP2 POP PUSH32 0x8000000000000000000000000000000000000000000000000000000000000000 DUP3 SUB PUSH2 0x746 JUMPI PUSH2 0x745 PUSH2 0x5F0 JUMP JUMPDEST JUMPDEST DUP2 PUSH0 SUB SWAP1 POP SWAP2 SWAP1 POP JUMP INVALID LOG2 PUSH5 0x6970667358 0x22 SLT KECCAK256 0xB6 0x4F 0x2E BLOBBASEFEE GASPRICE CALLDATACOPY MULMOD 0xEC LOG3 MSTORE8 COINBASE PUSH8 0x7AE6805A0F021A3D SWAP14 0x2B PUSH22 0xD6344DD608E724214464736F6C634300081A00330000 "
		},
		"gasEstimates": {
			"creation": {
				"codeDepositCost": "385200",
				"executionCost": "422",
				"totalCost": "385622"
			},
			"external": {
				"addToArr(uint256)": "46864",
				"applyModifier(uint256,int256)": "infinite",
				"diffWithNeighbor(uint256,uint256,uint256,uint256)": "infinite",
				"getArr()": "infinite",
				"popWithReturn()": "infinite",
				"resetArr()": "infinite"
			}
		},
		"methodIdentifiers": {
			"addToArr(uint256)": "e1819ff9",
			"applyModifier(uint256,int256)": "f74e51ea",
			"diffWithNeighbor(uint256,uint256,uint256,uint256)": "29432314",
			"getArr()": "fb8cbced",
			"popWithReturn()": "1abe2ac2",
			"resetArr()": "64529db5"
		}
	},
	"abi": [
		{
			"inputs": [
				{
					"internalType": "uint256",
					"name": "_num",
					"type": "uint256"
				}
			],
			"name": "addToArr",
			"outputs": [],
			"stateMutability": "nonpayable",
			"type": "function"
		},
		{
			"inputs": [
				{
					"internalType": "uint256",
					"name": "_base",
					"type": "uint256"
				},
				{
					"internalType": "int256",
					"name": "_modifier",
					"type": "int256"
				}
			],
			"name": "applyModifier",
			"outputs": [
				{
					"internalType": "uint256",
					"name": "returnValue",
					"type": "uint256"
				}
			],
			"stateMutability": "pure",
			"type": "function"
		},
		{
			"inputs": [
				{
					"internalType": "uint256",
					"name": "_a",
					"type": "uint256"
				},
				{
					"internalType": "uint256",
					"name": "_b",
					"type": "uint256"
				},
				{
					"internalType": "uint256",
					"name": "_c",
					"type": "uint256"
				},
				{
					"internalType": "uint256",
					"name": "_d",
					"type": "uint256"
				}
			],
			"name": "diffWithNeighbor",
			"outputs": [
				{
					"internalType": "uint256[]",
					"name": "",
					"type": "uint256[]"
				}
			],
			"stateMutability": "pure",
			"type": "function"
		},
		{
			"inputs": [],
			"name": "getArr",
			"outputs": [
				{
					"internalType": "uint256[]",
					"name": "",
					"type": "uint256[]"
				}
			],
			"stateMutability": "view",
			"type": "function"
		},
		{
			"inputs": [],
			"name": "popWithReturn",
			"outputs": [
				{
					"internalType": "uint256",
					"name": "returnNum",
					"type": "uint256"
				}
			],
			"stateMutability": "nonpayable",
			"type": "function"
		},
		{
			"inputs": [],
			"name": "resetArr",
			"outputs": [],
			"stateMutability": "nonpayable",
			"type": "function"
		}
	]
}