{
	"data": {
		"bytecode": {
			"linkReferences": {},
			"object": "60806040523480156200001157600080fd5b506040518061012001604052806040518060400160405280600881526020017f546872696c6c657200000000000000000000000000000000000000000000000081525081526020016040518060400160405280600d81526020017f4261636b20696e20426c61636b0000000000000000000000000000000000000081525081526020016040518060400160405280600d81526020017f54686520426f647967756172640000000000000000000000000000000000000081525081526020016040518060400160405280601981526020017f546865204461726b2053696465206f6620746865204d6f6f6e0000000000000081525081526020016040518060400160405280601f81526020017f546865697220477265617465737420486974732028313937312d31393735290081525081526020016040518060400160405280601081526020017f486f74656c2043616c69666f726e69610000000000000000000000000000000081525081526020016040518060400160405280600c81526020017f436f6d65204f6e204f766572000000000000000000000000000000000000000081525081526020016040518060400160405280600781526020017f52756d6f7572730000000000000000000000000000000000000000000000000081525081526020016040518060400160405280601481526020017f5361747572646179204e69676874204665766572000000000000000000000000815250815250600190600962000241929190620002c9565b5060005b600180549050811015620002c25760016000600183815481106200026e576200026d620003b6565b5b90600052602060002001604051620002879190620004f8565b908152602001604051809103902060006101000a81548160ff0219169083151502179055508080620002b9906200054a565b91505062000245565b5062000875565b82805482825590600052602060002090810192821562000316579160200282015b82811115620003155782518290816200030491906200078e565b5091602001919060010190620002ea565b5b50905062000325919062000329565b5090565b5b808211156200034d576000818162000343919062000351565b506001016200032a565b5090565b5080546200035f9062000414565b6000825580601f1062000373575062000394565b601f01602090049060005260206000209081019062000393919062000397565b5b50565b5b80821115620003b257600081600090555060010162000398565b5090565b7f4e487b7100000000000000000000000000000000000000000000000000000000600052603260045260246000fd5b7f4e487b7100000000000000000000000000000000000000000000000000000000600052602260045260246000fd5b600060028204905060018216806200042d57607f821691505b602082108103620004435762000442620003e5565b5b50919050565b600081905092915050565b60008190508160005260206000209050919050565b60008154620004788162000414565b62000484818662000449565b94506001821660008114620004a25760018114620004b857620004ef565b60ff1983168652811515820286019350620004ef565b620004c38562000454565b60005b83811015620004e757815481890152600182019150602081019050620004c6565b838801955050505b50505092915050565b600062000506828462000469565b915081905092915050565b7f4e487b7100000000000000000000000000000000000000000000000000000000600052601160045260246000fd5b6000819050919050565b6000620005578262000540565b91507fffffffffffffffffffffffffffffffffffffffffffffffffffffffffffffffff82036200058c576200058b62000511565b5b600182019050919050565b600081519050919050565b7f4e487b7100000000000000000000000000000000000000000000000000000000600052604160045260246000fd5b60006020601f8301049050919050565b600082821b905092915050565b600060088302620006207fffffffffffffffffffffffffffffffffffffffffffffffffffffffffffffffff82620005e1565b6200062c8683620005e1565b95508019841693508086168417925050509392505050565b6000819050919050565b60006200066f62000669620006638462000540565b62000644565b62000540565b9050919050565b6000819050919050565b6200068b836200064e565b620006a36200069a8262000676565b848454620005ee565b825550505050565b600090565b620006ba620006ab565b620006c781848462000680565b505050565b5b81811015620006ef57620006e3600082620006b0565b600181019050620006cd565b5050565b601f8211156200073e57620007088162000454565b6200071384620005d1565b8101602085101562000723578190505b6200073b6200073285620005d1565b830182620006cc565b50505b505050565b600082821c905092915050565b6000620007636000198460080262000743565b1980831691505092915050565b60006200077e838362000750565b9150826002028217905092915050565b620007998262000597565b67ffffffffffffffff811115620007b557620007b4620005a2565b5b620007c1825462000414565b620007ce828285620006f3565b600060209050601f831160018114620008065760008415620007f1578287015190505b620007fd858262000770565b8655506200086d565b601f198416620008168662000454565b60005b82811015620008405784890151825560018201915060208501945060208101905062000819565b868310156200086057848901516200085c601f89168262000750565b8355505b6001600288020188555050505b505050505050565b61104f80620008856000396000f3fe608060405234801561001057600080fd5b50600436106100575760003560e01c80631cf0830b1461005c578063837f88781461007a578063c75c333c14610084578063c7853148146100b4578063d81aa8c4146100e4575b600080fd5b610064610100565b6040516100719190610861565b60405180910390f35b6100826101d9565b005b61009e60048036038101906100999190610a2a565b61034c565b6040516100ab9190610aa1565b60405180910390f35b6100ce60048036038101906100c99190610abc565b610391565b6040516100db9190610861565b60405180910390f35b6100fe60048036038101906100f99190610ae9565b6104a9565b005b60606001805480602002602001604051908101604052809291908181526020016000905b828210156101d057838290600052602060002001805461014390610b61565b80601f016020809104026020016040519081016040528092919081815260200182805461016f90610b61565b80156101bc5780601f10610191576101008083540402835291602001916101bc565b820191906000526020600020905b81548152906001019060200180831161019f57829003601f168201915b505050505081526020019060010190610124565b50505050905090565b60005b600360003373ffffffffffffffffffffffffffffffffffffffff1673ffffffffffffffffffffffffffffffffffffffff168152602001908152602001600020805490508110156102fe57600260003373ffffffffffffffffffffffffffffffffffffffff1673ffffffffffffffffffffffffffffffffffffffff168152602001908152602001600020600360003373ffffffffffffffffffffffffffffffffffffffff1673ffffffffffffffffffffffffffffffffffffffff16815260200190815260200160002082815481106102b6576102b5610b92565b5b906000526020600020016040516102cd9190610c64565b908152602001604051809103902060006101000a81549060ff021916905580806102f690610cb4565b9150506101dc565b50600360003373ffffffffffffffffffffffffffffffffffffffff1673ffffffffffffffffffffffffffffffffffffffff168152602001908152602001600020600061034a919061066d565b565b6002602052816000526040600020818051602081018201805184825260208301602085012081835280955050505050506000915091509054906101000a900460ff1681565b6060600360008373ffffffffffffffffffffffffffffffffffffffff1673ffffffffffffffffffffffffffffffffffffffff168152602001908152602001600020805480602002602001604051908101604052809291908181526020016000905b8282101561049e57838290600052602060002001805461041190610b61565b80601f016020809104026020016040519081016040528092919081815260200182805461043d90610b61565b801561048a5780601f1061045f5761010080835404028352916020019161048a565b820191906000526020600020905b81548152906001019060200180831161046d57829003601f168201915b5050505050815260200190600101906103f2565b505050509050919050565b6000816040516104b99190610d2d565b908152602001604051809103902060009054906101000a900460ff1661051657806040517f4f0ffc1b00000000000000000000000000000000000000000000000000000000815260040161050d9190610d8e565b60405180910390fd5b600260003373ffffffffffffffffffffffffffffffffffffffff1673ffffffffffffffffffffffffffffffffffffffff168152602001908152602001600020816040516105639190610d2d565b908152602001604051809103902060009054906101000a900460ff1661066a576001600260003373ffffffffffffffffffffffffffffffffffffffff1673ffffffffffffffffffffffffffffffffffffffff168152602001908152602001600020826040516105d29190610d2d565b908152602001604051809103902060006101000a81548160ff021916908315150217905550600360003373ffffffffffffffffffffffffffffffffffffffff1673ffffffffffffffffffffffffffffffffffffffff168152602001908152602001600020819080600181540180825580915050600190039060005260206000200160009091909190915090816106689190610f47565b505b50565b508054600082559060005260206000209081019061068b919061068e565b50565b5b808211156106ae57600081816106a591906106b2565b5060010161068f565b5090565b5080546106be90610b61565b6000825580601f106106d057506106ef565b601f0160209004906000526020600020908101906106ee91906106f2565b5b50565b5b8082111561070b5760008160009055506001016106f3565b5090565b600081519050919050565b600082825260208201905092915050565b6000819050602082019050919050565b600081519050919050565b600082825260208201905092915050565b60005b8381101561077557808201518184015260208101905061075a565b60008484015250505050565b6000601f19601f8301169050919050565b600061079d8261073b565b6107a78185610746565b93506107b7818560208601610757565b6107c081610781565b840191505092915050565b60006107d78383610792565b905092915050565b6000602082019050919050565b60006107f78261070f565b610801818561071a565b9350836020820285016108138561072b565b8060005b8581101561084f578484038952815161083085826107cb565b945061083b836107df565b925060208a01995050600181019050610817565b50829750879550505050505092915050565b6000602082019050818103600083015261087b81846107ec565b905092915050565b6000604051905090565b600080fd5b600080fd5b600073ffffffffffffffffffffffffffffffffffffffff82169050919050565b60006108c282610897565b9050919050565b6108d2816108b7565b81146108dd57600080fd5b50565b6000813590506108ef816108c9565b92915050565b600080fd5b600080fd5b7f4e487b7100000000000000000000000000000000000000000000000000000000600052604160045260246000fd5b61093782610781565b810181811067ffffffffffffffff82111715610956576109556108ff565b5b80604052505050565b6000610969610883565b9050610975828261092e565b919050565b600067ffffffffffffffff821115610995576109946108ff565b5b61099e82610781565b9050602081019050919050565b82818337600083830152505050565b60006109cd6109c88461097a565b61095f565b9050828152602081018484840111156109e9576109e86108fa565b5b6109f48482856109ab565b509392505050565b600082601f830112610a1157610a106108f5565b5b8135610a218482602086016109ba565b91505092915050565b60008060408385031215610a4157610a4061088d565b5b6000610a4f858286016108e0565b925050602083013567ffffffffffffffff811115610a7057610a6f610892565b5b610a7c858286016109fc565b9150509250929050565b60008115159050919050565b610a9b81610a86565b82525050565b6000602082019050610ab66000830184610a92565b92915050565b600060208284031215610ad257610ad161088d565b5b6000610ae0848285016108e0565b91505092915050565b600060208284031215610aff57610afe61088d565b5b600082013567ffffffffffffffff811115610b1d57610b1c610892565b5b610b29848285016109fc565b91505092915050565b7f4e487b7100000000000000000000000000000000000000000000000000000000600052602260045260246000fd5b60006002820490506001821680610b7957607f821691505b602082108103610b8c57610b8b610b32565b5b50919050565b7f4e487b7100000000000000000000000000000000000000000000000000000000600052603260045260246000fd5b600081905092915050565b60008190508160005260206000209050919050565b60008154610bee81610b61565b610bf88186610bc1565b94506001821660008114610c135760018114610c2857610c5b565b60ff1983168652811515820286019350610c5b565b610c3185610bcc565b60005b83811015610c5357815481890152600182019150602081019050610c34565b838801955050505b50505092915050565b6000610c708284610be1565b915081905092915050565b7f4e487b7100000000000000000000000000000000000000000000000000000000600052601160045260246000fd5b6000819050919050565b6000610cbf82610caa565b91507fffffffffffffffffffffffffffffffffffffffffffffffffffffffffffffffff8203610cf157610cf0610c7b565b5b600182019050919050565b6000610d078261073b565b610d118185610bc1565b9350610d21818560208601610757565b80840191505092915050565b6000610d398284610cfc565b915081905092915050565b600082825260208201905092915050565b6000610d608261073b565b610d6a8185610d44565b9350610d7a818560208601610757565b610d8381610781565b840191505092915050565b60006020820190508181036000830152610da88184610d55565b905092915050565b60006020601f8301049050919050565b600082821b905092915050565b600060088302610dfd7fffffffffffffffffffffffffffffffffffffffffffffffffffffffffffffffff82610dc0565b610e078683610dc0565b95508019841693508086168417925050509392505050565b6000819050919050565b6000610e44610e3f610e3a84610caa565b610e1f565b610caa565b9050919050565b6000819050919050565b610e5e83610e29565b610e72610e6a82610e4b565b848454610dcd565b825550505050565b600090565b610e87610e7a565b610e92818484610e55565b505050565b5b81811015610eb657610eab600082610e7f565b600181019050610e98565b5050565b601f821115610efb57610ecc81610bcc565b610ed584610db0565b81016020851015610ee4578190505b610ef8610ef085610db0565b830182610e97565b50505b505050565b600082821c905092915050565b6000610f1e60001984600802610f00565b1980831691505092915050565b6000610f378383610f0d565b9150826002028217905092915050565b610f508261073b565b67ffffffffffffffff811115610f6957610f686108ff565b5b610f738254610b61565b610f7e828285610eba565b600060209050601f831160018114610fb15760008415610f9f578287015190505b610fa98582610f2b565b865550611011565b601f198416610fbf86610bcc565b60005b82811015610fe757848901518255600182019150602085019450602081019050610fc2565b868310156110045784890151611000601f891682610f0d565b8355505b6001600288020188555050505b50505050505056fea2646970667358221220a70977d101fdde04359198660e8dbb9614c6cb3dc22df53d8d9249faf6d14bb464736f6c63430008110033",
			"opcodes": "PUSH1 0x80 PUSH1 0x40 MSTORE CALLVALUE DUP1 ISZERO PUSH3 0x11 JUMPI PUSH1 0x0 DUP1 REVERT JUMPDEST POP PUSH1 0x40 MLOAD DUP1 PUSH2 0x120 ADD PUSH1 0x40 MSTORE DUP1 PUSH1 0x40 MLOAD DUP1 PUSH1 0x40 ADD PUSH1 0x40 MSTORE DUP1 PUSH1 0x8 DUP2 MSTORE PUSH1 0x20 ADD PUSH32 0x546872696C6C6572000000000000000000000000000000000000000000000000 DUP2 MSTORE POP DUP2 MSTORE PUSH1 0x20 ADD PUSH1 0x40 MLOAD DUP1 PUSH1 0x40 ADD PUSH1 0x40 MSTORE DUP1 PUSH1 0xD DUP2 MSTORE PUSH1 0x20 ADD PUSH32 0x4261636B20696E20426C61636B00000000000000000000000000000000000000 DUP2 MSTORE POP DUP2 MSTORE PUSH1 0x20 ADD PUSH1 0x40 MLOAD DUP1 PUSH1 0x40 ADD PUSH1 0x40 MSTORE DUP1 PUSH1 0xD DUP2 MSTORE PUSH1 0x20 ADD PUSH32 0x54686520426F6479677561726400000000000000000000000000000000000000 DUP2 MSTORE POP DUP2 MSTORE PUSH1 0x20 ADD PUSH1 0x40 MLOAD DUP1 PUSH1 0x40 ADD PUSH1 0x40 MSTORE DUP1 PUSH1 0x19 DUP2 MSTORE PUSH1 0x20 ADD PUSH32 0x546865204461726B2053696465206F6620746865204D6F6F6E00000000000000 DUP2 MSTORE POP DUP2 MSTORE PUSH1 0x20 ADD PUSH1 0x40 MLOAD DUP1 PUSH1 0x40 ADD PUSH1 0x40 MSTORE DUP1 PUSH1 0x1F DUP2 MSTORE PUSH1 0x20 ADD PUSH32 0x546865697220477265617465737420486974732028313937312D313937352900 DUP2 MSTORE POP DUP2 MSTORE PUSH1 0x20 ADD PUSH1 0x40 MLOAD DUP1 PUSH1 0x40 ADD PUSH1 0x40 MSTORE DUP1 PUSH1 0x10 DUP2 MSTORE PUSH1 0x20 ADD PUSH32 0x486F74656C2043616C69666F726E696100000000000000000000000000000000 DUP2 MSTORE POP DUP2 MSTORE PUSH1 0x20 ADD PUSH1 0x40 MLOAD DUP1 PUSH1 0x40 ADD PUSH1 0x40 MSTORE DUP1 PUSH1 0xC DUP2 MSTORE PUSH1 0x20 ADD PUSH32 0x436F6D65204F6E204F7665720000000000000000000000000000000000000000 DUP2 MSTORE POP DUP2 MSTORE PUSH1 0x20 ADD PUSH1 0x40 MLOAD DUP1 PUSH1 0x40 ADD PUSH1 0x40 MSTORE DUP1 PUSH1 0x7 DUP2 MSTORE PUSH1 0x20 ADD PUSH32 0x52756D6F75727300000000000000000000000000000000000000000000000000 DUP2 MSTORE POP DUP2 MSTORE PUSH1 0x20 ADD PUSH1 0x40 MLOAD DUP1 PUSH1 0x40 ADD PUSH1 0x40 MSTORE DUP1 PUSH1 0x14 DUP2 MSTORE PUSH1 0x20 ADD PUSH32 0x5361747572646179204E69676874204665766572000000000000000000000000 DUP2 MSTORE POP DUP2 MSTORE POP PUSH1 0x1 SWAP1 PUSH1 0x9 PUSH3 0x241 SWAP3 SWAP2 SWAP1 PUSH3 0x2C9 JUMP JUMPDEST POP PUSH1 0x0 JUMPDEST PUSH1 0x1 DUP1 SLOAD SWAP1 POP DUP2 LT ISZERO PUSH3 0x2C2 JUMPI PUSH1 0x1 PUSH1 0x0 PUSH1 0x1 DUP4 DUP2 SLOAD DUP2 LT PUSH3 0x26E JUMPI PUSH3 0x26D PUSH3 0x3B6 JUMP JUMPDEST JUMPDEST SWAP1 PUSH1 0x0 MSTORE PUSH1 0x20 PUSH1 0x0 KECCAK256 ADD PUSH1 0x40 MLOAD PUSH3 0x287 SWAP2 SWAP1 PUSH3 0x4F8 JUMP JUMPDEST SWAP1 DUP2 MSTORE PUSH1 0x20 ADD PUSH1 0x40 MLOAD DUP1 SWAP2 SUB SWAP1 KECCAK256 PUSH1 0x0 PUSH2 0x100 EXP DUP2 SLOAD DUP2 PUSH1 0xFF MUL NOT AND SWAP1 DUP4 ISZERO ISZERO MUL OR SWAP1 SSTORE POP DUP1 DUP1 PUSH3 0x2B9 SWAP1 PUSH3 0x54A JUMP JUMPDEST SWAP2 POP POP PUSH3 0x245 JUMP JUMPDEST POP PUSH3 0x875 JUMP JUMPDEST DUP3 DUP1 SLOAD DUP3 DUP3 SSTORE SWAP1 PUSH1 0x0 MSTORE PUSH1 0x20 PUSH1 0x0 KECCAK256 SWAP1 DUP2 ADD SWAP3 DUP3 ISZERO PUSH3 0x316 JUMPI SWAP2 PUSH1 0x20 MUL DUP3 ADD JUMPDEST DUP3 DUP2 GT ISZERO PUSH3 0x315 JUMPI DUP3 MLOAD DUP3 SWAP1 DUP2 PUSH3 0x304 SWAP2 SWAP1 PUSH3 0x78E JUMP JUMPDEST POP SWAP2 PUSH1 0x20 ADD SWAP2 SWAP1 PUSH1 0x1 ADD SWAP1 PUSH3 0x2EA JUMP JUMPDEST JUMPDEST POP SWAP1 POP PUSH3 0x325 SWAP2 SWAP1 PUSH3 0x329 JUMP JUMPDEST POP SWAP1 JUMP JUMPDEST JUMPDEST DUP1 DUP3 GT ISZERO PUSH3 0x34D JUMPI PUSH1 0x0 DUP2 DUP2 PUSH3 0x343 SWAP2 SWAP1 PUSH3 0x351 JUMP JUMPDEST POP PUSH1 0x1 ADD PUSH3 0x32A JUMP JUMPDEST POP SWAP1 JUMP JUMPDEST POP DUP1 SLOAD PUSH3 0x35F SWAP1 PUSH3 0x414 JUMP JUMPDEST PUSH1 0x0 DUP3 SSTORE DUP1 PUSH1 0x1F LT PUSH3 0x373 JUMPI POP PUSH3 0x394 JUMP JUMPDEST PUSH1 0x1F ADD PUSH1 0x20 SWAP1 DIV SWAP1 PUSH1 0x0 MSTORE PUSH1 0x20 PUSH1 0x0 KECCAK256 SWAP1 DUP2 ADD SWAP1 PUSH3 0x393 SWAP2 SWAP1 PUSH3 0x397 JUMP JUMPDEST JUMPDEST POP JUMP JUMPDEST JUMPDEST DUP1 DUP3 GT ISZERO PUSH3 0x3B2 JUMPI PUSH1 0x0 DUP2 PUSH1 0x0 SWAP1 SSTORE POP PUSH1 0x1 ADD PUSH3 0x398 JUMP JUMPDEST POP SWAP1 JUMP JUMPDEST PUSH32 0x4E487B7100000000000000000000000000000000000000000000000000000000 PUSH1 0x0 MSTORE PUSH1 0x32 PUSH1 0x4 MSTORE PUSH1 0x24 PUSH1 0x0 REVERT JUMPDEST PUSH32 0x4E487B7100000000000000000000000000000000000000000000000000000000 PUSH1 0x0 MSTORE PUSH1 0x22 PUSH1 0x4 MSTORE PUSH1 0x24 PUSH1 0x0 REVERT JUMPDEST PUSH1 0x0 PUSH1 0x2 DUP3 DIV SWAP1 POP PUSH1 0x1 DUP3 AND DUP1 PUSH3 0x42D JUMPI PUSH1 0x7F DUP3 AND SWAP2 POP JUMPDEST PUSH1 0x20 DUP3 LT DUP2 SUB PUSH3 0x443 JUMPI PUSH3 0x442 PUSH3 0x3E5 JUMP JUMPDEST JUMPDEST POP SWAP2 SWAP1 POP JUMP JUMPDEST PUSH1 0x0 DUP2 SWAP1 POP SWAP3 SWAP2 POP POP JUMP JUMPDEST PUSH1 0x0 DUP2 SWAP1 POP DUP2 PUSH1 0x0 MSTORE PUSH1 0x20 PUSH1 0x0 KECCAK256 SWAP1 POP SWAP2 SWAP1 POP JUMP JUMPDEST PUSH1 0x0 DUP2 SLOAD PUSH3 0x478 DUP2 PUSH3 0x414 JUMP JUMPDEST PUSH3 0x484 DUP2 DUP7 PUSH3 0x449 JUMP JUMPDEST SWAP5 POP PUSH1 0x1 DUP3 AND PUSH1 0x0 DUP2 EQ PUSH3 0x4A2 JUMPI PUSH1 0x1 DUP2 EQ PUSH3 0x4B8 JUMPI PUSH3 0x4EF JUMP JUMPDEST PUSH1 0xFF NOT DUP4 AND DUP7 MSTORE DUP2 ISZERO ISZERO DUP3 MUL DUP7 ADD SWAP4 POP PUSH3 0x4EF JUMP JUMPDEST PUSH3 0x4C3 DUP6 PUSH3 0x454 JUMP JUMPDEST PUSH1 0x0 JUMPDEST DUP4 DUP2 LT ISZERO PUSH3 0x4E7 JUMPI DUP2 SLOAD DUP2 DUP10 ADD MSTORE PUSH1 0x1 DUP3 ADD SWAP2 POP PUSH1 0x20 DUP2 ADD SWAP1 POP PUSH3 0x4C6 JUMP JUMPDEST DUP4 DUP9 ADD SWAP6 POP POP POP JUMPDEST POP POP POP SWAP3 SWAP2 POP POP JUMP JUMPDEST PUSH1 0x0 PUSH3 0x506 DUP3 DUP5 PUSH3 0x469 JUMP JUMPDEST SWAP2 POP DUP2 SWAP1 POP SWAP3 SWAP2 POP POP JUMP JUMPDEST PUSH32 0x4E487B7100000000000000000000000000000000000000000000000000000000 PUSH1 0x0 MSTORE PUSH1 0x11 PUSH1 0x4 MSTORE PUSH1 0x24 PUSH1 0x0 REVERT JUMPDEST PUSH1 0x0 DUP2 SWAP1 POP SWAP2 SWAP1 POP JUMP JUMPDEST PUSH1 0x0 PUSH3 0x557 DUP3 PUSH3 0x540 JUMP JUMPDEST SWAP2 POP PUSH32 0xFFFFFFFFFFFFFFFFFFFFFFFFFFFFFFFFFFFFFFFFFFFFFFFFFFFFFFFFFFFFFFFF DUP3 SUB PUSH3 0x58C JUMPI PUSH3 0x58B PUSH3 0x511 JUMP JUMPDEST JUMPDEST PUSH1 0x1 DUP3 ADD SWAP1 POP SWAP2 SWAP1 POP JUMP JUMPDEST PUSH1 0x0 DUP2 MLOAD SWAP1 POP SWAP2 SWAP1 POP JUMP JUMPDEST PUSH32 0x4E487B7100000000000000000000000000000000000000000000000000000000 PUSH1 0x0 MSTORE PUSH1 0x41 PUSH1 0x4 MSTORE PUSH1 0x24 PUSH1 0x0 REVERT JUMPDEST PUSH1 0x0 PUSH1 0x20 PUSH1 0x1F DUP4 ADD DIV SWAP1 POP SWAP2 SWAP1 POP JUMP JUMPDEST PUSH1 0x0 DUP3 DUP3 SHL SWAP1 POP SWAP3 SWAP2 POP POP JUMP JUMPDEST PUSH1 0x0 PUSH1 0x8 DUP4 MUL PUSH3 0x620 PUSH32 0xFFFFFFFFFFFFFFFFFFFFFFFFFFFFFFFFFFFFFFFFFFFFFFFFFFFFFFFFFFFFFFFF DUP3 PUSH3 0x5E1 JUMP JUMPDEST PUSH3 0x62C DUP7 DUP4 PUSH3 0x5E1 JUMP JUMPDEST SWAP6 POP DUP1 NOT DUP5 AND SWAP4 POP DUP1 DUP7 AND DUP5 OR SWAP3 POP POP POP SWAP4 SWAP3 POP POP POP JUMP JUMPDEST PUSH1 0x0 DUP2 SWAP1 POP SWAP2 SWAP1 POP JUMP JUMPDEST PUSH1 0x0 PUSH3 0x66F PUSH3 0x669 PUSH3 0x663 DUP5 PUSH3 0x540 JUMP JUMPDEST PUSH3 0x644 JUMP JUMPDEST PUSH3 0x540 JUMP JUMPDEST SWAP1 POP SWAP2 SWAP1 POP JUMP JUMPDEST PUSH1 0x0 DUP2 SWAP1 POP SWAP2 SWAP1 POP JUMP JUMPDEST PUSH3 0x68B DUP4 PUSH3 0x64E JUMP JUMPDEST PUSH3 0x6A3 PUSH3 0x69A DUP3 PUSH3 0x676 JUMP JUMPDEST DUP5 DUP5 SLOAD PUSH3 0x5EE JUMP JUMPDEST DUP3 SSTORE POP POP POP POP JUMP JUMPDEST PUSH1 0x0 SWAP1 JUMP JUMPDEST PUSH3 0x6BA PUSH3 0x6AB JUMP JUMPDEST PUSH3 0x6C7 DUP2 DUP5 DUP5 PUSH3 0x680 JUMP JUMPDEST POP POP POP JUMP JUMPDEST JUMPDEST DUP2 DUP2 LT ISZERO PUSH3 0x6EF JUMPI PUSH3 0x6E3 PUSH1 0x0 DUP3 PUSH3 0x6B0 JUMP JUMPDEST PUSH1 0x1 DUP2 ADD SWAP1 POP PUSH3 0x6CD JUMP JUMPDEST POP POP JUMP JUMPDEST PUSH1 0x1F DUP3 GT ISZERO PUSH3 0x73E JUMPI PUSH3 0x708 DUP2 PUSH3 0x454 JUMP JUMPDEST PUSH3 0x713 DUP5 PUSH3 0x5D1 JUMP JUMPDEST DUP2 ADD PUSH1 0x20 DUP6 LT ISZERO PUSH3 0x723 JUMPI DUP2 SWAP1 POP JUMPDEST PUSH3 0x73B PUSH3 0x732 DUP6 PUSH3 0x5D1 JUMP JUMPDEST DUP4 ADD DUP3 PUSH3 0x6CC JUMP JUMPDEST POP POP JUMPDEST POP POP POP JUMP JUMPDEST PUSH1 0x0 DUP3 DUP3 SHR SWAP1 POP SWAP3 SWAP2 POP POP JUMP JUMPDEST PUSH1 0x0 PUSH3 0x763 PUSH1 0x0 NOT DUP5 PUSH1 0x8 MUL PUSH3 0x743 JUMP JUMPDEST NOT DUP1 DUP4 AND SWAP2 POP POP SWAP3 SWAP2 POP POP JUMP JUMPDEST PUSH1 0x0 PUSH3 0x77E DUP4 DUP4 PUSH3 0x750 JUMP JUMPDEST SWAP2 POP DUP3 PUSH1 0x2 MUL DUP3 OR SWAP1 POP SWAP3 SWAP2 POP POP JUMP JUMPDEST PUSH3 0x799 DUP3 PUSH3 0x597 JUMP JUMPDEST PUSH8 0xFFFFFFFFFFFFFFFF DUP2 GT ISZERO PUSH3 0x7B5 JUMPI PUSH3 0x7B4 PUSH3 0x5A2 JUMP JUMPDEST JUMPDEST PUSH3 0x7C1 DUP3 SLOAD PUSH3 0x414 JUMP JUMPDEST PUSH3 0x7CE DUP3 DUP3 DUP6 PUSH3 0x6F3 JUMP JUMPDEST PUSH1 0x0 PUSH1 0x20 SWAP1 POP PUSH1 0x1F DUP4 GT PUSH1 0x1 DUP2 EQ PUSH3 0x806 JUMPI PUSH1 0x0 DUP5 ISZERO PUSH3 0x7F1 JUMPI DUP3 DUP8 ADD MLOAD SWAP1 POP JUMPDEST PUSH3 0x7FD DUP6 DUP3 PUSH3 0x770 JUMP JUMPDEST DUP7 SSTORE POP PUSH3 0x86D JUMP JUMPDEST PUSH1 0x1F NOT DUP5 AND PUSH3 0x816 DUP7 PUSH3 0x454 JUMP JUMPDEST PUSH1 0x0 JUMPDEST DUP3 DUP2 LT ISZERO PUSH3 0x840 JUMPI DUP5 DUP10 ADD MLOAD DUP3 SSTORE PUSH1 0x1 DUP3 ADD SWAP2 POP PUSH1 0x20 DUP6 ADD SWAP5 POP PUSH1 0x20 DUP2 ADD SWAP1 POP PUSH3 0x819 JUMP JUMPDEST DUP7 DUP4 LT ISZERO PUSH3 0x860 JUMPI DUP5 DUP10 ADD MLOAD PUSH3 0x85C PUSH1 0x1F DUP10 AND DUP3 PUSH3 0x750 JUMP JUMPDEST DUP4 SSTORE POP JUMPDEST PUSH1 0x1 PUSH1 0x2 DUP9 MUL ADD DUP9 SSTORE POP POP POP JUMPDEST POP POP POP POP POP POP JUMP JUMPDEST PUSH2 0x104F DUP1 PUSH3 0x885 PUSH1 0x0 CODECOPY PUSH1 0x0 RETURN INVALID PUSH1 0x80 PUSH1 0x40 MSTORE CALLVALUE DUP1 ISZERO PUSH2 0x10 JUMPI PUSH1 0x0 DUP1 REVERT JUMPDEST POP PUSH1 0x4 CALLDATASIZE LT PUSH2 0x57 JUMPI PUSH1 0x0 CALLDATALOAD PUSH1 0xE0 SHR DUP1 PUSH4 0x1CF0830B EQ PUSH2 0x5C JUMPI DUP1 PUSH4 0x837F8878 EQ PUSH2 0x7A JUMPI DUP1 PUSH4 0xC75C333C EQ PUSH2 0x84 JUMPI DUP1 PUSH4 0xC7853148 EQ PUSH2 0xB4 JUMPI DUP1 PUSH4 0xD81AA8C4 EQ PUSH2 0xE4 JUMPI JUMPDEST PUSH1 0x0 DUP1 REVERT JUMPDEST PUSH2 0x64 PUSH2 0x100 JUMP JUMPDEST PUSH1 0x40 MLOAD PUSH2 0x71 SWAP2 SWAP1 PUSH2 0x861 JUMP JUMPDEST PUSH1 0x40 MLOAD DUP1 SWAP2 SUB SWAP1 RETURN JUMPDEST PUSH2 0x82 PUSH2 0x1D9 JUMP JUMPDEST STOP JUMPDEST PUSH2 0x9E PUSH1 0x4 DUP1 CALLDATASIZE SUB DUP2 ADD SWAP1 PUSH2 0x99 SWAP2 SWAP1 PUSH2 0xA2A JUMP JUMPDEST PUSH2 0x34C JUMP JUMPDEST PUSH1 0x40 MLOAD PUSH2 0xAB SWAP2 SWAP1 PUSH2 0xAA1 JUMP JUMPDEST PUSH1 0x40 MLOAD DUP1 SWAP2 SUB SWAP1 RETURN JUMPDEST PUSH2 0xCE PUSH1 0x4 DUP1 CALLDATASIZE SUB DUP2 ADD SWAP1 PUSH2 0xC9 SWAP2 SWAP1 PUSH2 0xABC JUMP JUMPDEST PUSH2 0x391 JUMP JUMPDEST PUSH1 0x40 MLOAD PUSH2 0xDB SWAP2 SWAP1 PUSH2 0x861 JUMP JUMPDEST PUSH1 0x40 MLOAD DUP1 SWAP2 SUB SWAP1 RETURN JUMPDEST PUSH2 0xFE PUSH1 0x4 DUP1 CALLDATASIZE SUB DUP2 ADD SWAP1 PUSH2 0xF9 SWAP2 SWAP1 PUSH2 0xAE9 JUMP JUMPDEST PUSH2 0x4A9 JUMP JUMPDEST STOP JUMPDEST PUSH1 0x60 PUSH1 0x1 DUP1 SLOAD DUP1 PUSH1 0x20 MUL PUSH1 0x20 ADD PUSH1 0x40 MLOAD SWAP1 DUP2 ADD PUSH1 0x40 MSTORE DUP1 SWAP3 SWAP2 SWAP1 DUP2 DUP2 MSTORE PUSH1 0x20 ADD PUSH1 0x0 SWAP1 JUMPDEST DUP3 DUP3 LT ISZERO PUSH2 0x1D0 JUMPI DUP4 DUP3 SWAP1 PUSH1 0x0 MSTORE PUSH1 0x20 PUSH1 0x0 KECCAK256 ADD DUP1 SLOAD PUSH2 0x143 SWAP1 PUSH2 0xB61 JUMP JUMPDEST DUP1 PUSH1 0x1F ADD PUSH1 0x20 DUP1 SWAP2 DIV MUL PUSH1 0x20 ADD PUSH1 0x40 MLOAD SWAP1 DUP2 ADD PUSH1 0x40 MSTORE DUP1 SWAP3 SWAP2 SWAP1 DUP2 DUP2 MSTORE PUSH1 0x20 ADD DUP3 DUP1 SLOAD PUSH2 0x16F SWAP1 PUSH2 0xB61 JUMP JUMPDEST DUP1 ISZERO PUSH2 0x1BC JUMPI DUP1 PUSH1 0x1F LT PUSH2 0x191 JUMPI PUSH2 0x100 DUP1 DUP4 SLOAD DIV MUL DUP4 MSTORE SWAP2 PUSH1 0x20 ADD SWAP2 PUSH2 0x1BC JUMP JUMPDEST DUP3 ADD SWAP2 SWAP1 PUSH1 0x0 MSTORE PUSH1 0x20 PUSH1 0x0 KECCAK256 SWAP1 JUMPDEST DUP2 SLOAD DUP2 MSTORE SWAP1 PUSH1 0x1 ADD SWAP1 PUSH1 0x20 ADD DUP1 DUP4 GT PUSH2 0x19F JUMPI DUP3 SWAP1 SUB PUSH1 0x1F AND DUP3 ADD SWAP2 JUMPDEST POP POP POP POP POP DUP2 MSTORE PUSH1 0x20 ADD SWAP1 PUSH1 0x1 ADD SWAP1 PUSH2 0x124 JUMP JUMPDEST POP POP POP POP SWAP1 POP SWAP1 JUMP JUMPDEST PUSH1 0x0 JUMPDEST PUSH1 0x3 PUSH1 0x0 CALLER PUSH20 0xFFFFFFFFFFFFFFFFFFFFFFFFFFFFFFFFFFFFFFFF AND PUSH20 0xFFFFFFFFFFFFFFFFFFFFFFFFFFFFFFFFFFFFFFFF AND DUP2 MSTORE PUSH1 0x20 ADD SWAP1 DUP2 MSTORE PUSH1 0x20 ADD PUSH1 0x0 KECCAK256 DUP1 SLOAD SWAP1 POP DUP2 LT ISZERO PUSH2 0x2FE JUMPI PUSH1 0x2 PUSH1 0x0 CALLER PUSH20 0xFFFFFFFFFFFFFFFFFFFFFFFFFFFFFFFFFFFFFFFF AND PUSH20 0xFFFFFFFFFFFFFFFFFFFFFFFFFFFFFFFFFFFFFFFF AND DUP2 MSTORE PUSH1 0x20 ADD SWAP1 DUP2 MSTORE PUSH1 0x20 ADD PUSH1 0x0 KECCAK256 PUSH1 0x3 PUSH1 0x0 CALLER PUSH20 0xFFFFFFFFFFFFFFFFFFFFFFFFFFFFFFFFFFFFFFFF AND PUSH20 0xFFFFFFFFFFFFFFFFFFFFFFFFFFFFFFFFFFFFFFFF AND DUP2 MSTORE PUSH1 0x20 ADD SWAP1 DUP2 MSTORE PUSH1 0x20 ADD PUSH1 0x0 KECCAK256 DUP3 DUP2 SLOAD DUP2 LT PUSH2 0x2B6 JUMPI PUSH2 0x2B5 PUSH2 0xB92 JUMP JUMPDEST JUMPDEST SWAP1 PUSH1 0x0 MSTORE PUSH1 0x20 PUSH1 0x0 KECCAK256 ADD PUSH1 0x40 MLOAD PUSH2 0x2CD SWAP2 SWAP1 PUSH2 0xC64 JUMP JUMPDEST SWAP1 DUP2 MSTORE PUSH1 0x20 ADD PUSH1 0x40 MLOAD DUP1 SWAP2 SUB SWAP1 KECCAK256 PUSH1 0x0 PUSH2 0x100 EXP DUP2 SLOAD SWAP1 PUSH1 0xFF MUL NOT AND SWAP1 SSTORE DUP1 DUP1 PUSH2 0x2F6 SWAP1 PUSH2 0xCB4 JUMP JUMPDEST SWAP2 POP POP PUSH2 0x1DC JUMP JUMPDEST POP PUSH1 0x3 PUSH1 0x0 CALLER PUSH20 0xFFFFFFFFFFFFFFFFFFFFFFFFFFFFFFFFFFFFFFFF AND PUSH20 0xFFFFFFFFFFFFFFFFFFFFFFFFFFFFFFFFFFFFFFFF AND DUP2 MSTORE PUSH1 0x20 ADD SWAP1 DUP2 MSTORE PUSH1 0x20 ADD PUSH1 0x0 KECCAK256 PUSH1 0x0 PUSH2 0x34A SWAP2 SWAP1 PUSH2 0x66D JUMP JUMPDEST JUMP JUMPDEST PUSH1 0x2 PUSH1 0x20 MSTORE DUP2 PUSH1 0x0 MSTORE PUSH1 0x40 PUSH1 0x0 KECCAK256 DUP2 DUP1 MLOAD PUSH1 0x20 DUP2 ADD DUP3 ADD DUP1 MLOAD DUP5 DUP3 MSTORE PUSH1 0x20 DUP4 ADD PUSH1 0x20 DUP6 ADD KECCAK256 DUP2 DUP4 MSTORE DUP1 SWAP6 POP POP POP POP POP POP PUSH1 0x0 SWAP2 POP SWAP2 POP SWAP1 SLOAD SWAP1 PUSH2 0x100 EXP SWAP1 DIV PUSH1 0xFF AND DUP2 JUMP JUMPDEST PUSH1 0x60 PUSH1 0x3 PUSH1 0x0 DUP4 PUSH20 0xFFFFFFFFFFFFFFFFFFFFFFFFFFFFFFFFFFFFFFFF AND PUSH20 0xFFFFFFFFFFFFFFFFFFFFFFFFFFFFFFFFFFFFFFFF AND DUP2 MSTORE PUSH1 0x20 ADD SWAP1 DUP2 MSTORE PUSH1 0x20 ADD PUSH1 0x0 KECCAK256 DUP1 SLOAD DUP1 PUSH1 0x20 MUL PUSH1 0x20 ADD PUSH1 0x40 MLOAD SWAP1 DUP2 ADD PUSH1 0x40 MSTORE DUP1 SWAP3 SWAP2 SWAP1 DUP2 DUP2 MSTORE PUSH1 0x20 ADD PUSH1 0x0 SWAP1 JUMPDEST DUP3 DUP3 LT ISZERO PUSH2 0x49E JUMPI DUP4 DUP3 SWAP1 PUSH1 0x0 MSTORE PUSH1 0x20 PUSH1 0x0 KECCAK256 ADD DUP1 SLOAD PUSH2 0x411 SWAP1 PUSH2 0xB61 JUMP JUMPDEST DUP1 PUSH1 0x1F ADD PUSH1 0x20 DUP1 SWAP2 DIV MUL PUSH1 0x20 ADD PUSH1 0x40 MLOAD SWAP1 DUP2 ADD PUSH1 0x40 MSTORE DUP1 SWAP3 SWAP2 SWAP1 DUP2 DUP2 MSTORE PUSH1 0x20 ADD DUP3 DUP1 SLOAD PUSH2 0x43D SWAP1 PUSH2 0xB61 JUMP JUMPDEST DUP1 ISZERO PUSH2 0x48A JUMPI DUP1 PUSH1 0x1F LT PUSH2 0x45F JUMPI PUSH2 0x100 DUP1 DUP4 SLOAD DIV MUL DUP4 MSTORE SWAP2 PUSH1 0x20 ADD SWAP2 PUSH2 0x48A JUMP JUMPDEST DUP3 ADD SWAP2 SWAP1 PUSH1 0x0 MSTORE PUSH1 0x20 PUSH1 0x0 KECCAK256 SWAP1 JUMPDEST DUP2 SLOAD DUP2 MSTORE SWAP1 PUSH1 0x1 ADD SWAP1 PUSH1 0x20 ADD DUP1 DUP4 GT PUSH2 0x46D JUMPI DUP3 SWAP1 SUB PUSH1 0x1F AND DUP3 ADD SWAP2 JUMPDEST POP POP POP POP POP DUP2 MSTORE PUSH1 0x20 ADD SWAP1 PUSH1 0x1 ADD SWAP1 PUSH2 0x3F2 JUMP JUMPDEST POP POP POP POP SWAP1 POP SWAP2 SWAP1 POP JUMP JUMPDEST PUSH1 0x0 DUP2 PUSH1 0x40 MLOAD PUSH2 0x4B9 SWAP2 SWAP1 PUSH2 0xD2D JUMP JUMPDEST SWAP1 DUP2 MSTORE PUSH1 0x20 ADD PUSH1 0x40 MLOAD DUP1 SWAP2 SUB SWAP1 KECCAK256 PUSH1 0x0 SWAP1 SLOAD SWAP1 PUSH2 0x100 EXP SWAP1 DIV PUSH1 0xFF AND PUSH2 0x516 JUMPI DUP1 PUSH1 0x40 MLOAD PUSH32 0x4F0FFC1B00000000000000000000000000000000000000000000000000000000 DUP2 MSTORE PUSH1 0x4 ADD PUSH2 0x50D SWAP2 SWAP1 PUSH2 0xD8E JUMP JUMPDEST PUSH1 0x40 MLOAD DUP1 SWAP2 SUB SWAP1 REVERT JUMPDEST PUSH1 0x2 PUSH1 0x0 CALLER PUSH20 0xFFFFFFFFFFFFFFFFFFFFFFFFFFFFFFFFFFFFFFFF AND PUSH20 0xFFFFFFFFFFFFFFFFFFFFFFFFFFFFFFFFFFFFFFFF AND DUP2 MSTORE PUSH1 0x20 ADD SWAP1 DUP2 MSTORE PUSH1 0x20 ADD PUSH1 0x0 KECCAK256 DUP2 PUSH1 0x40 MLOAD PUSH2 0x563 SWAP2 SWAP1 PUSH2 0xD2D JUMP JUMPDEST SWAP1 DUP2 MSTORE PUSH1 0x20 ADD PUSH1 0x40 MLOAD DUP1 SWAP2 SUB SWAP1 KECCAK256 PUSH1 0x0 SWAP1 SLOAD SWAP1 PUSH2 0x100 EXP SWAP1 DIV PUSH1 0xFF AND PUSH2 0x66A JUMPI PUSH1 0x1 PUSH1 0x2 PUSH1 0x0 CALLER PUSH20 0xFFFFFFFFFFFFFFFFFFFFFFFFFFFFFFFFFFFFFFFF AND PUSH20 0xFFFFFFFFFFFFFFFFFFFFFFFFFFFFFFFFFFFFFFFF AND DUP2 MSTORE PUSH1 0x20 ADD SWAP1 DUP2 MSTORE PUSH1 0x20 ADD PUSH1 0x0 KECCAK256 DUP3 PUSH1 0x40 MLOAD PUSH2 0x5D2 SWAP2 SWAP1 PUSH2 0xD2D JUMP JUMPDEST SWAP1 DUP2 MSTORE PUSH1 0x20 ADD PUSH1 0x40 MLOAD DUP1 SWAP2 SUB SWAP1 KECCAK256 PUSH1 0x0 PUSH2 0x100 EXP DUP2 SLOAD DUP2 PUSH1 0xFF MUL NOT AND SWAP1 DUP4 ISZERO ISZERO MUL OR SWAP1 SSTORE POP PUSH1 0x3 PUSH1 0x0 CALLER PUSH20 0xFFFFFFFFFFFFFFFFFFFFFFFFFFFFFFFFFFFFFFFF AND PUSH20 0xFFFFFFFFFFFFFFFFFFFFFFFFFFFFFFFFFFFFFFFF AND DUP2 MSTORE PUSH1 0x20 ADD SWAP1 DUP2 MSTORE PUSH1 0x20 ADD PUSH1 0x0 KECCAK256 DUP2 SWAP1 DUP1 PUSH1 0x1 DUP2 SLOAD ADD DUP1 DUP3 SSTORE DUP1 SWAP2 POP POP PUSH1 0x1 SWAP1 SUB SWAP1 PUSH1 0x0 MSTORE PUSH1 0x20 PUSH1 0x0 KECCAK256 ADD PUSH1 0x0 SWAP1 SWAP2 SWAP1 SWAP2 SWAP1 SWAP2 POP SWAP1 DUP2 PUSH2 0x668 SWAP2 SWAP1 PUSH2 0xF47 JUMP JUMPDEST POP JUMPDEST POP JUMP JUMPDEST POP DUP1 SLOAD PUSH1 0x0 DUP3 SSTORE SWAP1 PUSH1 0x0 MSTORE PUSH1 0x20 PUSH1 0x0 KECCAK256 SWAP1 DUP2 ADD SWAP1 PUSH2 0x68B SWAP2 SWAP1 PUSH2 0x68E JUMP JUMPDEST POP JUMP JUMPDEST JUMPDEST DUP1 DUP3 GT ISZERO PUSH2 0x6AE JUMPI PUSH1 0x0 DUP2 DUP2 PUSH2 0x6A5 SWAP2 SWAP1 PUSH2 0x6B2 JUMP JUMPDEST POP PUSH1 0x1 ADD PUSH2 0x68F JUMP JUMPDEST POP SWAP1 JUMP JUMPDEST POP DUP1 SLOAD PUSH2 0x6BE SWAP1 PUSH2 0xB61 JUMP JUMPDEST PUSH1 0x0 DUP3 SSTORE DUP1 PUSH1 0x1F LT PUSH2 0x6D0 JUMPI POP PUSH2 0x6EF JUMP JUMPDEST PUSH1 0x1F ADD PUSH1 0x20 SWAP1 DIV SWAP1 PUSH1 0x0 MSTORE PUSH1 0x20 PUSH1 0x0 KECCAK256 SWAP1 DUP2 ADD SWAP1 PUSH2 0x6EE SWAP2 SWAP1 PUSH2 0x6F2 JUMP JUMPDEST JUMPDEST POP JUMP JUMPDEST JUMPDEST DUP1 DUP3 GT ISZERO PUSH2 0x70B JUMPI PUSH1 0x0 DUP2 PUSH1 0x0 SWAP1 SSTORE POP PUSH1 0x1 ADD PUSH2 0x6F3 JUMP JUMPDEST POP SWAP1 JUMP JUMPDEST PUSH1 0x0 DUP2 MLOAD SWAP1 POP SWAP2 SWAP1 POP JUMP JUMPDEST PUSH1 0x0 DUP3 DUP3 MSTORE PUSH1 0x20 DUP3 ADD SWAP1 POP SWAP3 SWAP2 POP POP JUMP JUMPDEST PUSH1 0x0 DUP2 SWAP1 POP PUSH1 0x20 DUP3 ADD SWAP1 POP SWAP2 SWAP1 POP JUMP JUMPDEST PUSH1 0x0 DUP2 MLOAD SWAP1 POP SWAP2 SWAP1 POP JUMP JUMPDEST PUSH1 0x0 DUP3 DUP3 MSTORE PUSH1 0x20 DUP3 ADD SWAP1 POP SWAP3 SWAP2 POP POP JUMP JUMPDEST PUSH1 0x0 JUMPDEST DUP4 DUP2 LT ISZERO PUSH2 0x775 JUMPI DUP1 DUP3 ADD MLOAD DUP2 DUP5 ADD MSTORE PUSH1 0x20 DUP2 ADD SWAP1 POP PUSH2 0x75A JUMP JUMPDEST PUSH1 0x0 DUP5 DUP5 ADD MSTORE POP POP POP POP JUMP JUMPDEST PUSH1 0x0 PUSH1 0x1F NOT PUSH1 0x1F DUP4 ADD AND SWAP1 POP SWAP2 SWAP1 POP JUMP JUMPDEST PUSH1 0x0 PUSH2 0x79D DUP3 PUSH2 0x73B JUMP JUMPDEST PUSH2 0x7A7 DUP2 DUP6 PUSH2 0x746 JUMP JUMPDEST SWAP4 POP PUSH2 0x7B7 DUP2 DUP6 PUSH1 0x20 DUP7 ADD PUSH2 0x757 JUMP JUMPDEST PUSH2 0x7C0 DUP2 PUSH2 0x781 JUMP JUMPDEST DUP5 ADD SWAP2 POP POP SWAP3 SWAP2 POP POP JUMP JUMPDEST PUSH1 0x0 PUSH2 0x7D7 DUP4 DUP4 PUSH2 0x792 JUMP JUMPDEST SWAP1 POP SWAP3 SWAP2 POP POP JUMP JUMPDEST PUSH1 0x0 PUSH1 0x20 DUP3 ADD SWAP1 POP SWAP2 SWAP1 POP JUMP JUMPDEST PUSH1 0x0 PUSH2 0x7F7 DUP3 PUSH2 0x70F JUMP JUMPDEST PUSH2 0x801 DUP2 DUP6 PUSH2 0x71A JUMP JUMPDEST SWAP4 POP DUP4 PUSH1 0x20 DUP3 MUL DUP6 ADD PUSH2 0x813 DUP6 PUSH2 0x72B JUMP JUMPDEST DUP1 PUSH1 0x0 JUMPDEST DUP6 DUP2 LT ISZERO PUSH2 0x84F JUMPI DUP5 DUP5 SUB DUP10 MSTORE DUP2 MLOAD PUSH2 0x830 DUP6 DUP3 PUSH2 0x7CB JUMP JUMPDEST SWAP5 POP PUSH2 0x83B DUP4 PUSH2 0x7DF JUMP JUMPDEST SWAP3 POP PUSH1 0x20 DUP11 ADD SWAP10 POP POP PUSH1 0x1 DUP2 ADD SWAP1 POP PUSH2 0x817 JUMP JUMPDEST POP DUP3 SWAP8 POP DUP8 SWAP6 POP POP POP POP POP POP SWAP3 SWAP2 POP POP JUMP JUMPDEST PUSH1 0x0 PUSH1 0x20 DUP3 ADD SWAP1 POP DUP2 DUP2 SUB PUSH1 0x0 DUP4 ADD MSTORE PUSH2 0x87B DUP2 DUP5 PUSH2 0x7EC JUMP JUMPDEST SWAP1 POP SWAP3 SWAP2 POP POP JUMP JUMPDEST PUSH1 0x0 PUSH1 0x40 MLOAD SWAP1 POP SWAP1 JUMP JUMPDEST PUSH1 0x0 DUP1 REVERT JUMPDEST PUSH1 0x0 DUP1 REVERT JUMPDEST PUSH1 0x0 PUSH20 0xFFFFFFFFFFFFFFFFFFFFFFFFFFFFFFFFFFFFFFFF DUP3 AND SWAP1 POP SWAP2 SWAP1 POP JUMP JUMPDEST PUSH1 0x0 PUSH2 0x8C2 DUP3 PUSH2 0x897 JUMP JUMPDEST SWAP1 POP SWAP2 SWAP1 POP JUMP JUMPDEST PUSH2 0x8D2 DUP2 PUSH2 0x8B7 JUMP JUMPDEST DUP2 EQ PUSH2 0x8DD JUMPI PUSH1 0x0 DUP1 REVERT JUMPDEST POP JUMP JUMPDEST PUSH1 0x0 DUP2 CALLDATALOAD SWAP1 POP PUSH2 0x8EF DUP2 PUSH2 0x8C9 JUMP JUMPDEST SWAP3 SWAP2 POP POP JUMP JUMPDEST PUSH1 0x0 DUP1 REVERT JUMPDEST PUSH1 0x0 DUP1 REVERT JUMPDEST PUSH32 0x4E487B7100000000000000000000000000000000000000000000000000000000 PUSH1 0x0 MSTORE PUSH1 0x41 PUSH1 0x4 MSTORE PUSH1 0x24 PUSH1 0x0 REVERT JUMPDEST PUSH2 0x937 DUP3 PUSH2 0x781 JUMP JUMPDEST DUP2 ADD DUP2 DUP2 LT PUSH8 0xFFFFFFFFFFFFFFFF DUP3 GT OR ISZERO PUSH2 0x956 JUMPI PUSH2 0x955 PUSH2 0x8FF JUMP JUMPDEST JUMPDEST DUP1 PUSH1 0x40 MSTORE POP POP POP JUMP JUMPDEST PUSH1 0x0 PUSH2 0x969 PUSH2 0x883 JUMP JUMPDEST SWAP1 POP PUSH2 0x975 DUP3 DUP3 PUSH2 0x92E JUMP JUMPDEST SWAP2 SWAP1 POP JUMP JUMPDEST PUSH1 0x0 PUSH8 0xFFFFFFFFFFFFFFFF DUP3 GT ISZERO PUSH2 0x995 JUMPI PUSH2 0x994 PUSH2 0x8FF JUMP JUMPDEST JUMPDEST PUSH2 0x99E DUP3 PUSH2 0x781 JUMP JUMPDEST SWAP1 POP PUSH1 0x20 DUP2 ADD SWAP1 POP SWAP2 SWAP1 POP JUMP JUMPDEST DUP3 DUP2 DUP4 CALLDATACOPY PUSH1 0x0 DUP4 DUP4 ADD MSTORE POP POP POP JUMP JUMPDEST PUSH1 0x0 PUSH2 0x9CD PUSH2 0x9C8 DUP5 PUSH2 0x97A JUMP JUMPDEST PUSH2 0x95F JUMP JUMPDEST SWAP1 POP DUP3 DUP2 MSTORE PUSH1 0x20 DUP2 ADD DUP5 DUP5 DUP5 ADD GT ISZERO PUSH2 0x9E9 JUMPI PUSH2 0x9E8 PUSH2 0x8FA JUMP JUMPDEST JUMPDEST PUSH2 0x9F4 DUP5 DUP3 DUP6 PUSH2 0x9AB JUMP JUMPDEST POP SWAP4 SWAP3 POP POP POP JUMP JUMPDEST PUSH1 0x0 DUP3 PUSH1 0x1F DUP4 ADD SLT PUSH2 0xA11 JUMPI PUSH2 0xA10 PUSH2 0x8F5 JUMP JUMPDEST JUMPDEST DUP2 CALLDATALOAD PUSH2 0xA21 DUP5 DUP3 PUSH1 0x20 DUP7 ADD PUSH2 0x9BA JUMP JUMPDEST SWAP2 POP POP SWAP3 SWAP2 POP POP JUMP JUMPDEST PUSH1 0x0 DUP1 PUSH1 0x40 DUP4 DUP6 SUB SLT ISZERO PUSH2 0xA41 JUMPI PUSH2 0xA40 PUSH2 0x88D JUMP JUMPDEST JUMPDEST PUSH1 0x0 PUSH2 0xA4F DUP6 DUP3 DUP7 ADD PUSH2 0x8E0 JUMP JUMPDEST SWAP3 POP POP PUSH1 0x20 DUP4 ADD CALLDATALOAD PUSH8 0xFFFFFFFFFFFFFFFF DUP2 GT ISZERO PUSH2 0xA70 JUMPI PUSH2 0xA6F PUSH2 0x892 JUMP JUMPDEST JUMPDEST PUSH2 0xA7C DUP6 DUP3 DUP7 ADD PUSH2 0x9FC JUMP JUMPDEST SWAP2 POP POP SWAP3 POP SWAP3 SWAP1 POP JUMP JUMPDEST PUSH1 0x0 DUP2 ISZERO ISZERO SWAP1 POP SWAP2 SWAP1 POP JUMP JUMPDEST PUSH2 0xA9B DUP2 PUSH2 0xA86 JUMP JUMPDEST DUP3 MSTORE POP POP JUMP JUMPDEST PUSH1 0x0 PUSH1 0x20 DUP3 ADD SWAP1 POP PUSH2 0xAB6 PUSH1 0x0 DUP4 ADD DUP5 PUSH2 0xA92 JUMP JUMPDEST SWAP3 SWAP2 POP POP JUMP JUMPDEST PUSH1 0x0 PUSH1 0x20 DUP3 DUP5 SUB SLT ISZERO PUSH2 0xAD2 JUMPI PUSH2 0xAD1 PUSH2 0x88D JUMP JUMPDEST JUMPDEST PUSH1 0x0 PUSH2 0xAE0 DUP5 DUP3 DUP6 ADD PUSH2 0x8E0 JUMP JUMPDEST SWAP2 POP POP SWAP3 SWAP2 POP POP JUMP JUMPDEST PUSH1 0x0 PUSH1 0x20 DUP3 DUP5 SUB SLT ISZERO PUSH2 0xAFF JUMPI PUSH2 0xAFE PUSH2 0x88D JUMP JUMPDEST JUMPDEST PUSH1 0x0 DUP3 ADD CALLDATALOAD PUSH8 0xFFFFFFFFFFFFFFFF DUP2 GT ISZERO PUSH2 0xB1D JUMPI PUSH2 0xB1C PUSH2 0x892 JUMP JUMPDEST JUMPDEST PUSH2 0xB29 DUP5 DUP3 DUP6 ADD PUSH2 0x9FC JUMP JUMPDEST SWAP2 POP POP SWAP3 SWAP2 POP POP JUMP JUMPDEST PUSH32 0x4E487B7100000000000000000000000000000000000000000000000000000000 PUSH1 0x0 MSTORE PUSH1 0x22 PUSH1 0x4 MSTORE PUSH1 0x24 PUSH1 0x0 REVERT JUMPDEST PUSH1 0x0 PUSH1 0x2 DUP3 DIV SWAP1 POP PUSH1 0x1 DUP3 AND DUP1 PUSH2 0xB79 JUMPI PUSH1 0x7F DUP3 AND SWAP2 POP JUMPDEST PUSH1 0x20 DUP3 LT DUP2 SUB PUSH2 0xB8C JUMPI PUSH2 0xB8B PUSH2 0xB32 JUMP JUMPDEST JUMPDEST POP SWAP2 SWAP1 POP JUMP JUMPDEST PUSH32 0x4E487B7100000000000000000000000000000000000000000000000000000000 PUSH1 0x0 MSTORE PUSH1 0x32 PUSH1 0x4 MSTORE PUSH1 0x24 PUSH1 0x0 REVERT JUMPDEST PUSH1 0x0 DUP2 SWAP1 POP SWAP3 SWAP2 POP POP JUMP JUMPDEST PUSH1 0x0 DUP2 SWAP1 POP DUP2 PUSH1 0x0 MSTORE PUSH1 0x20 PUSH1 0x0 KECCAK256 SWAP1 POP SWAP2 SWAP1 POP JUMP JUMPDEST PUSH1 0x0 DUP2 SLOAD PUSH2 0xBEE DUP2 PUSH2 0xB61 JUMP JUMPDEST PUSH2 0xBF8 DUP2 DUP7 PUSH2 0xBC1 JUMP JUMPDEST SWAP5 POP PUSH1 0x1 DUP3 AND PUSH1 0x0 DUP2 EQ PUSH2 0xC13 JUMPI PUSH1 0x1 DUP2 EQ PUSH2 0xC28 JUMPI PUSH2 0xC5B JUMP JUMPDEST PUSH1 0xFF NOT DUP4 AND DUP7 MSTORE DUP2 ISZERO ISZERO DUP3 MUL DUP7 ADD SWAP4 POP PUSH2 0xC5B JUMP JUMPDEST PUSH2 0xC31 DUP6 PUSH2 0xBCC JUMP JUMPDEST PUSH1 0x0 JUMPDEST DUP4 DUP2 LT ISZERO PUSH2 0xC53 JUMPI DUP2 SLOAD DUP2 DUP10 ADD MSTORE PUSH1 0x1 DUP3 ADD SWAP2 POP PUSH1 0x20 DUP2 ADD SWAP1 POP PUSH2 0xC34 JUMP JUMPDEST DUP4 DUP9 ADD SWAP6 POP POP POP JUMPDEST POP POP POP SWAP3 SWAP2 POP POP JUMP JUMPDEST PUSH1 0x0 PUSH2 0xC70 DUP3 DUP5 PUSH2 0xBE1 JUMP JUMPDEST SWAP2 POP DUP2 SWAP1 POP SWAP3 SWAP2 POP POP JUMP JUMPDEST PUSH32 0x4E487B7100000000000000000000000000000000000000000000000000000000 PUSH1 0x0 MSTORE PUSH1 0x11 PUSH1 0x4 MSTORE PUSH1 0x24 PUSH1 0x0 REVERT JUMPDEST PUSH1 0x0 DUP2 SWAP1 POP SWAP2 SWAP1 POP JUMP JUMPDEST PUSH1 0x0 PUSH2 0xCBF DUP3 PUSH2 0xCAA JUMP JUMPDEST SWAP2 POP PUSH32 0xFFFFFFFFFFFFFFFFFFFFFFFFFFFFFFFFFFFFFFFFFFFFFFFFFFFFFFFFFFFFFFFF DUP3 SUB PUSH2 0xCF1 JUMPI PUSH2 0xCF0 PUSH2 0xC7B JUMP JUMPDEST JUMPDEST PUSH1 0x1 DUP3 ADD SWAP1 POP SWAP2 SWAP1 POP JUMP JUMPDEST PUSH1 0x0 PUSH2 0xD07 DUP3 PUSH2 0x73B JUMP JUMPDEST PUSH2 0xD11 DUP2 DUP6 PUSH2 0xBC1 JUMP JUMPDEST SWAP4 POP PUSH2 0xD21 DUP2 DUP6 PUSH1 0x20 DUP7 ADD PUSH2 0x757 JUMP JUMPDEST DUP1 DUP5 ADD SWAP2 POP POP SWAP3 SWAP2 POP POP JUMP JUMPDEST PUSH1 0x0 PUSH2 0xD39 DUP3 DUP5 PUSH2 0xCFC JUMP JUMPDEST SWAP2 POP DUP2 SWAP1 POP SWAP3 SWAP2 POP POP JUMP JUMPDEST PUSH1 0x0 DUP3 DUP3 MSTORE PUSH1 0x20 DUP3 ADD SWAP1 POP SWAP3 SWAP2 POP POP JUMP JUMPDEST PUSH1 0x0 PUSH2 0xD60 DUP3 PUSH2 0x73B JUMP JUMPDEST PUSH2 0xD6A DUP2 DUP6 PUSH2 0xD44 JUMP JUMPDEST SWAP4 POP PUSH2 0xD7A DUP2 DUP6 PUSH1 0x20 DUP7 ADD PUSH2 0x757 JUMP JUMPDEST PUSH2 0xD83 DUP2 PUSH2 0x781 JUMP JUMPDEST DUP5 ADD SWAP2 POP POP SWAP3 SWAP2 POP POP JUMP JUMPDEST PUSH1 0x0 PUSH1 0x20 DUP3 ADD SWAP1 POP DUP2 DUP2 SUB PUSH1 0x0 DUP4 ADD MSTORE PUSH2 0xDA8 DUP2 DUP5 PUSH2 0xD55 JUMP JUMPDEST SWAP1 POP SWAP3 SWAP2 POP POP JUMP JUMPDEST PUSH1 0x0 PUSH1 0x20 PUSH1 0x1F DUP4 ADD DIV SWAP1 POP SWAP2 SWAP1 POP JUMP JUMPDEST PUSH1 0x0 DUP3 DUP3 SHL SWAP1 POP SWAP3 SWAP2 POP POP JUMP JUMPDEST PUSH1 0x0 PUSH1 0x8 DUP4 MUL PUSH2 0xDFD PUSH32 0xFFFFFFFFFFFFFFFFFFFFFFFFFFFFFFFFFFFFFFFFFFFFFFFFFFFFFFFFFFFFFFFF DUP3 PUSH2 0xDC0 JUMP JUMPDEST PUSH2 0xE07 DUP7 DUP4 PUSH2 0xDC0 JUMP JUMPDEST SWAP6 POP DUP1 NOT DUP5 AND SWAP4 POP DUP1 DUP7 AND DUP5 OR SWAP3 POP POP POP SWAP4 SWAP3 POP POP POP JUMP JUMPDEST PUSH1 0x0 DUP2 SWAP1 POP SWAP2 SWAP1 POP JUMP JUMPDEST PUSH1 0x0 PUSH2 0xE44 PUSH2 0xE3F PUSH2 0xE3A DUP5 PUSH2 0xCAA JUMP JUMPDEST PUSH2 0xE1F JUMP JUMPDEST PUSH2 0xCAA JUMP JUMPDEST SWAP1 POP SWAP2 SWAP1 POP JUMP JUMPDEST PUSH1 0x0 DUP2 SWAP1 POP SWAP2 SWAP1 POP JUMP JUMPDEST PUSH2 0xE5E DUP4 PUSH2 0xE29 JUMP JUMPDEST PUSH2 0xE72 PUSH2 0xE6A DUP3 PUSH2 0xE4B JUMP JUMPDEST DUP5 DUP5 SLOAD PUSH2 0xDCD JUMP JUMPDEST DUP3 SSTORE POP POP POP POP JUMP JUMPDEST PUSH1 0x0 SWAP1 JUMP JUMPDEST PUSH2 0xE87 PUSH2 0xE7A JUMP JUMPDEST PUSH2 0xE92 DUP2 DUP5 DUP5 PUSH2 0xE55 JUMP JUMPDEST POP POP POP JUMP JUMPDEST JUMPDEST DUP2 DUP2 LT ISZERO PUSH2 0xEB6 JUMPI PUSH2 0xEAB PUSH1 0x0 DUP3 PUSH2 0xE7F JUMP JUMPDEST PUSH1 0x1 DUP2 ADD SWAP1 POP PUSH2 0xE98 JUMP JUMPDEST POP POP JUMP JUMPDEST PUSH1 0x1F DUP3 GT ISZERO PUSH2 0xEFB JUMPI PUSH2 0xECC DUP2 PUSH2 0xBCC JUMP JUMPDEST PUSH2 0xED5 DUP5 PUSH2 0xDB0 JUMP JUMPDEST DUP2 ADD PUSH1 0x20 DUP6 LT ISZERO PUSH2 0xEE4 JUMPI DUP2 SWAP1 POP JUMPDEST PUSH2 0xEF8 PUSH2 0xEF0 DUP6 PUSH2 0xDB0 JUMP JUMPDEST DUP4 ADD DUP3 PUSH2 0xE97 JUMP JUMPDEST POP POP JUMPDEST POP POP POP JUMP JUMPDEST PUSH1 0x0 DUP3 DUP3 SHR SWAP1 POP SWAP3 SWAP2 POP POP JUMP JUMPDEST PUSH1 0x0 PUSH2 0xF1E PUSH1 0x0 NOT DUP5 PUSH1 0x8 MUL PUSH2 0xF00 JUMP JUMPDEST NOT DUP1 DUP4 AND SWAP2 POP POP SWAP3 SWAP2 POP POP JUMP JUMPDEST PUSH1 0x0 PUSH2 0xF37 DUP4 DUP4 PUSH2 0xF0D JUMP JUMPDEST SWAP2 POP DUP3 PUSH1 0x2 MUL DUP3 OR SWAP1 POP SWAP3 SWAP2 POP POP JUMP JUMPDEST PUSH2 0xF50 DUP3 PUSH2 0x73B JUMP JUMPDEST PUSH8 0xFFFFFFFFFFFFFFFF DUP2 GT ISZERO PUSH2 0xF69 JUMPI PUSH2 0xF68 PUSH2 0x8FF JUMP JUMPDEST JUMPDEST PUSH2 0xF73 DUP3 SLOAD PUSH2 0xB61 JUMP JUMPDEST PUSH2 0xF7E DUP3 DUP3 DUP6 PUSH2 0xEBA JUMP JUMPDEST PUSH1 0x0 PUSH1 0x20 SWAP1 POP PUSH1 0x1F DUP4 GT PUSH1 0x1 DUP2 EQ PUSH2 0xFB1 JUMPI PUSH1 0x0 DUP5 ISZERO PUSH2 0xF9F JUMPI DUP3 DUP8 ADD MLOAD SWAP1 POP JUMPDEST PUSH2 0xFA9 DUP6 DUP3 PUSH2 0xF2B JUMP JUMPDEST DUP7 SSTORE POP PUSH2 0x1011 JUMP JUMPDEST PUSH1 0x1F NOT DUP5 AND PUSH2 0xFBF DUP7 PUSH2 0xBCC JUMP JUMPDEST PUSH1 0x0 JUMPDEST DUP3 DUP2 LT ISZERO PUSH2 0xFE7 JUMPI DUP5 DUP10 ADD MLOAD DUP3 SSTORE PUSH1 0x1 DUP3 ADD SWAP2 POP PUSH1 0x20 DUP6 ADD SWAP5 POP PUSH1 0x20 DUP2 ADD SWAP1 POP PUSH2 0xFC2 JUMP JUMPDEST DUP7 DUP4 LT ISZERO PUSH2 0x1004 JUMPI DUP5 DUP10 ADD MLOAD PUSH2 0x1000 PUSH1 0x1F DUP10 AND DUP3 PUSH2 0xF0D JUMP JUMPDEST DUP4 SSTORE POP JUMPDEST PUSH1 0x1 PUSH1 0x2 DUP9 MUL ADD DUP9 SSTORE POP POP POP JUMPDEST POP POP POP POP POP POP JUMP INVALID LOG2 PUSH5 0x6970667358 0x22 SLT KECCAK256 0xA7 MULMOD PUSH24 0xD101FDDE04359198660E8DBB9614C6CB3DC22DF53D8D9249 STATICCALL 0xF6 0xD1 0x4B 0xB4 PUSH5 0x736F6C6343 STOP ADDMOD GT STOP CALLER "
		},
		"gasEstimates": {
			"creation": {
				"codeDepositCost": "835000",
				"executionCost": "infinite",
				"totalCost": "infinite"
			},
			"external": {
				"addRecord(string)": "infinite",
				"getApprovedRecords()": "infinite",
				"getUserFavorites(address)": "infinite",
				"resetUserFavorites()": "infinite",
				"userFavorites(address,string)": "infinite"
			}
		},
		"methodIdentifiers": {
			"addRecord(string)": "d81aa8c4",
			"getApprovedRecords()": "1cf0830b",
			"getUserFavorites(address)": "c7853148",
			"resetUserFavorites()": "837f8878",
			"userFavorites(address,string)": "c75c333c"
		}
	},
	"abi": [
		{
			"inputs": [],
			"stateMutability": "nonpayable",
			"type": "constructor"
		},
		{
			"inputs": [
				{
					"internalType": "string",
					"name": "albumName",
					"type": "string"
				}
			],
			"name": "NotApproved",
			"type": "error"
		},
		{
			"inputs": [
				{
					"internalType": "string",
					"name": "_albumName",
					"type": "string"
				}
			],
			"name": "addRecord",
			"outputs": [],
			"stateMutability": "nonpayable",
			"type": "function"
		},
		{
			"inputs": [],
			"name": "getApprovedRecords",
			"outputs": [
				{
					"internalType": "string[]",
					"name": "",
					"type": "string[]"
				}
			],
			"stateMutability": "view",
			"type": "function"
		},
		{
			"inputs": [
				{
					"internalType": "address",
					"name": "_address",
					"type": "address"
				}
			],
			"name": "getUserFavorites",
			"outputs": [
				{
					"internalType": "string[]",
					"name": "",
					"type": "string[]"
				}
			],
			"stateMutability": "view",
			"type": "function"
		},
		{
			"inputs": [],
			"name": "resetUserFavorites",
			"outputs": [],
			"stateMutability": "nonpayable",
			"type": "function"
		},
		{
			"inputs": [
				{
					"internalType": "address",
					"name": "",
					"type": "address"
				},
				{
					"internalType": "string",
					"name": "",
					"type": "string"
				}
			],
			"name": "userFavorites",
			"outputs": [
				{
					"internalType": "bool",
					"name": "",
					"type": "bool"
				}
			],
			"stateMutability": "view",
			"type": "function"
		}
	]
}