{
	"data": {
		"bytecode": {
			"linkReferences": {},
			"object": "6080604052348015600e575f80fd5b506040516102953803806102958339818101604052810190602e9190607f565b8282815f819055508060018190555050508060028190555050505060c6565b5f80fd5b5f819050919050565b6061816051565b8114606a575f80fd5b50565b5f81519050607981605a565b92915050565b5f805f606084860312156093576092604d565b5b5f609e86828701606d565b935050602060ad86828701606d565b925050604060bc86828701606d565b9150509250925092565b6101c2806100d35f395ff3fe608060405234801561000f575f80fd5b506004361061004a575f3560e01c80633f83ea3b1461004e57806359a7b3fe1461006c5780635cdee0c01461008a578063f5895a0a146100a8575b5f80fd5b6100566100c6565b6040516100639190610105565b60405180910390f35b6100746100cb565b6040516100819190610105565b60405180910390f35b6100926100d1565b60405161009f9190610105565b60405180910390f35b6100b06100e7565b6040516100bd9190610105565b60405180910390f35b5f5481565b60025481565b5f6108206002546100e2919061014b565b905090565b60015481565b5f819050919050565b6100ff816100ed565b82525050565b5f6020820190506101185f8301846100f6565b92915050565b7f4e487b71000000000000000000000000000000000000000000000000000000005f52601160045260245ffd5b5f610155826100ed565b9150610160836100ed565b925082820261016e816100ed565b915082820484148315176101855761018461011e565b5b509291505056fea26469706673582212205e508e385b6ef574192d18dd6c526864a4052a1b14c774ff3d7be850e71ca37a64736f6c634300081a0033",
			"opcodes": "PUSH1 0x80 PUSH1 0x40 MSTORE CALLVALUE DUP1 ISZERO PUSH1 0xE JUMPI PUSH0 DUP1 REVERT JUMPDEST POP PUSH1 0x40 MLOAD PUSH2 0x295 CODESIZE SUB DUP1 PUSH2 0x295 DUP4 CODECOPY DUP2 DUP2 ADD PUSH1 0x40 MSTORE DUP2 ADD SWAP1 PUSH1 0x2E SWAP2 SWAP1 PUSH1 0x7F JUMP JUMPDEST DUP3 DUP3 DUP2 PUSH0 DUP2 SWAP1 SSTORE POP DUP1 PUSH1 0x1 DUP2 SWAP1 SSTORE POP POP POP DUP1 PUSH1 0x2 DUP2 SWAP1 SSTORE POP POP POP POP PUSH1 0xC6 JUMP JUMPDEST PUSH0 DUP1 REVERT JUMPDEST PUSH0 DUP2 SWAP1 POP SWAP2 SWAP1 POP JUMP JUMPDEST PUSH1 0x61 DUP2 PUSH1 0x51 JUMP JUMPDEST DUP2 EQ PUSH1 0x6A JUMPI PUSH0 DUP1 REVERT JUMPDEST POP JUMP JUMPDEST PUSH0 DUP2 MLOAD SWAP1 POP PUSH1 0x79 DUP2 PUSH1 0x5A JUMP JUMPDEST SWAP3 SWAP2 POP POP JUMP JUMPDEST PUSH0 DUP1 PUSH0 PUSH1 0x60 DUP5 DUP7 SUB SLT ISZERO PUSH1 0x93 JUMPI PUSH1 0x92 PUSH1 0x4D JUMP JUMPDEST JUMPDEST PUSH0 PUSH1 0x9E DUP7 DUP3 DUP8 ADD PUSH1 0x6D JUMP JUMPDEST SWAP4 POP POP PUSH1 0x20 PUSH1 0xAD DUP7 DUP3 DUP8 ADD PUSH1 0x6D JUMP JUMPDEST SWAP3 POP POP PUSH1 0x40 PUSH1 0xBC DUP7 DUP3 DUP8 ADD PUSH1 0x6D JUMP JUMPDEST SWAP2 POP POP SWAP3 POP SWAP3 POP SWAP3 JUMP JUMPDEST PUSH2 0x1C2 DUP1 PUSH2 0xD3 PUSH0 CODECOPY PUSH0 RETURN INVALID PUSH1 0x80 PUSH1 0x40 MSTORE CALLVALUE DUP1 ISZERO PUSH2 0xF JUMPI PUSH0 DUP1 REVERT JUMPDEST POP PUSH1 0x4 CALLDATASIZE LT PUSH2 0x4A JUMPI PUSH0 CALLDATALOAD PUSH1 0xE0 SHR DUP1 PUSH4 0x3F83EA3B EQ PUSH2 0x4E JUMPI DUP1 PUSH4 0x59A7B3FE EQ PUSH2 0x6C JUMPI DUP1 PUSH4 0x5CDEE0C0 EQ PUSH2 0x8A JUMPI DUP1 PUSH4 0xF5895A0A EQ PUSH2 0xA8 JUMPI JUMPDEST PUSH0 DUP1 REVERT JUMPDEST PUSH2 0x56 PUSH2 0xC6 JUMP JUMPDEST PUSH1 0x40 MLOAD PUSH2 0x63 SWAP2 SWAP1 PUSH2 0x105 JUMP JUMPDEST PUSH1 0x40 MLOAD DUP1 SWAP2 SUB SWAP1 RETURN JUMPDEST PUSH2 0x74 PUSH2 0xCB JUMP JUMPDEST PUSH1 0x40 MLOAD PUSH2 0x81 SWAP2 SWAP1 PUSH2 0x105 JUMP JUMPDEST PUSH1 0x40 MLOAD DUP1 SWAP2 SUB SWAP1 RETURN JUMPDEST PUSH2 0x92 PUSH2 0xD1 JUMP JUMPDEST PUSH1 0x40 MLOAD PUSH2 0x9F SWAP2 SWAP1 PUSH2 0x105 JUMP JUMPDEST PUSH1 0x40 MLOAD DUP1 SWAP2 SUB SWAP1 RETURN JUMPDEST PUSH2 0xB0 PUSH2 0xE7 JUMP JUMPDEST PUSH1 0x40 MLOAD PUSH2 0xBD SWAP2 SWAP1 PUSH2 0x105 JUMP JUMPDEST PUSH1 0x40 MLOAD DUP1 SWAP2 SUB SWAP1 RETURN JUMPDEST PUSH0 SLOAD DUP2 JUMP JUMPDEST PUSH1 0x2 SLOAD DUP2 JUMP JUMPDEST PUSH0 PUSH2 0x820 PUSH1 0x2 SLOAD PUSH2 0xE2 SWAP2 SWAP1 PUSH2 0x14B JUMP JUMPDEST SWAP1 POP SWAP1 JUMP JUMPDEST PUSH1 0x1 SLOAD DUP2 JUMP JUMPDEST PUSH0 DUP2 SWAP1 POP SWAP2 SWAP1 POP JUMP JUMPDEST PUSH2 0xFF DUP2 PUSH2 0xED JUMP JUMPDEST DUP3 MSTORE POP POP JUMP JUMPDEST PUSH0 PUSH1 0x20 DUP3 ADD SWAP1 POP PUSH2 0x118 PUSH0 DUP4 ADD DUP5 PUSH2 0xF6 JUMP JUMPDEST SWAP3 SWAP2 POP POP JUMP JUMPDEST PUSH32 0x4E487B7100000000000000000000000000000000000000000000000000000000 PUSH0 MSTORE PUSH1 0x11 PUSH1 0x4 MSTORE PUSH1 0x24 PUSH0 REVERT JUMPDEST PUSH0 PUSH2 0x155 DUP3 PUSH2 0xED JUMP JUMPDEST SWAP2 POP PUSH2 0x160 DUP4 PUSH2 0xED JUMP JUMPDEST SWAP3 POP DUP3 DUP3 MUL PUSH2 0x16E DUP2 PUSH2 0xED JUMP JUMPDEST SWAP2 POP DUP3 DUP3 DIV DUP5 EQ DUP4 ISZERO OR PUSH2 0x185 JUMPI PUSH2 0x184 PUSH2 0x11E JUMP JUMPDEST JUMPDEST POP SWAP3 SWAP2 POP POP JUMP INVALID LOG2 PUSH5 0x6970667358 0x22 SLT KECCAK256 MCOPY POP DUP15 CODESIZE JUMPDEST PUSH15 0xF574192D18DD6C526864A4052A1B14 0xC7 PUSH21 0xFF3D7BE850E71CA37A64736F6C634300081A003300 "
		},
		"gasEstimates": {
			"creation": {
				"codeDepositCost": "90000",
				"executionCost": "infinite",
				"totalCost": "infinite"
			},
			"external": {
				"getAnnualCost()": "infinite",
				"hourlyRate()": "2425",
				"idNumber()": "2402",
				"managerId()": "2469"
			}
		},
		"methodIdentifiers": {
			"getAnnualCost()": "5cdee0c0",
			"hourlyRate()": "59a7b3fe",
			"idNumber()": "3f83ea3b",
			"managerId()": "f5895a0a"
		}
	},
	"abi": [
		{
			"inputs": [
				{
					"internalType": "uint256",
					"name": "_idNumber",
					"type": "uint256"
				},
				{
					"internalType": "uint256",
					"name": "_managerId",
					"type": "uint256"
				},
				{
					"internalType": "uint256",
					"name": "_hourlyRate",
					"type": "uint256"
				}
			],
			"stateMutability": "nonpayable",
			"type": "constructor"
		},
		{
			"inputs": [],
			"name": "getAnnualCost",
			"outputs": [
				{
					"internalType": "uint256",
					"name": "",
					"type": "uint256"
				}
			],
			"stateMutability": "view",
			"type": "function"
		},
		{
			"inputs": [],
			"name": "hourlyRate",
			"outputs": [
				{
					"internalType": "uint256",
					"name": "",
					"type": "uint256"
				}
			],
			"stateMutability": "view",
			"type": "function"
		},
		{
			"inputs": [],
			"name": "idNumber",
			"outputs": [
				{
					"internalType": "uint256",
					"name": "",
					"type": "uint256"
				}
			],
			"stateMutability": "view",
			"type": "function"
		},
		{
			"inputs": [],
			"name": "managerId",
			"outputs": [
				{
					"internalType": "uint256",
					"name": "",
					"type": "uint256"
				}
			],
			"stateMutability": "view",
			"type": "function"
		}
	]
}